{
  "contractName": "ERC20Mock",
  "abi": [
    {
      "anonymous": false,
      "inputs": [
        {
          "indexed": true,
          "internalType": "address",
          "name": "owner",
          "type": "address"
        },
        {
          "indexed": true,
          "internalType": "address",
          "name": "spender",
          "type": "address"
        },
        {
          "indexed": false,
          "internalType": "uint256",
          "name": "value",
          "type": "uint256"
        }
      ],
      "name": "Approval",
      "type": "event"
    },
    {
      "anonymous": false,
      "inputs": [
        {
          "indexed": true,
          "internalType": "address",
          "name": "from",
          "type": "address"
        },
        {
          "indexed": true,
          "internalType": "address",
          "name": "to",
          "type": "address"
        },
        {
          "indexed": false,
          "internalType": "uint256",
          "name": "value",
          "type": "uint256"
        }
      ],
      "name": "Transfer",
      "type": "event"
    },
    {
      "inputs": [
        {
          "internalType": "address",
          "name": "owner",
          "type": "address"
        },
        {
          "internalType": "address",
          "name": "spender",
          "type": "address"
        }
      ],
      "name": "allowance",
      "outputs": [
        {
          "internalType": "uint256",
          "name": "",
          "type": "uint256"
        }
      ],
      "stateMutability": "view",
      "type": "function"
    },
    {
      "inputs": [
        {
          "internalType": "address",
          "name": "spender",
          "type": "address"
        },
        {
          "internalType": "uint256",
          "name": "value",
          "type": "uint256"
        }
      ],
      "name": "approve",
      "outputs": [
        {
          "internalType": "bool",
          "name": "",
          "type": "bool"
        }
      ],
      "stateMutability": "nonpayable",
      "type": "function"
    },
    {
      "inputs": [
        {
          "internalType": "address",
          "name": "owner",
          "type": "address"
        }
      ],
      "name": "balanceOf",
      "outputs": [
        {
          "internalType": "uint256",
          "name": "",
          "type": "uint256"
        }
      ],
      "stateMutability": "view",
      "type": "function"
    },
    {
      "inputs": [
        {
          "internalType": "address",
          "name": "spender",
          "type": "address"
        },
        {
          "internalType": "uint256",
          "name": "subtractedValue",
          "type": "uint256"
        }
      ],
      "name": "decreaseAllowance",
      "outputs": [
        {
          "internalType": "bool",
          "name": "",
          "type": "bool"
        }
      ],
      "stateMutability": "nonpayable",
      "type": "function"
    },
    {
      "inputs": [
        {
          "internalType": "address",
          "name": "spender",
          "type": "address"
        },
        {
          "internalType": "uint256",
          "name": "addedValue",
          "type": "uint256"
        }
      ],
      "name": "increaseAllowance",
      "outputs": [
        {
          "internalType": "bool",
          "name": "",
          "type": "bool"
        }
      ],
      "stateMutability": "nonpayable",
      "type": "function"
    },
    {
      "inputs": [],
      "name": "totalSupply",
      "outputs": [
        {
          "internalType": "uint256",
          "name": "",
          "type": "uint256"
        }
      ],
      "stateMutability": "view",
      "type": "function"
    },
    {
      "inputs": [
        {
          "internalType": "address",
          "name": "to",
          "type": "address"
        },
        {
          "internalType": "uint256",
          "name": "value",
          "type": "uint256"
        }
      ],
      "name": "transfer",
      "outputs": [
        {
          "internalType": "bool",
          "name": "",
          "type": "bool"
        }
      ],
      "stateMutability": "nonpayable",
      "type": "function"
    },
    {
      "inputs": [
        {
          "internalType": "address",
          "name": "from",
          "type": "address"
        },
        {
          "internalType": "address",
          "name": "to",
          "type": "address"
        },
        {
          "internalType": "uint256",
          "name": "value",
          "type": "uint256"
        }
      ],
      "name": "transferFrom",
      "outputs": [
        {
          "internalType": "bool",
          "name": "",
          "type": "bool"
        }
      ],
      "stateMutability": "nonpayable",
      "type": "function"
    },
    {
      "inputs": [
        {
          "internalType": "address",
          "name": "to",
          "type": "address"
        },
        {
          "internalType": "uint256",
          "name": "value",
          "type": "uint256"
        }
      ],
      "name": "issue",
      "outputs": [],
      "stateMutability": "nonpayable",
      "type": "function"
    }
  ],
  "bytecode": "0x608060405234801561001057600080fd5b50610736806100206000396000f3fe608060405234801561001057600080fd5b50600436106100935760003560e01c806370a082311161006657806370a0823114610154578063867904b41461017a578063a457c2d7146101a8578063a9059cbb146101d4578063dd62ed3e1461020057610093565b8063095ea7b31461009857806318160ddd146100d857806323b872dd146100f25780633950935114610128575b600080fd5b6100c4600480360360408110156100ae57600080fd5b506001600160a01b03813516906020013561022e565b604080519115158252519081900360200190f35b6100e061027d565b60408051918252519081900360200190f35b6100c46004803603606081101561010857600080fd5b506001600160a01b03813581169160208101359091169060400135610283565b6100c46004803603604081101561013e57600080fd5b506001600160a01b03813516906020013561035e565b6100e06004803603602081101561016a57600080fd5b50356001600160a01b03166103d8565b6101a66004803603604081101561019057600080fd5b506001600160a01b0381351690602001356103f3565b005b6100c4600480360360408110156101be57600080fd5b506001600160a01b038135169060200135610417565b6100c4600480360360408110156101ea57600080fd5b506001600160a01b038135169060200135610460565b6100e06004803603604081101561021657600080fd5b506001600160a01b03813581169160200135166104a9565b60006001600160a01b03831661024357600080fd5b3360008181526001602090815260408083206001600160a01b038816845290915290208390556102749084846104d4565b50600192915050565b60025490565b600061028e846103d8565b82111561029a57600080fd5b6001600160a01b03841660009081526001602090815260408083203384529091529020548211156102ca57600080fd5b6001600160a01b0383166102dd57600080fd5b6102e78483610524565b6102f1838361055d565b6001600160a01b0384166000908152600160209081526040808320338452909152902054610325908363ffffffff61057616565b6001600160a01b03851660009081526001602090815260408083203384529091529020556103548484846105bf565b5060019392505050565b60006001600160a01b03831661037357600080fd5b3360009081526001602090815260408083206001600160a01b03871684529091529020546103a7908363ffffffff61060f16565b3360008181526001602090815260408083206001600160a01b038916845290915290208290556102749185906104d4565b6001600160a01b031660009081526020819052604090205490565b6103fd828261055d565b600254610410908263ffffffff61060f16565b6002555050565b60006001600160a01b03831661042c57600080fd5b3360009081526001602090815260408083206001600160a01b03871684529091529020546103a7908363ffffffff61057616565b600061046b336103d8565b82111561047757600080fd5b6001600160a01b03831661048a57600080fd5b6104943383610524565b61049e838361055d565b6102743384846105bf565b6001600160a01b03918216600090815260016020908152604080832093909416825291909152205490565b816001600160a01b0316836001600160a01b03167f8c5be1e5ebec7d5bd14f71427d1e84f3dd0314c0f7b2291e5b200ac8c7c3b925836040518082815260200191505060405180910390a3505050565b61053d81610531846103d8565b9063ffffffff61057616565b6001600160a01b0390921660009081526020819052604090209190915550565b61053d8161056a846103d8565b9063ffffffff61060f16565b60006105b883836040518060400160405280601e81526020017f536166654d6174683a207375627472616374696f6e206f766572666c6f770000815250610669565b9392505050565b816001600160a01b0316836001600160a01b03167fddf252ad1be2c89b69c2b068fc378daa952ba7f163c4a11628f55a4df523b3ef836040518082815260200191505060405180910390a3505050565b6000828201838110156105b8576040805162461bcd60e51b815260206004820152601b60248201527f536166654d6174683a206164646974696f6e206f766572666c6f770000000000604482015290519081900360640190fd5b600081848411156106f85760405162461bcd60e51b81526004018080602001828103825283818151815260200191508051906020019080838360005b838110156106bd5781810151838201526020016106a5565b50505050905090810190601f1680156106ea5780820380516001836020036101000a031916815260200191505b509250505060405180910390fd5b50505090039056fea2646970667358221220aa67d534f9bfbcb33ae4b61585824b3f534fdc6cb71da6d872ccb0302888bce464736f6c63430006000033",
  "source": "pragma solidity >=0.6.0;\n\nimport \"./ERC20.sol\";\nimport \"./SafeMath.sol\";\n\ncontract ERC20Mock is ERC20 {\n\n    using SafeMath for uint;\n\n    function issue(address to, uint value) public {\n\n        addBalance(to, value);\n        _totalSupply = _totalSupply.add(value);\n    }\n}",
  "sourcePath": "/Users/dev/Documents/coding/defioptions/DeFiOptions-contracts/contracts/utils/ERC20Mock.sol",
  "compiler": {
    "name": "solc",
    "version": "0.6.0+commit.26b70077.Emscripten.clang"
  },
  "schemaVersion": "3.3.3",
  "updatedAt": "2021-03-13T11:36:42.618Z",
  "devdoc": {
    "methods": {}
  },
  "userdoc": {
    "methods": {}
  }
}