{
  "contractName": "LinearLiquidityPool",
  "abi": [
    {
      "inputs": [
        {
          "internalType": "address",
          "name": "deployer",
          "type": "address"
        }
      ],
      "stateMutability": "nonpayable",
      "type": "constructor"
    },
    {
      "anonymous": false,
      "inputs": [
        {
          "indexed": true,
          "internalType": "string",
          "name": "symbol",
          "type": "string"
        }
      ],
      "name": "AddSymbol",
      "type": "event"
    },
    {
      "anonymous": false,
      "inputs": [
        {
          "indexed": true,
          "internalType": "address",
          "name": "owner",
          "type": "address"
        },
        {
          "indexed": true,
          "internalType": "address",
          "name": "spender",
          "type": "address"
        },
        {
          "indexed": false,
          "internalType": "uint256",
          "name": "value",
          "type": "uint256"
        }
      ],
      "name": "Approval",
      "type": "event"
    },
    {
      "anonymous": false,
      "inputs": [
        {
          "indexed": true,
          "internalType": "string",
          "name": "symbol",
          "type": "string"
        },
        {
          "indexed": false,
          "internalType": "uint256",
          "name": "price",
          "type": "uint256"
        },
        {
          "indexed": false,
          "internalType": "uint256",
          "name": "volume",
          "type": "uint256"
        },
        {
          "indexed": false,
          "internalType": "address",
          "name": "token",
          "type": "address"
        }
      ],
      "name": "Buy",
      "type": "event"
    },
    {
      "anonymous": false,
      "inputs": [
        {
          "indexed": true,
          "internalType": "string",
          "name": "symbol",
          "type": "string"
        }
      ],
      "name": "RemoveSymbol",
      "type": "event"
    },
    {
      "anonymous": false,
      "inputs": [
        {
          "indexed": true,
          "internalType": "string",
          "name": "symbol",
          "type": "string"
        },
        {
          "indexed": false,
          "internalType": "uint256",
          "name": "price",
          "type": "uint256"
        },
        {
          "indexed": false,
          "internalType": "uint256",
          "name": "volume",
          "type": "uint256"
        }
      ],
      "name": "Sell",
      "type": "event"
    },
    {
      "anonymous": false,
      "inputs": [
        {
          "indexed": true,
          "internalType": "address",
          "name": "from",
          "type": "address"
        },
        {
          "indexed": true,
          "internalType": "address",
          "name": "to",
          "type": "address"
        },
        {
          "indexed": false,
          "internalType": "uint256",
          "name": "value",
          "type": "uint256"
        }
      ],
      "name": "Transfer",
      "type": "event"
    },
    {
      "inputs": [
        {
          "internalType": "address",
          "name": "owner",
          "type": "address"
        },
        {
          "internalType": "address",
          "name": "spender",
          "type": "address"
        }
      ],
      "name": "allowance",
      "outputs": [
        {
          "internalType": "uint256",
          "name": "",
          "type": "uint256"
        }
      ],
      "stateMutability": "view",
      "type": "function"
    },
    {
      "inputs": [
        {
          "internalType": "address",
          "name": "spender",
          "type": "address"
        },
        {
          "internalType": "uint256",
          "name": "value",
          "type": "uint256"
        }
      ],
      "name": "approve",
      "outputs": [
        {
          "internalType": "bool",
          "name": "",
          "type": "bool"
        }
      ],
      "stateMutability": "nonpayable",
      "type": "function"
    },
    {
      "inputs": [
        {
          "internalType": "address",
          "name": "owner",
          "type": "address"
        }
      ],
      "name": "balanceOf",
      "outputs": [
        {
          "internalType": "uint256",
          "name": "",
          "type": "uint256"
        }
      ],
      "stateMutability": "view",
      "type": "function"
    },
    {
      "inputs": [
        {
          "internalType": "address",
          "name": "spender",
          "type": "address"
        },
        {
          "internalType": "uint256",
          "name": "subtractedValue",
          "type": "uint256"
        }
      ],
      "name": "decreaseAllowance",
      "outputs": [
        {
          "internalType": "bool",
          "name": "",
          "type": "bool"
        }
      ],
      "stateMutability": "nonpayable",
      "type": "function"
    },
    {
      "inputs": [],
      "name": "destroy",
      "outputs": [],
      "stateMutability": "nonpayable",
      "type": "function"
    },
    {
      "inputs": [
        {
          "internalType": "uint256",
          "name": "limit",
          "type": "uint256"
        }
      ],
      "name": "destroy",
      "outputs": [],
      "stateMutability": "nonpayable",
      "type": "function"
    },
    {
      "inputs": [
        {
          "internalType": "address",
          "name": "spender",
          "type": "address"
        },
        {
          "internalType": "uint256",
          "name": "addedValue",
          "type": "uint256"
        }
      ],
      "name": "increaseAllowance",
      "outputs": [
        {
          "internalType": "bool",
          "name": "",
          "type": "bool"
        }
      ],
      "stateMutability": "nonpayable",
      "type": "function"
    },
    {
      "inputs": [
        {
          "internalType": "contract Deployer",
          "name": "deployer",
          "type": "address"
        }
      ],
      "name": "initializeAndLock",
      "outputs": [],
      "stateMutability": "nonpayable",
      "type": "function"
    },
    {
      "inputs": [
        {
          "internalType": "uint256",
          "name": "index",
          "type": "uint256"
        }
      ],
      "name": "redeem",
      "outputs": [
        {
          "internalType": "uint256",
          "name": "",
          "type": "uint256"
        }
      ],
      "stateMutability": "nonpayable",
      "type": "function"
    },
    {
      "inputs": [],
      "name": "totalSupply",
      "outputs": [
        {
          "internalType": "uint256",
          "name": "",
          "type": "uint256"
        }
      ],
      "stateMutability": "view",
      "type": "function"
    },
    {
      "inputs": [
        {
          "internalType": "address",
          "name": "to",
          "type": "address"
        },
        {
          "internalType": "uint256",
          "name": "value",
          "type": "uint256"
        }
      ],
      "name": "transfer",
      "outputs": [
        {
          "internalType": "bool",
          "name": "",
          "type": "bool"
        }
      ],
      "stateMutability": "nonpayable",
      "type": "function"
    },
    {
      "inputs": [
        {
          "internalType": "address",
          "name": "from",
          "type": "address"
        },
        {
          "internalType": "address",
          "name": "to",
          "type": "address"
        },
        {
          "internalType": "uint256",
          "name": "value",
          "type": "uint256"
        }
      ],
      "name": "transferFrom",
      "outputs": [
        {
          "internalType": "bool",
          "name": "",
          "type": "bool"
        }
      ],
      "stateMutability": "nonpayable",
      "type": "function"
    },
    {
      "inputs": [
        {
          "internalType": "uint256",
          "name": "_spread",
          "type": "uint256"
        },
        {
          "internalType": "uint256",
          "name": "_reserveRatio",
          "type": "uint256"
        },
        {
          "internalType": "uint256",
          "name": "_maturity",
          "type": "uint256"
        }
      ],
      "name": "setParameters",
      "outputs": [],
      "stateMutability": "nonpayable",
      "type": "function"
    },
    {
      "inputs": [],
      "name": "redeemAllowed",
      "outputs": [
        {
          "internalType": "bool",
          "name": "",
          "type": "bool"
        }
      ],
      "stateMutability": "nonpayable",
      "type": "function"
    },
    {
      "inputs": [],
      "name": "apy",
      "outputs": [
        {
          "internalType": "uint256",
          "name": "",
          "type": "uint256"
        }
      ],
      "stateMutability": "view",
      "type": "function"
    },
    {
      "inputs": [
        {
          "internalType": "string",
          "name": "symbol",
          "type": "string"
        },
        {
          "internalType": "address",
          "name": "udlFeed",
          "type": "address"
        },
        {
          "internalType": "uint256",
          "name": "strike",
          "type": "uint256"
        },
        {
          "internalType": "uint256",
          "name": "_maturity",
          "type": "uint256"
        },
        {
          "internalType": "enum OptionsExchange.OptionType",
          "name": "optType",
          "type": "uint8"
        },
        {
          "internalType": "uint256",
          "name": "t0",
          "type": "uint256"
        },
        {
          "internalType": "uint256",
          "name": "t1",
          "type": "uint256"
        },
        {
          "internalType": "uint256[]",
          "name": "x",
          "type": "uint256[]"
        },
        {
          "internalType": "uint256[]",
          "name": "y",
          "type": "uint256[]"
        },
        {
          "internalType": "uint256",
          "name": "buyStock",
          "type": "uint256"
        },
        {
          "internalType": "uint256",
          "name": "sellStock",
          "type": "uint256"
        }
      ],
      "name": "addSymbol",
      "outputs": [],
      "stateMutability": "nonpayable",
      "type": "function"
    },
    {
      "inputs": [
        {
          "internalType": "string",
          "name": "symbol",
          "type": "string"
        }
      ],
      "name": "removeSymbol",
      "outputs": [],
      "stateMutability": "nonpayable",
      "type": "function"
    },
    {
      "inputs": [
        {
          "internalType": "address",
          "name": "to",
          "type": "address"
        },
        {
          "internalType": "address",
          "name": "token",
          "type": "address"
        },
        {
          "internalType": "uint256",
          "name": "value",
          "type": "uint256"
        }
      ],
      "name": "depositTokens",
      "outputs": [],
      "stateMutability": "nonpayable",
      "type": "function"
    },
    {
      "inputs": [],
      "name": "listSymbols",
      "outputs": [
        {
          "internalType": "string",
          "name": "available",
          "type": "string"
        }
      ],
      "stateMutability": "nonpayable",
      "type": "function"
    },
    {
      "inputs": [
        {
          "internalType": "string",
          "name": "symbol",
          "type": "string"
        }
      ],
      "name": "queryBuy",
      "outputs": [
        {
          "internalType": "uint256",
          "name": "price",
          "type": "uint256"
        },
        {
          "internalType": "uint256",
          "name": "volume",
          "type": "uint256"
        }
      ],
      "stateMutability": "view",
      "type": "function"
    },
    {
      "inputs": [
        {
          "internalType": "string",
          "name": "symbol",
          "type": "string"
        }
      ],
      "name": "querySell",
      "outputs": [
        {
          "internalType": "uint256",
          "name": "price",
          "type": "uint256"
        },
        {
          "internalType": "uint256",
          "name": "volume",
          "type": "uint256"
        }
      ],
      "stateMutability": "view",
      "type": "function"
    },
    {
      "inputs": [
        {
          "internalType": "string",
          "name": "symbol",
          "type": "string"
        },
        {
          "internalType": "uint256",
          "name": "price",
          "type": "uint256"
        },
        {
          "internalType": "uint256",
          "name": "volume",
          "type": "uint256"
        },
        {
          "internalType": "address",
          "name": "token",
          "type": "address"
        }
      ],
      "name": "buy",
      "outputs": [
        {
          "internalType": "address",
          "name": "addr",
          "type": "address"
        }
      ],
      "stateMutability": "nonpayable",
      "type": "function"
    },
    {
      "inputs": [
        {
          "internalType": "string",
          "name": "symbol",
          "type": "string"
        },
        {
          "internalType": "uint256",
          "name": "price",
          "type": "uint256"
        },
        {
          "internalType": "uint256",
          "name": "volume",
          "type": "uint256"
        }
      ],
      "name": "sell",
      "outputs": [],
      "stateMutability": "nonpayable",
      "type": "function"
    }
  ],
  "bytecode": "0x60806040523480156200001157600080fd5b506040516200401c3803806200401c833981810160405260208110156200003757600080fd5b50516040805163ac119e7b60e01b815260206004820152601360248201527f4c696e6561724c6971756964697479506f6f6c00000000000000000000000000604482015290516001600160a01b0383169163ac119e7b91606480830192600092919082900301818387803b158015620000af57600080fd5b505af1158015620000c4573d6000803e3d6000fd5b5050505050613f4380620000d96000396000f3fe608060405234801561001057600080fd5b506004361061014d5760003560e01c806370a08231116100c3578063a9059cbb1161007c578063a9059cbb14610675578063ad56d52e146106a1578063c7f1978e14610740578063d259945d14610748578063db006a75146107ec578063dd62ed3e146108095761014d565b806370a08231146103fc57806383197ef0146104225780638e424b6b1461042a5780639bc53cb2146104e75780639d1187701461062c578063a457c2d7146106495761014d565b806336977d321161011557806336977d321461028157806339509351146102ef57806339dc5ef21461031b5780633bcfc4b81461035157806345e77633146103595780635c1bfb32146103d65761014d565b806304804ee814610152578063095ea7b3146101c857806318160ddd1461020857806323b872dd1461022257806334c5d2ce14610258575b600080fd5b6101c66004803603606081101561016857600080fd5b810190602081018135600160201b81111561018257600080fd5b82018360208201111561019457600080fd5b803590602001918460018302840111600160201b831117156101b557600080fd5b919350915080359060200135610837565b005b6101f4600480360360408110156101de57600080fd5b506001600160a01b038135169060200135610e3d565b604080519115158252519081900360200190f35b610210610e8d565b60408051918252519081900360200190f35b6101f46004803603606081101561023857600080fd5b506001600160a01b03813581169160208101359091169060400135610e94565b6101c66004803603606081101561026e57600080fd5b5080359060208101359060400135610f6f565b6101c66004803603602081101561029757600080fd5b810190602081018135600160201b8111156102b157600080fd5b8201836020820111156102c357600080fd5b803590602001918460018302840111600160201b831117156102e457600080fd5b509092509050610f85565b6101f46004803603604081101561030557600080fd5b506001600160a01b038135169060200135611153565b6101c66004803603606081101561033157600080fd5b506001600160a01b038135811691602081013590911690604001356111cd565b61021061140d565b610361611412565b6040805160208082528351818301528351919283929083019185019080838360005b8381101561039b578181015183820152602001610383565b50505050905090810190601f1680156103c85780820380516001836020036101000a031916815260200191505b509250505060405180910390f35b6101c6600480360360208110156103ec57600080fd5b50356001600160a01b03166116cf565b6102106004803603602081101561041257600080fd5b50356001600160a01b0316611736565b6101c6611751565b6104ce6004803603602081101561044057600080fd5b810190602081018135600160201b81111561045a57600080fd5b82018360208201111561046c57600080fd5b803590602001918460018302840111600160201b8311171561048d57600080fd5b91908080601f01602080910402602001604051908101604052809392919081815260200183838082843760009201919091525092955061175e945050505050565b6040805192835260208301919091528051918290030190f35b6101c660048036036101608110156104fe57600080fd5b810190602081018135600160201b81111561051857600080fd5b82018360208201111561052a57600080fd5b803590602001918460018302840111600160201b8311171561054b57600080fd5b919390926001600160a01b038335169260208101359260408201359260ff6060840135169260808101359260a082013592909160e081019060c00135600160201b81111561059857600080fd5b8201836020820111156105aa57600080fd5b803590602001918460208302840111600160201b831117156105cb57600080fd5b919390929091602081019035600160201b8111156105e857600080fd5b8201836020820111156105fa57600080fd5b803590602001918460208302840111600160201b8311171561061b57600080fd5b91935091508035906020013561199a565b6101c66004803603602081101561064257600080fd5b5035611cca565b6101f46004803603604081101561065f57600080fd5b506001600160a01b038135169060200135611e5b565b6101f46004803603604081101561068b57600080fd5b506001600160a01b038135169060200135611ea4565b610724600480360360808110156106b757600080fd5b810190602081018135600160201b8111156106d157600080fd5b8201836020820111156106e357600080fd5b803590602001918460018302840111600160201b8311171561070457600080fd5b9193509150803590602081013590604001356001600160a01b0316611eed565b604080516001600160a01b039092168252519081900360200190f35b6101f4612508565b6104ce6004803603602081101561075e57600080fd5b810190602081018135600160201b81111561077857600080fd5b82018360208201111561078a57600080fd5b803590602001918460018302840111600160201b831117156107ab57600080fd5b91908080601f016020809104026020016040519081016040528093929190818152602001838380828437600092019190915250929550612584945050505050565b6102106004803603602081101561080257600080fd5b50356127c0565b6102106004803603604081101561081f57600080fd5b506001600160a01b03813581169160200135166128c1565b61087684848080601f0160208091040260200160405190810160405280939291908181526020018383808284376000920191909152506128ec92505050565b61087e613cf4565b600985856040518083838082843791909101948552505060408051602094819003850181206101408201835280546001600160a01b03168252600180820154968301969096526002810154928201929092526003820154909491935060608501925060ff16908111156108ed57fe5b60018111156108f857fe5b815260200160048201548152602001600582015481526020016006820180548060200260200160405190810160405280929190818152602001828054801561095f57602002820191906000526020600020905b81548152602001906001019080831161094b575b50505050508152602001600782018054806020026020016040519081016040528092919081815260200182805480156109b757602002820191906000526020600020905b8154815260200190600101908083116109a3575b5050505050815260200160088201548152602001600982015481525050905060006109e38260016129ac565b905080841115610a2f576040805162461bcd60e51b8152602060048201526012602482015271696e73756666696369656e7420707269636560701b604482015290519081900360640190fd5b600654604051638c922b6360e01b8152602060048201908152602482018890526000926001600160a01b031691638c922b63918a918a91908190604401848480828437600083820152604051601f909101601f191690920195506020945090925050508083038186803b158015610aa557600080fd5b505afa158015610ab9573d6000803e3d6000fd5b505050506040513d6020811015610acf57600080fd5b5051604080516323b872dd60e01b815233600482015230602482015260448101879052905191925082916001600160a01b038316916323b872dd9160648083019260209291908290030181600087803b158015610b2b57600080fd5b505af1158015610b3f573d6000803e3d6000fd5b505050506040513d6020811015610b5557600080fd5b5050601254600090610b7d90610b71868963ffffffff612ba816565b9063ffffffff612c0816565b600654604080516356a6d9ef60e01b81523360048201526024810184905290519293506001600160a01b03909116916356a6d9ef9160448082019260009290919082900301818387803b158015610bd357600080fd5b505af1158015610be7573d6000803e3d6000fd5b505050506000610bf5612c4a565b11610c3a576040805162461bcd60e51b815260206004820152601060248201526f65786365737369766520766f6c756d6560801b604482015290519081900360640190fd5b6000610c7487600b8c8c6040518083838082843791909101948552505060405192839003602001909220549291505063ffffffff612d8416565b90506000600a8b8b60405180838380828437919091019485525050604051928390036020019092205492505081159050610d66576000610cb4828a612dde565b9050846001600160a01b03166342966c68826040518263ffffffff1660e01b815260040180828152602001915050600060405180830381600087803b158015610cfc57600080fd5b505af1158015610d10573d6000803e3d6000fd5b50505050610d278183612df490919063ffffffff16565b600a8d8d60405180838380828437919091019485525050604051928390036020019092209290925550610d629050838263ffffffff612df416565b9250505b866101200151821115610db3576040805162461bcd60e51b815260206004820152601060248201526f65786365737369766520766f6c756d6560801b604482015290519081900360640190fd5b81600b8c8c6040518083838082843791909101948552505060405192839003602001832093909355508c91508b9080838380828437604080519390910183900383208f8452602084018f905281519096507f6ca5b43ed2d103f5392dd32f0d7f742584b88f99f3713ceaf94ae5f8fa64ba1e95509283900301925050a25050505050505050505050565b60006001600160a01b038316610e5257600080fd5b3360008181526004602090815260408083206001600160a01b03881684529091529020839055610e83908484612e36565b5060015b92915050565b6005545b90565b6000610e9f84611736565b821115610eab57600080fd5b6001600160a01b0384166000908152600460209081526040808320338452909152902054821115610edb57600080fd5b6001600160a01b038316610eee57600080fd5b610ef88483612e86565b610f028383612eb3565b6001600160a01b0384166000908152600460209081526040808320338452909152902054610f36908363ffffffff612df416565b6001600160a01b0385166000908152600460209081526040808320338452909152902055610f65848484612f25565b5060019392505050565b610f77612f75565b600d92909255600e55600f55565b610f8d612f75565b610f95613cf4565b8060098484604051808383808284379190910194855250506040805160209481900385019020855181546001600160a01b0319166001600160a01b03909116178155938501516001808601919091559085015160028501556060850151600385018054919450925060ff191690838181111561100d57fe5b02179055506080820151600482015560a0820151600582015560c08201518051611041916006840191602090910190613d47565b5060e0820151805161105d916007840191602090910190613d47565b5061010082015181600801556101208201518160090155905050600a8383604051808383808284379190910194855250506040519283900360200183206000905550600b91859150849080838380828437808301925050509250505090815260200160405180910390206000905561110c601484848080601f016020809104026020016040519081016040528093929190818152602001838380828437600092019190915250612fde92505050565b508282604051808383808284376040519201829003822094507f4b62493f4f8ba00316d1e11c870ddc857bd37e50aafe15a7ad4d3f6ac1c6d34d93506000925050a2505050565b60006001600160a01b03831661116857600080fd5b3360009081526004602090815260408083206001600160a01b038716845290915290205461119c908363ffffffff612d8416565b3360008181526004602090815260408083206001600160a01b03891684529091529020829055610e83918590612e36565b600654604080516370a0823160e01b815230600482015290516000926001600160a01b0316916370a08231916024808301926020929190829003018186803b15801561121857600080fd5b505afa15801561122c573d6000803e3d6000fd5b505050506040513d602081101561124257600080fd5b5051905061125133848461310d565b600654604080516370a0823160e01b815230600482015290516000926001600160a01b0316916370a08231916024808301926020929190829003018186803b15801561129c57600080fd5b505afa1580156112b0573d6000803e3d6000fd5b505050506040513d60208110156112c657600080fd5b50516006546040805162b08c1d60e21b815230600482015290519293506000926113569285926001600160a01b03909116916302c2307491602480820192602092909190829003018186803b15801561131e57600080fd5b505afa158015611332573d6000803e3d6000fd5b505050506040513d602081101561134857600080fd5b50519063ffffffff61328d16565b905060006005549050600061138a83610b7160135461137e8989612df490919063ffffffff16565b9063ffffffff612ba816565b90506103e86000836113ab576113a6858363ffffffff612ba816565b6113d6565b6013546113d6906113c2908563ffffffff612df416565b610b718461137e888863ffffffff612ba816565b90506113e281836132f2565b90506113ee8a82612eb3565b6113fe848263ffffffff612d8416565b60055550505050505050505050565b600090565b606060005b6014548110156116cb57600860009054906101000a90046001600160a01b03166001600160a01b031663bbe4fd506040518163ffffffff1660e01b815260040160206040518083038186803b15801561146f57600080fd5b505afa158015611483573d6000803e3d6000fd5b505050506040513d602081101561149957600080fd5b50516014805460099190849081106114ad57fe5b9060005260206000200160405180828054600181600116156101000203166002900480156115125780601f106114f0576101008083540402835291820191611512565b820191906000526020600020905b8154815290600101906020018083116114fe575b505091505090815260200160405180910390206002015411156116c35781516115dc576014818154811061154257fe5b600091825260209182902001805460408051601f60026000196101006001871615020190941693909304928301859004850281018501909152818152928301828280156115d05780601f106115a5576101008083540402835291602001916115d0565b820191906000526020600020905b8154815290600101906020018083116115b357829003601f168201915b505050505091506116c3565b81601482815481106115ea57fe5b906000526020600020016040516020018083805190602001908083835b602083106116265780518252601f199092019160209182019101611607565b6001836020036101000a03801982511681845116808217855250505050505090500180600560f91b815250600101828054600181600116156101000203166002900480156116ab5780601f106116895761010080835404028352918201916116ab565b820191906000526020600020905b815481529060010190602001808311611697575b50509250505060405160208183030381529060405291505b600101611417565b5090565b600254600160a01b900460ff1615611717576040805162461bcd60e51b81526020600482015260066024820152651b1bd8dad95960d21b604482015290519081900360640190fd5b61172081613335565b506002805460ff60a01b1916600160a01b179055565b6001600160a01b031660009081526003602052604090205490565b61175c600019611cca565b565b60008061176a836128ec565b611772613cf4565b6009846040518082805190602001908083835b602083106117a45780518252601f199092019160209182019101611785565b51815160209384036101000a60001901801990921691161790529201948552506040805194859003820185206101408601825280546001600160a01b0316865260018082015493870193909352600281015491860191909152600381015490935060608501925060ff169081111561181857fe5b600181111561182357fe5b815260200160048201548152602001600582015481526020016006820180548060200260200160405190810160405280929190818152602001828054801561188a57602002820191906000526020600020905b815481526020019060010190808311611876575b50505050508152602001600782018054806020026020016040519081016040528092919081815260200182805480156118e257602002820191906000526020600020905b8154815260200190600101908083116118ce575b5050505050815260200160088201548152602001600982015481525050905061190c8160016129ac565b925061199261191d8285600161358c565b61198d600b876040518082805190602001908083835b602083106119525780518252601f199092019160209182019101611933565b51815160209384036101000a600019018019909216911617905292019485525060405193849003019092205461012087015192509050612df4565b612dde565b915050915091565b6119a2612f75565b600f548a106119eb576040805162461bcd60e51b815260206004820152601060248201526f696e76616c6964206d6174757269747960801b604482015290519081900360640190fd5b8415801590611a09575082611a0786600263ffffffff612ba816565b145b611a5a576040805162461bcd60e51b815260206004820152601760248201527f696e76616c69642070726963696e672073757266616365000000000000000000604482015290519081900360640190fd5b60098e8e60405180838380828437919091019485525050604051928390036020019092206006015415159150611acb90505760148054600181018255600091909152611ac9907fce6d7b5282bd9a3661ae061feed1dbda4e52ab073b1f9285be6e155d9c38d4ec018f8f613d8e565b505b6040518061014001604052808d6001600160a01b031681526020018c81526020018b81526020018a6001811115611afe57fe5b81526020018981526020018881526020018787808060200260200160405190810160405280939291908181526020018383602002808284376000920191909152505050908252506040805160208781028281018201909352878252928301929091889188918291850190849080828437600081840152601f19601f8201169050808301925050505050505081526020018381526020018281525060098f8f604051808383808284379190910194855250506040805160209481900385019020855181546001600160a01b0319166001600160a01b03909116178155938501516001808601919091559085015160028501556060850151600385018054919450925060ff1916908381811115611c0f57fe5b02179055506080820151600482015560a0820151600582015560c08201518051611c43916006840191602090910190613d47565b5060e08201518051611c5f916007840191602090910190613d47565b50610100820151816008015561012082015181600901559050508d8d604051808383808284376040519201829003822094507f27136bc3b80a2a48083d0f3dd8acaf97309ab58abf6408d4ab39af25b6b4168e93506000925050a25050505050505050505050505050565b611cd2612508565b611cdb57600080fd5b600654604080516370a0823160e01b815230600482015290516000926001600160a01b0316916370a08231916024808301926020929190829003018186803b158015611d2657600080fd5b505afa158015611d3a573d6000803e3d6000fd5b505050506040513d6020811015611d5057600080fd5b505160055460075491925082918190600019015b6000198114158015611d7557508515155b8015611d815750600084115b15611dd757600080611d9487868561382a565b9092509050611da9868263ffffffff612df416565b9550611dbb848363ffffffff612df416565b9350611dc8600784613957565b50506000199586019501611d64565b508215611e4a57600654604080516356a6d9ef60e01b81523360048201526024810186905290516001600160a01b03909216916356a6d9ef9160448082019260009290919082900301818387803b158015611e3157600080fd5b505af1158015611e45573d6000803e3d6000fd5b505050505b80611e525733ff5b60055550505050565b60006001600160a01b038316611e7057600080fd5b3360009081526004602090815260408083206001600160a01b038716845290915290205461119c908363ffffffff612df416565b6000611eaf33611736565b821115611ebb57600080fd5b6001600160a01b038316611ece57600080fd5b611ed83383612e86565b611ee28383612eb3565b610e83338484612f25565b6000611f2e86868080601f0160208091040260200160405190810160405280939291908181526020018383808284376000920191909152506128ec92505050565b611f36613cf4565b600987876040518083838082843791909101948552505060408051602094819003850181206101408201835280546001600160a01b03168252600180820154968301969096526002810154928201929092526003820154909491935060608501925060ff1690811115611fa557fe5b6001811115611fb057fe5b815260200160048201548152602001600582015481526020016006820180548060200260200160405190810160405280929190818152602001828054801561201757602002820191906000526020600020905b815481526020019060010190808311612003575b505050505081526020016007820180548060200260200160405190810160405280929190818152602001828054801561206f57602002820191906000526020600020905b81548152602001906001019080831161205b575b50505050508152602001600882015481526020016009820154815250509050600061209b8260006129ac565b9050808610156120e7576040805162461bcd60e51b8152602060048201526012602482015271696e73756666696369656e7420707269636560701b604482015290519081900360640190fd5b60125460009061210190610b71848963ffffffff612ba816565b905061210e33868361310d565b6000600b8a8a6040518083838082843791909101948552505060405192839003602001909220549250505080871115612324576000600a8b8b6040518083838082843791909101948552505060405192839003602001909220549250600091506121809050898463ffffffff612df416565b610100870151909150612199838363ffffffff612d8416565b11156121df576040805162461bcd60e51b815260206004820152601060248201526f65786365737369766520766f6c756d6560801b604482015290519081900360640190fd5b6121ef828263ffffffff612d8416565b600a8d8d60405180838380828437919091019485525050604080519384900360209081018520959095556006548b5160608d0151968d0151928d015163092d858160e41b87526001600160a01b0382811660048901908152602489018b90529316976392d85810979296508995509392909160440184600181111561227057fe5b60ff16815260200183815260200182815260200195505050505050602060405180830381600087803b1580156122a557600080fd5b505af11580156122b9573d6000803e3d6000fd5b505050506040513d60208110156122cf57600080fd5b50600090506122dc612c4a565b11612321576040805162461bcd60e51b815260206004820152601060248201526f65786365737369766520766f6c756d6560801b604482015290519081900360640190fd5b50505b80156123745760006123368289612dde565b9050612348828263ffffffff612df416565b600b8c8c6040518083838082843791909101948552505060405192839003602001909220929092555050505b600654604051638c922b6360e01b8152602060048201908152602482018c90526001600160a01b0390921691638c922b63918d918d918190604401848480828437600083820152604051601f909101601f191690920195506020945090925050508083038186803b1580156123e857600080fd5b505afa1580156123fc573d6000803e3d6000fd5b505050506040513d602081101561241257600080fd5b50516040805163a9059cbb60e01b8152336004820152602481018a9052905191965086916001600160a01b0383169163a9059cbb9160448083019260209291908290030181600087803b15801561246857600080fd5b505af115801561247c573d6000803e3d6000fd5b505050506040513d602081101561249257600080fd5b50506040518b908b9080838380828437604080519390910183900383208f8452602084018f90526001600160a01b038e168483015290519095507fe5ebb912ac3a4ce7780f265bffdf260e716e56da3ed7abc2f02b4a9f38b87065945091829003606001925050a2505050505095945050505050565b600f5460085460408051630bbe4fd560e41b81529051600093926001600160a01b03169163bbe4fd50916004808301926020929190829003018186803b15801561255157600080fd5b505afa158015612565573d6000803e3d6000fd5b505050506040513d602081101561257b57600080fd5b50511015905090565b600080612590836128ec565b612598613cf4565b6009846040518082805190602001908083835b602083106125ca5780518252601f1990920191602091820191016125ab565b51815160209384036101000a60001901801990921691161790529201948552506040805194859003820185206101408601825280546001600160a01b0316865260018082015493870193909352600281015491860191909152600381015490935060608501925060ff169081111561263e57fe5b600181111561264957fe5b81526020016004820154815260200160058201548152602001600682018054806020026020016040519081016040528092919081815260200182805480156126b057602002820191906000526020600020905b81548152602001906001019080831161269c575b505050505081526020016007820180548060200260200160405190810160405280929190818152602001828054801561270857602002820191906000526020600020905b8154815260200190600101908083116126f4575b505050505081526020016008820154815260200160098201548152505090506127328160006129ac565b92506119926127438285600061358c565b61198d600a876040518082805190602001908083835b602083106127785780518252601f199092019160209182019101612759565b6001836020036101000a038019825116818451168082178552505050505050905001915050908152602001604051809103902054846101000151612df490919063ffffffff16565b60006127ca612508565b612810576040805162461bcd60e51b81526020600482015260126024820152711c995919595b481b9bdd08185b1b1bddd95960721b604482015290519081900360640190fd5b600654604080516370a0823160e01b815230600482015290516000926001600160a01b0316916370a08231916024808301926020929190829003018186803b15801561285b57600080fd5b505afa15801561286f573d6000803e3d6000fd5b505050506040513d602081101561288557600080fd5b5051600554909150600090819061289e9084908761382a565b60055491935091506128b6908363ffffffff612df416565b600555949350505050565b6001600160a01b03918216600090815260046020908152604080832093909416825291909152205490565b60006001600160a01b03166009826040518082805190602001908083835b602083106129295780518252601f19909201916020918201910161290a565b51815160209384036101000a60001901801990921691161790529201948552506040519384900301909220546001600160a01b0316929092141591506129a99050576040805162461bcd60e51b815260206004820152600e60248201526d1a5b9d985b1a59081cde5b589bdb60921b604482015290519081900360640190fd5b50565b600080808360018111156129bc57fe5b146129db57600d546013546129d69163ffffffff612df416565b6129f0565b601354600d546129f09163ffffffff612d8416565b90506000806129fe866139f1565b915091506000600860009054906101000a90046001600160a01b03166001600160a01b031663bbe4fd506040518163ffffffff1660e01b815260040160206040518083038186803b158015612a5257600080fd5b505afa158015612a66573d6000803e3d6000fd5b505050506040513d6020811015612a7c57600080fd5b5051608088015160a0890151919250600091612a9d9163ffffffff612df416565b905087608001518210158015612ab757508760a001518211155b612b08576040805162461bcd60e51b815260206004820152601a60248201527f696e76616c69642070726963696e6720706172616d6574657273000000000000604482015290519081900360640190fd5b6000612b21896080015184612df490919063ffffffff16565b90506000612b328a60008888613b16565b90506000612b478b8c60c00151518989613b16565b9050612b9984610b71601354610b718c61137e612b7d612b70898b612df490919063ffffffff16565b8b9063ffffffff612ba816565b612b8d8a8d63ffffffff612ba816565b9063ffffffff612df416565b9b9a5050505050505050505050565b600082612bb757506000610e87565b82820282848281612bc457fe5b0414612c015760405162461bcd60e51b8152600401808060200182810382526021815260200180613eed6021913960400191505060405180910390fd5b9392505050565b6000612c0183836040518060400160405280601a81526020017f536166654d6174683a206469766973696f6e206279207a65726f000000000000815250613bf8565b601354600e54600654604080516370a0823160e01b81523060048201529051600094612ce1949093610b719391926001600160a01b03909116916370a08231916024808301926020929190829003018186803b158015612ca957600080fd5b505afa158015612cbd573d6000803e3d6000fd5b505050506040513d6020811015612cd357600080fd5b50519063ffffffff612ba816565b6006546040805163d9537cdf60e01b815230600482015290519293506000926001600160a01b039092169163d9537cdf91602480820192602092909190829003018186803b158015612d3257600080fd5b505afa158015612d46573d6000803e3d6000fd5b505050506040513d6020811015612d5c57600080fd5b50519050818111612d6e576000612d7e565b612d7e818363ffffffff612df416565b91505090565b600082820183811015612c01576040805162461bcd60e51b815260206004820152601b60248201527f536166654d6174683a206164646974696f6e206f766572666c6f770000000000604482015290519081900360640190fd5b6000818310612ded5781612c01565b5090919050565b6000612c0183836040518060400160405280601e81526020017f536166654d6174683a207375627472616374696f6e206f766572666c6f770000815250613c9a565b816001600160a01b0316836001600160a01b03167f8c5be1e5ebec7d5bd14f71427d1e84f3dd0314c0f7b2291e5b200ac8c7c3b925836040518082815260200191505060405180910390a3505050565b612e9381612b8d84611736565b6001600160a01b0390921660009081526003602052604090209190915550565b612ebc82611736565b612f0c57600780546001810182556000919091527fa66cc928b5edb82af9bd49922954155ab7b0942694bea4ce44661d9a8736c6880180546001600160a01b0319166001600160a01b0384161790555b612e9381612f1984611736565b9063ffffffff612d8416565b816001600160a01b0316836001600160a01b03167fddf252ad1be2c89b69c2b068fc378daa952ba7f163c4a11628f55a4df523b3ef836040518082815260200191505060405180910390a3505050565b600c546001600160a01b03161580612f975750600c546001600160a01b031633145b61175c576040805162461bcd60e51b81526020600482015260136024820152723ab730baba3437b934bd32b21031b0b63632b960691b604482015290519081900360640190fd5b6000805b8354811015613103578280519060200120848281548110612fff57fe5b9060005260206000200160405180828054600181600116156101000203166002900480156130645780601f10613042576101008083540402835291820191613064565b820191906000526020600020905b815481529060010190602001808311613050575b5050915050604051809103902014156130fb5783548490600019810190811061308957fe5b9060005260206000200184828154811061309f57fe5b9060005260206000200190805460018160011615610100020316600290046130c8929190613dfc565b50838054806130d357fe5b6001900381819060005260206000200160006130ef9190613e71565b90556001915050610e87565b600101612fe2565b5060009392505050565b604080516323b872dd60e01b81526001600160a01b03858116600483015230602483015260448201849052915184928316916323b872dd9160648083019260209291908290030181600087803b15801561316657600080fd5b505af115801561317a573d6000803e3d6000fd5b505050506040513d602081101561319057600080fd5b50506006546040805163095ea7b360e01b81526001600160a01b0392831660048201526024810185905290519183169163095ea7b3916044808201926020929091908290030181600087803b1580156131e857600080fd5b505af11580156131fc573d6000803e3d6000fd5b505050506040513d602081101561321257600080fd5b505060065460408051631cee2f7960e11b81523060048201526001600160a01b03868116602483015260448201869052915191909216916339dc5ef291606480830192600092919082900301818387803b15801561326f57600080fd5b505af1158015613283573d6000803e3d6000fd5b5050505050505050565b60008282018183128015906132a25750838112155b806132b757506000831280156132b757508381125b612c015760405162461bcd60e51b8152600401808060200182810382526021815260200180613ecc6021913960400191505060405180910390fd5b6000612c0161330883600263ffffffff612c0816565b83858161331157fe5b06101561331f576000613322565b60015b60ff16612f19858563ffffffff612c0816565b806001600160a01b031663893d20e86040518163ffffffff1660e01b815260040160206040518083038186803b15801561336e57600080fd5b505afa158015613382573d6000803e3d6000fd5b505050506040513d602081101561339857600080fd5b5051600c80546001600160a01b0319166001600160a01b0392831617815560408051630110ceef60e21b815260206004820181905260248201939093526b2a34b6b2a83937bb34b232b960a11b60448201529051928416926304433bbc92606480840193919291829003018186803b15801561341357600080fd5b505afa158015613427573d6000803e3d6000fd5b505050506040513d602081101561343d57600080fd5b5051600880546001600160a01b0319166001600160a01b0392831617905560408051630110ceef60e21b8152602060048201819052600f60248301526e4f7074696f6e7345786368616e676560881b60448301529151928416926304433bbc92606480840193919291829003018186803b1580156134ba57600080fd5b505afa1580156134ce573d6000803e3d6000fd5b505050506040513d60208110156134e457600080fd5b5051600680546001600160a01b0319166001600160a01b039283161790819055670de0b6b3a7640000601055633b9aca0060115560408051635479195360e01b8152905191909216916354791953916004808301926020929190829003018186803b15801561355257600080fd5b505afa158015613566573d6000803e3d6000fd5b505050506040513d602081101561357c57600080fd5b505160125550633b9aca00601355565b600080613597612c4a565b905060008360018111156135a757fe5b14156136c8576000600660009054906101000a90046001600160a01b03166001600160a01b031663b434e9d6876000015160125489606001518a602001518b604001516040518663ffffffff1660e01b815260040180866001600160a01b03166001600160a01b0316815260200185815260200184600181111561362757fe5b60ff1681526020018381526020018281526020019550505050505060206040518083038186803b15801561365a57600080fd5b505afa15801561366e573d6000803e3d6000fd5b505050506040513d602081101561368457600080fd5b50519050848111156136bc576136b76136a3828763ffffffff612df416565b601254610b7190859063ffffffff612ba816565b6136c0565b6000195b925050613822565b6000600660009054906101000a90046001600160a01b03166001600160a01b03166383a7e7e18760000151886060015189602001518a604001516040518563ffffffff1660e01b815260040180856001600160a01b03166001600160a01b0316815260200184600181111561373957fe5b60ff16815260200183815260200182815260200194505050505060206040518083038186803b15801561376b57600080fd5b505afa15801561377f573d6000803e3d6000fd5b505050506040513d602081101561379557600080fd5b50519050808511156137b9576137b46136a3868363ffffffff612df416565b6137bd565b6000195b601254600654604080516370a0823160e01b8152306004820152905193965061381e93879361198d938b93610b71936001600160a01b03909216916370a0823191602480820192602092909190829003018186803b158015612ca957600080fd5b9250505b509392505050565b6000806138576007848154811061383d57fe5b6000918252602090912001546001600160a01b0316611736565b9150811561394f576103e861388f61388986610b7161387c878663ffffffff612ba816565b8a9063ffffffff612ba816565b826132f2565b600654600780549294506001600160a01b03909116916356a6d9ef9190879081106138b657fe5b6000918252602082200154604080516001600160e01b031960e086901b1681526001600160a01b03909216600483015260248201879052516044808301939282900301818387803b15801561390a57600080fd5b505af115801561391e573d6000803e3d6000fd5b5050505061394d6007858154811061393257fe5b6000918252602090912001546001600160a01b031684612e86565b505b935093915050565b81548290600019810190811061396957fe5b9060005260206000200160009054906101000a90046001600160a01b031682828154811061399357fe5b9060005260206000200160006101000a8154816001600160a01b0302191690836001600160a01b03160217905550818054806139cb57fe5b600082815260209020810160001990810180546001600160a01b03191690550190555050565b6000806000836000015190506000816001600160a01b0316638e15f4736040518163ffffffff1660e01b8152600401604080518083038186803b158015613a3757600080fd5b505afa158015613a4b573d6000803e3d6000fd5b505050506040513d6040811015613a6157600080fd5b50602001516000945092508290505b828560c001518581518110613a8157fe5b6020026020010151108015613a9a57508460c001515184105b15613aaa57600190930192613a70565b600084118015613abe57508460c001515184105b613b0f576040805162461bcd60e51b815260206004820152601a60248201527f696e76616c69642070726963696e6720706172616d6574657273000000000000604482015290519081900360640190fd5b5050915091565b600080613b29858563ffffffff612d8416565b9050613bee8660e001516001830381518110613b4157fe5b6020026020010151612f19613b908960c001516001890381518110613b6257fe5b60200260200101518a60c001518981518110613b7a57fe5b6020026020010151612df490919063ffffffff16565b610b71613bc08b60c0015160018b0381518110613ba957fe5b602002602001015189612df490919063ffffffff16565b61137e8c60e001516001890381518110613bd657fe5b60200260200101518d60e001518981518110613b7a57fe5b9695505050505050565b60008183613c845760405162461bcd60e51b81526004018080602001828103825283818151815260200191508051906020019080838360005b83811015613c49578181015183820152602001613c31565b50505050905090810190601f168015613c765780820380516001836020036101000a031916815260200191505b509250505060405180910390fd5b506000838581613c9057fe5b0495945050505050565b60008184841115613cec5760405162461bcd60e51b8152602060048201818152835160248401528351909283926044909101919085019080838360008315613c49578181015183820152602001613c31565b505050900390565b604080516101408101825260008082526020820181905291810182905290606082019081526020016000815260200160008152602001606081526020016060815260200160008152602001600081525090565b828054828255906000526020600020908101928215613d82579160200282015b82811115613d82578251825591602001919060010190613d67565b506116cb929150613eb1565b828054600181600116156101000203166002900490600052602060002090601f016020900481019282601f10613dcf5782800160ff19823516178555613d82565b82800160010185558215613d82579182015b82811115613d82578235825591602001919060010190613de1565b828054600181600116156101000203166002900490600052602060002090601f016020900481019282601f10613e355780548555613d82565b82800160010185558215613d8257600052602060002091601f016020900482015b82811115613d82578254825591600101919060010190613e56565b50805460018160011615610100020316600290046000825580601f10613e9757506129a9565b601f0160209004906000526020600020908101906129a991905b610e9191905b808211156116cb5760008155600101613eb756fe5369676e6564536166654d6174683a206164646974696f6e206f766572666c6f77536166654d6174683a206d756c7469706c69636174696f6e206f766572666c6f77a26469706673582212207e90702d7a516c90ff67cf71cba6fbad0cd9c16b5ac04239d9adcf601bd84ded64736f6c63430006000033",
  "source": "pragma solidity >=0.6.0;\n\nimport \"../deployment/ManagedContract.sol\";\nimport \"../finance/OptionsExchange.sol\";\nimport \"../finance/RedeemableToken.sol\";\nimport \"../interfaces/TimeProvider.sol\";\nimport \"../interfaces/LiquidityPool.sol\";\nimport \"../interfaces/UnderlyingFeed.sol\";\nimport \"../utils/ERC20.sol\";\nimport \"../utils/MoreMath.sol\";\nimport \"../utils/SafeMath.sol\";\nimport \"../utils/SignedSafeMath.sol\";\n\ncontract LinearLiquidityPool is LiquidityPool, ManagedContract, RedeemableToken {\n\n    using SafeMath for uint;\n    using SignedSafeMath for int;\n\n    enum Operation { BUY, SELL }\n\n    struct PricingParameters {\n        address udlFeed;\n        uint strike;\n        uint maturity;\n        OptionsExchange.OptionType optType;\n        uint t0;\n        uint t1;\n        uint[] x;\n        uint[] y;\n        uint buyStock;\n        uint sellStock;\n    }\n\n    TimeProvider private time;\n\n    mapping(string => PricingParameters) private parameters;\n    mapping(string => uint) private written;\n    mapping(string => uint) private holding;\n\n    address private owner;\n    uint private spread;\n    uint private reserveRatio;\n    uint private maturity;\n\n    uint private timeBase;\n    uint private sqrtTimeBase;\n    uint private volumeBase;\n    uint private fractionBase;\n    string[] private symbols;\n\n    constructor(address deployer) public {\n\n        Deployer(deployer).setContractAddress(\"LinearLiquidityPool\");\n    }\n\n    function initialize(Deployer deployer) override internal {\n\n        owner = deployer.getOwner();\n        time = TimeProvider(deployer.getContractAddress(\"TimeProvider\"));\n        exchange = OptionsExchange(deployer.getContractAddress(\"OptionsExchange\"));\n\n        timeBase = 1e18;\n        sqrtTimeBase = 1e9;\n        volumeBase = exchange.getVolumeBase();\n        fractionBase = 1e9;\n    }\n\n    function setParameters(\n        uint _spread,\n        uint _reserveRatio,\n        uint _maturity\n    )\n        external\n    {\n        ensureCaller();\n        spread = _spread;\n        reserveRatio = _reserveRatio;\n        maturity = _maturity;\n    }\n\n    function redeemAllowed() override public returns (bool) {\n        \n        return time.getNow() >= maturity;\n    }\n\n    function apy() override external view returns (uint) {\n\n        return 0; // TODO: calculate pool APY\n    }\n\n    function addSymbol(\n        string calldata symbol,\n        address udlFeed,\n        uint strike,\n        uint _maturity,\n        OptionsExchange.OptionType optType,\n        uint t0,\n        uint t1,\n        uint[] calldata x,\n        uint[] calldata y,\n        uint buyStock,\n        uint sellStock\n    )\n        external\n    {\n        ensureCaller();\n        require(_maturity < maturity, \"invalid maturity\");\n        require(x.length > 0 && x.length.mul(2) == y.length, \"invalid pricing surface\");\n\n        if (parameters[symbol].x.length == 0) {\n            symbols.push(symbol);\n        }\n\n        parameters[symbol] = PricingParameters(\n            udlFeed,\n            strike,\n            _maturity,\n            optType,\n            t0,\n            t1,\n            x,\n            y,\n            buyStock,\n            sellStock\n        );\n\n        emit AddSymbol(symbol);\n    }\n    \n    function removeSymbol(string calldata symbol) external {\n\n        ensureCaller();\n        PricingParameters memory empty;\n        parameters[symbol] = empty;\n        delete written[symbol];\n        delete holding[symbol];\n        Arrays.removeItem(symbols, symbol);\n        emit RemoveSymbol(symbol);\n    }\n\n    function depositTokens(address to, address token, uint value) override external {\n\n        uint b0 = exchange.balanceOf(address(this));\n        depositTokensInExchange(msg.sender, token, value);\n        uint b1 = exchange.balanceOf(address(this));\n        int expBal = exchange.calcExpectedPayout(address(this)).add(int(b1));\n\n        uint ts = _totalSupply;\n        uint p = b1.sub(b0).mul(fractionBase).div(uint(expBal));\n\n        uint b = 1e3;\n        uint v = ts > 0 ?\n            ts.mul(p).mul(b).div(fractionBase.sub(p)) : \n            uint(expBal).mul(b);\n        v = MoreMath.round(v, b);\n\n        addBalance(to, v);\n        _totalSupply = ts.add(v);\n    }\n    \n    function listSymbols() override external returns (string memory available) {\n\n        for (uint i = 0; i < symbols.length; i++) {\n            if (parameters[symbols[i]].maturity > time.getNow()) {\n                if (bytes(available).length == 0) {\n                    available = symbols[i];\n                } else {\n                    available = string(abi.encodePacked(available, \"\\n\", symbols[i]));\n                }\n            }\n        }\n    }\n\n    function queryBuy(string memory symbol)\n        override\n        public\n        view\n        returns (uint price, uint volume)\n    {\n        ensureValidSymbol(symbol);\n        PricingParameters memory param = parameters[symbol];\n        price = calcOptPrice(param, Operation.BUY);\n        volume = MoreMath.min(\n            calcVolume(param, price, Operation.BUY),\n            param.buyStock.sub(written[symbol])\n        );\n    }\n\n    function querySell(string memory symbol)\n        override\n        public\n        view\n        returns (uint price, uint volume)\n    {    \n        ensureValidSymbol(symbol);\n        PricingParameters memory param = parameters[symbol];\n        price = calcOptPrice(param, Operation.SELL);\n        volume = MoreMath.min(\n            calcVolume(param, price, Operation.SELL),\n            param.sellStock.sub(holding[symbol])\n        );\n    }\n\n    function buy(string calldata symbol, uint price, uint volume, address token)\n        override\n        external\n        returns (address addr)\n    {\n        ensureValidSymbol(symbol);\n\n        PricingParameters memory param = parameters[symbol];\n        uint p = calcOptPrice(param, Operation.BUY);\n        require(price >= p, \"insufficient price\");\n\n        uint value = p.mul(volume).div(volumeBase);\n        depositTokensInExchange(msg.sender, token, value);\n\n        uint _holding = holding[symbol];\n        if (volume > _holding) {\n\n            uint _written = written[symbol];\n            uint toWrite = volume.sub(_holding);\n            require(_written.add(toWrite) <= param.buyStock, \"excessive volume\");\n            written[symbol] = _written.add(toWrite);\n\n            exchange.writeOptions(\n                param.udlFeed,\n                toWrite,\n                param.optType,\n                param.strike,\n                param.maturity\n            );\n\n            require(calcFreeBalance() > 0, \"excessive volume\");\n        }\n\n        if (_holding > 0) {\n            uint diff = MoreMath.min(_holding, volume);\n            holding[symbol] = _holding.sub(diff);\n        }\n\n        addr = exchange.resolveToken(symbol);\n        OptionToken tk = OptionToken(addr);\n        tk.transfer(msg.sender, volume);\n\n        emit Buy(symbol, price, volume, token);\n    }\n\n    function sell(string calldata symbol, uint price, uint volume) override external {\n\n        ensureValidSymbol(symbol);\n\n        PricingParameters memory param = parameters[symbol];\n        uint p = calcOptPrice(param, Operation.SELL);\n        require(price <= p, \"insufficient price\");\n\n        address addr = exchange.resolveToken(symbol);\n        OptionToken tk = OptionToken(addr);\n        tk.transferFrom(msg.sender, address(this), volume);\n\n        uint value = p.mul(volume).div(volumeBase);\n        exchange.transferBalance(msg.sender, value);\n        require(calcFreeBalance() > 0, \"excessive volume\");\n        \n        uint _holding = holding[symbol].add(volume);\n        uint _written = written[symbol];\n\n        if (_written > 0) {\n            uint toBurn = MoreMath.min(_written, volume);\n            tk.burn(toBurn);\n            written[symbol] = _written.sub(toBurn);\n            _holding = _holding.sub(toBurn);\n        }\n\n        require(_holding <= param.sellStock, \"excessive volume\");\n        holding[symbol] = _holding;\n\n        emit Sell(symbol, price, volume);\n    }\n\n    function calcOptPrice(PricingParameters memory p, Operation op)\n        private\n        view\n        returns (uint price)\n    {\n        uint f = op == Operation.BUY ? spread.add(fractionBase) : fractionBase.sub(spread);\n        \n        (uint j, uint xp) = findUdlPrice(p);\n\n        uint _now = time.getNow();\n        uint dt = p.t1.sub(p.t0);\n        require(_now >= p.t0 && _now <= p.t1, \"invalid pricing parameters\");\n        uint t = _now.sub(p.t0);\n        uint p0 = calcOptPriceAt(p, 0, j, xp);\n        uint p1 = calcOptPriceAt(p, p.x.length, j, xp);\n\n        price = p0.mul(dt).sub(\n            t.mul(p0.sub(p1))\n        ).mul(f).div(fractionBase).div(dt);\n    }\n\n    function findUdlPrice(PricingParameters memory p) private view returns (uint j, uint xp) {\n\n        UnderlyingFeed feed = UnderlyingFeed(p.udlFeed);\n        (,int udlPrice) = feed.getLatestPrice();\n        \n        j = 0;\n        xp = uint(udlPrice);\n        while (p.x[j] < xp && j < p.x.length) {\n            j++;\n        }\n        require(j > 0 && j < p.x.length, \"invalid pricing parameters\");\n    }\n\n    function calcOptPriceAt(\n        PricingParameters memory p,\n        uint offset,\n        uint j,\n        uint xp\n    )\n        private\n        pure\n        returns (uint price)\n    {\n        uint k = offset.add(j);\n        price = p.y[k].sub(p.y[k - 1]).mul(\n            xp.sub(p.x[j - 1])\n        ).div(\n            p.x[j].sub(p.x[j - 1])\n        ).add(p.y[k - 1]);\n    }\n\n    function calcVolume(\n        PricingParameters memory p,\n        uint price,\n        Operation op\n    )\n        private\n        view\n        returns (uint volume)\n    {\n        uint fb = calcFreeBalance();\n\n        if (op == Operation.BUY) {\n\n            uint coll = exchange.calcCollateral(\n                p.udlFeed,\n                volumeBase,\n                p.optType,\n                p.strike,\n                p.maturity\n            );\n\n            volume = coll <= price ? uint(-1) :\n                fb.mul(volumeBase).div(coll.sub(price));\n\n        } else {\n            \n            uint iv = uint(exchange.calcIntrinsicValue(\n                p.udlFeed,\n                p.optType,\n                p.strike,\n                p.maturity\n            ));\n\n            volume = price <= iv ? uint(-1) :\n                fb.mul(volumeBase).div(price.sub(iv));\n\n            volume = MoreMath.min(\n                volume, \n                exchange.balanceOf(address(this)).mul(volumeBase).div(price)\n            );\n        }\n    }\n\n    function calcFreeBalance() private view returns (uint balance) {\n\n        balance = exchange.balanceOf(address(this)).mul(reserveRatio).div(fractionBase);\n        uint sp = exchange.calcSurplus(address(this));\n        balance = sp > balance ? sp.sub(balance) : 0;\n    }\n\n    function depositTokensInExchange(address sender, address token, uint value) private {\n\n        ERC20 t = ERC20(token);\n        t.transferFrom(sender, address(this), value);\n        t.approve(address(exchange), value);\n        exchange.depositTokens(address(this), token, value);\n    }\n\n    function addBalance(address _owner, uint value) override internal {\n\n        if (balanceOf(_owner) == 0) {\n            holders.push(_owner);\n        }\n        balances[_owner] = balanceOf(_owner).add(value);\n    }\n\n    function ensureValidSymbol(string memory symbol) private view {\n\n        require(parameters[symbol].udlFeed !=  address(0), \"invalid symbol\");\n    }\n\n    function ensureCaller() private view {\n\n        require(owner == address(0) || msg.sender == owner, \"unauthorized caller\");\n    }\n}",
  "sourcePath": "/Users/dev/Documents/coding/defioptions/DeFiOptions-contracts/contracts/pools/LinearLiquidityPool.sol",
  "compiler": {
    "name": "solc",
    "version": "0.6.0+commit.26b70077.Emscripten.clang"
  },
  "schemaVersion": "3.3.3",
  "updatedAt": "2021-03-12T18:16:09.871Z",
  "devdoc": {
    "methods": {}
  },
  "userdoc": {
    "methods": {}
  }
}