{
  "contractName": "LinearLiquidityPool",
  "abi": [
    {
      "inputs": [
        {
          "internalType": "address",
          "name": "deployer",
          "type": "address"
        }
      ],
      "stateMutability": "nonpayable",
      "type": "constructor"
    },
    {
      "anonymous": false,
      "inputs": [
        {
          "indexed": false,
          "internalType": "string",
          "name": "optSymbol",
          "type": "string"
        }
      ],
      "name": "AddSymbol",
      "type": "event"
    },
    {
      "anonymous": false,
      "inputs": [
        {
          "indexed": true,
          "internalType": "address",
          "name": "owner",
          "type": "address"
        },
        {
          "indexed": true,
          "internalType": "address",
          "name": "spender",
          "type": "address"
        },
        {
          "indexed": false,
          "internalType": "uint256",
          "name": "value",
          "type": "uint256"
        }
      ],
      "name": "Approval",
      "type": "event"
    },
    {
      "anonymous": false,
      "inputs": [
        {
          "indexed": true,
          "internalType": "address",
          "name": "token",
          "type": "address"
        },
        {
          "indexed": true,
          "internalType": "address",
          "name": "buyer",
          "type": "address"
        },
        {
          "indexed": false,
          "internalType": "uint256",
          "name": "price",
          "type": "uint256"
        },
        {
          "indexed": false,
          "internalType": "uint256",
          "name": "volume",
          "type": "uint256"
        }
      ],
      "name": "Buy",
      "type": "event"
    },
    {
      "anonymous": false,
      "inputs": [
        {
          "indexed": false,
          "internalType": "string",
          "name": "optSymbol",
          "type": "string"
        }
      ],
      "name": "RemoveSymbol",
      "type": "event"
    },
    {
      "anonymous": false,
      "inputs": [
        {
          "indexed": true,
          "internalType": "address",
          "name": "token",
          "type": "address"
        },
        {
          "indexed": true,
          "internalType": "address",
          "name": "seller",
          "type": "address"
        },
        {
          "indexed": false,
          "internalType": "uint256",
          "name": "price",
          "type": "uint256"
        },
        {
          "indexed": false,
          "internalType": "uint256",
          "name": "volume",
          "type": "uint256"
        }
      ],
      "name": "Sell",
      "type": "event"
    },
    {
      "anonymous": false,
      "inputs": [
        {
          "indexed": true,
          "internalType": "address",
          "name": "from",
          "type": "address"
        },
        {
          "indexed": true,
          "internalType": "address",
          "name": "to",
          "type": "address"
        },
        {
          "indexed": false,
          "internalType": "uint256",
          "name": "value",
          "type": "uint256"
        }
      ],
      "name": "Transfer",
      "type": "event"
    },
    {
      "inputs": [],
      "name": "DOMAIN_SEPARATOR",
      "outputs": [
        {
          "internalType": "bytes32",
          "name": "",
          "type": "bytes32"
        }
      ],
      "stateMutability": "view",
      "type": "function"
    },
    {
      "inputs": [],
      "name": "PERMIT_TYPEHASH",
      "outputs": [
        {
          "internalType": "bytes32",
          "name": "",
          "type": "bytes32"
        }
      ],
      "stateMutability": "view",
      "type": "function"
    },
    {
      "inputs": [
        {
          "internalType": "address",
          "name": "owner",
          "type": "address"
        },
        {
          "internalType": "address",
          "name": "spender",
          "type": "address"
        }
      ],
      "name": "allowance",
      "outputs": [
        {
          "internalType": "uint256",
          "name": "",
          "type": "uint256"
        }
      ],
      "stateMutability": "view",
      "type": "function"
    },
    {
      "inputs": [
        {
          "internalType": "address",
          "name": "spender",
          "type": "address"
        },
        {
          "internalType": "uint256",
          "name": "value",
          "type": "uint256"
        }
      ],
      "name": "approve",
      "outputs": [
        {
          "internalType": "bool",
          "name": "",
          "type": "bool"
        }
      ],
      "stateMutability": "nonpayable",
      "type": "function"
    },
    {
      "inputs": [
        {
          "internalType": "address",
          "name": "owner",
          "type": "address"
        }
      ],
      "name": "balanceOf",
      "outputs": [
        {
          "internalType": "uint256",
          "name": "",
          "type": "uint256"
        }
      ],
      "stateMutability": "view",
      "type": "function"
    },
    {
      "inputs": [],
      "name": "decimals",
      "outputs": [
        {
          "internalType": "uint8",
          "name": "",
          "type": "uint8"
        }
      ],
      "stateMutability": "view",
      "type": "function"
    },
    {
      "inputs": [
        {
          "internalType": "address",
          "name": "spender",
          "type": "address"
        },
        {
          "internalType": "uint256",
          "name": "subtractedValue",
          "type": "uint256"
        }
      ],
      "name": "decreaseAllowance",
      "outputs": [
        {
          "internalType": "bool",
          "name": "",
          "type": "bool"
        }
      ],
      "stateMutability": "nonpayable",
      "type": "function"
    },
    {
      "inputs": [
        {
          "internalType": "address",
          "name": "spender",
          "type": "address"
        },
        {
          "internalType": "uint256",
          "name": "addedValue",
          "type": "uint256"
        }
      ],
      "name": "increaseAllowance",
      "outputs": [
        {
          "internalType": "bool",
          "name": "",
          "type": "bool"
        }
      ],
      "stateMutability": "nonpayable",
      "type": "function"
    },
    {
      "inputs": [
        {
          "internalType": "contract Deployer",
          "name": "deployer",
          "type": "address"
        }
      ],
      "name": "initializeAndLock",
      "outputs": [],
      "stateMutability": "nonpayable",
      "type": "function"
    },
    {
      "inputs": [
        {
          "internalType": "address",
          "name": "",
          "type": "address"
        }
      ],
      "name": "nonces",
      "outputs": [
        {
          "internalType": "uint256",
          "name": "",
          "type": "uint256"
        }
      ],
      "stateMutability": "view",
      "type": "function"
    },
    {
      "inputs": [
        {
          "internalType": "address",
          "name": "owner",
          "type": "address"
        },
        {
          "internalType": "address",
          "name": "spender",
          "type": "address"
        },
        {
          "internalType": "uint256",
          "name": "value",
          "type": "uint256"
        },
        {
          "internalType": "uint256",
          "name": "deadline",
          "type": "uint256"
        },
        {
          "internalType": "uint8",
          "name": "v",
          "type": "uint8"
        },
        {
          "internalType": "bytes32",
          "name": "r",
          "type": "bytes32"
        },
        {
          "internalType": "bytes32",
          "name": "s",
          "type": "bytes32"
        }
      ],
      "name": "permit",
      "outputs": [],
      "stateMutability": "nonpayable",
      "type": "function"
    },
    {
      "inputs": [
        {
          "internalType": "address[]",
          "name": "owners",
          "type": "address[]"
        }
      ],
      "name": "redeem",
      "outputs": [
        {
          "internalType": "uint256",
          "name": "value",
          "type": "uint256"
        }
      ],
      "stateMutability": "nonpayable",
      "type": "function"
    },
    {
      "inputs": [
        {
          "internalType": "address",
          "name": "owner",
          "type": "address"
        }
      ],
      "name": "redeem",
      "outputs": [
        {
          "internalType": "uint256",
          "name": "value",
          "type": "uint256"
        }
      ],
      "stateMutability": "nonpayable",
      "type": "function"
    },
    {
      "inputs": [],
      "name": "totalSupply",
      "outputs": [
        {
          "internalType": "uint256",
          "name": "",
          "type": "uint256"
        }
      ],
      "stateMutability": "view",
      "type": "function"
    },
    {
      "inputs": [
        {
          "internalType": "address",
          "name": "to",
          "type": "address"
        },
        {
          "internalType": "uint256",
          "name": "value",
          "type": "uint256"
        }
      ],
      "name": "transfer",
      "outputs": [
        {
          "internalType": "bool",
          "name": "",
          "type": "bool"
        }
      ],
      "stateMutability": "nonpayable",
      "type": "function"
    },
    {
      "inputs": [
        {
          "internalType": "address",
          "name": "from",
          "type": "address"
        },
        {
          "internalType": "address",
          "name": "to",
          "type": "address"
        },
        {
          "internalType": "uint256",
          "name": "value",
          "type": "uint256"
        }
      ],
      "name": "transferFrom",
      "outputs": [
        {
          "internalType": "bool",
          "name": "",
          "type": "bool"
        }
      ],
      "stateMutability": "nonpayable",
      "type": "function"
    },
    {
      "inputs": [],
      "name": "name",
      "outputs": [
        {
          "internalType": "string",
          "name": "",
          "type": "string"
        }
      ],
      "stateMutability": "view",
      "type": "function"
    },
    {
      "inputs": [],
      "name": "symbol",
      "outputs": [
        {
          "internalType": "string",
          "name": "",
          "type": "string"
        }
      ],
      "stateMutability": "view",
      "type": "function"
    },
    {
      "inputs": [
        {
          "internalType": "uint256",
          "name": "_spread",
          "type": "uint256"
        },
        {
          "internalType": "uint256",
          "name": "_reserveRatio",
          "type": "uint256"
        },
        {
          "internalType": "uint256",
          "name": "_mt",
          "type": "uint256"
        }
      ],
      "name": "setParameters",
      "outputs": [],
      "stateMutability": "nonpayable",
      "type": "function"
    },
    {
      "inputs": [],
      "name": "redeemAllowed",
      "outputs": [
        {
          "internalType": "bool",
          "name": "",
          "type": "bool"
        }
      ],
      "stateMutability": "nonpayable",
      "type": "function"
    },
    {
      "inputs": [],
      "name": "maturity",
      "outputs": [
        {
          "internalType": "uint256",
          "name": "",
          "type": "uint256"
        }
      ],
      "stateMutability": "view",
      "type": "function"
    },
    {
      "inputs": [
        {
          "internalType": "uint256",
          "name": "dt",
          "type": "uint256"
        }
      ],
      "name": "yield",
      "outputs": [
        {
          "internalType": "uint256",
          "name": "y",
          "type": "uint256"
        }
      ],
      "stateMutability": "view",
      "type": "function"
    },
    {
      "inputs": [
        {
          "internalType": "string",
          "name": "optSymbol",
          "type": "string"
        },
        {
          "internalType": "address",
          "name": "udlFeed",
          "type": "address"
        },
        {
          "internalType": "uint256",
          "name": "strike",
          "type": "uint256"
        },
        {
          "internalType": "uint256",
          "name": "_mt",
          "type": "uint256"
        },
        {
          "internalType": "enum OptionsExchange.OptionType",
          "name": "optType",
          "type": "uint8"
        },
        {
          "internalType": "uint256",
          "name": "t0",
          "type": "uint256"
        },
        {
          "internalType": "uint256",
          "name": "t1",
          "type": "uint256"
        },
        {
          "internalType": "uint120[]",
          "name": "x",
          "type": "uint120[]"
        },
        {
          "internalType": "uint120[]",
          "name": "y",
          "type": "uint120[]"
        },
        {
          "internalType": "uint256",
          "name": "buyStock",
          "type": "uint256"
        },
        {
          "internalType": "uint256",
          "name": "sellStock",
          "type": "uint256"
        }
      ],
      "name": "addSymbol",
      "outputs": [],
      "stateMutability": "nonpayable",
      "type": "function"
    },
    {
      "inputs": [
        {
          "internalType": "string",
          "name": "optSymbol",
          "type": "string"
        }
      ],
      "name": "removeSymbol",
      "outputs": [],
      "stateMutability": "nonpayable",
      "type": "function"
    },
    {
      "inputs": [
        {
          "internalType": "address",
          "name": "to",
          "type": "address"
        },
        {
          "internalType": "address",
          "name": "token",
          "type": "address"
        },
        {
          "internalType": "uint256",
          "name": "value",
          "type": "uint256"
        }
      ],
      "name": "depositTokens",
      "outputs": [],
      "stateMutability": "nonpayable",
      "type": "function"
    },
    {
      "inputs": [
        {
          "internalType": "address",
          "name": "to",
          "type": "address"
        },
        {
          "internalType": "address",
          "name": "token",
          "type": "address"
        },
        {
          "internalType": "uint256",
          "name": "value",
          "type": "uint256"
        },
        {
          "internalType": "uint256",
          "name": "deadline",
          "type": "uint256"
        },
        {
          "internalType": "uint8",
          "name": "v",
          "type": "uint8"
        },
        {
          "internalType": "bytes32",
          "name": "r",
          "type": "bytes32"
        },
        {
          "internalType": "bytes32",
          "name": "s",
          "type": "bytes32"
        }
      ],
      "name": "depositTokens",
      "outputs": [],
      "stateMutability": "nonpayable",
      "type": "function"
    },
    {
      "inputs": [],
      "name": "calcFreeBalance",
      "outputs": [
        {
          "internalType": "uint256",
          "name": "balance",
          "type": "uint256"
        }
      ],
      "stateMutability": "view",
      "type": "function"
    },
    {
      "inputs": [],
      "name": "listSymbols",
      "outputs": [
        {
          "internalType": "string",
          "name": "available",
          "type": "string"
        }
      ],
      "stateMutability": "view",
      "type": "function"
    },
    {
      "inputs": [
        {
          "internalType": "string",
          "name": "optSymbol",
          "type": "string"
        }
      ],
      "name": "queryBuy",
      "outputs": [
        {
          "internalType": "uint256",
          "name": "price",
          "type": "uint256"
        },
        {
          "internalType": "uint256",
          "name": "volume",
          "type": "uint256"
        }
      ],
      "stateMutability": "view",
      "type": "function"
    },
    {
      "inputs": [
        {
          "internalType": "string",
          "name": "optSymbol",
          "type": "string"
        }
      ],
      "name": "querySell",
      "outputs": [
        {
          "internalType": "uint256",
          "name": "price",
          "type": "uint256"
        },
        {
          "internalType": "uint256",
          "name": "volume",
          "type": "uint256"
        }
      ],
      "stateMutability": "view",
      "type": "function"
    },
    {
      "inputs": [
        {
          "internalType": "string",
          "name": "optSymbol",
          "type": "string"
        },
        {
          "internalType": "uint256",
          "name": "price",
          "type": "uint256"
        },
        {
          "internalType": "uint256",
          "name": "volume",
          "type": "uint256"
        },
        {
          "internalType": "address",
          "name": "token",
          "type": "address"
        },
        {
          "internalType": "uint256",
          "name": "maxValue",
          "type": "uint256"
        },
        {
          "internalType": "uint256",
          "name": "deadline",
          "type": "uint256"
        },
        {
          "internalType": "uint8",
          "name": "v",
          "type": "uint8"
        },
        {
          "internalType": "bytes32",
          "name": "r",
          "type": "bytes32"
        },
        {
          "internalType": "bytes32",
          "name": "s",
          "type": "bytes32"
        }
      ],
      "name": "buy",
      "outputs": [
        {
          "internalType": "address",
          "name": "_tk",
          "type": "address"
        }
      ],
      "stateMutability": "nonpayable",
      "type": "function"
    },
    {
      "inputs": [
        {
          "internalType": "string",
          "name": "optSymbol",
          "type": "string"
        },
        {
          "internalType": "uint256",
          "name": "price",
          "type": "uint256"
        },
        {
          "internalType": "uint256",
          "name": "volume",
          "type": "uint256"
        },
        {
          "internalType": "address",
          "name": "token",
          "type": "address"
        }
      ],
      "name": "buy",
      "outputs": [
        {
          "internalType": "address",
          "name": "_tk",
          "type": "address"
        }
      ],
      "stateMutability": "nonpayable",
      "type": "function"
    },
    {
      "inputs": [
        {
          "internalType": "string",
          "name": "optSymbol",
          "type": "string"
        },
        {
          "internalType": "uint256",
          "name": "price",
          "type": "uint256"
        },
        {
          "internalType": "uint256",
          "name": "volume",
          "type": "uint256"
        }
      ],
      "name": "sell",
      "outputs": [],
      "stateMutability": "nonpayable",
      "type": "function"
    },
    {
      "inputs": [
        {
          "internalType": "string",
          "name": "optSymbol",
          "type": "string"
        },
        {
          "internalType": "uint256",
          "name": "price",
          "type": "uint256"
        },
        {
          "internalType": "uint256",
          "name": "volume",
          "type": "uint256"
        },
        {
          "internalType": "uint256",
          "name": "deadline",
          "type": "uint256"
        },
        {
          "internalType": "uint8",
          "name": "v",
          "type": "uint8"
        },
        {
          "internalType": "bytes32",
          "name": "r",
          "type": "bytes32"
        },
        {
          "internalType": "bytes32",
          "name": "s",
          "type": "bytes32"
        }
      ],
      "name": "sell",
      "outputs": [],
      "stateMutability": "nonpayable",
      "type": "function"
    }
  ],
  "bytecode": "0x60806040523480156200001157600080fd5b5060405162005c3f38038062005c3f833981810160405260208110156200003757600080fd5b50516040805160608101909152602680825262005bc76020830139604051469080605262005bed8239604080519182900360520182208551602096870120838301835260018452603160f81b93870193909352815180870191909152808201929092527fc89efdaa54c0f20c7adf612882df0950f5a951637e0307cdcb4c672f298b8bc6606083015260808201939093523060a0808301919091528351808303909101815260c0820180855281519186019190912060065563ac119e7b60e01b905260c481019390935250601360e48301527f4c696e6561724c6971756964697479506f6f6c00000000000000000000000000610104830152516001600160a01b0383169163ac119e7b9161012480830192600092919082900301818387803b1580156200016457600080fd5b505af115801562000179573d6000803e3d6000fd5b5050505050615a39806200018e6000396000f3fe608060405234801561001057600080fd5b50600436106102065760003560e01c806370a082311161011a578063a457c2d7116100ad578063ae1879c91161007c578063ae1879c9146109ce578063c7f1978e14610b13578063d259945d14610b1b578063d505accf14610bbf578063dd62ed3e14610c1057610206565b8063a457c2d7146107fd578063a57a8aad14610829578063a9059cbb1461091f578063ad56d52e1461094b57610206565b80638bd9513e116100e95780638bd9513e1461070a5780638e424b6b1461071257806395a2251f146107cf57806395d89b41146107f557610206565b806370a0823114610600578063765287ef146106265780637ecebe00146106435780638730b2051461066957610206565b8063313ce5671161019d578063395093511161016c578063395093511461051f57806339dc5ef21461054b578063439fa0881461058157806345e77633146105d25780635c1bfb32146105da57610206565b8063313ce5671461046257806334c5d2ce146104805780633644e515146104a957806336977d32146104b157610206565b806318160ddd116101d957806318160ddd14610402578063204f83f91461041c57806323b872dd1461042457806330adf81f1461045a57610206565b806304804ee81461020b57806306fdde0314610281578063095ea7b3146102fe578063096457571461033e575b600080fd5b61027f6004803603606081101561022157600080fd5b810190602081018135600160201b81111561023b57600080fd5b82018360208201111561024d57600080fd5b803590602001918460018302840111600160201b8311171561026e57600080fd5b919350915080359060200135610c3e565b005b610289610c8c565b6040805160208082528351818301528351919283929083019185019080838360005b838110156102c35781810151838201526020016102ab565b50505050905090810190601f1680156102f05780820380516001836020036101000a031916815260200191505b509250505060405180910390f35b61032a6004803603604081101561031457600080fd5b506001600160a01b038135169060200135610cad565b604080519115158252519081900360200190f35b61027f600480360360e081101561035457600080fd5b810190602081018135600160201b81111561036e57600080fd5b82018360208201111561038057600080fd5b803590602001918460018302840111600160201b831117156103a157600080fd5b91908080601f0160208091040260200160405190810160405280939291908181526020018383808284376000920191909152509295505082359350505060208101359060408101359060ff6060820135169060808101359060a00135610cc3565b61040a61141f565b60408051918252519081900360200190f35b61040a611425565b61032a6004803603606081101561043a57600080fd5b506001600160a01b0381358116916020810135909116906040013561142b565b61040a611507565b61046a61152b565b6040805160ff9092168252519081900360200190f35b61027f6004803603606081101561049657600080fd5b5080359060208101359060400135611530565b61040a611546565b61027f600480360360208110156104c757600080fd5b810190602081018135600160201b8111156104e157600080fd5b8201836020820111156104f357600080fd5b803590602001918460018302840111600160201b8311171561051457600080fd5b50909250905061154c565b61032a6004803603604081101561053557600080fd5b506001600160a01b038135169060200135611772565b61027f6004803603606081101561056157600080fd5b506001600160a01b038135811691602081013590911690604001356117f5565b61027f600480360360e081101561059757600080fd5b506001600160a01b03813581169160208101359091169060408101359060608101359060ff6080820135169060a08101359060c00135611b2b565b610289611bc9565b61027f600480360360208110156105f057600080fd5b50356001600160a01b0316611e94565b61040a6004803603602081101561061657600080fd5b50356001600160a01b0316611efb565b61040a6004803603602081101561063c57600080fd5b5035611f1a565b61040a6004803603602081101561065957600080fd5b50356001600160a01b0316612033565b61040a6004803603602081101561067f57600080fd5b810190602081018135600160201b81111561069957600080fd5b8201836020820111156106ab57600080fd5b803590602001918460208302840111600160201b831117156106cc57600080fd5b919080806020026020016040519081016040528093929190818152602001838360200280828437600092019190915250929550612045945050505050565b61040a6121cd565b6107b66004803603602081101561072857600080fd5b810190602081018135600160201b81111561074257600080fd5b82018360208201111561075457600080fd5b803590602001918460018302840111600160201b8311171561077557600080fd5b91908080601f016020809104026020016040519081016040528093929190818152602001838380828437600092019190915250929550612319945050505050565b6040805192835260208301919091528051918290030190f35b61040a600480360360208110156107e557600080fd5b50356001600160a01b03166126d8565b610289612735565b61032a6004803603604081101561081357600080fd5b506001600160a01b038135169060200135612754565b610903600480360361012081101561084057600080fd5b810190602081018135600160201b81111561085a57600080fd5b82018360208201111561086c57600080fd5b803590602001918460018302840111600160201b8311171561088d57600080fd5b91908080601f016020809104026020016040519081016040528093929190818152602001838380828437600092019190915250929550508235935050506020810135906001600160a01b036040820135169060608101359060808101359060ff60a0820135169060c08101359060e0013561279d565b604080516001600160a01b039092168252519081900360200190f35b61032a6004803603604081101561093557600080fd5b506001600160a01b038135169060200135612c6e565b6109036004803603608081101561096157600080fd5b810190602081018135600160201b81111561097b57600080fd5b82018360208201111561098d57600080fd5b803590602001918460018302840111600160201b831117156109ae57600080fd5b9193509150803590602081013590604001356001600160a01b0316612cb7565b61027f60048036036101608110156109e557600080fd5b810190602081018135600160201b8111156109ff57600080fd5b820183602082011115610a1157600080fd5b803590602001918460018302840111600160201b83111715610a3257600080fd5b919390926001600160a01b038335169260208101359260408201359260ff6060840135169260808101359260a082013592909160e081019060c00135600160201b811115610a7f57600080fd5b820183602082011115610a9157600080fd5b803590602001918460208302840111600160201b83111715610ab257600080fd5b919390929091602081019035600160201b811115610acf57600080fd5b820183602082011115610ae157600080fd5b803590602001918460208302840111600160201b83111715610b0257600080fd5b919350915080359060200135612d2b565b61032a613171565b6107b660048036036020811015610b3157600080fd5b810190602081018135600160201b811115610b4b57600080fd5b820183602082011115610b5d57600080fd5b803590602001918460018302840111600160201b83111715610b7e57600080fd5b91908080601f0160208091040260200160405190810160405280939291908181526020018383808284376000920191909152509295506131ed945050505050565b61027f600480360360e0811015610bd557600080fd5b506001600160a01b03813581169160208101359091169060408101359060608101359060ff6080820135169060a08101359060c0013561359e565b61040a60048036036040811015610c2657600080fd5b506001600160a01b03813581169160200135166137ac565b6000610c8585858080601f01602080910402602001604051908101604052809392919081815260200183838082843760009201829052508893508792509050808680610cc3565b5050505050565b606060405180606001604052806026815260200161592b6026913990505b90565b6000610cba3384846137d7565b90505b92915050565b60008511610d09576040805162461bcd60e51b815260206004820152600e60248201526d696e76616c696420766f6c756d6560901b604482015290519081900360640190fd5b610d128761381f565b610d1a61565e565b600c886040518082805190602001908083835b60208310610d4c5780518252601f199092019160209182019101610d2d565b51815160209384036101000a6000190180199092169116179052920194855250604080519485900382018520610140860190915280546001600160a01b03811686529093509084019150600160a01b900460ff166001811115610dab57fe5b6001811115610db657fe5b815260018201546001600160781b03808216602080850191909152600160781b80840463ffffffff908116604080880191909152600160981b860482166060880152600160b81b909504166080860152600286015480841660a08701520490911660c084015260038401805483518184028101840190945280845260e0909401939091830182828015610e9a57602002820191906000526020600020906000905b82829054906101000a90046001600160781b03166001600160781b0316815260200190600f0190602082600e01049283019260010382029150808411610e575790505b5050505050815260200160048201805480602002602001604051908101604052809291908181526020018280548015610f2457602002820191906000526020600020906000905b82829054906101000a90046001600160781b03166001600160781b0316815260200190600f0190602082600e01049283019260010382029150808411610ee15790505b5050505050815250509050610f3b878260016138ee565b600854604051638c922b6360e01b81526020600482018181528c5160248401528c51949b506000946001600160a01b0390941693638c922b63938e938392604490920191908501908083838b5b83811015610fa0578181015183820152602001610f88565b50505050905090810190601f168015610fcd5780820380516001836020036101000a031916815260200191505b509250505060206040518083038186803b158015610fea57600080fd5b505afa158015610ffe573d6000803e3d6000fd5b505050506040513d602081101561101457600080fd5b505190508086156110aa576040805163d505accf60e01b8152336004820152306024820152604481018a90526064810189905260ff8816608482015260a4810187905260c4810186905290516001600160a01b0383169163d505accf9160e480830192600092919082900301818387803b15801561109157600080fd5b505af11580156110a5573d6000803e3d6000fd5b505050505b604080516323b872dd60e01b8152336004820152306024820152604481018a905290516001600160a01b038316916323b872dd9160648083019260209291908290030181600087803b1580156110ff57600080fd5b505af1158015611113573d6000803e3d6000fd5b505050506040513d602081101561112957600080fd5b5050601554600090611151906111458c8c63ffffffff61396e16565b9063ffffffff6139c716565b600854604080516356a6d9ef60e01b81523360048201526024810184905290519293506001600160a01b03909116916356a6d9ef9160448082019260009290919082900301818387803b1580156111a757600080fd5b505af11580156111bb573d6000803e3d6000fd5b5050505060006111c96121cd565b1161120e576040805162461bcd60e51b815260206004820152601060248201526f65786365737369766520766f6c756d6560801b604482015290519081900360640190fd5b6040805163d0acc58f60e01b815230600482015290516000916001600160a01b0385169163d0acc58f91602480820192602092909190829003018186803b15801561125857600080fd5b505afa15801561126c573d6000803e3d6000fd5b505050506040513d602081101561128257600080fd5b5051905080156112fa576000611298828c613a09565b9050836001600160a01b03166342966c68826040518263ffffffff1660e01b815260040180828152602001915050600060405180830381600087803b1580156112e057600080fd5b505af11580156112f4573d6000803e3d6000fd5b50505050505b604080516370a0823160e01b815230600482015290516000916001600160a01b038616916370a0823191602480820192602092909190829003018186803b15801561134457600080fd5b505afa158015611358573d6000803e3d6000fd5b505050506040513d602081101561136e57600080fd5b505160e08701519091506001600160781b03168111156113c8576040805162461bcd60e51b815260206004820152601060248201526f65786365737369766520766f6c756d6560801b604482015290519081900360640190fd5b604080518d8152602081018d9052815133926001600160a01b038916927fa082022e93cfcd9f1da5f9236718053910f7e840da080c789c7845698dc032ff929081900390910190a350505050505050505050505050565b60075490565b60105490565b600061143684611efb565b82111561144257600080fd5b6001600160a01b038416600090815260046020908152604080832033845290915290205482111561147257600080fd5b6001600160a01b03831661148557600080fd5b61148f8483613a1f565b6114998383613a58565b6001600160a01b03841660009081526004602090815260408083203384529091529020546114cd908363ffffffff613a7116565b6001600160a01b03851660009081526004602090815260408083203384529091529020556114fc848484613ab3565b5060015b9392505050565b7f6e71edae12b1b97f4d1f60370fef10105fa2faae0126114a169c64845d6126c981565b601290565b611538613b03565b600e92909255600f55601055565b60065481565b611554613b03565b61155c61565e565b80600c84846040518083838082843791909101948552505060405160209381900384019020845181546001600160a01b0319166001600160a01b039091161780825593850151909390925083915060ff60a01b1916600160a01b8360018111156115c257fe5b021790555060408201516001820180546060850151608086015160a08701516effffffffffffffffffffffffffffff199384166001600160781b039687161763ffffffff60781b1916600160781b63ffffffff94851681029190911763ffffffff60981b1916600160981b938516939093029290921763ffffffff60b81b1916600160b81b93909116929092029190911790925560c085015160028501805460e08801519316918516919091176effffffffffffffffffffffffffffff60781b19169190931690910217905561010082015180516116aa9160038401916020909101906156b5565b5061012082015180516116c79160048401916020909101906156b5565b5090505061170c601184848080601f016020809104026020016040519081016040528093929190818152602001838380828437600092019190915250613b7892505050565b507f4b62493f4f8ba00316d1e11c870ddc857bd37e50aafe15a7ad4d3f6ac1c6d34d838360405180806020018281038252848482818152602001925080828437600083820152604051601f909101601f19169092018290039550909350505050a1505050565b60006001600160a01b03831661178757600080fd5b3360009081526004602090815260408083206001600160a01b03871684529091529020546117bb908363ffffffff613ca716565b3360008181526004602090815260408083206001600160a01b038916845290915290208290556117ec918590613d01565b50600192915050565b600854604080516370a0823160e01b815230600482015290516000926001600160a01b0316916370a08231916024808301926020929190829003018186803b15801561184057600080fd5b505afa158015611854573d6000803e3d6000fd5b505050506040513d602081101561186a57600080fd5b505190506118788383613d51565b600854604080516370a0823160e01b815230600482015290516000926001600160a01b0316916370a08231916024808301926020929190829003018186803b1580156118c357600080fd5b505afa1580156118d7573d6000803e3d6000fd5b505050506040513d60208110156118ed57600080fd5b50516008546040805162b08c1d60e21b815230600482015290519293506000926001600160a01b03909216916302c2307491602480820192602092909190829003018186803b15801561193f57600080fd5b505afa158015611953573d6000803e3d6000fd5b505050506040513d602081101561196957600080fd5b50516040805160608101808352600954630bbe4fd560e41b9091529151929350601292909182916119f2916001600160a01b03169063bbe4fd5090606480860191602091818803018186803b1580156119c157600080fd5b505afa1580156119d5573d6000803e3d6000fd5b505050506040513d60208110156119eb57600080fd5b5051613e48565b63ffffffff168152602001611a108487613e8c90919063ffffffff16565b8152602090810187905282546001808201855560009485528285208451600390930201805463ffffffff191663ffffffff93841617815592840151908301556040909201516002909101556007549190611a6e9084908690613e8c16565b90506000611a9b82611145601654611a8f8a8a613a7190919063ffffffff16565b9063ffffffff61396e16565b90506103e8600084611abc57611ab7848363ffffffff61396e16565b611ae7565b601654611ae790611ad3908563ffffffff613a7116565b61114584611a8f898863ffffffff61396e16565b9050611af38183613ef1565b9050611aff8b82613a58565b611b0f858263ffffffff613ca716565b600755611b1e60008c83613ab3565b5050505050505050505050565b6040805163d505accf60e01b8152336004820152306024820152604481018790526064810186905260ff8516608482015260a4810184905260c4810183905290516001600160a01b0388169163d505accf9160e480830192600092919082900301818387803b158015611b9d57600080fd5b505af1158015611bb1573d6000803e3d6000fd5b50505050611bc08787876117f5565b50505050505050565b606060005b601154811015611e9057600960009054906101000a90046001600160a01b03166001600160a01b031663bbe4fd506040518163ffffffff1660e01b815260040160206040518083038186803b158015611c2657600080fd5b505afa158015611c3a573d6000803e3d6000fd5b505050506040513d6020811015611c5057600080fd5b505160118054600c919084908110611c6457fe5b906000526020600020016040518082805460018160011615610100020316600290048015611cc95780601f10611ca7576101008083540402835291820191611cc9565b820191906000526020600020905b815481529060010190602001808311611cb5575b505092835250506040519081900360200190206001015463ffffffff600160781b909104161115611e88578151611da15760118181548110611d0757fe5b600091825260209182902001805460408051601f6002600019610100600187161502019094169390930492830185900485028101850190915281815292830182828015611d955780601f10611d6a57610100808354040283529160200191611d95565b820191906000526020600020905b815481529060010190602001808311611d7857829003601f168201915b50505050509150611e88565b8160118281548110611daf57fe5b906000526020600020016040516020018083805190602001908083835b60208310611deb5780518252601f199092019160209182019101611dcc565b6001836020036101000a03801982511681845116808217855250505050505090500180600560f91b81525060010182805460018160011615610100020316600290048015611e705780601f10611e4e576101008083540402835291820191611e70565b820191906000526020600020905b815481529060010190602001808311611e5c575b50509250505060405160208183030381529060405291505b600101611bce565b5090565b600254600160a01b900460ff1615611edc576040805162461bcd60e51b81526020600482015260066024820152651b1bd8dad95960d21b604482015290519081900360640190fd5b611ee581613f34565b506002805460ff60a01b1916600160a01b179055565b6001600160a01b0381166000908152600360205260409020545b919050565b60165460125415611f155760095460408051630bbe4fd560e41b815290516000926001600160a01b03169163bbe4fd50916004808301926020929190829003018186803b158015611f6a57600080fd5b505afa158015611f7e573d6000803e3d6000fd5b505050506040513d6020811015611f9457600080fd5b505190506000611faa828563ffffffff613a7116565b905060005b601254811015611ff1578160128281548110611fc757fe5b600091825260209091206003909102015463ffffffff161115611fe957611ff1565b600101611faf565b601254811161202b578015612023576120206016546111456120138486614303565b879063ffffffff61396e16565b93505b600101611ff1565b505050919050565b60056020526000908152604090205481565b600061204f613171565b6120a0576040805162461bcd60e51b815260206004820152601360248201527f72656465656d64206e6f7420616c6c6f77656400000000000000000000000000604482015290519081900360640190fd5b600854604080516370a0823160e01b815230600482015290516000926001600160a01b0316916370a08231916024808301926020929190829003018186803b1580156120eb57600080fd5b505afa1580156120ff573d6000803e3d6000fd5b505050506040513d602081101561211557600080fd5b505160075490915081908060005b86518110156121c05760006001600160a01b031687828151811061214357fe5b60200260200101516001600160a01b0316146121b85760008061217a87868b868151811061216d57fe5b60200260200101516145d8565b909250905061218f888263ffffffff613ca716565b97506121a1868263ffffffff613a7116565b95506121b3848363ffffffff613a7116565b935050505b600101612123565b5060075550919392505050565b600854604080516370a0823160e01b8152306004820152905160009283926001600160a01b03909116916370a0823191602480820192602092909190829003018186803b15801561221d57600080fd5b505afa158015612231573d6000803e3d6000fd5b505050506040513d602081101561224757600080fd5b5051601654600f549192506122679161114590849063ffffffff61396e16565b600854604080516352fee2ef60e11b815230600482015290519294506000926122f2926001600160a01b03169163a5fdc5de916024808301926020929190829003018186803b1580156122b957600080fd5b505afa1580156122cd573d6000803e3d6000fd5b505050506040513d60208110156122e357600080fd5b5051839063ffffffff613a7116565b9050828111612302576000612312565b612312818463ffffffff613a7116565b9250505090565b6000806123258361381f565b61232d61565e565b600c846040518082805190602001908083835b6020831061235f5780518252601f199092019160209182019101612340565b51815160209384036101000a6000190180199092169116179052920194855250604080519485900382018520610140860190915280546001600160a01b03811686529093509084019150600160a01b900460ff1660018111156123be57fe5b60018111156123c957fe5b815260018201546001600160781b03808216602080850191909152600160781b80840463ffffffff908116604080880191909152600160981b860482166060880152600160b81b909504166080860152600286015480841660a08701520490911660c084015260038401805483518184028101840190945280845260e09094019390918301828280156124ad57602002820191906000526020600020906000905b82829054906101000a90046001600160781b03166001600160781b0316815260200190600f0190602082600e0104928301926001038202915080841161246a5790505b505050505081526020016004820180548060200260200160405190810160405280929190818152602001828054801561253757602002820191906000526020600020906000905b82829054906101000a90046001600160781b03166001600160781b0316815260200190600f0190602082600e010492830192600103820291508084116124f45790505b505050505081525050905061254d8160016146aa565b600854604051638c922b6360e01b81526020600482018181528851602484015288519497506000946001600160a01b0390941693638c922b63938a938392604490920191908501908083838b5b838110156125b257818101518382015260200161259a565b50505050905090810190601f1680156125df5780820380516001836020036101000a031916815260200191505b509250505060206040518083038186803b1580156125fc57600080fd5b505afa158015612610573d6000803e3d6000fd5b505050506040513d602081101561262657600080fd5b505190506126cf612639838660016148b5565b604080516370a0823160e01b815230600482015290516126ca916001600160a01b038616916370a0823191602480820192602092909190829003018186803b15801561268457600080fd5b505afa158015612698573d6000803e3d6000fd5b505050506040513d60208110156126ae57600080fd5b505160e08601516001600160781b03169063ffffffff613a7116565b613a09565b92505050915091565b6040805160018082528183019092526000916060919060208083019080388339019050509050828160008151811061270c57fe5b60200260200101906001600160a01b031690816001600160a01b03168152505061150081612045565b6040805180820190915260058152644c4c50544b60d81b602082015290565b60006001600160a01b03831661276957600080fd5b3360009081526004602090815260408083206001600160a01b03871684529091529020546117bb908363ffffffff613a7116565b60008088116127e4576040805162461bcd60e51b815260206004820152600e60248201526d696e76616c696420766f6c756d6560901b604482015290519081900360640190fd5b6127ed8a61381f565b6127f561565e565b600c8b6040518082805190602001908083835b602083106128275780518252601f199092019160209182019101612808565b51815160209384036101000a6000190180199092169116179052920194855250604080519485900382018520610140860190915280546001600160a01b03811686529093509084019150600160a01b900460ff16600181111561288657fe5b600181111561289157fe5b815260018201546001600160781b03808216602080850191909152600160781b80840463ffffffff908116604080880191909152600160981b860482166060880152600160b81b909504166080860152600286015480841660a08701520490911660c084015260038401805483518184028101840190945280845260e090940193909183018282801561297557602002820191906000526020600020906000905b82829054906101000a90046001600160781b03166001600160781b0316815260200190600f0190602082600e010492830192600103820291508084116129325790505b50505050508152602001600482018054806020026020016040519081016040528092919081815260200182805480156129ff57602002820191906000526020600020906000905b82829054906101000a90046001600160781b03166001600160781b0316815260200190600f0190602082600e010492830192600103820291508084116129bc5790505b5050505050815250509050612a1b818b8b8a8c8b8b8b8b614b90565b9950600860009054906101000a90046001600160a01b03166001600160a01b0316638c922b638c6040518263ffffffff1660e01b81526004018080602001828103825283818151815260200191508051906020019080838360005b83811015612a8e578181015183820152602001612a76565b50505050905090810190601f168015612abb5780820380516001836020036101000a031916815260200191505b509250505060206040518083038186803b158015612ad857600080fd5b505afa158015612aec573d6000803e3d6000fd5b505050506040513d6020811015612b0257600080fd5b5051604080516370a0823160e01b8152306004820152905191935083916000916001600160a01b038416916370a0823191602480820192602092909190829003018186803b158015612b5357600080fd5b505afa158015612b67573d6000803e3d6000fd5b505050506040513d6020811015612b7d57600080fd5b50519050808b1115612b9a57612b9582848d33614dcf565b612c16565b6040805163a9059cbb60e01b8152336004820152602481018d905290516001600160a01b0384169163a9059cbb9160448083019260209291908290030181600087803b158015612be957600080fd5b505af1158015612bfd573d6000803e3d6000fd5b505050506040513d6020811015612c1357600080fd5b50505b604080518d8152602081018d9052815133926001600160a01b038816927f89f5adc174562e07c9c9b1cae7109bbecb21cf9d1b2847e550042b8653c54a0e929081900390910190a35050509998505050505050505050565b6000612c7933611efb565b821115612c8557600080fd5b6001600160a01b038316612c9857600080fd5b612ca23383613a1f565b612cac8383613a58565b6117ec338484613ab3565b6000806000612cd5601554611145878961396e90919063ffffffff16565b9050612d1f88888080601f01602080910402602001604051908101604052809392919081815260200183838082843760009201829052508b93508a9250899150869080898061279d565b98975050505050505050565b612d33613b03565b6010548a10612d89576040805162461bcd60e51b815260206004820152601060248201527f696e76616c6964206d6174757269747900000000000000000000000000000000604482015290519081900360640190fd5b8415801590612da7575082612da586600263ffffffff61396e16565b145b612df8576040805162461bcd60e51b815260206004820152601760248201527f696e76616c69642070726963696e672073757266616365000000000000000000604482015290519081900360640190fd5b600c8e8e60405180838380828437919091019485525050604051928390036020019092206003015415159150612e6990505760118054600181018255600091909152612e67907f31ecc21a745e3968a04e9570e4425bc18fa8019c68028196b546d1669c200c68018f8f615769565b505b6040518061014001604052808d6001600160a01b031681526020018a6001811115612e9057fe5b8152602001612e9e8d614fe1565b6001600160781b03168152602001612eb58c613e48565b63ffffffff168152602001612ec98a613e48565b63ffffffff168152602001612edd89613e48565b63ffffffff168152602001612ef184614fe1565b6001600160781b03168152602001612f0883614fe1565b6001600160781b031681526020018787808060200260200160405190810160405280939291908181526020018383602002808284376000920191909152505050908252506040805160208781028281018201909352878252928301929091889188918291850190849080828437600081840152601f19601f82011690508083019250505050505050815250600c8f8f6040518083838082843791909101948552505060405160209381900384019020845181546001600160a01b0319166001600160a01b039091161780825593850151909390925083915060ff60a01b1916600160a01b836001811115612ff857fe5b021790555060408201516001820180546060850151608086015160a08701516effffffffffffffffffffffffffffff199384166001600160781b039687161763ffffffff60781b1916600160781b63ffffffff94851681029190911763ffffffff60981b1916600160981b938516939093029290921763ffffffff60b81b1916600160b81b93909116929092029190911790925560c085015160028501805460e08801519316918516919091176effffffffffffffffffffffffffffff60781b19169190931690910217905561010082015180516130e09160038401916020909101906156b5565b5061012082015180516130fd9160048401916020909101906156b5565b509050507f27136bc3b80a2a48083d0f3dd8acaf97309ab58abf6408d4ab39af25b6b4168e8e8e60405180806020018281038252848482818152602001925080828437600083820152604051601f909101601f19169092018290039550909350505050a15050505050505050505050505050565b60105460095460408051630bbe4fd560e41b81529051600093926001600160a01b03169163bbe4fd50916004808301926020929190829003018186803b1580156131ba57600080fd5b505afa1580156131ce573d6000803e3d6000fd5b505050506040513d60208110156131e457600080fd5b50511015905090565b6000806131f98361381f565b61320161565e565b600c846040518082805190602001908083835b602083106132335780518252601f199092019160209182019101613214565b51815160209384036101000a6000190180199092169116179052920194855250604080519485900382018520610140860190915280546001600160a01b03811686529093509084019150600160a01b900460ff16600181111561329257fe5b600181111561329d57fe5b815260018201546001600160781b03808216602080850191909152600160781b80840463ffffffff908116604080880191909152600160981b860482166060880152600160b81b909504166080860152600286015480841660a08701520490911660c084015260038401805483518184028101840190945280845260e090940193909183018282801561338157602002820191906000526020600020906000905b82829054906101000a90046001600160781b03166001600160781b0316815260200190600f0190602082600e0104928301926001038202915080841161333e5790505b505050505081526020016004820180548060200260200160405190810160405280929190818152602001828054801561340b57602002820191906000526020600020906000905b82829054906101000a90046001600160781b03166001600160781b0316815260200190600f0190602082600e010492830192600103820291508084116133c85790505b50505050508152505090506134218160006146aa565b600854604051638c922b6360e01b81526020600482018181528851602484015288519497506000946001600160a01b0390941693638c922b63938a938392604490920191908501908083838b5b8381101561348657818101518382015260200161346e565b50505050905090810190601f1680156134b35780820380516001836020036101000a031916815260200191505b509250505060206040518083038186803b1580156134d057600080fd5b505afa1580156134e4573d6000803e3d6000fd5b505050506040513d60208110156134fa57600080fd5b505190506126cf61350d838660006148b5565b6040805163d0acc58f60e01b815230600482015290516126ca916001600160a01b0386169163d0acc58f91602480820192602092909190829003018186803b15801561355857600080fd5b505afa15801561356c573d6000803e3d6000fd5b505050506040513d602081101561358257600080fd5b505160c08601516001600160781b03169063ffffffff613a7116565b428410156135f3576040805162461bcd60e51b815260206004820152600e60248201527f7065726d69742065787069726564000000000000000000000000000000000000604482015290519081900360640190fd5b6006546001600160a01b0380891660008181526005602090815260408083208054600180820190925582517f6e71edae12b1b97f4d1f60370fef10105fa2faae0126114a169c64845d6126c98186015280840196909652958d166060860152608085018c905260a085019590955260c08085018b90528151808603909101815260e08501825280519083012061190160f01b6101008601526101028501969096526101228085019690965280518085039096018652610142840180825286519683019690962095839052610162840180825286905260ff89166101828501526101a284018890526101c28401879052519193926101e280820193601f1981019281900390910190855afa15801561370e573d6000803e3d6000fd5b5050604051601f1901519150506001600160a01b038116158015906137445750886001600160a01b0316816001600160a01b0316145b613795576040805162461bcd60e51b815260206004820152601160248201527f696e76616c6964207369676e6174757265000000000000000000000000000000604482015290519081900360640190fd5b6137a08989896137d7565b50505050505050505050565b6001600160a01b03918216600090815260046020908152604080832093909416825291909152205490565b60006001600160a01b0383166137ec57600080fd5b6001600160a01b0380851660009081526004602090815260408083209387168352929052208290556114fc848484613d01565b60006001600160a01b0316600c826040518082805190602001908083835b6020831061385c5780518252601f19909201916020918201910161383d565b51815160209384036101000a60001901801990921691161790529201948552506040519384900301909220546001600160a01b0316929092141591506138eb9050576040805162461bcd60e51b815260206004820152601160248201527f696e76616c6964206f707453796d626f6c000000000000000000000000000000604482015290519081900360640190fd5b50565b60006138fa83836146aa565b9050600082600181111561390a57fe5b14613918578084111561391d565b808410155b611500576040805162461bcd60e51b815260206004820152601260248201527f696e73756666696369656e742070726963650000000000000000000000000000604482015290519081900360640190fd5b60008261397d57506000610cbd565b8282028284828161398a57fe5b0414610cba5760405162461bcd60e51b81526004018080602001828103825260218152602001806159726021913960400191505060405180910390fd5b6000610cba83836040518060400160405280601a81526020017f536166654d6174683a206469766973696f6e206279207a65726f000000000000815250615025565b6000818310613a185781610cba565b5090919050565b613a3881613a2c84611efb565b9063ffffffff613a7116565b6001600160a01b0390921660009081526003602052604090209190915550565b613a3881613a6584611efb565b9063ffffffff613ca716565b6000610cba83836040518060400160405280601e81526020017f536166654d6174683a207375627472616374696f6e206f766572666c6f7700008152506150c7565b816001600160a01b0316836001600160a01b03167fddf252ad1be2c89b69c2b068fc378daa952ba7f163c4a11628f55a4df523b3ef836040518082815260200191505060405180910390a3505050565b600d546001600160a01b03161580613b255750600d546001600160a01b031633145b613b76576040805162461bcd60e51b815260206004820152601360248201527f756e617574686f72697a65642063616c6c657200000000000000000000000000604482015290519081900360640190fd5b565b6000805b8354811015613c9d578280519060200120848281548110613b9957fe5b906000526020600020016040518082805460018160011615610100020316600290048015613bfe5780601f10613bdc576101008083540402835291820191613bfe565b820191906000526020600020905b815481529060010190602001808311613bea575b505091505060405180910390201415613c9557835484906000198101908110613c2357fe5b90600052602060002001848281548110613c3957fe5b906000526020600020019080546001816001161561010002031660029004613c629291906157e3565b5083805480613c6d57fe5b600190038181906000526020600020016000613c899190615858565b90556001915050610cbd565b600101613b7c565b5060009392505050565b600082820183811015610cba576040805162461bcd60e51b815260206004820152601b60248201527f536166654d6174683a206164646974696f6e206f766572666c6f770000000000604482015290519081900360640190fd5b816001600160a01b0316836001600160a01b03167f8c5be1e5ebec7d5bd14f71427d1e84f3dd0314c0f7b2291e5b200ac8c7c3b925836040518082815260200191505060405180910390a3505050565b600b54604080516323b872dd60e01b81523360048201526001600160a01b03928316602482015260448101849052905184928316916323b872dd9160648083019260209291908290030181600087803b158015613dad57600080fd5b505af1158015613dc1573d6000803e3d6000fd5b505050506040513d6020811015613dd757600080fd5b5050600b54604080516334ef2a2160e21b81523060048201526001600160a01b038681166024830152604482018690529151919092169163d3bca88491606480830192600092919082900301818387803b158015613e3457600080fd5b505af1158015611bc0573d6000803e3d6000fd5b6000600160201b8210611e905760405162461bcd60e51b81526004018080602001828103825260268152602001806159ba6026913960400191505060405180910390fd5b6000828201818312801590613ea15750838112155b80613eb65750600083128015613eb657508381125b610cba5760405162461bcd60e51b815260040180806020018281038252602181526020018061590a6021913960400191505060405180910390fd5b6000610cba613f0783600263ffffffff6139c716565b838581613f1057fe5b061015613f1e576000613f21565b60015b60ff16613a65858563ffffffff6139c716565b806001600160a01b031663893d20e86040518163ffffffff1660e01b815260040160206040518083038186803b158015613f6d57600080fd5b505afa158015613f81573d6000803e3d6000fd5b505050506040513d6020811015613f9757600080fd5b5051600d80546001600160a01b0319166001600160a01b0392831617905560408051630110ceef60e21b8152602060048201819052600c60248301526b2a34b6b2a83937bb34b232b960a11b60448301529151928416926304433bbc92606480840193919291829003018186803b15801561401157600080fd5b505afa158015614025573d6000803e3d6000fd5b505050506040513d602081101561403b57600080fd5b5051600980546001600160a01b0319166001600160a01b0392831617905560408051630110ceef60e21b8152602060048201819052600f60248301527f4f7074696f6e7345786368616e6765000000000000000000000000000000000060448301529151928416926304433bbc92606480840193919291829003018186803b1580156140c657600080fd5b505afa1580156140da573d6000803e3d6000fd5b505050506040513d60208110156140f057600080fd5b5051600880546001600160a01b0319166001600160a01b0392831617905560408051630110ceef60e21b8152602060048201819052601060248301527f50726f746f636f6c53657474696e67730000000000000000000000000000000060448301529151928416926304433bbc92606480840193919291829003018186803b15801561417b57600080fd5b505afa15801561418f573d6000803e3d6000fd5b505050506040513d60208110156141a557600080fd5b5051600a80546001600160a01b0319166001600160a01b0392831617905560408051630110ceef60e21b8152602060048201819052600e60248301527f43726564697450726f766964657200000000000000000000000000000000000060448301529151928416926304433bbc92606480840193919291829003018186803b15801561423057600080fd5b505afa158015614244573d6000803e3d6000fd5b505050506040513d602081101561425a57600080fd5b5051600b80546001600160a01b0319166001600160a01b03928316179055670de0b6b3a7640000601355633b9aca006014556008546040805163a53b004160e01b81529051919092169163a53b0041916004808301926020929190829003018186803b1580156142c957600080fd5b505afa1580156142dd573d6000803e3d6000fd5b505050506040513d60208110156142f357600080fd5b505160155550633b9aca00601655565b6000806012600185038154811061431657fe5b6000918252602082206003909102015460125463ffffffff909116925085106143b857600960009054906101000a90046001600160a01b03166001600160a01b031663bbe4fd506040518163ffffffff1660e01b815260040160206040518083038186803b15801561438757600080fd5b505afa15801561439b573d6000803e3d6000fd5b505050506040513d60208110156143b157600080fd5b50516143dd565b601285815481106143c557fe5b600091825260209091206003909102015463ffffffff165b90506000614436601260018803815481106143f457fe5b9060005260206000209060030201600101546012600189038154811061441657fe5b906000526020600020906003020160020154613ca790919063ffffffff16565b601254909150600090871061454457600854604080516370a0823160e01b8152306004820152905161453f926001600160a01b0316916370a08231916024808301926020929190829003018186803b15801561449157600080fd5b505afa1580156144a5573d6000803e3d6000fd5b505050506040513d60208110156144bb57600080fd5b50516008546040805162b08c1d60e21b815230600482015290516001600160a01b03909216916302c2307491602480820192602092909190829003018186803b15801561450757600080fd5b505afa15801561451b573d6000803e3d6000fd5b505050506040513d602081101561453157600080fd5b50519063ffffffff613e8c16565b614564565b6012878154811061455157fe5b9060005260206000209060030201600101545b905061458b8261457f6016548461512190919063ffffffff16565b9063ffffffff6151ca16565b9450838611156145ce576145cb856145c36145ac868863ffffffff613a7116565b60165461114590611a8f898d63ffffffff613a7116565b601654615282565b94505b5050505092915050565b6000806145e483611efb565b91508115614697576103e861461c61461686611145614609878663ffffffff61396e16565b8a9063ffffffff61396e16565b82613ef1565b600854604080516356a6d9ef60e01b81526001600160a01b0388811660048301526024820185905291519395509116916356a6d9ef9160448082019260009290919082900301818387803b15801561467357600080fd5b505af1158015614687573d6000803e3d6000fd5b505050506146958484613a1f565b505b6146a283838361534e565b935093915050565b600080808360018111156146ba57fe5b146146d957600e546016546146d49163ffffffff613a7116565b6146ee565b601654600e546146ee9163ffffffff613ca716565b90506000806146fc86615353565b915091506000600960009054906101000a90046001600160a01b03166001600160a01b031663bbe4fd506040518163ffffffff1660e01b815260040160206040518083038186803b15801561475057600080fd5b505afa158015614764573d6000803e3d6000fd5b505050506040513d602081101561477a57600080fd5b5051608088015160a08901519192506000916147a39163ffffffff9182169190811690613a7116565b9050876080015163ffffffff1682101580156147c957508760a0015163ffffffff168211155b61481a576040805162461bcd60e51b815260206004820152601a60248201527f696e76616c69642070726963696e6720706172616d6574657273000000000000604482015290519081900360640190fd5b6000614839896080015163ffffffff1684613a7190919063ffffffff16565b9050600061484a8a60008888615484565b905060006148608b8c6101000151518989615484565b90506148a6846111456016546111458c611a8f614896614889898b613a7190919063ffffffff16565b8b9063ffffffff61396e16565b613a2c8a8d63ffffffff61396e16565b9b9a5050505050505050505050565b6000806148c06121cd565b905060008360018111156148d057fe5b1415614a00576000600860009054906101000a90046001600160a01b03166001600160a01b031663b434e9d6876000015160155489602001518a604001518b606001516040518663ffffffff1660e01b815260040180866001600160a01b03166001600160a01b0316815260200185815260200184600181111561495057fe5b60ff168152602001836001600160781b031681526020018263ffffffff1681526020019550505050505060206040518083038186803b15801561499257600080fd5b505afa1580156149a6573d6000803e3d6000fd5b505050506040513d60208110156149bc57600080fd5b50519050848111156149f4576149ef6149db828763ffffffff613a7116565b60155461114590859063ffffffff61396e16565b6149f8565b6000195b925050614b88565b6008548551602087015160408089015160608a015191516383a7e7e160e01b81526001600160a01b038581166004830190815260009791909116956383a7e7e1959094909392909190602401846001811115614a5857fe5b60ff168152602001836001600160781b031681526020018263ffffffff16815260200194505050505060206040518083038186803b158015614a9957600080fd5b505afa158015614aad573d6000803e3d6000fd5b505050506040513d6020811015614ac357600080fd5b5051905080851115614ae757614ae26149db868363ffffffff613a7116565b614aeb565b6000195b601554600854604080516370a0823160e01b81523060048201529051939650614b849387936126ca938b93611145936001600160a01b03909216916370a0823191602480820192602092909190829003018186803b158015614b4c57600080fd5b505afa158015614b60573d6000803e3d6000fd5b505050506040513d6020811015614b7657600080fd5b50519063ffffffff61396e16565b9250505b509392505050565b6000614b9e898b60006138ee565b98506000614bbb6015546111458b8d61396e90919063ffffffff16565b6008549091506001600160a01b03888116911614614d2857600a5460408051632a6f500560e11b81526001600160a01b038a81166004830152825160009485949216926354dea00a926024808301939192829003018186803b158015614c2057600080fd5b505afa158015614c34573d6000803e3d6000fd5b505050506040513d6040811015614c4a57600080fd5b50805160209091015190925090508715614d0157614c72816111458c8563ffffffff61396e16565b6040805163d505accf60e01b815233600482015230602482015260448101839052606481018b905260ff8a16608482015260a4810189905260c481018890529051919b506001600160a01b038b169163d505accf9160e48082019260009290919082900301818387803b158015614ce857600080fd5b505af1158015614cfc573d6000803e3d6000fd5b505050505b614d1581611145858563ffffffff61396e16565b9250614d218984613d51565b5050614dc0565b60085460408051630549990760e11b815233600482015230602482015260448101849052606481018b90526084810189905260ff881660a482015260c4810187905260e4810186905290516001600160a01b0390921691630a93320e916101048082019260009290919082900301818387803b158015614da757600080fd5b505af1158015614dbb573d6000803e3d6000fd5b505050505b50979998505050505050505050565b6040805163d0acc58f60e01b815230600482015290516000916001600160a01b0387169163d0acc58f91602480820192602092909190829003018186803b158015614e1957600080fd5b505afa158015614e2d573d6000803e3d6000fd5b505050506040513d6020811015614e4357600080fd5b505160c08501519091506001600160781b0316614e66828563ffffffff613ca716565b1115614eac576040805162461bcd60e51b815260206004820152601060248201526f65786365737369766520766f6c756d6560801b604482015290519081900360640190fd5b600854845160208601516040808801516060890151915163169a737360e31b81526001600160a01b0385811660048301908152602483018b905296169563b4d39b9895948a9490939290918a91604401856001811115614f0857fe5b60ff168152602001846001600160781b031681526020018363ffffffff168152602001826001600160a01b03166001600160a01b031681526020019650505050505050602060405180830381600087803b158015614f6557600080fd5b505af1158015614f79573d6000803e3d6000fd5b505050506040513d6020811015614f8f57600080fd5b5060009050614f9c6121cd565b11610c85576040805162461bcd60e51b815260206004820152601060248201526f65786365737369766520766f6c756d6560801b604482015290519081900360640190fd5b6000600160781b8210611e905760405162461bcd60e51b81526004018080602001828103825260278152602001806158e36027913960400191505060405180910390fd5b600081836150b15760405162461bcd60e51b81526004018080602001828103825283818151815260200191508051906020019080838360005b8381101561507657818101518382015260200161505e565b50505050905090810190601f1680156150a35780820380516001836020036101000a031916815260200191505b509250505060405180910390fd5b5060008385816150bd57fe5b0495945050505050565b600081848411156151195760405162461bcd60e51b815260206004820181815283516024840152835190928392604490910191908501908083836000831561507657818101518382015260200161505e565b505050900390565b60008261513057506000610cbd565b826000191480156151445750600160ff1b82145b156151805760405162461bcd60e51b81526004018080602001828103825260278152602001806159936027913960400191505060405180910390fd5b8282028284828161518d57fe5b0514610cba5760405162461bcd60e51b81526004018080602001828103825260278152602001806159936027913960400191505060405180910390fd5b60008161521e576040805162461bcd60e51b815260206004820181905260248201527f5369676e6564536166654d6174683a206469766973696f6e206279207a65726f604482015290519081900360640190fd5b816000191480156152325750600160ff1b83145b1561526e5760405162461bcd60e51b81526004018080602001828103825260218152602001806159516021913960400191505060405180910390fd5b600082848161527957fe5b05949350505050565b600082615290575080611500565b818311156152c0576152b982611145612013876152b3888563ffffffff613a7116565b87615282565b9050611500565b508080600085816152d0846155a9565b90505b6001841115615343576152ed84600263ffffffff6139c716565b93506152fc81611a8f846155a9565b91508661530f848663ffffffff613ca716565b101561533e57615325838563ffffffff613ca716565b925061533b86611145878563ffffffff61396e16565b94505b6152d3565b505050509392505050565b505050565b6000806000836000015190506000816001600160a01b0316638e15f4736040518163ffffffff1660e01b8152600401604080518083038186803b15801561539957600080fd5b505afa1580156153ad573d6000803e3d6000fd5b505050506040513d60408110156153c357600080fd5b50602001516000945092508290505b8285610100015185815181106153e457fe5b60200260200101516001600160781b031610801561540757508461010001515184105b15615417576001909301926153d2565b60008411801561542c57508461010001515184105b61547d576040805162461bcd60e51b815260206004820152601a60248201527f696e76616c69642070726963696e6720706172616d6574657273000000000000604482015290519081900360640190fd5b5050915091565b600080615497858563ffffffff613ca716565b9050600086610120015182815181106154ac57fe5b60200260200101516001600160781b03169050600087610120015160018403815181106154d557fe5b60200260200101516001600160781b03169050612d1f8161559d6155478b610100015160018b038151811061550657fe5b60200260200101516001600160781b03168c61010001518b8151811061552857fe5b60200260200101516001600160781b03166155f990919063ffffffff16565b61457f6155818d610100015160018d038151811061556157fe5b60200260200101516001600160781b03168b613a7190919063ffffffff16565b615591888863ffffffff6155f916565b9063ffffffff61512116565b9063ffffffff613e8c16565b6000806155c2600261114585600163ffffffff613ca716565b90508291505b818110156155f3579050806155ec600261114583613a65878263ffffffff6139c716565b90506155c8565b50919050565b600081830381831280159061560e5750838113155b80615623575060008312801561562357508381135b610cba5760405162461bcd60e51b81526004018080602001828103825260248152602001806159e06024913960400191505060405180910390fd5b6040805161014081019091526000808252602082019081526000602082018190526040820181905260608083018290526080830182905260a0830182905260c083019190915260e082018190526101009091015290565b8280548282559060005260206000209060010160029004810192821561575d5791602002820160005b8382111561572857835183826101000a8154816001600160781b0302191690836001600160781b031602179055509260200192600f01602081600e010492830192600103026156de565b801561575b5782816101000a8154906001600160781b030219169055600f01602081600e01049283019260010302615728565b505b50611e9092915061589c565b828054600181600116156101000203166002900490600052602060002090601f016020900481019282601f106157aa5782800160ff198235161785556157d7565b828001600101855582156157d7579182015b828111156157d75782358255916020019190600101906157bc565b50611e909291506158c8565b828054600181600116156101000203166002900490600052602060002090601f016020900481019282601f1061581c57805485556157d7565b828001600101855582156157d757600052602060002091601f016020900482015b828111156157d757825482559160010191906001019061583d565b50805460018160011615610100020316600290046000825580601f1061587e57506138eb565b601f0160209004906000526020600020908101906138eb91906158c8565b610caa91905b80821115611e905780546effffffffffffffffffffffffffffff191681556001016158a2565b610caa91905b80821115611e9057600081556001016158ce56fe53616665436173743a2076616c756520646f65736e27742066697420696e2031323020626974735369676e6564536166654d6174683a206164646974696f6e206f766572666c6f774c696e656172204c697175696469747920506f6f6c2052656465656d61626c6520546f6b656e5369676e6564536166654d6174683a206469766973696f6e206f766572666c6f77536166654d6174683a206d756c7469706c69636174696f6e206f766572666c6f775369676e6564536166654d6174683a206d756c7469706c69636174696f6e206f766572666c6f7753616665436173743a2076616c756520646f65736e27742066697420696e20333220626974735369676e6564536166654d6174683a207375627472616374696f6e206f766572666c6f77a264697066735822122028893005782aad0c25f93d453743ade73c68a6f04461af7f90e08513f6b4934464736f6c634300060000334c696e656172204c697175696469747920506f6f6c2052656465656d61626c6520546f6b656e454950373132446f6d61696e28737472696e67206e616d652c737472696e672076657273696f6e2c75696e7432353620636861696e49642c6164647265737320766572696679696e67436f6e747261637429",
  "source": "pragma solidity >=0.6.0;\n\nimport \"../deployment/ManagedContract.sol\";\nimport \"../finance/RedeemableToken.sol\";\nimport \"../governance/ProtocolSettings.sol\";\nimport \"../interfaces/TimeProvider.sol\";\nimport \"../interfaces/LiquidityPool.sol\";\nimport \"../interfaces/UnderlyingFeed.sol\";\nimport \"../utils/ERC20.sol\";\nimport \"../utils/MoreMath.sol\";\nimport \"../utils/SafeCast.sol\";\nimport \"../utils/SafeMath.sol\";\nimport \"../utils/SignedSafeMath.sol\";\n\ncontract LinearLiquidityPool is LiquidityPool, ManagedContract, RedeemableToken {\n\n    using SafeCast for uint;\n    using SafeMath for uint;\n    using SignedSafeMath for int;\n\n    enum Operation { BUY, SELL }\n\n    struct PricingParameters {\n        address udlFeed;\n        OptionsExchange.OptionType optType;\n        uint120 strike;\n        uint32 maturity;\n        uint32 t0;\n        uint32 t1;\n        uint120 buyStock;\n        uint120 sellStock;\n        uint120[] x;\n        uint120[] y;\n    }\n\n    struct Deposit {\n        uint32 date;\n        uint balance;\n        uint value;\n    }\n\n    TimeProvider private time;\n    ProtocolSettings private settings;\n    CreditProvider private creditProvider;\n\n    mapping(string => PricingParameters) private parameters;\n\n    string private constant _name = \"Linear Liquidity Pool Redeemable Token\";\n    string private constant _symbol = \"LLPTK\";\n\n    address private owner;\n    uint private spread;\n    uint private reserveRatio;\n    uint private _maturity;\n    string[] private optSymbols;\n    Deposit[] private deposits;\n\n    uint private timeBase;\n    uint private sqrtTimeBase;\n    uint private volumeBase;\n    uint private fractionBase;\n\n    constructor(address deployer) ERC20(_name) public {\n\n        Deployer(deployer).setContractAddress(\"LinearLiquidityPool\");\n    }\n\n    function initialize(Deployer deployer) override internal {\n\n        owner = deployer.getOwner();\n        time = TimeProvider(deployer.getContractAddress(\"TimeProvider\"));\n        exchange = OptionsExchange(deployer.getContractAddress(\"OptionsExchange\"));\n        settings = ProtocolSettings(deployer.getContractAddress(\"ProtocolSettings\"));\n        creditProvider = CreditProvider(deployer.getContractAddress(\"CreditProvider\"));\n\n        timeBase = 1e18;\n        sqrtTimeBase = 1e9;\n        volumeBase = exchange.volumeBase();\n        fractionBase = 1e9;\n    }\n\n    function name() override external view returns (string memory) {\n        return _name;\n    }\n\n    function symbol() override external view returns (string memory) {\n        return _symbol;\n    }\n\n    function setParameters(\n        uint _spread,\n        uint _reserveRatio,\n        uint _mt\n    )\n        external\n    {\n        ensureCaller();\n        spread = _spread;\n        reserveRatio = _reserveRatio;\n        _maturity = _mt;\n    }\n\n    function redeemAllowed() override public returns (bool) {\n        \n        return time.getNow() >= _maturity;\n    }\n\n    function maturity() override external view returns (uint) {\n        \n        return _maturity;\n    }\n\n    function yield(uint dt) override external view returns (uint y) {\n        \n        y = fractionBase;\n\n        if (deposits.length > 0) {\n            \n            uint _now = time.getNow();\n            uint start = _now.sub(dt);\n            \n            uint i = 0;\n            for (i = 0; i < deposits.length; i++) {\n                if (deposits[i].date > start) {\n                    break;\n                }\n            }\n\n            for (; i <= deposits.length; i++) {\n                if (i > 0) {\n                    y = y.mul(calcYield(i, start)).div(fractionBase);\n                }\n            }\n        }\n    }\n\n    function addSymbol(\n        string calldata optSymbol,\n        address udlFeed,\n        uint strike,\n        uint _mt,\n        OptionsExchange.OptionType optType,\n        uint t0,\n        uint t1,\n        uint120[] calldata x,\n        uint120[] calldata y,\n        uint buyStock,\n        uint sellStock\n    )\n        external\n    {\n        ensureCaller();\n        require(_mt < _maturity, \"invalid maturity\");\n        require(x.length > 0 && x.length.mul(2) == y.length, \"invalid pricing surface\");\n\n        if (parameters[optSymbol].x.length == 0) {\n            optSymbols.push(optSymbol);\n        }\n\n        parameters[optSymbol] = PricingParameters(\n            udlFeed,\n            optType,\n            strike.toUint120(),\n            _mt.toUint32(),\n            t0.toUint32(),\n            t1.toUint32(),\n            buyStock.toUint120(),\n            sellStock.toUint120(),\n            x,\n            y\n        );\n\n        emit AddSymbol(optSymbol);\n    }\n    \n    function removeSymbol(string calldata optSymbol) external {\n\n        ensureCaller();\n        PricingParameters memory empty;\n        parameters[optSymbol] = empty;\n        Arrays.removeItem(optSymbols, optSymbol);\n        emit RemoveSymbol(optSymbol);\n    }\n\n    function depositTokens(\n        address to,\n        address token,\n        uint value,\n        uint deadline,\n        uint8 v,\n        bytes32 r,\n        bytes32 s\n    )\n        override\n        external\n    {\n        ERC20(token).permit(msg.sender, address(this), value, deadline, v, r, s);\n        depositTokens(to, token, value);\n    }\n\n    function depositTokens(address to, address token, uint value) override public {\n\n        uint b0 = exchange.balanceOf(address(this));\n        depositTokensInExchange(token, value);\n        uint b1 = exchange.balanceOf(address(this));\n        int po = exchange.calcExpectedPayout(address(this));\n        \n        deposits.push(Deposit(time.getNow().toUint32(), uint(int(b0).add(po)), value));\n\n        uint ts = _totalSupply;\n        int expBal = po.add(int(b1));\n        uint p = b1.sub(b0).mul(fractionBase).div(uint(expBal));\n\n        uint b = 1e3;\n        uint v = ts > 0 ?\n            ts.mul(p).mul(b).div(fractionBase.sub(p)) : \n            uint(expBal).mul(b);\n        v = MoreMath.round(v, b);\n\n        addBalance(to, v);\n        _totalSupply = ts.add(v);\n        emitTransfer(address(0), to, v);\n    }\n\n    function calcFreeBalance() public view returns (uint balance) {\n\n        uint exBal = exchange.balanceOf(address(this));\n        balance = exBal.mul(reserveRatio).div(fractionBase);\n        uint sp = exBal.sub(exchange.collateral(address(this)));\n        balance = sp > balance ? sp.sub(balance) : 0;\n    }\n    \n    function listSymbols() override external view returns (string memory available) {\n\n        for (uint i = 0; i < optSymbols.length; i++) {\n            if (parameters[optSymbols[i]].maturity > time.getNow()) {\n                if (bytes(available).length == 0) {\n                    available = optSymbols[i];\n                } else {\n                    available = string(abi.encodePacked(available, \"\\n\", optSymbols[i]));\n                }\n            }\n        }\n    }\n\n    function queryBuy(string memory optSymbol)\n        override\n        public\n        view\n        returns (uint price, uint volume)\n    {\n        ensureValidSymbol(optSymbol);\n        PricingParameters memory param = parameters[optSymbol];\n        price = calcOptPrice(param, Operation.BUY);\n        address _tk = exchange.resolveToken(optSymbol);\n        volume = MoreMath.min(\n            calcVolume(param, price, Operation.BUY),\n            uint(param.buyStock).sub(OptionToken(_tk).writtenVolume(address(this)))\n        );\n    }\n\n    function querySell(string memory optSymbol)\n        override\n        public\n        view\n        returns (uint price, uint volume)\n    {    \n        ensureValidSymbol(optSymbol);\n        PricingParameters memory param = parameters[optSymbol];\n        price = calcOptPrice(param, Operation.SELL);\n        address _tk = exchange.resolveToken(optSymbol);\n        volume = MoreMath.min(\n            calcVolume(param, price, Operation.SELL),\n            uint(param.sellStock).sub(OptionToken(_tk).balanceOf(address(this)))\n        );\n    }\n    \n    function buy(\n        string memory optSymbol,\n        uint price,\n        uint volume,\n        address token,\n        uint maxValue,\n        uint deadline,\n        uint8 v,\n        bytes32 r,\n        bytes32 s\n    )\n        override\n        public\n        returns (address _tk)\n    {\n        require(volume > 0, \"invalid volume\");\n        ensureValidSymbol(optSymbol);\n\n        PricingParameters memory param = parameters[optSymbol];\n        price = receivePayment(param, price, volume, maxValue, token, deadline, v, r, s);\n\n        _tk = exchange.resolveToken(optSymbol);\n        OptionToken tk = OptionToken(_tk);\n        uint _holding = tk.balanceOf(address(this));\n\n        if (volume > _holding) {\n            writeOptions(tk, param, volume, msg.sender);\n        } else {\n            tk.transfer(msg.sender, volume);\n        }\n\n        emit Buy(_tk, msg.sender, price, volume);\n    }\n\n    function buy(string calldata optSymbol, uint price, uint volume, address token)\n        override\n        external\n        returns (address _tk)\n    {\n        bytes32 x;\n        uint maxValue = price.mul(volume).div(volumeBase);\n        _tk = buy(optSymbol, price, volume, token, maxValue, 0, 0, x, x);\n    }\n\n    function sell(\n        string memory optSymbol,\n        uint price,\n        uint volume,\n        uint deadline,\n        uint8 v,\n        bytes32 r,\n        bytes32 s\n    )\n        override\n        public\n    {\n        require(volume > 0, \"invalid volume\");\n        ensureValidSymbol(optSymbol);\n\n        PricingParameters memory param = parameters[optSymbol];\n        price = validatePrice(price, param, Operation.SELL);\n\n        address _tk = exchange.resolveToken(optSymbol);\n        OptionToken tk = OptionToken(_tk);\n        if (deadline > 0) {\n            tk.permit(msg.sender, address(this), volume, deadline, v, r, s);\n        }\n        tk.transferFrom(msg.sender, address(this), volume);\n\n        uint value = price.mul(volume).div(volumeBase);\n        exchange.transferBalance(msg.sender, value);\n        \n        require(calcFreeBalance() > 0, \"excessive volume\");\n        \n        uint _written = tk.writtenVolume(address(this));\n\n        if (_written > 0) {\n            uint toBurn = MoreMath.min(_written, volume);\n            tk.burn(toBurn);\n        }\n\n        uint _holding = tk.balanceOf(address(this));\n        require(_holding <= param.sellStock, \"excessive volume\");\n\n        emit Sell(_tk, msg.sender, price, volume);\n    }\n\n    function sell(string calldata optSymbol, uint price, uint volume) override external {\n        \n        bytes32 x;\n        sell(optSymbol, price, volume, 0, 0, x, x);\n    }\n\n    function receivePayment(\n        PricingParameters memory param,\n        uint price,\n        uint volume,\n        uint maxValue,\n        address token,\n        uint deadline,\n        uint8 v,\n        bytes32 r,\n        bytes32 s\n    )\n        private\n        returns (uint)\n    {\n        price = validatePrice(price, param, Operation.BUY);\n        uint value = price.mul(volume).div(volumeBase);\n\n        if (token != address(exchange)) {\n            (uint tv, uint tb) = settings.getTokenRate(token);\n            if (deadline > 0) {\n                maxValue = maxValue.mul(tv).div(tb);\n                ERC20(token).permit(msg.sender, address(this), maxValue, deadline, v, r, s);\n            }\n            value = value.mul(tv).div(tb);\n            depositTokensInExchange(token, value);\n        } else {\n            exchange.transferBalance(msg.sender, address(this), value, maxValue, deadline, v, r, s);\n        }\n\n        return price;\n    }\n\n    function validatePrice(\n        uint price, \n        PricingParameters memory param, \n        Operation op\n    ) \n        private\n        view\n        returns (uint p) \n    {\n        p = calcOptPrice(param, op);\n        require(\n            op == Operation.BUY ? price >= p : price <= p,\n            \"insufficient price\"\n        );\n    }\n\n    function writeOptions(\n        OptionToken tk,\n        PricingParameters memory param,\n        uint volume,\n        address to\n    )\n        private\n    {\n        uint _written = tk.writtenVolume(address(this));\n        require(_written.add(volume) <= param.buyStock, \"excessive volume\");\n\n        exchange.writeOptions(\n            param.udlFeed,\n            volume,\n            param.optType,\n            param.strike,\n            param.maturity,\n            to\n        );\n        \n        require(calcFreeBalance() > 0, \"excessive volume\");\n    }\n\n    function calcOptPrice(PricingParameters memory p, Operation op)\n        private\n        view\n        returns (uint price)\n    {\n        uint f = op == Operation.BUY ? spread.add(fractionBase) : fractionBase.sub(spread);\n        \n        (uint j, uint xp) = findUdlPrice(p);\n\n        uint _now = time.getNow();\n        uint dt = uint(p.t1).sub(uint(p.t0));\n        require(_now >= p.t0 && _now <= p.t1, \"invalid pricing parameters\");\n        uint t = _now.sub(p.t0);\n        uint p0 = calcOptPriceAt(p, 0, j, xp);\n        uint p1 = calcOptPriceAt(p, p.x.length, j, xp);\n\n        price = p0.mul(dt).sub(\n            t.mul(p0.sub(p1))\n        ).mul(f).div(fractionBase).div(dt);\n    }\n\n    function findUdlPrice(PricingParameters memory p) private view returns (uint j, uint xp) {\n\n        UnderlyingFeed feed = UnderlyingFeed(p.udlFeed);\n        (,int udlPrice) = feed.getLatestPrice();\n        \n        j = 0;\n        xp = uint(udlPrice);\n        while (p.x[j] < xp && j < p.x.length) {\n            j++;\n        }\n        require(j > 0 && j < p.x.length, \"invalid pricing parameters\");\n    }\n\n    function calcOptPriceAt(\n        PricingParameters memory p,\n        uint offset,\n        uint j,\n        uint xp\n    )\n        private\n        pure\n        returns (uint price)\n    {\n        uint k = offset.add(j);\n        int yA = int(p.y[k]);\n        int yB = int(p.y[k - 1]);\n        price = uint(\n            yA.sub(yB).mul(\n                int(xp.sub(p.x[j - 1]))\n            ).div(\n                int(p.x[j]).sub(int(p.x[j - 1]))\n            ).add(yB)\n        );\n    }\n\n    function calcVolume(\n        PricingParameters memory p,\n        uint price,\n        Operation op\n    )\n        private\n        view\n        returns (uint volume)\n    {\n        uint fb = calcFreeBalance();\n\n        if (op == Operation.BUY) {\n\n            uint coll = exchange.calcCollateral(\n                p.udlFeed,\n                volumeBase,\n                p.optType,\n                p.strike,\n                p.maturity\n            );\n\n            volume = coll <= price ? uint(-1) :\n                fb.mul(volumeBase).div(coll.sub(price));\n\n        } else {\n            \n            uint iv = uint(exchange.calcIntrinsicValue(\n                p.udlFeed,\n                p.optType,\n                p.strike,\n                p.maturity\n            ));\n\n            volume = price <= iv ? uint(-1) :\n                fb.mul(volumeBase).div(price.sub(iv));\n\n            volume = MoreMath.min(\n                volume, \n                exchange.balanceOf(address(this)).mul(volumeBase).div(price)\n            );\n        }\n    }\n\n    function calcYield(uint index, uint start) private view returns (uint y) {\n\n        uint t0 = deposits[index - 1].date;\n        uint t1 = index < deposits.length ?\n            deposits[index].date : time.getNow();\n\n        int v0 = int(deposits[index - 1].value.add(deposits[index - 1].balance));\n        int v1 = index < deposits.length ? \n            int(deposits[index].balance) :\n            exchange.calcExpectedPayout(address(this)).add(int(exchange.balanceOf(address(this))));\n\n        y = uint(v1.mul(int(fractionBase)).div(v0));\n        if (start > t0) {\n            y = MoreMath.powDecimal(\n                y, \n                (t1.sub(start)).mul(fractionBase).div(t1.sub(t0)), \n                fractionBase\n            );\n        }\n    }\n\n    function depositTokensInExchange(address token, uint value) private {\n        \n        ERC20 t = ERC20(token);\n        t.transferFrom(msg.sender, address(creditProvider), value);\n        creditProvider.addBalance(address(this), token, value);\n    }\n\n    function ensureValidSymbol(string memory optSymbol) private view {\n\n        require(parameters[optSymbol].udlFeed !=  address(0), \"invalid optSymbol\");\n    }\n\n    function ensureCaller() private view {\n\n        require(owner == address(0) || msg.sender == owner, \"unauthorized caller\");\n    }\n}",
  "sourcePath": "/Users/dev/Documents/coding/defioptions/DeFiOptions-contracts/contracts/pools/LinearLiquidityPool.sol",
  "compiler": {
    "name": "solc",
    "version": "0.6.0+commit.26b70077.Emscripten.clang"
  },
  "schemaVersion": "3.3.3",
  "updatedAt": "2021-04-10T18:28:58.838Z",
  "devdoc": {
    "methods": {}
  },
  "userdoc": {
    "methods": {}
  }
}