{
  "contractName": "LinearLiquidityPool",
  "abi": [
    {
      "inputs": [],
      "stateMutability": "nonpayable",
      "type": "constructor"
    },
    {
      "anonymous": false,
      "inputs": [
        {
          "indexed": false,
          "internalType": "string",
          "name": "optSymbol",
          "type": "string"
        }
      ],
      "name": "AddSymbol",
      "type": "event"
    },
    {
      "anonymous": false,
      "inputs": [
        {
          "indexed": true,
          "internalType": "address",
          "name": "owner",
          "type": "address"
        },
        {
          "indexed": true,
          "internalType": "address",
          "name": "spender",
          "type": "address"
        },
        {
          "indexed": false,
          "internalType": "uint256",
          "name": "value",
          "type": "uint256"
        }
      ],
      "name": "Approval",
      "type": "event"
    },
    {
      "anonymous": false,
      "inputs": [
        {
          "indexed": true,
          "internalType": "address",
          "name": "token",
          "type": "address"
        },
        {
          "indexed": true,
          "internalType": "address",
          "name": "buyer",
          "type": "address"
        },
        {
          "indexed": false,
          "internalType": "uint256",
          "name": "price",
          "type": "uint256"
        },
        {
          "indexed": false,
          "internalType": "uint256",
          "name": "volume",
          "type": "uint256"
        }
      ],
      "name": "Buy",
      "type": "event"
    },
    {
      "anonymous": false,
      "inputs": [
        {
          "indexed": false,
          "internalType": "string",
          "name": "optSymbol",
          "type": "string"
        }
      ],
      "name": "RemoveSymbol",
      "type": "event"
    },
    {
      "anonymous": false,
      "inputs": [
        {
          "indexed": true,
          "internalType": "address",
          "name": "token",
          "type": "address"
        },
        {
          "indexed": true,
          "internalType": "address",
          "name": "seller",
          "type": "address"
        },
        {
          "indexed": false,
          "internalType": "uint256",
          "name": "price",
          "type": "uint256"
        },
        {
          "indexed": false,
          "internalType": "uint256",
          "name": "volume",
          "type": "uint256"
        }
      ],
      "name": "Sell",
      "type": "event"
    },
    {
      "anonymous": false,
      "inputs": [
        {
          "indexed": true,
          "internalType": "address",
          "name": "from",
          "type": "address"
        },
        {
          "indexed": true,
          "internalType": "address",
          "name": "to",
          "type": "address"
        },
        {
          "indexed": false,
          "internalType": "uint256",
          "name": "value",
          "type": "uint256"
        }
      ],
      "name": "Transfer",
      "type": "event"
    },
    {
      "inputs": [],
      "name": "DOMAIN_SEPARATOR",
      "outputs": [
        {
          "internalType": "bytes32",
          "name": "",
          "type": "bytes32"
        }
      ],
      "stateMutability": "view",
      "type": "function"
    },
    {
      "inputs": [],
      "name": "PERMIT_TYPEHASH",
      "outputs": [
        {
          "internalType": "bytes32",
          "name": "",
          "type": "bytes32"
        }
      ],
      "stateMutability": "view",
      "type": "function"
    },
    {
      "inputs": [
        {
          "internalType": "address",
          "name": "owner",
          "type": "address"
        },
        {
          "internalType": "address",
          "name": "spender",
          "type": "address"
        }
      ],
      "name": "allowance",
      "outputs": [
        {
          "internalType": "uint256",
          "name": "",
          "type": "uint256"
        }
      ],
      "stateMutability": "view",
      "type": "function"
    },
    {
      "inputs": [
        {
          "internalType": "address",
          "name": "spender",
          "type": "address"
        },
        {
          "internalType": "uint256",
          "name": "value",
          "type": "uint256"
        }
      ],
      "name": "approve",
      "outputs": [
        {
          "internalType": "bool",
          "name": "",
          "type": "bool"
        }
      ],
      "stateMutability": "nonpayable",
      "type": "function"
    },
    {
      "inputs": [
        {
          "internalType": "address",
          "name": "owner",
          "type": "address"
        }
      ],
      "name": "balanceOf",
      "outputs": [
        {
          "internalType": "uint256",
          "name": "",
          "type": "uint256"
        }
      ],
      "stateMutability": "view",
      "type": "function"
    },
    {
      "inputs": [],
      "name": "decimals",
      "outputs": [
        {
          "internalType": "uint8",
          "name": "",
          "type": "uint8"
        }
      ],
      "stateMutability": "view",
      "type": "function"
    },
    {
      "inputs": [
        {
          "internalType": "address",
          "name": "spender",
          "type": "address"
        },
        {
          "internalType": "uint256",
          "name": "subtractedValue",
          "type": "uint256"
        }
      ],
      "name": "decreaseAllowance",
      "outputs": [
        {
          "internalType": "bool",
          "name": "",
          "type": "bool"
        }
      ],
      "stateMutability": "nonpayable",
      "type": "function"
    },
    {
      "inputs": [
        {
          "internalType": "address",
          "name": "spender",
          "type": "address"
        },
        {
          "internalType": "uint256",
          "name": "addedValue",
          "type": "uint256"
        }
      ],
      "name": "increaseAllowance",
      "outputs": [
        {
          "internalType": "bool",
          "name": "",
          "type": "bool"
        }
      ],
      "stateMutability": "nonpayable",
      "type": "function"
    },
    {
      "inputs": [
        {
          "internalType": "contract Deployer",
          "name": "deployer",
          "type": "address"
        }
      ],
      "name": "initializeAndLock",
      "outputs": [],
      "stateMutability": "nonpayable",
      "type": "function"
    },
    {
      "inputs": [
        {
          "internalType": "address",
          "name": "",
          "type": "address"
        }
      ],
      "name": "nonces",
      "outputs": [
        {
          "internalType": "uint256",
          "name": "",
          "type": "uint256"
        }
      ],
      "stateMutability": "view",
      "type": "function"
    },
    {
      "inputs": [
        {
          "internalType": "address",
          "name": "owner",
          "type": "address"
        },
        {
          "internalType": "address",
          "name": "spender",
          "type": "address"
        },
        {
          "internalType": "uint256",
          "name": "value",
          "type": "uint256"
        },
        {
          "internalType": "uint256",
          "name": "deadline",
          "type": "uint256"
        },
        {
          "internalType": "uint8",
          "name": "v",
          "type": "uint8"
        },
        {
          "internalType": "bytes32",
          "name": "r",
          "type": "bytes32"
        },
        {
          "internalType": "bytes32",
          "name": "s",
          "type": "bytes32"
        }
      ],
      "name": "permit",
      "outputs": [],
      "stateMutability": "nonpayable",
      "type": "function"
    },
    {
      "inputs": [
        {
          "internalType": "address[]",
          "name": "owners",
          "type": "address[]"
        }
      ],
      "name": "redeem",
      "outputs": [
        {
          "internalType": "uint256",
          "name": "value",
          "type": "uint256"
        }
      ],
      "stateMutability": "nonpayable",
      "type": "function"
    },
    {
      "inputs": [
        {
          "internalType": "address",
          "name": "owner",
          "type": "address"
        }
      ],
      "name": "redeem",
      "outputs": [
        {
          "internalType": "uint256",
          "name": "value",
          "type": "uint256"
        }
      ],
      "stateMutability": "nonpayable",
      "type": "function"
    },
    {
      "inputs": [],
      "name": "totalSupply",
      "outputs": [
        {
          "internalType": "uint256",
          "name": "",
          "type": "uint256"
        }
      ],
      "stateMutability": "view",
      "type": "function"
    },
    {
      "inputs": [
        {
          "internalType": "address",
          "name": "to",
          "type": "address"
        },
        {
          "internalType": "uint256",
          "name": "value",
          "type": "uint256"
        }
      ],
      "name": "transfer",
      "outputs": [
        {
          "internalType": "bool",
          "name": "",
          "type": "bool"
        }
      ],
      "stateMutability": "nonpayable",
      "type": "function"
    },
    {
      "inputs": [
        {
          "internalType": "address",
          "name": "from",
          "type": "address"
        },
        {
          "internalType": "address",
          "name": "to",
          "type": "address"
        },
        {
          "internalType": "uint256",
          "name": "value",
          "type": "uint256"
        }
      ],
      "name": "transferFrom",
      "outputs": [
        {
          "internalType": "bool",
          "name": "",
          "type": "bool"
        }
      ],
      "stateMutability": "nonpayable",
      "type": "function"
    },
    {
      "inputs": [],
      "name": "name",
      "outputs": [
        {
          "internalType": "string",
          "name": "",
          "type": "string"
        }
      ],
      "stateMutability": "view",
      "type": "function"
    },
    {
      "inputs": [],
      "name": "symbol",
      "outputs": [
        {
          "internalType": "string",
          "name": "",
          "type": "string"
        }
      ],
      "stateMutability": "view",
      "type": "function"
    },
    {
      "inputs": [
        {
          "internalType": "uint256",
          "name": "_spread",
          "type": "uint256"
        },
        {
          "internalType": "uint256",
          "name": "_reserveRatio",
          "type": "uint256"
        },
        {
          "internalType": "uint256",
          "name": "_mt",
          "type": "uint256"
        }
      ],
      "name": "setParameters",
      "outputs": [],
      "stateMutability": "nonpayable",
      "type": "function"
    },
    {
      "inputs": [],
      "name": "redeemAllowed",
      "outputs": [
        {
          "internalType": "bool",
          "name": "",
          "type": "bool"
        }
      ],
      "stateMutability": "view",
      "type": "function"
    },
    {
      "inputs": [],
      "name": "maturity",
      "outputs": [
        {
          "internalType": "uint256",
          "name": "",
          "type": "uint256"
        }
      ],
      "stateMutability": "view",
      "type": "function"
    },
    {
      "inputs": [
        {
          "internalType": "uint256",
          "name": "dt",
          "type": "uint256"
        }
      ],
      "name": "yield",
      "outputs": [
        {
          "internalType": "uint256",
          "name": "y",
          "type": "uint256"
        }
      ],
      "stateMutability": "view",
      "type": "function"
    },
    {
      "inputs": [
        {
          "internalType": "address",
          "name": "udlFeed",
          "type": "address"
        },
        {
          "internalType": "uint256",
          "name": "strike",
          "type": "uint256"
        },
        {
          "internalType": "uint256",
          "name": "_mt",
          "type": "uint256"
        },
        {
          "internalType": "enum OptionsExchange.OptionType",
          "name": "optType",
          "type": "uint8"
        },
        {
          "internalType": "uint256",
          "name": "t0",
          "type": "uint256"
        },
        {
          "internalType": "uint256",
          "name": "t1",
          "type": "uint256"
        },
        {
          "internalType": "uint120[]",
          "name": "x",
          "type": "uint120[]"
        },
        {
          "internalType": "uint120[]",
          "name": "y",
          "type": "uint120[]"
        },
        {
          "internalType": "uint256",
          "name": "buyStock",
          "type": "uint256"
        },
        {
          "internalType": "uint256",
          "name": "sellStock",
          "type": "uint256"
        }
      ],
      "name": "addSymbol",
      "outputs": [],
      "stateMutability": "nonpayable",
      "type": "function"
    },
    {
      "inputs": [
        {
          "internalType": "string",
          "name": "optSymbol",
          "type": "string"
        }
      ],
      "name": "removeSymbol",
      "outputs": [],
      "stateMutability": "nonpayable",
      "type": "function"
    },
    {
      "inputs": [
        {
          "internalType": "address",
          "name": "to",
          "type": "address"
        },
        {
          "internalType": "address",
          "name": "token",
          "type": "address"
        },
        {
          "internalType": "uint256",
          "name": "value",
          "type": "uint256"
        }
      ],
      "name": "depositTokens",
      "outputs": [],
      "stateMutability": "nonpayable",
      "type": "function"
    },
    {
      "inputs": [
        {
          "internalType": "address",
          "name": "to",
          "type": "address"
        },
        {
          "internalType": "address",
          "name": "token",
          "type": "address"
        },
        {
          "internalType": "uint256",
          "name": "value",
          "type": "uint256"
        },
        {
          "internalType": "uint256",
          "name": "deadline",
          "type": "uint256"
        },
        {
          "internalType": "uint8",
          "name": "v",
          "type": "uint8"
        },
        {
          "internalType": "bytes32",
          "name": "r",
          "type": "bytes32"
        },
        {
          "internalType": "bytes32",
          "name": "s",
          "type": "bytes32"
        }
      ],
      "name": "depositTokens",
      "outputs": [],
      "stateMutability": "nonpayable",
      "type": "function"
    },
    {
      "inputs": [],
      "name": "calcFreeBalance",
      "outputs": [
        {
          "internalType": "uint256",
          "name": "balance",
          "type": "uint256"
        }
      ],
      "stateMutability": "view",
      "type": "function"
    },
    {
      "inputs": [],
      "name": "listSymbols",
      "outputs": [
        {
          "internalType": "string",
          "name": "available",
          "type": "string"
        }
      ],
      "stateMutability": "view",
      "type": "function"
    },
    {
      "inputs": [
        {
          "internalType": "string",
          "name": "optSymbol",
          "type": "string"
        }
      ],
      "name": "queryBuy",
      "outputs": [
        {
          "internalType": "uint256",
          "name": "price",
          "type": "uint256"
        },
        {
          "internalType": "uint256",
          "name": "volume",
          "type": "uint256"
        }
      ],
      "stateMutability": "view",
      "type": "function"
    },
    {
      "inputs": [
        {
          "internalType": "string",
          "name": "optSymbol",
          "type": "string"
        }
      ],
      "name": "querySell",
      "outputs": [
        {
          "internalType": "uint256",
          "name": "price",
          "type": "uint256"
        },
        {
          "internalType": "uint256",
          "name": "volume",
          "type": "uint256"
        }
      ],
      "stateMutability": "view",
      "type": "function"
    },
    {
      "inputs": [
        {
          "internalType": "string",
          "name": "optSymbol",
          "type": "string"
        },
        {
          "internalType": "uint256",
          "name": "price",
          "type": "uint256"
        },
        {
          "internalType": "uint256",
          "name": "volume",
          "type": "uint256"
        },
        {
          "internalType": "address",
          "name": "token",
          "type": "address"
        },
        {
          "internalType": "uint256",
          "name": "maxValue",
          "type": "uint256"
        },
        {
          "internalType": "uint256",
          "name": "deadline",
          "type": "uint256"
        },
        {
          "internalType": "uint8",
          "name": "v",
          "type": "uint8"
        },
        {
          "internalType": "bytes32",
          "name": "r",
          "type": "bytes32"
        },
        {
          "internalType": "bytes32",
          "name": "s",
          "type": "bytes32"
        }
      ],
      "name": "buy",
      "outputs": [
        {
          "internalType": "address",
          "name": "_tk",
          "type": "address"
        }
      ],
      "stateMutability": "nonpayable",
      "type": "function"
    },
    {
      "inputs": [
        {
          "internalType": "string",
          "name": "optSymbol",
          "type": "string"
        },
        {
          "internalType": "uint256",
          "name": "price",
          "type": "uint256"
        },
        {
          "internalType": "uint256",
          "name": "volume",
          "type": "uint256"
        },
        {
          "internalType": "address",
          "name": "token",
          "type": "address"
        }
      ],
      "name": "buy",
      "outputs": [
        {
          "internalType": "address",
          "name": "_tk",
          "type": "address"
        }
      ],
      "stateMutability": "nonpayable",
      "type": "function"
    },
    {
      "inputs": [
        {
          "internalType": "string",
          "name": "optSymbol",
          "type": "string"
        },
        {
          "internalType": "uint256",
          "name": "price",
          "type": "uint256"
        },
        {
          "internalType": "uint256",
          "name": "volume",
          "type": "uint256"
        }
      ],
      "name": "sell",
      "outputs": [],
      "stateMutability": "nonpayable",
      "type": "function"
    },
    {
      "inputs": [
        {
          "internalType": "string",
          "name": "optSymbol",
          "type": "string"
        },
        {
          "internalType": "uint256",
          "name": "price",
          "type": "uint256"
        },
        {
          "internalType": "uint256",
          "name": "volume",
          "type": "uint256"
        },
        {
          "internalType": "uint256",
          "name": "deadline",
          "type": "uint256"
        },
        {
          "internalType": "uint8",
          "name": "v",
          "type": "uint8"
        },
        {
          "internalType": "bytes32",
          "name": "r",
          "type": "bytes32"
        },
        {
          "internalType": "bytes32",
          "name": "s",
          "type": "bytes32"
        }
      ],
      "name": "sell",
      "outputs": [],
      "stateMutability": "nonpayable",
      "type": "function"
    }
  ],
  "bytecode": "0x60806040523480156200001157600080fd5b5060405180606001604052806026815260200162006010602691396040514690806052620060368239604080519182900360520182208551602096870120838301835260018452603160f81b93870193909352815180870191909152808201929092527fc89efdaa54c0f20c7adf612882df0950f5a951637e0307cdcb4c672f298b8bc6606083015260808201939093523060a0808301919091528351808303909101815260c0909101909252508051910120600655615f3980620000d76000396000f3fe608060405234801561001057600080fd5b50600436106102065760003560e01c806365288dde1161011a57806395d89b41116100ad578063ad56d52e1161007c578063ad56d52e14610a40578063c7f1978e14610ac3578063d259945d14610acb578063d505accf14610b6f578063dd62ed3e14610bc057610206565b806395d89b41146108ea578063a457c2d7146108f2578063a57a8aad1461091e578063a9059cbb14610a1457610206565b80638730b205116100e95780638730b2051461075e5780638bd9513e146107ff5780638e424b6b1461080757806395a2251f146108c457610206565b806365288dde1461060057806370a08231146106f5578063765287ef1461071b5780637ecebe001461073857610206565b8063313ce5671161019d578063395093511161016c578063395093511461051f57806339dc5ef21461054b578063439fa0881461058157806345e77633146105d25780635c1bfb32146105da57610206565b8063313ce5671461046257806334c5d2ce146104805780633644e515146104a957806336977d32146104b157610206565b806318160ddd116101d957806318160ddd14610402578063204f83f91461041c57806323b872dd1461042457806330adf81f1461045a57610206565b806304804ee81461020b57806306fdde0314610281578063095ea7b3146102fe578063096457571461033e575b600080fd5b61027f6004803603606081101561022157600080fd5b810190602081018135600160201b81111561023b57600080fd5b82018360208201111561024d57600080fd5b803590602001918460018302840111600160201b8311171561026e57600080fd5b919350915080359060200135610bee565b005b610289610c3c565b6040805160208082528351818301528351919283929083019185019080838360005b838110156102c35781810151838201526020016102ab565b50505050905090810190601f1680156102f05780820380516001836020036101000a031916815260200191505b509250505060405180910390f35b61032a6004803603604081101561031457600080fd5b506001600160a01b038135169060200135610c5d565b604080519115158252519081900360200190f35b61027f600480360360e081101561035457600080fd5b810190602081018135600160201b81111561036e57600080fd5b82018360208201111561038057600080fd5b803590602001918460018302840111600160201b831117156103a157600080fd5b91908080601f0160208091040260200160405190810160405280939291908181526020018383808284376000920191909152509295505082359350505060208101359060408101359060ff6060820135169060808101359060a00135610c73565b61040a6113d3565b60408051918252519081900360200190f35b61040a6113d9565b61032a6004803603606081101561043a57600080fd5b506001600160a01b038135811691602081013590911690604001356113df565b61040a6114bb565b61046a6114df565b6040805160ff9092168252519081900360200190f35b61027f6004803603606081101561049657600080fd5b50803590602081013590604001356114e4565b61040a6114fa565b61027f600480360360208110156104c757600080fd5b810190602081018135600160201b8111156104e157600080fd5b8201836020820111156104f357600080fd5b803590602001918460018302840111600160201b8311171561051457600080fd5b509092509050611500565b61032a6004803603604081101561053557600080fd5b506001600160a01b038135169060200135611726565b61027f6004803603606081101561056157600080fd5b506001600160a01b038135811691602081013590911690604001356117a9565b61027f600480360360e081101561059757600080fd5b506001600160a01b03813581169160208101359091169060408101359060608101359060ff6080820135169060a08101359060c00135611af4565b610289611b92565b61027f600480360360208110156105f057600080fd5b50356001600160a01b0316611e5d565b61027f600480360361014081101561061757600080fd5b6001600160a01b038235169160208101359160408201359160ff6060820135169160808201359160a08101359181019060e0810160c0820135600160201b81111561066157600080fd5b82018360208201111561067357600080fd5b803590602001918460208302840111600160201b8311171561069457600080fd5b919390929091602081019035600160201b8111156106b157600080fd5b8201836020820111156106c357600080fd5b803590602001918460208302840111600160201b831117156106e457600080fd5b919350915080359060200135611edb565b61040a6004803603602081101561070b57600080fd5b50356001600160a01b0316612541565b61040a6004803603602081101561073157600080fd5b5035612560565b61040a6004803603602081101561074e57600080fd5b50356001600160a01b0316612679565b61040a6004803603602081101561077457600080fd5b810190602081018135600160201b81111561078e57600080fd5b8201836020820111156107a057600080fd5b803590602001918460208302840111600160201b831117156107c157600080fd5b91908080602002602001604051908101604052809392919081815260200183836020028082843760009201919091525092955061268b945050505050565b61040a612813565b6108ab6004803603602081101561081d57600080fd5b810190602081018135600160201b81111561083757600080fd5b82018360208201111561084957600080fd5b803590602001918460018302840111600160201b8311171561086a57600080fd5b91908080601f016020809104026020016040519081016040528093929190818152602001838380828437600092019190915250929550612964945050505050565b6040805192835260208301919091528051918290030190f35b61040a600480360360208110156108da57600080fd5b50356001600160a01b0316612d24565b610289612d81565b61032a6004803603604081101561090857600080fd5b506001600160a01b038135169060200135612da0565b6109f8600480360361012081101561093557600080fd5b810190602081018135600160201b81111561094f57600080fd5b82018360208201111561096157600080fd5b803590602001918460018302840111600160201b8311171561098257600080fd5b91908080601f016020809104026020016040519081016040528093929190818152602001838380828437600092019190915250929550508235935050506020810135906001600160a01b036040820135169060608101359060808101359060ff60a0820135169060c08101359060e00135612de9565b604080516001600160a01b039092168252519081900360200190f35b61032a60048036036040811015610a2a57600080fd5b506001600160a01b0381351690602001356132ba565b6109f860048036036080811015610a5657600080fd5b810190602081018135600160201b811115610a7057600080fd5b820183602082011115610a8257600080fd5b803590602001918460018302840111600160201b83111715610aa357600080fd5b9193509150803590602081013590604001356001600160a01b0316613303565b61032a613377565b6108ab60048036036020811015610ae157600080fd5b810190602081018135600160201b811115610afb57600080fd5b820183602082011115610b0d57600080fd5b803590602001918460018302840111600160201b83111715610b2e57600080fd5b91908080601f0160208091040260200160405190810160405280939291908181526020018383808284376000920191909152509295506133f3945050505050565b61027f600480360360e0811015610b8557600080fd5b506001600160a01b03813581169160208101359091169060408101359060608101359060ff6080820135169060a08101359060c001356137a5565b61040a60048036036040811015610bd657600080fd5b506001600160a01b03813581169160200135166139b3565b6000610c3585858080601f01602080910402602001604051908101604052809392919081815260200183838082843760009201829052508893508792509050808680610c73565b5050505050565b6060604051806060016040528060268152602001615e2b6026913990505b90565b6000610c6a3384846139de565b90505b92915050565b60008511610cb9576040805162461bcd60e51b815260206004820152600e60248201526d696e76616c696420766f6c756d6560901b604482015290519081900360640190fd5b610cc287613a26565b610cca615b5e565b600c886040518082805190602001908083835b60208310610cfc5780518252601f199092019160209182019101610cdd565b51815160209384036101000a6000190180199092169116179052920194855250604080519485900382018520610140860190915280546001600160a01b03811686529093509084019150600160a01b900460ff166001811115610d5b57fe5b6001811115610d6657fe5b815260018201546001600160781b03808216602080850191909152600160781b80840463ffffffff908116604080880191909152600160981b860482166060880152600160b81b909504166080860152600286015480841660a08701520490911660c084015260038401805483518184028101840190945280845260e0909401939091830182828015610e4a57602002820191906000526020600020906000905b82829054906101000a90046001600160781b03166001600160781b0316815260200190600f0190602082600e01049283019260010382029150808411610e075790505b5050505050815260200160048201805480602002602001604051908101604052809291908181526020018280548015610ed457602002820191906000526020600020906000905b82829054906101000a90046001600160781b03166001600160781b0316815260200190600f0190602082600e01049283019260010382029150808411610e915790505b5050505050815250509050610eeb87826001613af2565b600854604051638c922b6360e01b81526020600482018181528c5160248401528c51949b506000946001600160a01b0390941693638c922b63938e938392604490920191908501908083838b5b83811015610f50578181015183820152602001610f38565b50505050905090810190601f168015610f7d5780820380516001836020036101000a031916815260200191505b509250505060206040518083038186803b158015610f9a57600080fd5b505afa158015610fae573d6000803e3d6000fd5b505050506040513d6020811015610fc457600080fd5b5051905080861561105a576040805163d505accf60e01b8152336004820152306024820152604481018a90526064810189905260ff8816608482015260a4810187905260c4810186905290516001600160a01b0383169163d505accf9160e480830192600092919082900301818387803b15801561104157600080fd5b505af1158015611055573d6000803e3d6000fd5b505050505b604080516323b872dd60e01b8152336004820152306024820152604481018a905290516001600160a01b038316916323b872dd9160648083019260209291908290030181600087803b1580156110af57600080fd5b505af11580156110c3573d6000803e3d6000fd5b505050506040513d60208110156110d957600080fd5b50506040805163d0acc58f60e01b815230600482015290516000916001600160a01b0384169163d0acc58f91602480820192602092909190829003018186803b15801561112557600080fd5b505afa158015611139573d6000803e3d6000fd5b505050506040513d602081101561114f57600080fd5b5051905080156111c7576000611165828b613b72565b9050826001600160a01b03166342966c68826040518263ffffffff1660e01b815260040180828152602001915050600060405180830381600087803b1580156111ad57600080fd5b505af11580156111c1573d6000803e3d6000fd5b50505050505b6015546000906111ed906111e18d8d63ffffffff613b8816565b9063ffffffff613be116565b600854604080516356a6d9ef60e01b81523360048201526024810184905290519293506001600160a01b03909116916356a6d9ef9160448082019260009290919082900301818387803b15801561124357600080fd5b505af1158015611257573d6000803e3d6000fd5b505050506000611265612813565b116112ae576040805162461bcd60e51b8152602060048201526014602482015273706f6f6c2062616c616e636520746f6f206c6f7760601b604482015290519081900360640190fd5b604080516370a0823160e01b815230600482015290516000916001600160a01b038616916370a0823191602480820192602092909190829003018186803b1580156112f857600080fd5b505afa15801561130c573d6000803e3d6000fd5b505050506040513d602081101561132257600080fd5b505160e08701519091506001600160781b031681111561137c576040805162461bcd60e51b815260206004820152601060248201526f65786365737369766520766f6c756d6560801b604482015290519081900360640190fd5b604080518d8152602081018d9052815133926001600160a01b038916927fa082022e93cfcd9f1da5f9236718053910f7e840da080c789c7845698dc032ff929081900390910190a350505050505050505050505050565b60075490565b60105490565b60006113ea84612541565b8211156113f657600080fd5b6001600160a01b038416600090815260046020908152604080832033845290915290205482111561142657600080fd5b6001600160a01b03831661143957600080fd5b6114438483613c23565b61144d8383613c5c565b6001600160a01b0384166000908152600460209081526040808320338452909152902054611481908363ffffffff613c7516565b6001600160a01b03851660009081526004602090815260408083203384529091529020556114b0848484613cb7565b5060015b9392505050565b7f6e71edae12b1b97f4d1f60370fef10105fa2faae0126114a169c64845d6126c981565b601290565b6114ec613d07565b600e92909255600f55601055565b60065481565b611508613d07565b611510615b5e565b80600c84846040518083838082843791909101948552505060405160209381900384019020845181546001600160a01b0319166001600160a01b039091161780825593850151909390925083915060ff60a01b1916600160a01b83600181111561157657fe5b021790555060408201516001820180546060850151608086015160a08701516effffffffffffffffffffffffffffff199384166001600160781b039687161763ffffffff60781b1916600160781b63ffffffff94851681029190911763ffffffff60981b1916600160981b938516939093029290921763ffffffff60b81b1916600160b81b93909116929092029190911790925560c085015160028501805460e08801519316918516919091176effffffffffffffffffffffffffffff60781b191691909316909102179055610100820151805161165e916003840191602090910190615bb5565b50610120820151805161167b916004840191602090910190615bb5565b509050506116c0601184848080601f016020809104026020016040519081016040528093929190818152602001838380828437600092019190915250613d7c92505050565b507f4b62493f4f8ba00316d1e11c870ddc857bd37e50aafe15a7ad4d3f6ac1c6d34d838360405180806020018281038252848482818152602001925080828437600083820152604051601f909101601f19169092018290039550909350505050a1505050565b60006001600160a01b03831661173b57600080fd5b3360009081526004602090815260408083206001600160a01b038716845290915290205461176f908363ffffffff613eab16565b3360008181526004602090815260408083206001600160a01b038916845290915290208290556117a0918590613f05565b50600192915050565b600854604080516370a0823160e01b815230600482015290516000926001600160a01b0316916370a08231916024808301926020929190829003018186803b1580156117f457600080fd5b505afa158015611808573d6000803e3d6000fd5b505050506040513d602081101561181e57600080fd5b5051905061182c8383613f55565b600854604080516370a0823160e01b815230600482015290516000926001600160a01b0316916370a08231916024808301926020929190829003018186803b15801561187757600080fd5b505afa15801561188b573d6000803e3d6000fd5b505050506040513d60208110156118a157600080fd5b50516008546040805162b08c1d60e21b815230600482015290519293506000926001600160a01b03909216916302c2307491602480820192602092909190829003018186803b1580156118f357600080fd5b505afa158015611907573d6000803e3d6000fd5b505050506040513d602081101561191d57600080fd5b50516040805160608101808352600954630bbe4fd560e41b9091529151929350601292909182916119a6916001600160a01b03169063bbe4fd5090606480860191602091818803018186803b15801561197557600080fd5b505afa158015611989573d6000803e3d6000fd5b505050506040513d602081101561199f57600080fd5b505161404c565b63ffffffff1681526020016119c4848761409090919063ffffffff16565b81526020016119d9858763ffffffff613c7516565b9052815460018082018455600093845260208085208451600390940201805463ffffffff191663ffffffff94851617815590840151918101919091556040909201516002909201919091556007549190611a37908490869061409016565b90506000611a64826111e1601654611a588a8a613c7590919063ffffffff16565b9063ffffffff613b8816565b90506103e8600084611a8557611a80848363ffffffff613b8816565b611ab0565b601654611ab090611a9c908563ffffffff613c7516565b6111e184611a58898863ffffffff613b8816565b9050611abc81836140f5565b9050611ac88b82613c5c565b611ad8858263ffffffff613eab16565b600755611ae760008c83613cb7565b5050505050505050505050565b6040805163d505accf60e01b8152336004820152306024820152604481018790526064810186905260ff8516608482015260a4810184905260c4810183905290516001600160a01b0388169163d505accf9160e480830192600092919082900301818387803b158015611b6657600080fd5b505af1158015611b7a573d6000803e3d6000fd5b50505050611b898787876117a9565b50505050505050565b606060005b601154811015611e5957600960009054906101000a90046001600160a01b03166001600160a01b031663bbe4fd506040518163ffffffff1660e01b815260040160206040518083038186803b158015611bef57600080fd5b505afa158015611c03573d6000803e3d6000fd5b505050506040513d6020811015611c1957600080fd5b505160118054600c919084908110611c2d57fe5b906000526020600020016040518082805460018160011615610100020316600290048015611c925780601f10611c70576101008083540402835291820191611c92565b820191906000526020600020905b815481529060010190602001808311611c7e575b505092835250506040519081900360200190206001015463ffffffff600160781b909104161115611e51578151611d6a5760118181548110611cd057fe5b600091825260209182902001805460408051601f6002600019610100600187161502019094169390930492830185900485028101850190915281815292830182828015611d5e5780601f10611d3357610100808354040283529160200191611d5e565b820191906000526020600020905b815481529060010190602001808311611d4157829003601f168201915b50505050509150611e51565b8160118281548110611d7857fe5b906000526020600020016040516020018083805190602001908083835b60208310611db45780518252601f199092019160209182019101611d95565b6001836020036101000a03801982511681845116808217855250505050505090500180600560f91b81525060010182805460018160011615610100020316600290048015611e395780601f10611e17576101008083540402835291820191611e39565b820191906000526020600020905b815481529060010190602001808311611e25575b50509250505060405160208183030381529060405291505b600101611b97565b5090565b600254600160a01b900460ff1615611ebc576040805162461bcd60e51b815260206004820152601560248201527f696e697469616c697a6174696f6e206c6f636b65640000000000000000000000604482015290519081900360640190fd5b6002805460ff60a01b1916600160a01b179055611ed881614138565b50565b611ee3613d07565b6010548a10611f39576040805162461bcd60e51b815260206004820152601060248201527f696e76616c6964206d6174757269747900000000000000000000000000000000604482015290519081900360640190fd5b8415801590611f57575082611f5586600263ffffffff613b8816565b145b611fa8576040805162461bcd60e51b815260206004820152601760248201527f696e76616c69642070726963696e672073757266616365000000000000000000604482015290519081900360640190fd5b6060600860009054906101000a90046001600160a01b03166001600160a01b031663edb5fd4f8e8c8f8f6040518563ffffffff1660e01b815260040180856001600160a01b03166001600160a01b0316815260200184600181111561200957fe5b60ff16815260200183815260200182815260200194505050505060006040518083038186803b15801561203b57600080fd5b505afa15801561204f573d6000803e3d6000fd5b505050506040513d6000823e601f3d908101601f19168201604052602081101561207857600080fd5b8101908080516040519392919084600160201b82111561209757600080fd5b9083019060208201858111156120ac57600080fd5b8251600160201b8111828201881017156120c557600080fd5b82525081516020918201929091019080838360005b838110156120f25781810151838201526020016120da565b50505050905090810190601f16801561211f5780820380516001836020036101000a031916815260200191505b506040525050509050600c816040518082805190602001908083835b6020831061215a5780518252601f19909201916020918201910161213b565b51815160209384036101000a6000190180199092169116179052920194855250604051938490030190922060030154151591506121d89050576011805460018101825560009190915281516121d6917f31ecc21a745e3968a04e9570e4425bc18fa8019c68028196b546d1669c200c6801906020840190615c69565b505b6040518061014001604052808e6001600160a01b031681526020018b60018111156121ff57fe5b815260200161220d8e61457d565b6001600160781b031681526020016122248d61404c565b63ffffffff1681526020016122388b61404c565b63ffffffff16815260200161224c8a61404c565b63ffffffff1681526020016122608561457d565b6001600160781b031681526020016122778461457d565b6001600160781b03168152602001888880806020026020016040519081016040528093929190818152602001838360200280828437600092019190915250505090825250604080516020888102828101820190935288825292830192909189918991829185019084908082843760009201919091525050509152506040518251600c918491819060208401908083835b602083106123265780518252601f199092019160209182019101612307565b51815160209384036101000a6000190180199092169116179052920194855250604051938490038101909320845181546001600160a01b0319166001600160a01b039091161780825593850151909390925083915060ff60a01b1916600160a01b83600181111561239357fe5b021790555060408201516001820180546060850151608086015160a08701516effffffffffffffffffffffffffffff199384166001600160781b039687161763ffffffff60781b1916600160781b63ffffffff94851681029190911763ffffffff60981b1916600160981b938516939093029290921763ffffffff60b81b1916600160b81b93909116929092029190911790925560c085015160028501805460e08801519316918516919091176effffffffffffffffffffffffffffff60781b191691909316909102179055610100820151805161247b916003840191602090910190615bb5565b506101208201518051612498916004840191602090910190615bb5565b505060408051602080825284518183015284517f27136bc3b80a2a48083d0f3dd8acaf97309ab58abf6408d4ab39af25b6b4168e945085938392908301919085019080838360005b838110156124f85781810151838201526020016124e0565b50505050905090810190601f1680156125255780820380516001836020036101000a031916815260200191505b509250505060405180910390a150505050505050505050505050565b6001600160a01b0381166000908152600360205260409020545b919050565b6016546012541561255b5760095460408051630bbe4fd560e41b815290516000926001600160a01b03169163bbe4fd50916004808301926020929190829003018186803b1580156125b057600080fd5b505afa1580156125c4573d6000803e3d6000fd5b505050506040513d60208110156125da57600080fd5b5051905060006125f0828563ffffffff613c7516565b905060005b60125481101561263757816012828154811061260d57fe5b600091825260209091206003909102015463ffffffff16111561262f57612637565b6001016125f5565b6012548111612671578015612669576126666016546111e161265984866145c1565b879063ffffffff613b8816565b93505b600101612637565b505050919050565b60056020526000908152604090205481565b6000612695613377565b6126e6576040805162461bcd60e51b815260206004820152601360248201527f72656465656d64206e6f7420616c6c6f77656400000000000000000000000000604482015290519081900360640190fd5b600854604080516370a0823160e01b815230600482015290516000926001600160a01b0316916370a08231916024808301926020929190829003018186803b15801561273157600080fd5b505afa158015612745573d6000803e3d6000fd5b505050506040513d602081101561275b57600080fd5b505160075490915081908060005b86518110156128065760006001600160a01b031687828151811061278957fe5b60200260200101516001600160a01b0316146127fe576000806127c087868b86815181106127b357fe5b6020026020010151614896565b90925090506127d5888263ffffffff613eab16565b97506127e7868263ffffffff613c7516565b95506127f9848363ffffffff613c7516565b935050505b600101612769565b5060075550919392505050565b600854604080516370a0823160e01b8152306004820152905160009283926001600160a01b03909116916370a0823191602480820192602092909190829003018186803b15801561286357600080fd5b505afa158015612877573d6000803e3d6000fd5b505050506040513d602081101561288d57600080fd5b5051601654600f549192506000916128b191906111e190859063ffffffff613b8816565b600854604080516352fee2ef60e11b8152306004820152905192935060009261293c926001600160a01b03169163a5fdc5de916024808301926020929190829003018186803b15801561290357600080fd5b505afa158015612917573d6000803e3d6000fd5b505050506040513d602081101561292d57600080fd5b5051849063ffffffff613c7516565b905081811161294c57600061295c565b61295c818363ffffffff613c7516565b935050505090565b60008061297083613a26565b612978615b5e565b600c846040518082805190602001908083835b602083106129aa5780518252601f19909201916020918201910161298b565b51815160209384036101000a6000190180199092169116179052920194855250604080519485900382018520610140860190915280546001600160a01b03811686529093509084019150600160a01b900460ff166001811115612a0957fe5b6001811115612a1457fe5b815260018201546001600160781b03808216602080850191909152600160781b80840463ffffffff908116604080880191909152600160981b860482166060880152600160b81b909504166080860152600286015480841660a08701520490911660c084015260038401805483518184028101840190945280845260e0909401939091830182828015612af857602002820191906000526020600020906000905b82829054906101000a90046001600160781b03166001600160781b0316815260200190600f0190602082600e01049283019260010382029150808411612ab55790505b5050505050815260200160048201805480602002602001604051908101604052809291908181526020018280548015612b8257602002820191906000526020600020906000905b82829054906101000a90046001600160781b03166001600160781b0316815260200190600f0190602082600e01049283019260010382029150808411612b3f5790505b5050505050815250509050612b98816001614968565b600854604051638c922b6360e01b81526020600482018181528851602484015288519497506000946001600160a01b0390941693638c922b63938a938392604490920191908501908083838b5b83811015612bfd578181015183820152602001612be5565b50505050905090810190601f168015612c2a5780820380516001836020036101000a031916815260200191505b509250505060206040518083038186803b158015612c4757600080fd5b505afa158015612c5b573d6000803e3d6000fd5b505050506040513d6020811015612c7157600080fd5b50519050612d1b612c858684876001614b73565b604080516370a0823160e01b81523060048201529051612d16916001600160a01b038616916370a0823191602480820192602092909190829003018186803b158015612cd057600080fd5b505afa158015612ce4573d6000803e3d6000fd5b505050506040513d6020811015612cfa57600080fd5b505160e08601516001600160781b03169063ffffffff613c7516565b613b72565b92505050915091565b60408051600180825281830190925260009160609190602080830190803883390190505090508281600081518110612d5857fe5b60200260200101906001600160a01b031690816001600160a01b0316815250506114b48161268b565b6040805180820190915260058152644c4c50544b60d81b602082015290565b60006001600160a01b038316612db557600080fd5b3360009081526004602090815260408083206001600160a01b038716845290915290205461176f908363ffffffff613c7516565b6000808811612e30576040805162461bcd60e51b815260206004820152600e60248201526d696e76616c696420766f6c756d6560901b604482015290519081900360640190fd5b612e398a613a26565b612e41615b5e565b600c8b6040518082805190602001908083835b60208310612e735780518252601f199092019160209182019101612e54565b51815160209384036101000a6000190180199092169116179052920194855250604080519485900382018520610140860190915280546001600160a01b03811686529093509084019150600160a01b900460ff166001811115612ed257fe5b6001811115612edd57fe5b815260018201546001600160781b03808216602080850191909152600160781b80840463ffffffff908116604080880191909152600160981b860482166060880152600160b81b909504166080860152600286015480841660a08701520490911660c084015260038401805483518184028101840190945280845260e0909401939091830182828015612fc157602002820191906000526020600020906000905b82829054906101000a90046001600160781b03166001600160781b0316815260200190600f0190602082600e01049283019260010382029150808411612f7e5790505b505050505081526020016004820180548060200260200160405190810160405280929190818152602001828054801561304b57602002820191906000526020600020906000905b82829054906101000a90046001600160781b03166001600160781b0316815260200190600f0190602082600e010492830192600103820291508084116130085790505b5050505050815250509050613067818b8b8a8c8b8b8b8b6150f0565b9950600860009054906101000a90046001600160a01b03166001600160a01b0316638c922b638c6040518263ffffffff1660e01b81526004018080602001828103825283818151815260200191508051906020019080838360005b838110156130da5781810151838201526020016130c2565b50505050905090810190601f1680156131075780820380516001836020036101000a031916815260200191505b509250505060206040518083038186803b15801561312457600080fd5b505afa158015613138573d6000803e3d6000fd5b505050506040513d602081101561314e57600080fd5b5051604080516370a0823160e01b8152306004820152905191935083916000916001600160a01b038416916370a0823191602480820192602092909190829003018186803b15801561319f57600080fd5b505afa1580156131b3573d6000803e3d6000fd5b505050506040513d60208110156131c957600080fd5b50519050808b11156131e6576131e182848d336152f1565b613262565b6040805163a9059cbb60e01b8152336004820152602481018d905290516001600160a01b0384169163a9059cbb9160448083019260209291908290030181600087803b15801561323557600080fd5b505af1158015613249573d6000803e3d6000fd5b505050506040513d602081101561325f57600080fd5b50505b604080518d8152602081018d9052815133926001600160a01b038816927f89f5adc174562e07c9c9b1cae7109bbecb21cf9d1b2847e550042b8653c54a0e929081900390910190a35050509998505050505050505050565b60006132c533612541565b8211156132d157600080fd5b6001600160a01b0383166132e457600080fd5b6132ee3383613c23565b6132f88383613c5c565b6117a0338484613cb7565b60008060006133216015546111e18789613b8890919063ffffffff16565b905061336b88888080601f01602080910402602001604051908101604052809392919081815260200183838082843760009201829052508b93508a92508991508690808980612de9565b98975050505050505050565b60105460095460408051630bbe4fd560e41b81529051600093926001600160a01b03169163bbe4fd50916004808301926020929190829003018186803b1580156133c057600080fd5b505afa1580156133d4573d6000803e3d6000fd5b505050506040513d60208110156133ea57600080fd5b50511015905090565b6000806133ff83613a26565b613407615b5e565b600c846040518082805190602001908083835b602083106134395780518252601f19909201916020918201910161341a565b51815160209384036101000a6000190180199092169116179052920194855250604080519485900382018520610140860190915280546001600160a01b03811686529093509084019150600160a01b900460ff16600181111561349857fe5b60018111156134a357fe5b815260018201546001600160781b03808216602080850191909152600160781b80840463ffffffff908116604080880191909152600160981b860482166060880152600160b81b909504166080860152600286015480841660a08701520490911660c084015260038401805483518184028101840190945280845260e090940193909183018282801561358757602002820191906000526020600020906000905b82829054906101000a90046001600160781b03166001600160781b0316815260200190600f0190602082600e010492830192600103820291508084116135445790505b505050505081526020016004820180548060200260200160405190810160405280929190818152602001828054801561361157602002820191906000526020600020906000905b82829054906101000a90046001600160781b03166001600160781b0316815260200190600f0190602082600e010492830192600103820291508084116135ce5790505b5050505050815250509050613627816000614968565b600854604051638c922b6360e01b81526020600482018181528851602484015288519497506000946001600160a01b0390941693638c922b63938a938392604490920191908501908083838b5b8381101561368c578181015183820152602001613674565b50505050905090810190601f1680156136b95780820380516001836020036101000a031916815260200191505b509250505060206040518083038186803b1580156136d657600080fd5b505afa1580156136ea573d6000803e3d6000fd5b505050506040513d602081101561370057600080fd5b50519050612d1b6137148684876000614b73565b6040805163d0acc58f60e01b81523060048201529051612d16916001600160a01b0386169163d0acc58f91602480820192602092909190829003018186803b15801561375f57600080fd5b505afa158015613773573d6000803e3d6000fd5b505050506040513d602081101561378957600080fd5b505160c08601516001600160781b03169063ffffffff613c7516565b428410156137fa576040805162461bcd60e51b815260206004820152600e60248201527f7065726d69742065787069726564000000000000000000000000000000000000604482015290519081900360640190fd5b6006546001600160a01b0380891660008181526005602090815260408083208054600180820190925582517f6e71edae12b1b97f4d1f60370fef10105fa2faae0126114a169c64845d6126c98186015280840196909652958d166060860152608085018c905260a085019590955260c08085018b90528151808603909101815260e08501825280519083012061190160f01b6101008601526101028501969096526101228085019690965280518085039096018652610142840180825286519683019690962095839052610162840180825286905260ff89166101828501526101a284018890526101c28401879052519193926101e280820193601f1981019281900390910190855afa158015613915573d6000803e3d6000fd5b5050604051601f1901519150506001600160a01b0381161580159061394b5750886001600160a01b0316816001600160a01b0316145b61399c576040805162461bcd60e51b815260206004820152601160248201527f696e76616c6964207369676e6174757265000000000000000000000000000000604482015290519081900360640190fd5b6139a78989896139de565b50505050505050505050565b6001600160a01b03918216600090815260046020908152604080832093909416825291909152205490565b60006001600160a01b0383166139f357600080fd5b6001600160a01b0380851660009081526004602090815260408083209387168352929052208290556114b0848484613f05565b60006001600160a01b0316600c826040518082805190602001908083835b60208310613a635780518252601f199092019160209182019101613a44565b51815160209384036101000a60001901801990921691161790529201948552506040519384900301909220546001600160a01b031692909214159150611ed89050576040805162461bcd60e51b815260206004820152601160248201527f696e76616c6964206f707453796d626f6c000000000000000000000000000000604482015290519081900360640190fd5b6000613afe8383614968565b90506000826001811115613b0e57fe5b14613b1c5780841115613b21565b808410155b6114b4576040805162461bcd60e51b815260206004820152601260248201527f696e73756666696369656e742070726963650000000000000000000000000000604482015290519081900360640190fd5b6000818310613b815781610c6a565b5090919050565b600082613b9757506000610c6d565b82820282848281613ba457fe5b0414610c6a5760405162461bcd60e51b8152600401808060200182810382526021815260200180615e726021913960400191505060405180910390fd5b6000610c6a83836040518060400160405280601a81526020017f536166654d6174683a206469766973696f6e206279207a65726f000000000000815250615507565b613c3c81613c3084612541565b9063ffffffff613c7516565b6001600160a01b0390921660009081526003602052604090209190915550565b613c3c81613c6984612541565b9063ffffffff613eab16565b6000610c6a83836040518060400160405280601e81526020017f536166654d6174683a207375627472616374696f6e206f766572666c6f7700008152506155a9565b816001600160a01b0316836001600160a01b03167fddf252ad1be2c89b69c2b068fc378daa952ba7f163c4a11628f55a4df523b3ef836040518082815260200191505060405180910390a3505050565b600d546001600160a01b03161580613d295750600d546001600160a01b031633145b613d7a576040805162461bcd60e51b815260206004820152601360248201527f756e617574686f72697a65642063616c6c657200000000000000000000000000604482015290519081900360640190fd5b565b6000805b8354811015613ea1578280519060200120848281548110613d9d57fe5b906000526020600020016040518082805460018160011615610100020316600290048015613e025780601f10613de0576101008083540402835291820191613e02565b820191906000526020600020905b815481529060010190602001808311613dee575b505091505060405180910390201415613e9957835484906000198101908110613e2757fe5b90600052602060002001848281548110613e3d57fe5b906000526020600020019080546001816001161561010002031660029004613e66929190615ce3565b5083805480613e7157fe5b600190038181906000526020600020016000613e8d9190615d58565b90556001915050610c6d565b600101613d80565b5060009392505050565b600082820183811015610c6a576040805162461bcd60e51b815260206004820152601b60248201527f536166654d6174683a206164646974696f6e206f766572666c6f770000000000604482015290519081900360640190fd5b816001600160a01b0316836001600160a01b03167f8c5be1e5ebec7d5bd14f71427d1e84f3dd0314c0f7b2291e5b200ac8c7c3b925836040518082815260200191505060405180910390a3505050565b600b54604080516323b872dd60e01b81523360048201526001600160a01b03928316602482015260448101849052905184928316916323b872dd9160648083019260209291908290030181600087803b158015613fb157600080fd5b505af1158015613fc5573d6000803e3d6000fd5b505050506040513d6020811015613fdb57600080fd5b5050600b54604080516334ef2a2160e21b81523060048201526001600160a01b038681166024830152604482018690529151919092169163d3bca88491606480830192600092919082900301818387803b15801561403857600080fd5b505af1158015611b89573d6000803e3d6000fd5b6000600160201b8210611e595760405162461bcd60e51b8152600401808060200182810382526026815260200180615eba6026913960400191505060405180910390fd5b60008282018183128015906140a55750838112155b806140ba57506000831280156140ba57508381125b610c6a5760405162461bcd60e51b8152600401808060200182810382526021815260200180615e0a6021913960400191505060405180910390fd5b6000610c6a61410b83600263ffffffff613be116565b83858161411457fe5b061015614122576000614125565b60015b60ff16613c69858563ffffffff613be116565b614140615603565b6001600160a01b0316633644e5156040518163ffffffff1660e01b815260040160206040518083038186803b15801561417857600080fd5b505afa15801561418c573d6000803e3d6000fd5b505050506040513d60208110156141a257600080fd5b505160065560408051631127a41d60e31b815290516001600160a01b0383169163893d20e8916004808301926020929190829003018186803b1580156141e757600080fd5b505afa1580156141fb573d6000803e3d6000fd5b505050506040513d602081101561421157600080fd5b5051600d80546001600160a01b0319166001600160a01b0392831617905560408051630110ceef60e21b8152602060048201819052600c60248301526b2a34b6b2a83937bb34b232b960a11b60448301529151928416926304433bbc92606480840193919291829003018186803b15801561428b57600080fd5b505afa15801561429f573d6000803e3d6000fd5b505050506040513d60208110156142b557600080fd5b5051600980546001600160a01b0319166001600160a01b0392831617905560408051630110ceef60e21b8152602060048201819052600f60248301527f4f7074696f6e7345786368616e6765000000000000000000000000000000000060448301529151928416926304433bbc92606480840193919291829003018186803b15801561434057600080fd5b505afa158015614354573d6000803e3d6000fd5b505050506040513d602081101561436a57600080fd5b5051600880546001600160a01b0319166001600160a01b0392831617905560408051630110ceef60e21b8152602060048201819052601060248301527f50726f746f636f6c53657474696e67730000000000000000000000000000000060448301529151928416926304433bbc92606480840193919291829003018186803b1580156143f557600080fd5b505afa158015614409573d6000803e3d6000fd5b505050506040513d602081101561441f57600080fd5b5051600a80546001600160a01b0319166001600160a01b0392831617905560408051630110ceef60e21b8152602060048201819052600e60248301527f43726564697450726f766964657200000000000000000000000000000000000060448301529151928416926304433bbc92606480840193919291829003018186803b1580156144aa57600080fd5b505afa1580156144be573d6000803e3d6000fd5b505050506040513d60208110156144d457600080fd5b5051600b80546001600160a01b0319166001600160a01b03928316179055670de0b6b3a7640000601355633b9aca006014556008546040805163a53b004160e01b81529051919092169163a53b0041916004808301926020929190829003018186803b15801561454357600080fd5b505afa158015614557573d6000803e3d6000fd5b505050506040513d602081101561456d57600080fd5b505160155550633b9aca00601655565b6000600160781b8210611e595760405162461bcd60e51b8152600401808060200182810382526027815260200180615de36027913960400191505060405180910390fd5b600080601260018503815481106145d457fe5b6000918252602082206003909102015460125463ffffffff9091169250851061467657600960009054906101000a90046001600160a01b03166001600160a01b031663bbe4fd506040518163ffffffff1660e01b815260040160206040518083038186803b15801561464557600080fd5b505afa158015614659573d6000803e3d6000fd5b505050506040513d602081101561466f57600080fd5b505161469b565b6012858154811061468357fe5b600091825260209091206003909102015463ffffffff165b905060006146f4601260018803815481106146b257fe5b906000526020600020906003020160010154601260018903815481106146d457fe5b906000526020600020906003020160020154613eab90919063ffffffff16565b601254909150600090871061480257600854604080516370a0823160e01b815230600482015290516147fd926001600160a01b0316916370a08231916024808301926020929190829003018186803b15801561474f57600080fd5b505afa158015614763573d6000803e3d6000fd5b505050506040513d602081101561477957600080fd5b50516008546040805162b08c1d60e21b815230600482015290516001600160a01b03909216916302c2307491602480820192602092909190829003018186803b1580156147c557600080fd5b505afa1580156147d9573d6000803e3d6000fd5b505050506040513d60208110156147ef57600080fd5b50519063ffffffff61409016565b614822565b6012878154811061480f57fe5b9060005260206000209060030201600101545b90506148498261483d6016548461561290919063ffffffff16565b9063ffffffff6156bb16565b94508386111561488c576148898561488161486a868863ffffffff613c7516565b6016546111e190611a58898d63ffffffff613c7516565b601654615773565b94505b5050505092915050565b6000806148a283612541565b91508115614955576103e86148da6148d4866111e16148c7878663ffffffff613b8816565b8a9063ffffffff613b8816565b826140f5565b600854604080516356a6d9ef60e01b81526001600160a01b0388811660048301526024820185905291519395509116916356a6d9ef9160448082019260009290919082900301818387803b15801561493157600080fd5b505af1158015614945573d6000803e3d6000fd5b505050506149538484613c23565b505b61496083838361583f565b935093915050565b6000808083600181111561497857fe5b1461499757600e546016546149929163ffffffff613c7516565b6149ac565b601654600e546149ac9163ffffffff613eab16565b90506000806149ba86615844565b915091506000600960009054906101000a90046001600160a01b03166001600160a01b031663bbe4fd506040518163ffffffff1660e01b815260040160206040518083038186803b158015614a0e57600080fd5b505afa158015614a22573d6000803e3d6000fd5b505050506040513d6020811015614a3857600080fd5b5051608088015160a0890151919250600091614a619163ffffffff9182169190811690613c7516565b9050876080015163ffffffff168210158015614a8757508760a0015163ffffffff168211155b614ad8576040805162461bcd60e51b815260206004820152601a60248201527f696e76616c69642070726963696e6720706172616d6574657273000000000000604482015290519081900360640190fd5b6000614af7896080015163ffffffff1684613c7590919063ffffffff16565b90506000614b088a60008888615975565b90506000614b1e8b8c6101000151518989615975565b9050614b64846111e16016546111e18c611a58614b54614b47898b613c7590919063ffffffff16565b8b9063ffffffff613b8816565b613c308a8d63ffffffff613b8816565b9b9a5050505050505050505050565b600080614b7e612813565b90506000614b99600f54601654613c7590919063ffffffff16565b600854875160155460208a01516040808c015160608d01519151635a1a74eb60e11b81526001600160a01b03868116600483019081526024830187905298995060009897169663b434e9d69695949391604401846001811115614bf857fe5b60ff168152602001836001600160781b031681526020018263ffffffff1681526020019550505050505060206040518083038186803b158015614c3a57600080fd5b505afa158015614c4e573d6000803e3d6000fd5b505050506040513d6020811015614c6457600080fd5b505190506000856001811115614c7657fe5b1415614cd45785811115614cc957614cc4614cb0614ca36016546111e1868b613b8890919063ffffffff16565b839063ffffffff613c7516565b6015546111e190869063ffffffff613b8816565b614ccd565b6000195b93506150e5565b600854604080516370a0823160e01b815230600482015290516000926001600160a01b0316916370a08231916024808301926020929190829003018186803b158015614d1f57600080fd5b505afa158015614d33573d6000803e3d6000fd5b505050506040513d6020811015614d4957600080fd5b5051600854604080516352fee2ef60e11b815230600482015290519293506000926001600160a01b039092169163a5fdc5de91602480820192602092909190829003018186803b158015614d9c57600080fd5b505afa158015614db0573d6000803e3d6000fd5b505050506040513d6020811015614dc657600080fd5b810190808051906020019092919050505090506000614f4684600860009054906101000a90046001600160a01b03166001600160a01b0316638c922b638e6040518263ffffffff1660e01b81526004018080602001828103825283818151815260200191508051906020019080838360005b83811015614e50578181015183820152602001614e38565b50505050905090810190601f168015614e7d5780820380516001836020036101000a031916815260200191505b509250505060206040518083038186803b158015614e9a57600080fd5b505afa158015614eae573d6000803e3d6000fd5b505050506040513d6020811015614ec457600080fd5b50516040805163d0acc58f60e01b815230600482015290516001600160a01b039092169163d0acc58f91602480820192602092909190829003018186803b158015614f0e57600080fd5b505afa158015614f22573d6000803e3d6000fd5b505050506040513d6020811015614f3857600080fd5b50519063ffffffff613b8816565b9050808211614f56576000614f66565b614f66828263ffffffff613c7516565b91506000600860009054906101000a90046001600160a01b03166001600160a01b03166383a7e7e18c600001518d602001518e604001518f606001516040518563ffffffff1660e01b815260040180856001600160a01b03166001600160a01b03168152602001846001811115614fd957fe5b60ff168152602001836001600160781b031681526020018263ffffffff16815260200194505050505060206040518083038186803b15801561501a57600080fd5b505afa15801561502e573d6000803e3d6000fd5b505050506040513d602081101561504457600080fd5b50519050808a1115615097576150926150638b8363ffffffff613c7516565b6111e1601554611a586150858b6111e16016548b613b8890919063ffffffff16565b899063ffffffff613c7516565b61509b565b6000195b97506150bf886150ba8c6111e160155489613b8890919063ffffffff16565b615a9a565b97506150de88612d168c6111e160155489613b8890919063ffffffff16565b9750505050505b505050949350505050565b60006150fe898b6000613af2565b9850600061511b6015546111e18b8d613b8890919063ffffffff16565b6008549091506001600160a01b0388811691161461527057600a5460408051632a6f500560e11b81526001600160a01b038a81166004830152825160009485949216926354dea00a926024808301939192829003018186803b15801561518057600080fd5b505afa158015615194573d6000803e3d6000fd5b505050506040513d60408110156151aa57600080fd5b50805160209091015190925090508715615249576040805163d505accf60e01b8152336004820152306024820152604481018c9052606481018a905260ff8916608482015260a4810188905260c4810187905290516001600160a01b038b169163d505accf9160e480830192600092919082900301818387803b15801561523057600080fd5b505af1158015615244573d6000803e3d6000fd5b505050505b61525d816111e1858563ffffffff613b8816565b92506152698984613f55565b50506152e2565b600854604080516353035ca560e11b81523360048201523060248201526044810184905290516001600160a01b039092169163a606b94a9160648082019260009290919082900301818387803b1580156152c957600080fd5b505af11580156152dd573d6000803e3d6000fd5b505050505b50979998505050505050505050565b6040805163d0acc58f60e01b815230600482015290516000916001600160a01b0387169163d0acc58f91602480820192602092909190829003018186803b15801561533b57600080fd5b505afa15801561534f573d6000803e3d6000fd5b505050506040513d602081101561536557600080fd5b505160c08501519091506001600160781b0316615388828563ffffffff613eab16565b11156153ce576040805162461bcd60e51b815260206004820152601060248201526f65786365737369766520766f6c756d6560801b604482015290519081900360640190fd5b600854845160208601516040808801516060890151915163169a737360e31b81526001600160a01b0385811660048301908152602483018b905296169563b4d39b9895948a9490939290918a9160440185600181111561542a57fe5b60ff168152602001846001600160781b031681526020018363ffffffff168152602001826001600160a01b03166001600160a01b031681526020019650505050505050602060405180830381600087803b15801561548757600080fd5b505af115801561549b573d6000803e3d6000fd5b505050506040513d60208110156154b157600080fd5b50600090506154be612813565b11610c35576040805162461bcd60e51b8152602060048201526014602482015273706f6f6c2062616c616e636520746f6f206c6f7760601b604482015290519081900360640190fd5b600081836155935760405162461bcd60e51b81526004018080602001828103825283818151815260200191508051906020019080838360005b83811015615558578181015183820152602001615540565b50505050905090810190601f1680156155855780820380516001836020036101000a031916815260200191505b509250505060405180910390fd5b50600083858161559f57fe5b0495945050505050565b600081848411156155fb5760405162461bcd60e51b8152602060048201818152835160248401528351909283926044909101919085019080838360008315615558578181015183820152602001615540565b505050900390565b6002546001600160a01b031690565b60008261562157506000610c6d565b826000191480156156355750600160ff1b82145b156156715760405162461bcd60e51b8152600401808060200182810382526027815260200180615e936027913960400191505060405180910390fd5b8282028284828161567e57fe5b0514610c6a5760405162461bcd60e51b8152600401808060200182810382526027815260200180615e936027913960400191505060405180910390fd5b60008161570f576040805162461bcd60e51b815260206004820181905260248201527f5369676e6564536166654d6174683a206469766973696f6e206279207a65726f604482015290519081900360640190fd5b816000191480156157235750600160ff1b83145b1561575f5760405162461bcd60e51b8152600401808060200182810382526021815260200180615e516021913960400191505060405180910390fd5b600082848161576a57fe5b05949350505050565b6000826157815750806114b4565b818311156157b1576157aa826111e1612659876157a4888563ffffffff613c7516565b87615773565b90506114b4565b508080600085816157c184615aa9565b90505b6001841115615834576157de84600263ffffffff613be116565b93506157ed81611a5884615aa9565b915086615800848663ffffffff613eab16565b101561582f57615816838563ffffffff613eab16565b925061582c866111e1878563ffffffff613b8816565b94505b6157c4565b505050509392505050565b505050565b6000806000836000015190506000816001600160a01b0316638e15f4736040518163ffffffff1660e01b8152600401604080518083038186803b15801561588a57600080fd5b505afa15801561589e573d6000803e3d6000fd5b505050506040513d60408110156158b457600080fd5b50602001516000945092508290505b8285610100015185815181106158d557fe5b60200260200101516001600160781b03161080156158f857508461010001515184105b15615908576001909301926158c3565b60008411801561591d57508461010001515184105b61596e576040805162461bcd60e51b815260206004820152601a60248201527f696e76616c69642070726963696e6720706172616d6574657273000000000000604482015290519081900360640190fd5b5050915091565b600080615988858563ffffffff613eab16565b90506000866101200151828151811061599d57fe5b60200260200101516001600160781b03169050600087610120015160018403815181106159c657fe5b60200260200101516001600160781b0316905061336b81615a8e615a388b610100015160018b03815181106159f757fe5b60200260200101516001600160781b03168c61010001518b81518110615a1957fe5b60200260200101516001600160781b0316615af990919063ffffffff16565b61483d615a728d610100015160018d0381518110615a5257fe5b60200260200101516001600160781b03168b613c7590919063ffffffff16565b615a82888863ffffffff615af916565b9063ffffffff61561216565b9063ffffffff61409016565b6000818311613b815781610c6a565b600080615ac260026111e185600163ffffffff613eab16565b90508291505b81811015615af357905080615aec60026111e183613c69878263ffffffff613be116565b9050615ac8565b50919050565b6000818303818312801590615b0e5750838113155b80615b235750600083128015615b2357508381135b610c6a5760405162461bcd60e51b8152600401808060200182810382526024815260200180615ee06024913960400191505060405180910390fd5b6040805161014081019091526000808252602082019081526000602082018190526040820181905260608083018290526080830182905260a0830182905260c083019190915260e082018190526101009091015290565b82805482825590600052602060002090600101600290048101928215615c5d5791602002820160005b83821115615c2857835183826101000a8154816001600160781b0302191690836001600160781b031602179055509260200192600f01602081600e01049283019260010302615bde565b8015615c5b5782816101000a8154906001600160781b030219169055600f01602081600e01049283019260010302615c28565b505b50611e59929150615d9c565b828054600181600116156101000203166002900490600052602060002090601f016020900481019282601f10615caa57805160ff1916838001178555615cd7565b82800160010185558215615cd7579182015b82811115615cd7578251825591602001919060010190615cbc565b50611e59929150615dc8565b828054600181600116156101000203166002900490600052602060002090601f016020900481019282601f10615d1c5780548555615cd7565b82800160010185558215615cd757600052602060002091601f016020900482015b82811115615cd7578254825591600101919060010190615d3d565b50805460018160011615610100020316600290046000825580601f10615d7e5750611ed8565b601f016020900490600052602060002090810190611ed89190615dc8565b610c5a91905b80821115611e595780546effffffffffffffffffffffffffffff19168155600101615da2565b610c5a91905b80821115611e595760008155600101615dce56fe53616665436173743a2076616c756520646f65736e27742066697420696e2031323020626974735369676e6564536166654d6174683a206164646974696f6e206f766572666c6f774c696e656172204c697175696469747920506f6f6c2052656465656d61626c6520546f6b656e5369676e6564536166654d6174683a206469766973696f6e206f766572666c6f77536166654d6174683a206d756c7469706c69636174696f6e206f766572666c6f775369676e6564536166654d6174683a206d756c7469706c69636174696f6e206f766572666c6f7753616665436173743a2076616c756520646f65736e27742066697420696e20333220626974735369676e6564536166654d6174683a207375627472616374696f6e206f766572666c6f77a26469706673582212207a8a403ef94443f4a8129949ecbd94e8584a558a00980f86c6f644f01b54ee8364736f6c634300060000334c696e656172204c697175696469747920506f6f6c2052656465656d61626c6520546f6b656e454950373132446f6d61696e28737472696e67206e616d652c737472696e672076657273696f6e2c75696e7432353620636861696e49642c6164647265737320766572696679696e67436f6e747261637429",
  "source": "pragma solidity >=0.6.0;\n\nimport \"../deployment/ManagedContract.sol\";\nimport \"../finance/RedeemableToken.sol\";\nimport \"../governance/ProtocolSettings.sol\";\nimport \"../interfaces/TimeProvider.sol\";\nimport \"../interfaces/LiquidityPool.sol\";\nimport \"../interfaces/UnderlyingFeed.sol\";\nimport \"../utils/ERC20.sol\";\nimport \"../utils/MoreMath.sol\";\nimport \"../utils/SafeCast.sol\";\nimport \"../utils/SafeMath.sol\";\nimport \"../utils/SignedSafeMath.sol\";\n\ncontract LinearLiquidityPool is LiquidityPool, ManagedContract, RedeemableToken {\n\n    using SafeCast for uint;\n    using SafeMath for uint;\n    using SignedSafeMath for int;\n\n    enum Operation { BUY, SELL }\n\n    struct PricingParameters {\n        address udlFeed;\n        OptionsExchange.OptionType optType;\n        uint120 strike;\n        uint32 maturity;\n        uint32 t0;\n        uint32 t1;\n        uint120 buyStock;\n        uint120 sellStock;\n        uint120[] x;\n        uint120[] y;\n    }\n\n    struct Deposit {\n        uint32 date;\n        uint balance;\n        uint value;\n    }\n\n    TimeProvider private time;\n    ProtocolSettings private settings;\n    CreditProvider private creditProvider;\n\n    mapping(string => PricingParameters) private parameters;\n\n    string private constant _name = \"Linear Liquidity Pool Redeemable Token\";\n    string private constant _symbol = \"LLPTK\";\n\n    address private owner;\n    uint private spread;\n    uint private reserveRatio;\n    uint private _maturity;\n    string[] private optSymbols;\n    Deposit[] private deposits;\n\n    uint private timeBase;\n    uint private sqrtTimeBase;\n    uint private volumeBase;\n    uint private fractionBase;\n\n    constructor() ERC20(_name) public {\n        \n    }\n\n    function initialize(Deployer deployer) override internal {\n\n        DOMAIN_SEPARATOR = ERC20(getImplementation()).DOMAIN_SEPARATOR();\n\n        owner = deployer.getOwner();\n        time = TimeProvider(deployer.getContractAddress(\"TimeProvider\"));\n        exchange = OptionsExchange(deployer.getContractAddress(\"OptionsExchange\"));\n        settings = ProtocolSettings(deployer.getContractAddress(\"ProtocolSettings\"));\n        creditProvider = CreditProvider(deployer.getContractAddress(\"CreditProvider\"));\n\n        timeBase = 1e18;\n        sqrtTimeBase = 1e9;\n        volumeBase = exchange.volumeBase();\n        fractionBase = 1e9;\n    }\n\n    function name() override external view returns (string memory) {\n        return _name;\n    }\n\n    function symbol() override external view returns (string memory) {\n        return _symbol;\n    }\n\n    function setParameters(\n        uint _spread,\n        uint _reserveRatio,\n        uint _mt\n    )\n        external\n    {\n        ensureCaller();\n        spread = _spread;\n        reserveRatio = _reserveRatio;\n        _maturity = _mt;\n    }\n\n    function redeemAllowed() override public view returns (bool) {\n        \n        return time.getNow() >= _maturity;\n    }\n\n    function maturity() override external view returns (uint) {\n        \n        return _maturity;\n    }\n\n    function yield(uint dt) override external view returns (uint y) {\n        \n        y = fractionBase;\n\n        if (deposits.length > 0) {\n            \n            uint _now = time.getNow();\n            uint start = _now.sub(dt);\n            \n            uint i = 0;\n            for (i = 0; i < deposits.length; i++) {\n                if (deposits[i].date > start) {\n                    break;\n                }\n            }\n\n            for (; i <= deposits.length; i++) {\n                if (i > 0) {\n                    y = y.mul(calcYield(i, start)).div(fractionBase);\n                }\n            }\n        }\n    }\n\n    function addSymbol(\n        address udlFeed,\n        uint strike,\n        uint _mt,\n        OptionsExchange.OptionType optType,\n        uint t0,\n        uint t1,\n        uint120[] calldata x,\n        uint120[] calldata y,\n        uint buyStock,\n        uint sellStock\n    )\n        external\n    {\n        ensureCaller();\n        require(_mt < _maturity, \"invalid maturity\");\n        require(x.length > 0 && x.length.mul(2) == y.length, \"invalid pricing surface\");\n\n        string memory optSymbol = exchange.getOptionSymbol(\n            udlFeed,\n            optType,\n            strike,\n            _mt\n        );\n\n        if (parameters[optSymbol].x.length == 0) {\n            optSymbols.push(optSymbol);\n        }\n\n        parameters[optSymbol] = PricingParameters(\n            udlFeed,\n            optType,\n            strike.toUint120(),\n            _mt.toUint32(),\n            t0.toUint32(),\n            t1.toUint32(),\n            buyStock.toUint120(),\n            sellStock.toUint120(),\n            x,\n            y\n        );\n\n        emit AddSymbol(optSymbol);\n    }\n    \n    function removeSymbol(string calldata optSymbol) external {\n\n        ensureCaller();\n        PricingParameters memory empty;\n        parameters[optSymbol] = empty;\n        Arrays.removeItem(optSymbols, optSymbol);\n        emit RemoveSymbol(optSymbol);\n    }\n\n    function depositTokens(\n        address to,\n        address token,\n        uint value,\n        uint deadline,\n        uint8 v,\n        bytes32 r,\n        bytes32 s\n    )\n        override\n        external\n    {\n        ERC20(token).permit(msg.sender, address(this), value, deadline, v, r, s);\n        depositTokens(to, token, value);\n    }\n\n    function depositTokens(address to, address token, uint value) override public {\n\n        uint b0 = exchange.balanceOf(address(this));\n        depositTokensInExchange(token, value);\n        uint b1 = exchange.balanceOf(address(this));\n        int po = exchange.calcExpectedPayout(address(this));\n        \n        deposits.push(\n            Deposit(time.getNow().toUint32(), uint(int(b0).add(po)), b1.sub(b0))\n        );\n\n        uint ts = _totalSupply;\n        int expBal = po.add(int(b1));\n        uint p = b1.sub(b0).mul(fractionBase).div(uint(expBal));\n\n        uint b = 1e3;\n        uint v = ts > 0 ?\n            ts.mul(p).mul(b).div(fractionBase.sub(p)) : \n            uint(expBal).mul(b);\n        v = MoreMath.round(v, b);\n\n        addBalance(to, v);\n        _totalSupply = ts.add(v);\n        emitTransfer(address(0), to, v);\n    }\n\n    function calcFreeBalance() public view returns (uint balance) {\n\n        uint exBal = exchange.balanceOf(address(this));\n        uint reserve = exBal.mul(reserveRatio).div(fractionBase);\n        uint sp = exBal.sub(exchange.collateral(address(this)));\n        balance = sp > reserve ? sp.sub(reserve) : 0;\n    }\n    \n    function listSymbols() override external view returns (string memory available) {\n\n        for (uint i = 0; i < optSymbols.length; i++) {\n            if (parameters[optSymbols[i]].maturity > time.getNow()) {\n                if (bytes(available).length == 0) {\n                    available = optSymbols[i];\n                } else {\n                    available = string(abi.encodePacked(available, \"\\n\", optSymbols[i]));\n                }\n            }\n        }\n    }\n\n    function queryBuy(string memory optSymbol)\n        override\n        public\n        view\n        returns (uint price, uint volume)\n    {\n        ensureValidSymbol(optSymbol);\n        PricingParameters memory param = parameters[optSymbol];\n        price = calcOptPrice(param, Operation.BUY);\n        address _tk = exchange.resolveToken(optSymbol);\n        volume = MoreMath.min(\n            calcVolume(optSymbol, param, price, Operation.BUY),\n            uint(param.buyStock).sub(OptionToken(_tk).writtenVolume(address(this)))\n        );\n    }\n\n    function querySell(string memory optSymbol)\n        override\n        public\n        view\n        returns (uint price, uint volume)\n    {    \n        ensureValidSymbol(optSymbol);\n        PricingParameters memory param = parameters[optSymbol];\n        price = calcOptPrice(param, Operation.SELL);\n        address _tk = exchange.resolveToken(optSymbol);\n        volume = MoreMath.min(\n            calcVolume(optSymbol, param, price, Operation.SELL),\n            uint(param.sellStock).sub(OptionToken(_tk).balanceOf(address(this)))\n        );\n    }\n    \n    function buy(\n        string memory optSymbol,\n        uint price,\n        uint volume,\n        address token,\n        uint maxValue,\n        uint deadline,\n        uint8 v,\n        bytes32 r,\n        bytes32 s\n    )\n        override\n        public\n        returns (address _tk)\n    {\n        require(volume > 0, \"invalid volume\");\n        ensureValidSymbol(optSymbol);\n\n        PricingParameters memory param = parameters[optSymbol];\n        price = receivePayment(param, price, volume, maxValue, token, deadline, v, r, s);\n\n        _tk = exchange.resolveToken(optSymbol);\n        OptionToken tk = OptionToken(_tk);\n        uint _holding = tk.balanceOf(address(this));\n\n        if (volume > _holding) {\n            writeOptions(tk, param, volume, msg.sender);\n        } else {\n            tk.transfer(msg.sender, volume);\n        }\n\n        emit Buy(_tk, msg.sender, price, volume);\n    }\n\n    function buy(string calldata optSymbol, uint price, uint volume, address token)\n        override\n        external\n        returns (address _tk)\n    {\n        bytes32 x;\n        uint maxValue = price.mul(volume).div(volumeBase);\n        _tk = buy(optSymbol, price, volume, token, maxValue, 0, 0, x, x);\n    }\n\n    function sell(\n        string memory optSymbol,\n        uint price,\n        uint volume,\n        uint deadline,\n        uint8 v,\n        bytes32 r,\n        bytes32 s\n    )\n        override\n        public\n    {\n        require(volume > 0, \"invalid volume\");\n        ensureValidSymbol(optSymbol);\n\n        PricingParameters memory param = parameters[optSymbol];\n        price = validatePrice(price, param, Operation.SELL);\n\n        address _tk = exchange.resolveToken(optSymbol);\n        OptionToken tk = OptionToken(_tk);\n        if (deadline > 0) {\n            tk.permit(msg.sender, address(this), volume, deadline, v, r, s);\n        }\n        tk.transferFrom(msg.sender, address(this), volume);\n        \n        uint _written = tk.writtenVolume(address(this));\n        if (_written > 0) {\n            uint toBurn = MoreMath.min(_written, volume);\n            tk.burn(toBurn);\n        }\n\n        uint value = price.mul(volume).div(volumeBase);\n        exchange.transferBalance(msg.sender, value);\n        \n        require(calcFreeBalance() > 0, \"pool balance too low\");\n\n        uint _holding = tk.balanceOf(address(this));\n        require(_holding <= param.sellStock, \"excessive volume\");\n\n        emit Sell(_tk, msg.sender, price, volume);\n    }\n\n    function sell(string calldata optSymbol, uint price, uint volume) override external {\n        \n        bytes32 x;\n        sell(optSymbol, price, volume, 0, 0, x, x);\n    }\n\n    function receivePayment(\n        PricingParameters memory param,\n        uint price,\n        uint volume,\n        uint maxValue,\n        address token,\n        uint deadline,\n        uint8 v,\n        bytes32 r,\n        bytes32 s\n    )\n        private\n        returns (uint)\n    {\n        price = validatePrice(price, param, Operation.BUY);\n        uint value = price.mul(volume).div(volumeBase);\n\n        if (token != address(exchange)) {\n            (uint tv, uint tb) = settings.getTokenRate(token);\n            if (deadline > 0) {\n                ERC20(token).permit(msg.sender, address(this), maxValue, deadline, v, r, s);\n            }\n            value = value.mul(tv).div(tb);\n            depositTokensInExchange(token, value);\n        } else {\n            exchange.transferBalance(msg.sender, address(this), value);\n        }\n\n        return price;\n    }\n\n    function validatePrice(\n        uint price, \n        PricingParameters memory param, \n        Operation op\n    ) \n        private\n        view\n        returns (uint p) \n    {\n        p = calcOptPrice(param, op);\n        require(\n            op == Operation.BUY ? price >= p : price <= p,\n            \"insufficient price\"\n        );\n    }\n\n    function writeOptions(\n        OptionToken tk,\n        PricingParameters memory param,\n        uint volume,\n        address to\n    )\n        private\n    {\n        uint _written = tk.writtenVolume(address(this));\n        require(_written.add(volume) <= param.buyStock, \"excessive volume\");\n\n        exchange.writeOptions(\n            param.udlFeed,\n            volume,\n            param.optType,\n            param.strike,\n            param.maturity,\n            to\n        );\n        \n        require(calcFreeBalance() > 0, \"pool balance too low\");\n    }\n\n    function calcOptPrice(PricingParameters memory p, Operation op)\n        private\n        view\n        returns (uint price)\n    {\n        uint f = op == Operation.BUY ? spread.add(fractionBase) : fractionBase.sub(spread);\n        \n        (uint j, uint xp) = findUdlPrice(p);\n\n        uint _now = time.getNow();\n        uint dt = uint(p.t1).sub(uint(p.t0));\n        require(_now >= p.t0 && _now <= p.t1, \"invalid pricing parameters\");\n        uint t = _now.sub(p.t0);\n        uint p0 = calcOptPriceAt(p, 0, j, xp);\n        uint p1 = calcOptPriceAt(p, p.x.length, j, xp);\n\n        price = p0.mul(dt).sub(\n            t.mul(p0.sub(p1))\n        ).mul(f).div(fractionBase).div(dt);\n    }\n\n    function findUdlPrice(PricingParameters memory p) private view returns (uint j, uint xp) {\n\n        UnderlyingFeed feed = UnderlyingFeed(p.udlFeed);\n        (,int udlPrice) = feed.getLatestPrice();\n        \n        j = 0;\n        xp = uint(udlPrice);\n        while (p.x[j] < xp && j < p.x.length) {\n            j++;\n        }\n        require(j > 0 && j < p.x.length, \"invalid pricing parameters\");\n    }\n\n    function calcOptPriceAt(\n        PricingParameters memory p,\n        uint offset,\n        uint j,\n        uint xp\n    )\n        private\n        pure\n        returns (uint price)\n    {\n        uint k = offset.add(j);\n        int yA = int(p.y[k]);\n        int yB = int(p.y[k - 1]);\n        price = uint(\n            yA.sub(yB).mul(\n                int(xp.sub(p.x[j - 1]))\n            ).div(\n                int(p.x[j]).sub(int(p.x[j - 1]))\n            ).add(yB)\n        );\n    }\n\n    function calcVolume(\n        string memory optSymbol,\n        PricingParameters memory p,\n        uint price,\n        Operation op\n    )\n        private\n        view\n        returns (uint volume)\n    {\n        uint fb = calcFreeBalance();\n        uint r = fractionBase.sub(reserveRatio);\n\n        uint coll = exchange.calcCollateral(\n            p.udlFeed,\n            volumeBase,\n            p.optType,\n            p.strike,\n            p.maturity\n        );\n\n        if (op == Operation.BUY) {\n\n            volume = coll <= price ? uint(-1) :\n                fb.mul(volumeBase).div(\n                    coll.sub(price.mul(r).div(fractionBase))\n                );\n\n        } else {\n\n            uint bal = exchange.balanceOf(address(this));\n\n            uint poolColl = exchange.collateral(address(this));\n\n            uint writtenColl = OptionToken(\n                exchange.resolveToken(optSymbol)\n            ).writtenVolume(address(this)).mul(coll);\n\n            poolColl = poolColl > writtenColl ? poolColl.sub(writtenColl) : 0;\n            \n            uint iv = uint(exchange.calcIntrinsicValue(\n                p.udlFeed,\n                p.optType,\n                p.strike,\n                p.maturity\n            ));\n\n            volume = price <= iv ? uint(-1) :\n                bal.sub(poolColl.mul(fractionBase).div(r)).mul(volumeBase).div(\n                    price.sub(iv)\n                );\n\n            volume = MoreMath.max(\n                volume, \n                bal.mul(volumeBase).div(price)\n            );\n\n            volume = MoreMath.min(\n                volume, \n                bal.mul(volumeBase).div(price)\n            );\n        }\n    }\n\n    function calcYield(uint index, uint start) private view returns (uint y) {\n\n        uint t0 = deposits[index - 1].date;\n        uint t1 = index < deposits.length ?\n            deposits[index].date : time.getNow();\n\n        int v0 = int(deposits[index - 1].value.add(deposits[index - 1].balance));\n        int v1 = index < deposits.length ? \n            int(deposits[index].balance) :\n            exchange.calcExpectedPayout(address(this)).add(int(exchange.balanceOf(address(this))));\n\n        y = uint(v1.mul(int(fractionBase)).div(v0));\n        if (start > t0) {\n            y = MoreMath.powDecimal(\n                y, \n                (t1.sub(start)).mul(fractionBase).div(t1.sub(t0)), \n                fractionBase\n            );\n        }\n    }\n\n    function depositTokensInExchange(address token, uint value) private {\n        \n        ERC20 t = ERC20(token);\n        t.transferFrom(msg.sender, address(creditProvider), value);\n        creditProvider.addBalance(address(this), token, value);\n    }\n\n    function ensureValidSymbol(string memory optSymbol) private view {\n\n        require(parameters[optSymbol].udlFeed !=  address(0), \"invalid optSymbol\");\n    }\n\n    function ensureCaller() private view {\n\n        require(owner == address(0) || msg.sender == owner, \"unauthorized caller\");\n    }\n}",
  "sourcePath": "/Users/dev/Documents/coding/defioptions/DeFiOptions-contracts/contracts/pools/LinearLiquidityPool.sol",
  "compiler": {
    "name": "solc",
    "version": "0.6.0+commit.26b70077.Emscripten.clang"
  },
  "schemaVersion": "3.3.3",
  "updatedAt": "2021-05-10T21:18:51.475Z",
  "devdoc": {
    "methods": {}
  },
  "userdoc": {
    "methods": {}
  }
}