{
  "contractName": "LinearLiquidityPool",
  "abi": [
    {
      "inputs": [],
      "stateMutability": "nonpayable",
      "type": "constructor"
    },
    {
      "anonymous": false,
      "inputs": [
        {
          "indexed": false,
          "internalType": "string",
          "name": "optSymbol",
          "type": "string"
        }
      ],
      "name": "AddSymbol",
      "type": "event"
    },
    {
      "anonymous": false,
      "inputs": [
        {
          "indexed": true,
          "internalType": "address",
          "name": "owner",
          "type": "address"
        },
        {
          "indexed": true,
          "internalType": "address",
          "name": "spender",
          "type": "address"
        },
        {
          "indexed": false,
          "internalType": "uint256",
          "name": "value",
          "type": "uint256"
        }
      ],
      "name": "Approval",
      "type": "event"
    },
    {
      "anonymous": false,
      "inputs": [
        {
          "indexed": true,
          "internalType": "address",
          "name": "token",
          "type": "address"
        },
        {
          "indexed": true,
          "internalType": "address",
          "name": "buyer",
          "type": "address"
        },
        {
          "indexed": false,
          "internalType": "uint256",
          "name": "price",
          "type": "uint256"
        },
        {
          "indexed": false,
          "internalType": "uint256",
          "name": "volume",
          "type": "uint256"
        }
      ],
      "name": "Buy",
      "type": "event"
    },
    {
      "anonymous": false,
      "inputs": [
        {
          "indexed": false,
          "internalType": "string",
          "name": "optSymbol",
          "type": "string"
        }
      ],
      "name": "RemoveSymbol",
      "type": "event"
    },
    {
      "anonymous": false,
      "inputs": [
        {
          "indexed": true,
          "internalType": "address",
          "name": "token",
          "type": "address"
        },
        {
          "indexed": true,
          "internalType": "address",
          "name": "seller",
          "type": "address"
        },
        {
          "indexed": false,
          "internalType": "uint256",
          "name": "price",
          "type": "uint256"
        },
        {
          "indexed": false,
          "internalType": "uint256",
          "name": "volume",
          "type": "uint256"
        }
      ],
      "name": "Sell",
      "type": "event"
    },
    {
      "anonymous": false,
      "inputs": [
        {
          "indexed": true,
          "internalType": "address",
          "name": "from",
          "type": "address"
        },
        {
          "indexed": true,
          "internalType": "address",
          "name": "to",
          "type": "address"
        },
        {
          "indexed": false,
          "internalType": "uint256",
          "name": "value",
          "type": "uint256"
        }
      ],
      "name": "Transfer",
      "type": "event"
    },
    {
      "inputs": [],
      "name": "DOMAIN_SEPARATOR",
      "outputs": [
        {
          "internalType": "bytes32",
          "name": "",
          "type": "bytes32"
        }
      ],
      "stateMutability": "view",
      "type": "function"
    },
    {
      "inputs": [],
      "name": "PERMIT_TYPEHASH",
      "outputs": [
        {
          "internalType": "bytes32",
          "name": "",
          "type": "bytes32"
        }
      ],
      "stateMutability": "view",
      "type": "function"
    },
    {
      "inputs": [
        {
          "internalType": "address",
          "name": "udlFeed",
          "type": "address"
        },
        {
          "internalType": "uint256",
          "name": "strike",
          "type": "uint256"
        },
        {
          "internalType": "uint256",
          "name": "_mt",
          "type": "uint256"
        },
        {
          "internalType": "enum OptionsExchange.OptionType",
          "name": "optType",
          "type": "uint8"
        },
        {
          "internalType": "uint256",
          "name": "t0",
          "type": "uint256"
        },
        {
          "internalType": "uint256",
          "name": "t1",
          "type": "uint256"
        },
        {
          "internalType": "uint120[]",
          "name": "x",
          "type": "uint120[]"
        },
        {
          "internalType": "uint120[]",
          "name": "y",
          "type": "uint120[]"
        },
        {
          "internalType": "uint256",
          "name": "buyStock",
          "type": "uint256"
        },
        {
          "internalType": "uint256",
          "name": "sellStock",
          "type": "uint256"
        }
      ],
      "name": "addSymbol",
      "outputs": [],
      "stateMutability": "nonpayable",
      "type": "function"
    },
    {
      "inputs": [
        {
          "internalType": "address",
          "name": "owner",
          "type": "address"
        },
        {
          "internalType": "address",
          "name": "spender",
          "type": "address"
        }
      ],
      "name": "allowance",
      "outputs": [
        {
          "internalType": "uint256",
          "name": "",
          "type": "uint256"
        }
      ],
      "stateMutability": "view",
      "type": "function"
    },
    {
      "inputs": [
        {
          "internalType": "address",
          "name": "spender",
          "type": "address"
        },
        {
          "internalType": "uint256",
          "name": "value",
          "type": "uint256"
        }
      ],
      "name": "approve",
      "outputs": [
        {
          "internalType": "bool",
          "name": "",
          "type": "bool"
        }
      ],
      "stateMutability": "nonpayable",
      "type": "function"
    },
    {
      "inputs": [
        {
          "internalType": "address",
          "name": "owner",
          "type": "address"
        }
      ],
      "name": "balanceOf",
      "outputs": [
        {
          "internalType": "uint256",
          "name": "",
          "type": "uint256"
        }
      ],
      "stateMutability": "view",
      "type": "function"
    },
    {
      "inputs": [
        {
          "internalType": "string",
          "name": "optSymbol",
          "type": "string"
        },
        {
          "internalType": "uint256",
          "name": "price",
          "type": "uint256"
        },
        {
          "internalType": "uint256",
          "name": "volume",
          "type": "uint256"
        },
        {
          "internalType": "address",
          "name": "token",
          "type": "address"
        },
        {
          "internalType": "uint256",
          "name": "maxValue",
          "type": "uint256"
        },
        {
          "internalType": "uint256",
          "name": "deadline",
          "type": "uint256"
        },
        {
          "internalType": "uint8",
          "name": "v",
          "type": "uint8"
        },
        {
          "internalType": "bytes32",
          "name": "r",
          "type": "bytes32"
        },
        {
          "internalType": "bytes32",
          "name": "s",
          "type": "bytes32"
        }
      ],
      "name": "buy",
      "outputs": [
        {
          "internalType": "address",
          "name": "_tk",
          "type": "address"
        }
      ],
      "stateMutability": "nonpayable",
      "type": "function"
    },
    {
      "inputs": [
        {
          "internalType": "string",
          "name": "optSymbol",
          "type": "string"
        },
        {
          "internalType": "uint256",
          "name": "price",
          "type": "uint256"
        },
        {
          "internalType": "uint256",
          "name": "volume",
          "type": "uint256"
        },
        {
          "internalType": "address",
          "name": "token",
          "type": "address"
        }
      ],
      "name": "buy",
      "outputs": [
        {
          "internalType": "address",
          "name": "_tk",
          "type": "address"
        }
      ],
      "stateMutability": "nonpayable",
      "type": "function"
    },
    {
      "inputs": [],
      "name": "calcFreeBalance",
      "outputs": [
        {
          "internalType": "uint256",
          "name": "balance",
          "type": "uint256"
        }
      ],
      "stateMutability": "view",
      "type": "function"
    },
    {
      "inputs": [],
      "name": "decimals",
      "outputs": [
        {
          "internalType": "uint8",
          "name": "",
          "type": "uint8"
        }
      ],
      "stateMutability": "view",
      "type": "function"
    },
    {
      "inputs": [
        {
          "internalType": "address",
          "name": "to",
          "type": "address"
        },
        {
          "internalType": "address",
          "name": "token",
          "type": "address"
        },
        {
          "internalType": "uint256",
          "name": "value",
          "type": "uint256"
        }
      ],
      "name": "depositTokens",
      "outputs": [],
      "stateMutability": "nonpayable",
      "type": "function"
    },
    {
      "inputs": [
        {
          "internalType": "address",
          "name": "to",
          "type": "address"
        },
        {
          "internalType": "address",
          "name": "token",
          "type": "address"
        },
        {
          "internalType": "uint256",
          "name": "value",
          "type": "uint256"
        },
        {
          "internalType": "uint256",
          "name": "deadline",
          "type": "uint256"
        },
        {
          "internalType": "uint8",
          "name": "v",
          "type": "uint8"
        },
        {
          "internalType": "bytes32",
          "name": "r",
          "type": "bytes32"
        },
        {
          "internalType": "bytes32",
          "name": "s",
          "type": "bytes32"
        }
      ],
      "name": "depositTokens",
      "outputs": [],
      "stateMutability": "nonpayable",
      "type": "function"
    },
    {
      "inputs": [
        {
          "internalType": "contract Deployer",
          "name": "deployer",
          "type": "address"
        }
      ],
      "name": "initializeAndLock",
      "outputs": [],
      "stateMutability": "nonpayable",
      "type": "function"
    },
    {
      "inputs": [
        {
          "internalType": "string",
          "name": "optSymbol",
          "type": "string"
        },
        {
          "internalType": "enum LiquidityPool.Operation",
          "name": "op",
          "type": "uint8"
        }
      ],
      "name": "isAvailable",
      "outputs": [
        {
          "internalType": "bool",
          "name": "b",
          "type": "bool"
        }
      ],
      "stateMutability": "view",
      "type": "function"
    },
    {
      "inputs": [],
      "name": "listSymbols",
      "outputs": [
        {
          "internalType": "string",
          "name": "available",
          "type": "string"
        }
      ],
      "stateMutability": "view",
      "type": "function"
    },
    {
      "inputs": [
        {
          "internalType": "enum LiquidityPool.Operation",
          "name": "op",
          "type": "uint8"
        }
      ],
      "name": "listSymbols",
      "outputs": [
        {
          "internalType": "string",
          "name": "available",
          "type": "string"
        }
      ],
      "stateMutability": "view",
      "type": "function"
    },
    {
      "inputs": [],
      "name": "maturity",
      "outputs": [
        {
          "internalType": "uint256",
          "name": "",
          "type": "uint256"
        }
      ],
      "stateMutability": "view",
      "type": "function"
    },
    {
      "inputs": [
        {
          "internalType": "address",
          "name": "",
          "type": "address"
        }
      ],
      "name": "nonces",
      "outputs": [
        {
          "internalType": "uint256",
          "name": "",
          "type": "uint256"
        }
      ],
      "stateMutability": "view",
      "type": "function"
    },
    {
      "inputs": [
        {
          "internalType": "address",
          "name": "owner",
          "type": "address"
        },
        {
          "internalType": "address",
          "name": "spender",
          "type": "address"
        },
        {
          "internalType": "uint256",
          "name": "value",
          "type": "uint256"
        },
        {
          "internalType": "uint256",
          "name": "deadline",
          "type": "uint256"
        },
        {
          "internalType": "uint8",
          "name": "v",
          "type": "uint8"
        },
        {
          "internalType": "bytes32",
          "name": "r",
          "type": "bytes32"
        },
        {
          "internalType": "bytes32",
          "name": "s",
          "type": "bytes32"
        }
      ],
      "name": "permit",
      "outputs": [],
      "stateMutability": "nonpayable",
      "type": "function"
    },
    {
      "inputs": [
        {
          "internalType": "string",
          "name": "optSymbol",
          "type": "string"
        }
      ],
      "name": "queryBuy",
      "outputs": [
        {
          "internalType": "uint256",
          "name": "price",
          "type": "uint256"
        },
        {
          "internalType": "uint256",
          "name": "volume",
          "type": "uint256"
        }
      ],
      "stateMutability": "view",
      "type": "function"
    },
    {
      "inputs": [
        {
          "internalType": "string",
          "name": "optSymbol",
          "type": "string"
        }
      ],
      "name": "querySell",
      "outputs": [
        {
          "internalType": "uint256",
          "name": "price",
          "type": "uint256"
        },
        {
          "internalType": "uint256",
          "name": "volume",
          "type": "uint256"
        }
      ],
      "stateMutability": "view",
      "type": "function"
    },
    {
      "inputs": [
        {
          "internalType": "address[]",
          "name": "owners",
          "type": "address[]"
        }
      ],
      "name": "redeem",
      "outputs": [
        {
          "internalType": "uint256",
          "name": "value",
          "type": "uint256"
        }
      ],
      "stateMutability": "nonpayable",
      "type": "function"
    },
    {
      "inputs": [
        {
          "internalType": "address",
          "name": "owner",
          "type": "address"
        }
      ],
      "name": "redeem",
      "outputs": [
        {
          "internalType": "uint256",
          "name": "value",
          "type": "uint256"
        }
      ],
      "stateMutability": "nonpayable",
      "type": "function"
    },
    {
      "inputs": [],
      "name": "redeemAllowed",
      "outputs": [
        {
          "internalType": "bool",
          "name": "",
          "type": "bool"
        }
      ],
      "stateMutability": "view",
      "type": "function"
    },
    {
      "inputs": [
        {
          "internalType": "string",
          "name": "optSymbol",
          "type": "string"
        }
      ],
      "name": "removeSymbol",
      "outputs": [],
      "stateMutability": "nonpayable",
      "type": "function"
    },
    {
      "inputs": [
        {
          "internalType": "string",
          "name": "optSymbol",
          "type": "string"
        },
        {
          "internalType": "uint256",
          "name": "price",
          "type": "uint256"
        },
        {
          "internalType": "uint256",
          "name": "volume",
          "type": "uint256"
        }
      ],
      "name": "sell",
      "outputs": [],
      "stateMutability": "nonpayable",
      "type": "function"
    },
    {
      "inputs": [
        {
          "internalType": "string",
          "name": "optSymbol",
          "type": "string"
        },
        {
          "internalType": "uint256",
          "name": "price",
          "type": "uint256"
        },
        {
          "internalType": "uint256",
          "name": "volume",
          "type": "uint256"
        },
        {
          "internalType": "uint256",
          "name": "deadline",
          "type": "uint256"
        },
        {
          "internalType": "uint8",
          "name": "v",
          "type": "uint8"
        },
        {
          "internalType": "bytes32",
          "name": "r",
          "type": "bytes32"
        },
        {
          "internalType": "bytes32",
          "name": "s",
          "type": "bytes32"
        }
      ],
      "name": "sell",
      "outputs": [],
      "stateMutability": "nonpayable",
      "type": "function"
    },
    {
      "inputs": [
        {
          "internalType": "uint256",
          "name": "_spread",
          "type": "uint256"
        },
        {
          "internalType": "uint256",
          "name": "_reserveRatio",
          "type": "uint256"
        },
        {
          "internalType": "uint256",
          "name": "_mt",
          "type": "uint256"
        }
      ],
      "name": "setParameters",
      "outputs": [],
      "stateMutability": "nonpayable",
      "type": "function"
    },
    {
      "inputs": [
        {
          "internalType": "string",
          "name": "optSymbol",
          "type": "string"
        },
        {
          "internalType": "enum LiquidityPool.Operation",
          "name": "op",
          "type": "uint8"
        },
        {
          "internalType": "uint256",
          "name": "start",
          "type": "uint256"
        },
        {
          "internalType": "uint256",
          "name": "end",
          "type": "uint256"
        }
      ],
      "name": "setRange",
      "outputs": [],
      "stateMutability": "nonpayable",
      "type": "function"
    },
    {
      "inputs": [],
      "name": "totalSupply",
      "outputs": [
        {
          "internalType": "uint256",
          "name": "",
          "type": "uint256"
        }
      ],
      "stateMutability": "view",
      "type": "function"
    },
    {
      "inputs": [
        {
          "internalType": "address",
          "name": "to",
          "type": "address"
        },
        {
          "internalType": "uint256",
          "name": "value",
          "type": "uint256"
        }
      ],
      "name": "transfer",
      "outputs": [
        {
          "internalType": "bool",
          "name": "",
          "type": "bool"
        }
      ],
      "stateMutability": "nonpayable",
      "type": "function"
    },
    {
      "inputs": [
        {
          "internalType": "address",
          "name": "from",
          "type": "address"
        },
        {
          "internalType": "address",
          "name": "to",
          "type": "address"
        },
        {
          "internalType": "uint256",
          "name": "value",
          "type": "uint256"
        }
      ],
      "name": "transferFrom",
      "outputs": [
        {
          "internalType": "bool",
          "name": "",
          "type": "bool"
        }
      ],
      "stateMutability": "nonpayable",
      "type": "function"
    },
    {
      "inputs": [
        {
          "internalType": "uint256",
          "name": "dt",
          "type": "uint256"
        }
      ],
      "name": "yield",
      "outputs": [
        {
          "internalType": "uint256",
          "name": "y",
          "type": "uint256"
        }
      ],
      "stateMutability": "view",
      "type": "function"
    },
    {
      "inputs": [],
      "name": "name",
      "outputs": [
        {
          "internalType": "string",
          "name": "",
          "type": "string"
        }
      ],
      "stateMutability": "view",
      "type": "function"
    },
    {
      "inputs": [],
      "name": "symbol",
      "outputs": [
        {
          "internalType": "string",
          "name": "",
          "type": "string"
        }
      ],
      "stateMutability": "view",
      "type": "function"
    },
    {
      "inputs": [
        {
          "internalType": "address",
          "name": "account",
          "type": "address"
        }
      ],
      "name": "valueOf",
      "outputs": [
        {
          "internalType": "uint256",
          "name": "",
          "type": "uint256"
        }
      ],
      "stateMutability": "view",
      "type": "function"
    }
  ],
  "bytecode": "0x60806040523480156200001157600080fd5b5060405180606001604052806026815260200162005e94602691396040518190469080605262005eba8239604080519182900360520182208551602096870120838301835260018452603160f81b93870193909352815180870191909152808201929092527fc89efdaa54c0f20c7adf612882df0950f5a951637e0307cdcb4c672f298b8bc6606083015260808201939093523060a0808301919091528351808303909101815260c090910190925250805191012060065550615dba80620000da6000396000f3fe608060405234801561001057600080fd5b506004361061021c5760003560e01c806365288dde116101255780639cfbb00b116100ad578063ad56d52e1161007c578063ad56d52e14610b35578063c7f1978e14610bed578063d259945d14610bf5578063d505accf14610c99578063dd62ed3e14610cea5761021c565b80639cfbb00b146109a5578063a48028aa14610a22578063a57a8aad14610a48578063a9059cbb14610b095761021c565b80638730b205116100f45780638730b205146108115780638bd9513e146108b25780638e424b6b146108ba57806395a2251f1461097757806395d89b411461099d5761021c565b806365288dde146106b357806370a08231146107a8578063765287ef146107ce5780637ecebe00146107eb5761021c565b806334c5d2ce116101a8578063428f15d611610177578063428f15d61461056b578063439fa0881461061457806345e77633146106655780635838d1271461066d5780635c1bfb321461068d5761021c565b806334c5d2ce146104965780633644e515146104bf57806336977d32146104c757806339dc5ef2146105355761021c565b806318160ddd116101ef57806318160ddd14610418578063204f83f91461043257806323b872dd1461043a57806330adf81f14610470578063313ce567146104785761021c565b806304804ee81461022157806306fdde0314610297578063095ea7b3146103145780630964575714610354575b600080fd5b6102956004803603606081101561023757600080fd5b810190602081018135600160201b81111561025157600080fd5b82018360208201111561026357600080fd5b803590602001918460018302840111600160201b8311171561028457600080fd5b919350915080359060200135610d18565b005b61029f610d66565b6040805160208082528351818301528351919283929083019185019080838360005b838110156102d95781810151838201526020016102c1565b50505050905090810190601f1680156103065780820380516001836020036101000a031916815260200191505b509250505060405180910390f35b6103406004803603604081101561032a57600080fd5b506001600160a01b038135169060200135610d87565b604080519115158252519081900360200190f35b610295600480360360e081101561036a57600080fd5b810190602081018135600160201b81111561038457600080fd5b82018360208201111561039657600080fd5b803590602001918460018302840111600160201b831117156103b757600080fd5b91908080601f0160208091040260200160405190810160405280939291908181526020018383808284376000920191909152509295505082359350505060208101359060408101359060ff6060820135169060808101359060a00135610d9d565b61042061154d565b60408051918252519081900360200190f35b610420611553565b6103406004803603606081101561045057600080fd5b506001600160a01b03813581169160208101359091169060400135611559565b610420611635565b610480611659565b6040805160ff9092168252519081900360200190f35b610295600480360360608110156104ac57600080fd5b508035906020810135906040013561165e565b610420611674565b610295600480360360208110156104dd57600080fd5b810190602081018135600160201b8111156104f757600080fd5b82018360208201111561050957600080fd5b803590602001918460018302840111600160201b8311171561052a57600080fd5b50909250905061167a565b6102956004803603606081101561054b57600080fd5b506001600160a01b03813581169160208101359091169060400135611898565b6103406004803603604081101561058157600080fd5b810190602081018135600160201b81111561059b57600080fd5b8201836020820111156105ad57600080fd5b803590602001918460018302840111600160201b831117156105ce57600080fd5b91908080601f0160208091040260200160405190810160405280939291908181526020018383808284376000920191909152509295505050903560ff169150611bf19050565b610295600480360360e081101561062a57600080fd5b506001600160a01b03813581169160208101359091169060408101359060608101359060ff6080820135169060a08101359060c00135611f01565b61029f611f9f565b61029f6004803603602081101561068357600080fd5b503560ff16611fb0565b610295600480360360208110156106a357600080fd5b50356001600160a01b031661220f565b61029560048036036101408110156106ca57600080fd5b6001600160a01b038235169160208101359160408201359160ff6060820135169160808201359160a08101359181019060e0810160c0820135600160201b81111561071457600080fd5b82018360208201111561072657600080fd5b803590602001918460208302840111600160201b8311171561074757600080fd5b919390929091602081019035600160201b81111561076457600080fd5b82018360208201111561077657600080fd5b803590602001918460208302840111600160201b8311171561079757600080fd5b91935091508035906020013561228d565b610420600480360360208110156107be57600080fd5b50356001600160a01b03166128eb565b610420600480360360208110156107e457600080fd5b5035612906565b6104206004803603602081101561080157600080fd5b50356001600160a01b031661298a565b6104206004803603602081101561082757600080fd5b810190602081018135600160201b81111561084157600080fd5b82018360208201111561085357600080fd5b803590602001918460208302840111600160201b8311171561087457600080fd5b91908080602002602001604051908101604052809392919081815260200183836020028082843760009201919091525092955061299c945050505050565b610420612b24565b61095e600480360360208110156108d057600080fd5b810190602081018135600160201b8111156108ea57600080fd5b8201836020820111156108fc57600080fd5b803590602001918460018302840111600160201b8311171561091d57600080fd5b91908080601f016020809104026020016040519081016040528093929190818152602001838380828437600092019190915250929550612c75945050505050565b6040805192835260208301919091528051918290030190f35b6104206004803603602081101561098d57600080fd5b50356001600160a01b0316612ed4565b61029f612f31565b610295600480360360808110156109bb57600080fd5b810190602081018135600160201b8111156109d557600080fd5b8201836020820111156109e757600080fd5b803590602001918460018302840111600160201b83111715610a0857600080fd5b919350915060ff8135169060208101359060400135612f50565b61042060048036036020811015610a3857600080fd5b50356001600160a01b0316613025565b610aed6004803603610120811015610a5f57600080fd5b810190602081018135600160201b811115610a7957600080fd5b820183602082011115610a8b57600080fd5b803590602001918460018302840111600160201b83111715610aac57600080fd5b91935091508035906020810135906001600160a01b036040820135169060608101359060808101359060ff60a0820135169060c08101359060e0013561314e565b604080516001600160a01b039092168252519081900360200190f35b61034060048036036040811015610b1f57600080fd5b506001600160a01b03813516906020013561322e565b610aed60048036036080811015610b4b57600080fd5b810190602081018135600160201b811115610b6557600080fd5b820183602082011115610b7757600080fd5b803590602001918460018302840111600160201b83111715610b9857600080fd5b91908080601f01602080910402602001604051908101604052809392919081815260200183838082843760009201919091525092955050823593505050602081013590604001356001600160a01b0316613280565b610340613789565b61095e60048036036020811015610c0b57600080fd5b810190602081018135600160201b811115610c2557600080fd5b820183602082011115610c3757600080fd5b803590602001918460018302840111600160201b83111715610c5857600080fd5b91908080601f016020809104026020016040519081016040528093929190818152602001838380828437600092019190915250929550613805945050505050565b610295600480360360e0811015610caf57600080fd5b506001600160a01b03813581169160208101359091169060408101359060608101359060ff6080820135169060a08101359060c00135613a57565b61042060048036036040811015610d0057600080fd5b506001600160a01b0381358116916020013516613c65565b6000610d5f85858080601f01602080910402602001604051908101604052809392919081815260200183838082843760009201829052508893508792509050808680610d9d565b5050505050565b6060604051806060016040528060268152602001615d186026913990505b90565b6000610d94338484613c90565b90505b92915050565b60008511610de3576040805162461bcd60e51b815260206004820152600e60248201526d696e76616c696420766f6c756d6560901b604482015290519081900360640190fd5b610dec87613cd8565b610df4615a3c565b600d886040518082805190602001908083835b60208310610e265780518252601f199092019160209182019101610e07565b51815160209384036101000a6000190180199092169116179052920194855250604080519485900382018520610140860190915280546001600160a01b03811686529093509084019150600160a01b900460ff166001811115610e8557fe5b6001811115610e9057fe5b815260018201546001600160781b03808216602080850191909152600160781b80840463ffffffff908116604080880191909152600160981b860482166060880152600160b81b909504166080860152600286015480841660a08701520490911660c084015260038401805483518184028101840190945280845260e0909401939091830182828015610f7457602002820191906000526020600020906000905b82829054906101000a90046001600160781b03166001600160781b0316815260200190600f0190602082600e01049283019260010382029150808411610f315790505b5050505050815260200160048201805480602002602001604051908101604052809291908181526020018280548015610ffe57602002820191906000526020600020906000905b82829054906101000a90046001600160781b03166001600160781b0316815260200190600f0190602082600e01049283019260010382029150808411610fbb5790505b50505050508152505090506110198860028360000151613da4565b611059576040805162461bcd60e51b815260206004820152600c60248201526b6f7574206f662072616e676560a01b604482015290519081900360640190fd5b61106587826002613ebf565b600854604051638c922b6360e01b81526020600482018181528c5160248401528c51949b506000946001600160a01b0390941693638c922b63938e938392604490920191908501908083838b5b838110156110ca5781810151838201526020016110b2565b50505050905090810190601f1680156110f75780820380516001836020036101000a031916815260200191505b509250505060206040518083038186803b15801561111457600080fd5b505afa158015611128573d6000803e3d6000fd5b505050506040513d602081101561113e57600080fd5b505190508086156111d4576040805163d505accf60e01b8152336004820152306024820152604481018a90526064810189905260ff8816608482015260a4810187905260c4810186905290516001600160a01b0383169163d505accf9160e480830192600092919082900301818387803b1580156111bb57600080fd5b505af11580156111cf573d6000803e3d6000fd5b505050505b604080516323b872dd60e01b8152336004820152306024820152604481018a905290516001600160a01b038316916323b872dd9160648083019260209291908290030181600087803b15801561122957600080fd5b505af115801561123d573d6000803e3d6000fd5b505050506040513d602081101561125357600080fd5b50506040805163d0acc58f60e01b815230600482015290516000916001600160a01b0384169163d0acc58f91602480820192602092909190829003018186803b15801561129f57600080fd5b505afa1580156112b3573d6000803e3d6000fd5b505050506040513d60208110156112c957600080fd5b5051905080156113415760006112df828b613f3f565b9050826001600160a01b03166342966c68826040518263ffffffff1660e01b815260040180828152602001915050600060405180830381600087803b15801561132757600080fd5b505af115801561133b573d6000803e3d6000fd5b50505050505b6016546000906113679061135b8d8d63ffffffff613f5516565b9063ffffffff613fae16565b600854604080516356a6d9ef60e01b81523360048201526024810184905290519293506001600160a01b03909116916356a6d9ef9160448082019260009290919082900301818387803b1580156113bd57600080fd5b505af11580156113d1573d6000803e3d6000fd5b5050505060006113df612b24565b11611428576040805162461bcd60e51b8152602060048201526014602482015273706f6f6c2062616c616e636520746f6f206c6f7760601b604482015290519081900360640190fd5b604080516370a0823160e01b815230600482015290516000916001600160a01b038616916370a0823191602480820192602092909190829003018186803b15801561147257600080fd5b505afa158015611486573d6000803e3d6000fd5b505050506040513d602081101561149c57600080fd5b505160e08701519091506001600160781b03168111156114f6576040805162461bcd60e51b815260206004820152601060248201526f65786365737369766520766f6c756d6560801b604482015290519081900360640190fd5b604080518d8152602081018d9052815133926001600160a01b038916927fa082022e93cfcd9f1da5f9236718053910f7e840da080c789c7845698dc032ff929081900390910190a350505050505050505050505050565b60075490565b60125490565b6000611564846128eb565b82111561157057600080fd5b6001600160a01b03841660009081526004602090815260408083203384529091529020548211156115a057600080fd5b6001600160a01b0383166115b357600080fd5b6115bd8483613ff0565b6115c78383614029565b6001600160a01b03841660009081526004602090815260408083203384529091529020546115fb908363ffffffff61404216565b6001600160a01b038516600090815260046020908152604080832033845290915290205561162a848484614084565b5060015b9392505050565b7f6e71edae12b1b97f4d1f60370fef10105fa2faae0126114a169c64845d6126c981565b601290565b6116666140d4565b601092909255601155601255565b60065481565b6116826140d4565b61168a615a3c565b80600d84846040518083838082843791909101948552505060405160209381900384019020845181546001600160a01b0319166001600160a01b039091161780825593850151909390925083915060ff60a01b1916600160a01b8360018111156116f057fe5b021790555060408201516001820180546060850151608086015160a08701516001600160781b03199384166001600160781b039687161763ffffffff60781b1916600160781b63ffffffff94851681029190911763ffffffff60981b1916600160981b938516939093029290921763ffffffff60b81b1916600160b81b93909116929092029190911790925560c085015160028501805460e08801519316918516919091176effffffffffffffffffffffffffffff60781b19169190931690910217905561010082015180516117d0916003840191602090910190615a93565b5061012082015180516117ed916004840191602090910190615a93565b50905050611832601384848080601f01602080910402602001604051908101604052809392919081815260200183838082843760009201919091525061414992505050565b507f4b62493f4f8ba00316d1e11c870ddc857bd37e50aafe15a7ad4d3f6ac1c6d34d838360405180806020018281038252848482818152602001925080828437600083820152604051601f909101601f19169092018290039550909350505050a1505050565b600854604080516370a0823160e01b815230600482015290516000926001600160a01b0316916370a08231916024808301926020929190829003018186803b1580156118e357600080fd5b505afa1580156118f7573d6000803e3d6000fd5b505050506040513d602081101561190d57600080fd5b5051905061191b8383614278565b600854604080516370a0823160e01b815230600482015290516000926001600160a01b0316916370a08231916024808301926020929190829003018186803b15801561196657600080fd5b505afa15801561197a573d6000803e3d6000fd5b505050506040513d602081101561199057600080fd5b50516008546040805162b08c1d60e21b815230600482015290519293506000926001600160a01b03909216916302c2307491602480820192602092909190829003018186803b1580156119e257600080fd5b505afa1580156119f6573d6000803e3d6000fd5b505050506040513d6020811015611a0c57600080fd5b5051600c5460095460408051630bbe4fd560e41b815290519394506001600160a01b0392831693636650e9ea93611a9593169163bbe4fd50916004808301926020929190829003018186803b158015611a6457600080fd5b505afa158015611a78573d6000803e3d6000fd5b505050506040513d6020811015611a8e57600080fd5b505161436f565b611aa5868563ffffffff6143b716565b611ab5868863ffffffff61404216565b6040518463ffffffff1660e01b8152600401808463ffffffff1663ffffffff1681526020018381526020018281526020019350505050600060405180830381600087803b158015611b0557600080fd5b505af1158015611b19573d6000803e3d6000fd5b5050600754915060009050611b34838563ffffffff6143b716565b90506000611b618261135b601754611b558a8a61404290919063ffffffff16565b9063ffffffff613f5516565b90506103e8600084611b8257611b7d848363ffffffff613f5516565b611bad565b601754611bad90611b99908563ffffffff61404216565b61135b84611b55898863ffffffff613f5516565b9050611bb9818361441c565b9050611bc58b82614029565b611bd5858263ffffffff61445f16565b600755611be460008c83614084565b5050505050505050505050565b6001611bfb615a3c565b600d846040518082805190602001908083835b60208310611c2d5780518252601f199092019160209182019101611c0e565b51815160209384036101000a6000190180199092169116179052920194855250604080519485900382018520610140860190915280546001600160a01b03811686529093509084019150600160a01b900460ff166001811115611c8c57fe5b6001811115611c9757fe5b815260018201546001600160781b03808216602080850191909152600160781b80840463ffffffff908116604080880191909152600160981b860482166060880152600160b81b909504166080860152600286015480841660a08701520490911660c084015260038401805483518184028101840190945280845260e0909401939091830182828015611d7b57602002820191906000526020600020906000905b82829054906101000a90046001600160781b03166001600160781b0316815260200190600f0190602082600e01049283019260010382029150808411611d385790505b5050505050815260200160048201805480602002602001604051908101604052809291908181526020018280548015611e0557602002820191906000526020600020906000905b82829054906101000a90046001600160781b03166001600160781b0316815260200190600f0190602082600e01049283019260010382029150808411611dc25790505b5050505050815250509050600960009054906101000a90046001600160a01b03166001600160a01b031663bbe4fd506040518163ffffffff1660e01b815260040160206040518083038186803b158015611e5e57600080fd5b505afa158015611e72573d6000803e3d6000fd5b505050506040513d6020811015611e8857600080fd5b5051606082015163ffffffff1611611ea35760009150611efa565b6001836002811115611eb157fe5b1480611ec857506002836002811115611ec657fe5b145b15611efa57611edc84848360000151613da4565b611ee95760009150611efa565b6000611ef68583866144b9565b1191505b5092915050565b6040805163d505accf60e01b8152336004820152306024820152604481018790526064810186905260ff8516608482015260a4810184905260c4810183905290516001600160a01b0388169163d505accf9160e480830192600092919082900301818387803b158015611f7357600080fd5b505af1158015611f87573d6000803e3d6000fd5b50505050611f96878787611898565b50505050505050565b6060611fab6001611fb0565b905090565b606060005b6013548110156122095761206860138281548110611fcf57fe5b600091825260209182902001805460408051601f600260001961010060018716150201909416939093049283018590048502810185019091528181529283018282801561205d5780601f106120325761010080835404028352916020019161205d565b820191906000526020600020905b81548152906001019060200180831161204057829003601f168201915b505050505084611bf1565b1561220157815161211a576013818154811061208057fe5b600091825260209182902001805460408051601f600260001961010060018716150201909416939093049283018590048502810185019091528181529283018282801561210e5780601f106120e35761010080835404028352916020019161210e565b820191906000526020600020905b8154815290600101906020018083116120f157829003601f168201915b50505050509150612201565b816013828154811061212857fe5b906000526020600020016040516020018083805190602001908083835b602083106121645780518252601f199092019160209182019101612145565b6001836020036101000a03801982511681845116808217855250505050505090500180600560f91b815250600101828054600181600116156101000203166002900480156121e95780601f106121c75761010080835404028352918201916121e9565b820191906000526020600020905b8154815290600101906020018083116121d5575b50509250505060405160208183030381529060405291505b600101611fb5565b50919050565b600254600160a01b900460ff161561226e576040805162461bcd60e51b815260206004820152601560248201527f696e697469616c697a6174696f6e206c6f636b65640000000000000000000000604482015290519081900360640190fd5b6002805460ff60a01b1916600160a01b17905561228a816146fa565b50565b6122956140d4565b6012548a106122eb576040805162461bcd60e51b815260206004820152601060248201527f696e76616c6964206d6174757269747900000000000000000000000000000000604482015290519081900360640190fd5b841580159061230957508261230786600263ffffffff613f5516565b145b61235a576040805162461bcd60e51b815260206004820152601760248201527f696e76616c69642070726963696e672073757266616365000000000000000000604482015290519081900360640190fd5b6060600860009054906101000a90046001600160a01b03166001600160a01b031663edb5fd4f8e8c8f8f6040518563ffffffff1660e01b815260040180856001600160a01b03166001600160a01b031681526020018460018111156123bb57fe5b60ff16815260200183815260200182815260200194505050505060006040518083038186803b1580156123ed57600080fd5b505afa158015612401573d6000803e3d6000fd5b505050506040513d6000823e601f3d908101601f19168201604052602081101561242a57600080fd5b8101908080516040519392919084600160201b82111561244957600080fd5b90830190602082018581111561245e57600080fd5b8251600160201b81118282018810171561247757600080fd5b82525081516020918201929091019080838360005b838110156124a457818101518382015260200161248c565b50505050905090810190601f1680156124d15780820380516001836020036101000a031916815260200191505b506040525050509050600d816040518082805190602001908083835b6020831061250c5780518252601f1990920191602091820191016124ed565b51815160209384036101000a60001901801990921691161790529201948552506040519384900301909220600301541515915061258a905057601380546001810182556000919091528151612588917f66de8ffda797e3de9c05e8fc57b3bf0ec28a930d40b0d285d93c06501cf6a09001906020840190615b47565b505b6040518061014001604052808e6001600160a01b031681526020018b60018111156125b157fe5b81526020016125bf8e6147c3565b6001600160781b031681526020016125d68d61436f565b63ffffffff1681526020016125ea8b61436f565b63ffffffff1681526020016125fe8a61436f565b63ffffffff168152602001612612856147c3565b6001600160781b03168152602001612629846147c3565b6001600160781b03168152602001888880806020026020016040519081016040528093929190818152602001838360200280828437600092019190915250505090825250604080516020888102828101820190935288825292830192909189918991829185019084908082843760009201919091525050509152506040518251600d918491819060208401908083835b602083106126d85780518252601f1990920191602091820191016126b9565b51815160209384036101000a6000190180199092169116179052920194855250604051938490038101909320845181546001600160a01b0319166001600160a01b039091161780825593850151909390925083915060ff60a01b1916600160a01b83600181111561274557fe5b021790555060408201516001820180546060850151608086015160a08701516001600160781b03199384166001600160781b039687161763ffffffff60781b1916600160781b63ffffffff94851681029190911763ffffffff60981b1916600160981b938516939093029290921763ffffffff60b81b1916600160b81b93909116929092029190911790925560c085015160028501805460e08801519316918516919091176effffffffffffffffffffffffffffff60781b1916919093169091021790556101008201518051612825916003840191602090910190615a93565b506101208201518051612842916004840191602090910190615a93565b505060408051602080825284518183015284517f27136bc3b80a2a48083d0f3dd8acaf97309ab58abf6408d4ab39af25b6b4168e945085938392908301919085019080838360005b838110156128a257818101518382015260200161288a565b50505050905090810190601f1680156128cf5780820380516001836020036101000a031916815260200191505b509250505060405180910390a150505050505050505050505050565b6001600160a01b031660009081526003602052604090205490565b600c5460408051631dc4ba9f60e01b81523060048201526024810184905290516000926001600160a01b031691631dc4ba9f916044808301926020929190829003018186803b15801561295857600080fd5b505afa15801561296c573d6000803e3d6000fd5b505050506040513d602081101561298257600080fd5b505192915050565b60056020526000908152604090205481565b60006129a6613789565b6129f7576040805162461bcd60e51b815260206004820152601360248201527f72656465656d64206e6f7420616c6c6f77656400000000000000000000000000604482015290519081900360640190fd5b600854604080516370a0823160e01b815230600482015290516000926001600160a01b0316916370a08231916024808301926020929190829003018186803b158015612a4257600080fd5b505afa158015612a56573d6000803e3d6000fd5b505050506040513d6020811015612a6c57600080fd5b505160075490915081908060005b8651811015612b175760006001600160a01b0316878281518110612a9a57fe5b60200260200101516001600160a01b031614612b0f57600080612ad187868b8681518110612ac457fe5b6020026020010151614807565b9092509050612ae6888263ffffffff61445f16565b9750612af8868263ffffffff61404216565b9550612b0a848363ffffffff61404216565b935050505b600101612a7a565b5060075550919392505050565b600854604080516370a0823160e01b8152306004820152905160009283926001600160a01b03909116916370a0823191602480820192602092909190829003018186803b158015612b7457600080fd5b505afa158015612b88573d6000803e3d6000fd5b505050506040513d6020811015612b9e57600080fd5b5051601754601154919250600091612bc2919061135b90859063ffffffff613f5516565b600854604080516352fee2ef60e11b81523060048201529051929350600092612c4d926001600160a01b03169163a5fdc5de916024808301926020929190829003018186803b158015612c1457600080fd5b505afa158015612c28573d6000803e3d6000fd5b505050506040513d6020811015612c3e57600080fd5b5051849063ffffffff61404216565b9050818111612c5d576000612c6d565b612c6d818363ffffffff61404216565b935050505090565b600080612c8183613cd8565b612c89615a3c565b600d846040518082805190602001908083835b60208310612cbb5780518252601f199092019160209182019101612c9c565b51815160209384036101000a6000190180199092169116179052920194855250604080519485900382018520610140860190915280546001600160a01b03811686529093509084019150600160a01b900460ff166001811115612d1a57fe5b6001811115612d2557fe5b815260018201546001600160781b03808216602080850191909152600160781b80840463ffffffff908116604080880191909152600160981b860482166060880152600160b81b909504166080860152600286015480841660a08701520490911660c084015260038401805483518184028101840190945280845260e0909401939091830182828015612e0957602002820191906000526020600020906000905b82829054906101000a90046001600160781b03166001600160781b0316815260200190600f0190602082600e01049283019260010382029150808411612dc65790505b5050505050815260200160048201805480602002602001604051908101604052809291908181526020018280548015612e9357602002820191906000526020600020906000905b82829054906101000a90046001600160781b03166001600160781b0316815260200190600f0190602082600e01049283019260010382029150808411612e505790505b5050505050815250509050612ea98160026148d9565b9250612ecc612ebb8583866002614a72565b612ec7868460026144b9565b613f3f565b915050915091565b60408051600180825281830190925260009160609190602080830190803883390190505090508281600081518110612f0857fe5b60200260200101906001600160a01b031690816001600160a01b03168152505061162e8161299c565b6040805180820190915260058152644c4c50544b60d81b602082015290565b612f586140d4565b6040518060400160405280612f6c846147c3565b6001600160781b03168152602001612f83836147c3565b6001600160781b0316815250600e868660405180838380828437808301925050509250505090815260200160405180910390206000856002811115612fc457fe5b81526020808201929092526040016000208251815493909201516001600160781b03908116600160781b026effffffffffffffffffffffffffffff60781b19919093166001600160781b031990941693909317929092161790555050505050565b600854604080516370a0823160e01b8152306004820152905160009283926001600160a01b03909116916370a0823191602480820192602092909190829003018186803b15801561307557600080fd5b505afa158015613089573d6000803e3d6000fd5b505050506040513d602081101561309f57600080fd5b50516008546040805162b08c1d60e21b815230600482015290519293506000926001600160a01b03909216916302c2307491602480820192602092909190829003018186803b1580156130f157600080fd5b505afa158015613105573d6000803e3d6000fd5b505050506040513d602081101561311b57600080fd5b5051905061314661312a61154d565b61135b613136876128eb565b611b55868663ffffffff6143b716565b949350505050565b6040805163d505accf60e01b8152336004820152306024820152604481018790526064810186905260ff8516608482015260a4810184905260c4810183905290516000916001600160a01b0389169163d505accf9160e480820192869290919082900301818387803b1580156131c357600080fd5b505af11580156131d7573d6000803e3d6000fd5b5050505061321f8b8b8080601f0160208091040260200160405190810160405280939291908181526020018383808284376000920191909152508d92508c91508b9050613280565b9b9a5050505050505050505050565b6000613239336128eb565b82111561324557600080fd5b6001600160a01b03831661325857600080fd5b6132623383613ff0565b61326c8383614029565b613277338484614084565b50600192915050565b60008083116132c7576040805162461bcd60e51b815260206004820152600e60248201526d696e76616c696420766f6c756d6560901b604482015290519081900360640190fd5b6132d085613cd8565b6132d8615a3c565b600d866040518082805190602001908083835b6020831061330a5780518252601f1990920191602091820191016132eb565b51815160209384036101000a6000190180199092169116179052920194855250604080519485900382018520610140860190915280546001600160a01b03811686529093509084019150600160a01b900460ff16600181111561336957fe5b600181111561337457fe5b815260018201546001600160781b03808216602080850191909152600160781b80840463ffffffff908116604080880191909152600160981b860482166060880152600160b81b909504166080860152600286015480841660a08701520490911660c084015260038401805483518184028101840190945280845260e090940193909183018282801561345857602002820191906000526020600020906000905b82829054906101000a90046001600160781b03166001600160781b0316815260200190600f0190602082600e010492830192600103820291508084116134155790505b50505050508152602001600482018054806020026020016040519081016040528092919081815260200182805480156134e257602002820191906000526020600020906000905b82829054906101000a90046001600160781b03166001600160781b0316815260200190600f0190602082600e0104928301926001038202915080841161349f5790505b50505050508152505090506134fd8660018360000151613da4565b61353d576040805162461bcd60e51b815260206004820152600c60248201526b6f7574206f662072616e676560a01b604482015290519081900360640190fd5b61354981868686614fef565b600854604051638c922b6360e01b81526020600482018181528a5160248401528a519499506001600160a01b0390931693638c922b63938b93909283926044909201919085019080838360005b838110156135ae578181015183820152602001613596565b50505050905090810190601f1680156135db5780820380516001836020036101000a031916815260200191505b509250505060206040518083038186803b1580156135f857600080fd5b505afa15801561360c573d6000803e3d6000fd5b505050506040513d602081101561362257600080fd5b5051604080516370a0823160e01b8152306004820152905191935083916000916001600160a01b038416916370a0823191602480820192602092909190829003018186803b15801561367357600080fd5b505afa158015613687573d6000803e3d6000fd5b505050506040513d602081101561369d57600080fd5b50519050808611156136ba576136b58284883361515a565b613736565b6040805163a9059cbb60e01b81523360048201526024810188905290516001600160a01b0384169163a9059cbb9160448083019260209291908290030181600087803b15801561370957600080fd5b505af115801561371d573d6000803e3d6000fd5b505050506040513d602081101561373357600080fd5b50505b6040805188815260208101889052815133926001600160a01b038816927f89f5adc174562e07c9c9b1cae7109bbecb21cf9d1b2847e550042b8653c54a0e929081900390910190a3505050949350505050565b60125460095460408051630bbe4fd560e41b81529051600093926001600160a01b03169163bbe4fd50916004808301926020929190829003018186803b1580156137d257600080fd5b505afa1580156137e6573d6000803e3d6000fd5b505050506040513d60208110156137fc57600080fd5b50511015905090565b60008061381183613cd8565b613819615a3c565b600d846040518082805190602001908083835b6020831061384b5780518252601f19909201916020918201910161382c565b51815160209384036101000a6000190180199092169116179052920194855250604080519485900382018520610140860190915280546001600160a01b03811686529093509084019150600160a01b900460ff1660018111156138aa57fe5b60018111156138b557fe5b815260018201546001600160781b03808216602080850191909152600160781b80840463ffffffff908116604080880191909152600160981b860482166060880152600160b81b909504166080860152600286015480841660a08701520490911660c084015260038401805483518184028101840190945280845260e090940193909183018282801561399957602002820191906000526020600020906000905b82829054906101000a90046001600160781b03166001600160781b0316815260200190600f0190602082600e010492830192600103820291508084116139565790505b5050505050815260200160048201805480602002602001604051908101604052809291908181526020018280548015613a2357602002820191906000526020600020906000905b82829054906101000a90046001600160781b03166001600160781b0316815260200190600f0190602082600e010492830192600103820291508084116139e05790505b5050505050815250509050613a398160016148d9565b9250612ecc613a4b8583866001614a72565b612ec7868460016144b9565b42841015613aac576040805162461bcd60e51b815260206004820152600e60248201527f7065726d69742065787069726564000000000000000000000000000000000000604482015290519081900360640190fd5b6006546001600160a01b0380891660008181526005602090815260408083208054600180820190925582517f6e71edae12b1b97f4d1f60370fef10105fa2faae0126114a169c64845d6126c98186015280840196909652958d166060860152608085018c905260a085019590955260c08085018b90528151808603909101815260e08501825280519083012061190160f01b6101008601526101028501969096526101228085019690965280518085039096018652610142840180825286519683019690962095839052610162840180825286905260ff89166101828501526101a284018890526101c28401879052519193926101e280820193601f1981019281900390910190855afa158015613bc7573d6000803e3d6000fd5b5050604051601f1901519150506001600160a01b03811615801590613bfd5750886001600160a01b0316816001600160a01b0316145b613c4e576040805162461bcd60e51b815260206004820152601160248201527f696e76616c6964207369676e6174757265000000000000000000000000000000604482015290519081900360640190fd5b613c59898989613c90565b50505050505050505050565b6001600160a01b03918216600090815260046020908152604080832093909416825291909152205490565b60006001600160a01b038316613ca557600080fd5b6001600160a01b03808516600090815260046020908152604080832093871683529290522082905561162a848484615370565b60006001600160a01b0316600d826040518082805190602001908083835b60208310613d155780518252601f199092019160209182019101613cf6565b51815160209384036101000a60001901801990921691161790529201948552506040519384900301909220546001600160a01b03169290921415915061228a9050576040805162461bcd60e51b815260206004820152601160248201527f696e76616c6964206f707453796d626f6c000000000000000000000000000000604482015290519081900360640190fd5b6000613dae615bc1565b600e856040518082805190602001908083835b60208310613de05780518252601f199092019160209182019101613dc1565b51815160209384036101000a60001901801990921691161790529201948552506040519384900301909220915060009050856002811115613e1d57fe5b815260208082019290925260409081016000208151808301909252546001600160781b03808216808452600160781b90920416928201929092529150158015613e71575060208101516001600160781b0316155b15613e8057600191505061162e565b6000613e8b846153c0565b82519091506001600160781b03168110801590613eb5575081602001516001600160781b03168111155b9695505050505050565b6000613ecb83836148d9565b90506001826002811115613edb57fe5b14613ee95780841115613eee565b808410155b61162e576040805162461bcd60e51b815260206004820152601260248201527f696e73756666696369656e742070726963650000000000000000000000000000604482015290519081900360640190fd5b6000818310613f4e5781610d94565b5090919050565b600082613f6457506000610d97565b82820282848281613f7157fe5b0414610d945760405162461bcd60e51b8152600401808060200182810382526021815260200180615d3e6021913960400191505060405180910390fd5b6000610d9483836040518060400160405280601a81526020017f536166654d6174683a206469766973696f6e206279207a65726f000000000000815250615434565b61400981613ffd846128eb565b9063ffffffff61404216565b6001600160a01b0390921660009081526003602052604090209190915550565b61400981614036846128eb565b9063ffffffff61445f16565b6000610d9483836040518060400160405280601e81526020017f536166654d6174683a207375627472616374696f6e206f766572666c6f7700008152506154d6565b816001600160a01b0316836001600160a01b03167fddf252ad1be2c89b69c2b068fc378daa952ba7f163c4a11628f55a4df523b3ef836040518082815260200191505060405180910390a3505050565b600f546001600160a01b031615806140f65750600f546001600160a01b031633145b614147576040805162461bcd60e51b815260206004820152601360248201527f756e617574686f72697a65642063616c6c657200000000000000000000000000604482015290519081900360640190fd5b565b6000805b835481101561426e57828051906020012084828154811061416a57fe5b9060005260206000200160405180828054600181600116156101000203166002900480156141cf5780601f106141ad5761010080835404028352918201916141cf565b820191906000526020600020905b8154815290600101906020018083116141bb575b505091505060405180910390201415614266578354849060001981019081106141f457fe5b9060005260206000200184828154811061420a57fe5b906000526020600020019080546001816001161561010002031660029004614233929190615bd8565b508380548061423e57fe5b60019003818190600052602060002001600061425a9190615c4d565b90556001915050610d97565b60010161414d565b5060009392505050565b600b54604080516323b872dd60e01b81523360048201526001600160a01b03928316602482015260448101849052905184928316916323b872dd9160648083019260209291908290030181600087803b1580156142d457600080fd5b505af11580156142e8573d6000803e3d6000fd5b505050506040513d60208110156142fe57600080fd5b5050600b54604080516334ef2a2160e21b81523060048201526001600160a01b038681166024830152604482018690529151919092169163d3bca88491606480830192600092919082900301818387803b15801561435b57600080fd5b505af1158015611f96573d6000803e3d6000fd5b6000600160201b82106143b35760405162461bcd60e51b8152600401808060200182810382526026815260200180615d5f6026913960400191505060405180910390fd5b5090565b60008282018183128015906143cc5750838112155b806143e157506000831280156143e157508381125b610d945760405162461bcd60e51b8152600401808060200182810382526021815260200180615cf76021913960400191505060405180910390fd5b6000610d9461443283600263ffffffff613fae16565b83858161443b57fe5b06101561444957600061444c565b60015b60ff16614036858563ffffffff613fae16565b600082820183811015610d94576040805162461bcd60e51b815260206004820152601b60248201527f536166654d6174683a206164646974696f6e206f766572666c6f770000000000604482015290519081900360640190fd5b600854604051638c922b6360e01b81526020600482018181528651602484015286516000948594859485946001600160a01b0390931693638c922b63938c9390928392604490920191908501908083838b5b8381101561452357818101518382015260200161450b565b50505050905090810190601f1680156145505780820380516001836020036101000a031916815260200191505b509250505060206040518083038186803b15801561456d57600080fd5b505afa158015614581573d6000803e3d6000fd5b505050506040513d602081101561459757600080fd5b5051905060018560028111156145a957fe5b1415614648578560c001516001600160781b03169250806001600160a01b031663d0acc58f306040518263ffffffff1660e01b815260040180826001600160a01b03166001600160a01b0316815260200191505060206040518083038186803b15801561461557600080fd5b505afa158015614629573d6000803e3d6000fd5b505050506040513d602081101561463f57600080fd5b505191506146dd565b8560e001516001600160781b03169250806001600160a01b03166370a08231306040518263ffffffff1660e01b815260040180826001600160a01b03166001600160a01b0316815260200191505060206040518083038186803b1580156146ae57600080fd5b505afa1580156146c2573d6000803e3d6000fd5b505050506040513d60208110156146d857600080fd5b505191505b8183116146eb5760006146ef565b8183035b979650505050505050565b61470381615530565b60408051630110ceef60e21b8152602060048201819052601260248301527f4c696e656172496e746572706f6c61746f720000000000000000000000000000604483015291516001600160a01b038416926304433bbc9260648082019391829003018186803b15801561477557600080fd5b505afa158015614789573d6000803e3d6000fd5b505050506040513d602081101561479f57600080fd5b5051601880546001600160a01b0319166001600160a01b0390921691909117905550565b6000600160781b82106143b35760405162461bcd60e51b8152600401808060200182810382526027815260200180615cd06027913960400191505060405180910390fd5b600080614813836128eb565b915081156148c6576103e861484b6148458661135b614838878663ffffffff613f5516565b8a9063ffffffff613f5516565b8261441c565b600854604080516356a6d9ef60e01b81526001600160a01b0388811660048301526024820185905291519395509116916356a6d9ef9160448082019260009290919082900301818387803b1580156148a257600080fd5b505af11580156148b6573d6000803e3d6000fd5b505050506148c48484613ff0565b505b6148d1838383615a19565b935093915050565b60008060018360028111156148ea57fe5b14614909576010546017546149049163ffffffff61404216565b61491e565b60175460105461491e9163ffffffff61445f16565b9050600061492f85600001516153c0565b601854608087015160a08801516101008901516101208a01516040516356e9c37160e11b81526004810187815263ffffffff80871660248401528516604483015260a482018a905260c060648301908152845160c484015284519899506001600160a01b039097169763add386e2978a97969594938c9392608482019160e401906020808901910280838360005b838110156149d55781810151838201526020016149bd565b50505050905001838103825285818151815260200191508051906020019060200280838360005b83811015614a145781810151838201526020016149fc565b505050509050019850505050505050505060206040518083038186803b158015614a3d57600080fd5b505afa158015614a51573d6000803e3d6000fd5b505050506040513d6020811015614a6757600080fd5b505195945050505050565b600080614a7d612b24565b90506000614a9860115460175461404290919063ffffffff16565b600854875160165460208a01516040808c015160608d01519151635a1a74eb60e11b81526001600160a01b03868116600483019081526024830187905298995060009897169663b434e9d69695949391604401846001811115614af757fe5b60ff168152602001836001600160781b031681526020018263ffffffff1681526020019550505050505060206040518083038186803b158015614b3957600080fd5b505afa158015614b4d573d6000803e3d6000fd5b505050506040513d6020811015614b6357600080fd5b505190506001856002811115614b7557fe5b1415614bd35785811115614bc857614bc3614baf614ba260175461135b868b613f5590919063ffffffff16565b839063ffffffff61404216565b60165461135b90869063ffffffff613f5516565b614bcc565b6000195b9350614fe4565b600854604080516370a0823160e01b815230600482015290516000926001600160a01b0316916370a08231916024808301926020929190829003018186803b158015614c1e57600080fd5b505afa158015614c32573d6000803e3d6000fd5b505050506040513d6020811015614c4857600080fd5b5051600854604080516352fee2ef60e11b815230600482015290519293506000926001600160a01b039092169163a5fdc5de91602480820192602092909190829003018186803b158015614c9b57600080fd5b505afa158015614caf573d6000803e3d6000fd5b505050506040513d6020811015614cc557600080fd5b810190808051906020019092919050505090506000614e4584600860009054906101000a90046001600160a01b03166001600160a01b0316638c922b638e6040518263ffffffff1660e01b81526004018080602001828103825283818151815260200191508051906020019080838360005b83811015614d4f578181015183820152602001614d37565b50505050905090810190601f168015614d7c5780820380516001836020036101000a031916815260200191505b509250505060206040518083038186803b158015614d9957600080fd5b505afa158015614dad573d6000803e3d6000fd5b505050506040513d6020811015614dc357600080fd5b50516040805163d0acc58f60e01b815230600482015290516001600160a01b039092169163d0acc58f91602480820192602092909190829003018186803b158015614e0d57600080fd5b505afa158015614e21573d6000803e3d6000fd5b505050506040513d6020811015614e3757600080fd5b50519063ffffffff613f5516565b9050808211614e55576000614e65565b614e65828263ffffffff61404216565b91506000600860009054906101000a90046001600160a01b03166001600160a01b03166383a7e7e18c600001518d602001518e604001518f606001516040518563ffffffff1660e01b815260040180856001600160a01b03166001600160a01b03168152602001846001811115614ed857fe5b60ff168152602001836001600160781b031681526020018263ffffffff16815260200194505050505060206040518083038186803b158015614f1957600080fd5b505afa158015614f2d573d6000803e3d6000fd5b505050506040513d6020811015614f4357600080fd5b50519050808a1115614f9657614f91614f628b8363ffffffff61404216565b61135b601654611b55614f848b61135b6017548b613f5590919063ffffffff16565b899063ffffffff61404216565b614f9a565b6000195b9750614fbe88614fb98c61135b60165489613f5590919063ffffffff16565b615a1e565b9750614fdd88612ec78c61135b60165489613f5590919063ffffffff16565b9750505050505b505050949350505050565b6000614ffd84866001613ebf565b9350600061501a60165461135b8688613f5590919063ffffffff16565b6008549091506001600160a01b038481169116146150de57600a5460408051632a6f500560e11b81526001600160a01b038681166004830152825160009485949216926354dea00a926024808301939192829003018186803b15801561507f57600080fd5b505afa158015615093573d6000803e3d6000fd5b505050506040513d60408110156150a957600080fd5b50805160209091015190925090506150cb8161135b858563ffffffff613f5516565b92506150d78584614278565b5050615150565b600854604080516353035ca560e11b81523360048201523060248201526044810184905290516001600160a01b039092169163a606b94a9160648082019260009290919082900301818387803b15801561513757600080fd5b505af115801561514b573d6000803e3d6000fd5b505050505b5092949350505050565b6040805163d0acc58f60e01b815230600482015290516000916001600160a01b0387169163d0acc58f91602480820192602092909190829003018186803b1580156151a457600080fd5b505afa1580156151b8573d6000803e3d6000fd5b505050506040513d60208110156151ce57600080fd5b505160c08501519091506001600160781b03166151f1828563ffffffff61445f16565b1115615237576040805162461bcd60e51b815260206004820152601060248201526f65786365737369766520766f6c756d6560801b604482015290519081900360640190fd5b600854845160208601516040808801516060890151915163169a737360e31b81526001600160a01b0385811660048301908152602483018b905296169563b4d39b9895948a9490939290918a9160440185600181111561529357fe5b60ff168152602001846001600160781b031681526020018363ffffffff168152602001826001600160a01b03166001600160a01b031681526020019650505050505050602060405180830381600087803b1580156152f057600080fd5b505af1158015615304573d6000803e3d6000fd5b505050506040513d602081101561531a57600080fd5b5060009050615327612b24565b11610d5f576040805162461bcd60e51b8152602060048201526014602482015273706f6f6c2062616c616e636520746f6f206c6f7760601b604482015290519081900360640190fd5b816001600160a01b0316836001600160a01b03167f8c5be1e5ebec7d5bd14f71427d1e84f3dd0314c0f7b2291e5b200ac8c7c3b925836040518082815260200191505060405180910390a3505050565b600080829050806001600160a01b0316638e15f4736040518163ffffffff1660e01b8152600401604080518083038186803b1580156153fe57600080fd5b505afa158015615412573d6000803e3d6000fd5b505050506040513d604081101561542857600080fd5b50602001519392505050565b600081836154c05760405162461bcd60e51b81526004018080602001828103825283818151815260200191508051906020019080838360005b8381101561548557818101518382015260200161546d565b50505050905090810190601f1680156154b25780820380516001836020036101000a031916815260200191505b509250505060405180910390fd5b5060008385816154cc57fe5b0495945050505050565b600081848411156155285760405162461bcd60e51b815260206004820181815283516024840152835190928392604490910191908501908083836000831561548557818101518382015260200161546d565b505050900390565b615538615a2d565b6001600160a01b0316633644e5156040518163ffffffff1660e01b815260040160206040518083038186803b15801561557057600080fd5b505afa158015615584573d6000803e3d6000fd5b505050506040513d602081101561559a57600080fd5b505160065560408051631127a41d60e31b815290516001600160a01b0383169163893d20e8916004808301926020929190829003018186803b1580156155df57600080fd5b505afa1580156155f3573d6000803e3d6000fd5b505050506040513d602081101561560957600080fd5b5051600f80546001600160a01b0319166001600160a01b0392831617905560408051630110ceef60e21b8152602060048201819052600c60248301526b2a34b6b2a83937bb34b232b960a11b60448301529151928416926304433bbc92606480840193919291829003018186803b15801561568357600080fd5b505afa158015615697573d6000803e3d6000fd5b505050506040513d60208110156156ad57600080fd5b5051600980546001600160a01b0319166001600160a01b0392831617905560408051630110ceef60e21b8152602060048201819052600f60248301527f4f7074696f6e7345786368616e6765000000000000000000000000000000000060448301529151928416926304433bbc92606480840193919291829003018186803b15801561573857600080fd5b505afa15801561574c573d6000803e3d6000fd5b505050506040513d602081101561576257600080fd5b5051600880546001600160a01b0319166001600160a01b0392831617905560408051630110ceef60e21b8152602060048201819052601060248301527f50726f746f636f6c53657474696e67730000000000000000000000000000000060448301529151928416926304433bbc92606480840193919291829003018186803b1580156157ed57600080fd5b505afa158015615801573d6000803e3d6000fd5b505050506040513d602081101561581757600080fd5b5051600a80546001600160a01b0319166001600160a01b0392831617905560408051630110ceef60e21b8152602060048201819052600e60248301527f43726564697450726f766964657200000000000000000000000000000000000060448301529151928416926304433bbc92606480840193919291829003018186803b1580156158a257600080fd5b505afa1580156158b6573d6000803e3d6000fd5b505050506040513d60208110156158cc57600080fd5b5051600b80546001600160a01b0319166001600160a01b0392831617905560408051630110ceef60e21b8152602060048201819052600c60248301526b2cb4b2b6322a3930b1b5b2b960a11b60448301529151928416926304433bbc92606480840193919291829003018186803b15801561594657600080fd5b505afa15801561595a573d6000803e3d6000fd5b505050506040513d602081101561597057600080fd5b5051600c80546001600160a01b0319166001600160a01b03928316179055670de0b6b3a7640000601455633b9aca006015556008546040805163a53b004160e01b81529051919092169163a53b0041916004808301926020929190829003018186803b1580156159df57600080fd5b505afa1580156159f3573d6000803e3d6000fd5b505050506040513d6020811015615a0957600080fd5b505160165550633b9aca00601755565b505050565b6000818311613f4e5781610d94565b6002546001600160a01b031690565b6040805161014081019091526000808252602082019081526000602082018190526040820181905260608083018290526080830182905260a0830182905260c083019190915260e082018190526101009091015290565b82805482825590600052602060002090600101600290048101928215615b3b5791602002820160005b83821115615b0657835183826101000a8154816001600160781b0302191690836001600160781b031602179055509260200192600f01602081600e01049283019260010302615abc565b8015615b395782816101000a8154906001600160781b030219169055600f01602081600e01049283019260010302615b06565b505b506143b3929150615c91565b828054600181600116156101000203166002900490600052602060002090601f016020900481019282601f10615b8857805160ff1916838001178555615bb5565b82800160010185558215615bb5579182015b82811115615bb5578251825591602001919060010190615b9a565b506143b3929150615cb5565b604080518082019091526000808252602082015290565b828054600181600116156101000203166002900490600052602060002090601f016020900481019282601f10615c115780548555615bb5565b82800160010185558215615bb557600052602060002091601f016020900482015b82811115615bb5578254825591600101919060010190615c32565b50805460018160011615610100020316600290046000825580601f10615c73575061228a565b601f01602090049060005260206000209081019061228a9190615cb5565b610d8491905b808211156143b35780546001600160781b0319168155600101615c97565b610d8491905b808211156143b35760008155600101615cbb56fe53616665436173743a2076616c756520646f65736e27742066697420696e2031323020626974735369676e6564536166654d6174683a206164646974696f6e206f766572666c6f774c696e656172204c697175696469747920506f6f6c2052656465656d61626c6520546f6b656e536166654d6174683a206d756c7469706c69636174696f6e206f766572666c6f7753616665436173743a2076616c756520646f65736e27742066697420696e2033322062697473a264697066735822122062dd17924db12d2c0e71157059ab76621e108e28a30479490717de167837344a64736f6c634300060000334c696e656172204c697175696469747920506f6f6c2052656465656d61626c6520546f6b656e454950373132446f6d61696e28737472696e67206e616d652c737472696e672076657273696f6e2c75696e7432353620636861696e49642c6164647265737320766572696679696e67436f6e747261637429",
  "source": "pragma solidity >=0.6.0;\n\nimport \"./LinearInterpolator.sol\";\nimport \"./LiquidityPool.sol\";\n\ncontract LinearLiquidityPool is LiquidityPool {\n    \n    LinearInterpolator private interpolator;\n\n    string private constant _name = \"Linear Liquidity Pool Redeemable Token\";\n    string private constant _symbol = \"LLPTK\";\n\n    constructor() LiquidityPool(_name) public {\n        \n    }\n\n    function initialize(Deployer deployer) override internal {\n\n        super.initialize(deployer);\n        interpolator = LinearInterpolator(deployer.getContractAddress(\"LinearInterpolator\"));\n    }\n\n    function name() override external view returns (string memory) {\n        return _name;\n    }\n\n    function symbol() override external view returns (string memory) {\n        return _symbol;\n    }\n\n    function writeOptions(\n        OptionToken tk,\n        PricingParameters memory param,\n        uint volume,\n        address to\n    )\n        internal\n        override\n    {\n        uint _written = tk.writtenVolume(address(this));\n        require(_written.add(volume) <= param.buyStock, \"excessive volume\");\n\n        exchange.writeOptions(\n            param.udlFeed,\n            volume,\n            param.optType,\n            param.strike,\n            param.maturity,\n            to\n        );\n        \n        require(calcFreeBalance() > 0, \"pool balance too low\");\n    }\n\n    function calcOptPrice(PricingParameters memory p, Operation op)\n        internal\n        override\n        view\n        returns (uint price)\n    {\n        uint f = op == Operation.BUY ? spread.add(fractionBase) : fractionBase.sub(spread);\n        int udlPrice = getUdlPrice(p.udlFeed);\n        price = interpolator.interpolate(udlPrice, p.t0, p.t1, p.x, p.y, f);\n    }\n\n    function calcVolume(\n        string memory optSymbol,\n        PricingParameters memory p,\n        uint price,\n        Operation op\n    )\n        internal\n        override\n        view\n        returns (uint volume)\n    {\n        uint fb = calcFreeBalance();\n        uint r = fractionBase.sub(reserveRatio);\n\n        uint coll = exchange.calcCollateral(\n            p.udlFeed,\n            volumeBase,\n            p.optType,\n            p.strike,\n            p.maturity\n        );\n\n        if (op == Operation.BUY) {\n\n            volume = coll <= price ? uint(-1) :\n                fb.mul(volumeBase).div(\n                    coll.sub(price.mul(r).div(fractionBase))\n                );\n\n        } else {\n\n            uint bal = exchange.balanceOf(address(this));\n\n            uint poolColl = exchange.collateral(address(this));\n\n            uint writtenColl = OptionToken(\n                exchange.resolveToken(optSymbol)\n            ).writtenVolume(address(this)).mul(coll);\n\n            poolColl = poolColl > writtenColl ? poolColl.sub(writtenColl) : 0;\n            \n            uint iv = uint(exchange.calcIntrinsicValue(\n                p.udlFeed,\n                p.optType,\n                p.strike,\n                p.maturity\n            ));\n\n            volume = price <= iv ? uint(-1) :\n                bal.sub(poolColl.mul(fractionBase).div(r)).mul(volumeBase).div(\n                    price.sub(iv)\n                );\n\n            volume = MoreMath.max(\n                volume, \n                bal.mul(volumeBase).div(price)\n            );\n\n            volume = MoreMath.min(\n                volume, \n                bal.mul(volumeBase).div(price)\n            );\n        }\n    }\n}",
  "sourcePath": "/Users/dev/Documents/coding/defioptions/DeFiOptions-contracts/contracts/pools/LinearLiquidityPool.sol",
  "compiler": {
    "name": "solc",
    "version": "0.6.0+commit.26b70077.Emscripten.clang"
  },
  "schemaVersion": "3.3.3",
  "updatedAt": "2021-06-17T10:23:01.884Z",
  "devdoc": {
    "methods": {}
  },
  "userdoc": {
    "methods": {}
  }
}