{
  "contractName": "LinearLiquidityPool",
  "abi": [
    {
      "inputs": [],
      "stateMutability": "nonpayable",
      "type": "constructor"
    },
    {
      "anonymous": false,
      "inputs": [
        {
          "indexed": false,
          "internalType": "string",
          "name": "optSymbol",
          "type": "string"
        }
      ],
      "name": "AddSymbol",
      "type": "event"
    },
    {
      "anonymous": false,
      "inputs": [
        {
          "indexed": true,
          "internalType": "address",
          "name": "owner",
          "type": "address"
        },
        {
          "indexed": true,
          "internalType": "address",
          "name": "spender",
          "type": "address"
        },
        {
          "indexed": false,
          "internalType": "uint256",
          "name": "value",
          "type": "uint256"
        }
      ],
      "name": "Approval",
      "type": "event"
    },
    {
      "anonymous": false,
      "inputs": [
        {
          "indexed": true,
          "internalType": "address",
          "name": "token",
          "type": "address"
        },
        {
          "indexed": true,
          "internalType": "address",
          "name": "buyer",
          "type": "address"
        },
        {
          "indexed": false,
          "internalType": "uint256",
          "name": "price",
          "type": "uint256"
        },
        {
          "indexed": false,
          "internalType": "uint256",
          "name": "volume",
          "type": "uint256"
        }
      ],
      "name": "Buy",
      "type": "event"
    },
    {
      "anonymous": false,
      "inputs": [
        {
          "indexed": false,
          "internalType": "string",
          "name": "optSymbol",
          "type": "string"
        }
      ],
      "name": "RemoveSymbol",
      "type": "event"
    },
    {
      "anonymous": false,
      "inputs": [
        {
          "indexed": true,
          "internalType": "address",
          "name": "token",
          "type": "address"
        },
        {
          "indexed": true,
          "internalType": "address",
          "name": "seller",
          "type": "address"
        },
        {
          "indexed": false,
          "internalType": "uint256",
          "name": "price",
          "type": "uint256"
        },
        {
          "indexed": false,
          "internalType": "uint256",
          "name": "volume",
          "type": "uint256"
        }
      ],
      "name": "Sell",
      "type": "event"
    },
    {
      "anonymous": false,
      "inputs": [
        {
          "indexed": true,
          "internalType": "address",
          "name": "from",
          "type": "address"
        },
        {
          "indexed": true,
          "internalType": "address",
          "name": "to",
          "type": "address"
        },
        {
          "indexed": false,
          "internalType": "uint256",
          "name": "value",
          "type": "uint256"
        }
      ],
      "name": "Transfer",
      "type": "event"
    },
    {
      "inputs": [],
      "name": "DOMAIN_SEPARATOR",
      "outputs": [
        {
          "internalType": "bytes32",
          "name": "",
          "type": "bytes32"
        }
      ],
      "stateMutability": "view",
      "type": "function"
    },
    {
      "inputs": [],
      "name": "PERMIT_TYPEHASH",
      "outputs": [
        {
          "internalType": "bytes32",
          "name": "",
          "type": "bytes32"
        }
      ],
      "stateMutability": "view",
      "type": "function"
    },
    {
      "inputs": [
        {
          "internalType": "address",
          "name": "udlFeed",
          "type": "address"
        },
        {
          "internalType": "uint256",
          "name": "strike",
          "type": "uint256"
        },
        {
          "internalType": "uint256",
          "name": "_mt",
          "type": "uint256"
        },
        {
          "internalType": "enum OptionsExchange.OptionType",
          "name": "optType",
          "type": "uint8"
        },
        {
          "internalType": "uint256",
          "name": "t0",
          "type": "uint256"
        },
        {
          "internalType": "uint256",
          "name": "t1",
          "type": "uint256"
        },
        {
          "internalType": "uint120[]",
          "name": "x",
          "type": "uint120[]"
        },
        {
          "internalType": "uint120[]",
          "name": "y",
          "type": "uint120[]"
        },
        {
          "internalType": "uint256",
          "name": "buyStock",
          "type": "uint256"
        },
        {
          "internalType": "uint256",
          "name": "sellStock",
          "type": "uint256"
        }
      ],
      "name": "addSymbol",
      "outputs": [],
      "stateMutability": "nonpayable",
      "type": "function"
    },
    {
      "inputs": [
        {
          "internalType": "address",
          "name": "owner",
          "type": "address"
        },
        {
          "internalType": "address",
          "name": "spender",
          "type": "address"
        }
      ],
      "name": "allowance",
      "outputs": [
        {
          "internalType": "uint256",
          "name": "",
          "type": "uint256"
        }
      ],
      "stateMutability": "view",
      "type": "function"
    },
    {
      "inputs": [
        {
          "internalType": "address",
          "name": "spender",
          "type": "address"
        },
        {
          "internalType": "uint256",
          "name": "value",
          "type": "uint256"
        }
      ],
      "name": "approve",
      "outputs": [
        {
          "internalType": "bool",
          "name": "",
          "type": "bool"
        }
      ],
      "stateMutability": "nonpayable",
      "type": "function"
    },
    {
      "inputs": [
        {
          "internalType": "address",
          "name": "owner",
          "type": "address"
        }
      ],
      "name": "balanceOf",
      "outputs": [
        {
          "internalType": "uint256",
          "name": "",
          "type": "uint256"
        }
      ],
      "stateMutability": "view",
      "type": "function"
    },
    {
      "inputs": [
        {
          "internalType": "string",
          "name": "optSymbol",
          "type": "string"
        },
        {
          "internalType": "uint256",
          "name": "price",
          "type": "uint256"
        },
        {
          "internalType": "uint256",
          "name": "volume",
          "type": "uint256"
        },
        {
          "internalType": "address",
          "name": "token",
          "type": "address"
        },
        {
          "internalType": "uint256",
          "name": "maxValue",
          "type": "uint256"
        },
        {
          "internalType": "uint256",
          "name": "deadline",
          "type": "uint256"
        },
        {
          "internalType": "uint8",
          "name": "v",
          "type": "uint8"
        },
        {
          "internalType": "bytes32",
          "name": "r",
          "type": "bytes32"
        },
        {
          "internalType": "bytes32",
          "name": "s",
          "type": "bytes32"
        }
      ],
      "name": "buy",
      "outputs": [
        {
          "internalType": "address",
          "name": "_tk",
          "type": "address"
        }
      ],
      "stateMutability": "nonpayable",
      "type": "function"
    },
    {
      "inputs": [
        {
          "internalType": "string",
          "name": "optSymbol",
          "type": "string"
        },
        {
          "internalType": "uint256",
          "name": "price",
          "type": "uint256"
        },
        {
          "internalType": "uint256",
          "name": "volume",
          "type": "uint256"
        },
        {
          "internalType": "address",
          "name": "token",
          "type": "address"
        }
      ],
      "name": "buy",
      "outputs": [
        {
          "internalType": "address",
          "name": "_tk",
          "type": "address"
        }
      ],
      "stateMutability": "nonpayable",
      "type": "function"
    },
    {
      "inputs": [],
      "name": "calcFreeBalance",
      "outputs": [
        {
          "internalType": "uint256",
          "name": "balance",
          "type": "uint256"
        }
      ],
      "stateMutability": "view",
      "type": "function"
    },
    {
      "inputs": [],
      "name": "decimals",
      "outputs": [
        {
          "internalType": "uint8",
          "name": "",
          "type": "uint8"
        }
      ],
      "stateMutability": "view",
      "type": "function"
    },
    {
      "inputs": [
        {
          "internalType": "address",
          "name": "to",
          "type": "address"
        },
        {
          "internalType": "address",
          "name": "token",
          "type": "address"
        },
        {
          "internalType": "uint256",
          "name": "value",
          "type": "uint256"
        }
      ],
      "name": "depositTokens",
      "outputs": [],
      "stateMutability": "nonpayable",
      "type": "function"
    },
    {
      "inputs": [
        {
          "internalType": "address",
          "name": "to",
          "type": "address"
        },
        {
          "internalType": "address",
          "name": "token",
          "type": "address"
        },
        {
          "internalType": "uint256",
          "name": "value",
          "type": "uint256"
        },
        {
          "internalType": "uint256",
          "name": "deadline",
          "type": "uint256"
        },
        {
          "internalType": "uint8",
          "name": "v",
          "type": "uint8"
        },
        {
          "internalType": "bytes32",
          "name": "r",
          "type": "bytes32"
        },
        {
          "internalType": "bytes32",
          "name": "s",
          "type": "bytes32"
        }
      ],
      "name": "depositTokens",
      "outputs": [],
      "stateMutability": "nonpayable",
      "type": "function"
    },
    {
      "inputs": [
        {
          "internalType": "contract Deployer",
          "name": "deployer",
          "type": "address"
        }
      ],
      "name": "initializeAndLock",
      "outputs": [],
      "stateMutability": "nonpayable",
      "type": "function"
    },
    {
      "inputs": [
        {
          "internalType": "string",
          "name": "optSymbol",
          "type": "string"
        },
        {
          "internalType": "enum LiquidityPool.Operation",
          "name": "op",
          "type": "uint8"
        }
      ],
      "name": "isAvailable",
      "outputs": [
        {
          "internalType": "bool",
          "name": "b",
          "type": "bool"
        }
      ],
      "stateMutability": "view",
      "type": "function"
    },
    {
      "inputs": [],
      "name": "listSymbols",
      "outputs": [
        {
          "internalType": "string",
          "name": "available",
          "type": "string"
        }
      ],
      "stateMutability": "view",
      "type": "function"
    },
    {
      "inputs": [
        {
          "internalType": "enum LiquidityPool.Operation",
          "name": "op",
          "type": "uint8"
        }
      ],
      "name": "listSymbols",
      "outputs": [
        {
          "internalType": "string",
          "name": "available",
          "type": "string"
        }
      ],
      "stateMutability": "view",
      "type": "function"
    },
    {
      "inputs": [],
      "name": "maturity",
      "outputs": [
        {
          "internalType": "uint256",
          "name": "",
          "type": "uint256"
        }
      ],
      "stateMutability": "view",
      "type": "function"
    },
    {
      "inputs": [],
      "name": "withdrawFee",
      "outputs": [
        {
          "internalType": "uint256",
          "name": "",
          "type": "uint256"
        }
      ],
      "stateMutability": "view",
      "type": "function"
    },
    {
      "inputs": [
        {
          "internalType": "address",
          "name": "",
          "type": "address"
        }
      ],
      "name": "nonces",
      "outputs": [
        {
          "internalType": "uint256",
          "name": "",
          "type": "uint256"
        }
      ],
      "stateMutability": "view",
      "type": "function"
    },
    {
      "inputs": [
        {
          "internalType": "address",
          "name": "owner",
          "type": "address"
        },
        {
          "internalType": "address",
          "name": "spender",
          "type": "address"
        },
        {
          "internalType": "uint256",
          "name": "value",
          "type": "uint256"
        },
        {
          "internalType": "uint256",
          "name": "deadline",
          "type": "uint256"
        },
        {
          "internalType": "uint8",
          "name": "v",
          "type": "uint8"
        },
        {
          "internalType": "bytes32",
          "name": "r",
          "type": "bytes32"
        },
        {
          "internalType": "bytes32",
          "name": "s",
          "type": "bytes32"
        }
      ],
      "name": "permit",
      "outputs": [],
      "stateMutability": "nonpayable",
      "type": "function"
    },
    {
      "inputs": [
        {
          "internalType": "string",
          "name": "optSymbol",
          "type": "string"
        }
      ],
      "name": "queryBuy",
      "outputs": [
        {
          "internalType": "uint256",
          "name": "price",
          "type": "uint256"
        },
        {
          "internalType": "uint256",
          "name": "volume",
          "type": "uint256"
        }
      ],
      "stateMutability": "view",
      "type": "function"
    },
    {
      "inputs": [
        {
          "internalType": "string",
          "name": "optSymbol",
          "type": "string"
        }
      ],
      "name": "querySell",
      "outputs": [
        {
          "internalType": "uint256",
          "name": "price",
          "type": "uint256"
        },
        {
          "internalType": "uint256",
          "name": "volume",
          "type": "uint256"
        }
      ],
      "stateMutability": "view",
      "type": "function"
    },
    {
      "inputs": [
        {
          "internalType": "address[]",
          "name": "owners",
          "type": "address[]"
        }
      ],
      "name": "redeem",
      "outputs": [
        {
          "internalType": "uint256",
          "name": "value",
          "type": "uint256"
        }
      ],
      "stateMutability": "nonpayable",
      "type": "function"
    },
    {
      "inputs": [
        {
          "internalType": "address",
          "name": "owner",
          "type": "address"
        }
      ],
      "name": "redeem",
      "outputs": [
        {
          "internalType": "uint256",
          "name": "value",
          "type": "uint256"
        }
      ],
      "stateMutability": "nonpayable",
      "type": "function"
    },
    {
      "inputs": [],
      "name": "redeemAllowed",
      "outputs": [
        {
          "internalType": "bool",
          "name": "",
          "type": "bool"
        }
      ],
      "stateMutability": "view",
      "type": "function"
    },
    {
      "inputs": [
        {
          "internalType": "string",
          "name": "optSymbol",
          "type": "string"
        }
      ],
      "name": "removeSymbol",
      "outputs": [],
      "stateMutability": "nonpayable",
      "type": "function"
    },
    {
      "inputs": [
        {
          "internalType": "string",
          "name": "optSymbol",
          "type": "string"
        },
        {
          "internalType": "uint256",
          "name": "price",
          "type": "uint256"
        },
        {
          "internalType": "uint256",
          "name": "volume",
          "type": "uint256"
        }
      ],
      "name": "sell",
      "outputs": [],
      "stateMutability": "nonpayable",
      "type": "function"
    },
    {
      "inputs": [
        {
          "internalType": "string",
          "name": "optSymbol",
          "type": "string"
        },
        {
          "internalType": "uint256",
          "name": "price",
          "type": "uint256"
        },
        {
          "internalType": "uint256",
          "name": "volume",
          "type": "uint256"
        },
        {
          "internalType": "uint256",
          "name": "deadline",
          "type": "uint256"
        },
        {
          "internalType": "uint8",
          "name": "v",
          "type": "uint8"
        },
        {
          "internalType": "bytes32",
          "name": "r",
          "type": "bytes32"
        },
        {
          "internalType": "bytes32",
          "name": "s",
          "type": "bytes32"
        }
      ],
      "name": "sell",
      "outputs": [],
      "stateMutability": "nonpayable",
      "type": "function"
    },
    {
      "inputs": [
        {
          "internalType": "uint256",
          "name": "_spread",
          "type": "uint256"
        },
        {
          "internalType": "uint256",
          "name": "_reserveRatio",
          "type": "uint256"
        },
        {
          "internalType": "uint256",
          "name": "_withdrawFee",
          "type": "uint256"
        },
        {
          "internalType": "uint256",
          "name": "_mt",
          "type": "uint256"
        }
      ],
      "name": "setParameters",
      "outputs": [],
      "stateMutability": "nonpayable",
      "type": "function"
    },
    {
      "inputs": [
        {
          "internalType": "string",
          "name": "optSymbol",
          "type": "string"
        },
        {
          "internalType": "enum LiquidityPool.Operation",
          "name": "op",
          "type": "uint8"
        },
        {
          "internalType": "uint256",
          "name": "start",
          "type": "uint256"
        },
        {
          "internalType": "uint256",
          "name": "end",
          "type": "uint256"
        }
      ],
      "name": "setRange",
      "outputs": [],
      "stateMutability": "nonpayable",
      "type": "function"
    },
    {
      "inputs": [],
      "name": "totalSupply",
      "outputs": [
        {
          "internalType": "uint256",
          "name": "",
          "type": "uint256"
        }
      ],
      "stateMutability": "view",
      "type": "function"
    },
    {
      "inputs": [
        {
          "internalType": "address",
          "name": "to",
          "type": "address"
        },
        {
          "internalType": "uint256",
          "name": "value",
          "type": "uint256"
        }
      ],
      "name": "transfer",
      "outputs": [
        {
          "internalType": "bool",
          "name": "",
          "type": "bool"
        }
      ],
      "stateMutability": "nonpayable",
      "type": "function"
    },
    {
      "inputs": [
        {
          "internalType": "address",
          "name": "from",
          "type": "address"
        },
        {
          "internalType": "address",
          "name": "to",
          "type": "address"
        },
        {
          "internalType": "uint256",
          "name": "value",
          "type": "uint256"
        }
      ],
      "name": "transferFrom",
      "outputs": [
        {
          "internalType": "bool",
          "name": "",
          "type": "bool"
        }
      ],
      "stateMutability": "nonpayable",
      "type": "function"
    },
    {
      "inputs": [
        {
          "internalType": "uint256",
          "name": "amount",
          "type": "uint256"
        }
      ],
      "name": "withdraw",
      "outputs": [],
      "stateMutability": "nonpayable",
      "type": "function"
    },
    {
      "inputs": [
        {
          "internalType": "uint256",
          "name": "dt",
          "type": "uint256"
        }
      ],
      "name": "yield",
      "outputs": [
        {
          "internalType": "uint256",
          "name": "y",
          "type": "uint256"
        }
      ],
      "stateMutability": "view",
      "type": "function"
    },
    {
      "inputs": [],
      "name": "name",
      "outputs": [
        {
          "internalType": "string",
          "name": "",
          "type": "string"
        }
      ],
      "stateMutability": "view",
      "type": "function"
    },
    {
      "inputs": [],
      "name": "symbol",
      "outputs": [
        {
          "internalType": "string",
          "name": "",
          "type": "string"
        }
      ],
      "stateMutability": "view",
      "type": "function"
    },
    {
      "inputs": [
        {
          "internalType": "address",
          "name": "ownr",
          "type": "address"
        }
      ],
      "name": "valueOf",
      "outputs": [
        {
          "internalType": "uint256",
          "name": "",
          "type": "uint256"
        }
      ],
      "stateMutability": "view",
      "type": "function"
    }
  ],
  "bytecode": "0x60806040523480156200001157600080fd5b506040518060600160405280602681526020016200600860269139604051819046908060526200602e8239604080519182900360520182208551602096870120838301835260018452603160f81b93870193909352815180870191909152808201929092527fc89efdaa54c0f20c7adf612882df0950f5a951637e0307cdcb4c672f298b8bc6606083015260808201939093523060a0808301919091528351808303909101815260c090910190925250805191012060065550615f2e80620000da6000396000f3fe608060405234801561001057600080fd5b50600436106102275760003560e01c806365288dde116101305780639cfbb00b116100b8578063c7f1978e1161007c578063c7f1978e14610bec578063d259945d14610bf4578063d505accf14610c98578063dd62ed3e14610ce9578063fcd9da4414610d1757610227565b80639cfbb00b146109a4578063a48028aa14610a21578063a57a8aad14610a47578063a9059cbb14610b08578063ad56d52e14610b3457610227565b80638730b205116100ff5780638730b205146108105780638bd9513e146108b15780638e424b6b146108b957806395a2251f1461097657806395d89b411461099c57610227565b806365288dde146106b257806370a08231146107a7578063765287ef146107cd5780637ecebe00146107ea57610227565b8063313ce567116101b3578063428f15d611610182578063428f15d61461056a578063439fa0881461061357806345e77633146106645780635838d1271461066c5780635c1bfb321461068c57610227565b8063313ce567146104a05780633644e515146104be57806336977d32146104c657806339dc5ef21461053457610227565b806318160ddd116101fa57806318160ddd14610423578063204f83f91461043d57806323b872dd146104455780632e1a7d4d1461047b57806330adf81f1461049857610227565b806304804ee81461022c57806306fdde03146102a2578063095ea7b31461031f578063096457571461035f575b600080fd5b6102a06004803603606081101561024257600080fd5b810190602081018135600160201b81111561025c57600080fd5b82018360208201111561026e57600080fd5b803590602001918460018302840111600160201b8311171561028f57600080fd5b919350915080359060200135610d46565b005b6102aa610d94565b6040805160208082528351818301528351919283929083019185019080838360005b838110156102e45781810151838201526020016102cc565b50505050905090810190601f1680156103115780820380516001836020036101000a031916815260200191505b509250505060405180910390f35b61034b6004803603604081101561033557600080fd5b506001600160a01b038135169060200135610db5565b604080519115158252519081900360200190f35b6102a0600480360360e081101561037557600080fd5b810190602081018135600160201b81111561038f57600080fd5b8201836020820111156103a157600080fd5b803590602001918460018302840111600160201b831117156103c257600080fd5b91908080601f0160208091040260200160405190810160405280939291908181526020018383808284376000920191909152509295505082359350505060208101359060408101359060ff6060820135169060808101359060a00135610dcb565b61042b61157b565b60408051918252519081900360200190f35b61042b611581565b61034b6004803603606081101561045b57600080fd5b506001600160a01b03813581169160208101359091169060400135611587565b6102a06004803603602081101561049157600080fd5b5035611663565b61042b611895565b6104a86118b9565b6040805160ff9092168252519081900360200190f35b61042b6118be565b6102a0600480360360208110156104dc57600080fd5b810190602081018135600160201b8111156104f657600080fd5b82018360208201111561050857600080fd5b803590602001918460018302840111600160201b8311171561052957600080fd5b5090925090506118c4565b6102a06004803603606081101561054a57600080fd5b506001600160a01b03813581169160208101359091169060400135611ae2565b61034b6004803603604081101561058057600080fd5b810190602081018135600160201b81111561059a57600080fd5b8201836020820111156105ac57600080fd5b803590602001918460018302840111600160201b831117156105cd57600080fd5b91908080601f0160208091040260200160405190810160405280939291908181526020018383808284376000920191909152509295505050903560ff169150611ccb9050565b6102a0600480360360e081101561062957600080fd5b506001600160a01b03813581169160208101359091169060408101359060608101359060ff6080820135169060a08101359060c00135611fdb565b6102aa612079565b6102aa6004803603602081101561068257600080fd5b503560ff1661208a565b6102a0600480360360208110156106a257600080fd5b50356001600160a01b03166122e9565b6102a060048036036101408110156106c957600080fd5b6001600160a01b038235169160208101359160408201359160ff6060820135169160808201359160a08101359181019060e0810160c0820135600160201b81111561071357600080fd5b82018360208201111561072557600080fd5b803590602001918460208302840111600160201b8311171561074657600080fd5b919390929091602081019035600160201b81111561076357600080fd5b82018360208201111561077557600080fd5b803590602001918460208302840111600160201b8311171561079657600080fd5b919350915080359060200135612367565b61042b600480360360208110156107bd57600080fd5b50356001600160a01b03166129c5565b61042b600480360360208110156107e357600080fd5b50356129e0565b61042b6004803603602081101561080057600080fd5b50356001600160a01b0316612a64565b61042b6004803603602081101561082657600080fd5b810190602081018135600160201b81111561084057600080fd5b82018360208201111561085257600080fd5b803590602001918460208302840111600160201b8311171561087357600080fd5b919080806020026020016040519081016040528093929190818152602001838360200280828437600092019190915250929550612a76945050505050565b61042b612bfe565b61095d600480360360208110156108cf57600080fd5b810190602081018135600160201b8111156108e957600080fd5b8201836020820111156108fb57600080fd5b803590602001918460018302840111600160201b8311171561091c57600080fd5b91908080601f016020809104026020016040519081016040528093929190818152602001838380828437600092019190915250929550612d4f945050505050565b6040805192835260208301919091528051918290030190f35b61042b6004803603602081101561098c57600080fd5b50356001600160a01b0316612fae565b6102aa61300b565b6102a0600480360360808110156109ba57600080fd5b810190602081018135600160201b8111156109d457600080fd5b8201836020820111156109e657600080fd5b803590602001918460018302840111600160201b83111715610a0757600080fd5b919350915060ff813516906020810135906040013561302a565b61042b60048036036020811015610a3757600080fd5b50356001600160a01b03166130ff565b610aec6004803603610120811015610a5e57600080fd5b810190602081018135600160201b811115610a7857600080fd5b820183602082011115610a8a57600080fd5b803590602001918460018302840111600160201b83111715610aab57600080fd5b91935091508035906020810135906001600160a01b036040820135169060608101359060808101359060ff60a0820135169060c08101359060e0013561313f565b604080516001600160a01b039092168252519081900360200190f35b61034b60048036036040811015610b1e57600080fd5b506001600160a01b03813516906020013561321f565b610aec60048036036080811015610b4a57600080fd5b810190602081018135600160201b811115610b6457600080fd5b820183602082011115610b7657600080fd5b803590602001918460018302840111600160201b83111715610b9757600080fd5b91908080601f01602080910402602001604051908101604052809392919081815260200183838082843760009201919091525092955050823593505050602081013590604001356001600160a01b0316613271565b61034b61377a565b61095d60048036036020811015610c0a57600080fd5b810190602081018135600160201b811115610c2457600080fd5b820183602082011115610c3657600080fd5b803590602001918460018302840111600160201b83111715610c5757600080fd5b91908080601f0160208091040260200160405190810160405280939291908181526020018383808284376000920191909152509295506137f6945050505050565b6102a0600480360360e0811015610cae57600080fd5b506001600160a01b03813581169160208101359091169060408101359060608101359060ff6080820135169060a08101359060c00135613a48565b61042b60048036036040811015610cff57600080fd5b506001600160a01b0381358116916020013516613c56565b6102a060048036036080811015610d2d57600080fd5b5080359060208101359060408101359060600135613c81565b6000610d8d85858080601f01602080910402602001604051908101604052809392919081815260200183838082843760009201829052508893508792509050808680610dcb565b5050505050565b6060604051806060016040528060268152602001615e646026913990505b90565b6000610dc2338484613c9d565b90505b92915050565b60008511610e11576040805162461bcd60e51b815260206004820152600e60248201526d696e76616c696420766f6c756d6560901b604482015290519081900360640190fd5b610e1a87613ce5565b610e22615b88565b600d886040518082805190602001908083835b60208310610e545780518252601f199092019160209182019101610e35565b51815160209384036101000a6000190180199092169116179052920194855250604080519485900382018520610140860190915280546001600160a01b03811686529093509084019150600160a01b900460ff166001811115610eb357fe5b6001811115610ebe57fe5b815260018201546001600160781b03808216602080850191909152600160781b80840463ffffffff908116604080880191909152600160981b860482166060880152600160b81b909504166080860152600286015480841660a08701520490911660c084015260038401805483518184028101840190945280845260e0909401939091830182828015610fa257602002820191906000526020600020906000905b82829054906101000a90046001600160781b03166001600160781b0316815260200190600f0190602082600e01049283019260010382029150808411610f5f5790505b505050505081526020016004820180548060200260200160405190810160405280929190818152602001828054801561102c57602002820191906000526020600020906000905b82829054906101000a90046001600160781b03166001600160781b0316815260200190600f0190602082600e01049283019260010382029150808411610fe95790505b50505050508152505090506110478860028360000151613db1565b611087576040805162461bcd60e51b815260206004820152600c60248201526b6f7574206f662072616e676560a01b604482015290519081900360640190fd5b61109387826002613ecc565b600854604051638c922b6360e01b81526020600482018181528c5160248401528c51949b506000946001600160a01b0390941693638c922b63938e938392604490920191908501908083838b5b838110156110f85781810151838201526020016110e0565b50505050905090810190601f1680156111255780820380516001836020036101000a031916815260200191505b509250505060206040518083038186803b15801561114257600080fd5b505afa158015611156573d6000803e3d6000fd5b505050506040513d602081101561116c57600080fd5b50519050808615611202576040805163d505accf60e01b8152336004820152306024820152604481018a90526064810189905260ff8816608482015260a4810187905260c4810186905290516001600160a01b0383169163d505accf9160e480830192600092919082900301818387803b1580156111e957600080fd5b505af11580156111fd573d6000803e3d6000fd5b505050505b604080516323b872dd60e01b8152336004820152306024820152604481018a905290516001600160a01b038316916323b872dd9160648083019260209291908290030181600087803b15801561125757600080fd5b505af115801561126b573d6000803e3d6000fd5b505050506040513d602081101561128157600080fd5b50506040805163d0acc58f60e01b815230600482015290516000916001600160a01b0384169163d0acc58f91602480820192602092909190829003018186803b1580156112cd57600080fd5b505afa1580156112e1573d6000803e3d6000fd5b505050506040513d60208110156112f757600080fd5b50519050801561136f57600061130d828b613f4c565b9050826001600160a01b03166342966c68826040518263ffffffff1660e01b815260040180828152602001915050600060405180830381600087803b15801561135557600080fd5b505af1158015611369573d6000803e3d6000fd5b50505050505b601754600090611395906113898d8d63ffffffff613f6216565b9063ffffffff613fbb16565b600854604080516356a6d9ef60e01b81523360048201526024810184905290519293506001600160a01b03909116916356a6d9ef9160448082019260009290919082900301818387803b1580156113eb57600080fd5b505af11580156113ff573d6000803e3d6000fd5b50505050600061140d612bfe565b11611456576040805162461bcd60e51b8152602060048201526014602482015273706f6f6c2062616c616e636520746f6f206c6f7760601b604482015290519081900360640190fd5b604080516370a0823160e01b815230600482015290516000916001600160a01b038616916370a0823191602480820192602092909190829003018186803b1580156114a057600080fd5b505afa1580156114b4573d6000803e3d6000fd5b505050506040513d60208110156114ca57600080fd5b505160e08701519091506001600160781b0316811115611524576040805162461bcd60e51b815260206004820152601060248201526f65786365737369766520766f6c756d6560801b604482015290519081900360640190fd5b604080518d8152602081018d9052815133926001600160a01b038916927fa082022e93cfcd9f1da5f9236718053910f7e840da080c789c7845698dc032ff929081900390910190a350505050505050505050505050565b60075490565b60135490565b6000611592846129c5565b82111561159e57600080fd5b6001600160a01b03841660009081526004602090815260408083203384529091529020548211156115ce57600080fd5b6001600160a01b0383166115e157600080fd5b6115eb8483613ffd565b6115f58383614036565b6001600160a01b0384166000908152600460209081526040808320338452909152902054611629908363ffffffff61404f16565b6001600160a01b0385166000908152600460209081526040808320338452909152902055611658848484614091565b5060015b9392505050565b600061166e336129c5565b9050818110156116c5576040805162461bcd60e51b815260206004820152601b60248201527f696e73756666696369656e742063616c6c65722062616c616e63650000000000604482015290519081900360640190fd5b60006116e482611389856116d8336130ff565b9063ffffffff613f6216565b9050600061171560185461138961170860125460185461404f90919063ffffffff16565b859063ffffffff613f6216565b905061171f612bfe565b811115611773576040805162461bcd60e51b815260206004820152601960248201527f696e73756666696369656e7420706f6f6c2062616c616e636500000000000000604482015290519081900360640190fd5b60008061177e6140e1565b600854604080516353035ca560e11b81523060048201523360248201526044810188905290519395509193506001600160a01b03169163a606b94a9160648082019260009290919082900301818387803b1580156117db57600080fd5b505af11580156117ef573d6000803e3d6000fd5b5050600c546001600160a01b0316915063e28547279050611816848463ffffffff6141dc16565b61181f87614241565b6000036040518363ffffffff1660e01b81526004018083815260200182815260200192505050600060405180830381600087803b15801561185f57600080fd5b505af1158015611873573d6000803e3d6000fd5b505050506118813387613ffd565b61188d33600088614091565b505050505050565b7f6e71edae12b1b97f4d1f60370fef10105fa2faae0126114a169c64845d6126c981565b601290565b60065481565b6118cc614289565b6118d4615b88565b80600d84846040518083838082843791909101948552505060405160209381900384019020845181546001600160a01b0319166001600160a01b039091161780825593850151909390925083915060ff60a01b1916600160a01b83600181111561193a57fe5b021790555060408201516001820180546060850151608086015160a08701516001600160781b03199384166001600160781b039687161763ffffffff60781b1916600160781b63ffffffff94851681029190911763ffffffff60981b1916600160981b938516939093029290921763ffffffff60b81b1916600160b81b93909116929092029190911790925560c085015160028501805460e08801519316918516919091176effffffffffffffffffffffffffffff60781b1916919093169091021790556101008201518051611a1a916003840191602090910190615bdf565b506101208201518051611a37916004840191602090910190615bdf565b50905050611a7c601484848080601f0160208091040260200160405190810160405280939291908181526020018383808284376000920191909152506142fe92505050565b507f4b62493f4f8ba00316d1e11c870ddc857bd37e50aafe15a7ad4d3f6ac1c6d34d838360405180806020018281038252848482818152602001925080828437600083820152604051601f909101601f19169092018290039550909350505050a1505050565b600080611aed6140e1565b91509150611afb848461442d565b600854604080516370a0823160e01b815230600482015290516000926001600160a01b0316916370a08231916024808301926020929190829003018186803b158015611b4657600080fd5b505afa158015611b5a573d6000803e3d6000fd5b505050506040513d6020811015611b7057600080fd5b5051600c549091506001600160a01b031663e2854727611b96858563ffffffff6141dc16565b611bae611ba9858863ffffffff61404f16565b614241565b6040518363ffffffff1660e01b81526004018083815260200182815260200192505050600060405180830381600087803b158015611beb57600080fd5b505af1158015611bff573d6000803e3d6000fd5b5050600754915060009050611c1a848463ffffffff6141dc16565b90506000611c3b826113896018546116d88a8961404f90919063ffffffff16565b90506103e8600084611c5c57611c57848363ffffffff613f6216565b611c87565b601854611c8790611c73908563ffffffff61404f16565b611389846116d8898863ffffffff613f6216565b9050611c938183614524565b9050611c9f8b82614036565b611caf858263ffffffff61456716565b600755611cbe60008c83614091565b5050505050505050505050565b6001611cd5615b88565b600d846040518082805190602001908083835b60208310611d075780518252601f199092019160209182019101611ce8565b51815160209384036101000a6000190180199092169116179052920194855250604080519485900382018520610140860190915280546001600160a01b03811686529093509084019150600160a01b900460ff166001811115611d6657fe5b6001811115611d7157fe5b815260018201546001600160781b03808216602080850191909152600160781b80840463ffffffff908116604080880191909152600160981b860482166060880152600160b81b909504166080860152600286015480841660a08701520490911660c084015260038401805483518184028101840190945280845260e0909401939091830182828015611e5557602002820191906000526020600020906000905b82829054906101000a90046001600160781b03166001600160781b0316815260200190600f0190602082600e01049283019260010382029150808411611e125790505b5050505050815260200160048201805480602002602001604051908101604052809291908181526020018280548015611edf57602002820191906000526020600020906000905b82829054906101000a90046001600160781b03166001600160781b0316815260200190600f0190602082600e01049283019260010382029150808411611e9c5790505b5050505050815250509050600960009054906101000a90046001600160a01b03166001600160a01b031663bbe4fd506040518163ffffffff1660e01b815260040160206040518083038186803b158015611f3857600080fd5b505afa158015611f4c573d6000803e3d6000fd5b505050506040513d6020811015611f6257600080fd5b5051606082015163ffffffff1611611f7d5760009150611fd4565b6001836002811115611f8b57fe5b1480611fa257506002836002811115611fa057fe5b145b15611fd457611fb684848360000151613db1565b611fc35760009150611fd4565b6000611fd08583866145c1565b1191505b5092915050565b6040805163d505accf60e01b8152336004820152306024820152604481018790526064810186905260ff8516608482015260a4810184905260c4810183905290516001600160a01b0388169163d505accf9160e480830192600092919082900301818387803b15801561204d57600080fd5b505af1158015612061573d6000803e3d6000fd5b50505050612070878787611ae2565b50505050505050565b6060612085600161208a565b905090565b606060005b6014548110156122e357612142601482815481106120a957fe5b600091825260209182902001805460408051601f60026000196101006001871615020190941693909304928301859004850281018501909152818152928301828280156121375780601f1061210c57610100808354040283529160200191612137565b820191906000526020600020905b81548152906001019060200180831161211a57829003601f168201915b505050505084611ccb565b156122db5781516121f4576014818154811061215a57fe5b600091825260209182902001805460408051601f60026000196101006001871615020190941693909304928301859004850281018501909152818152928301828280156121e85780601f106121bd576101008083540402835291602001916121e8565b820191906000526020600020905b8154815290600101906020018083116121cb57829003601f168201915b505050505091506122db565b816014828154811061220257fe5b906000526020600020016040516020018083805190602001908083835b6020831061223e5780518252601f19909201916020918201910161221f565b6001836020036101000a03801982511681845116808217855250505050505090500180600560f91b815250600101828054600181600116156101000203166002900480156122c35780601f106122a15761010080835404028352918201916122c3565b820191906000526020600020905b8154815290600101906020018083116122af575b50509250505060405160208183030381529060405291505b60010161208f565b50919050565b600254600160a01b900460ff1615612348576040805162461bcd60e51b815260206004820152601560248201527f696e697469616c697a6174696f6e206c6f636b65640000000000000000000000604482015290519081900360640190fd5b6002805460ff60a01b1916600160a01b17905561236481614802565b50565b61236f614289565b6013548a106123c5576040805162461bcd60e51b815260206004820152601060248201527f696e76616c6964206d6174757269747900000000000000000000000000000000604482015290519081900360640190fd5b84158015906123e35750826123e186600263ffffffff613f6216565b145b612434576040805162461bcd60e51b815260206004820152601760248201527f696e76616c69642070726963696e672073757266616365000000000000000000604482015290519081900360640190fd5b6060600860009054906101000a90046001600160a01b03166001600160a01b031663edb5fd4f8e8c8f8f6040518563ffffffff1660e01b815260040180856001600160a01b03166001600160a01b0316815260200184600181111561249557fe5b60ff16815260200183815260200182815260200194505050505060006040518083038186803b1580156124c757600080fd5b505afa1580156124db573d6000803e3d6000fd5b505050506040513d6000823e601f3d908101601f19168201604052602081101561250457600080fd5b8101908080516040519392919084600160201b82111561252357600080fd5b90830190602082018581111561253857600080fd5b8251600160201b81118282018810171561255157600080fd5b82525081516020918201929091019080838360005b8381101561257e578181015183820152602001612566565b50505050905090810190601f1680156125ab5780820380516001836020036101000a031916815260200191505b506040525050509050600d816040518082805190602001908083835b602083106125e65780518252601f1990920191602091820191016125c7565b51815160209384036101000a600019018019909216911617905292019485525060405193849003019092206003015415159150612664905057601480546001810182556000919091528151612662917fce6d7b5282bd9a3661ae061feed1dbda4e52ab073b1f9285be6e155d9c38d4ec01906020840190615c93565b505b6040518061014001604052808e6001600160a01b031681526020018b600181111561268b57fe5b81526020016126998e6148cb565b6001600160781b031681526020016126b08d61490f565b63ffffffff1681526020016126c48b61490f565b63ffffffff1681526020016126d88a61490f565b63ffffffff1681526020016126ec856148cb565b6001600160781b03168152602001612703846148cb565b6001600160781b03168152602001888880806020026020016040519081016040528093929190818152602001838360200280828437600092019190915250505090825250604080516020888102828101820190935288825292830192909189918991829185019084908082843760009201919091525050509152506040518251600d918491819060208401908083835b602083106127b25780518252601f199092019160209182019101612793565b51815160209384036101000a6000190180199092169116179052920194855250604051938490038101909320845181546001600160a01b0319166001600160a01b039091161780825593850151909390925083915060ff60a01b1916600160a01b83600181111561281f57fe5b021790555060408201516001820180546060850151608086015160a08701516001600160781b03199384166001600160781b039687161763ffffffff60781b1916600160781b63ffffffff94851681029190911763ffffffff60981b1916600160981b938516939093029290921763ffffffff60b81b1916600160b81b93909116929092029190911790925560c085015160028501805460e08801519316918516919091176effffffffffffffffffffffffffffff60781b19169190931690910217905561010082015180516128ff916003840191602090910190615bdf565b50610120820151805161291c916004840191602090910190615bdf565b505060408051602080825284518183015284517f27136bc3b80a2a48083d0f3dd8acaf97309ab58abf6408d4ab39af25b6b4168e945085938392908301919085019080838360005b8381101561297c578181015183820152602001612964565b50505050905090810190601f1680156129a95780820380516001836020036101000a031916815260200191505b509250505060405180910390a150505050505050505050505050565b6001600160a01b031660009081526003602052604090205490565b600c5460408051631dc4ba9f60e01b81523060048201526024810184905290516000926001600160a01b031691631dc4ba9f916044808301926020929190829003018186803b158015612a3257600080fd5b505afa158015612a46573d6000803e3d6000fd5b505050506040513d6020811015612a5c57600080fd5b505192915050565b60056020526000908152604090205481565b6000612a8061377a565b612ad1576040805162461bcd60e51b815260206004820152601360248201527f72656465656d64206e6f7420616c6c6f77656400000000000000000000000000604482015290519081900360640190fd5b600854604080516370a0823160e01b815230600482015290516000926001600160a01b0316916370a08231916024808301926020929190829003018186803b158015612b1c57600080fd5b505afa158015612b30573d6000803e3d6000fd5b505050506040513d6020811015612b4657600080fd5b505160075490915081908060005b8651811015612bf15760006001600160a01b0316878281518110612b7457fe5b60200260200101516001600160a01b031614612be957600080612bab87868b8681518110612b9e57fe5b6020026020010151614953565b9092509050612bc0888263ffffffff61456716565b9750612bd2868263ffffffff61404f16565b9550612be4848363ffffffff61404f16565b935050505b600101612b54565b5060075550919392505050565b600854604080516370a0823160e01b8152306004820152905160009283926001600160a01b03909116916370a0823191602480820192602092909190829003018186803b158015612c4e57600080fd5b505afa158015612c62573d6000803e3d6000fd5b505050506040513d6020811015612c7857600080fd5b5051601854601154919250600091612c9c919061138990859063ffffffff613f6216565b600854604080516352fee2ef60e11b81523060048201529051929350600092612d27926001600160a01b03169163a5fdc5de916024808301926020929190829003018186803b158015612cee57600080fd5b505afa158015612d02573d6000803e3d6000fd5b505050506040513d6020811015612d1857600080fd5b5051849063ffffffff61404f16565b9050818111612d37576000612d47565b612d47818363ffffffff61404f16565b935050505090565b600080612d5b83613ce5565b612d63615b88565b600d846040518082805190602001908083835b60208310612d955780518252601f199092019160209182019101612d76565b51815160209384036101000a6000190180199092169116179052920194855250604080519485900382018520610140860190915280546001600160a01b03811686529093509084019150600160a01b900460ff166001811115612df457fe5b6001811115612dff57fe5b815260018201546001600160781b03808216602080850191909152600160781b80840463ffffffff908116604080880191909152600160981b860482166060880152600160b81b909504166080860152600286015480841660a08701520490911660c084015260038401805483518184028101840190945280845260e0909401939091830182828015612ee357602002820191906000526020600020906000905b82829054906101000a90046001600160781b03166001600160781b0316815260200190600f0190602082600e01049283019260010382029150808411612ea05790505b5050505050815260200160048201805480602002602001604051908101604052809291908181526020018280548015612f6d57602002820191906000526020600020906000905b82829054906101000a90046001600160781b03166001600160781b0316815260200190600f0190602082600e01049283019260010382029150808411612f2a5790505b5050505050815250509050612f83816002614a25565b9250612fa6612f958583866002614bbe565b612fa1868460026145c1565b613f4c565b915050915091565b60408051600180825281830190925260009160609190602080830190803883390190505090508281600081518110612fe257fe5b60200260200101906001600160a01b031690816001600160a01b03168152505061165c81612a76565b6040805180820190915260058152644c4c50544b60d81b602082015290565b613032614289565b6040518060400160405280613046846148cb565b6001600160781b0316815260200161305d836148cb565b6001600160781b0316815250600e86866040518083838082843780830192505050925050509081526020016040518091039020600085600281111561309e57fe5b81526020808201929092526040016000208251815493909201516001600160781b03908116600160781b026effffffffffffffffffffffffffffff60781b19919093166001600160781b031990941693909317929092161790555050505050565b600080600061310c6140e1565b9150915061313761311b61157b565b611389613127876129c5565b6116d8868663ffffffff6141dc16565b949350505050565b6040805163d505accf60e01b8152336004820152306024820152604481018790526064810186905260ff8516608482015260a4810184905260c4810183905290516000916001600160a01b0389169163d505accf9160e480820192869290919082900301818387803b1580156131b457600080fd5b505af11580156131c8573d6000803e3d6000fd5b505050506132108b8b8080601f0160208091040260200160405190810160405280939291908181526020018383808284376000920191909152508d92508c91508b9050613271565b9b9a5050505050505050505050565b600061322a336129c5565b82111561323657600080fd5b6001600160a01b03831661324957600080fd5b6132533383613ffd565b61325d8383614036565b613268338484614091565b50600192915050565b60008083116132b8576040805162461bcd60e51b815260206004820152600e60248201526d696e76616c696420766f6c756d6560901b604482015290519081900360640190fd5b6132c185613ce5565b6132c9615b88565b600d866040518082805190602001908083835b602083106132fb5780518252601f1990920191602091820191016132dc565b51815160209384036101000a6000190180199092169116179052920194855250604080519485900382018520610140860190915280546001600160a01b03811686529093509084019150600160a01b900460ff16600181111561335a57fe5b600181111561336557fe5b815260018201546001600160781b03808216602080850191909152600160781b80840463ffffffff908116604080880191909152600160981b860482166060880152600160b81b909504166080860152600286015480841660a08701520490911660c084015260038401805483518184028101840190945280845260e090940193909183018282801561344957602002820191906000526020600020906000905b82829054906101000a90046001600160781b03166001600160781b0316815260200190600f0190602082600e010492830192600103820291508084116134065790505b50505050508152602001600482018054806020026020016040519081016040528092919081815260200182805480156134d357602002820191906000526020600020906000905b82829054906101000a90046001600160781b03166001600160781b0316815260200190600f0190602082600e010492830192600103820291508084116134905790505b50505050508152505090506134ee8660018360000151613db1565b61352e576040805162461bcd60e51b815260206004820152600c60248201526b6f7574206f662072616e676560a01b604482015290519081900360640190fd5b61353a8186868661513b565b600854604051638c922b6360e01b81526020600482018181528a5160248401528a519499506001600160a01b0390931693638c922b63938b93909283926044909201919085019080838360005b8381101561359f578181015183820152602001613587565b50505050905090810190601f1680156135cc5780820380516001836020036101000a031916815260200191505b509250505060206040518083038186803b1580156135e957600080fd5b505afa1580156135fd573d6000803e3d6000fd5b505050506040513d602081101561361357600080fd5b5051604080516370a0823160e01b8152306004820152905191935083916000916001600160a01b038416916370a0823191602480820192602092909190829003018186803b15801561366457600080fd5b505afa158015613678573d6000803e3d6000fd5b505050506040513d602081101561368e57600080fd5b50519050808611156136ab576136a6828488336152a6565b613727565b6040805163a9059cbb60e01b81523360048201526024810188905290516001600160a01b0384169163a9059cbb9160448083019260209291908290030181600087803b1580156136fa57600080fd5b505af115801561370e573d6000803e3d6000fd5b505050506040513d602081101561372457600080fd5b50505b6040805188815260208101889052815133926001600160a01b038816927f89f5adc174562e07c9c9b1cae7109bbecb21cf9d1b2847e550042b8653c54a0e929081900390910190a3505050949350505050565b60135460095460408051630bbe4fd560e41b81529051600093926001600160a01b03169163bbe4fd50916004808301926020929190829003018186803b1580156137c357600080fd5b505afa1580156137d7573d6000803e3d6000fd5b505050506040513d60208110156137ed57600080fd5b50511015905090565b60008061380283613ce5565b61380a615b88565b600d846040518082805190602001908083835b6020831061383c5780518252601f19909201916020918201910161381d565b51815160209384036101000a6000190180199092169116179052920194855250604080519485900382018520610140860190915280546001600160a01b03811686529093509084019150600160a01b900460ff16600181111561389b57fe5b60018111156138a657fe5b815260018201546001600160781b03808216602080850191909152600160781b80840463ffffffff908116604080880191909152600160981b860482166060880152600160b81b909504166080860152600286015480841660a08701520490911660c084015260038401805483518184028101840190945280845260e090940193909183018282801561398a57602002820191906000526020600020906000905b82829054906101000a90046001600160781b03166001600160781b0316815260200190600f0190602082600e010492830192600103820291508084116139475790505b5050505050815260200160048201805480602002602001604051908101604052809291908181526020018280548015613a1457602002820191906000526020600020906000905b82829054906101000a90046001600160781b03166001600160781b0316815260200190600f0190602082600e010492830192600103820291508084116139d15790505b5050505050815250509050613a2a816001614a25565b9250612fa6613a3c8583866001614bbe565b612fa1868460016145c1565b42841015613a9d576040805162461bcd60e51b815260206004820152600e60248201527f7065726d69742065787069726564000000000000000000000000000000000000604482015290519081900360640190fd5b6006546001600160a01b0380891660008181526005602090815260408083208054600180820190925582517f6e71edae12b1b97f4d1f60370fef10105fa2faae0126114a169c64845d6126c98186015280840196909652958d166060860152608085018c905260a085019590955260c08085018b90528151808603909101815260e08501825280519083012061190160f01b6101008601526101028501969096526101228085019690965280518085039096018652610142840180825286519683019690962095839052610162840180825286905260ff89166101828501526101a284018890526101c28401879052519193926101e280820193601f1981019281900390910190855afa158015613bb8573d6000803e3d6000fd5b5050604051601f1901519150506001600160a01b03811615801590613bee5750886001600160a01b0316816001600160a01b0316145b613c3f576040805162461bcd60e51b815260206004820152601160248201527f696e76616c6964207369676e6174757265000000000000000000000000000000604482015290519081900360640190fd5b613c4a898989613c9d565b50505050505050505050565b6001600160a01b03918216600090815260046020908152604080832093909416825291909152205490565b613c89614289565b601093909355601191909155601255601355565b60006001600160a01b038316613cb257600080fd5b6001600160a01b0380851660009081526004602090815260408083209387168352929052208290556116588484846154bc565b60006001600160a01b0316600d826040518082805190602001908083835b60208310613d225780518252601f199092019160209182019101613d03565b51815160209384036101000a60001901801990921691161790529201948552506040519384900301909220546001600160a01b0316929092141591506123649050576040805162461bcd60e51b815260206004820152601160248201527f696e76616c6964206f707453796d626f6c000000000000000000000000000000604482015290519081900360640190fd5b6000613dbb615d0d565b600e856040518082805190602001908083835b60208310613ded5780518252601f199092019160209182019101613dce565b51815160209384036101000a60001901801990921691161790529201948552506040519384900301909220915060009050856002811115613e2a57fe5b815260208082019290925260409081016000208151808301909252546001600160781b03808216808452600160781b90920416928201929092529150158015613e7e575060208101516001600160781b0316155b15613e8d57600191505061165c565b6000613e988461550c565b82519091506001600160781b03168110801590613ec2575081602001516001600160781b03168111155b9695505050505050565b6000613ed88383614a25565b90506001826002811115613ee857fe5b14613ef65780841115613efb565b808410155b61165c576040805162461bcd60e51b815260206004820152601260248201527f696e73756666696369656e742070726963650000000000000000000000000000604482015290519081900360640190fd5b6000818310613f5b5781610dc2565b5090919050565b600082613f7157506000610dc5565b82820282848281613f7e57fe5b0414610dc25760405162461bcd60e51b8152600401808060200182810382526021815260200180615e8a6021913960400191505060405180910390fd5b6000610dc283836040518060400160405280601a81526020017f536166654d6174683a206469766973696f6e206279207a65726f000000000000815250615580565b6140168161400a846129c5565b9063ffffffff61404f16565b6001600160a01b0390921660009081526003602052604090209190915550565b61401681614043846129c5565b9063ffffffff61456716565b6000610dc283836040518060400160405280601e81526020017f536166654d6174683a207375627472616374696f6e206f766572666c6f770000815250615622565b816001600160a01b0316836001600160a01b03167fddf252ad1be2c89b69c2b068fc378daa952ba7f163c4a11628f55a4df523b3ef836040518082815260200191505060405180910390a3505050565b600854604080516370a0823160e01b8152306004820152905160009283926001600160a01b03909116916370a0823191602480820192602092909190829003018186803b15801561413157600080fd5b505afa158015614145573d6000803e3d6000fd5b505050506040513d602081101561415b57600080fd5b50516008546040805162b08c1d60e21b815230600482015290519294506001600160a01b03909116916302c2307491602480820192602092909190829003018186803b1580156141aa57600080fd5b505afa1580156141be573d6000803e3d6000fd5b505050506040513d60208110156141d457600080fd5b505191929050565b60008282018183128015906141f15750838112155b80614206575060008312801561420657508381125b610dc25760405162461bcd60e51b8152600401808060200182810382526021815260200180615e436021913960400191505060405180910390fd5b6000600160ff1b82106142855760405162461bcd60e51b8152600401808060200182810382526028815260200180615ed16028913960400191505060405180910390fd5b5090565b600f546001600160a01b031615806142ab5750600f546001600160a01b031633145b6142fc576040805162461bcd60e51b815260206004820152601360248201527f756e617574686f72697a65642063616c6c657200000000000000000000000000604482015290519081900360640190fd5b565b6000805b835481101561442357828051906020012084828154811061431f57fe5b9060005260206000200160405180828054600181600116156101000203166002900480156143845780601f10614362576101008083540402835291820191614384565b820191906000526020600020905b815481529060010190602001808311614370575b50509150506040518091039020141561441b578354849060001981019081106143a957fe5b906000526020600020018482815481106143bf57fe5b9060005260206000200190805460018160011615610100020316600290046143e8929190615d24565b50838054806143f357fe5b60019003818190600052602060002001600061440f9190615d99565b90556001915050610dc5565b600101614302565b5060009392505050565b600b54604080516323b872dd60e01b81523360048201526001600160a01b03928316602482015260448101849052905184928316916323b872dd9160648083019260209291908290030181600087803b15801561448957600080fd5b505af115801561449d573d6000803e3d6000fd5b505050506040513d60208110156144b357600080fd5b5050600b54604080516334ef2a2160e21b81523060048201526001600160a01b038681166024830152604482018690529151919092169163d3bca88491606480830192600092919082900301818387803b15801561451057600080fd5b505af1158015612070573d6000803e3d6000fd5b6000610dc261453a83600263ffffffff613fbb16565b83858161454357fe5b061015614551576000614554565b60015b60ff16614043858563ffffffff613fbb16565b600082820183811015610dc2576040805162461bcd60e51b815260206004820152601b60248201527f536166654d6174683a206164646974696f6e206f766572666c6f770000000000604482015290519081900360640190fd5b600854604051638c922b6360e01b81526020600482018181528651602484015286516000948594859485946001600160a01b0390931693638c922b63938c9390928392604490920191908501908083838b5b8381101561462b578181015183820152602001614613565b50505050905090810190601f1680156146585780820380516001836020036101000a031916815260200191505b509250505060206040518083038186803b15801561467557600080fd5b505afa158015614689573d6000803e3d6000fd5b505050506040513d602081101561469f57600080fd5b5051905060018560028111156146b157fe5b1415614750578560c001516001600160781b03169250806001600160a01b031663d0acc58f306040518263ffffffff1660e01b815260040180826001600160a01b03166001600160a01b0316815260200191505060206040518083038186803b15801561471d57600080fd5b505afa158015614731573d6000803e3d6000fd5b505050506040513d602081101561474757600080fd5b505191506147e5565b8560e001516001600160781b03169250806001600160a01b03166370a08231306040518263ffffffff1660e01b815260040180826001600160a01b03166001600160a01b0316815260200191505060206040518083038186803b1580156147b657600080fd5b505afa1580156147ca573d6000803e3d6000fd5b505050506040513d60208110156147e057600080fd5b505191505b8183116147f35760006147f7565b8183035b979650505050505050565b61480b8161567c565b60408051630110ceef60e21b8152602060048201819052601260248301527f4c696e656172496e746572706f6c61746f720000000000000000000000000000604483015291516001600160a01b038416926304433bbc9260648082019391829003018186803b15801561487d57600080fd5b505afa158015614891573d6000803e3d6000fd5b505050506040513d60208110156148a757600080fd5b5051601980546001600160a01b0319166001600160a01b0390921691909117905550565b6000600160781b82106142855760405162461bcd60e51b8152600401808060200182810382526027815260200180615e1c6027913960400191505060405180910390fd5b6000600160201b82106142855760405162461bcd60e51b8152600401808060200182810382526026815260200180615eab6026913960400191505060405180910390fd5b60008061495f836129c5565b91508115614a12576103e861499761499186611389614984878663ffffffff613f6216565b8a9063ffffffff613f6216565b82614524565b600854604080516356a6d9ef60e01b81526001600160a01b0388811660048301526024820185905291519395509116916356a6d9ef9160448082019260009290919082900301818387803b1580156149ee57600080fd5b505af1158015614a02573d6000803e3d6000fd5b50505050614a108484613ffd565b505b614a1d838383615b65565b935093915050565b6000806001836002811115614a3657fe5b14614a5557601054601854614a509163ffffffff61404f16565b614a6a565b601854601054614a6a9163ffffffff61456716565b90506000614a7b856000015161550c565b601954608087015160a08801516101008901516101208a01516040516356e9c37160e11b81526004810187815263ffffffff80871660248401528516604483015260a482018a905260c060648301908152845160c484015284519899506001600160a01b039097169763add386e2978a97969594938c9392608482019160e401906020808901910280838360005b83811015614b21578181015183820152602001614b09565b50505050905001838103825285818151815260200191508051906020019060200280838360005b83811015614b60578181015183820152602001614b48565b505050509050019850505050505050505060206040518083038186803b158015614b8957600080fd5b505afa158015614b9d573d6000803e3d6000fd5b505050506040513d6020811015614bb357600080fd5b505195945050505050565b600080614bc9612bfe565b90506000614be460115460185461404f90919063ffffffff16565b600854875160175460208a01516040808c015160608d01519151635a1a74eb60e11b81526001600160a01b03868116600483019081526024830187905298995060009897169663b434e9d69695949391604401846001811115614c4357fe5b60ff168152602001836001600160781b031681526020018263ffffffff1681526020019550505050505060206040518083038186803b158015614c8557600080fd5b505afa158015614c99573d6000803e3d6000fd5b505050506040513d6020811015614caf57600080fd5b505190506001856002811115614cc157fe5b1415614d1f5785811115614d1457614d0f614cfb614cee601854611389868b613f6290919063ffffffff16565b839063ffffffff61404f16565b60175461138990869063ffffffff613f6216565b614d18565b6000195b9350615130565b600854604080516370a0823160e01b815230600482015290516000926001600160a01b0316916370a08231916024808301926020929190829003018186803b158015614d6a57600080fd5b505afa158015614d7e573d6000803e3d6000fd5b505050506040513d6020811015614d9457600080fd5b5051600854604080516352fee2ef60e11b815230600482015290519293506000926001600160a01b039092169163a5fdc5de91602480820192602092909190829003018186803b158015614de757600080fd5b505afa158015614dfb573d6000803e3d6000fd5b505050506040513d6020811015614e1157600080fd5b810190808051906020019092919050505090506000614f9184600860009054906101000a90046001600160a01b03166001600160a01b0316638c922b638e6040518263ffffffff1660e01b81526004018080602001828103825283818151815260200191508051906020019080838360005b83811015614e9b578181015183820152602001614e83565b50505050905090810190601f168015614ec85780820380516001836020036101000a031916815260200191505b509250505060206040518083038186803b158015614ee557600080fd5b505afa158015614ef9573d6000803e3d6000fd5b505050506040513d6020811015614f0f57600080fd5b50516040805163d0acc58f60e01b815230600482015290516001600160a01b039092169163d0acc58f91602480820192602092909190829003018186803b158015614f5957600080fd5b505afa158015614f6d573d6000803e3d6000fd5b505050506040513d6020811015614f8357600080fd5b50519063ffffffff613f6216565b9050808211614fa1576000614fb1565b614fb1828263ffffffff61404f16565b91506000600860009054906101000a90046001600160a01b03166001600160a01b03166383a7e7e18c600001518d602001518e604001518f606001516040518563ffffffff1660e01b815260040180856001600160a01b03166001600160a01b0316815260200184600181111561502457fe5b60ff168152602001836001600160781b031681526020018263ffffffff16815260200194505050505060206040518083038186803b15801561506557600080fd5b505afa158015615079573d6000803e3d6000fd5b505050506040513d602081101561508f57600080fd5b50519050808a11156150e2576150dd6150ae8b8363ffffffff61404f16565b6113896017546116d86150d08b6113896018548b613f6290919063ffffffff16565b899063ffffffff61404f16565b6150e6565b6000195b975061510a886151058c61138960175489613f6290919063ffffffff16565b615b6a565b975061512988612fa18c61138960175489613f6290919063ffffffff16565b9750505050505b505050949350505050565b600061514984866001613ecc565b935060006151666017546113898688613f6290919063ffffffff16565b6008549091506001600160a01b0384811691161461522a57600a5460408051632a6f500560e11b81526001600160a01b038681166004830152825160009485949216926354dea00a926024808301939192829003018186803b1580156151cb57600080fd5b505afa1580156151df573d6000803e3d6000fd5b505050506040513d60408110156151f557600080fd5b508051602090910151909250905061521781611389858563ffffffff613f6216565b9250615223858461442d565b505061529c565b600854604080516353035ca560e11b81523360048201523060248201526044810184905290516001600160a01b039092169163a606b94a9160648082019260009290919082900301818387803b15801561528357600080fd5b505af1158015615297573d6000803e3d6000fd5b505050505b5092949350505050565b6040805163d0acc58f60e01b815230600482015290516000916001600160a01b0387169163d0acc58f91602480820192602092909190829003018186803b1580156152f057600080fd5b505afa158015615304573d6000803e3d6000fd5b505050506040513d602081101561531a57600080fd5b505160c08501519091506001600160781b031661533d828563ffffffff61456716565b1115615383576040805162461bcd60e51b815260206004820152601060248201526f65786365737369766520766f6c756d6560801b604482015290519081900360640190fd5b600854845160208601516040808801516060890151915163169a737360e31b81526001600160a01b0385811660048301908152602483018b905296169563b4d39b9895948a9490939290918a916044018560018111156153df57fe5b60ff168152602001846001600160781b031681526020018363ffffffff168152602001826001600160a01b03166001600160a01b031681526020019650505050505050602060405180830381600087803b15801561543c57600080fd5b505af1158015615450573d6000803e3d6000fd5b505050506040513d602081101561546657600080fd5b5060009050615473612bfe565b11610d8d576040805162461bcd60e51b8152602060048201526014602482015273706f6f6c2062616c616e636520746f6f206c6f7760601b604482015290519081900360640190fd5b816001600160a01b0316836001600160a01b03167f8c5be1e5ebec7d5bd14f71427d1e84f3dd0314c0f7b2291e5b200ac8c7c3b925836040518082815260200191505060405180910390a3505050565b600080829050806001600160a01b0316638e15f4736040518163ffffffff1660e01b8152600401604080518083038186803b15801561554a57600080fd5b505afa15801561555e573d6000803e3d6000fd5b505050506040513d604081101561557457600080fd5b50602001519392505050565b6000818361560c5760405162461bcd60e51b81526004018080602001828103825283818151815260200191508051906020019080838360005b838110156155d15781810151838201526020016155b9565b50505050905090810190601f1680156155fe5780820380516001836020036101000a031916815260200191505b509250505060405180910390fd5b50600083858161561857fe5b0495945050505050565b600081848411156156745760405162461bcd60e51b81526020600482018181528351602484015283519092839260449091019190850190808383600083156155d15781810151838201526020016155b9565b505050900390565b615684615b79565b6001600160a01b0316633644e5156040518163ffffffff1660e01b815260040160206040518083038186803b1580156156bc57600080fd5b505afa1580156156d0573d6000803e3d6000fd5b505050506040513d60208110156156e657600080fd5b505160065560408051631127a41d60e31b815290516001600160a01b0383169163893d20e8916004808301926020929190829003018186803b15801561572b57600080fd5b505afa15801561573f573d6000803e3d6000fd5b505050506040513d602081101561575557600080fd5b5051600f80546001600160a01b0319166001600160a01b0392831617905560408051630110ceef60e21b8152602060048201819052600c60248301526b2a34b6b2a83937bb34b232b960a11b60448301529151928416926304433bbc92606480840193919291829003018186803b1580156157cf57600080fd5b505afa1580156157e3573d6000803e3d6000fd5b505050506040513d60208110156157f957600080fd5b5051600980546001600160a01b0319166001600160a01b0392831617905560408051630110ceef60e21b8152602060048201819052600f60248301527f4f7074696f6e7345786368616e6765000000000000000000000000000000000060448301529151928416926304433bbc92606480840193919291829003018186803b15801561588457600080fd5b505afa158015615898573d6000803e3d6000fd5b505050506040513d60208110156158ae57600080fd5b5051600880546001600160a01b0319166001600160a01b0392831617905560408051630110ceef60e21b8152602060048201819052601060248301527f50726f746f636f6c53657474696e67730000000000000000000000000000000060448301529151928416926304433bbc92606480840193919291829003018186803b15801561593957600080fd5b505afa15801561594d573d6000803e3d6000fd5b505050506040513d602081101561596357600080fd5b5051600a80546001600160a01b0319166001600160a01b0392831617905560408051630110ceef60e21b8152602060048201819052600e60248301527f43726564697450726f766964657200000000000000000000000000000000000060448301529151928416926304433bbc92606480840193919291829003018186803b1580156159ee57600080fd5b505afa158015615a02573d6000803e3d6000fd5b505050506040513d6020811015615a1857600080fd5b5051600b80546001600160a01b0319166001600160a01b0392831617905560408051630110ceef60e21b8152602060048201819052600c60248301526b2cb4b2b6322a3930b1b5b2b960a11b60448301529151928416926304433bbc92606480840193919291829003018186803b158015615a9257600080fd5b505afa158015615aa6573d6000803e3d6000fd5b505050506040513d6020811015615abc57600080fd5b5051600c80546001600160a01b0319166001600160a01b03928316179055670de0b6b3a7640000601555633b9aca006016556008546040805163a53b004160e01b81529051919092169163a53b0041916004808301926020929190829003018186803b158015615b2b57600080fd5b505afa158015615b3f573d6000803e3d6000fd5b505050506040513d6020811015615b5557600080fd5b505160175550633b9aca00601855565b505050565b6000818311613f5b5781610dc2565b6002546001600160a01b031690565b6040805161014081019091526000808252602082019081526000602082018190526040820181905260608083018290526080830182905260a0830182905260c083019190915260e082018190526101009091015290565b82805482825590600052602060002090600101600290048101928215615c875791602002820160005b83821115615c5257835183826101000a8154816001600160781b0302191690836001600160781b031602179055509260200192600f01602081600e01049283019260010302615c08565b8015615c855782816101000a8154906001600160781b030219169055600f01602081600e01049283019260010302615c52565b505b50614285929150615ddd565b828054600181600116156101000203166002900490600052602060002090601f016020900481019282601f10615cd457805160ff1916838001178555615d01565b82800160010185558215615d01579182015b82811115615d01578251825591602001919060010190615ce6565b50614285929150615e01565b604080518082019091526000808252602082015290565b828054600181600116156101000203166002900490600052602060002090601f016020900481019282601f10615d5d5780548555615d01565b82800160010185558215615d0157600052602060002091601f016020900482015b82811115615d01578254825591600101919060010190615d7e565b50805460018160011615610100020316600290046000825580601f10615dbf5750612364565b601f0160209004906000526020600020908101906123649190615e01565b610db291905b808211156142855780546001600160781b0319168155600101615de3565b610db291905b808211156142855760008155600101615e0756fe53616665436173743a2076616c756520646f65736e27742066697420696e2031323020626974735369676e6564536166654d6174683a206164646974696f6e206f766572666c6f774c696e656172204c697175696469747920506f6f6c2052656465656d61626c6520546f6b656e536166654d6174683a206d756c7469706c69636174696f6e206f766572666c6f7753616665436173743a2076616c756520646f65736e27742066697420696e203332206269747353616665436173743a2076616c756520646f65736e27742066697420696e20616e20696e74323536a264697066735822122088710756f1f920f26b0fa6f29252ad8c8d768414399cd5828218d893bf1fc3e564736f6c634300060000334c696e656172204c697175696469747920506f6f6c2052656465656d61626c6520546f6b656e454950373132446f6d61696e28737472696e67206e616d652c737472696e672076657273696f6e2c75696e7432353620636861696e49642c6164647265737320766572696679696e67436f6e747261637429",
  "source": "pragma solidity >=0.6.0;\n\nimport \"./LinearInterpolator.sol\";\nimport \"./LiquidityPool.sol\";\n\ncontract LinearLiquidityPool is LiquidityPool {\n    \n    LinearInterpolator private interpolator;\n\n    string private constant _name = \"Linear Liquidity Pool Redeemable Token\";\n    string private constant _symbol = \"LLPTK\";\n\n    constructor() LiquidityPool(_name) public {\n        \n    }\n\n    function initialize(Deployer deployer) override internal {\n\n        super.initialize(deployer);\n        interpolator = LinearInterpolator(deployer.getContractAddress(\"LinearInterpolator\"));\n    }\n\n    function name() override external view returns (string memory) {\n        return _name;\n    }\n\n    function symbol() override external view returns (string memory) {\n        return _symbol;\n    }\n\n    function writeOptions(\n        OptionToken tk,\n        PricingParameters memory param,\n        uint volume,\n        address to\n    )\n        internal\n        override\n    {\n        uint _written = tk.writtenVolume(address(this));\n        require(_written.add(volume) <= param.buyStock, \"excessive volume\");\n\n        exchange.writeOptions(\n            param.udlFeed,\n            volume,\n            param.optType,\n            param.strike,\n            param.maturity,\n            to\n        );\n        \n        require(calcFreeBalance() > 0, \"pool balance too low\");\n    }\n\n    function calcOptPrice(PricingParameters memory p, Operation op)\n        internal\n        override\n        view\n        returns (uint price)\n    {\n        uint f = op == Operation.BUY ? spread.add(fractionBase) : fractionBase.sub(spread);\n        int udlPrice = getUdlPrice(p.udlFeed);\n        price = interpolator.interpolate(udlPrice, p.t0, p.t1, p.x, p.y, f);\n    }\n\n    function calcVolume(\n        string memory optSymbol,\n        PricingParameters memory p,\n        uint price,\n        Operation op\n    )\n        internal\n        override\n        view\n        returns (uint volume)\n    {\n        uint fb = calcFreeBalance();\n        uint r = fractionBase.sub(reserveRatio);\n\n        uint coll = exchange.calcCollateral(\n            p.udlFeed,\n            volumeBase,\n            p.optType,\n            p.strike,\n            p.maturity\n        );\n\n        if (op == Operation.BUY) {\n\n            volume = coll <= price ? uint(-1) :\n                fb.mul(volumeBase).div(\n                    coll.sub(price.mul(r).div(fractionBase))\n                );\n\n        } else {\n\n            uint bal = exchange.balanceOf(address(this));\n\n            uint poolColl = exchange.collateral(address(this));\n\n            uint writtenColl = OptionToken(\n                exchange.resolveToken(optSymbol)\n            ).writtenVolume(address(this)).mul(coll);\n\n            poolColl = poolColl > writtenColl ? poolColl.sub(writtenColl) : 0;\n            \n            uint iv = uint(exchange.calcIntrinsicValue(\n                p.udlFeed,\n                p.optType,\n                p.strike,\n                p.maturity\n            ));\n\n            volume = price <= iv ? uint(-1) :\n                bal.sub(poolColl.mul(fractionBase).div(r)).mul(volumeBase).div(\n                    price.sub(iv)\n                );\n\n            volume = MoreMath.max(\n                volume, \n                bal.mul(volumeBase).div(price)\n            );\n\n            volume = MoreMath.min(\n                volume, \n                bal.mul(volumeBase).div(price)\n            );\n        }\n    }\n}",
  "sourcePath": "/Users/dev/Documents/coding/defioptions/DeFiOptions-contracts/contracts/pools/LinearLiquidityPool.sol",
  "compiler": {
    "name": "solc",
    "version": "0.6.0+commit.26b70077.Emscripten.clang"
  },
  "schemaVersion": "3.3.3",
  "updatedAt": "2021-10-13T21:03:25.602Z",
  "devdoc": {
    "methods": {}
  },
  "userdoc": {
    "methods": {}
  }
}