{
  "contractName": "LinearLiquidityPool",
  "abi": [
    {
      "inputs": [
        {
          "internalType": "address",
          "name": "deployer",
          "type": "address"
        }
      ],
      "stateMutability": "nonpayable",
      "type": "constructor"
    },
    {
      "anonymous": false,
      "inputs": [
        {
          "indexed": true,
          "internalType": "string",
          "name": "optSymbol",
          "type": "string"
        }
      ],
      "name": "AddSymbol",
      "type": "event"
    },
    {
      "anonymous": false,
      "inputs": [
        {
          "indexed": true,
          "internalType": "address",
          "name": "owner",
          "type": "address"
        },
        {
          "indexed": true,
          "internalType": "address",
          "name": "spender",
          "type": "address"
        },
        {
          "indexed": false,
          "internalType": "uint256",
          "name": "value",
          "type": "uint256"
        }
      ],
      "name": "Approval",
      "type": "event"
    },
    {
      "anonymous": false,
      "inputs": [
        {
          "indexed": true,
          "internalType": "string",
          "name": "optSymbol",
          "type": "string"
        },
        {
          "indexed": false,
          "internalType": "uint256",
          "name": "price",
          "type": "uint256"
        },
        {
          "indexed": false,
          "internalType": "uint256",
          "name": "volume",
          "type": "uint256"
        },
        {
          "indexed": false,
          "internalType": "address",
          "name": "token",
          "type": "address"
        }
      ],
      "name": "Buy",
      "type": "event"
    },
    {
      "anonymous": false,
      "inputs": [
        {
          "indexed": true,
          "internalType": "string",
          "name": "optSymbol",
          "type": "string"
        }
      ],
      "name": "RemoveSymbol",
      "type": "event"
    },
    {
      "anonymous": false,
      "inputs": [
        {
          "indexed": true,
          "internalType": "string",
          "name": "optSymbol",
          "type": "string"
        },
        {
          "indexed": false,
          "internalType": "uint256",
          "name": "price",
          "type": "uint256"
        },
        {
          "indexed": false,
          "internalType": "uint256",
          "name": "volume",
          "type": "uint256"
        }
      ],
      "name": "Sell",
      "type": "event"
    },
    {
      "anonymous": false,
      "inputs": [
        {
          "indexed": true,
          "internalType": "address",
          "name": "from",
          "type": "address"
        },
        {
          "indexed": true,
          "internalType": "address",
          "name": "to",
          "type": "address"
        },
        {
          "indexed": false,
          "internalType": "uint256",
          "name": "value",
          "type": "uint256"
        }
      ],
      "name": "Transfer",
      "type": "event"
    },
    {
      "inputs": [],
      "name": "DOMAIN_SEPARATOR",
      "outputs": [
        {
          "internalType": "bytes32",
          "name": "",
          "type": "bytes32"
        }
      ],
      "stateMutability": "view",
      "type": "function"
    },
    {
      "inputs": [],
      "name": "PERMIT_TYPEHASH",
      "outputs": [
        {
          "internalType": "bytes32",
          "name": "",
          "type": "bytes32"
        }
      ],
      "stateMutability": "view",
      "type": "function"
    },
    {
      "inputs": [
        {
          "internalType": "address",
          "name": "owner",
          "type": "address"
        },
        {
          "internalType": "address",
          "name": "spender",
          "type": "address"
        }
      ],
      "name": "allowance",
      "outputs": [
        {
          "internalType": "uint256",
          "name": "",
          "type": "uint256"
        }
      ],
      "stateMutability": "view",
      "type": "function"
    },
    {
      "inputs": [
        {
          "internalType": "address",
          "name": "spender",
          "type": "address"
        },
        {
          "internalType": "uint256",
          "name": "value",
          "type": "uint256"
        }
      ],
      "name": "approve",
      "outputs": [
        {
          "internalType": "bool",
          "name": "",
          "type": "bool"
        }
      ],
      "stateMutability": "nonpayable",
      "type": "function"
    },
    {
      "inputs": [
        {
          "internalType": "address",
          "name": "owner",
          "type": "address"
        }
      ],
      "name": "balanceOf",
      "outputs": [
        {
          "internalType": "uint256",
          "name": "",
          "type": "uint256"
        }
      ],
      "stateMutability": "view",
      "type": "function"
    },
    {
      "inputs": [],
      "name": "decimals",
      "outputs": [
        {
          "internalType": "uint8",
          "name": "",
          "type": "uint8"
        }
      ],
      "stateMutability": "view",
      "type": "function"
    },
    {
      "inputs": [
        {
          "internalType": "address",
          "name": "spender",
          "type": "address"
        },
        {
          "internalType": "uint256",
          "name": "subtractedValue",
          "type": "uint256"
        }
      ],
      "name": "decreaseAllowance",
      "outputs": [
        {
          "internalType": "bool",
          "name": "",
          "type": "bool"
        }
      ],
      "stateMutability": "nonpayable",
      "type": "function"
    },
    {
      "inputs": [],
      "name": "destroy",
      "outputs": [],
      "stateMutability": "nonpayable",
      "type": "function"
    },
    {
      "inputs": [
        {
          "internalType": "uint256",
          "name": "limit",
          "type": "uint256"
        }
      ],
      "name": "destroy",
      "outputs": [],
      "stateMutability": "nonpayable",
      "type": "function"
    },
    {
      "inputs": [
        {
          "internalType": "address",
          "name": "spender",
          "type": "address"
        },
        {
          "internalType": "uint256",
          "name": "addedValue",
          "type": "uint256"
        }
      ],
      "name": "increaseAllowance",
      "outputs": [
        {
          "internalType": "bool",
          "name": "",
          "type": "bool"
        }
      ],
      "stateMutability": "nonpayable",
      "type": "function"
    },
    {
      "inputs": [
        {
          "internalType": "contract Deployer",
          "name": "deployer",
          "type": "address"
        }
      ],
      "name": "initializeAndLock",
      "outputs": [],
      "stateMutability": "nonpayable",
      "type": "function"
    },
    {
      "inputs": [
        {
          "internalType": "address",
          "name": "",
          "type": "address"
        }
      ],
      "name": "nonces",
      "outputs": [
        {
          "internalType": "uint256",
          "name": "",
          "type": "uint256"
        }
      ],
      "stateMutability": "view",
      "type": "function"
    },
    {
      "inputs": [
        {
          "internalType": "address",
          "name": "owner",
          "type": "address"
        },
        {
          "internalType": "address",
          "name": "spender",
          "type": "address"
        },
        {
          "internalType": "uint256",
          "name": "value",
          "type": "uint256"
        },
        {
          "internalType": "uint256",
          "name": "deadline",
          "type": "uint256"
        },
        {
          "internalType": "uint8",
          "name": "v",
          "type": "uint8"
        },
        {
          "internalType": "bytes32",
          "name": "r",
          "type": "bytes32"
        },
        {
          "internalType": "bytes32",
          "name": "s",
          "type": "bytes32"
        }
      ],
      "name": "permit",
      "outputs": [],
      "stateMutability": "nonpayable",
      "type": "function"
    },
    {
      "inputs": [
        {
          "internalType": "uint256",
          "name": "index",
          "type": "uint256"
        }
      ],
      "name": "redeem",
      "outputs": [
        {
          "internalType": "uint256",
          "name": "",
          "type": "uint256"
        }
      ],
      "stateMutability": "nonpayable",
      "type": "function"
    },
    {
      "inputs": [],
      "name": "totalSupply",
      "outputs": [
        {
          "internalType": "uint256",
          "name": "",
          "type": "uint256"
        }
      ],
      "stateMutability": "view",
      "type": "function"
    },
    {
      "inputs": [
        {
          "internalType": "address",
          "name": "to",
          "type": "address"
        },
        {
          "internalType": "uint256",
          "name": "value",
          "type": "uint256"
        }
      ],
      "name": "transfer",
      "outputs": [
        {
          "internalType": "bool",
          "name": "",
          "type": "bool"
        }
      ],
      "stateMutability": "nonpayable",
      "type": "function"
    },
    {
      "inputs": [
        {
          "internalType": "address",
          "name": "from",
          "type": "address"
        },
        {
          "internalType": "address",
          "name": "to",
          "type": "address"
        },
        {
          "internalType": "uint256",
          "name": "value",
          "type": "uint256"
        }
      ],
      "name": "transferFrom",
      "outputs": [
        {
          "internalType": "bool",
          "name": "",
          "type": "bool"
        }
      ],
      "stateMutability": "nonpayable",
      "type": "function"
    },
    {
      "inputs": [],
      "name": "name",
      "outputs": [
        {
          "internalType": "string",
          "name": "",
          "type": "string"
        }
      ],
      "stateMutability": "view",
      "type": "function"
    },
    {
      "inputs": [],
      "name": "symbol",
      "outputs": [
        {
          "internalType": "string",
          "name": "",
          "type": "string"
        }
      ],
      "stateMutability": "view",
      "type": "function"
    },
    {
      "inputs": [
        {
          "internalType": "uint256",
          "name": "_spread",
          "type": "uint256"
        },
        {
          "internalType": "uint256",
          "name": "_reserveRatio",
          "type": "uint256"
        },
        {
          "internalType": "uint256",
          "name": "_mt",
          "type": "uint256"
        }
      ],
      "name": "setParameters",
      "outputs": [],
      "stateMutability": "nonpayable",
      "type": "function"
    },
    {
      "inputs": [],
      "name": "redeemAllowed",
      "outputs": [
        {
          "internalType": "bool",
          "name": "",
          "type": "bool"
        }
      ],
      "stateMutability": "nonpayable",
      "type": "function"
    },
    {
      "inputs": [],
      "name": "maturity",
      "outputs": [
        {
          "internalType": "uint256",
          "name": "",
          "type": "uint256"
        }
      ],
      "stateMutability": "view",
      "type": "function"
    },
    {
      "inputs": [
        {
          "internalType": "uint256",
          "name": "dt",
          "type": "uint256"
        }
      ],
      "name": "yield",
      "outputs": [
        {
          "internalType": "uint256",
          "name": "y",
          "type": "uint256"
        }
      ],
      "stateMutability": "view",
      "type": "function"
    },
    {
      "inputs": [
        {
          "internalType": "string",
          "name": "optSymbol",
          "type": "string"
        },
        {
          "internalType": "address",
          "name": "udlFeed",
          "type": "address"
        },
        {
          "internalType": "uint256",
          "name": "strike",
          "type": "uint256"
        },
        {
          "internalType": "uint256",
          "name": "_mt",
          "type": "uint256"
        },
        {
          "internalType": "enum OptionsExchange.OptionType",
          "name": "optType",
          "type": "uint8"
        },
        {
          "internalType": "uint256",
          "name": "t0",
          "type": "uint256"
        },
        {
          "internalType": "uint256",
          "name": "t1",
          "type": "uint256"
        },
        {
          "internalType": "uint120[]",
          "name": "x",
          "type": "uint120[]"
        },
        {
          "internalType": "uint120[]",
          "name": "y",
          "type": "uint120[]"
        },
        {
          "internalType": "uint256",
          "name": "buyStock",
          "type": "uint256"
        },
        {
          "internalType": "uint256",
          "name": "sellStock",
          "type": "uint256"
        }
      ],
      "name": "addSymbol",
      "outputs": [],
      "stateMutability": "nonpayable",
      "type": "function"
    },
    {
      "inputs": [
        {
          "internalType": "string",
          "name": "optSymbol",
          "type": "string"
        }
      ],
      "name": "removeSymbol",
      "outputs": [],
      "stateMutability": "nonpayable",
      "type": "function"
    },
    {
      "inputs": [
        {
          "internalType": "address",
          "name": "to",
          "type": "address"
        },
        {
          "internalType": "address",
          "name": "token",
          "type": "address"
        },
        {
          "internalType": "uint256",
          "name": "value",
          "type": "uint256"
        }
      ],
      "name": "depositTokens",
      "outputs": [],
      "stateMutability": "nonpayable",
      "type": "function"
    },
    {
      "inputs": [
        {
          "internalType": "address",
          "name": "to",
          "type": "address"
        },
        {
          "internalType": "address",
          "name": "token",
          "type": "address"
        },
        {
          "internalType": "uint256",
          "name": "value",
          "type": "uint256"
        },
        {
          "internalType": "uint256",
          "name": "deadline",
          "type": "uint256"
        },
        {
          "internalType": "uint8",
          "name": "v",
          "type": "uint8"
        },
        {
          "internalType": "bytes32",
          "name": "r",
          "type": "bytes32"
        },
        {
          "internalType": "bytes32",
          "name": "s",
          "type": "bytes32"
        }
      ],
      "name": "depositTokens",
      "outputs": [],
      "stateMutability": "nonpayable",
      "type": "function"
    },
    {
      "inputs": [],
      "name": "listSymbols",
      "outputs": [
        {
          "internalType": "string",
          "name": "available",
          "type": "string"
        }
      ],
      "stateMutability": "view",
      "type": "function"
    },
    {
      "inputs": [
        {
          "internalType": "string",
          "name": "optSymbol",
          "type": "string"
        }
      ],
      "name": "queryBuy",
      "outputs": [
        {
          "internalType": "uint256",
          "name": "price",
          "type": "uint256"
        },
        {
          "internalType": "uint256",
          "name": "volume",
          "type": "uint256"
        }
      ],
      "stateMutability": "view",
      "type": "function"
    },
    {
      "inputs": [
        {
          "internalType": "string",
          "name": "optSymbol",
          "type": "string"
        }
      ],
      "name": "querySell",
      "outputs": [
        {
          "internalType": "uint256",
          "name": "price",
          "type": "uint256"
        },
        {
          "internalType": "uint256",
          "name": "volume",
          "type": "uint256"
        }
      ],
      "stateMutability": "view",
      "type": "function"
    },
    {
      "inputs": [
        {
          "internalType": "string",
          "name": "optSymbol",
          "type": "string"
        },
        {
          "internalType": "uint256",
          "name": "price",
          "type": "uint256"
        },
        {
          "internalType": "uint256",
          "name": "volume",
          "type": "uint256"
        },
        {
          "internalType": "address",
          "name": "token",
          "type": "address"
        },
        {
          "internalType": "uint256",
          "name": "deadline",
          "type": "uint256"
        },
        {
          "internalType": "uint8",
          "name": "v",
          "type": "uint8"
        },
        {
          "internalType": "bytes32",
          "name": "r",
          "type": "bytes32"
        },
        {
          "internalType": "bytes32",
          "name": "s",
          "type": "bytes32"
        }
      ],
      "name": "buy",
      "outputs": [
        {
          "internalType": "address",
          "name": "addr",
          "type": "address"
        }
      ],
      "stateMutability": "nonpayable",
      "type": "function"
    },
    {
      "inputs": [
        {
          "internalType": "string",
          "name": "optSymbol",
          "type": "string"
        },
        {
          "internalType": "uint256",
          "name": "price",
          "type": "uint256"
        },
        {
          "internalType": "uint256",
          "name": "volume",
          "type": "uint256"
        },
        {
          "internalType": "address",
          "name": "token",
          "type": "address"
        }
      ],
      "name": "buy",
      "outputs": [
        {
          "internalType": "address",
          "name": "addr",
          "type": "address"
        }
      ],
      "stateMutability": "nonpayable",
      "type": "function"
    },
    {
      "inputs": [
        {
          "internalType": "string",
          "name": "optSymbol",
          "type": "string"
        },
        {
          "internalType": "uint256",
          "name": "price",
          "type": "uint256"
        },
        {
          "internalType": "uint256",
          "name": "volume",
          "type": "uint256"
        }
      ],
      "name": "sell",
      "outputs": [],
      "stateMutability": "nonpayable",
      "type": "function"
    }
  ],
  "bytecode": "0x60806040523480156200001157600080fd5b5060405162005a0838038062005a08833981810160405260208110156200003757600080fd5b5051604080516060810190915260268082526200599060208301396040514690806052620059b68239604080519182900360520182208551602096870120838301835260018452603160f81b93870193909352815180870191909152808201929092527fc89efdaa54c0f20c7adf612882df0950f5a951637e0307cdcb4c672f298b8bc6606083015260808201939093523060a0808301919091528351808303909101815260c0820180855281519186019190912060065563ac119e7b60e01b905260c481019390935250601360e48301527f4c696e6561724c6971756964697479506f6f6c00000000000000000000000000610104830152516001600160a01b0383169163ac119e7b9161012480830192600092919082900301818387803b1580156200016457600080fd5b505af115801562000179573d6000803e3d6000fd5b5050505050615802806200018e6000396000f3fe608060405234801561001057600080fd5b50600436106101fb5760003560e01c80635c1bfb321161011a578063a457c2d7116100ad578063c7f1978e1161007c578063c7f1978e14610994578063d259945d1461099c578063d505accf14610a40578063db006a7514610a91578063dd62ed3e14610aae576101fb565b8063a457c2d714610774578063a9059cbb146107a0578063ad56d52e146107cc578063ae1879c91461084f576101fb565b806383197ef0116100e957806383197ef01461068a5780638e424b6b1461069257806395d89b411461074f5780639d11877014610757576101fb565b80635c1bfb32146105fb57806370a0823114610621578063765287ef146106475780637ecebe0014610664576101fb565b8063313ce567116101925780633950935111610161578063395093511461054057806339dc5ef21461056c578063439fa088146105a257806345e77633146105f3576101fb565b8063313ce5671461048357806334c5d2ce146104a15780633644e515146104ca57806336977d32146104d2576101fb565b806318160ddd116101ce57806318160ddd14610423578063204f83f91461043d57806323b872dd1461044557806330adf81f1461047b576101fb565b806302afbd7c1461020057806304804ee8146102f057806306fdde0314610366578063095ea7b3146103e3575b600080fd5b6102d4600480360361010081101561021757600080fd5b810190602081018135600160201b81111561023157600080fd5b82018360208201111561024357600080fd5b803590602001918460018302840111600160201b8311171561026457600080fd5b91908080601f016020809104026020016040519081016040528093929190818152602001838380828437600092019190915250929550508235935050506020810135906001600160a01b036040820135169060608101359060ff6080820135169060a08101359060c00135610adc565b604080516001600160a01b039092168252519081900360200190f35b6103646004803603606081101561030657600080fd5b810190602081018135600160201b81111561032057600080fd5b82018360208201111561033257600080fd5b803590602001918460018302840111600160201b8311171561035357600080fd5b919350915080359060200135611337565b005b61036e611a1d565b6040805160208082528351818301528351919283929083019185019080838360005b838110156103a8578181015183820152602001610390565b50505050905090810190601f1680156103d55780820380516001836020036101000a031916815260200191505b509250505060405180910390f35b61040f600480360360408110156103f957600080fd5b506001600160a01b038135169060200135611a3e565b604080519115158252519081900360200190f35b61042b611a54565b60408051918252519081900360200190f35b61042b611a5a565b61040f6004803603606081101561045b57600080fd5b506001600160a01b03813581169160208101359091169060400135611a60565b61042b611b3c565b61048b611b60565b6040805160ff9092168252519081900360200190f35b610364600480360360608110156104b757600080fd5b5080359060208101359060400135611b65565b61042b611b7b565b610364600480360360208110156104e857600080fd5b810190602081018135600160201b81111561050257600080fd5b82018360208201111561051457600080fd5b803590602001918460018302840111600160201b8311171561053557600080fd5b509092509050611b81565b61040f6004803603604081101561055657600080fd5b506001600160a01b038135169060200135611de3565b6103646004803603606081101561058257600080fd5b506001600160a01b03813581169160208101359091169060400135611e66565b610364600480360360e08110156105b857600080fd5b506001600160a01b03813581169160208101359091169060408101359060608101359060ff6080820135169060a08101359060c0013561219d565b61036e61223b565b6103646004803603602081101561061157600080fd5b50356001600160a01b0316612506565b61042b6004803603602081101561063757600080fd5b50356001600160a01b031661256d565b61042b6004803603602081101561065d57600080fd5b503561258c565b61042b6004803603602081101561067a57600080fd5b50356001600160a01b03166126a5565b6103646126b7565b610736600480360360208110156106a857600080fd5b810190602081018135600160201b8111156106c257600080fd5b8201836020820111156106d457600080fd5b803590602001918460018302840111600160201b831117156106f557600080fd5b91908080601f0160208091040260200160405190810160405280939291908181526020018383808284376000920191909152509295506126c4945050505050565b6040805192835260208301919091528051918290030190f35b61036e612991565b6103646004803603602081101561076d57600080fd5b50356129b0565b61040f6004803603604081101561078a57600080fd5b506001600160a01b038135169060200135612b41565b61040f600480360360408110156107b657600080fd5b506001600160a01b038135169060200135612b8a565b6102d4600480360360808110156107e257600080fd5b810190602081018135600160201b8111156107fc57600080fd5b82018360208201111561080e57600080fd5b803590602001918460018302840111600160201b8311171561082f57600080fd5b9193509150803590602081013590604001356001600160a01b0316612bd3565b610364600480360361016081101561086657600080fd5b810190602081018135600160201b81111561088057600080fd5b82018360208201111561089257600080fd5b803590602001918460018302840111600160201b831117156108b357600080fd5b919390926001600160a01b038335169260208101359260408201359260ff6060840135169260808101359260a082013592909160e081019060c00135600160201b81111561090057600080fd5b82018360208201111561091257600080fd5b803590602001918460208302840111600160201b8311171561093357600080fd5b919390929091602081019035600160201b81111561095057600080fd5b82018360208201111561096257600080fd5b803590602001918460208302840111600160201b8311171561098357600080fd5b919350915080359060200135612c27565b61040f613046565b610736600480360360208110156109b257600080fd5b810190602081018135600160201b8111156109cc57600080fd5b8201836020820111156109de57600080fd5b803590602001918460018302840111600160201b831117156109ff57600080fd5b91908080601f0160208091040260200160405190810160405280939291908181526020018383808284376000920191909152509295506130c2945050505050565b610364600480360360e0811015610a5657600080fd5b506001600160a01b03813581169160208101359091169060408101359060608101359060ff6080820135169060a08101359060c00135613382565b61042b60048036036020811015610aa757600080fd5b5035613590565b61042b60048036036040811015610ac457600080fd5b506001600160a01b038135811691602001351661369c565b6000808711610b23576040805162461bcd60e51b815260206004820152600e60248201526d696e76616c696420766f6c756d6560901b604482015290519081900360640190fd5b610b2c896136c7565b610b3461542f565b600b8a6040518082805190602001908083835b60208310610b665780518252601f199092019160209182019101610b47565b51815160209384036101000a6000190180199092169116179052920194855250604080519485900382018520610140860190915280546001600160a01b03811686529093509084019150600160a01b900460ff166001811115610bc557fe5b6001811115610bd057fe5b815260018201546001600160781b03808216602080850191909152600160781b80840463ffffffff908116604080880191909152600160981b860482166060880152600160b81b909504166080860152600286015480841660a08701520490911660c084015260038401805483518184028101840190945280845260e0909401939091830182828015610cb457602002820191906000526020600020906000905b82829054906101000a90046001600160781b03166001600160781b0316815260200190600f0190602082600e01049283019260010382029150808411610c715790505b5050505050815260200160048201805480602002602001604051908101604052809291908181526020018280548015610d3e57602002820191906000526020600020906000905b82829054906101000a90046001600160781b03166001600160781b0316815260200190600f0190602082600e01049283019260010382029150808411610cfb5790505b5050505050815250509050610d59818a8a8a8a8a8a8a613796565b98506000600d8b6040518082805190602001908083835b60208310610d8f5780518252601f199092019160209182019101610d70565b51815160209384036101000a60001901801990921691161790529201948552506040519384900301909220546001600160781b03169250505080891115611062576000600c8c6040518082805190602001908083835b60208310610e045780518252601f199092019160209182019101610de5565b51815160209384036101000a60001901801990921691161790529201948552506040519384900301909220546001600160781b0316925060009150610e4b90508b8461393d565b60c08501519091506001600160781b0316610e6c838363ffffffff61397f16565b1115610eb2576040805162461bcd60e51b815260206004820152601060248201526f65786365737369766520766f6c756d6560801b604482015290519081900360640190fd5b610eca610ec5838363ffffffff61397f16565b6139d9565b600c8e6040518082805190602001908083835b60208310610efc5780518252601f199092019160209182019101610edd565b51815160209384036101000a600019018019909216911617905292019485525060408051948590038201852080546001600160781b0319166001600160781b0397909716969096179095556008548951918a0151958a015160608b015163092d858160e41b87526001600160a01b0380851660048901908152602489018b90529316976392d85810979496508995509391929091604401846001811115610f9f57fe5b60ff168152602001836001600160781b031681526020018263ffffffff16815260200195505050505050602060405180830381600087803b158015610fe357600080fd5b505af1158015610ff7573d6000803e3d6000fd5b505050506040513d602081101561100d57600080fd5b506000905061101a613a1d565b1161105f576040805162461bcd60e51b815260206004820152601060248201526f65786365737369766520766f6c756d6560801b604482015290519081900360640190fd5b50505b8015611109576000611074828b613b57565b9050611089610ec5838363ffffffff61393d16565b600d8d6040518082805190602001908083835b602083106110bb5780518252601f19909201916020918201910161109c565b51815160209384036101000a6000190180199092169116179052920194855250604051938490030190922080546001600160781b0319166001600160781b0394909416939093179092555050505b600860009054906101000a90046001600160a01b03166001600160a01b0316638c922b638c6040518263ffffffff1660e01b81526004018080602001828103825283818151815260200191508051906020019080838360005b8381101561117a578181015183820152602001611162565b50505050905090810190601f1680156111a75780820380516001836020036101000a031916815260200191505b509250505060206040518083038186803b1580156111c457600080fd5b505afa1580156111d8573d6000803e3d6000fd5b505050506040513d60208110156111ee57600080fd5b50516040805163a9059cbb60e01b8152336004820152602481018c9052905191945084916001600160a01b0383169163a9059cbb9160448083019260209291908290030181600087803b15801561124457600080fd5b505af1158015611258573d6000803e3d6000fd5b505050506040513d602081101561126e57600080fd5b50506040518c518d9190819060208401908083835b602083106112a25780518252601f199092019160209182019101611283565b6001836020036101000a03801982511681845116808217855250505050505090500191505060405180910390207fe5ebb912ac3a4ce7780f265bffdf260e716e56da3ed7abc2f02b4a9f38b870658c8c8c60405180848152602001838152602001826001600160a01b03166001600160a01b03168152602001935050505060405180910390a250505098975050505050505050565b6000811161137d576040805162461bcd60e51b815260206004820152600e60248201526d696e76616c696420766f6c756d6560901b604482015290519081900360640190fd5b6113bc84848080601f0160208091040260200160405190810160405280939291908181526020018383808284376000920191909152506136c792505050565b6113c461542f565b600b858560405180838380828437919091019485525050604080519384900360209081018520610140860190925281546001600160a01b03811686529193508401915060ff600160a01b90910416600181111561141d57fe5b600181111561142857fe5b815260018201546001600160781b03808216602080850191909152600160781b80840463ffffffff908116604080880191909152600160981b860482166060880152600160b81b909504166080860152600286015480841660a08701520490911660c084015260038401805483518184028101840190945280845260e090940193909183018282801561150c57602002820191906000526020600020906000905b82829054906101000a90046001600160781b03166001600160781b0316815260200190600f0190602082600e010492830192600103820291508084116114c95790505b505050505081526020016004820180548060200260200160405190810160405280929190818152602001828054801561159657602002820191906000526020600020906000905b82829054906101000a90046001600160781b03166001600160781b0316815260200190600f0190602082600e010492830192600103820291508084116115535790505b50505050508152505090506115ad83826001613b6d565b600854604051638c922b6360e01b8152602060048201908152602482018890529295506000926001600160a01b0390921691638c922b6391899189918190604401848480828437600083820152604051601f909101601f191690920195506020945090925050508083038186803b15801561162757600080fd5b505afa15801561163b573d6000803e3d6000fd5b505050506040513d602081101561165157600080fd5b5051604080516323b872dd60e01b815233600482015230602482015260448101869052905191925082916001600160a01b038316916323b872dd9160648083019260209291908290030181600087803b1580156116ad57600080fd5b505af11580156116c1573d6000803e3d6000fd5b505050506040513d60208110156116d757600080fd5b50506014546000906116ff906116f3888863ffffffff613bed16565b9063ffffffff613c4616565b600854604080516356a6d9ef60e01b81523360048201526024810184905290519293506001600160a01b03909116916356a6d9ef9160448082019260009290919082900301818387803b15801561175557600080fd5b505af1158015611769573d6000803e3d6000fd5b505050506000611777613a1d565b116117bc576040805162461bcd60e51b815260206004820152601060248201526f65786365737369766520766f6c756d6560801b604482015290519081900360640190fd5b60006117ff86600d8b8b6040518083838082843791909101948552505060405192839003602001909220546001600160781b03169291505063ffffffff61397f16565b90506000600c8a8a6040518083838082843791909101948552505060405192839003602001909220546001600160781b03169250508115905061191a5760006118488289613b57565b9050846001600160a01b03166342966c68826040518263ffffffff1660e01b815260040180828152602001915050600060405180830381600087803b15801561189057600080fd5b505af11580156118a4573d6000803e3d6000fd5b505050506118be610ec5828461393d90919063ffffffff16565b600c8c8c604051808383808284379190910194855250506040519283900360200190922080546001600160781b03949094166001600160781b031990941693909317909255506119169050838263ffffffff61393d16565b9250505b8560e001516001600160781b031682111561196f576040805162461bcd60e51b815260206004820152601060248201526f65786365737369766520766f6c756d6560801b604482015290519081900360640190fd5b611978826139d9565b600d8b8b6040518083838082843791909101948552505060405192839003602001832080546001600160781b03959095166001600160781b031990951694909417909355508b91508a9080838380828437604080519390910183900383208e8452602084018e905281519096507f6ca5b43ed2d103f5392dd32f0d7f742584b88f99f3713ceaf94ae5f8fa64ba1e95509283900301925050a250505050505050505050565b60606040518060600160405280602681526020016156f46026913990505b90565b6000611a4b338484613c88565b90505b92915050565b60075490565b60115490565b6000611a6b8461256d565b821115611a7757600080fd5b6001600160a01b0384166000908152600460209081526040808320338452909152902054821115611aa757600080fd5b6001600160a01b038316611aba57600080fd5b611ac48483613cd0565b611ace8383613d09565b6001600160a01b0384166000908152600460209081526040808320338452909152902054611b02908363ffffffff61393d16565b6001600160a01b0385166000908152600460209081526040808320338452909152902055611b31848484613d7b565b5060015b9392505050565b7f6e71edae12b1b97f4d1f60370fef10105fa2faae0126114a169c64845d6126c981565b601290565b611b6d613dcb565b600f92909255601055601155565b60065481565b611b89613dcb565b611b9161542f565b80600b84846040518083838082843791909101948552505060405160209381900384019020845181546001600160a01b0319166001600160a01b039091161780825593850151909390925083915060ff60a01b1916600160a01b836001811115611bf757fe5b021790555060408201516001820180546060850151608086015160a08701516001600160781b03199384166001600160781b039687161763ffffffff60781b1916600160781b63ffffffff94851681029190911763ffffffff60981b1916600160981b938516939093029290921763ffffffff60b81b1916600160b81b93909116929092029190911790925560c085015160028501805460e08801519316918516919091176effffffffffffffffffffffffffffff60781b1916919093169091021790556101008201518051611cd7916003840191602090910190615486565b506101208201518051611cf4916004840191602090910190615486565b50905050600c83836040518083838082843791909101948552505060405192839003602001832080546001600160781b031916905550600d9185915084908083838082843791909101948552505060408051938490036020908101852080546001600160781b0319169055601f8701819004810285018101909152858452611d9c936016935091508690869081908401838280828437600092019190915250613e3e92505050565b508282604051808383808284376040519201829003822094507f4b62493f4f8ba00316d1e11c870ddc857bd37e50aafe15a7ad4d3f6ac1c6d34d93506000925050a2505050565b60006001600160a01b038316611df857600080fd5b3360009081526004602090815260408083206001600160a01b0387168452909152902054611e2c908363ffffffff61397f16565b3360008181526004602090815260408083206001600160a01b03891684529091529020829055611e5d918590613f6d565b50600192915050565b600854604080516370a0823160e01b815230600482015290516000926001600160a01b0316916370a08231916024808301926020929190829003018186803b158015611eb157600080fd5b505afa158015611ec5573d6000803e3d6000fd5b505050506040513d6020811015611edb57600080fd5b50519050611eea338484613fbd565b600854604080516370a0823160e01b815230600482015290516000926001600160a01b0316916370a08231916024808301926020929190829003018186803b158015611f3557600080fd5b505afa158015611f49573d6000803e3d6000fd5b505050506040513d6020811015611f5f57600080fd5b50516008546040805162b08c1d60e21b815230600482015290519293506000926001600160a01b03909216916302c2307491602480820192602092909190829003018186803b158015611fb157600080fd5b505afa158015611fc5573d6000803e3d6000fd5b505050506040513d6020811015611fdb57600080fd5b50516040805160608101808352600a54630bbe4fd560e41b909152915192935060179290918291612064916001600160a01b03169063bbe4fd5090606480860191602091818803018186803b15801561203357600080fd5b505afa158015612047573d6000803e3d6000fd5b505050506040513d602081101561205d57600080fd5b505161413d565b63ffffffff168152602001612082848761418190919063ffffffff16565b8152602090810187905282546001808201855560009485528285208451600390930201805463ffffffff191663ffffffff938416178155928401519083015560409092015160029091015560075491906120e0908490869061418116565b9050600061210d826116f36015546121018a8a61393d90919063ffffffff16565b9063ffffffff613bed16565b90506103e860008461212e57612129848363ffffffff613bed16565b612159565b60155461215990612145908563ffffffff61393d16565b6116f384612101898863ffffffff613bed16565b905061216581836141e6565b90506121718b82613d09565b612181858263ffffffff61397f16565b60075561219060008c83613d7b565b5050505050505050505050565b6040805163d505accf60e01b8152336004820152306024820152604481018790526064810186905260ff8516608482015260a4810184905260c4810183905290516001600160a01b0388169163d505accf9160e480830192600092919082900301818387803b15801561220f57600080fd5b505af1158015612223573d6000803e3d6000fd5b50505050612232878787611e66565b50505050505050565b606060005b60165481101561250257600a60009054906101000a90046001600160a01b03166001600160a01b031663bbe4fd506040518163ffffffff1660e01b815260040160206040518083038186803b15801561229857600080fd5b505afa1580156122ac573d6000803e3d6000fd5b505050506040513d60208110156122c257600080fd5b505160168054600b9190849081106122d657fe5b90600052602060002001604051808280546001816001161561010002031660029004801561233b5780601f1061231957610100808354040283529182019161233b565b820191906000526020600020905b815481529060010190602001808311612327575b505092835250506040519081900360200190206001015463ffffffff600160781b9091041611156124fa578151612413576016818154811061237957fe5b600091825260209182902001805460408051601f60026000196101006001871615020190941693909304928301859004850281018501909152818152928301828280156124075780601f106123dc57610100808354040283529160200191612407565b820191906000526020600020905b8154815290600101906020018083116123ea57829003601f168201915b505050505091506124fa565b816016828154811061242157fe5b906000526020600020016040516020018083805190602001908083835b6020831061245d5780518252601f19909201916020918201910161243e565b6001836020036101000a03801982511681845116808217855250505050505090500180600560f91b815250600101828054600181600116156101000203166002900480156124e25780601f106124c05761010080835404028352918201916124e2565b820191906000526020600020905b8154815290600101906020018083116124ce575b50509250505060405160208183030381529060405291505b600101612240565b5090565b600254600160a01b900460ff161561254e576040805162461bcd60e51b81526020600482015260066024820152651b1bd8dad95960d21b604482015290519081900360640190fd5b61255781614229565b506002805460ff60a01b1916600160a01b179055565b6001600160a01b0381166000908152600360205260409020545b919050565b6015546017541561258757600a5460408051630bbe4fd560e41b815290516000926001600160a01b03169163bbe4fd50916004808301926020929190829003018186803b1580156125dc57600080fd5b505afa1580156125f0573d6000803e3d6000fd5b505050506040513d602081101561260657600080fd5b50519050600061261c828563ffffffff61393d16565b905060005b60175481101561266357816017828154811061263957fe5b600091825260209091206003909102015463ffffffff16111561265b57612663565b600101612621565b601754811161269d578015612695576126926015546116f3612685848661448d565b879063ffffffff613bed16565b93505b600101612663565b505050919050565b60056020526000908152604090205481565b6126c26000196129b0565b565b6000806126d0836136c7565b6126d861542f565b600b846040518082805190602001908083835b6020831061270a5780518252601f1990920191602091820191016126eb565b51815160209384036101000a6000190180199092169116179052920194855250604080519485900382018520610140860190915280546001600160a01b03811686529093509084019150600160a01b900460ff16600181111561276957fe5b600181111561277457fe5b815260018201546001600160781b03808216602080850191909152600160781b80840463ffffffff908116604080880191909152600160981b860482166060880152600160b81b909504166080860152600286015480841660a08701520490911660c084015260038401805483518184028101840190945280845260e090940193909183018282801561285857602002820191906000526020600020906000905b82829054906101000a90046001600160781b03166001600160781b0316815260200190600f0190602082600e010492830192600103820291508084116128155790505b50505050508152602001600482018054806020026020016040519081016040528092919081815260200182805480156128e257602002820191906000526020600020906000905b82829054906101000a90046001600160781b03166001600160781b0316815260200190600f0190602082600e0104928301926001038202915080841161289f5790505b50505050508152505090506128f8816001614762565b92506129896129098285600161496d565b612984600d876040518082805190602001908083835b6020831061293e5780518252601f19909201916020918201910161291f565b51815160209384036101000a600019018019909216911617905292019485525060405193849003019092205460e08701516001600160781b03908116935016905061393d565b613b57565b915050915091565b6040805180820190915260058152644c4c50544b60d81b602082015290565b6129b8613046565b6129c157600080fd5b600854604080516370a0823160e01b815230600482015290516000926001600160a01b0316916370a08231916024808301926020929190829003018186803b158015612a0c57600080fd5b505afa158015612a20573d6000803e3d6000fd5b505050506040513d6020811015612a3657600080fd5b505160075460095491925082918190600019015b6000198114158015612a5b57508515155b8015612a675750600084115b15612abd57600080612a7a878685614c10565b9092509050612a8f868263ffffffff61393d16565b9550612aa1848363ffffffff61393d16565b9350612aae600984614d55565b50506000199586019501612a4a565b508215612b3057600854604080516356a6d9ef60e01b81523360048201526024810186905290516001600160a01b03909216916356a6d9ef9160448082019260009290919082900301818387803b158015612b1757600080fd5b505af1158015612b2b573d6000803e3d6000fd5b505050505b80612b385733ff5b60075550505050565b60006001600160a01b038316612b5657600080fd5b3360009081526004602090815260408083206001600160a01b0387168452909152902054611e2c908363ffffffff61393d16565b6000612b953361256d565b821115612ba157600080fd5b6001600160a01b038316612bb457600080fd5b612bbe3383613cd0565b612bc88383613d09565b611e5d338484613d7b565b600080612c1c87878080601f01602080910402602001604051908101604052809392919081815260200183838082843760009201829052508a9350899250889150808780610adc565b979650505050505050565b612c2f613dcb565b6011548a10612c85576040805162461bcd60e51b815260206004820152601060248201527f696e76616c6964206d6174757269747900000000000000000000000000000000604482015290519081900360640190fd5b8415801590612ca3575082612ca186600263ffffffff613bed16565b145b612cf4576040805162461bcd60e51b815260206004820152601760248201527f696e76616c69642070726963696e672073757266616365000000000000000000604482015290519081900360640190fd5b600b8e8e60405180838380828437919091019485525050604051928390036020019092206003015415159150612d6590505760168054600181018255600091909152612d63907fd833147d7dc355ba459fc788f669e58cfaf9dc25ddcd0702e87d69c7b5124289018f8f61553a565b505b6040518061014001604052808d6001600160a01b031681526020018a6001811115612d8c57fe5b8152602001612d9a8d6139d9565b6001600160781b03168152602001612db18c61413d565b63ffffffff168152602001612dc58a61413d565b63ffffffff168152602001612dd98961413d565b63ffffffff168152602001612ded846139d9565b6001600160781b03168152602001612e04836139d9565b6001600160781b031681526020018787808060200260200160405190810160405280939291908181526020018383602002808284376000920191909152505050908252506040805160208781028281018201909352878252928301929091889188918291850190849080828437600081840152601f19601f82011690508083019250505050505050815250600b8f8f6040518083838082843791909101948552505060405160209381900384019020845181546001600160a01b0319166001600160a01b039091161780825593850151909390925083915060ff60a01b1916600160a01b836001811115612ef457fe5b021790555060408201516001820180546060850151608086015160a08701516001600160781b03199384166001600160781b039687161763ffffffff60781b1916600160781b63ffffffff94851681029190911763ffffffff60981b1916600160981b938516939093029290921763ffffffff60b81b1916600160b81b93909116929092029190911790925560c085015160028501805460e08801519316918516919091176effffffffffffffffffffffffffffff60781b1916919093169091021790556101008201518051612fd4916003840191602090910190615486565b506101208201518051612ff1916004840191602090910190615486565b509050508d8d604051808383808284376040519201829003822094507f27136bc3b80a2a48083d0f3dd8acaf97309ab58abf6408d4ab39af25b6b4168e93506000925050a25050505050505050505050505050565b601154600a5460408051630bbe4fd560e41b81529051600093926001600160a01b03169163bbe4fd50916004808301926020929190829003018186803b15801561308f57600080fd5b505afa1580156130a3573d6000803e3d6000fd5b505050506040513d60208110156130b957600080fd5b50511015905090565b6000806130ce836136c7565b6130d661542f565b600b846040518082805190602001908083835b602083106131085780518252601f1990920191602091820191016130e9565b51815160209384036101000a6000190180199092169116179052920194855250604080519485900382018520610140860190915280546001600160a01b03811686529093509084019150600160a01b900460ff16600181111561316757fe5b600181111561317257fe5b815260018201546001600160781b03808216602080850191909152600160781b80840463ffffffff908116604080880191909152600160981b860482166060880152600160b81b909504166080860152600286015480841660a08701520490911660c084015260038401805483518184028101840190945280845260e090940193909183018282801561325657602002820191906000526020600020906000905b82829054906101000a90046001600160781b03166001600160781b0316815260200190600f0190602082600e010492830192600103820291508084116132135790505b50505050508152602001600482018054806020026020016040519081016040528092919081815260200182805480156132e057602002820191906000526020600020906000905b82829054906101000a90046001600160781b03166001600160781b0316815260200190600f0190602082600e0104928301926001038202915080841161329d5790505b50505050508152505090506132f6816000614762565b92506129896133078285600061496d565b612984600c876040518082805190602001908083835b6020831061333c5780518252601f19909201916020918201910161331d565b51815160209384036101000a600019018019909216911617905292019485525060405193849003019092205460c08701516001600160781b03908116935016905061393d565b428410156133d7576040805162461bcd60e51b815260206004820152600e60248201527f7065726d69742065787069726564000000000000000000000000000000000000604482015290519081900360640190fd5b6006546001600160a01b0380891660008181526005602090815260408083208054600180820190925582517f6e71edae12b1b97f4d1f60370fef10105fa2faae0126114a169c64845d6126c98186015280840196909652958d166060860152608085018c905260a085019590955260c08085018b90528151808603909101815260e08501825280519083012061190160f01b6101008601526101028501969096526101228085019690965280518085039096018652610142840180825286519683019690962095839052610162840180825286905260ff89166101828501526101a284018890526101c28401879052519193926101e280820193601f1981019281900390910190855afa1580156134f2573d6000803e3d6000fd5b5050604051601f1901519150506001600160a01b038116158015906135285750886001600160a01b0316816001600160a01b0316145b613579576040805162461bcd60e51b815260206004820152601160248201527f696e76616c6964207369676e6174757265000000000000000000000000000000604482015290519081900360640190fd5b613584898989613c88565b50505050505050505050565b600061359a613046565b6135eb576040805162461bcd60e51b815260206004820152601260248201527f72656465656d206e6f7420616c6c6f7765640000000000000000000000000000604482015290519081900360640190fd5b600854604080516370a0823160e01b815230600482015290516000926001600160a01b0316916370a08231916024808301926020929190829003018186803b15801561363657600080fd5b505afa15801561364a573d6000803e3d6000fd5b505050506040513d602081101561366057600080fd5b5051600754909150600090819061367990849087614c10565b6007549193509150613691908363ffffffff61393d16565b600755949350505050565b6001600160a01b03918216600090815260046020908152604080832093909416825291909152205490565b60006001600160a01b0316600b826040518082805190602001908083835b602083106137045780518252601f1990920191602091820191016136e5565b51815160209384036101000a60001901801990921691161790529201948552506040519384900301909220546001600160a01b0316929092141591506137939050576040805162461bcd60e51b815260206004820152601160248201527f696e76616c6964206f707453796d626f6c000000000000000000000000000000604482015290519081900360640190fd5b50565b6000806137b26014546116f38a8c613bed90919063ffffffff16565b90506137c0898b6000613b6d565b985060006137dd6014546116f38b8d613bed90919063ffffffff16565b6008549091506001600160a01b03898116911614613896578615613886576040805163d505accf60e01b8152336004820152306024820152604481018490526064810189905260ff8816608482015260a4810187905260c4810186905290516001600160a01b038a169163d505accf9160e480830192600092919082900301818387803b15801561386d57600080fd5b505af1158015613881573d6000803e3d6000fd5b505050505b613891338983613fbd565b61392e565b60085460408051630549990760e11b81523360048201523060248201526044810184905260648101859052608481018a905260ff891660a482015260c4810188905260e4810187905290516001600160a01b0390921691630a93320e916101048082019260009290919082900301818387803b15801561391557600080fd5b505af1158015613929573d6000803e3d6000fd5b505050505b50979998505050505050505050565b6000611a4b83836040518060400160405280601e81526020017f536166654d6174683a207375627472616374696f6e206f766572666c6f770000815250614def565b600082820183811015611a4b576040805162461bcd60e51b815260206004820152601b60248201527f536166654d6174683a206164646974696f6e206f766572666c6f770000000000604482015290519081900360640190fd5b6000600160781b82106125025760405162461bcd60e51b81526004018080602001828103825260278152602001806156ac6027913960400191505060405180910390fd5b601554601054600854604080516370a0823160e01b81523060048201529051600094613ab49490936116f39391926001600160a01b03909116916370a08231916024808301926020929190829003018186803b158015613a7c57600080fd5b505afa158015613a90573d6000803e3d6000fd5b505050506040513d6020811015613aa657600080fd5b50519063ffffffff613bed16565b6008546040805163d9537cdf60e01b815230600482015290519293506000926001600160a01b039092169163d9537cdf91602480820192602092909190829003018186803b158015613b0557600080fd5b505afa158015613b19573d6000803e3d6000fd5b505050506040513d6020811015613b2f57600080fd5b50519050818111613b41576000613b51565b613b51818363ffffffff61393d16565b91505090565b6000818310613b665781611a4b565b5090919050565b6000613b798383614762565b90506000826001811115613b8957fe5b14613b975780841115613b9c565b808410155b611b35576040805162461bcd60e51b815260206004820152601260248201527f696e73756666696369656e742070726963650000000000000000000000000000604482015290519081900360640190fd5b600082613bfc57506000611a4e565b82820282848281613c0957fe5b0414611a4b5760405162461bcd60e51b815260040180806020018281038252602181526020018061573b6021913960400191505060405180910390fd5b6000611a4b83836040518060400160405280601a81526020017f536166654d6174683a206469766973696f6e206279207a65726f000000000000815250614e86565b60006001600160a01b038316613c9d57600080fd5b6001600160a01b038085166000908152600460209081526040808320938716835292905220829055611b31848484613f6d565b613ce981613cdd8461256d565b9063ffffffff61393d16565b6001600160a01b0390921660009081526003602052604090209190915550565b613d128261256d565b613d6257600980546001810182556000919091527f6e1540171b6c0c960b71a7020d9f60077f6af931a8bbf590da0223dacf75c7af0180546001600160a01b0319166001600160a01b0384161790555b613ce981613d6f8461256d565b9063ffffffff61397f16565b816001600160a01b0316836001600160a01b03167fddf252ad1be2c89b69c2b068fc378daa952ba7f163c4a11628f55a4df523b3ef836040518082815260200191505060405180910390a3505050565b600e546001600160a01b03161580613ded5750600e546001600160a01b031633145b6126c2576040805162461bcd60e51b815260206004820152601360248201527f756e617574686f72697a65642063616c6c657200000000000000000000000000604482015290519081900360640190fd5b6000805b8354811015613f63578280519060200120848281548110613e5f57fe5b906000526020600020016040518082805460018160011615610100020316600290048015613ec45780601f10613ea2576101008083540402835291820191613ec4565b820191906000526020600020905b815481529060010190602001808311613eb0575b505091505060405180910390201415613f5b57835484906000198101908110613ee957fe5b90600052602060002001848281548110613eff57fe5b906000526020600020019080546001816001161561010002031660029004613f289291906155b4565b5083805480613f3357fe5b600190038181906000526020600020016000613f4f9190615629565b90556001915050611a4e565b600101613e42565b5060009392505050565b816001600160a01b0316836001600160a01b03167f8c5be1e5ebec7d5bd14f71427d1e84f3dd0314c0f7b2291e5b200ac8c7c3b925836040518082815260200191505060405180910390a3505050565b604080516323b872dd60e01b81526001600160a01b03858116600483015230602483015260448201849052915184928316916323b872dd9160648083019260209291908290030181600087803b15801561401657600080fd5b505af115801561402a573d6000803e3d6000fd5b505050506040513d602081101561404057600080fd5b50506008546040805163095ea7b360e01b81526001600160a01b0392831660048201526024810185905290519183169163095ea7b3916044808201926020929091908290030181600087803b15801561409857600080fd5b505af11580156140ac573d6000803e3d6000fd5b505050506040513d60208110156140c257600080fd5b505060085460408051631cee2f7960e11b81523060048201526001600160a01b03868116602483015260448201869052915191909216916339dc5ef291606480830192600092919082900301818387803b15801561411f57600080fd5b505af1158015614133573d6000803e3d6000fd5b5050505050505050565b6000600160201b82106125025760405162461bcd60e51b81526004018080602001828103825260268152602001806157836026913960400191505060405180910390fd5b60008282018183128015906141965750838112155b806141ab57506000831280156141ab57508381125b611a4b5760405162461bcd60e51b81526004018080602001828103825260218152602001806156d36021913960400191505060405180910390fd5b6000611a4b6141fc83600263ffffffff613c4616565b83858161420557fe5b061015614213576000614216565b60015b60ff16613d6f858563ffffffff613c4616565b806001600160a01b031663893d20e86040518163ffffffff1660e01b815260040160206040518083038186803b15801561426257600080fd5b505afa158015614276573d6000803e3d6000fd5b505050506040513d602081101561428c57600080fd5b5051600e80546001600160a01b0319166001600160a01b0392831617905560408051630110ceef60e21b8152602060048201819052600c60248301526b2a34b6b2a83937bb34b232b960a11b60448301529151928416926304433bbc92606480840193919291829003018186803b15801561430657600080fd5b505afa15801561431a573d6000803e3d6000fd5b505050506040513d602081101561433057600080fd5b5051600a80546001600160a01b0319166001600160a01b0392831617905560408051630110ceef60e21b8152602060048201819052600f60248301527f4f7074696f6e7345786368616e6765000000000000000000000000000000000060448301529151928416926304433bbc92606480840193919291829003018186803b1580156143bb57600080fd5b505afa1580156143cf573d6000803e3d6000fd5b505050506040513d60208110156143e557600080fd5b5051600880546001600160a01b0319166001600160a01b039283161790819055670de0b6b3a7640000601255633b9aca0060135560408051635479195360e01b8152905191909216916354791953916004808301926020929190829003018186803b15801561445357600080fd5b505afa158015614467573d6000803e3d6000fd5b505050506040513d602081101561447d57600080fd5b505160145550633b9aca00601555565b600080601760018503815481106144a057fe5b6000918252602082206003909102015460175463ffffffff9091169250851061454257600a60009054906101000a90046001600160a01b03166001600160a01b031663bbe4fd506040518163ffffffff1660e01b815260040160206040518083038186803b15801561451157600080fd5b505afa158015614525573d6000803e3d6000fd5b505050506040513d602081101561453b57600080fd5b5051614567565b6017858154811061454f57fe5b600091825260209091206003909102015463ffffffff165b905060006145c06017600188038154811061457e57fe5b906000526020600020906003020160010154601760018903815481106145a057fe5b90600052602060002090600302016002015461397f90919063ffffffff16565b60175490915060009087106146ce57600854604080516370a0823160e01b815230600482015290516146c9926001600160a01b0316916370a08231916024808301926020929190829003018186803b15801561461b57600080fd5b505afa15801561462f573d6000803e3d6000fd5b505050506040513d602081101561464557600080fd5b50516008546040805162b08c1d60e21b815230600482015290516001600160a01b03909216916302c2307491602480820192602092909190829003018186803b15801561469157600080fd5b505afa1580156146a5573d6000803e3d6000fd5b505050506040513d60208110156146bb57600080fd5b50519063ffffffff61418116565b6146ee565b601787815481106146db57fe5b9060005260206000209060030201600101545b90506147158261470960155484614eeb90919063ffffffff16565b9063ffffffff614f9416565b945083861115614758576147558561474d614736868863ffffffff61393d16565b6015546116f390612101898d63ffffffff61393d16565b60155461504c565b94505b5050505092915050565b6000808083600181111561477257fe5b1461479157600f5460155461478c9163ffffffff61393d16565b6147a6565b601554600f546147a69163ffffffff61397f16565b90506000806147b486615118565b915091506000600a60009054906101000a90046001600160a01b03166001600160a01b031663bbe4fd506040518163ffffffff1660e01b815260040160206040518083038186803b15801561480857600080fd5b505afa15801561481c573d6000803e3d6000fd5b505050506040513d602081101561483257600080fd5b5051608088015160a089015191925060009161485b9163ffffffff918216919081169061393d16565b9050876080015163ffffffff16821015801561488157508760a0015163ffffffff168211155b6148d2576040805162461bcd60e51b815260206004820152601a60248201527f696e76616c69642070726963696e6720706172616d6574657273000000000000604482015290519081900360640190fd5b60006148f1896080015163ffffffff168461393d90919063ffffffff16565b905060006149028a60008888615249565b905060006149188b8c6101000151518989615249565b905061495e846116f36015546116f38c61210161494e614941898b61393d90919063ffffffff16565b8b9063ffffffff613bed16565b613cdd8a8d63ffffffff613bed16565b9b9a5050505050505050505050565b600080614978613a1d565b9050600083600181111561498857fe5b1415614ab8576000600860009054906101000a90046001600160a01b03166001600160a01b031663b434e9d6876000015160145489602001518a604001518b606001516040518663ffffffff1660e01b815260040180866001600160a01b03166001600160a01b03168152602001858152602001846001811115614a0857fe5b60ff168152602001836001600160781b031681526020018263ffffffff1681526020019550505050505060206040518083038186803b158015614a4a57600080fd5b505afa158015614a5e573d6000803e3d6000fd5b505050506040513d6020811015614a7457600080fd5b5051905084811115614aac57614aa7614a93828763ffffffff61393d16565b6014546116f390859063ffffffff613bed16565b614ab0565b6000195b925050614c08565b6008548551602087015160408089015160608a015191516383a7e7e160e01b81526001600160a01b038581166004830190815260009791909116956383a7e7e1959094909392909190602401846001811115614b1057fe5b60ff168152602001836001600160781b031681526020018263ffffffff16815260200194505050505060206040518083038186803b158015614b5157600080fd5b505afa158015614b65573d6000803e3d6000fd5b505050506040513d6020811015614b7b57600080fd5b5051905080851115614b9f57614b9a614a93868363ffffffff61393d16565b614ba3565b6000195b601454600854604080516370a0823160e01b81523060048201529051939650614c04938793612984938b936116f3936001600160a01b03909216916370a0823191602480820192602092909190829003018186803b158015613a7c57600080fd5b9250505b509392505050565b600080614c3d60098481548110614c2357fe5b6000918252602090912001546001600160a01b031661256d565b91508115614d4d576103e8614c75614c6f866116f3614c62878663ffffffff613bed16565b8a9063ffffffff613bed16565b826141e6565b600854600980549294506001600160a01b03909116916356a6d9ef919087908110614c9c57fe5b6000918252602082200154604080517fffffffff0000000000000000000000000000000000000000000000000000000060e086901b1681526001600160a01b03909216600483015260248201879052516044808301939282900301818387803b158015614d0857600080fd5b505af1158015614d1c573d6000803e3d6000fd5b50505050614d4b60098581548110614d3057fe5b6000918252602090912001546001600160a01b031684613cd0565b505b935093915050565b815482906000198101908110614d6757fe5b9060005260206000200160009054906101000a90046001600160a01b0316828281548110614d9157fe5b9060005260206000200160006101000a8154816001600160a01b0302191690836001600160a01b0316021790555081805480614dc957fe5b600082815260209020810160001990810180546001600160a01b03191690550190555050565b60008184841115614e7e5760405162461bcd60e51b81526004018080602001828103825283818151815260200191508051906020019080838360005b83811015614e43578181015183820152602001614e2b565b50505050905090810190601f168015614e705780820380516001836020036101000a031916815260200191505b509250505060405180910390fd5b505050900390565b60008183614ed55760405162461bcd60e51b8152602060048201818152835160248401528351909283926044909101919085019080838360008315614e43578181015183820152602001614e2b565b506000838581614ee157fe5b0495945050505050565b600082614efa57506000611a4e565b82600019148015614f0e5750600160ff1b82145b15614f4a5760405162461bcd60e51b815260040180806020018281038252602781526020018061575c6027913960400191505060405180910390fd5b82820282848281614f5757fe5b0514611a4b5760405162461bcd60e51b815260040180806020018281038252602781526020018061575c6027913960400191505060405180910390fd5b600081614fe8576040805162461bcd60e51b815260206004820181905260248201527f5369676e6564536166654d6174683a206469766973696f6e206279207a65726f604482015290519081900360640190fd5b81600019148015614ffc5750600160ff1b83145b156150385760405162461bcd60e51b815260040180806020018281038252602181526020018061571a6021913960400191505060405180910390fd5b600082848161504357fe5b05949350505050565b60008261505a575080611b35565b8183111561508a57615083826116f36126858761507d888563ffffffff61393d16565b8761504c565b9050611b35565b5080806000858161509a8461537a565b90505b600184111561510d576150b784600263ffffffff613c4616565b93506150c6816121018461537a565b9150866150d9848663ffffffff61397f16565b1015615108576150ef838563ffffffff61397f16565b9250615105866116f3878563ffffffff613bed16565b94505b61509d565b505050509392505050565b6000806000836000015190506000816001600160a01b0316638e15f4736040518163ffffffff1660e01b8152600401604080518083038186803b15801561515e57600080fd5b505afa158015615172573d6000803e3d6000fd5b505050506040513d604081101561518857600080fd5b50602001516000945092508290505b8285610100015185815181106151a957fe5b60200260200101516001600160781b03161080156151cc57508461010001515184105b156151dc57600190930192615197565b6000841180156151f157508461010001515184105b615242576040805162461bcd60e51b815260206004820152601a60248201527f696e76616c69642070726963696e6720706172616d6574657273000000000000604482015290519081900360640190fd5b5050915091565b60008061525c858563ffffffff61397f16565b90506000866101200151828151811061527157fe5b60200260200101516001600160781b031690506000876101200151600184038151811061529a57fe5b60200260200101516001600160781b0316905061536e8161536261530c8b610100015160018b03815181106152cb57fe5b60200260200101516001600160781b03168c61010001518b815181106152ed57fe5b60200260200101516001600160781b03166153ca90919063ffffffff16565b6147096153468d610100015160018d038151811061532657fe5b60200260200101516001600160781b03168b61393d90919063ffffffff16565b615356888863ffffffff6153ca16565b9063ffffffff614eeb16565b9063ffffffff61418116565b98975050505050505050565b60008061539360026116f385600163ffffffff61397f16565b90508291505b818110156153c4579050806153bd60026116f383613d6f878263ffffffff613c4616565b9050615399565b50919050565b60008183038183128015906153df5750838113155b806153f457506000831280156153f457508381135b611a4b5760405162461bcd60e51b81526004018080602001828103825260248152602001806157a96024913960400191505060405180910390fd5b6040805161014081019091526000808252602082019081526000602082018190526040820181905260608083018290526080830182905260a0830182905260c083019190915260e082018190526101009091015290565b8280548282559060005260206000209060010160029004810192821561552e5791602002820160005b838211156154f957835183826101000a8154816001600160781b0302191690836001600160781b031602179055509260200192600f01602081600e010492830192600103026154af565b801561552c5782816101000a8154906001600160781b030219169055600f01602081600e010492830192600103026154f9565b505b5061250292915061566d565b828054600181600116156101000203166002900490600052602060002090601f016020900481019282601f1061557b5782800160ff198235161785556155a8565b828001600101855582156155a8579182015b828111156155a857823582559160200191906001019061558d565b50612502929150615691565b828054600181600116156101000203166002900490600052602060002090601f016020900481019282601f106155ed57805485556155a8565b828001600101855582156155a857600052602060002091601f016020900482015b828111156155a857825482559160010191906001019061560e565b50805460018160011615610100020316600290046000825580601f1061564f5750613793565b601f0160209004906000526020600020908101906137939190615691565b611a3b91905b808211156125025780546001600160781b0319168155600101615673565b611a3b91905b80821115612502576000815560010161569756fe53616665436173743a2076616c756520646f65736e27742066697420696e2031323020626974735369676e6564536166654d6174683a206164646974696f6e206f766572666c6f774c696e656172204c697175696469747920506f6f6c2052656465656d61626c6520546f6b656e5369676e6564536166654d6174683a206469766973696f6e206f766572666c6f77536166654d6174683a206d756c7469706c69636174696f6e206f766572666c6f775369676e6564536166654d6174683a206d756c7469706c69636174696f6e206f766572666c6f7753616665436173743a2076616c756520646f65736e27742066697420696e20333220626974735369676e6564536166654d6174683a207375627472616374696f6e206f766572666c6f77a26469706673582212208428d43627bfca4c7bb092f88a58e4ef0186dfe4780ed9fa506beac98016e5ae64736f6c634300060000334c696e656172204c697175696469747920506f6f6c2052656465656d61626c6520546f6b656e454950373132446f6d61696e28737472696e67206e616d652c737472696e672076657273696f6e2c75696e7432353620636861696e49642c6164647265737320766572696679696e67436f6e747261637429",
  "source": "pragma solidity >=0.6.0;\n\nimport \"../deployment/ManagedContract.sol\";\nimport \"../finance/OptionsExchange.sol\";\nimport \"../finance/RedeemableToken.sol\";\nimport \"../interfaces/TimeProvider.sol\";\nimport \"../interfaces/LiquidityPool.sol\";\nimport \"../interfaces/UnderlyingFeed.sol\";\nimport \"../utils/ERC20.sol\";\nimport \"../utils/MoreMath.sol\";\nimport \"../utils/SafeCast.sol\";\nimport \"../utils/SafeMath.sol\";\nimport \"../utils/SignedSafeMath.sol\";\n\ncontract LinearLiquidityPool is LiquidityPool, ManagedContract, RedeemableToken {\n\n    using SafeCast for uint;\n    using SafeMath for uint;\n    using SignedSafeMath for int;\n\n    enum Operation { BUY, SELL }\n\n    struct PricingParameters {\n        address udlFeed;\n        OptionsExchange.OptionType optType;\n        uint120 strike;\n        uint32 maturity;\n        uint32 t0;\n        uint32 t1;\n        uint120 buyStock;\n        uint120 sellStock;\n        uint120[] x;\n        uint120[] y;\n    }\n\n    struct Deposit {\n        uint32 date;\n        uint balance;\n        uint value;\n    }\n\n    TimeProvider private time;\n\n    mapping(string => PricingParameters) private parameters;\n    mapping(string => uint120) private written;\n    mapping(string => uint120) private holding;\n\n    string private constant _name = \"Linear Liquidity Pool Redeemable Token\";\n    string private constant _symbol = \"LLPTK\";\n\n    address private owner;\n    uint private spread;\n    uint private reserveRatio;\n    uint private _maturity;\n\n    uint private timeBase;\n    uint private sqrtTimeBase;\n    uint private volumeBase;\n    uint private fractionBase;\n    string[] private optSymbols;\n    Deposit[] private deposits;\n\n    constructor(address deployer) ERC20(_name) public {\n\n        Deployer(deployer).setContractAddress(\"LinearLiquidityPool\");\n    }\n\n    function initialize(Deployer deployer) override internal {\n\n        owner = deployer.getOwner();\n        time = TimeProvider(deployer.getContractAddress(\"TimeProvider\"));\n        exchange = OptionsExchange(deployer.getContractAddress(\"OptionsExchange\"));\n\n        timeBase = 1e18;\n        sqrtTimeBase = 1e9;\n        volumeBase = exchange.getVolumeBase();\n        fractionBase = 1e9;\n    }\n\n    function name() override external view returns (string memory) {\n        return _name;\n    }\n\n    function symbol() override external view returns (string memory) {\n        return _symbol;\n    }\n\n    function setParameters(\n        uint _spread,\n        uint _reserveRatio,\n        uint _mt\n    )\n        external\n    {\n        ensureCaller();\n        spread = _spread;\n        reserveRatio = _reserveRatio;\n        _maturity = _mt;\n    }\n\n    function redeemAllowed() override public returns (bool) {\n        \n        return time.getNow() >= _maturity;\n    }\n\n    function maturity() override external view returns (uint) {\n        \n        return _maturity;\n    }\n\n    function yield(uint dt) override external view returns (uint y) {\n        \n        y = fractionBase;\n\n        if (deposits.length > 0) {\n            \n            uint _now = time.getNow();\n            uint start = _now.sub(dt);\n            \n            uint i = 0;\n            for (i = 0; i < deposits.length; i++) {\n                if (deposits[i].date > start) {\n                    break;\n                }\n            }\n\n            for (; i <= deposits.length; i++) {\n                if (i > 0) {\n                    y = y.mul(calcYield(i, start)).div(fractionBase);\n                }\n            }\n        }\n    }\n\n    function addSymbol(\n        string calldata optSymbol,\n        address udlFeed,\n        uint strike,\n        uint _mt,\n        OptionsExchange.OptionType optType,\n        uint t0,\n        uint t1,\n        uint120[] calldata x,\n        uint120[] calldata y,\n        uint buyStock,\n        uint sellStock\n    )\n        external\n    {\n        ensureCaller();\n        require(_mt < _maturity, \"invalid maturity\");\n        require(x.length > 0 && x.length.mul(2) == y.length, \"invalid pricing surface\");\n\n        if (parameters[optSymbol].x.length == 0) {\n            optSymbols.push(optSymbol);\n        }\n\n        parameters[optSymbol] = PricingParameters(\n            udlFeed,\n            optType,\n            strike.toUint120(),\n            _mt.toUint32(),\n            t0.toUint32(),\n            t1.toUint32(),\n            buyStock.toUint120(),\n            sellStock.toUint120(),\n            x,\n            y\n        );\n\n        emit AddSymbol(optSymbol);\n    }\n    \n    function removeSymbol(string calldata optSymbol) external {\n\n        ensureCaller();\n        PricingParameters memory empty;\n        parameters[optSymbol] = empty;\n        delete written[optSymbol];\n        delete holding[optSymbol];\n        Arrays.removeItem(optSymbols, optSymbol);\n        emit RemoveSymbol(optSymbol);\n    }\n\n    function depositTokens(\n        address to,\n        address token,\n        uint value,\n        uint deadline,\n        uint8 v,\n        bytes32 r,\n        bytes32 s\n    )\n        override\n        external\n    {\n        ERC20(token).permit(msg.sender, address(this), value, deadline, v, r, s);\n        depositTokens(to, token, value);\n    }\n\n    function depositTokens(address to, address token, uint value) override public {\n\n        uint b0 = exchange.balanceOf(address(this));\n        depositTokensInExchange(msg.sender, token, value);\n        uint b1 = exchange.balanceOf(address(this));\n        int po = exchange.calcExpectedPayout(address(this));\n        \n        deposits.push(Deposit(time.getNow().toUint32(), uint(int(b0).add(po)), value));\n\n        uint ts = _totalSupply;\n        int expBal = po.add(int(b1));\n        uint p = b1.sub(b0).mul(fractionBase).div(uint(expBal));\n\n        uint b = 1e3;\n        uint v = ts > 0 ?\n            ts.mul(p).mul(b).div(fractionBase.sub(p)) : \n            uint(expBal).mul(b);\n        v = MoreMath.round(v, b);\n\n        addBalance(to, v);\n        _totalSupply = ts.add(v);\n        emitTransfer(address(0), to, v);\n    }\n    \n    function listSymbols() override external view returns (string memory available) {\n\n        for (uint i = 0; i < optSymbols.length; i++) {\n            if (parameters[optSymbols[i]].maturity > time.getNow()) {\n                if (bytes(available).length == 0) {\n                    available = optSymbols[i];\n                } else {\n                    available = string(abi.encodePacked(available, \"\\n\", optSymbols[i]));\n                }\n            }\n        }\n    }\n\n    function queryBuy(string memory optSymbol)\n        override\n        public\n        view\n        returns (uint price, uint volume)\n    {\n        ensureValidSymbol(optSymbol);\n        PricingParameters memory param = parameters[optSymbol];\n        price = calcOptPrice(param, Operation.BUY);\n        volume = MoreMath.min(\n            calcVolume(param, price, Operation.BUY),\n            uint(param.buyStock).sub(written[optSymbol])\n        );\n    }\n\n    function querySell(string memory optSymbol)\n        override\n        public\n        view\n        returns (uint price, uint volume)\n    {    \n        ensureValidSymbol(optSymbol);\n        PricingParameters memory param = parameters[optSymbol];\n        price = calcOptPrice(param, Operation.SELL);\n        volume = MoreMath.min(\n            calcVolume(param, price, Operation.SELL),\n            uint(param.sellStock).sub(holding[optSymbol])\n        );\n    }\n    \n    function buy(\n        string memory optSymbol,\n        uint price,\n        uint volume,\n        address token,\n        uint deadline,\n        uint8 v,\n        bytes32 r,\n        bytes32 s\n    )\n        override\n        public\n        returns (address addr)\n    {\n        require(volume > 0, \"invalid volume\");\n        ensureValidSymbol(optSymbol);\n\n        PricingParameters memory param = parameters[optSymbol];\n        price = receivePayment(param, price, volume, token, deadline, v, r, s);\n\n        uint _holding = holding[optSymbol];\n        if (volume > _holding) {\n\n            uint _written = written[optSymbol];\n            uint toWrite = volume.sub(_holding);\n            require(_written.add(toWrite) <= param.buyStock, \"excessive volume\");\n            written[optSymbol] = _written.add(toWrite).toUint120();\n\n            exchange.writeOptions(\n                param.udlFeed,\n                toWrite,\n                param.optType,\n                param.strike,\n                param.maturity\n            );\n\n            require(calcFreeBalance() > 0, \"excessive volume\");\n        }\n\n        if (_holding > 0) {\n            uint diff = MoreMath.min(_holding, volume);\n            holding[optSymbol] = _holding.sub(diff).toUint120();\n        }\n\n        addr = exchange.resolveToken(optSymbol);\n        OptionToken tk = OptionToken(addr);\n        tk.transfer(msg.sender, volume);\n\n        emit Buy(optSymbol, price, volume, token);\n    }\n\n    function buy(string calldata optSymbol, uint price, uint volume, address token)\n        override\n        external\n        returns (address addr)\n    {\n        bytes32 x;\n        addr = buy(optSymbol, price, volume, token, 0, 0, x, x);\n    }\n\n    function sell(string calldata optSymbol, uint price, uint volume) override external {\n        \n        require(volume > 0, \"invalid volume\");\n        ensureValidSymbol(optSymbol);\n\n        PricingParameters memory param = parameters[optSymbol];\n        price = validatePrice(price, param, Operation.SELL);\n\n        address addr = exchange.resolveToken(optSymbol);\n        OptionToken tk = OptionToken(addr);\n        tk.transferFrom(msg.sender, address(this), volume);\n\n        uint value = price.mul(volume).div(volumeBase);\n        exchange.transferBalance(msg.sender, value);\n        require(calcFreeBalance() > 0, \"excessive volume\");\n        \n        uint _holding = uint(holding[optSymbol]).add(volume);\n        uint _written = written[optSymbol];\n\n        if (_written > 0) {\n            uint toBurn = MoreMath.min(_written, volume);\n            tk.burn(toBurn);\n            written[optSymbol] = _written.sub(toBurn).toUint120();\n            _holding = _holding.sub(toBurn);\n        }\n\n        require(_holding <= param.sellStock, \"excessive volume\");\n        holding[optSymbol] = _holding.toUint120();\n\n        emit Sell(optSymbol, price, volume);\n    }\n\n    function receivePayment(\n        PricingParameters memory param,\n        uint price,\n        uint volume,\n        address token,\n        uint deadline,\n        uint8 v,\n        bytes32 r,\n        bytes32 s\n    )\n        private\n        returns (uint)\n    {\n        \n        uint maxValue = price.mul(volume).div(volumeBase);\n        price = validatePrice(price, param, Operation.BUY);\n        uint value = price.mul(volume).div(volumeBase);\n\n        if (token != address(exchange)) {\n            if (deadline > 0) {\n                ERC20(token).permit(msg.sender, address(this), maxValue, deadline, v, r, s);\n            }\n            depositTokensInExchange(msg.sender, token, value);\n        } else {\n            exchange.transferBalance(msg.sender, address(this), value, maxValue, deadline, v, r, s);\n        }\n\n        return price;\n    }\n\n    function validatePrice(\n        uint price, \n        PricingParameters memory param, \n        Operation op\n    ) \n        private\n        view\n        returns (uint p) \n    {\n        p = calcOptPrice(param, op);\n        require(\n            op == Operation.BUY ? price >= p : price <= p,\n            \"insufficient price\"\n        );\n    }\n\n    function calcOptPrice(PricingParameters memory p, Operation op)\n        private\n        view\n        returns (uint price)\n    {\n        uint f = op == Operation.BUY ? spread.add(fractionBase) : fractionBase.sub(spread);\n        \n        (uint j, uint xp) = findUdlPrice(p);\n\n        uint _now = time.getNow();\n        uint dt = uint(p.t1).sub(uint(p.t0));\n        require(_now >= p.t0 && _now <= p.t1, \"invalid pricing parameters\");\n        uint t = _now.sub(p.t0);\n        uint p0 = calcOptPriceAt(p, 0, j, xp);\n        uint p1 = calcOptPriceAt(p, p.x.length, j, xp);\n\n        price = p0.mul(dt).sub(\n            t.mul(p0.sub(p1))\n        ).mul(f).div(fractionBase).div(dt);\n    }\n\n    function findUdlPrice(PricingParameters memory p) private view returns (uint j, uint xp) {\n\n        UnderlyingFeed feed = UnderlyingFeed(p.udlFeed);\n        (,int udlPrice) = feed.getLatestPrice();\n        \n        j = 0;\n        xp = uint(udlPrice);\n        while (p.x[j] < xp && j < p.x.length) {\n            j++;\n        }\n        require(j > 0 && j < p.x.length, \"invalid pricing parameters\");\n    }\n\n    function calcOptPriceAt(\n        PricingParameters memory p,\n        uint offset,\n        uint j,\n        uint xp\n    )\n        private\n        pure\n        returns (uint price)\n    {\n        uint k = offset.add(j);\n        int yA = int(p.y[k]);\n        int yB = int(p.y[k - 1]);\n        price = uint(\n            yA.sub(yB).mul(\n                int(xp.sub(p.x[j - 1]))\n            ).div(\n                int(p.x[j]).sub(int(p.x[j - 1]))\n            ).add(yB)\n        );\n    }\n\n    function calcVolume(\n        PricingParameters memory p,\n        uint price,\n        Operation op\n    )\n        private\n        view\n        returns (uint volume)\n    {\n        uint fb = calcFreeBalance();\n\n        if (op == Operation.BUY) {\n\n            uint coll = exchange.calcCollateral(\n                p.udlFeed,\n                volumeBase,\n                p.optType,\n                p.strike,\n                p.maturity\n            );\n\n            volume = coll <= price ? uint(-1) :\n                fb.mul(volumeBase).div(coll.sub(price));\n\n        } else {\n            \n            uint iv = uint(exchange.calcIntrinsicValue(\n                p.udlFeed,\n                p.optType,\n                p.strike,\n                p.maturity\n            ));\n\n            volume = price <= iv ? uint(-1) :\n                fb.mul(volumeBase).div(price.sub(iv));\n\n            volume = MoreMath.min(\n                volume, \n                exchange.balanceOf(address(this)).mul(volumeBase).div(price)\n            );\n        }\n    }\n\n    function calcFreeBalance() private view returns (uint balance) {\n\n        balance = exchange.balanceOf(address(this)).mul(reserveRatio).div(fractionBase);\n        uint sp = exchange.calcSurplus(address(this));\n        balance = sp > balance ? sp.sub(balance) : 0;\n    }\n\n    function calcYield(uint index, uint start) private view returns (uint y) {\n\n        uint t0 = deposits[index - 1].date;\n        uint t1 = index < deposits.length ?\n            deposits[index].date : time.getNow();\n\n        int v0 = int(deposits[index - 1].value.add(deposits[index - 1].balance));\n        int v1 = index < deposits.length ? \n            int(deposits[index].balance) :\n            exchange.calcExpectedPayout(address(this)).add(int(exchange.balanceOf(address(this))));\n\n        y = uint(v1.mul(int(fractionBase)).div(v0));\n        if (start > t0) {\n            y = MoreMath.powDecimal(\n                y, \n                (t1.sub(start)).mul(fractionBase).div(t1.sub(t0)), \n                fractionBase\n            );\n        }\n    }\n\n    function depositTokensInExchange(address sender, address token, uint value) private {\n        \n        ERC20 t = ERC20(token);\n        t.transferFrom(sender, address(this), value);\n        t.approve(address(exchange), value);\n        exchange.depositTokens(address(this), token, value);\n    }\n\n    function addBalance(address _owner, uint value) override internal {\n\n        if (balanceOf(_owner) == 0) {\n            holders.push(_owner);\n        }\n        balances[_owner] = balanceOf(_owner).add(value);\n    }\n\n    function ensureValidSymbol(string memory optSymbol) private view {\n\n        require(parameters[optSymbol].udlFeed !=  address(0), \"invalid optSymbol\");\n    }\n\n    function ensureCaller() private view {\n\n        require(owner == address(0) || msg.sender == owner, \"unauthorized caller\");\n    }\n}",
  "sourcePath": "/Users/dev/Documents/coding/defioptions/DeFiOptions-contracts/contracts/pools/LinearLiquidityPool.sol",
  "compiler": {
    "name": "solc",
    "version": "0.6.0+commit.26b70077.Emscripten.clang"
  },
  "schemaVersion": "3.3.3",
  "updatedAt": "2021-03-26T21:47:17.371Z",
  "devdoc": {
    "methods": {}
  },
  "userdoc": {
    "methods": {}
  }
}