{
  "contractName": "LinearLiquidityPool",
  "abi": [
    {
      "inputs": [
        {
          "internalType": "address",
          "name": "deployer",
          "type": "address"
        }
      ],
      "stateMutability": "nonpayable",
      "type": "constructor"
    },
    {
      "anonymous": false,
      "inputs": [
        {
          "indexed": true,
          "internalType": "string",
          "name": "optSymbol",
          "type": "string"
        }
      ],
      "name": "AddSymbol",
      "type": "event"
    },
    {
      "anonymous": false,
      "inputs": [
        {
          "indexed": true,
          "internalType": "address",
          "name": "owner",
          "type": "address"
        },
        {
          "indexed": true,
          "internalType": "address",
          "name": "spender",
          "type": "address"
        },
        {
          "indexed": false,
          "internalType": "uint256",
          "name": "value",
          "type": "uint256"
        }
      ],
      "name": "Approval",
      "type": "event"
    },
    {
      "anonymous": false,
      "inputs": [
        {
          "indexed": true,
          "internalType": "string",
          "name": "optSymbol",
          "type": "string"
        },
        {
          "indexed": false,
          "internalType": "uint256",
          "name": "price",
          "type": "uint256"
        },
        {
          "indexed": false,
          "internalType": "uint256",
          "name": "volume",
          "type": "uint256"
        },
        {
          "indexed": false,
          "internalType": "address",
          "name": "token",
          "type": "address"
        }
      ],
      "name": "Buy",
      "type": "event"
    },
    {
      "anonymous": false,
      "inputs": [
        {
          "indexed": true,
          "internalType": "string",
          "name": "optSymbol",
          "type": "string"
        }
      ],
      "name": "RemoveSymbol",
      "type": "event"
    },
    {
      "anonymous": false,
      "inputs": [
        {
          "indexed": true,
          "internalType": "string",
          "name": "optSymbol",
          "type": "string"
        },
        {
          "indexed": false,
          "internalType": "uint256",
          "name": "price",
          "type": "uint256"
        },
        {
          "indexed": false,
          "internalType": "uint256",
          "name": "volume",
          "type": "uint256"
        }
      ],
      "name": "Sell",
      "type": "event"
    },
    {
      "anonymous": false,
      "inputs": [
        {
          "indexed": true,
          "internalType": "address",
          "name": "from",
          "type": "address"
        },
        {
          "indexed": true,
          "internalType": "address",
          "name": "to",
          "type": "address"
        },
        {
          "indexed": false,
          "internalType": "uint256",
          "name": "value",
          "type": "uint256"
        }
      ],
      "name": "Transfer",
      "type": "event"
    },
    {
      "inputs": [
        {
          "internalType": "address",
          "name": "owner",
          "type": "address"
        },
        {
          "internalType": "address",
          "name": "spender",
          "type": "address"
        }
      ],
      "name": "allowance",
      "outputs": [
        {
          "internalType": "uint256",
          "name": "",
          "type": "uint256"
        }
      ],
      "stateMutability": "view",
      "type": "function"
    },
    {
      "inputs": [
        {
          "internalType": "address",
          "name": "spender",
          "type": "address"
        },
        {
          "internalType": "uint256",
          "name": "value",
          "type": "uint256"
        }
      ],
      "name": "approve",
      "outputs": [
        {
          "internalType": "bool",
          "name": "",
          "type": "bool"
        }
      ],
      "stateMutability": "nonpayable",
      "type": "function"
    },
    {
      "inputs": [
        {
          "internalType": "address",
          "name": "owner",
          "type": "address"
        }
      ],
      "name": "balanceOf",
      "outputs": [
        {
          "internalType": "uint256",
          "name": "",
          "type": "uint256"
        }
      ],
      "stateMutability": "view",
      "type": "function"
    },
    {
      "inputs": [
        {
          "internalType": "address",
          "name": "spender",
          "type": "address"
        },
        {
          "internalType": "uint256",
          "name": "subtractedValue",
          "type": "uint256"
        }
      ],
      "name": "decreaseAllowance",
      "outputs": [
        {
          "internalType": "bool",
          "name": "",
          "type": "bool"
        }
      ],
      "stateMutability": "nonpayable",
      "type": "function"
    },
    {
      "inputs": [],
      "name": "destroy",
      "outputs": [],
      "stateMutability": "nonpayable",
      "type": "function"
    },
    {
      "inputs": [
        {
          "internalType": "uint256",
          "name": "limit",
          "type": "uint256"
        }
      ],
      "name": "destroy",
      "outputs": [],
      "stateMutability": "nonpayable",
      "type": "function"
    },
    {
      "inputs": [
        {
          "internalType": "address",
          "name": "spender",
          "type": "address"
        },
        {
          "internalType": "uint256",
          "name": "addedValue",
          "type": "uint256"
        }
      ],
      "name": "increaseAllowance",
      "outputs": [
        {
          "internalType": "bool",
          "name": "",
          "type": "bool"
        }
      ],
      "stateMutability": "nonpayable",
      "type": "function"
    },
    {
      "inputs": [
        {
          "internalType": "contract Deployer",
          "name": "deployer",
          "type": "address"
        }
      ],
      "name": "initializeAndLock",
      "outputs": [],
      "stateMutability": "nonpayable",
      "type": "function"
    },
    {
      "inputs": [
        {
          "internalType": "uint256",
          "name": "index",
          "type": "uint256"
        }
      ],
      "name": "redeem",
      "outputs": [
        {
          "internalType": "uint256",
          "name": "",
          "type": "uint256"
        }
      ],
      "stateMutability": "nonpayable",
      "type": "function"
    },
    {
      "inputs": [],
      "name": "totalSupply",
      "outputs": [
        {
          "internalType": "uint256",
          "name": "",
          "type": "uint256"
        }
      ],
      "stateMutability": "view",
      "type": "function"
    },
    {
      "inputs": [
        {
          "internalType": "address",
          "name": "to",
          "type": "address"
        },
        {
          "internalType": "uint256",
          "name": "value",
          "type": "uint256"
        }
      ],
      "name": "transfer",
      "outputs": [
        {
          "internalType": "bool",
          "name": "",
          "type": "bool"
        }
      ],
      "stateMutability": "nonpayable",
      "type": "function"
    },
    {
      "inputs": [
        {
          "internalType": "address",
          "name": "from",
          "type": "address"
        },
        {
          "internalType": "address",
          "name": "to",
          "type": "address"
        },
        {
          "internalType": "uint256",
          "name": "value",
          "type": "uint256"
        }
      ],
      "name": "transferFrom",
      "outputs": [
        {
          "internalType": "bool",
          "name": "",
          "type": "bool"
        }
      ],
      "stateMutability": "nonpayable",
      "type": "function"
    },
    {
      "inputs": [],
      "name": "name",
      "outputs": [
        {
          "internalType": "string",
          "name": "",
          "type": "string"
        }
      ],
      "stateMutability": "view",
      "type": "function"
    },
    {
      "inputs": [],
      "name": "symbol",
      "outputs": [
        {
          "internalType": "string",
          "name": "",
          "type": "string"
        }
      ],
      "stateMutability": "view",
      "type": "function"
    },
    {
      "inputs": [],
      "name": "decimals",
      "outputs": [
        {
          "internalType": "uint8",
          "name": "",
          "type": "uint8"
        }
      ],
      "stateMutability": "view",
      "type": "function"
    },
    {
      "inputs": [
        {
          "internalType": "uint256",
          "name": "_spread",
          "type": "uint256"
        },
        {
          "internalType": "uint256",
          "name": "_reserveRatio",
          "type": "uint256"
        },
        {
          "internalType": "uint256",
          "name": "_mt",
          "type": "uint256"
        }
      ],
      "name": "setParameters",
      "outputs": [],
      "stateMutability": "nonpayable",
      "type": "function"
    },
    {
      "inputs": [],
      "name": "redeemAllowed",
      "outputs": [
        {
          "internalType": "bool",
          "name": "",
          "type": "bool"
        }
      ],
      "stateMutability": "nonpayable",
      "type": "function"
    },
    {
      "inputs": [],
      "name": "maturity",
      "outputs": [
        {
          "internalType": "uint256",
          "name": "",
          "type": "uint256"
        }
      ],
      "stateMutability": "view",
      "type": "function"
    },
    {
      "inputs": [
        {
          "internalType": "uint256",
          "name": "dt",
          "type": "uint256"
        }
      ],
      "name": "yield",
      "outputs": [
        {
          "internalType": "uint256",
          "name": "y",
          "type": "uint256"
        }
      ],
      "stateMutability": "view",
      "type": "function"
    },
    {
      "inputs": [
        {
          "internalType": "string",
          "name": "optSymbol",
          "type": "string"
        },
        {
          "internalType": "address",
          "name": "udlFeed",
          "type": "address"
        },
        {
          "internalType": "uint256",
          "name": "strike",
          "type": "uint256"
        },
        {
          "internalType": "uint256",
          "name": "_mt",
          "type": "uint256"
        },
        {
          "internalType": "enum OptionsExchange.OptionType",
          "name": "optType",
          "type": "uint8"
        },
        {
          "internalType": "uint256",
          "name": "t0",
          "type": "uint256"
        },
        {
          "internalType": "uint256",
          "name": "t1",
          "type": "uint256"
        },
        {
          "internalType": "uint256[]",
          "name": "x",
          "type": "uint256[]"
        },
        {
          "internalType": "uint256[]",
          "name": "y",
          "type": "uint256[]"
        },
        {
          "internalType": "uint256",
          "name": "buyStock",
          "type": "uint256"
        },
        {
          "internalType": "uint256",
          "name": "sellStock",
          "type": "uint256"
        }
      ],
      "name": "addSymbol",
      "outputs": [],
      "stateMutability": "nonpayable",
      "type": "function"
    },
    {
      "inputs": [
        {
          "internalType": "string",
          "name": "optSymbol",
          "type": "string"
        }
      ],
      "name": "removeSymbol",
      "outputs": [],
      "stateMutability": "nonpayable",
      "type": "function"
    },
    {
      "inputs": [
        {
          "internalType": "address",
          "name": "to",
          "type": "address"
        },
        {
          "internalType": "address",
          "name": "token",
          "type": "address"
        },
        {
          "internalType": "uint256",
          "name": "value",
          "type": "uint256"
        }
      ],
      "name": "depositTokens",
      "outputs": [],
      "stateMutability": "nonpayable",
      "type": "function"
    },
    {
      "inputs": [],
      "name": "listSymbols",
      "outputs": [
        {
          "internalType": "string",
          "name": "available",
          "type": "string"
        }
      ],
      "stateMutability": "view",
      "type": "function"
    },
    {
      "inputs": [
        {
          "internalType": "string",
          "name": "optSymbol",
          "type": "string"
        }
      ],
      "name": "queryBuy",
      "outputs": [
        {
          "internalType": "uint256",
          "name": "price",
          "type": "uint256"
        },
        {
          "internalType": "uint256",
          "name": "volume",
          "type": "uint256"
        }
      ],
      "stateMutability": "view",
      "type": "function"
    },
    {
      "inputs": [
        {
          "internalType": "string",
          "name": "optSymbol",
          "type": "string"
        }
      ],
      "name": "querySell",
      "outputs": [
        {
          "internalType": "uint256",
          "name": "price",
          "type": "uint256"
        },
        {
          "internalType": "uint256",
          "name": "volume",
          "type": "uint256"
        }
      ],
      "stateMutability": "view",
      "type": "function"
    },
    {
      "inputs": [
        {
          "internalType": "string",
          "name": "optSymbol",
          "type": "string"
        },
        {
          "internalType": "uint256",
          "name": "price",
          "type": "uint256"
        },
        {
          "internalType": "uint256",
          "name": "volume",
          "type": "uint256"
        },
        {
          "internalType": "address",
          "name": "token",
          "type": "address"
        }
      ],
      "name": "buy",
      "outputs": [
        {
          "internalType": "address",
          "name": "addr",
          "type": "address"
        }
      ],
      "stateMutability": "nonpayable",
      "type": "function"
    },
    {
      "inputs": [
        {
          "internalType": "string",
          "name": "optSymbol",
          "type": "string"
        },
        {
          "internalType": "uint256",
          "name": "price",
          "type": "uint256"
        },
        {
          "internalType": "uint256",
          "name": "volume",
          "type": "uint256"
        }
      ],
      "name": "sell",
      "outputs": [],
      "stateMutability": "nonpayable",
      "type": "function"
    }
  ],
  "bytecode": "0x60806040523480156200001157600080fd5b506040516200495138038062004951833981810160405260208110156200003757600080fd5b50516040805163ac119e7b60e01b815260206004820152601360248201527f4c696e6561724c6971756964697479506f6f6c00000000000000000000000000604482015290516001600160a01b0383169163ac119e7b91606480830192600092919082900301818387803b158015620000af57600080fd5b505af1158015620000c4573d6000803e3d6000fd5b505050505061487880620000d96000396000f3fe608060405234801561001057600080fd5b50600436106101a95760003560e01c806370a08231116100f9578063a457c2d711610097578063c7f1978e11610071578063c7f1978e146107e7578063d259945d146107ef578063db006a7514610893578063dd62ed3e146108b0576101a9565b8063a457c2d7146106f0578063a9059cbb1461071c578063ad56d52e14610748576101a9565b80638e424b6b116100d35780638e424b6b146104c957806395d89b41146105865780639bc53cb21461058e5780639d118770146106d3576101a9565b806370a082311461047e578063765287ef146104a457806383197ef0146104c1576101a9565b8063313ce56711610166578063395093511161014057806339509351146103ee57806339dc5ef21461041a57806345e77633146104505780635c1bfb3214610458576101a9565b8063313ce5671461033957806334c5d2ce1461035757806336977d3214610380576101a9565b806304804ee8146101ae57806306fdde0314610224578063095ea7b3146102a157806318160ddd146102e1578063204f83f9146102fb57806323b872dd14610303575b600080fd5b610222600480360360608110156101c457600080fd5b810190602081018135600160201b8111156101de57600080fd5b8201836020820111156101f057600080fd5b803590602001918460018302840111600160201b8311171561021157600080fd5b9193509150803590602001356108de565b005b61022c610ee4565b6040805160208082528351818301528351919283929083019185019080838360005b8381101561026657818101518382015260200161024e565b50505050905090810190601f1680156102935780820380516001836020036101000a031916815260200191505b509250505060405180910390f35b6102cd600480360360408110156102b757600080fd5b506001600160a01b038135169060200135610f05565b604080519115158252519081900360200190f35b6102e9610f55565b60408051918252519081900360200190f35b6102e9610f5b565b6102cd6004803603606081101561031957600080fd5b506001600160a01b03813581169160208101359091169060400135610f61565b61034161103d565b6040805160ff9092168252519081900360200190f35b6102226004803603606081101561036d57600080fd5b5080359060208101359060400135611042565b6102226004803603602081101561039657600080fd5b810190602081018135600160201b8111156103b057600080fd5b8201836020820111156103c257600080fd5b803590602001918460018302840111600160201b831117156103e357600080fd5b509092509050611058565b6102cd6004803603604081101561040457600080fd5b506001600160a01b038135169060200135611226565b6102226004803603606081101561043057600080fd5b506001600160a01b038135811691602081013590911690604001356112a0565b61022c6115ba565b6102226004803603602081101561046e57600080fd5b50356001600160a01b0316611877565b6102e96004803603602081101561049457600080fd5b50356001600160a01b03166118de565b6102e9600480360360208110156104ba57600080fd5b50356118fd565b610222611a11565b61056d600480360360208110156104df57600080fd5b810190602081018135600160201b8111156104f957600080fd5b82018360208201111561050b57600080fd5b803590602001918460018302840111600160201b8311171561052c57600080fd5b91908080601f016020809104026020016040519081016040528093929190818152602001838380828437600092019190915250929550611a1e945050505050565b6040805192835260208301919091528051918290030190f35b61022c611c5a565b61022260048036036101608110156105a557600080fd5b810190602081018135600160201b8111156105bf57600080fd5b8201836020820111156105d157600080fd5b803590602001918460018302840111600160201b831117156105f257600080fd5b919390926001600160a01b038335169260208101359260408201359260ff6060840135169260808101359260a082013592909160e081019060c00135600160201b81111561063f57600080fd5b82018360208201111561065157600080fd5b803590602001918460208302840111600160201b8311171561067257600080fd5b919390929091602081019035600160201b81111561068f57600080fd5b8201836020820111156106a157600080fd5b803590602001918460208302840111600160201b831117156106c257600080fd5b919350915080359060200135611c79565b610222600480360360208110156106e957600080fd5b5035611fa9565b6102cd6004803603604081101561070657600080fd5b506001600160a01b03813516906020013561213a565b6102cd6004803603604081101561073257600080fd5b506001600160a01b038135169060200135612183565b6107cb6004803603608081101561075e57600080fd5b810190602081018135600160201b81111561077857600080fd5b82018360208201111561078a57600080fd5b803590602001918460018302840111600160201b831117156107ab57600080fd5b9193509150803590602081013590604001356001600160a01b03166121cc565b604080516001600160a01b039092168252519081900360200190f35b6102cd6127e7565b61056d6004803603602081101561080557600080fd5b810190602081018135600160201b81111561081f57600080fd5b82018360208201111561083157600080fd5b803590602001918460018302840111600160201b8311171561085257600080fd5b91908080601f016020809104026020016040519081016040528093929190818152602001838380828437600092019190915250929550612863945050505050565b6102e9600480360360208110156108a957600080fd5b5035612a9f565b6102e9600480360360408110156108c657600080fd5b506001600160a01b0381358116916020013516612ba0565b61091d84848080601f016020809104026020016040519081016040528093929190818152602001838380828437600092019190915250612bcb92505050565b610925614597565b600985856040518083838082843791909101948552505060408051602094819003850181206101408201835280546001600160a01b03168252600180820154968301969096526002810154928201929092526003820154909491935060608501925060ff169081111561099457fe5b600181111561099f57fe5b8152602001600482015481526020016005820154815260200160068201805480602002602001604051908101604052809291908181526020018280548015610a0657602002820191906000526020600020905b8154815260200190600101908083116109f2575b5050505050815260200160078201805480602002602001604051908101604052809291908181526020018280548015610a5e57602002820191906000526020600020905b815481526020019060010190808311610a4a575b505050505081526020016008820154815260200160098201548152505090506000610a8a826001612c8e565b905080841115610ad6576040805162461bcd60e51b8152602060048201526012602482015271696e73756666696369656e7420707269636560701b604482015290519081900360640190fd5b600654604051638c922b6360e01b8152602060048201908152602482018890526000926001600160a01b031691638c922b63918a918a91908190604401848480828437600083820152604051601f909101601f191690920195506020945090925050508083038186803b158015610b4c57600080fd5b505afa158015610b60573d6000803e3d6000fd5b505050506040513d6020811015610b7657600080fd5b5051604080516323b872dd60e01b815233600482015230602482015260448101879052905191925082916001600160a01b038316916323b872dd9160648083019260209291908290030181600087803b158015610bd257600080fd5b505af1158015610be6573d6000803e3d6000fd5b505050506040513d6020811015610bfc57600080fd5b5050601254600090610c2490610c18868963ffffffff612e8a16565b9063ffffffff612ee316565b600654604080516356a6d9ef60e01b81523360048201526024810184905290519293506001600160a01b03909116916356a6d9ef9160448082019260009290919082900301818387803b158015610c7a57600080fd5b505af1158015610c8e573d6000803e3d6000fd5b505050506000610c9c612f25565b11610ce1576040805162461bcd60e51b815260206004820152601060248201526f65786365737369766520766f6c756d6560801b604482015290519081900360640190fd5b6000610d1b87600b8c8c6040518083838082843791909101948552505060405192839003602001909220549291505063ffffffff61305f16565b90506000600a8b8b60405180838380828437919091019485525050604051928390036020019092205492505081159050610e0d576000610d5b828a6130b9565b9050846001600160a01b03166342966c68826040518263ffffffff1660e01b815260040180828152602001915050600060405180830381600087803b158015610da357600080fd5b505af1158015610db7573d6000803e3d6000fd5b50505050610dce81836130cf90919063ffffffff16565b600a8d8d60405180838380828437919091019485525050604051928390036020019092209290925550610e099050838263ffffffff6130cf16565b9250505b866101200151821115610e5a576040805162461bcd60e51b815260206004820152601060248201526f65786365737369766520766f6c756d6560801b604482015290519081900360640190fd5b81600b8c8c6040518083838082843791909101948552505060405192839003602001832093909355508c91508b9080838380828437604080519390910183900383208f8452602084018f905281519096507f6ca5b43ed2d103f5392dd32f0d7f742584b88f99f3713ceaf94ae5f8fa64ba1e95509283900301925050a25050505050505050505050565b60606040518060600160405280602681526020016147906026913990505b90565b60006001600160a01b038316610f1a57600080fd5b3360008181526004602090815260408083206001600160a01b03881684529091529020839055610f4b908484613111565b5060015b92915050565b60055490565b600f5490565b6000610f6c846118de565b821115610f7857600080fd5b6001600160a01b0384166000908152600460209081526040808320338452909152902054821115610fa857600080fd5b6001600160a01b038316610fbb57600080fd5b610fc58483613161565b610fcf838361318e565b6001600160a01b0384166000908152600460209081526040808320338452909152902054611003908363ffffffff6130cf16565b6001600160a01b0385166000908152600460209081526040808320338452909152902055611032848484613200565b5060015b9392505050565b601290565b61104a613250565b600d92909255600e55600f55565b611060613250565b611068614597565b8060098484604051808383808284379190910194855250506040805160209481900385019020855181546001600160a01b0319166001600160a01b03909116178155938501516001808601919091559085015160028501556060850151600385018054919450925060ff19169083818111156110e057fe5b02179055506080820151600482015560a0820151600582015560c082015180516111149160068401916020909101906145ea565b5060e082015180516111309160078401916020909101906145ea565b5061010082015181600801556101208201518160090155905050600a8383604051808383808284379190910194855250506040519283900360200183206000905550600b9185915084908083838082843780830192505050925050509081526020016040518091039020600090556111df601484848080601f0160208091040260200160405190810160405280939291908181526020018383808284376000920191909152506132b992505050565b508282604051808383808284376040519201829003822094507f4b62493f4f8ba00316d1e11c870ddc857bd37e50aafe15a7ad4d3f6ac1c6d34d93506000925050a2505050565b60006001600160a01b03831661123b57600080fd5b3360009081526004602090815260408083206001600160a01b038716845290915290205461126f908363ffffffff61305f16565b3360008181526004602090815260408083206001600160a01b03891684529091529020829055610f4b918590613111565b600654604080516370a0823160e01b815230600482015290516000926001600160a01b0316916370a08231916024808301926020929190829003018186803b1580156112eb57600080fd5b505afa1580156112ff573d6000803e3d6000fd5b505050506040513d602081101561131557600080fd5b505190506113243384846133e8565b600654604080516370a0823160e01b815230600482015290516000926001600160a01b0316916370a08231916024808301926020929190829003018186803b15801561136f57600080fd5b505afa158015611383573d6000803e3d6000fd5b505050506040513d602081101561139957600080fd5b50516006546040805162b08c1d60e21b815230600482015290519293506000926001600160a01b03909216916302c2307491602480820192602092909190829003018186803b1580156113eb57600080fd5b505afa1580156113ff573d6000803e3d6000fd5b505050506040513d602081101561141557600080fd5b50516040805160608101808352600854630bbe4fd560e41b9091529151929350601592909182916001600160a01b039091169063bbe4fd5090606480850191602091818703018186803b15801561146b57600080fd5b505afa15801561147f573d6000803e3d6000fd5b505050506040513d602081101561149557600080fd5b505181526020016114ac868563ffffffff61356816565b81526020908101879052825460018181018555600094855282852084516003909302019182559183015191810191909155604090910151600290910155600554906114fd838563ffffffff61356816565b9050600061152a82610c1860135461151e8a8a6130cf90919063ffffffff16565b9063ffffffff612e8a16565b90506103e860008461154b57611546848363ffffffff612e8a16565b611576565b60135461157690611562908563ffffffff6130cf16565b610c188461151e898863ffffffff612e8a16565b905061158281836135cd565b905061158e8b8261318e565b61159e858263ffffffff61305f16565b6005556115ad60008c83613200565b5050505050505050505050565b606060005b60145481101561187357600860009054906101000a90046001600160a01b03166001600160a01b031663bbe4fd506040518163ffffffff1660e01b815260040160206040518083038186803b15801561161757600080fd5b505afa15801561162b573d6000803e3d6000fd5b505050506040513d602081101561164157600080fd5b505160148054600991908490811061165557fe5b9060005260206000200160405180828054600181600116156101000203166002900480156116ba5780601f106116985761010080835404028352918201916116ba565b820191906000526020600020905b8154815290600101906020018083116116a6575b5050915050908152602001604051809103902060020154111561186b57815161178457601481815481106116ea57fe5b600091825260209182902001805460408051601f60026000196101006001871615020190941693909304928301859004850281018501909152818152928301828280156117785780601f1061174d57610100808354040283529160200191611778565b820191906000526020600020905b81548152906001019060200180831161175b57829003601f168201915b5050505050915061186b565b816014828154811061179257fe5b906000526020600020016040516020018083805190602001908083835b602083106117ce5780518252601f1990920191602091820191016117af565b6001836020036101000a03801982511681845116808217855250505050505090500180600560f91b815250600101828054600181600116156101000203166002900480156118535780601f10611831576101008083540402835291820191611853565b820191906000526020600020905b81548152906001019060200180831161183f575b50509250505060405160208183030381529060405291505b6001016115bf565b5090565b600254600160a01b900460ff16156118bf576040805162461bcd60e51b81526020600482015260066024820152651b1bd8dad95960d21b604482015290519081900360640190fd5b6118c881613610565b506002805460ff60a01b1916600160a01b179055565b6001600160a01b0381166000908152600360205260409020545b919050565b601354601554156118f85760085460408051630bbe4fd560e41b815290516000926001600160a01b03169163bbe4fd50916004808301926020929190829003018186803b15801561194d57600080fd5b505afa158015611961573d6000803e3d6000fd5b505050506040513d602081101561197757600080fd5b50519050600061198d828563ffffffff6130cf16565b905060005b6015548110156119cf5781601582815481106119aa57fe5b90600052602060002090600302016000015411156119c7576119cf565b600101611992565b6015548111611a09578015611a01576119fe601354610c186119f18486613867565b879063ffffffff612e8a16565b93505b6001016119cf565b505050919050565b611a1c600019611fa9565b565b600080611a2a83612bcb565b611a32614597565b6009846040518082805190602001908083835b60208310611a645780518252601f199092019160209182019101611a45565b51815160209384036101000a60001901801990921691161790529201948552506040805194859003820185206101408601825280546001600160a01b0316865260018082015493870193909352600281015491860191909152600381015490935060608501925060ff1690811115611ad857fe5b6001811115611ae357fe5b8152602001600482015481526020016005820154815260200160068201805480602002602001604051908101604052809291908181526020018280548015611b4a57602002820191906000526020600020905b815481526020019060010190808311611b36575b5050505050815260200160078201805480602002602001604051908101604052809291908181526020018280548015611ba257602002820191906000526020600020905b815481526020019060010190808311611b8e575b50505050508152602001600882015481526020016009820154815250509050611bcc816001612c8e565b9250611c52611bdd82856001613b30565b611c4d600b876040518082805190602001908083835b60208310611c125780518252601f199092019160209182019101611bf3565b51815160209384036101000a6000190180199092169116179052920194855250604051938490030190922054610120870151925090506130cf565b6130b9565b915050915091565b6040805180820190915260058152644c4c50544b60d81b602082015290565b611c81613250565b600f548a10611cca576040805162461bcd60e51b815260206004820152601060248201526f696e76616c6964206d6174757269747960801b604482015290519081900360640190fd5b8415801590611ce8575082611ce686600263ffffffff612e8a16565b145b611d39576040805162461bcd60e51b815260206004820152601760248201527f696e76616c69642070726963696e672073757266616365000000000000000000604482015290519081900360640190fd5b60098e8e60405180838380828437919091019485525050604051928390036020019092206006015415159150611daa90505760148054600181018255600091909152611da8907fce6d7b5282bd9a3661ae061feed1dbda4e52ab073b1f9285be6e155d9c38d4ec018f8f614631565b505b6040518061014001604052808d6001600160a01b031681526020018c81526020018b81526020018a6001811115611ddd57fe5b81526020018981526020018881526020018787808060200260200160405190810160405280939291908181526020018383602002808284376000920191909152505050908252506040805160208781028281018201909352878252928301929091889188918291850190849080828437600081840152601f19601f8201169050808301925050505050505081526020018381526020018281525060098f8f604051808383808284379190910194855250506040805160209481900385019020855181546001600160a01b0319166001600160a01b03909116178155938501516001808601919091559085015160028501556060850151600385018054919450925060ff1916908381811115611eee57fe5b02179055506080820151600482015560a0820151600582015560c08201518051611f229160068401916020909101906145ea565b5060e08201518051611f3e9160078401916020909101906145ea565b50610100820151816008015561012082015181600901559050508d8d604051808383808284376040519201829003822094507f27136bc3b80a2a48083d0f3dd8acaf97309ab58abf6408d4ab39af25b6b4168e93506000925050a25050505050505050505050505050565b611fb16127e7565b611fba57600080fd5b600654604080516370a0823160e01b815230600482015290516000926001600160a01b0316916370a08231916024808301926020929190829003018186803b15801561200557600080fd5b505afa158015612019573d6000803e3d6000fd5b505050506040513d602081101561202f57600080fd5b505160055460075491925082918190600019015b600019811415801561205457508515155b80156120605750600084115b156120b657600080612073878685613dce565b9092509050612088868263ffffffff6130cf16565b955061209a848363ffffffff6130cf16565b93506120a7600784613efb565b50506000199586019501612043565b50821561212957600654604080516356a6d9ef60e01b81523360048201526024810186905290516001600160a01b03909216916356a6d9ef9160448082019260009290919082900301818387803b15801561211057600080fd5b505af1158015612124573d6000803e3d6000fd5b505050505b806121315733ff5b60055550505050565b60006001600160a01b03831661214f57600080fd5b3360009081526004602090815260408083206001600160a01b038716845290915290205461126f908363ffffffff6130cf16565b600061218e336118de565b82111561219a57600080fd5b6001600160a01b0383166121ad57600080fd5b6121b73383613161565b6121c1838361318e565b610f4b338484613200565b600061220d86868080601f016020809104026020016040519081016040528093929190818152602001838380828437600092019190915250612bcb92505050565b612215614597565b600987876040518083838082843791909101948552505060408051602094819003850181206101408201835280546001600160a01b03168252600180820154968301969096526002810154928201929092526003820154909491935060608501925060ff169081111561228457fe5b600181111561228f57fe5b81526020016004820154815260200160058201548152602001600682018054806020026020016040519081016040528092919081815260200182805480156122f657602002820191906000526020600020905b8154815260200190600101908083116122e2575b505050505081526020016007820180548060200260200160405190810160405280929190818152602001828054801561234e57602002820191906000526020600020905b81548152602001906001019080831161233a575b50505050508152602001600882015481526020016009820154815250509050600061237a826000612c8e565b9050808610156123c6576040805162461bcd60e51b8152602060048201526012602482015271696e73756666696369656e7420707269636560701b604482015290519081900360640190fd5b6012546000906123e090610c18848963ffffffff612e8a16565b90506123ed3386836133e8565b6000600b8a8a6040518083838082843791909101948552505060405192839003602001909220549250505080871115612603576000600a8b8b60405180838380828437919091019485525050604051928390036020019092205492506000915061245f9050898463ffffffff6130cf16565b610100870151909150612478838363ffffffff61305f16565b11156124be576040805162461bcd60e51b815260206004820152601060248201526f65786365737369766520766f6c756d6560801b604482015290519081900360640190fd5b6124ce828263ffffffff61305f16565b600a8d8d60405180838380828437919091019485525050604080519384900360209081018520959095556006548b5160608d0151968d0151928d015163092d858160e41b87526001600160a01b0382811660048901908152602489018b90529316976392d85810979296508995509392909160440184600181111561254f57fe5b60ff16815260200183815260200182815260200195505050505050602060405180830381600087803b15801561258457600080fd5b505af1158015612598573d6000803e3d6000fd5b505050506040513d60208110156125ae57600080fd5b50600090506125bb612f25565b11612600576040805162461bcd60e51b815260206004820152601060248201526f65786365737369766520766f6c756d6560801b604482015290519081900360640190fd5b50505b801561265357600061261582896130b9565b9050612627828263ffffffff6130cf16565b600b8c8c6040518083838082843791909101948552505060405192839003602001909220929092555050505b600654604051638c922b6360e01b8152602060048201908152602482018c90526001600160a01b0390921691638c922b63918d918d918190604401848480828437600083820152604051601f909101601f191690920195506020945090925050508083038186803b1580156126c757600080fd5b505afa1580156126db573d6000803e3d6000fd5b505050506040513d60208110156126f157600080fd5b50516040805163a9059cbb60e01b8152336004820152602481018a9052905191965086916001600160a01b0383169163a9059cbb9160448083019260209291908290030181600087803b15801561274757600080fd5b505af115801561275b573d6000803e3d6000fd5b505050506040513d602081101561277157600080fd5b50506040518b908b9080838380828437604080519390910183900383208f8452602084018f90526001600160a01b038e168483015290519095507fe5ebb912ac3a4ce7780f265bffdf260e716e56da3ed7abc2f02b4a9f38b87065945091829003606001925050a2505050505095945050505050565b600f5460085460408051630bbe4fd560e41b81529051600093926001600160a01b03169163bbe4fd50916004808301926020929190829003018186803b15801561283057600080fd5b505afa158015612844573d6000803e3d6000fd5b505050506040513d602081101561285a57600080fd5b50511015905090565b60008061286f83612bcb565b612877614597565b6009846040518082805190602001908083835b602083106128a95780518252601f19909201916020918201910161288a565b51815160209384036101000a60001901801990921691161790529201948552506040805194859003820185206101408601825280546001600160a01b0316865260018082015493870193909352600281015491860191909152600381015490935060608501925060ff169081111561291d57fe5b600181111561292857fe5b815260200160048201548152602001600582015481526020016006820180548060200260200160405190810160405280929190818152602001828054801561298f57602002820191906000526020600020905b81548152602001906001019080831161297b575b50505050508152602001600782018054806020026020016040519081016040528092919081815260200182805480156129e757602002820191906000526020600020905b8154815260200190600101908083116129d3575b50505050508152602001600882015481526020016009820154815250509050612a11816000612c8e565b9250611c52612a2282856000613b30565b611c4d600a876040518082805190602001908083835b60208310612a575780518252601f199092019160209182019101612a38565b6001836020036101000a0380198251168184511680821785525050505050509050019150509081526020016040518091039020548461010001516130cf90919063ffffffff16565b6000612aa96127e7565b612aef576040805162461bcd60e51b81526020600482015260126024820152711c995919595b481b9bdd08185b1b1bddd95960721b604482015290519081900360640190fd5b600654604080516370a0823160e01b815230600482015290516000926001600160a01b0316916370a08231916024808301926020929190829003018186803b158015612b3a57600080fd5b505afa158015612b4e573d6000803e3d6000fd5b505050506040513d6020811015612b6457600080fd5b50516005549091506000908190612b7d90849087613dce565b6005549193509150612b95908363ffffffff6130cf16565b600555949350505050565b6001600160a01b03918216600090815260046020908152604080832093909416825291909152205490565b60006001600160a01b03166009826040518082805190602001908083835b60208310612c085780518252601f199092019160209182019101612be9565b51815160209384036101000a60001901801990921691161790529201948552506040519384900301909220546001600160a01b031692909214159150612c8b9050576040805162461bcd60e51b81526020600482015260116024820152701a5b9d985b1a59081bdc1d14de5b589bdb607a1b604482015290519081900360640190fd5b50565b60008080836001811115612c9e57fe5b14612cbd57600d54601354612cb89163ffffffff6130cf16565b612cd2565b601354600d54612cd29163ffffffff61305f16565b9050600080612ce086613f95565b915091506000600860009054906101000a90046001600160a01b03166001600160a01b031663bbe4fd506040518163ffffffff1660e01b815260040160206040518083038186803b158015612d3457600080fd5b505afa158015612d48573d6000803e3d6000fd5b505050506040513d6020811015612d5e57600080fd5b5051608088015160a0890151919250600091612d7f9163ffffffff6130cf16565b905087608001518210158015612d9957508760a001518211155b612dea576040805162461bcd60e51b815260206004820152601a60248201527f696e76616c69642070726963696e6720706172616d6574657273000000000000604482015290519081900360640190fd5b6000612e038960800151846130cf90919063ffffffff16565b90506000612e148a600088886140ba565b90506000612e298b8c60c001515189896140ba565b9050612e7b84610c18601354610c188c61151e612e5f612e52898b6130cf90919063ffffffff16565b8b9063ffffffff612e8a16565b612e6f8a8d63ffffffff612e8a16565b9063ffffffff6130cf16565b9b9a5050505050505050505050565b600082612e9957506000610f4f565b82820282848281612ea657fe5b04146110365760405162461bcd60e51b81526004018080602001828103825260218152602001806147d76021913960400191505060405180910390fd5b600061103683836040518060400160405280601a81526020017f536166654d6174683a206469766973696f6e206279207a65726f0000000000008152506141b9565b601354600e54600654604080516370a0823160e01b81523060048201529051600094612fbc949093610c189391926001600160a01b03909116916370a08231916024808301926020929190829003018186803b158015612f8457600080fd5b505afa158015612f98573d6000803e3d6000fd5b505050506040513d6020811015612fae57600080fd5b50519063ffffffff612e8a16565b6006546040805163d9537cdf60e01b815230600482015290519293506000926001600160a01b039092169163d9537cdf91602480820192602092909190829003018186803b15801561300d57600080fd5b505afa158015613021573d6000803e3d6000fd5b505050506040513d602081101561303757600080fd5b50519050818111613049576000613059565b613059818363ffffffff6130cf16565b91505090565b600082820183811015611036576040805162461bcd60e51b815260206004820152601b60248201527f536166654d6174683a206164646974696f6e206f766572666c6f770000000000604482015290519081900360640190fd5b60008183106130c85781611036565b5090919050565b600061103683836040518060400160405280601e81526020017f536166654d6174683a207375627472616374696f6e206f766572666c6f77000081525061425b565b816001600160a01b0316836001600160a01b03167f8c5be1e5ebec7d5bd14f71427d1e84f3dd0314c0f7b2291e5b200ac8c7c3b925836040518082815260200191505060405180910390a3505050565b61316e81612e6f846118de565b6001600160a01b0390921660009081526003602052604090209190915550565b613197826118de565b6131e757600780546001810182556000919091527fa66cc928b5edb82af9bd49922954155ab7b0942694bea4ce44661d9a8736c6880180546001600160a01b0319166001600160a01b0384161790555b61316e816131f4846118de565b9063ffffffff61305f16565b816001600160a01b0316836001600160a01b03167fddf252ad1be2c89b69c2b068fc378daa952ba7f163c4a11628f55a4df523b3ef836040518082815260200191505060405180910390a3505050565b600c546001600160a01b031615806132725750600c546001600160a01b031633145b611a1c576040805162461bcd60e51b81526020600482015260136024820152723ab730baba3437b934bd32b21031b0b63632b960691b604482015290519081900360640190fd5b6000805b83548110156133de5782805190602001208482815481106132da57fe5b90600052602060002001604051808280546001816001161561010002031660029004801561333f5780601f1061331d57610100808354040283529182019161333f565b820191906000526020600020905b81548152906001019060200180831161332b575b5050915050604051809103902014156133d65783548490600019810190811061336457fe5b9060005260206000200184828154811061337a57fe5b9060005260206000200190805460018160011615610100020316600290046133a392919061469f565b50838054806133ae57fe5b6001900381819060005260206000200160006133ca9190614714565b90556001915050610f4f565b6001016132bd565b5060009392505050565b604080516323b872dd60e01b81526001600160a01b03858116600483015230602483015260448201849052915184928316916323b872dd9160648083019260209291908290030181600087803b15801561344157600080fd5b505af1158015613455573d6000803e3d6000fd5b505050506040513d602081101561346b57600080fd5b50506006546040805163095ea7b360e01b81526001600160a01b0392831660048201526024810185905290519183169163095ea7b3916044808201926020929091908290030181600087803b1580156134c357600080fd5b505af11580156134d7573d6000803e3d6000fd5b505050506040513d60208110156134ed57600080fd5b505060065460408051631cee2f7960e11b81523060048201526001600160a01b03868116602483015260448201869052915191909216916339dc5ef291606480830192600092919082900301818387803b15801561354a57600080fd5b505af115801561355e573d6000803e3d6000fd5b5050505050505050565b600082820181831280159061357d5750838112155b80613592575060008312801561359257508381125b6110365760405162461bcd60e51b815260040180806020018281038252602181526020018061476f6021913960400191505060405180910390fd5b60006110366135e383600263ffffffff612ee316565b8385816135ec57fe5b0610156135fa5760006135fd565b60015b60ff166131f4858563ffffffff612ee316565b806001600160a01b031663893d20e86040518163ffffffff1660e01b815260040160206040518083038186803b15801561364957600080fd5b505afa15801561365d573d6000803e3d6000fd5b505050506040513d602081101561367357600080fd5b5051600c80546001600160a01b0319166001600160a01b0392831617815560408051630110ceef60e21b815260206004820181905260248201939093526b2a34b6b2a83937bb34b232b960a11b60448201529051928416926304433bbc92606480840193919291829003018186803b1580156136ee57600080fd5b505afa158015613702573d6000803e3d6000fd5b505050506040513d602081101561371857600080fd5b5051600880546001600160a01b0319166001600160a01b0392831617905560408051630110ceef60e21b8152602060048201819052600f60248301526e4f7074696f6e7345786368616e676560881b60448301529151928416926304433bbc92606480840193919291829003018186803b15801561379557600080fd5b505afa1580156137a9573d6000803e3d6000fd5b505050506040513d60208110156137bf57600080fd5b5051600680546001600160a01b0319166001600160a01b039283161790819055670de0b6b3a7640000601055633b9aca0060115560408051635479195360e01b8152905191909216916354791953916004808301926020929190829003018186803b15801561382d57600080fd5b505afa158015613841573d6000803e3d6000fd5b505050506040513d602081101561385757600080fd5b505160125550633b9aca00601355565b6000806015600185038154811061387a57fe5b60009182526020822060039091020154601554909250851061391557600860009054906101000a90046001600160a01b03166001600160a01b031663bbe4fd506040518163ffffffff1660e01b815260040160206040518083038186803b1580156138e457600080fd5b505afa1580156138f8573d6000803e3d6000fd5b505050506040513d602081101561390e57600080fd5b5051613935565b6015858154811061392257fe5b9060005260206000209060030201600001545b9050600061398e6015600188038154811061394c57fe5b9060005260206000209060030201600101546015600189038154811061396e57fe5b90600052602060002090600302016002015461305f90919063ffffffff16565b6015549091506000908710613a9c57600654604080516370a0823160e01b81523060048201529051613a97926001600160a01b0316916370a08231916024808301926020929190829003018186803b1580156139e957600080fd5b505afa1580156139fd573d6000803e3d6000fd5b505050506040513d6020811015613a1357600080fd5b50516006546040805162b08c1d60e21b815230600482015290516001600160a01b03909216916302c2307491602480820192602092909190829003018186803b158015613a5f57600080fd5b505afa158015613a73573d6000803e3d6000fd5b505050506040513d6020811015613a8957600080fd5b50519063ffffffff61356816565b613abc565b60158781548110613aa957fe5b9060005260206000209060030201600101545b9050613ae382613ad7601354846142b590919063ffffffff16565b9063ffffffff61435e16565b945083861115613b2657613b2385613b1b613b04868863ffffffff6130cf16565b601354610c189061151e898d63ffffffff6130cf16565b601354614416565b94505b5050505092915050565b600080613b3b612f25565b90506000836001811115613b4b57fe5b1415613c6c576000600660009054906101000a90046001600160a01b03166001600160a01b031663b434e9d6876000015160125489606001518a602001518b604001516040518663ffffffff1660e01b815260040180866001600160a01b03166001600160a01b03168152602001858152602001846001811115613bcb57fe5b60ff1681526020018381526020018281526020019550505050505060206040518083038186803b158015613bfe57600080fd5b505afa158015613c12573d6000803e3d6000fd5b505050506040513d6020811015613c2857600080fd5b5051905084811115613c6057613c5b613c47828763ffffffff6130cf16565b601254610c1890859063ffffffff612e8a16565b613c64565b6000195b925050613dc6565b6000600660009054906101000a90046001600160a01b03166001600160a01b03166383a7e7e18760000151886060015189602001518a604001516040518563ffffffff1660e01b815260040180856001600160a01b03166001600160a01b03168152602001846001811115613cdd57fe5b60ff16815260200183815260200182815260200194505050505060206040518083038186803b158015613d0f57600080fd5b505afa158015613d23573d6000803e3d6000fd5b505050506040513d6020811015613d3957600080fd5b5051905080851115613d5d57613d58613c47868363ffffffff6130cf16565b613d61565b6000195b601254600654604080516370a0823160e01b81523060048201529051939650613dc2938793611c4d938b93610c18936001600160a01b03909216916370a0823191602480820192602092909190829003018186803b158015612f8457600080fd5b9250505b509392505050565b600080613dfb60078481548110613de157fe5b6000918252602090912001546001600160a01b03166118de565b91508115613ef3576103e8613e33613e2d86610c18613e20878663ffffffff612e8a16565b8a9063ffffffff612e8a16565b826135cd565b600654600780549294506001600160a01b03909116916356a6d9ef919087908110613e5a57fe5b6000918252602082200154604080516001600160e01b031960e086901b1681526001600160a01b03909216600483015260248201879052516044808301939282900301818387803b158015613eae57600080fd5b505af1158015613ec2573d6000803e3d6000fd5b50505050613ef160078581548110613ed657fe5b6000918252602090912001546001600160a01b031684613161565b505b935093915050565b815482906000198101908110613f0d57fe5b9060005260206000200160009054906101000a90046001600160a01b0316828281548110613f3757fe5b9060005260206000200160006101000a8154816001600160a01b0302191690836001600160a01b0316021790555081805480613f6f57fe5b600082815260209020810160001990810180546001600160a01b03191690550190555050565b6000806000836000015190506000816001600160a01b0316638e15f4736040518163ffffffff1660e01b8152600401604080518083038186803b158015613fdb57600080fd5b505afa158015613fef573d6000803e3d6000fd5b505050506040513d604081101561400557600080fd5b50602001516000945092508290505b828560c00151858151811061402557fe5b602002602001015110801561403e57508460c001515184105b1561404e57600190930192614014565b60008411801561406257508460c001515184105b6140b3576040805162461bcd60e51b815260206004820152601a60248201527f696e76616c69642070726963696e6720706172616d6574657273000000000000604482015290519081900360640190fd5b5050915091565b6000806140cd858563ffffffff61305f16565b905060008660e0015182815181106140e157fe5b6020026020010151905060008760e00151600184038151811061410057fe5b602002602001015190506141ad816141a16141558b60c0015160018b038151811061412757fe5b60200260200101518c60c001518b8151811061413f57fe5b60200260200101516130cf90919063ffffffff16565b613ad76141858d60c0015160018d038151811061416e57fe5b60200260200101518b6130cf90919063ffffffff16565b614195888863ffffffff6144e216565b9063ffffffff6142b516565b9063ffffffff61356816565b98975050505050505050565b600081836142455760405162461bcd60e51b81526004018080602001828103825283818151815260200191508051906020019080838360005b8381101561420a5781810151838201526020016141f2565b50505050905090810190601f1680156142375780820380516001836020036101000a031916815260200191505b509250505060405180910390fd5b50600083858161425157fe5b0495945050505050565b600081848411156142ad5760405162461bcd60e51b815260206004820181815283516024840152835190928392604490910191908501908083836000831561420a5781810151838201526020016141f2565b505050900390565b6000826142c457506000610f4f565b826000191480156142d85750600160ff1b82145b156143145760405162461bcd60e51b81526004018080602001828103825260278152602001806147f86027913960400191505060405180910390fd5b8282028284828161432157fe5b05146110365760405162461bcd60e51b81526004018080602001828103825260278152602001806147f86027913960400191505060405180910390fd5b6000816143b2576040805162461bcd60e51b815260206004820181905260248201527f5369676e6564536166654d6174683a206469766973696f6e206279207a65726f604482015290519081900360640190fd5b816000191480156143c65750600160ff1b83145b156144025760405162461bcd60e51b81526004018080602001828103825260218152602001806147b66021913960400191505060405180910390fd5b600082848161440d57fe5b05949350505050565b600082614424575080611036565b818311156144545761444d82610c186119f187614447888563ffffffff6130cf16565b87614416565b9050611036565b5080806000858161446484614547565b90505b60018411156144d75761448184600263ffffffff612ee316565b93506144908161151e84614547565b9150866144a3848663ffffffff61305f16565b10156144d2576144b9838563ffffffff61305f16565b92506144cf86610c18878563ffffffff612e8a16565b94505b614467565b505050509392505050565b60008183038183128015906144f75750838113155b8061450c575060008312801561450c57508381135b6110365760405162461bcd60e51b815260040180806020018281038252602481526020018061481f6024913960400191505060405180910390fd5b6000806145606002610c1885600163ffffffff61305f16565b90508291505b818110156145915790508061458a6002610c18836131f4878263ffffffff612ee316565b9050614566565b50919050565b604080516101408101825260008082526020820181905291810182905290606082019081526020016000815260200160008152602001606081526020016060815260200160008152602001600081525090565b828054828255906000526020600020908101928215614625579160200282015b8281111561462557825182559160200191906001019061460a565b50611873929150614754565b828054600181600116156101000203166002900490600052602060002090601f016020900481019282601f106146725782800160ff19823516178555614625565b82800160010185558215614625579182015b82811115614625578235825591602001919060010190614684565b828054600181600116156101000203166002900490600052602060002090601f016020900481019282601f106146d85780548555614625565b8280016001018555821561462557600052602060002091601f016020900482015b828111156146255782548255916001019190600101906146f9565b50805460018160011615610100020316600290046000825580601f1061473a5750612c8b565b601f016020900490600052602060002090810190612c8b91905b610f0291905b80821115611873576000815560010161475a56fe5369676e6564536166654d6174683a206164646974696f6e206f766572666c6f774c696e656172204c697175696469747920506f6f6c2052656465656d61626c6520546f6b656e5369676e6564536166654d6174683a206469766973696f6e206f766572666c6f77536166654d6174683a206d756c7469706c69636174696f6e206f766572666c6f775369676e6564536166654d6174683a206d756c7469706c69636174696f6e206f766572666c6f775369676e6564536166654d6174683a207375627472616374696f6e206f766572666c6f77a2646970667358221220b6278d6acbde448414d1b589fb10b2f45ac89cd93ccdc955744e478b838f925c64736f6c63430006000033",
  "source": "pragma solidity >=0.6.0;\n\nimport \"../deployment/ManagedContract.sol\";\nimport \"../finance/OptionsExchange.sol\";\nimport \"../finance/RedeemableToken.sol\";\nimport \"../interfaces/TimeProvider.sol\";\nimport \"../interfaces/LiquidityPool.sol\";\nimport \"../interfaces/UnderlyingFeed.sol\";\nimport \"../utils/ERC20.sol\";\nimport \"../utils/MoreMath.sol\";\nimport \"../utils/SafeMath.sol\";\nimport \"../utils/SignedSafeMath.sol\";\n\ncontract LinearLiquidityPool is LiquidityPool, ManagedContract, RedeemableToken {\n\n    using SafeMath for uint;\n    using SignedSafeMath for int;\n\n    enum Operation { BUY, SELL }\n\n    struct PricingParameters {\n        address udlFeed;\n        uint strike;\n        uint maturity;\n        OptionsExchange.OptionType optType;\n        uint t0;\n        uint t1;\n        uint[] x;\n        uint[] y;\n        uint buyStock;\n        uint sellStock;\n    }\n\n    struct Deposit {\n        uint date;\n        uint balance;\n        uint value;\n    }\n\n    TimeProvider private time;\n\n    mapping(string => PricingParameters) private parameters;\n    mapping(string => uint) private written;\n    mapping(string => uint) private holding;\n\n    address private owner;\n    uint private spread;\n    uint private reserveRatio;\n    uint private _maturity;\n\n    uint private timeBase;\n    uint private sqrtTimeBase;\n    uint private volumeBase;\n    uint private fractionBase;\n    string[] private optSymbols;\n    Deposit[] private deposits;\n\n    constructor(address deployer) public {\n\n        Deployer(deployer).setContractAddress(\"LinearLiquidityPool\");\n    }\n\n    function initialize(Deployer deployer) override internal {\n\n        owner = deployer.getOwner();\n        time = TimeProvider(deployer.getContractAddress(\"TimeProvider\"));\n        exchange = OptionsExchange(deployer.getContractAddress(\"OptionsExchange\"));\n\n        timeBase = 1e18;\n        sqrtTimeBase = 1e9;\n        volumeBase = exchange.getVolumeBase();\n        fractionBase = 1e9;\n    }\n\n    function name() override external view returns (string memory) {\n        return \"Linear Liquidity Pool Redeemable Token\";\n    }\n\n    function symbol() override external view returns (string memory) {\n        return \"LLPTK\";\n    }\n\n    function decimals() override external view returns (uint8) {\n        return 18;\n    }\n\n    function setParameters(\n        uint _spread,\n        uint _reserveRatio,\n        uint _mt\n    )\n        external\n    {\n        ensureCaller();\n        spread = _spread;\n        reserveRatio = _reserveRatio;\n        _maturity = _mt;\n    }\n\n    function redeemAllowed() override public returns (bool) {\n        \n        return time.getNow() >= _maturity;\n    }\n\n    function maturity() override external view returns (uint) {\n        \n        return _maturity;\n    }\n\n    function yield(uint dt) override external view returns (uint y) {\n        \n        y = fractionBase;\n\n        if (deposits.length > 0) {\n            \n            uint _now = time.getNow();\n            uint start = _now.sub(dt);\n            \n            uint i = 0;\n            for (i = 0; i < deposits.length; i++) {\n                if (deposits[i].date > start) {\n                    break;\n                }\n            }\n\n            for (; i <= deposits.length; i++) {\n                if (i > 0) {\n                    y = y.mul(calcYield(i, start)).div(fractionBase);\n                }\n            }\n        }\n    }\n\n    function addSymbol(\n        string calldata optSymbol,\n        address udlFeed,\n        uint strike,\n        uint _mt,\n        OptionsExchange.OptionType optType,\n        uint t0,\n        uint t1,\n        uint[] calldata x,\n        uint[] calldata y,\n        uint buyStock,\n        uint sellStock\n    )\n        external\n    {\n        ensureCaller();\n        require(_mt < _maturity, \"invalid maturity\");\n        require(x.length > 0 && x.length.mul(2) == y.length, \"invalid pricing surface\");\n\n        if (parameters[optSymbol].x.length == 0) {\n            optSymbols.push(optSymbol);\n        }\n\n        parameters[optSymbol] = PricingParameters(\n            udlFeed,\n            strike,\n            _mt,\n            optType,\n            t0,\n            t1,\n            x,\n            y,\n            buyStock,\n            sellStock\n        );\n\n        emit AddSymbol(optSymbol);\n    }\n    \n    function removeSymbol(string calldata optSymbol) external {\n\n        ensureCaller();\n        PricingParameters memory empty;\n        parameters[optSymbol] = empty;\n        delete written[optSymbol];\n        delete holding[optSymbol];\n        Arrays.removeItem(optSymbols, optSymbol);\n        emit RemoveSymbol(optSymbol);\n    }\n\n    function depositTokens(address to, address token, uint value) override external {\n\n        uint b0 = exchange.balanceOf(address(this));\n        depositTokensInExchange(msg.sender, token, value);\n        uint b1 = exchange.balanceOf(address(this));\n        int po = exchange.calcExpectedPayout(address(this));\n        \n        deposits.push(Deposit(time.getNow(), uint(int(b0).add(po)), value));\n\n        uint ts = _totalSupply;\n        int expBal = po.add(int(b1));\n        uint p = b1.sub(b0).mul(fractionBase).div(uint(expBal));\n\n        uint b = 1e3;\n        uint v = ts > 0 ?\n            ts.mul(p).mul(b).div(fractionBase.sub(p)) : \n            uint(expBal).mul(b);\n        v = MoreMath.round(v, b);\n\n        addBalance(to, v);\n        _totalSupply = ts.add(v);\n        emitTransfer(address(0), to, v);\n    }\n    \n    function listSymbols() override external view returns (string memory available) {\n\n        for (uint i = 0; i < optSymbols.length; i++) {\n            if (parameters[optSymbols[i]].maturity > time.getNow()) {\n                if (bytes(available).length == 0) {\n                    available = optSymbols[i];\n                } else {\n                    available = string(abi.encodePacked(available, \"\\n\", optSymbols[i]));\n                }\n            }\n        }\n    }\n\n    function queryBuy(string memory optSymbol)\n        override\n        public\n        view\n        returns (uint price, uint volume)\n    {\n        ensureValidSymbol(optSymbol);\n        PricingParameters memory param = parameters[optSymbol];\n        price = calcOptPrice(param, Operation.BUY);\n        volume = MoreMath.min(\n            calcVolume(param, price, Operation.BUY),\n            param.buyStock.sub(written[optSymbol])\n        );\n    }\n\n    function querySell(string memory optSymbol)\n        override\n        public\n        view\n        returns (uint price, uint volume)\n    {    \n        ensureValidSymbol(optSymbol);\n        PricingParameters memory param = parameters[optSymbol];\n        price = calcOptPrice(param, Operation.SELL);\n        volume = MoreMath.min(\n            calcVolume(param, price, Operation.SELL),\n            param.sellStock.sub(holding[optSymbol])\n        );\n    }\n\n    function buy(string calldata optSymbol, uint price, uint volume, address token)\n        override\n        external\n        returns (address addr)\n    {\n        ensureValidSymbol(optSymbol);\n\n        PricingParameters memory param = parameters[optSymbol];\n        uint p = calcOptPrice(param, Operation.BUY);\n        require(price >= p, \"insufficient price\");\n\n        uint value = p.mul(volume).div(volumeBase);\n        depositTokensInExchange(msg.sender, token, value);\n\n        uint _holding = holding[optSymbol];\n        if (volume > _holding) {\n\n            uint _written = written[optSymbol];\n            uint toWrite = volume.sub(_holding);\n            require(_written.add(toWrite) <= param.buyStock, \"excessive volume\");\n            written[optSymbol] = _written.add(toWrite);\n\n            exchange.writeOptions(\n                param.udlFeed,\n                toWrite,\n                param.optType,\n                param.strike,\n                param.maturity\n            );\n\n            require(calcFreeBalance() > 0, \"excessive volume\");\n        }\n\n        if (_holding > 0) {\n            uint diff = MoreMath.min(_holding, volume);\n            holding[optSymbol] = _holding.sub(diff);\n        }\n\n        addr = exchange.resolveToken(optSymbol);\n        OptionToken tk = OptionToken(addr);\n        tk.transfer(msg.sender, volume);\n\n        emit Buy(optSymbol, price, volume, token);\n    }\n\n    function sell(string calldata optSymbol, uint price, uint volume) override external {\n\n        ensureValidSymbol(optSymbol);\n\n        PricingParameters memory param = parameters[optSymbol];\n        uint p = calcOptPrice(param, Operation.SELL);\n        require(price <= p, \"insufficient price\");\n\n        address addr = exchange.resolveToken(optSymbol);\n        OptionToken tk = OptionToken(addr);\n        tk.transferFrom(msg.sender, address(this), volume);\n\n        uint value = p.mul(volume).div(volumeBase);\n        exchange.transferBalance(msg.sender, value);\n        require(calcFreeBalance() > 0, \"excessive volume\");\n        \n        uint _holding = holding[optSymbol].add(volume);\n        uint _written = written[optSymbol];\n\n        if (_written > 0) {\n            uint toBurn = MoreMath.min(_written, volume);\n            tk.burn(toBurn);\n            written[optSymbol] = _written.sub(toBurn);\n            _holding = _holding.sub(toBurn);\n        }\n\n        require(_holding <= param.sellStock, \"excessive volume\");\n        holding[optSymbol] = _holding;\n\n        emit Sell(optSymbol, price, volume);\n    }\n\n    function calcOptPrice(PricingParameters memory p, Operation op)\n        private\n        view\n        returns (uint price)\n    {\n        uint f = op == Operation.BUY ? spread.add(fractionBase) : fractionBase.sub(spread);\n        \n        (uint j, uint xp) = findUdlPrice(p);\n\n        uint _now = time.getNow();\n        uint dt = p.t1.sub(p.t0);\n        require(_now >= p.t0 && _now <= p.t1, \"invalid pricing parameters\");\n        uint t = _now.sub(p.t0);\n        uint p0 = calcOptPriceAt(p, 0, j, xp);\n        uint p1 = calcOptPriceAt(p, p.x.length, j, xp);\n\n        price = p0.mul(dt).sub(\n            t.mul(p0.sub(p1))\n        ).mul(f).div(fractionBase).div(dt);\n    }\n\n    function findUdlPrice(PricingParameters memory p) private view returns (uint j, uint xp) {\n\n        UnderlyingFeed feed = UnderlyingFeed(p.udlFeed);\n        (,int udlPrice) = feed.getLatestPrice();\n        \n        j = 0;\n        xp = uint(udlPrice);\n        while (p.x[j] < xp && j < p.x.length) {\n            j++;\n        }\n        require(j > 0 && j < p.x.length, \"invalid pricing parameters\");\n    }\n\n    function calcOptPriceAt(\n        PricingParameters memory p,\n        uint offset,\n        uint j,\n        uint xp\n    )\n        private\n        pure\n        returns (uint price)\n    {\n        uint k = offset.add(j);\n        int yA = int(p.y[k]);\n        int yB = int(p.y[k - 1]);\n        price = uint(\n            yA.sub(yB).mul(\n                int(xp.sub(p.x[j - 1]))\n            ).div(\n                int(p.x[j].sub(p.x[j - 1]))\n            ).add(yB)\n        );\n    }\n\n    function calcVolume(\n        PricingParameters memory p,\n        uint price,\n        Operation op\n    )\n        private\n        view\n        returns (uint volume)\n    {\n        uint fb = calcFreeBalance();\n\n        if (op == Operation.BUY) {\n\n            uint coll = exchange.calcCollateral(\n                p.udlFeed,\n                volumeBase,\n                p.optType,\n                p.strike,\n                p.maturity\n            );\n\n            volume = coll <= price ? uint(-1) :\n                fb.mul(volumeBase).div(coll.sub(price));\n\n        } else {\n            \n            uint iv = uint(exchange.calcIntrinsicValue(\n                p.udlFeed,\n                p.optType,\n                p.strike,\n                p.maturity\n            ));\n\n            volume = price <= iv ? uint(-1) :\n                fb.mul(volumeBase).div(price.sub(iv));\n\n            volume = MoreMath.min(\n                volume, \n                exchange.balanceOf(address(this)).mul(volumeBase).div(price)\n            );\n        }\n    }\n\n    function calcFreeBalance() private view returns (uint balance) {\n\n        balance = exchange.balanceOf(address(this)).mul(reserveRatio).div(fractionBase);\n        uint sp = exchange.calcSurplus(address(this));\n        balance = sp > balance ? sp.sub(balance) : 0;\n    }\n\n    function calcYield(uint index, uint start) private view returns (uint y) {\n\n        uint t0 = deposits[index - 1].date;\n        uint t1 = index < deposits.length ?\n            deposits[index].date : time.getNow();\n\n        int v0 = int(deposits[index - 1].value.add(deposits[index - 1].balance));\n        int v1 = index < deposits.length ? \n            int(deposits[index].balance) :\n            exchange.calcExpectedPayout(address(this)).add(int(exchange.balanceOf(address(this))));\n\n        y = uint(v1.mul(int(fractionBase)).div(v0));\n        if (start > t0) {\n            y = MoreMath.powDecimal(\n                y, \n                (t1.sub(start)).mul(fractionBase).div(t1.sub(t0)), \n                fractionBase\n            );\n        }\n    }\n\n    function depositTokensInExchange(address sender, address token, uint value) private {\n\n        ERC20 t = ERC20(token);\n        t.transferFrom(sender, address(this), value);\n        t.approve(address(exchange), value);\n        exchange.depositTokens(address(this), token, value);\n    }\n\n    function addBalance(address _owner, uint value) override internal {\n\n        if (balanceOf(_owner) == 0) {\n            holders.push(_owner);\n        }\n        balances[_owner] = balanceOf(_owner).add(value);\n    }\n\n    function ensureValidSymbol(string memory optSymbol) private view {\n\n        require(parameters[optSymbol].udlFeed !=  address(0), \"invalid optSymbol\");\n    }\n\n    function ensureCaller() private view {\n\n        require(owner == address(0) || msg.sender == owner, \"unauthorized caller\");\n    }\n}",
  "sourcePath": "/Users/dev/Documents/coding/defioptions/DeFiOptions-contracts/contracts/pools/LinearLiquidityPool.sol",
  "compiler": {
    "name": "solc",
    "version": "0.6.0+commit.26b70077.Emscripten.clang"
  },
  "schemaVersion": "3.3.3",
  "updatedAt": "2021-03-19T23:07:42.524Z",
  "devdoc": {
    "methods": {}
  },
  "userdoc": {
    "methods": {}
  }
}