{
  "contractName": "LinearLiquidityPool",
  "abi": [
    {
      "inputs": [],
      "stateMutability": "nonpayable",
      "type": "constructor"
    },
    {
      "anonymous": false,
      "inputs": [
        {
          "indexed": false,
          "internalType": "string",
          "name": "optSymbol",
          "type": "string"
        }
      ],
      "name": "AddSymbol",
      "type": "event"
    },
    {
      "anonymous": false,
      "inputs": [
        {
          "indexed": true,
          "internalType": "address",
          "name": "owner",
          "type": "address"
        },
        {
          "indexed": true,
          "internalType": "address",
          "name": "spender",
          "type": "address"
        },
        {
          "indexed": false,
          "internalType": "uint256",
          "name": "value",
          "type": "uint256"
        }
      ],
      "name": "Approval",
      "type": "event"
    },
    {
      "anonymous": false,
      "inputs": [
        {
          "indexed": true,
          "internalType": "address",
          "name": "token",
          "type": "address"
        },
        {
          "indexed": true,
          "internalType": "address",
          "name": "buyer",
          "type": "address"
        },
        {
          "indexed": false,
          "internalType": "uint256",
          "name": "price",
          "type": "uint256"
        },
        {
          "indexed": false,
          "internalType": "uint256",
          "name": "volume",
          "type": "uint256"
        }
      ],
      "name": "Buy",
      "type": "event"
    },
    {
      "anonymous": false,
      "inputs": [
        {
          "indexed": false,
          "internalType": "string",
          "name": "optSymbol",
          "type": "string"
        }
      ],
      "name": "RemoveSymbol",
      "type": "event"
    },
    {
      "anonymous": false,
      "inputs": [
        {
          "indexed": true,
          "internalType": "address",
          "name": "token",
          "type": "address"
        },
        {
          "indexed": true,
          "internalType": "address",
          "name": "seller",
          "type": "address"
        },
        {
          "indexed": false,
          "internalType": "uint256",
          "name": "price",
          "type": "uint256"
        },
        {
          "indexed": false,
          "internalType": "uint256",
          "name": "volume",
          "type": "uint256"
        }
      ],
      "name": "Sell",
      "type": "event"
    },
    {
      "anonymous": false,
      "inputs": [
        {
          "indexed": true,
          "internalType": "address",
          "name": "from",
          "type": "address"
        },
        {
          "indexed": true,
          "internalType": "address",
          "name": "to",
          "type": "address"
        },
        {
          "indexed": false,
          "internalType": "uint256",
          "name": "value",
          "type": "uint256"
        }
      ],
      "name": "Transfer",
      "type": "event"
    },
    {
      "inputs": [],
      "name": "DOMAIN_SEPARATOR",
      "outputs": [
        {
          "internalType": "bytes32",
          "name": "",
          "type": "bytes32"
        }
      ],
      "stateMutability": "view",
      "type": "function"
    },
    {
      "inputs": [],
      "name": "PERMIT_TYPEHASH",
      "outputs": [
        {
          "internalType": "bytes32",
          "name": "",
          "type": "bytes32"
        }
      ],
      "stateMutability": "view",
      "type": "function"
    },
    {
      "inputs": [
        {
          "internalType": "address",
          "name": "owner",
          "type": "address"
        },
        {
          "internalType": "address",
          "name": "spender",
          "type": "address"
        }
      ],
      "name": "allowance",
      "outputs": [
        {
          "internalType": "uint256",
          "name": "",
          "type": "uint256"
        }
      ],
      "stateMutability": "view",
      "type": "function"
    },
    {
      "inputs": [
        {
          "internalType": "address",
          "name": "spender",
          "type": "address"
        },
        {
          "internalType": "uint256",
          "name": "value",
          "type": "uint256"
        }
      ],
      "name": "approve",
      "outputs": [
        {
          "internalType": "bool",
          "name": "",
          "type": "bool"
        }
      ],
      "stateMutability": "nonpayable",
      "type": "function"
    },
    {
      "inputs": [
        {
          "internalType": "address",
          "name": "owner",
          "type": "address"
        }
      ],
      "name": "balanceOf",
      "outputs": [
        {
          "internalType": "uint256",
          "name": "",
          "type": "uint256"
        }
      ],
      "stateMutability": "view",
      "type": "function"
    },
    {
      "inputs": [],
      "name": "decimals",
      "outputs": [
        {
          "internalType": "uint8",
          "name": "",
          "type": "uint8"
        }
      ],
      "stateMutability": "view",
      "type": "function"
    },
    {
      "inputs": [
        {
          "internalType": "address",
          "name": "spender",
          "type": "address"
        },
        {
          "internalType": "uint256",
          "name": "subtractedValue",
          "type": "uint256"
        }
      ],
      "name": "decreaseAllowance",
      "outputs": [
        {
          "internalType": "bool",
          "name": "",
          "type": "bool"
        }
      ],
      "stateMutability": "nonpayable",
      "type": "function"
    },
    {
      "inputs": [
        {
          "internalType": "address",
          "name": "spender",
          "type": "address"
        },
        {
          "internalType": "uint256",
          "name": "addedValue",
          "type": "uint256"
        }
      ],
      "name": "increaseAllowance",
      "outputs": [
        {
          "internalType": "bool",
          "name": "",
          "type": "bool"
        }
      ],
      "stateMutability": "nonpayable",
      "type": "function"
    },
    {
      "inputs": [
        {
          "internalType": "contract Deployer",
          "name": "deployer",
          "type": "address"
        }
      ],
      "name": "initializeAndLock",
      "outputs": [],
      "stateMutability": "nonpayable",
      "type": "function"
    },
    {
      "inputs": [
        {
          "internalType": "address",
          "name": "",
          "type": "address"
        }
      ],
      "name": "nonces",
      "outputs": [
        {
          "internalType": "uint256",
          "name": "",
          "type": "uint256"
        }
      ],
      "stateMutability": "view",
      "type": "function"
    },
    {
      "inputs": [
        {
          "internalType": "address",
          "name": "owner",
          "type": "address"
        },
        {
          "internalType": "address",
          "name": "spender",
          "type": "address"
        },
        {
          "internalType": "uint256",
          "name": "value",
          "type": "uint256"
        },
        {
          "internalType": "uint256",
          "name": "deadline",
          "type": "uint256"
        },
        {
          "internalType": "uint8",
          "name": "v",
          "type": "uint8"
        },
        {
          "internalType": "bytes32",
          "name": "r",
          "type": "bytes32"
        },
        {
          "internalType": "bytes32",
          "name": "s",
          "type": "bytes32"
        }
      ],
      "name": "permit",
      "outputs": [],
      "stateMutability": "nonpayable",
      "type": "function"
    },
    {
      "inputs": [
        {
          "internalType": "address[]",
          "name": "owners",
          "type": "address[]"
        }
      ],
      "name": "redeem",
      "outputs": [
        {
          "internalType": "uint256",
          "name": "value",
          "type": "uint256"
        }
      ],
      "stateMutability": "nonpayable",
      "type": "function"
    },
    {
      "inputs": [
        {
          "internalType": "address",
          "name": "owner",
          "type": "address"
        }
      ],
      "name": "redeem",
      "outputs": [
        {
          "internalType": "uint256",
          "name": "value",
          "type": "uint256"
        }
      ],
      "stateMutability": "nonpayable",
      "type": "function"
    },
    {
      "inputs": [],
      "name": "totalSupply",
      "outputs": [
        {
          "internalType": "uint256",
          "name": "",
          "type": "uint256"
        }
      ],
      "stateMutability": "view",
      "type": "function"
    },
    {
      "inputs": [
        {
          "internalType": "address",
          "name": "to",
          "type": "address"
        },
        {
          "internalType": "uint256",
          "name": "value",
          "type": "uint256"
        }
      ],
      "name": "transfer",
      "outputs": [
        {
          "internalType": "bool",
          "name": "",
          "type": "bool"
        }
      ],
      "stateMutability": "nonpayable",
      "type": "function"
    },
    {
      "inputs": [
        {
          "internalType": "address",
          "name": "from",
          "type": "address"
        },
        {
          "internalType": "address",
          "name": "to",
          "type": "address"
        },
        {
          "internalType": "uint256",
          "name": "value",
          "type": "uint256"
        }
      ],
      "name": "transferFrom",
      "outputs": [
        {
          "internalType": "bool",
          "name": "",
          "type": "bool"
        }
      ],
      "stateMutability": "nonpayable",
      "type": "function"
    },
    {
      "inputs": [],
      "name": "name",
      "outputs": [
        {
          "internalType": "string",
          "name": "",
          "type": "string"
        }
      ],
      "stateMutability": "view",
      "type": "function"
    },
    {
      "inputs": [],
      "name": "symbol",
      "outputs": [
        {
          "internalType": "string",
          "name": "",
          "type": "string"
        }
      ],
      "stateMutability": "view",
      "type": "function"
    },
    {
      "inputs": [
        {
          "internalType": "uint256",
          "name": "_spread",
          "type": "uint256"
        },
        {
          "internalType": "uint256",
          "name": "_reserveRatio",
          "type": "uint256"
        },
        {
          "internalType": "uint256",
          "name": "_mt",
          "type": "uint256"
        }
      ],
      "name": "setParameters",
      "outputs": [],
      "stateMutability": "nonpayable",
      "type": "function"
    },
    {
      "inputs": [],
      "name": "redeemAllowed",
      "outputs": [
        {
          "internalType": "bool",
          "name": "",
          "type": "bool"
        }
      ],
      "stateMutability": "view",
      "type": "function"
    },
    {
      "inputs": [],
      "name": "maturity",
      "outputs": [
        {
          "internalType": "uint256",
          "name": "",
          "type": "uint256"
        }
      ],
      "stateMutability": "view",
      "type": "function"
    },
    {
      "inputs": [
        {
          "internalType": "uint256",
          "name": "dt",
          "type": "uint256"
        }
      ],
      "name": "yield",
      "outputs": [
        {
          "internalType": "uint256",
          "name": "y",
          "type": "uint256"
        }
      ],
      "stateMutability": "view",
      "type": "function"
    },
    {
      "inputs": [
        {
          "internalType": "address",
          "name": "udlFeed",
          "type": "address"
        },
        {
          "internalType": "uint256",
          "name": "strike",
          "type": "uint256"
        },
        {
          "internalType": "uint256",
          "name": "_mt",
          "type": "uint256"
        },
        {
          "internalType": "enum OptionsExchange.OptionType",
          "name": "optType",
          "type": "uint8"
        },
        {
          "internalType": "uint256",
          "name": "t0",
          "type": "uint256"
        },
        {
          "internalType": "uint256",
          "name": "t1",
          "type": "uint256"
        },
        {
          "internalType": "uint120[]",
          "name": "x",
          "type": "uint120[]"
        },
        {
          "internalType": "uint120[]",
          "name": "y",
          "type": "uint120[]"
        },
        {
          "internalType": "uint256",
          "name": "buyStock",
          "type": "uint256"
        },
        {
          "internalType": "uint256",
          "name": "sellStock",
          "type": "uint256"
        }
      ],
      "name": "addSymbol",
      "outputs": [],
      "stateMutability": "nonpayable",
      "type": "function"
    },
    {
      "inputs": [
        {
          "internalType": "string",
          "name": "optSymbol",
          "type": "string"
        },
        {
          "internalType": "enum LiquidityPool.Operation",
          "name": "op",
          "type": "uint8"
        },
        {
          "internalType": "uint256",
          "name": "start",
          "type": "uint256"
        },
        {
          "internalType": "uint256",
          "name": "end",
          "type": "uint256"
        }
      ],
      "name": "setRange",
      "outputs": [],
      "stateMutability": "nonpayable",
      "type": "function"
    },
    {
      "inputs": [
        {
          "internalType": "string",
          "name": "optSymbol",
          "type": "string"
        }
      ],
      "name": "removeSymbol",
      "outputs": [],
      "stateMutability": "nonpayable",
      "type": "function"
    },
    {
      "inputs": [
        {
          "internalType": "address",
          "name": "to",
          "type": "address"
        },
        {
          "internalType": "address",
          "name": "token",
          "type": "address"
        },
        {
          "internalType": "uint256",
          "name": "value",
          "type": "uint256"
        }
      ],
      "name": "depositTokens",
      "outputs": [],
      "stateMutability": "nonpayable",
      "type": "function"
    },
    {
      "inputs": [
        {
          "internalType": "address",
          "name": "to",
          "type": "address"
        },
        {
          "internalType": "address",
          "name": "token",
          "type": "address"
        },
        {
          "internalType": "uint256",
          "name": "value",
          "type": "uint256"
        },
        {
          "internalType": "uint256",
          "name": "deadline",
          "type": "uint256"
        },
        {
          "internalType": "uint8",
          "name": "v",
          "type": "uint8"
        },
        {
          "internalType": "bytes32",
          "name": "r",
          "type": "bytes32"
        },
        {
          "internalType": "bytes32",
          "name": "s",
          "type": "bytes32"
        }
      ],
      "name": "depositTokens",
      "outputs": [],
      "stateMutability": "nonpayable",
      "type": "function"
    },
    {
      "inputs": [],
      "name": "calcFreeBalance",
      "outputs": [
        {
          "internalType": "uint256",
          "name": "balance",
          "type": "uint256"
        }
      ],
      "stateMutability": "view",
      "type": "function"
    },
    {
      "inputs": [
        {
          "internalType": "enum LiquidityPool.Operation",
          "name": "op",
          "type": "uint8"
        }
      ],
      "name": "listSymbols",
      "outputs": [
        {
          "internalType": "string",
          "name": "available",
          "type": "string"
        }
      ],
      "stateMutability": "view",
      "type": "function"
    },
    {
      "inputs": [
        {
          "internalType": "string",
          "name": "optSymbol",
          "type": "string"
        },
        {
          "internalType": "enum LiquidityPool.Operation",
          "name": "op",
          "type": "uint8"
        }
      ],
      "name": "isAvailable",
      "outputs": [
        {
          "internalType": "bool",
          "name": "b",
          "type": "bool"
        }
      ],
      "stateMutability": "view",
      "type": "function"
    },
    {
      "inputs": [
        {
          "internalType": "string",
          "name": "optSymbol",
          "type": "string"
        }
      ],
      "name": "queryBuy",
      "outputs": [
        {
          "internalType": "uint256",
          "name": "price",
          "type": "uint256"
        },
        {
          "internalType": "uint256",
          "name": "volume",
          "type": "uint256"
        }
      ],
      "stateMutability": "view",
      "type": "function"
    },
    {
      "inputs": [
        {
          "internalType": "string",
          "name": "optSymbol",
          "type": "string"
        }
      ],
      "name": "querySell",
      "outputs": [
        {
          "internalType": "uint256",
          "name": "price",
          "type": "uint256"
        },
        {
          "internalType": "uint256",
          "name": "volume",
          "type": "uint256"
        }
      ],
      "stateMutability": "view",
      "type": "function"
    },
    {
      "inputs": [
        {
          "internalType": "string",
          "name": "optSymbol",
          "type": "string"
        },
        {
          "internalType": "uint256",
          "name": "price",
          "type": "uint256"
        },
        {
          "internalType": "uint256",
          "name": "volume",
          "type": "uint256"
        },
        {
          "internalType": "address",
          "name": "token",
          "type": "address"
        },
        {
          "internalType": "uint256",
          "name": "maxValue",
          "type": "uint256"
        },
        {
          "internalType": "uint256",
          "name": "deadline",
          "type": "uint256"
        },
        {
          "internalType": "uint8",
          "name": "v",
          "type": "uint8"
        },
        {
          "internalType": "bytes32",
          "name": "r",
          "type": "bytes32"
        },
        {
          "internalType": "bytes32",
          "name": "s",
          "type": "bytes32"
        }
      ],
      "name": "buy",
      "outputs": [
        {
          "internalType": "address",
          "name": "_tk",
          "type": "address"
        }
      ],
      "stateMutability": "nonpayable",
      "type": "function"
    },
    {
      "inputs": [
        {
          "internalType": "string",
          "name": "optSymbol",
          "type": "string"
        },
        {
          "internalType": "uint256",
          "name": "price",
          "type": "uint256"
        },
        {
          "internalType": "uint256",
          "name": "volume",
          "type": "uint256"
        },
        {
          "internalType": "address",
          "name": "token",
          "type": "address"
        }
      ],
      "name": "buy",
      "outputs": [
        {
          "internalType": "address",
          "name": "_tk",
          "type": "address"
        }
      ],
      "stateMutability": "nonpayable",
      "type": "function"
    },
    {
      "inputs": [
        {
          "internalType": "string",
          "name": "optSymbol",
          "type": "string"
        },
        {
          "internalType": "uint256",
          "name": "price",
          "type": "uint256"
        },
        {
          "internalType": "uint256",
          "name": "volume",
          "type": "uint256"
        }
      ],
      "name": "sell",
      "outputs": [],
      "stateMutability": "nonpayable",
      "type": "function"
    },
    {
      "inputs": [
        {
          "internalType": "string",
          "name": "optSymbol",
          "type": "string"
        },
        {
          "internalType": "uint256",
          "name": "price",
          "type": "uint256"
        },
        {
          "internalType": "uint256",
          "name": "volume",
          "type": "uint256"
        },
        {
          "internalType": "uint256",
          "name": "deadline",
          "type": "uint256"
        },
        {
          "internalType": "uint8",
          "name": "v",
          "type": "uint8"
        },
        {
          "internalType": "bytes32",
          "name": "r",
          "type": "bytes32"
        },
        {
          "internalType": "bytes32",
          "name": "s",
          "type": "bytes32"
        }
      ],
      "name": "sell",
      "outputs": [],
      "stateMutability": "nonpayable",
      "type": "function"
    }
  ],
  "bytecode": "0x60806040523480156200001157600080fd5b5060405180606001604052806026815260200162005e3160269139604051469080605262005e578239604080519182900360520182208551602096870120838301835260018452603160f81b93870193909352815180870191909152808201929092527fc89efdaa54c0f20c7adf612882df0950f5a951637e0307cdcb4c672f298b8bc6606083015260808201939093523060a0808301919091528351808303909101815260c0909101909252508051910120600655615d5a80620000d76000396000f3fe608060405234801561001057600080fd5b506004361061021c5760003560e01c806365288dde116101255780639cfbb00b116100ad578063ad56d52e1161007c578063ad56d52e14610b5f578063c7f1978e14610c17578063d259945d14610c1f578063d505accf14610cc3578063dd62ed3e14610d145761021c565b80639cfbb00b146109c9578063a457c2d714610a46578063a57a8aad14610a72578063a9059cbb14610b335761021c565b80638730b205116100f45780638730b205146108355780638bd9513e146108d65780638e424b6b146108de57806395a2251f1461099b57806395d89b41146109c15761021c565b806365288dde146106d757806370a08231146107cc578063765287ef146107f25780637ecebe001461080f5761021c565b806334c5d2ce116101a857806339dc5ef21161017757806339dc5ef214610561578063428f15d614610597578063439fa088146106405780635838d127146106915780635c1bfb32146106b15761021c565b806334c5d2ce146104965780633644e515146104bf57806336977d32146104c757806339509351146105355761021c565b806318160ddd116101ef57806318160ddd14610418578063204f83f91461043257806323b872dd1461043a57806330adf81f14610470578063313ce567146104785761021c565b806304804ee81461022157806306fdde0314610297578063095ea7b3146103145780630964575714610354575b600080fd5b6102956004803603606081101561023757600080fd5b810190602081018135600160201b81111561025157600080fd5b82018360208201111561026357600080fd5b803590602001918460018302840111600160201b8311171561028457600080fd5b919350915080359060200135610d42565b005b61029f610d90565b6040805160208082528351818301528351919283929083019185019080838360005b838110156102d95781810151838201526020016102c1565b50505050905090810190601f1680156103065780820380516001836020036101000a031916815260200191505b509250505060405180910390f35b6103406004803603604081101561032a57600080fd5b506001600160a01b038135169060200135610db1565b604080519115158252519081900360200190f35b610295600480360360e081101561036a57600080fd5b810190602081018135600160201b81111561038457600080fd5b82018360208201111561039657600080fd5b803590602001918460018302840111600160201b831117156103b757600080fd5b91908080601f0160208091040260200160405190810160405280939291908181526020018383808284376000920191909152509295505082359350505060208101359060408101359060ff6060820135169060808101359060a00135610dc7565b610420611577565b60408051918252519081900360200190f35b61042061157d565b6103406004803603606081101561045057600080fd5b506001600160a01b03813581169160208101359091169060400135611583565b61042061165f565b610480611683565b6040805160ff9092168252519081900360200190f35b610295600480360360608110156104ac57600080fd5b5080359060208101359060400135611688565b61042061169e565b610295600480360360208110156104dd57600080fd5b810190602081018135600160201b8111156104f757600080fd5b82018360208201111561050957600080fd5b803590602001918460018302840111600160201b8311171561052a57600080fd5b5090925090506116a4565b6103406004803603604081101561054b57600080fd5b506001600160a01b0381351690602001356118c2565b6102956004803603606081101561057757600080fd5b506001600160a01b03813581169160208101359091169060400135611945565b610340600480360360408110156105ad57600080fd5b810190602081018135600160201b8111156105c757600080fd5b8201836020820111156105d957600080fd5b803590602001918460018302840111600160201b831117156105fa57600080fd5b91908080601f0160208091040260200160405190810160405280939291908181526020018383808284376000920191909152509295505050903560ff169150611c9e9050565b610295600480360360e081101561065657600080fd5b506001600160a01b03813581169160208101359091169060408101359060608101359060ff6080820135169060a08101359060c00135611fae565b61029f600480360360208110156106a757600080fd5b503560ff1661204c565b610295600480360360208110156106c757600080fd5b50356001600160a01b03166122ab565b61029560048036036101408110156106ee57600080fd5b6001600160a01b038235169160208101359160408201359160ff6060820135169160808201359160a08101359181019060e0810160c0820135600160201b81111561073857600080fd5b82018360208201111561074a57600080fd5b803590602001918460208302840111600160201b8311171561076b57600080fd5b919390929091602081019035600160201b81111561078857600080fd5b82018360208201111561079a57600080fd5b803590602001918460208302840111600160201b831117156107bb57600080fd5b919350915080359060200135612329565b610420600480360360208110156107e257600080fd5b50356001600160a01b0316612987565b6104206004803603602081101561080857600080fd5b50356129a2565b6104206004803603602081101561082557600080fd5b50356001600160a01b0316612a26565b6104206004803603602081101561084b57600080fd5b810190602081018135600160201b81111561086557600080fd5b82018360208201111561087757600080fd5b803590602001918460208302840111600160201b8311171561089857600080fd5b919080806020026020016040519081016040528093929190818152602001838360200280828437600092019190915250929550612a38945050505050565b610420612bc0565b610982600480360360208110156108f457600080fd5b810190602081018135600160201b81111561090e57600080fd5b82018360208201111561092057600080fd5b803590602001918460018302840111600160201b8311171561094157600080fd5b91908080601f016020809104026020016040519081016040528093929190818152602001838380828437600092019190915250929550612d11945050505050565b6040805192835260208301919091528051918290030190f35b610420600480360360208110156109b157600080fd5b50356001600160a01b0316612f70565b61029f612fcd565b610295600480360360808110156109df57600080fd5b810190602081018135600160201b8111156109f957600080fd5b820183602082011115610a0b57600080fd5b803590602001918460018302840111600160201b83111715610a2c57600080fd5b919350915060ff8135169060208101359060400135612fec565b61034060048036036040811015610a5c57600080fd5b506001600160a01b0381351690602001356130c1565b610b176004803603610120811015610a8957600080fd5b810190602081018135600160201b811115610aa357600080fd5b820183602082011115610ab557600080fd5b803590602001918460018302840111600160201b83111715610ad657600080fd5b91935091508035906020810135906001600160a01b036040820135169060608101359060808101359060ff60a0820135169060c08101359060e0013561310a565b604080516001600160a01b039092168252519081900360200190f35b61034060048036036040811015610b4957600080fd5b506001600160a01b0381351690602001356131ea565b610b1760048036036080811015610b7557600080fd5b810190602081018135600160201b811115610b8f57600080fd5b820183602082011115610ba157600080fd5b803590602001918460018302840111600160201b83111715610bc257600080fd5b91908080601f01602080910402602001604051908101604052809392919081815260200183838082843760009201919091525092955050823593505050602081013590604001356001600160a01b0316613233565b61034061373c565b61098260048036036020811015610c3557600080fd5b810190602081018135600160201b811115610c4f57600080fd5b820183602082011115610c6157600080fd5b803590602001918460018302840111600160201b83111715610c8257600080fd5b91908080601f0160208091040260200160405190810160405280939291908181526020018383808284376000920191909152509295506137b8945050505050565b610295600480360360e0811015610cd957600080fd5b506001600160a01b03813581169160208101359091169060408101359060608101359060ff6080820135169060a08101359060c00135613a0a565b61042060048036036040811015610d2a57600080fd5b506001600160a01b0381358116916020013516613c18565b6000610d8985858080601f01602080910402602001604051908101604052809392919081815260200183838082843760009201829052508893508792509050808680610dc7565b5050505050565b6060604051806060016040528060268152602001615cb86026913990505b90565b6000610dbe338484613c43565b90505b92915050565b60008511610e0d576040805162461bcd60e51b815260206004820152600e60248201526d696e76616c696420766f6c756d6560901b604482015290519081900360640190fd5b610e1687613c8b565b610e1e6159dc565b600e886040518082805190602001908083835b60208310610e505780518252601f199092019160209182019101610e31565b51815160209384036101000a6000190180199092169116179052920194855250604080519485900382018520610140860190915280546001600160a01b03811686529093509084019150600160a01b900460ff166001811115610eaf57fe5b6001811115610eba57fe5b815260018201546001600160781b03808216602080850191909152600160781b80840463ffffffff908116604080880191909152600160981b860482166060880152600160b81b909504166080860152600286015480841660a08701520490911660c084015260038401805483518184028101840190945280845260e0909401939091830182828015610f9e57602002820191906000526020600020906000905b82829054906101000a90046001600160781b03166001600160781b0316815260200190600f0190602082600e01049283019260010382029150808411610f5b5790505b505050505081526020016004820180548060200260200160405190810160405280929190818152602001828054801561102857602002820191906000526020600020906000905b82829054906101000a90046001600160781b03166001600160781b0316815260200190600f0190602082600e01049283019260010382029150808411610fe55790505b50505050508152505090506110438860028360000151613d57565b611083576040805162461bcd60e51b815260206004820152600c60248201526b6f7574206f662072616e676560a01b604482015290519081900360640190fd5b61108f87826002613e72565b600854604051638c922b6360e01b81526020600482018181528c5160248401528c51949b506000946001600160a01b0390941693638c922b63938e938392604490920191908501908083838b5b838110156110f45781810151838201526020016110dc565b50505050905090810190601f1680156111215780820380516001836020036101000a031916815260200191505b509250505060206040518083038186803b15801561113e57600080fd5b505afa158015611152573d6000803e3d6000fd5b505050506040513d602081101561116857600080fd5b505190508086156111fe576040805163d505accf60e01b8152336004820152306024820152604481018a90526064810189905260ff8816608482015260a4810187905260c4810186905290516001600160a01b0383169163d505accf9160e480830192600092919082900301818387803b1580156111e557600080fd5b505af11580156111f9573d6000803e3d6000fd5b505050505b604080516323b872dd60e01b8152336004820152306024820152604481018a905290516001600160a01b038316916323b872dd9160648083019260209291908290030181600087803b15801561125357600080fd5b505af1158015611267573d6000803e3d6000fd5b505050506040513d602081101561127d57600080fd5b50506040805163d0acc58f60e01b815230600482015290516000916001600160a01b0384169163d0acc58f91602480820192602092909190829003018186803b1580156112c957600080fd5b505afa1580156112dd573d6000803e3d6000fd5b505050506040513d60208110156112f357600080fd5b50519050801561136b576000611309828b613ef2565b9050826001600160a01b03166342966c68826040518263ffffffff1660e01b815260040180828152602001915050600060405180830381600087803b15801561135157600080fd5b505af1158015611365573d6000803e3d6000fd5b50505050505b601754600090611391906113858d8d63ffffffff613f0816565b9063ffffffff613f6116565b600854604080516356a6d9ef60e01b81523360048201526024810184905290519293506001600160a01b03909116916356a6d9ef9160448082019260009290919082900301818387803b1580156113e757600080fd5b505af11580156113fb573d6000803e3d6000fd5b505050506000611409612bc0565b11611452576040805162461bcd60e51b8152602060048201526014602482015273706f6f6c2062616c616e636520746f6f206c6f7760601b604482015290519081900360640190fd5b604080516370a0823160e01b815230600482015290516000916001600160a01b038616916370a0823191602480820192602092909190829003018186803b15801561149c57600080fd5b505afa1580156114b0573d6000803e3d6000fd5b505050506040513d60208110156114c657600080fd5b505160e08701519091506001600160781b0316811115611520576040805162461bcd60e51b815260206004820152601060248201526f65786365737369766520766f6c756d6560801b604482015290519081900360640190fd5b604080518d8152602081018d9052815133926001600160a01b038916927fa082022e93cfcd9f1da5f9236718053910f7e840da080c789c7845698dc032ff929081900390910190a350505050505050505050505050565b60075490565b60135490565b600061158e84612987565b82111561159a57600080fd5b6001600160a01b03841660009081526004602090815260408083203384529091529020548211156115ca57600080fd5b6001600160a01b0383166115dd57600080fd5b6115e78483613fa3565b6115f18383613fdc565b6001600160a01b0384166000908152600460209081526040808320338452909152902054611625908363ffffffff613ff516565b6001600160a01b0385166000908152600460209081526040808320338452909152902055611654848484614037565b5060015b9392505050565b7f6e71edae12b1b97f4d1f60370fef10105fa2faae0126114a169c64845d6126c981565b601290565b611690614087565b601192909255601255601355565b60065481565b6116ac614087565b6116b46159dc565b80600e84846040518083838082843791909101948552505060405160209381900384019020845181546001600160a01b0319166001600160a01b039091161780825593850151909390925083915060ff60a01b1916600160a01b83600181111561171a57fe5b021790555060408201516001820180546060850151608086015160a08701516001600160781b03199384166001600160781b039687161763ffffffff60781b1916600160781b63ffffffff94851681029190911763ffffffff60981b1916600160981b938516939093029290921763ffffffff60b81b1916600160b81b93909116929092029190911790925560c085015160028501805460e08801519316918516919091176effffffffffffffffffffffffffffff60781b19169190931690910217905561010082015180516117fa916003840191602090910190615a33565b506101208201518051611817916004840191602090910190615a33565b5090505061185c601484848080601f0160208091040260200160405190810160405280939291908181526020018383808284376000920191909152506140fc92505050565b507f4b62493f4f8ba00316d1e11c870ddc857bd37e50aafe15a7ad4d3f6ac1c6d34d838360405180806020018281038252848482818152602001925080828437600083820152604051601f909101601f19169092018290039550909350505050a1505050565b60006001600160a01b0383166118d757600080fd5b3360009081526004602090815260408083206001600160a01b038716845290915290205461190b908363ffffffff61422b16565b3360008181526004602090815260408083206001600160a01b0389168452909152902082905561193c918590614285565b50600192915050565b600854604080516370a0823160e01b815230600482015290516000926001600160a01b0316916370a08231916024808301926020929190829003018186803b15801561199057600080fd5b505afa1580156119a4573d6000803e3d6000fd5b505050506040513d60208110156119ba57600080fd5b505190506119c883836142d5565b600854604080516370a0823160e01b815230600482015290516000926001600160a01b0316916370a08231916024808301926020929190829003018186803b158015611a1357600080fd5b505afa158015611a27573d6000803e3d6000fd5b505050506040513d6020811015611a3d57600080fd5b50516008546040805162b08c1d60e21b815230600482015290519293506000926001600160a01b03909216916302c2307491602480820192602092909190829003018186803b158015611a8f57600080fd5b505afa158015611aa3573d6000803e3d6000fd5b505050506040513d6020811015611ab957600080fd5b5051600d5460095460408051630bbe4fd560e41b815290519394506001600160a01b0392831693636650e9ea93611b4293169163bbe4fd50916004808301926020929190829003018186803b158015611b1157600080fd5b505afa158015611b25573d6000803e3d6000fd5b505050506040513d6020811015611b3b57600080fd5b50516143cc565b611b52868563ffffffff61441416565b611b62868863ffffffff613ff516565b6040518463ffffffff1660e01b8152600401808463ffffffff1663ffffffff1681526020018381526020018281526020019350505050600060405180830381600087803b158015611bb257600080fd5b505af1158015611bc6573d6000803e3d6000fd5b5050600754915060009050611be1838563ffffffff61441416565b90506000611c0e82611385601854611c028a8a613ff590919063ffffffff16565b9063ffffffff613f0816565b90506103e8600084611c2f57611c2a848363ffffffff613f0816565b611c5a565b601854611c5a90611c46908563ffffffff613ff516565b61138584611c02898863ffffffff613f0816565b9050611c668183614479565b9050611c728b82613fdc565b611c82858263ffffffff61422b16565b600755611c9160008c83614037565b5050505050505050505050565b6001611ca86159dc565b600e846040518082805190602001908083835b60208310611cda5780518252601f199092019160209182019101611cbb565b51815160209384036101000a6000190180199092169116179052920194855250604080519485900382018520610140860190915280546001600160a01b03811686529093509084019150600160a01b900460ff166001811115611d3957fe5b6001811115611d4457fe5b815260018201546001600160781b03808216602080850191909152600160781b80840463ffffffff908116604080880191909152600160981b860482166060880152600160b81b909504166080860152600286015480841660a08701520490911660c084015260038401805483518184028101840190945280845260e0909401939091830182828015611e2857602002820191906000526020600020906000905b82829054906101000a90046001600160781b03166001600160781b0316815260200190600f0190602082600e01049283019260010382029150808411611de55790505b5050505050815260200160048201805480602002602001604051908101604052809291908181526020018280548015611eb257602002820191906000526020600020906000905b82829054906101000a90046001600160781b03166001600160781b0316815260200190600f0190602082600e01049283019260010382029150808411611e6f5790505b5050505050815250509050600960009054906101000a90046001600160a01b03166001600160a01b031663bbe4fd506040518163ffffffff1660e01b815260040160206040518083038186803b158015611f0b57600080fd5b505afa158015611f1f573d6000803e3d6000fd5b505050506040513d6020811015611f3557600080fd5b5051606082015163ffffffff1611611f505760009150611fa7565b6001836002811115611f5e57fe5b1480611f7557506002836002811115611f7357fe5b145b15611fa757611f8984848360000151613d57565b611f965760009150611fa7565b6000611fa38583866144bc565b1191505b5092915050565b6040805163d505accf60e01b8152336004820152306024820152604481018790526064810186905260ff8516608482015260a4810184905260c4810183905290516001600160a01b0388169163d505accf9160e480830192600092919082900301818387803b15801561202057600080fd5b505af1158015612034573d6000803e3d6000fd5b50505050612043878787611945565b50505050505050565b606060005b6014548110156122a5576121046014828154811061206b57fe5b600091825260209182902001805460408051601f60026000196101006001871615020190941693909304928301859004850281018501909152818152928301828280156120f95780601f106120ce576101008083540402835291602001916120f9565b820191906000526020600020905b8154815290600101906020018083116120dc57829003601f168201915b505050505084611c9e565b1561229d5781516121b6576014818154811061211c57fe5b600091825260209182902001805460408051601f60026000196101006001871615020190941693909304928301859004850281018501909152818152928301828280156121aa5780601f1061217f576101008083540402835291602001916121aa565b820191906000526020600020905b81548152906001019060200180831161218d57829003601f168201915b5050505050915061229d565b81601482815481106121c457fe5b906000526020600020016040516020018083805190602001908083835b602083106122005780518252601f1990920191602091820191016121e1565b6001836020036101000a03801982511681845116808217855250505050505090500180600560f91b815250600101828054600181600116156101000203166002900480156122855780601f10612263576101008083540402835291820191612285565b820191906000526020600020905b815481529060010190602001808311612271575b50509250505060405160208183030381529060405291505b600101612051565b50919050565b600254600160a01b900460ff161561230a576040805162461bcd60e51b815260206004820152601560248201527f696e697469616c697a6174696f6e206c6f636b65640000000000000000000000604482015290519081900360640190fd5b6002805460ff60a01b1916600160a01b179055612326816146fd565b50565b612331614087565b6013548a10612387576040805162461bcd60e51b815260206004820152601060248201527f696e76616c6964206d6174757269747900000000000000000000000000000000604482015290519081900360640190fd5b84158015906123a55750826123a386600263ffffffff613f0816565b145b6123f6576040805162461bcd60e51b815260206004820152601760248201527f696e76616c69642070726963696e672073757266616365000000000000000000604482015290519081900360640190fd5b6060600860009054906101000a90046001600160a01b03166001600160a01b031663edb5fd4f8e8c8f8f6040518563ffffffff1660e01b815260040180856001600160a01b03166001600160a01b0316815260200184600181111561245757fe5b60ff16815260200183815260200182815260200194505050505060006040518083038186803b15801561248957600080fd5b505afa15801561249d573d6000803e3d6000fd5b505050506040513d6000823e601f3d908101601f1916820160405260208110156124c657600080fd5b8101908080516040519392919084600160201b8211156124e557600080fd5b9083019060208201858111156124fa57600080fd5b8251600160201b81118282018810171561251357600080fd5b82525081516020918201929091019080838360005b83811015612540578181015183820152602001612528565b50505050905090810190601f16801561256d5780820380516001836020036101000a031916815260200191505b506040525050509050600e816040518082805190602001908083835b602083106125a85780518252601f199092019160209182019101612589565b51815160209384036101000a600019018019909216911617905292019485525060405193849003019092206003015415159150612626905057601480546001810182556000919091528151612624917fce6d7b5282bd9a3661ae061feed1dbda4e52ab073b1f9285be6e155d9c38d4ec01906020840190615ae7565b505b6040518061014001604052808e6001600160a01b031681526020018b600181111561264d57fe5b815260200161265b8e614c9c565b6001600160781b031681526020016126728d6143cc565b63ffffffff1681526020016126868b6143cc565b63ffffffff16815260200161269a8a6143cc565b63ffffffff1681526020016126ae85614c9c565b6001600160781b031681526020016126c584614c9c565b6001600160781b03168152602001888880806020026020016040519081016040528093929190818152602001838360200280828437600092019190915250505090825250604080516020888102828101820190935288825292830192909189918991829185019084908082843760009201919091525050509152506040518251600e918491819060208401908083835b602083106127745780518252601f199092019160209182019101612755565b51815160209384036101000a6000190180199092169116179052920194855250604051938490038101909320845181546001600160a01b0319166001600160a01b039091161780825593850151909390925083915060ff60a01b1916600160a01b8360018111156127e157fe5b021790555060408201516001820180546060850151608086015160a08701516001600160781b03199384166001600160781b039687161763ffffffff60781b1916600160781b63ffffffff94851681029190911763ffffffff60981b1916600160981b938516939093029290921763ffffffff60b81b1916600160b81b93909116929092029190911790925560c085015160028501805460e08801519316918516919091176effffffffffffffffffffffffffffff60781b19169190931690910217905561010082015180516128c1916003840191602090910190615a33565b5061012082015180516128de916004840191602090910190615a33565b505060408051602080825284518183015284517f27136bc3b80a2a48083d0f3dd8acaf97309ab58abf6408d4ab39af25b6b4168e945085938392908301919085019080838360005b8381101561293e578181015183820152602001612926565b50505050905090810190601f16801561296b5780820380516001836020036101000a031916815260200191505b509250505060405180910390a150505050505050505050505050565b6001600160a01b031660009081526003602052604090205490565b600d5460408051631dc4ba9f60e01b81523060048201526024810184905290516000926001600160a01b031691631dc4ba9f916044808301926020929190829003018186803b1580156129f457600080fd5b505afa158015612a08573d6000803e3d6000fd5b505050506040513d6020811015612a1e57600080fd5b505192915050565b60056020526000908152604090205481565b6000612a4261373c565b612a93576040805162461bcd60e51b815260206004820152601360248201527f72656465656d64206e6f7420616c6c6f77656400000000000000000000000000604482015290519081900360640190fd5b600854604080516370a0823160e01b815230600482015290516000926001600160a01b0316916370a08231916024808301926020929190829003018186803b158015612ade57600080fd5b505afa158015612af2573d6000803e3d6000fd5b505050506040513d6020811015612b0857600080fd5b505160075490915081908060005b8651811015612bb35760006001600160a01b0316878281518110612b3657fe5b60200260200101516001600160a01b031614612bab57600080612b6d87868b8681518110612b6057fe5b6020026020010151614ce0565b9092509050612b82888263ffffffff61422b16565b9750612b94868263ffffffff613ff516565b9550612ba6848363ffffffff613ff516565b935050505b600101612b16565b5060075550919392505050565b600854604080516370a0823160e01b8152306004820152905160009283926001600160a01b03909116916370a0823191602480820192602092909190829003018186803b158015612c1057600080fd5b505afa158015612c24573d6000803e3d6000fd5b505050506040513d6020811015612c3a57600080fd5b5051601854601254919250600091612c5e919061138590859063ffffffff613f0816565b600854604080516352fee2ef60e11b81523060048201529051929350600092612ce9926001600160a01b03169163a5fdc5de916024808301926020929190829003018186803b158015612cb057600080fd5b505afa158015612cc4573d6000803e3d6000fd5b505050506040513d6020811015612cda57600080fd5b5051849063ffffffff613ff516565b9050818111612cf9576000612d09565b612d09818363ffffffff613ff516565b935050505090565b600080612d1d83613c8b565b612d256159dc565b600e846040518082805190602001908083835b60208310612d575780518252601f199092019160209182019101612d38565b51815160209384036101000a6000190180199092169116179052920194855250604080519485900382018520610140860190915280546001600160a01b03811686529093509084019150600160a01b900460ff166001811115612db657fe5b6001811115612dc157fe5b815260018201546001600160781b03808216602080850191909152600160781b80840463ffffffff908116604080880191909152600160981b860482166060880152600160b81b909504166080860152600286015480841660a08701520490911660c084015260038401805483518184028101840190945280845260e0909401939091830182828015612ea557602002820191906000526020600020906000905b82829054906101000a90046001600160781b03166001600160781b0316815260200190600f0190602082600e01049283019260010382029150808411612e625790505b5050505050815260200160048201805480602002602001604051908101604052809291908181526020018280548015612f2f57602002820191906000526020600020906000905b82829054906101000a90046001600160781b03166001600160781b0316815260200190600f0190602082600e01049283019260010382029150808411612eec5790505b5050505050815250509050612f45816002614db2565b9250612f68612f578583866002614f4b565b612f63868460026144bc565b613ef2565b915050915091565b60408051600180825281830190925260009160609190602080830190803883390190505090508281600081518110612fa457fe5b60200260200101906001600160a01b031690816001600160a01b03168152505061165881612a38565b6040805180820190915260058152644c4c50544b60d81b602082015290565b612ff4614087565b604051806040016040528061300884614c9c565b6001600160781b0316815260200161301f83614c9c565b6001600160781b0316815250600f86866040518083838082843780830192505050925050509081526020016040518091039020600085600281111561306057fe5b81526020808201929092526040016000208251815493909201516001600160781b03908116600160781b026effffffffffffffffffffffffffffff60781b19919093166001600160781b031990941693909317929092161790555050505050565b60006001600160a01b0383166130d657600080fd5b3360009081526004602090815260408083206001600160a01b038716845290915290205461190b908363ffffffff613ff516565b6040805163d505accf60e01b8152336004820152306024820152604481018790526064810186905260ff8516608482015260a4810184905260c4810183905290516000916001600160a01b0389169163d505accf9160e480820192869290919082900301818387803b15801561317f57600080fd5b505af1158015613193573d6000803e3d6000fd5b505050506131db8b8b8080601f0160208091040260200160405190810160405280939291908181526020018383808284376000920191909152508d92508c91508b9050613233565b9b9a5050505050505050505050565b60006131f533612987565b82111561320157600080fd5b6001600160a01b03831661321457600080fd5b61321e3383613fa3565b6132288383613fdc565b61193c338484614037565b600080831161327a576040805162461bcd60e51b815260206004820152600e60248201526d696e76616c696420766f6c756d6560901b604482015290519081900360640190fd5b61328385613c8b565b61328b6159dc565b600e866040518082805190602001908083835b602083106132bd5780518252601f19909201916020918201910161329e565b51815160209384036101000a6000190180199092169116179052920194855250604080519485900382018520610140860190915280546001600160a01b03811686529093509084019150600160a01b900460ff16600181111561331c57fe5b600181111561332757fe5b815260018201546001600160781b03808216602080850191909152600160781b80840463ffffffff908116604080880191909152600160981b860482166060880152600160b81b909504166080860152600286015480841660a08701520490911660c084015260038401805483518184028101840190945280845260e090940193909183018282801561340b57602002820191906000526020600020906000905b82829054906101000a90046001600160781b03166001600160781b0316815260200190600f0190602082600e010492830192600103820291508084116133c85790505b505050505081526020016004820180548060200260200160405190810160405280929190818152602001828054801561349557602002820191906000526020600020906000905b82829054906101000a90046001600160781b03166001600160781b0316815260200190600f0190602082600e010492830192600103820291508084116134525790505b50505050508152505090506134b08660018360000151613d57565b6134f0576040805162461bcd60e51b815260206004820152600c60248201526b6f7574206f662072616e676560a01b604482015290519081900360640190fd5b6134fc818686866154c8565b600854604051638c922b6360e01b81526020600482018181528a5160248401528a519499506001600160a01b0390931693638c922b63938b93909283926044909201919085019080838360005b83811015613561578181015183820152602001613549565b50505050905090810190601f16801561358e5780820380516001836020036101000a031916815260200191505b509250505060206040518083038186803b1580156135ab57600080fd5b505afa1580156135bf573d6000803e3d6000fd5b505050506040513d60208110156135d557600080fd5b5051604080516370a0823160e01b8152306004820152905191935083916000916001600160a01b038416916370a0823191602480820192602092909190829003018186803b15801561362657600080fd5b505afa15801561363a573d6000803e3d6000fd5b505050506040513d602081101561365057600080fd5b505190508086111561366d5761366882848833615633565b6136e9565b6040805163a9059cbb60e01b81523360048201526024810188905290516001600160a01b0384169163a9059cbb9160448083019260209291908290030181600087803b1580156136bc57600080fd5b505af11580156136d0573d6000803e3d6000fd5b505050506040513d60208110156136e657600080fd5b50505b6040805188815260208101889052815133926001600160a01b038816927f89f5adc174562e07c9c9b1cae7109bbecb21cf9d1b2847e550042b8653c54a0e929081900390910190a3505050949350505050565b60135460095460408051630bbe4fd560e41b81529051600093926001600160a01b03169163bbe4fd50916004808301926020929190829003018186803b15801561378557600080fd5b505afa158015613799573d6000803e3d6000fd5b505050506040513d60208110156137af57600080fd5b50511015905090565b6000806137c483613c8b565b6137cc6159dc565b600e846040518082805190602001908083835b602083106137fe5780518252601f1990920191602091820191016137df565b51815160209384036101000a6000190180199092169116179052920194855250604080519485900382018520610140860190915280546001600160a01b03811686529093509084019150600160a01b900460ff16600181111561385d57fe5b600181111561386857fe5b815260018201546001600160781b03808216602080850191909152600160781b80840463ffffffff908116604080880191909152600160981b860482166060880152600160b81b909504166080860152600286015480841660a08701520490911660c084015260038401805483518184028101840190945280845260e090940193909183018282801561394c57602002820191906000526020600020906000905b82829054906101000a90046001600160781b03166001600160781b0316815260200190600f0190602082600e010492830192600103820291508084116139095790505b50505050508152602001600482018054806020026020016040519081016040528092919081815260200182805480156139d657602002820191906000526020600020906000905b82829054906101000a90046001600160781b03166001600160781b0316815260200190600f0190602082600e010492830192600103820291508084116139935790505b50505050508152505090506139ec816001614db2565b9250612f686139fe8583866001614f4b565b612f63868460016144bc565b42841015613a5f576040805162461bcd60e51b815260206004820152600e60248201527f7065726d69742065787069726564000000000000000000000000000000000000604482015290519081900360640190fd5b6006546001600160a01b0380891660008181526005602090815260408083208054600180820190925582517f6e71edae12b1b97f4d1f60370fef10105fa2faae0126114a169c64845d6126c98186015280840196909652958d166060860152608085018c905260a085019590955260c08085018b90528151808603909101815260e08501825280519083012061190160f01b6101008601526101028501969096526101228085019690965280518085039096018652610142840180825286519683019690962095839052610162840180825286905260ff89166101828501526101a284018890526101c28401879052519193926101e280820193601f1981019281900390910190855afa158015613b7a573d6000803e3d6000fd5b5050604051601f1901519150506001600160a01b03811615801590613bb05750886001600160a01b0316816001600160a01b0316145b613c01576040805162461bcd60e51b815260206004820152601160248201527f696e76616c6964207369676e6174757265000000000000000000000000000000604482015290519081900360640190fd5b613c0c898989613c43565b50505050505050505050565b6001600160a01b03918216600090815260046020908152604080832093909416825291909152205490565b60006001600160a01b038316613c5857600080fd5b6001600160a01b038085166000908152600460209081526040808320938716835292905220829055611654848484614285565b60006001600160a01b0316600e826040518082805190602001908083835b60208310613cc85780518252601f199092019160209182019101613ca9565b51815160209384036101000a60001901801990921691161790529201948552506040519384900301909220546001600160a01b0316929092141591506123269050576040805162461bcd60e51b815260206004820152601160248201527f696e76616c6964206f707453796d626f6c000000000000000000000000000000604482015290519081900360640190fd5b6000613d61615b61565b600f856040518082805190602001908083835b60208310613d935780518252601f199092019160209182019101613d74565b51815160209384036101000a60001901801990921691161790529201948552506040519384900301909220915060009050856002811115613dd057fe5b815260208082019290925260409081016000208151808301909252546001600160781b03808216808452600160781b90920416928201929092529150158015613e24575060208101516001600160781b0316155b15613e33576001915050611658565b6000613e3e84615849565b82519091506001600160781b03168110801590613e68575081602001516001600160781b03168111155b9695505050505050565b6000613e7e8383614db2565b90506001826002811115613e8e57fe5b14613e9c5780841115613ea1565b808410155b611658576040805162461bcd60e51b815260206004820152601260248201527f696e73756666696369656e742070726963650000000000000000000000000000604482015290519081900360640190fd5b6000818310613f015781610dbe565b5090919050565b600082613f1757506000610dc1565b82820282848281613f2457fe5b0414610dbe5760405162461bcd60e51b8152600401808060200182810382526021815260200180615cde6021913960400191505060405180910390fd5b6000610dbe83836040518060400160405280601a81526020017f536166654d6174683a206469766973696f6e206279207a65726f0000000000008152506158bd565b613fbc81613fb084612987565b9063ffffffff613ff516565b6001600160a01b0390921660009081526003602052604090209190915550565b613fbc81613fe984612987565b9063ffffffff61422b16565b6000610dbe83836040518060400160405280601e81526020017f536166654d6174683a207375627472616374696f6e206f766572666c6f77000081525061595f565b816001600160a01b0316836001600160a01b03167fddf252ad1be2c89b69c2b068fc378daa952ba7f163c4a11628f55a4df523b3ef836040518082815260200191505060405180910390a3505050565b6010546001600160a01b031615806140a957506010546001600160a01b031633145b6140fa576040805162461bcd60e51b815260206004820152601360248201527f756e617574686f72697a65642063616c6c657200000000000000000000000000604482015290519081900360640190fd5b565b6000805b835481101561422157828051906020012084828154811061411d57fe5b9060005260206000200160405180828054600181600116156101000203166002900480156141825780601f10614160576101008083540402835291820191614182565b820191906000526020600020905b81548152906001019060200180831161416e575b505091505060405180910390201415614219578354849060001981019081106141a757fe5b906000526020600020018482815481106141bd57fe5b9060005260206000200190805460018160011615610100020316600290046141e6929190615b78565b50838054806141f157fe5b60019003818190600052602060002001600061420d9190615bed565b90556001915050610dc1565b600101614100565b5060009392505050565b600082820183811015610dbe576040805162461bcd60e51b815260206004820152601b60248201527f536166654d6174683a206164646974696f6e206f766572666c6f770000000000604482015290519081900360640190fd5b816001600160a01b0316836001600160a01b03167f8c5be1e5ebec7d5bd14f71427d1e84f3dd0314c0f7b2291e5b200ac8c7c3b925836040518082815260200191505060405180910390a3505050565b600b54604080516323b872dd60e01b81523360048201526001600160a01b03928316602482015260448101849052905184928316916323b872dd9160648083019260209291908290030181600087803b15801561433157600080fd5b505af1158015614345573d6000803e3d6000fd5b505050506040513d602081101561435b57600080fd5b5050600b54604080516334ef2a2160e21b81523060048201526001600160a01b038681166024830152604482018690529151919092169163d3bca88491606480830192600092919082900301818387803b1580156143b857600080fd5b505af1158015612043573d6000803e3d6000fd5b6000600160201b82106144105760405162461bcd60e51b8152600401808060200182810382526026815260200180615cff6026913960400191505060405180910390fd5b5090565b60008282018183128015906144295750838112155b8061443e575060008312801561443e57508381125b610dbe5760405162461bcd60e51b8152600401808060200182810382526021815260200180615c976021913960400191505060405180910390fd5b6000610dbe61448f83600263ffffffff613f6116565b83858161449857fe5b0610156144a65760006144a9565b60015b60ff16613fe9858563ffffffff613f6116565b600854604051638c922b6360e01b81526020600482018181528651602484015286516000948594859485946001600160a01b0390931693638c922b63938c9390928392604490920191908501908083838b5b8381101561452657818101518382015260200161450e565b50505050905090810190601f1680156145535780820380516001836020036101000a031916815260200191505b509250505060206040518083038186803b15801561457057600080fd5b505afa158015614584573d6000803e3d6000fd5b505050506040513d602081101561459a57600080fd5b5051905060018560028111156145ac57fe5b141561464b578560c001516001600160781b03169250806001600160a01b031663d0acc58f306040518263ffffffff1660e01b815260040180826001600160a01b03166001600160a01b0316815260200191505060206040518083038186803b15801561461857600080fd5b505afa15801561462c573d6000803e3d6000fd5b505050506040513d602081101561464257600080fd5b505191506146e0565b8560e001516001600160781b03169250806001600160a01b03166370a08231306040518263ffffffff1660e01b815260040180826001600160a01b03166001600160a01b0316815260200191505060206040518083038186803b1580156146b157600080fd5b505afa1580156146c5573d6000803e3d6000fd5b505050506040513d60208110156146db57600080fd5b505191505b8183116146ee5760006146f2565b8183035b979650505050505050565b6147056159b9565b6001600160a01b0316633644e5156040518163ffffffff1660e01b815260040160206040518083038186803b15801561473d57600080fd5b505afa158015614751573d6000803e3d6000fd5b505050506040513d602081101561476757600080fd5b505160065560408051631127a41d60e31b815290516001600160a01b0383169163893d20e8916004808301926020929190829003018186803b1580156147ac57600080fd5b505afa1580156147c0573d6000803e3d6000fd5b505050506040513d60208110156147d657600080fd5b5051601080546001600160a01b0319166001600160a01b0392831617905560408051630110ceef60e21b8152602060048201819052600c60248301526b2a34b6b2a83937bb34b232b960a11b60448301529151928416926304433bbc92606480840193919291829003018186803b15801561485057600080fd5b505afa158015614864573d6000803e3d6000fd5b505050506040513d602081101561487a57600080fd5b5051600980546001600160a01b0319166001600160a01b0392831617905560408051630110ceef60e21b8152602060048201819052600f60248301527f4f7074696f6e7345786368616e6765000000000000000000000000000000000060448301529151928416926304433bbc92606480840193919291829003018186803b15801561490557600080fd5b505afa158015614919573d6000803e3d6000fd5b505050506040513d602081101561492f57600080fd5b5051600880546001600160a01b0319166001600160a01b0392831617905560408051630110ceef60e21b8152602060048201819052601060248301527f50726f746f636f6c53657474696e67730000000000000000000000000000000060448301529151928416926304433bbc92606480840193919291829003018186803b1580156149ba57600080fd5b505afa1580156149ce573d6000803e3d6000fd5b505050506040513d60208110156149e457600080fd5b5051600a80546001600160a01b0319166001600160a01b0392831617905560408051630110ceef60e21b8152602060048201819052600e60248301527f43726564697450726f766964657200000000000000000000000000000000000060448301529151928416926304433bbc92606480840193919291829003018186803b158015614a6f57600080fd5b505afa158015614a83573d6000803e3d6000fd5b505050506040513d6020811015614a9957600080fd5b5051600b80546001600160a01b0319166001600160a01b0392831617905560408051630110ceef60e21b8152602060048201819052601260248301527f4c696e656172496e746572706f6c61746f72000000000000000000000000000060448301529151928416926304433bbc92606480840193919291829003018186803b158015614b2457600080fd5b505afa158015614b38573d6000803e3d6000fd5b505050506040513d6020811015614b4e57600080fd5b5051600c80546001600160a01b0319166001600160a01b0392831617815560408051630110ceef60e21b815260206004820181905260248201939093526b2cb4b2b6322a3930b1b5b2b960a11b60448201529051928416926304433bbc92606480840193919291829003018186803b158015614bc957600080fd5b505afa158015614bdd573d6000803e3d6000fd5b505050506040513d6020811015614bf357600080fd5b5051600d80546001600160a01b0319166001600160a01b03928316179055670de0b6b3a7640000601555633b9aca006016556008546040805163a53b004160e01b81529051919092169163a53b0041916004808301926020929190829003018186803b158015614c6257600080fd5b505afa158015614c76573d6000803e3d6000fd5b505050506040513d6020811015614c8c57600080fd5b505160175550633b9aca00601855565b6000600160781b82106144105760405162461bcd60e51b8152600401808060200182810382526027815260200180615c706027913960400191505060405180910390fd5b600080614cec83612987565b91508115614d9f576103e8614d24614d1e86611385614d11878663ffffffff613f0816565b8a9063ffffffff613f0816565b82614479565b600854604080516356a6d9ef60e01b81526001600160a01b0388811660048301526024820185905291519395509116916356a6d9ef9160448082019260009290919082900301818387803b158015614d7b57600080fd5b505af1158015614d8f573d6000803e3d6000fd5b50505050614d9d8484613fa3565b505b614daa8383836159c8565b935093915050565b6000806001836002811115614dc357fe5b14614de257601154601854614ddd9163ffffffff613ff516565b614df7565b601854601154614df79163ffffffff61422b16565b90506000614e088560000151615849565b600c54608087015160a08801516101008901516101208a01516040516356e9c37160e11b81526004810187815263ffffffff80871660248401528516604483015260a482018a905260c060648301908152845160c484015284519899506001600160a01b039097169763add386e2978a97969594938c9392608482019160e401906020808901910280838360005b83811015614eae578181015183820152602001614e96565b50505050905001838103825285818151815260200191508051906020019060200280838360005b83811015614eed578181015183820152602001614ed5565b505050509050019850505050505050505060206040518083038186803b158015614f1657600080fd5b505afa158015614f2a573d6000803e3d6000fd5b505050506040513d6020811015614f4057600080fd5b505195945050505050565b600080614f56612bc0565b90506000614f71601254601854613ff590919063ffffffff16565b600854875160175460208a01516040808c015160608d01519151635a1a74eb60e11b81526001600160a01b03868116600483019081526024830187905298995060009897169663b434e9d69695949391604401846001811115614fd057fe5b60ff168152602001836001600160781b031681526020018263ffffffff1681526020019550505050505060206040518083038186803b15801561501257600080fd5b505afa158015615026573d6000803e3d6000fd5b505050506040513d602081101561503c57600080fd5b50519050600185600281111561504e57fe5b14156150ac57858111156150a15761509c61508861507b601854611385868b613f0890919063ffffffff16565b839063ffffffff613ff516565b60175461138590869063ffffffff613f0816565b6150a5565b6000195b93506154bd565b600854604080516370a0823160e01b815230600482015290516000926001600160a01b0316916370a08231916024808301926020929190829003018186803b1580156150f757600080fd5b505afa15801561510b573d6000803e3d6000fd5b505050506040513d602081101561512157600080fd5b5051600854604080516352fee2ef60e11b815230600482015290519293506000926001600160a01b039092169163a5fdc5de91602480820192602092909190829003018186803b15801561517457600080fd5b505afa158015615188573d6000803e3d6000fd5b505050506040513d602081101561519e57600080fd5b81019080805190602001909291905050509050600061531e84600860009054906101000a90046001600160a01b03166001600160a01b0316638c922b638e6040518263ffffffff1660e01b81526004018080602001828103825283818151815260200191508051906020019080838360005b83811015615228578181015183820152602001615210565b50505050905090810190601f1680156152555780820380516001836020036101000a031916815260200191505b509250505060206040518083038186803b15801561527257600080fd5b505afa158015615286573d6000803e3d6000fd5b505050506040513d602081101561529c57600080fd5b50516040805163d0acc58f60e01b815230600482015290516001600160a01b039092169163d0acc58f91602480820192602092909190829003018186803b1580156152e657600080fd5b505afa1580156152fa573d6000803e3d6000fd5b505050506040513d602081101561531057600080fd5b50519063ffffffff613f0816565b905080821161532e57600061533e565b61533e828263ffffffff613ff516565b91506000600860009054906101000a90046001600160a01b03166001600160a01b03166383a7e7e18c600001518d602001518e604001518f606001516040518563ffffffff1660e01b815260040180856001600160a01b03166001600160a01b031681526020018460018111156153b157fe5b60ff168152602001836001600160781b031681526020018263ffffffff16815260200194505050505060206040518083038186803b1580156153f257600080fd5b505afa158015615406573d6000803e3d6000fd5b505050506040513d602081101561541c57600080fd5b50519050808a111561546f5761546a61543b8b8363ffffffff613ff516565b611385601754611c0261545d8b6113856018548b613f0890919063ffffffff16565b899063ffffffff613ff516565b615473565b6000195b9750615497886154928c61138560175489613f0890919063ffffffff16565b6159cd565b97506154b688612f638c61138560175489613f0890919063ffffffff16565b9750505050505b505050949350505050565b60006154d684866001613e72565b935060006154f36017546113858688613f0890919063ffffffff16565b6008549091506001600160a01b038481169116146155b757600a5460408051632a6f500560e11b81526001600160a01b038681166004830152825160009485949216926354dea00a926024808301939192829003018186803b15801561555857600080fd5b505afa15801561556c573d6000803e3d6000fd5b505050506040513d604081101561558257600080fd5b50805160209091015190925090506155a481611385858563ffffffff613f0816565b92506155b085846142d5565b5050615629565b600854604080516353035ca560e11b81523360048201523060248201526044810184905290516001600160a01b039092169163a606b94a9160648082019260009290919082900301818387803b15801561561057600080fd5b505af1158015615624573d6000803e3d6000fd5b505050505b5092949350505050565b6040805163d0acc58f60e01b815230600482015290516000916001600160a01b0387169163d0acc58f91602480820192602092909190829003018186803b15801561567d57600080fd5b505afa158015615691573d6000803e3d6000fd5b505050506040513d60208110156156a757600080fd5b505160c08501519091506001600160781b03166156ca828563ffffffff61422b16565b1115615710576040805162461bcd60e51b815260206004820152601060248201526f65786365737369766520766f6c756d6560801b604482015290519081900360640190fd5b600854845160208601516040808801516060890151915163169a737360e31b81526001600160a01b0385811660048301908152602483018b905296169563b4d39b9895948a9490939290918a9160440185600181111561576c57fe5b60ff168152602001846001600160781b031681526020018363ffffffff168152602001826001600160a01b03166001600160a01b031681526020019650505050505050602060405180830381600087803b1580156157c957600080fd5b505af11580156157dd573d6000803e3d6000fd5b505050506040513d60208110156157f357600080fd5b5060009050615800612bc0565b11610d89576040805162461bcd60e51b8152602060048201526014602482015273706f6f6c2062616c616e636520746f6f206c6f7760601b604482015290519081900360640190fd5b600080829050806001600160a01b0316638e15f4736040518163ffffffff1660e01b8152600401604080518083038186803b15801561588757600080fd5b505afa15801561589b573d6000803e3d6000fd5b505050506040513d60408110156158b157600080fd5b50602001519392505050565b600081836159495760405162461bcd60e51b81526004018080602001828103825283818151815260200191508051906020019080838360005b8381101561590e5781810151838201526020016158f6565b50505050905090810190601f16801561593b5780820380516001836020036101000a031916815260200191505b509250505060405180910390fd5b50600083858161595557fe5b0495945050505050565b600081848411156159b15760405162461bcd60e51b815260206004820181815283516024840152835190928392604490910191908501908083836000831561590e5781810151838201526020016158f6565b505050900390565b6002546001600160a01b031690565b505050565b6000818311613f015781610dbe565b6040805161014081019091526000808252602082019081526000602082018190526040820181905260608083018290526080830182905260a0830182905260c083019190915260e082018190526101009091015290565b82805482825590600052602060002090600101600290048101928215615adb5791602002820160005b83821115615aa657835183826101000a8154816001600160781b0302191690836001600160781b031602179055509260200192600f01602081600e01049283019260010302615a5c565b8015615ad95782816101000a8154906001600160781b030219169055600f01602081600e01049283019260010302615aa6565b505b50614410929150615c31565b828054600181600116156101000203166002900490600052602060002090601f016020900481019282601f10615b2857805160ff1916838001178555615b55565b82800160010185558215615b55579182015b82811115615b55578251825591602001919060010190615b3a565b50614410929150615c55565b604080518082019091526000808252602082015290565b828054600181600116156101000203166002900490600052602060002090601f016020900481019282601f10615bb15780548555615b55565b82800160010185558215615b5557600052602060002091601f016020900482015b82811115615b55578254825591600101919060010190615bd2565b50805460018160011615610100020316600290046000825580601f10615c135750612326565b601f0160209004906000526020600020908101906123269190615c55565b610dae91905b808211156144105780546001600160781b0319168155600101615c37565b610dae91905b808211156144105760008155600101615c5b56fe53616665436173743a2076616c756520646f65736e27742066697420696e2031323020626974735369676e6564536166654d6174683a206164646974696f6e206f766572666c6f774c696e656172204c697175696469747920506f6f6c2052656465656d61626c6520546f6b656e536166654d6174683a206d756c7469706c69636174696f6e206f766572666c6f7753616665436173743a2076616c756520646f65736e27742066697420696e2033322062697473a2646970667358221220f94978e1a8ca11094e62fae8462ba673275cc6e54605434ddea7a67754abe85e64736f6c634300060000334c696e656172204c697175696469747920506f6f6c2052656465656d61626c6520546f6b656e454950373132446f6d61696e28737472696e67206e616d652c737472696e672076657273696f6e2c75696e7432353620636861696e49642c6164647265737320766572696679696e67436f6e747261637429",
  "source": "pragma solidity >=0.6.0;\n\nimport \"../deployment/ManagedContract.sol\";\nimport \"../finance/RedeemableToken.sol\";\nimport \"../finance/YieldTracker.sol\";\nimport \"../governance/ProtocolSettings.sol\";\nimport \"../interfaces/TimeProvider.sol\";\nimport \"../interfaces/LiquidityPool.sol\";\nimport \"../interfaces/UnderlyingFeed.sol\";\nimport \"../utils/ERC20.sol\";\nimport \"../utils/MoreMath.sol\";\nimport \"../utils/SafeCast.sol\";\nimport \"../utils/SafeMath.sol\";\nimport \"../utils/SignedSafeMath.sol\";\nimport \"./LinearInterpolator.sol\";\n\ncontract LinearLiquidityPool is LiquidityPool, ManagedContract, RedeemableToken {\n\n    using SafeCast for uint;\n    using SafeMath for uint;\n    using SignedSafeMath for int;\n\n    struct PricingParameters {\n        address udlFeed;\n        OptionsExchange.OptionType optType;\n        uint120 strike;\n        uint32 maturity;\n        uint32 t0;\n        uint32 t1;\n        uint120 buyStock;\n        uint120 sellStock;\n        uint120[] x;\n        uint120[] y;\n    }\n\n    struct Range {\n        uint120 start;\n        uint120 end;\n    }\n\n    TimeProvider private time;\n    ProtocolSettings private settings;\n    CreditProvider private creditProvider;\n    LinearInterpolator private interpolator;\n    YieldTracker private tracker;\n\n    mapping(string => PricingParameters) private parameters;\n    mapping(string => mapping(uint => Range)) private ranges;\n\n    string private constant _name = \"Linear Liquidity Pool Redeemable Token\";\n    string private constant _symbol = \"LLPTK\";\n\n    address private owner;\n    uint private spread;\n    uint private reserveRatio;\n    uint private _maturity;\n    string[] private optSymbols;\n\n    uint private timeBase;\n    uint private sqrtTimeBase;\n    uint private volumeBase;\n    uint private fractionBase;\n\n    constructor() ERC20(_name) public {\n        \n    }\n\n    function initialize(Deployer deployer) override internal {\n\n        DOMAIN_SEPARATOR = ERC20(getImplementation()).DOMAIN_SEPARATOR();\n\n        owner = deployer.getOwner();\n        time = TimeProvider(deployer.getContractAddress(\"TimeProvider\"));\n        exchange = OptionsExchange(deployer.getContractAddress(\"OptionsExchange\"));\n        settings = ProtocolSettings(deployer.getContractAddress(\"ProtocolSettings\"));\n        creditProvider = CreditProvider(deployer.getContractAddress(\"CreditProvider\"));\n        interpolator = LinearInterpolator(deployer.getContractAddress(\"LinearInterpolator\"));\n        tracker = YieldTracker(deployer.getContractAddress(\"YieldTracker\"));\n\n        timeBase = 1e18;\n        sqrtTimeBase = 1e9;\n        volumeBase = exchange.volumeBase();\n        fractionBase = 1e9;\n    }\n\n    function name() override external view returns (string memory) {\n        return _name;\n    }\n\n    function symbol() override external view returns (string memory) {\n        return _symbol;\n    }\n\n    function setParameters(\n        uint _spread,\n        uint _reserveRatio,\n        uint _mt\n    )\n        external\n    {\n        ensureCaller();\n        spread = _spread;\n        reserveRatio = _reserveRatio;\n        _maturity = _mt;\n    }\n\n    function redeemAllowed() override public view returns (bool) {\n        \n        return time.getNow() >= _maturity;\n    }\n\n    function maturity() override external view returns (uint) {\n        \n        return _maturity;\n    }\n\n    function yield(uint dt) override external view returns (uint y) {\n        \n        y = tracker.yield(address(this), dt);\n    }\n\n    function addSymbol(\n        address udlFeed,\n        uint strike,\n        uint _mt,\n        OptionsExchange.OptionType optType,\n        uint t0,\n        uint t1,\n        uint120[] calldata x,\n        uint120[] calldata y,\n        uint buyStock,\n        uint sellStock\n    )\n        external\n    {\n        ensureCaller();\n        require(_mt < _maturity, \"invalid maturity\");\n        require(x.length > 0 && x.length.mul(2) == y.length, \"invalid pricing surface\");\n\n        string memory optSymbol = exchange.getOptionSymbol(\n            udlFeed,\n            optType,\n            strike,\n            _mt\n        );\n\n        if (parameters[optSymbol].x.length == 0) {\n            optSymbols.push(optSymbol);\n        }\n\n        parameters[optSymbol] = PricingParameters(\n            udlFeed,\n            optType,\n            strike.toUint120(),\n            _mt.toUint32(),\n            t0.toUint32(),\n            t1.toUint32(),\n            buyStock.toUint120(),\n            sellStock.toUint120(),\n            x,\n            y\n        );\n\n        emit AddSymbol(optSymbol);\n    }\n    \n    function setRange(string calldata optSymbol, Operation op, uint start, uint end) external {\n\n        ensureCaller();\n        ranges[optSymbol][uint(op)] = Range(start.toUint120(), end.toUint120());\n    }\n    \n    function removeSymbol(string calldata optSymbol) external {\n\n        ensureCaller();\n        PricingParameters memory empty;\n        parameters[optSymbol] = empty;\n        Arrays.removeItem(optSymbols, optSymbol);\n        emit RemoveSymbol(optSymbol);\n    }\n\n    function depositTokens(\n        address to,\n        address token,\n        uint value,\n        uint deadline,\n        uint8 v,\n        bytes32 r,\n        bytes32 s\n    )\n        override\n        external\n    {\n        IERC20Permit(token).permit(msg.sender, address(this), value, deadline, v, r, s);\n        depositTokens(to, token, value);\n    }\n\n    function depositTokens(address to, address token, uint value) override public {\n\n        uint b0 = exchange.balanceOf(address(this));\n        depositTokensInExchange(token, value);\n        uint b1 = exchange.balanceOf(address(this));\n        int po = exchange.calcExpectedPayout(address(this));\n        \n        tracker.push(\n            time.getNow().toUint32(), uint(int(b0).add(po)), b1.sub(b0)\n        );\n\n        uint ts = _totalSupply;\n        int expBal = po.add(int(b1));\n        uint p = b1.sub(b0).mul(fractionBase).div(uint(expBal));\n\n        uint b = 1e3;\n        uint v = ts > 0 ?\n            ts.mul(p).mul(b).div(fractionBase.sub(p)) : \n            uint(expBal).mul(b);\n        v = MoreMath.round(v, b);\n\n        addBalance(to, v);\n        _totalSupply = ts.add(v);\n        emitTransfer(address(0), to, v);\n    }\n\n    function calcFreeBalance() public view returns (uint balance) {\n\n        uint exBal = exchange.balanceOf(address(this));\n        uint reserve = exBal.mul(reserveRatio).div(fractionBase);\n        uint sp = exBal.sub(exchange.collateral(address(this)));\n        balance = sp > reserve ? sp.sub(reserve) : 0;\n    }\n\n    function listSymbols(Operation op) override public view returns (string memory available) {\n\n        for (uint i = 0; i < optSymbols.length; i++) {\n            if (isAvailable(optSymbols[i], op)) {\n                if (bytes(available).length == 0) {\n                    available = optSymbols[i];\n                } else {\n                    available = string(abi.encodePacked(available, \"\\n\", optSymbols[i]));\n                }\n            }\n        }\n    }\n\n    function isAvailable(string memory optSymbol, Operation op) public view returns (bool b) {\n\n        b = true;\n\n        PricingParameters memory param = parameters[optSymbol];\n\n        if (param.maturity <= time.getNow()) {\n            \n            b = false;\n\n        } else if (op == Operation.BUY || op == Operation.SELL) {\n\n            if (!isInRange(optSymbol, op, param.udlFeed)) {\n                b = false;\n            } else {\n                b = getAvailableStock(optSymbol, param, op) > 0;\n            }\n        }\n    }\n\n    function queryBuy(string memory optSymbol)\n        override\n        public\n        view\n        returns (uint price, uint volume)\n    {\n        ensureValidSymbol(optSymbol);\n        PricingParameters memory param = parameters[optSymbol];\n        price = calcOptPrice(param, Operation.BUY);\n        volume = MoreMath.min(\n            calcVolume(optSymbol, param, price, Operation.BUY),\n            getAvailableStock(optSymbol, param, Operation.BUY)\n        );\n    }\n\n    function querySell(string memory optSymbol)\n        override\n        public\n        view\n        returns (uint price, uint volume)\n    {    \n        ensureValidSymbol(optSymbol);\n        PricingParameters memory param = parameters[optSymbol];\n        price = calcOptPrice(param, Operation.SELL);\n        volume = MoreMath.min(\n            calcVolume(optSymbol, param, price, Operation.SELL),\n            getAvailableStock(optSymbol, param, Operation.SELL)\n        );\n    }\n    \n    function buy(\n        string calldata optSymbol,\n        uint price,\n        uint volume,\n        address token,\n        uint maxValue,\n        uint deadline,\n        uint8 v,\n        bytes32 r,\n        bytes32 s\n    )\n        override\n        external\n        returns (address _tk)\n    {        \n        IERC20Permit(token).permit(msg.sender, address(this), maxValue, deadline, v, r, s);\n        _tk = buy(optSymbol, price, volume, token);\n    }\n\n    function buy(string memory optSymbol, uint price, uint volume, address token)\n        override\n        public\n        returns (address _tk)\n    {\n        require(volume > 0, \"invalid volume\");\n        ensureValidSymbol(optSymbol);\n\n        PricingParameters memory param = parameters[optSymbol];\n\n        require(isInRange(optSymbol, Operation.BUY, param.udlFeed), \"out of range\");\n\n        price = receivePayment(param, price, volume, token);\n\n        _tk = exchange.resolveToken(optSymbol);\n        OptionToken tk = OptionToken(_tk);\n        uint _holding = tk.balanceOf(address(this));\n\n        if (volume > _holding) {\n            writeOptions(tk, param, volume, msg.sender);\n        } else {\n            tk.transfer(msg.sender, volume);\n        }\n\n        emit Buy(_tk, msg.sender, price, volume);\n    }\n\n    function sell(\n        string memory optSymbol,\n        uint price,\n        uint volume,\n        uint deadline,\n        uint8 v,\n        bytes32 r,\n        bytes32 s\n    )\n        override\n        public\n    {\n        require(volume > 0, \"invalid volume\");\n        ensureValidSymbol(optSymbol);\n\n        PricingParameters memory param = parameters[optSymbol];\n        \n        require(isInRange(optSymbol, Operation.SELL, param.udlFeed), \"out of range\");\n\n        price = validatePrice(price, param, Operation.SELL);\n\n        address _tk = exchange.resolveToken(optSymbol);\n        OptionToken tk = OptionToken(_tk);\n        if (deadline > 0) {\n            tk.permit(msg.sender, address(this), volume, deadline, v, r, s);\n        }\n        tk.transferFrom(msg.sender, address(this), volume);\n        \n        uint _written = tk.writtenVolume(address(this));\n        if (_written > 0) {\n            uint toBurn = MoreMath.min(_written, volume);\n            tk.burn(toBurn);\n        }\n\n        uint value = price.mul(volume).div(volumeBase);\n        exchange.transferBalance(msg.sender, value);\n        \n        require(calcFreeBalance() > 0, \"pool balance too low\");\n\n        uint _holding = tk.balanceOf(address(this));\n        require(_holding <= param.sellStock, \"excessive volume\");\n\n        emit Sell(_tk, msg.sender, price, volume);\n    }\n\n    function sell(string calldata optSymbol, uint price, uint volume) override external {\n        \n        bytes32 x;\n        sell(optSymbol, price, volume, 0, 0, x, x);\n    }\n\n    function isInRange(\n        string memory optSymbol,\n        Operation op,\n        address udlFeed\n    )\n        private\n        view\n        returns(bool)\n    {\n        Range memory r = ranges[optSymbol][uint(op)];\n        if (r.start == 0 && r.end == 0) {\n            return true;\n        }\n        int udlPrice = getUdlPrice(udlFeed);\n        return uint(udlPrice) >= r.start && uint(udlPrice) <= r.end;\n    }\n\n    function getAvailableStock(\n        string memory optSymbol,\n        PricingParameters memory param,\n        Operation op\n    )\n        private\n        view\n        returns (uint)\n    {    \n        uint stock = 0;\n        uint bal = 0;\n        OptionToken tk = OptionToken(\n            exchange.resolveToken(optSymbol)\n        );\n        if (op == Operation.BUY) {\n            stock = uint(param.buyStock);\n            bal = tk.writtenVolume(address(this));\n        } else {\n            stock = uint(param.sellStock);\n            bal = tk.balanceOf(address(this));\n        }\n        return stock > bal ? stock - bal : 0;\n    }\n\n    function receivePayment(\n        PricingParameters memory param,\n        uint price,\n        uint volume,\n        address token\n    )\n        private\n        returns (uint)\n    {\n        price = validatePrice(price, param, Operation.BUY);\n        uint value = price.mul(volume).div(volumeBase);\n\n        if (token != address(exchange)) {\n            (uint tv, uint tb) = settings.getTokenRate(token);\n            value = value.mul(tv).div(tb);\n            depositTokensInExchange(token, value);\n        } else {\n            exchange.transferBalance(msg.sender, address(this), value);\n        }\n\n        return price;\n    }\n\n    function validatePrice(\n        uint price, \n        PricingParameters memory param, \n        Operation op\n    ) \n        private\n        view\n        returns (uint p) \n    {\n        p = calcOptPrice(param, op);\n        require(\n            op == Operation.BUY ? price >= p : price <= p,\n            \"insufficient price\"\n        );\n    }\n\n    function writeOptions(\n        OptionToken tk,\n        PricingParameters memory param,\n        uint volume,\n        address to\n    )\n        private\n    {\n        uint _written = tk.writtenVolume(address(this));\n        require(_written.add(volume) <= param.buyStock, \"excessive volume\");\n\n        exchange.writeOptions(\n            param.udlFeed,\n            volume,\n            param.optType,\n            param.strike,\n            param.maturity,\n            to\n        );\n        \n        require(calcFreeBalance() > 0, \"pool balance too low\");\n    }\n\n    function calcOptPrice(PricingParameters memory p, Operation op)\n        private\n        view\n        returns (uint price)\n    {\n        uint f = op == Operation.BUY ? spread.add(fractionBase) : fractionBase.sub(spread);\n        int udlPrice = getUdlPrice(p.udlFeed);\n        price = interpolator.interpolate(udlPrice, p.t0, p.t1, p.x, p.y, f);\n    }\n\n    function calcVolume(\n        string memory optSymbol,\n        PricingParameters memory p,\n        uint price,\n        Operation op\n    )\n        private\n        view\n        returns (uint volume)\n    {\n        uint fb = calcFreeBalance();\n        uint r = fractionBase.sub(reserveRatio);\n\n        uint coll = exchange.calcCollateral(\n            p.udlFeed,\n            volumeBase,\n            p.optType,\n            p.strike,\n            p.maturity\n        );\n\n        if (op == Operation.BUY) {\n\n            volume = coll <= price ? uint(-1) :\n                fb.mul(volumeBase).div(\n                    coll.sub(price.mul(r).div(fractionBase))\n                );\n\n        } else {\n\n            uint bal = exchange.balanceOf(address(this));\n\n            uint poolColl = exchange.collateral(address(this));\n\n            uint writtenColl = OptionToken(\n                exchange.resolveToken(optSymbol)\n            ).writtenVolume(address(this)).mul(coll);\n\n            poolColl = poolColl > writtenColl ? poolColl.sub(writtenColl) : 0;\n            \n            uint iv = uint(exchange.calcIntrinsicValue(\n                p.udlFeed,\n                p.optType,\n                p.strike,\n                p.maturity\n            ));\n\n            volume = price <= iv ? uint(-1) :\n                bal.sub(poolColl.mul(fractionBase).div(r)).mul(volumeBase).div(\n                    price.sub(iv)\n                );\n\n            volume = MoreMath.max(\n                volume, \n                bal.mul(volumeBase).div(price)\n            );\n\n            volume = MoreMath.min(\n                volume, \n                bal.mul(volumeBase).div(price)\n            );\n        }\n    }\n\n    function getUdlPrice(address udlFeed) private view returns (int udlPrice) {\n\n        UnderlyingFeed feed = UnderlyingFeed(udlFeed);\n        (, udlPrice) = feed.getLatestPrice();\n    }\n\n    function depositTokensInExchange(address token, uint value) private {\n        \n        ERC20 t = ERC20(token);\n        t.transferFrom(msg.sender, address(creditProvider), value);\n        creditProvider.addBalance(address(this), token, value);\n    }\n\n    function ensureValidSymbol(string memory optSymbol) private view {\n\n        require(parameters[optSymbol].udlFeed !=  address(0), \"invalid optSymbol\");\n    }\n\n    function ensureCaller() private view {\n\n        require(owner == address(0) || msg.sender == owner, \"unauthorized caller\");\n    }\n}",
  "sourcePath": "/Users/dev/Documents/coding/defioptions/DeFiOptions-contracts/contracts/pools/LinearLiquidityPool.sol",
  "compiler": {
    "name": "solc",
    "version": "0.6.0+commit.26b70077.Emscripten.clang"
  },
  "schemaVersion": "3.3.3",
  "updatedAt": "2021-05-18T22:10:32.266Z",
  "devdoc": {
    "methods": {}
  },
  "userdoc": {
    "methods": {}
  }
}