{
  "contractName": "LinearLiquidityPool",
  "abi": [
    {
      "inputs": [
        {
          "internalType": "address",
          "name": "deployer",
          "type": "address"
        }
      ],
      "stateMutability": "nonpayable",
      "type": "constructor"
    },
    {
      "anonymous": false,
      "inputs": [
        {
          "indexed": false,
          "internalType": "string",
          "name": "optSymbol",
          "type": "string"
        }
      ],
      "name": "AddSymbol",
      "type": "event"
    },
    {
      "anonymous": false,
      "inputs": [
        {
          "indexed": true,
          "internalType": "address",
          "name": "owner",
          "type": "address"
        },
        {
          "indexed": true,
          "internalType": "address",
          "name": "spender",
          "type": "address"
        },
        {
          "indexed": false,
          "internalType": "uint256",
          "name": "value",
          "type": "uint256"
        }
      ],
      "name": "Approval",
      "type": "event"
    },
    {
      "anonymous": false,
      "inputs": [
        {
          "indexed": true,
          "internalType": "address",
          "name": "token",
          "type": "address"
        },
        {
          "indexed": true,
          "internalType": "address",
          "name": "buyer",
          "type": "address"
        },
        {
          "indexed": false,
          "internalType": "uint256",
          "name": "price",
          "type": "uint256"
        },
        {
          "indexed": false,
          "internalType": "uint256",
          "name": "volume",
          "type": "uint256"
        }
      ],
      "name": "Buy",
      "type": "event"
    },
    {
      "anonymous": false,
      "inputs": [
        {
          "indexed": false,
          "internalType": "string",
          "name": "optSymbol",
          "type": "string"
        }
      ],
      "name": "RemoveSymbol",
      "type": "event"
    },
    {
      "anonymous": false,
      "inputs": [
        {
          "indexed": true,
          "internalType": "address",
          "name": "token",
          "type": "address"
        },
        {
          "indexed": true,
          "internalType": "address",
          "name": "seller",
          "type": "address"
        },
        {
          "indexed": false,
          "internalType": "uint256",
          "name": "price",
          "type": "uint256"
        },
        {
          "indexed": false,
          "internalType": "uint256",
          "name": "volume",
          "type": "uint256"
        }
      ],
      "name": "Sell",
      "type": "event"
    },
    {
      "anonymous": false,
      "inputs": [
        {
          "indexed": true,
          "internalType": "address",
          "name": "from",
          "type": "address"
        },
        {
          "indexed": true,
          "internalType": "address",
          "name": "to",
          "type": "address"
        },
        {
          "indexed": false,
          "internalType": "uint256",
          "name": "value",
          "type": "uint256"
        }
      ],
      "name": "Transfer",
      "type": "event"
    },
    {
      "inputs": [],
      "name": "DOMAIN_SEPARATOR",
      "outputs": [
        {
          "internalType": "bytes32",
          "name": "",
          "type": "bytes32"
        }
      ],
      "stateMutability": "view",
      "type": "function"
    },
    {
      "inputs": [],
      "name": "PERMIT_TYPEHASH",
      "outputs": [
        {
          "internalType": "bytes32",
          "name": "",
          "type": "bytes32"
        }
      ],
      "stateMutability": "view",
      "type": "function"
    },
    {
      "inputs": [
        {
          "internalType": "address",
          "name": "owner",
          "type": "address"
        },
        {
          "internalType": "address",
          "name": "spender",
          "type": "address"
        }
      ],
      "name": "allowance",
      "outputs": [
        {
          "internalType": "uint256",
          "name": "",
          "type": "uint256"
        }
      ],
      "stateMutability": "view",
      "type": "function"
    },
    {
      "inputs": [
        {
          "internalType": "address",
          "name": "spender",
          "type": "address"
        },
        {
          "internalType": "uint256",
          "name": "value",
          "type": "uint256"
        }
      ],
      "name": "approve",
      "outputs": [
        {
          "internalType": "bool",
          "name": "",
          "type": "bool"
        }
      ],
      "stateMutability": "nonpayable",
      "type": "function"
    },
    {
      "inputs": [
        {
          "internalType": "address",
          "name": "owner",
          "type": "address"
        }
      ],
      "name": "balanceOf",
      "outputs": [
        {
          "internalType": "uint256",
          "name": "",
          "type": "uint256"
        }
      ],
      "stateMutability": "view",
      "type": "function"
    },
    {
      "inputs": [],
      "name": "decimals",
      "outputs": [
        {
          "internalType": "uint8",
          "name": "",
          "type": "uint8"
        }
      ],
      "stateMutability": "view",
      "type": "function"
    },
    {
      "inputs": [
        {
          "internalType": "address",
          "name": "spender",
          "type": "address"
        },
        {
          "internalType": "uint256",
          "name": "subtractedValue",
          "type": "uint256"
        }
      ],
      "name": "decreaseAllowance",
      "outputs": [
        {
          "internalType": "bool",
          "name": "",
          "type": "bool"
        }
      ],
      "stateMutability": "nonpayable",
      "type": "function"
    },
    {
      "inputs": [
        {
          "internalType": "address",
          "name": "spender",
          "type": "address"
        },
        {
          "internalType": "uint256",
          "name": "addedValue",
          "type": "uint256"
        }
      ],
      "name": "increaseAllowance",
      "outputs": [
        {
          "internalType": "bool",
          "name": "",
          "type": "bool"
        }
      ],
      "stateMutability": "nonpayable",
      "type": "function"
    },
    {
      "inputs": [
        {
          "internalType": "contract Deployer",
          "name": "deployer",
          "type": "address"
        }
      ],
      "name": "initializeAndLock",
      "outputs": [],
      "stateMutability": "nonpayable",
      "type": "function"
    },
    {
      "inputs": [
        {
          "internalType": "address",
          "name": "",
          "type": "address"
        }
      ],
      "name": "nonces",
      "outputs": [
        {
          "internalType": "uint256",
          "name": "",
          "type": "uint256"
        }
      ],
      "stateMutability": "view",
      "type": "function"
    },
    {
      "inputs": [
        {
          "internalType": "address",
          "name": "owner",
          "type": "address"
        },
        {
          "internalType": "address",
          "name": "spender",
          "type": "address"
        },
        {
          "internalType": "uint256",
          "name": "value",
          "type": "uint256"
        },
        {
          "internalType": "uint256",
          "name": "deadline",
          "type": "uint256"
        },
        {
          "internalType": "uint8",
          "name": "v",
          "type": "uint8"
        },
        {
          "internalType": "bytes32",
          "name": "r",
          "type": "bytes32"
        },
        {
          "internalType": "bytes32",
          "name": "s",
          "type": "bytes32"
        }
      ],
      "name": "permit",
      "outputs": [],
      "stateMutability": "nonpayable",
      "type": "function"
    },
    {
      "inputs": [
        {
          "internalType": "address[]",
          "name": "owners",
          "type": "address[]"
        }
      ],
      "name": "redeem",
      "outputs": [
        {
          "internalType": "uint256",
          "name": "value",
          "type": "uint256"
        }
      ],
      "stateMutability": "nonpayable",
      "type": "function"
    },
    {
      "inputs": [
        {
          "internalType": "address",
          "name": "owner",
          "type": "address"
        }
      ],
      "name": "redeem",
      "outputs": [
        {
          "internalType": "uint256",
          "name": "value",
          "type": "uint256"
        }
      ],
      "stateMutability": "nonpayable",
      "type": "function"
    },
    {
      "inputs": [],
      "name": "totalSupply",
      "outputs": [
        {
          "internalType": "uint256",
          "name": "",
          "type": "uint256"
        }
      ],
      "stateMutability": "view",
      "type": "function"
    },
    {
      "inputs": [
        {
          "internalType": "address",
          "name": "to",
          "type": "address"
        },
        {
          "internalType": "uint256",
          "name": "value",
          "type": "uint256"
        }
      ],
      "name": "transfer",
      "outputs": [
        {
          "internalType": "bool",
          "name": "",
          "type": "bool"
        }
      ],
      "stateMutability": "nonpayable",
      "type": "function"
    },
    {
      "inputs": [
        {
          "internalType": "address",
          "name": "from",
          "type": "address"
        },
        {
          "internalType": "address",
          "name": "to",
          "type": "address"
        },
        {
          "internalType": "uint256",
          "name": "value",
          "type": "uint256"
        }
      ],
      "name": "transferFrom",
      "outputs": [
        {
          "internalType": "bool",
          "name": "",
          "type": "bool"
        }
      ],
      "stateMutability": "nonpayable",
      "type": "function"
    },
    {
      "inputs": [],
      "name": "name",
      "outputs": [
        {
          "internalType": "string",
          "name": "",
          "type": "string"
        }
      ],
      "stateMutability": "view",
      "type": "function"
    },
    {
      "inputs": [],
      "name": "symbol",
      "outputs": [
        {
          "internalType": "string",
          "name": "",
          "type": "string"
        }
      ],
      "stateMutability": "view",
      "type": "function"
    },
    {
      "inputs": [
        {
          "internalType": "uint256",
          "name": "_spread",
          "type": "uint256"
        },
        {
          "internalType": "uint256",
          "name": "_reserveRatio",
          "type": "uint256"
        },
        {
          "internalType": "uint256",
          "name": "_mt",
          "type": "uint256"
        }
      ],
      "name": "setParameters",
      "outputs": [],
      "stateMutability": "nonpayable",
      "type": "function"
    },
    {
      "inputs": [],
      "name": "redeemAllowed",
      "outputs": [
        {
          "internalType": "bool",
          "name": "",
          "type": "bool"
        }
      ],
      "stateMutability": "nonpayable",
      "type": "function"
    },
    {
      "inputs": [],
      "name": "maturity",
      "outputs": [
        {
          "internalType": "uint256",
          "name": "",
          "type": "uint256"
        }
      ],
      "stateMutability": "view",
      "type": "function"
    },
    {
      "inputs": [
        {
          "internalType": "uint256",
          "name": "dt",
          "type": "uint256"
        }
      ],
      "name": "yield",
      "outputs": [
        {
          "internalType": "uint256",
          "name": "y",
          "type": "uint256"
        }
      ],
      "stateMutability": "view",
      "type": "function"
    },
    {
      "inputs": [
        {
          "internalType": "string",
          "name": "optSymbol",
          "type": "string"
        },
        {
          "internalType": "address",
          "name": "udlFeed",
          "type": "address"
        },
        {
          "internalType": "uint256",
          "name": "strike",
          "type": "uint256"
        },
        {
          "internalType": "uint256",
          "name": "_mt",
          "type": "uint256"
        },
        {
          "internalType": "enum OptionsExchange.OptionType",
          "name": "optType",
          "type": "uint8"
        },
        {
          "internalType": "uint256",
          "name": "t0",
          "type": "uint256"
        },
        {
          "internalType": "uint256",
          "name": "t1",
          "type": "uint256"
        },
        {
          "internalType": "uint120[]",
          "name": "x",
          "type": "uint120[]"
        },
        {
          "internalType": "uint120[]",
          "name": "y",
          "type": "uint120[]"
        },
        {
          "internalType": "uint256",
          "name": "buyStock",
          "type": "uint256"
        },
        {
          "internalType": "uint256",
          "name": "sellStock",
          "type": "uint256"
        }
      ],
      "name": "addSymbol",
      "outputs": [],
      "stateMutability": "nonpayable",
      "type": "function"
    },
    {
      "inputs": [
        {
          "internalType": "string",
          "name": "optSymbol",
          "type": "string"
        }
      ],
      "name": "removeSymbol",
      "outputs": [],
      "stateMutability": "nonpayable",
      "type": "function"
    },
    {
      "inputs": [
        {
          "internalType": "address",
          "name": "to",
          "type": "address"
        },
        {
          "internalType": "address",
          "name": "token",
          "type": "address"
        },
        {
          "internalType": "uint256",
          "name": "value",
          "type": "uint256"
        }
      ],
      "name": "depositTokens",
      "outputs": [],
      "stateMutability": "nonpayable",
      "type": "function"
    },
    {
      "inputs": [
        {
          "internalType": "address",
          "name": "to",
          "type": "address"
        },
        {
          "internalType": "address",
          "name": "token",
          "type": "address"
        },
        {
          "internalType": "uint256",
          "name": "value",
          "type": "uint256"
        },
        {
          "internalType": "uint256",
          "name": "deadline",
          "type": "uint256"
        },
        {
          "internalType": "uint8",
          "name": "v",
          "type": "uint8"
        },
        {
          "internalType": "bytes32",
          "name": "r",
          "type": "bytes32"
        },
        {
          "internalType": "bytes32",
          "name": "s",
          "type": "bytes32"
        }
      ],
      "name": "depositTokens",
      "outputs": [],
      "stateMutability": "nonpayable",
      "type": "function"
    },
    {
      "inputs": [],
      "name": "calcFreeBalance",
      "outputs": [
        {
          "internalType": "uint256",
          "name": "balance",
          "type": "uint256"
        }
      ],
      "stateMutability": "view",
      "type": "function"
    },
    {
      "inputs": [],
      "name": "listSymbols",
      "outputs": [
        {
          "internalType": "string",
          "name": "available",
          "type": "string"
        }
      ],
      "stateMutability": "view",
      "type": "function"
    },
    {
      "inputs": [
        {
          "internalType": "string",
          "name": "optSymbol",
          "type": "string"
        }
      ],
      "name": "queryBuy",
      "outputs": [
        {
          "internalType": "uint256",
          "name": "price",
          "type": "uint256"
        },
        {
          "internalType": "uint256",
          "name": "volume",
          "type": "uint256"
        }
      ],
      "stateMutability": "view",
      "type": "function"
    },
    {
      "inputs": [
        {
          "internalType": "string",
          "name": "optSymbol",
          "type": "string"
        }
      ],
      "name": "querySell",
      "outputs": [
        {
          "internalType": "uint256",
          "name": "price",
          "type": "uint256"
        },
        {
          "internalType": "uint256",
          "name": "volume",
          "type": "uint256"
        }
      ],
      "stateMutability": "view",
      "type": "function"
    },
    {
      "inputs": [
        {
          "internalType": "string",
          "name": "optSymbol",
          "type": "string"
        },
        {
          "internalType": "uint256",
          "name": "price",
          "type": "uint256"
        },
        {
          "internalType": "uint256",
          "name": "volume",
          "type": "uint256"
        },
        {
          "internalType": "address",
          "name": "token",
          "type": "address"
        },
        {
          "internalType": "uint256",
          "name": "deadline",
          "type": "uint256"
        },
        {
          "internalType": "uint8",
          "name": "v",
          "type": "uint8"
        },
        {
          "internalType": "bytes32",
          "name": "r",
          "type": "bytes32"
        },
        {
          "internalType": "bytes32",
          "name": "s",
          "type": "bytes32"
        }
      ],
      "name": "buy",
      "outputs": [
        {
          "internalType": "address",
          "name": "_tk",
          "type": "address"
        }
      ],
      "stateMutability": "nonpayable",
      "type": "function"
    },
    {
      "inputs": [
        {
          "internalType": "string",
          "name": "optSymbol",
          "type": "string"
        },
        {
          "internalType": "uint256",
          "name": "price",
          "type": "uint256"
        },
        {
          "internalType": "uint256",
          "name": "volume",
          "type": "uint256"
        },
        {
          "internalType": "address",
          "name": "token",
          "type": "address"
        }
      ],
      "name": "buy",
      "outputs": [
        {
          "internalType": "address",
          "name": "_tk",
          "type": "address"
        }
      ],
      "stateMutability": "nonpayable",
      "type": "function"
    },
    {
      "inputs": [
        {
          "internalType": "string",
          "name": "optSymbol",
          "type": "string"
        },
        {
          "internalType": "uint256",
          "name": "price",
          "type": "uint256"
        },
        {
          "internalType": "uint256",
          "name": "volume",
          "type": "uint256"
        }
      ],
      "name": "sell",
      "outputs": [],
      "stateMutability": "nonpayable",
      "type": "function"
    },
    {
      "inputs": [
        {
          "internalType": "string",
          "name": "optSymbol",
          "type": "string"
        },
        {
          "internalType": "uint256",
          "name": "price",
          "type": "uint256"
        },
        {
          "internalType": "uint256",
          "name": "volume",
          "type": "uint256"
        },
        {
          "internalType": "uint256",
          "name": "deadline",
          "type": "uint256"
        },
        {
          "internalType": "uint8",
          "name": "v",
          "type": "uint8"
        },
        {
          "internalType": "bytes32",
          "name": "r",
          "type": "bytes32"
        },
        {
          "internalType": "bytes32",
          "name": "s",
          "type": "bytes32"
        }
      ],
      "name": "sell",
      "outputs": [],
      "stateMutability": "nonpayable",
      "type": "function"
    }
  ],
  "bytecode": "0x60806040523480156200001157600080fd5b5060405162005c3138038062005c31833981810160405260208110156200003757600080fd5b50516040805160608101909152602680825262005bb96020830139604051469080605262005bdf8239604080519182900360520182208551602096870120838301835260018452603160f81b93870193909352815180870191909152808201929092527fc89efdaa54c0f20c7adf612882df0950f5a951637e0307cdcb4c672f298b8bc6606083015260808201939093523060a0808301919091528351808303909101815260c0820180855281519186019190912060065563ac119e7b60e01b905260c481019390935250601360e48301527f4c696e6561724c6971756964697479506f6f6c00000000000000000000000000610104830152516001600160a01b0383169163ac119e7b9161012480830192600092919082900301818387803b1580156200016457600080fd5b505af115801562000179573d6000803e3d6000fd5b5050505050615a2b806200018e6000396000f3fe608060405234801561001057600080fd5b50600436106102065760003560e01c80635c1bfb321161011a57806395d89b41116100ad578063ae1879c91161007c578063ae1879c9146109c8578063c7f1978e14610b0d578063d259945d14610b15578063d505accf14610bb9578063dd62ed3e14610c0a57610206565b806395d89b41146108e5578063a457c2d7146108ed578063a9059cbb14610919578063ad56d52e1461094557610206565b80638730b205116100e95780638730b205146107595780638bd9513e146107fa5780638e424b6b1461080257806395a2251f146108bf57610206565b80635c1bfb32146106ca57806370a08231146106f0578063765287ef146107165780637ecebe001461073357610206565b806330adf81f1161019d57806336977d321161016c57806336977d32146105a1578063395093511461060f57806339dc5ef21461063b578063439fa0881461067157806345e77633146106c257610206565b806330adf81f1461054a578063313ce5671461055257806334c5d2ce146105705780633644e5151461059957610206565b806309645757116101d9578063096457571461042e57806318160ddd146104f2578063204f83f91461050c57806323b872dd1461051457610206565b806302afbd7c1461020b57806304804ee8146102fb57806306fdde0314610371578063095ea7b3146103ee575b600080fd5b6102df600480360361010081101561022257600080fd5b810190602081018135600160201b81111561023c57600080fd5b82018360208201111561024e57600080fd5b803590602001918460018302840111600160201b8311171561026f57600080fd5b91908080601f016020809104026020016040519081016040528093929190818152602001838380828437600092019190915250929550508235935050506020810135906001600160a01b036040820135169060608101359060ff6080820135169060a08101359060c00135610c38565b604080516001600160a01b039092168252519081900360200190f35b61036f6004803603606081101561031157600080fd5b810190602081018135600160201b81111561032b57600080fd5b82018360208201111561033d57600080fd5b803590602001918460018302840111600160201b8311171561035e57600080fd5b9193509150803590602001356110f9565b005b610379611147565b6040805160208082528351818301528351919283929083019185019080838360005b838110156103b357818101518382015260200161039b565b50505050905090810190601f1680156103e05780820380516001836020036101000a031916815260200191505b509250505060405180910390f35b61041a6004803603604081101561040457600080fd5b506001600160a01b038135169060200135611168565b604080519115158252519081900360200190f35b61036f600480360360e081101561044457600080fd5b810190602081018135600160201b81111561045e57600080fd5b82018360208201111561047057600080fd5b803590602001918460018302840111600160201b8311171561049157600080fd5b91908080601f0160208091040260200160405190810160405280939291908181526020018383808284376000920191909152509295505082359350505060208101359060408101359060ff6060820135169060808101359060a0013561117e565b6104fa6118da565b60408051918252519081900360200190f35b6104fa6118e0565b61041a6004803603606081101561052a57600080fd5b506001600160a01b038135811691602081013590911690604001356118e6565b6104fa6119c2565b61055a6119e6565b6040805160ff9092168252519081900360200190f35b61036f6004803603606081101561058657600080fd5b50803590602081013590604001356119eb565b6104fa611a01565b61036f600480360360208110156105b757600080fd5b810190602081018135600160201b8111156105d157600080fd5b8201836020820111156105e357600080fd5b803590602001918460018302840111600160201b8311171561060457600080fd5b509092509050611a07565b61041a6004803603604081101561062557600080fd5b506001600160a01b038135169060200135611c2d565b61036f6004803603606081101561065157600080fd5b506001600160a01b03813581169160208101359091169060400135611cb0565b61036f600480360360e081101561068757600080fd5b506001600160a01b03813581169160208101359091169060408101359060608101359060ff6080820135169060a08101359060c00135611fe6565b610379612084565b61036f600480360360208110156106e057600080fd5b50356001600160a01b031661234f565b6104fa6004803603602081101561070657600080fd5b50356001600160a01b03166123b6565b6104fa6004803603602081101561072c57600080fd5b50356123d5565b6104fa6004803603602081101561074957600080fd5b50356001600160a01b03166124ee565b6104fa6004803603602081101561076f57600080fd5b810190602081018135600160201b81111561078957600080fd5b82018360208201111561079b57600080fd5b803590602001918460208302840111600160201b831117156107bc57600080fd5b919080806020026020016040519081016040528093929190818152602001838360200280828437600092019190915250929550612500945050505050565b6104fa612688565b6108a66004803603602081101561081857600080fd5b810190602081018135600160201b81111561083257600080fd5b82018360208201111561084457600080fd5b803590602001918460018302840111600160201b8311171561086557600080fd5b91908080601f0160208091040260200160405190810160405280939291908181526020018383808284376000920191909152509295506127d4945050505050565b6040805192835260208301919091528051918290030190f35b6104fa600480360360208110156108d557600080fd5b50356001600160a01b0316612b93565b610379612bf0565b61041a6004803603604081101561090357600080fd5b506001600160a01b038135169060200135612c0f565b61041a6004803603604081101561092f57600080fd5b506001600160a01b038135169060200135612c58565b6102df6004803603608081101561095b57600080fd5b810190602081018135600160201b81111561097557600080fd5b82018360208201111561098757600080fd5b803590602001918460018302840111600160201b831117156109a857600080fd5b9193509150803590602081013590604001356001600160a01b0316612ca1565b61036f60048036036101608110156109df57600080fd5b810190602081018135600160201b8111156109f957600080fd5b820183602082011115610a0b57600080fd5b803590602001918460018302840111600160201b83111715610a2c57600080fd5b919390926001600160a01b038335169260208101359260408201359260ff6060840135169260808101359260a082013592909160e081019060c00135600160201b811115610a7957600080fd5b820183602082011115610a8b57600080fd5b803590602001918460208302840111600160201b83111715610aac57600080fd5b919390929091602081019035600160201b811115610ac957600080fd5b820183602082011115610adb57600080fd5b803590602001918460208302840111600160201b83111715610afc57600080fd5b919350915080359060200135612cf5565b61041a61313b565b6108a660048036036020811015610b2b57600080fd5b810190602081018135600160201b811115610b4557600080fd5b820183602082011115610b5757600080fd5b803590602001918460018302840111600160201b83111715610b7857600080fd5b91908080601f0160208091040260200160405190810160405280939291908181526020018383808284376000920191909152509295506131b7945050505050565b61036f600480360360e0811015610bcf57600080fd5b506001600160a01b03813581169160208101359091169060408101359060608101359060ff6080820135169060a08101359060c00135613568565b6104fa60048036036040811015610c2057600080fd5b506001600160a01b0381358116916020013516613776565b6000808711610c7f576040805162461bcd60e51b815260206004820152600e60248201526d696e76616c696420766f6c756d6560901b604482015290519081900360640190fd5b610c88896137a1565b610c90615650565b600c8a6040518082805190602001908083835b60208310610cc25780518252601f199092019160209182019101610ca3565b51815160209384036101000a6000190180199092169116179052920194855250604080519485900382018520610140860190915280546001600160a01b03811686529093509084019150600160a01b900460ff166001811115610d2157fe5b6001811115610d2c57fe5b815260018201546001600160781b03808216602080850191909152600160781b80840463ffffffff908116604080880191909152600160981b860482166060880152600160b81b909504166080860152600286015480841660a08701520490911660c084015260038401805483518184028101840190945280845260e0909401939091830182828015610e1057602002820191906000526020600020906000905b82829054906101000a90046001600160781b03166001600160781b0316815260200190600f0190602082600e01049283019260010382029150808411610dcd5790505b5050505050815260200160048201805480602002602001604051908101604052809291908181526020018280548015610e9a57602002820191906000526020600020906000905b82829054906101000a90046001600160781b03166001600160781b0316815260200190600f0190602082600e01049283019260010382029150808411610e575790505b5050505050815250509050610eb5818a8a8a8a8a8a8a613870565b600854604051638c922b6360e01b81526020600482018181528e5160248401528e51949d506001600160a01b0390931693638c922b63938f93909283926044909201919085019080838360005b83811015610f1a578181015183820152602001610f02565b50505050905090810190601f168015610f475780820380516001836020036101000a031916815260200191505b509250505060206040518083038186803b158015610f6457600080fd5b505afa158015610f78573d6000803e3d6000fd5b505050506040513d6020811015610f8e57600080fd5b5051604080516370a0823160e01b8152306004820152905191935083916000916001600160a01b038416916370a0823191602480820192602092909190829003018186803b158015610fdf57600080fd5b505afa158015610ff3573d6000803e3d6000fd5b505050506040513d602081101561100957600080fd5b50519050808a11156110265761102182848c33613acb565b6110a2565b6040805163a9059cbb60e01b8152336004820152602481018c905290516001600160a01b0384169163a9059cbb9160448083019260209291908290030181600087803b15801561107557600080fd5b505af1158015611089573d6000803e3d6000fd5b505050506040513d602081101561109f57600080fd5b50505b604080518c8152602081018c9052815133926001600160a01b038816927f89f5adc174562e07c9c9b1cae7109bbecb21cf9d1b2847e550042b8653c54a0e929081900390910190a350505098975050505050505050565b600061114085858080601f0160208091040260200160405190810160405280939291908181526020018383808284376000920182905250889350879250905080868061117e565b5050505050565b606060405180606001604052806026815260200161591d6026913990505b90565b6000611175338484613cdd565b90505b92915050565b600085116111c4576040805162461bcd60e51b815260206004820152600e60248201526d696e76616c696420766f6c756d6560901b604482015290519081900360640190fd5b6111cd876137a1565b6111d5615650565b600c886040518082805190602001908083835b602083106112075780518252601f1990920191602091820191016111e8565b51815160209384036101000a6000190180199092169116179052920194855250604080519485900382018520610140860190915280546001600160a01b03811686529093509084019150600160a01b900460ff16600181111561126657fe5b600181111561127157fe5b815260018201546001600160781b03808216602080850191909152600160781b80840463ffffffff908116604080880191909152600160981b860482166060880152600160b81b909504166080860152600286015480841660a08701520490911660c084015260038401805483518184028101840190945280845260e090940193909183018282801561135557602002820191906000526020600020906000905b82829054906101000a90046001600160781b03166001600160781b0316815260200190600f0190602082600e010492830192600103820291508084116113125790505b50505050508152602001600482018054806020026020016040519081016040528092919081815260200182805480156113df57602002820191906000526020600020906000905b82829054906101000a90046001600160781b03166001600160781b0316815260200190600f0190602082600e0104928301926001038202915080841161139c5790505b50505050508152505090506113f687826001613d25565b600854604051638c922b6360e01b81526020600482018181528c5160248401528c51949b506000946001600160a01b0390941693638c922b63938e938392604490920191908501908083838b5b8381101561145b578181015183820152602001611443565b50505050905090810190601f1680156114885780820380516001836020036101000a031916815260200191505b509250505060206040518083038186803b1580156114a557600080fd5b505afa1580156114b9573d6000803e3d6000fd5b505050506040513d60208110156114cf57600080fd5b50519050808615611565576040805163d505accf60e01b8152336004820152306024820152604481018a90526064810189905260ff8816608482015260a4810187905260c4810186905290516001600160a01b0383169163d505accf9160e480830192600092919082900301818387803b15801561154c57600080fd5b505af1158015611560573d6000803e3d6000fd5b505050505b604080516323b872dd60e01b8152336004820152306024820152604481018a905290516001600160a01b038316916323b872dd9160648083019260209291908290030181600087803b1580156115ba57600080fd5b505af11580156115ce573d6000803e3d6000fd5b505050506040513d60208110156115e457600080fd5b505060155460009061160c906116008c8c63ffffffff613da516565b9063ffffffff613dfe16565b600854604080516356a6d9ef60e01b81523360048201526024810184905290519293506001600160a01b03909116916356a6d9ef9160448082019260009290919082900301818387803b15801561166257600080fd5b505af1158015611676573d6000803e3d6000fd5b505050506000611684612688565b116116c9576040805162461bcd60e51b815260206004820152601060248201526f65786365737369766520766f6c756d6560801b604482015290519081900360640190fd5b6040805163d0acc58f60e01b815230600482015290516000916001600160a01b0385169163d0acc58f91602480820192602092909190829003018186803b15801561171357600080fd5b505afa158015611727573d6000803e3d6000fd5b505050506040513d602081101561173d57600080fd5b5051905080156117b5576000611753828c613e40565b9050836001600160a01b03166342966c68826040518263ffffffff1660e01b815260040180828152602001915050600060405180830381600087803b15801561179b57600080fd5b505af11580156117af573d6000803e3d6000fd5b50505050505b604080516370a0823160e01b815230600482015290516000916001600160a01b038616916370a0823191602480820192602092909190829003018186803b1580156117ff57600080fd5b505afa158015611813573d6000803e3d6000fd5b505050506040513d602081101561182957600080fd5b505160e08701519091506001600160781b0316811115611883576040805162461bcd60e51b815260206004820152601060248201526f65786365737369766520766f6c756d6560801b604482015290519081900360640190fd5b604080518d8152602081018d9052815133926001600160a01b038916927fa082022e93cfcd9f1da5f9236718053910f7e840da080c789c7845698dc032ff929081900390910190a350505050505050505050505050565b60075490565b60105490565b60006118f1846123b6565b8211156118fd57600080fd5b6001600160a01b038416600090815260046020908152604080832033845290915290205482111561192d57600080fd5b6001600160a01b03831661194057600080fd5b61194a8483613e56565b6119548383613e8f565b6001600160a01b0384166000908152600460209081526040808320338452909152902054611988908363ffffffff613ea816565b6001600160a01b03851660009081526004602090815260408083203384529091529020556119b7848484613eea565b5060015b9392505050565b7f6e71edae12b1b97f4d1f60370fef10105fa2faae0126114a169c64845d6126c981565b601290565b6119f3613f3a565b600e92909255600f55601055565b60065481565b611a0f613f3a565b611a17615650565b80600c84846040518083838082843791909101948552505060405160209381900384019020845181546001600160a01b0319166001600160a01b039091161780825593850151909390925083915060ff60a01b1916600160a01b836001811115611a7d57fe5b021790555060408201516001820180546060850151608086015160a08701516effffffffffffffffffffffffffffff199384166001600160781b039687161763ffffffff60781b1916600160781b63ffffffff94851681029190911763ffffffff60981b1916600160981b938516939093029290921763ffffffff60b81b1916600160b81b93909116929092029190911790925560c085015160028501805460e08801519316918516919091176effffffffffffffffffffffffffffff60781b1916919093169091021790556101008201518051611b659160038401916020909101906156a7565b506101208201518051611b829160048401916020909101906156a7565b50905050611bc7601184848080601f016020809104026020016040519081016040528093929190818152602001838380828437600092019190915250613faf92505050565b507f4b62493f4f8ba00316d1e11c870ddc857bd37e50aafe15a7ad4d3f6ac1c6d34d838360405180806020018281038252848482818152602001925080828437600083820152604051601f909101601f19169092018290039550909350505050a1505050565b60006001600160a01b038316611c4257600080fd5b3360009081526004602090815260408083206001600160a01b0387168452909152902054611c76908363ffffffff6140de16565b3360008181526004602090815260408083206001600160a01b03891684529091529020829055611ca7918590614138565b50600192915050565b600854604080516370a0823160e01b815230600482015290516000926001600160a01b0316916370a08231916024808301926020929190829003018186803b158015611cfb57600080fd5b505afa158015611d0f573d6000803e3d6000fd5b505050506040513d6020811015611d2557600080fd5b50519050611d338383614188565b600854604080516370a0823160e01b815230600482015290516000926001600160a01b0316916370a08231916024808301926020929190829003018186803b158015611d7e57600080fd5b505afa158015611d92573d6000803e3d6000fd5b505050506040513d6020811015611da857600080fd5b50516008546040805162b08c1d60e21b815230600482015290519293506000926001600160a01b03909216916302c2307491602480820192602092909190829003018186803b158015611dfa57600080fd5b505afa158015611e0e573d6000803e3d6000fd5b505050506040513d6020811015611e2457600080fd5b50516040805160608101808352600954630bbe4fd560e41b909152915192935060129290918291611ead916001600160a01b03169063bbe4fd5090606480860191602091818803018186803b158015611e7c57600080fd5b505afa158015611e90573d6000803e3d6000fd5b505050506040513d6020811015611ea657600080fd5b505161427f565b63ffffffff168152602001611ecb84876142c390919063ffffffff16565b8152602090810187905282546001808201855560009485528285208451600390930201805463ffffffff191663ffffffff93841617815592840151908301556040909201516002909101556007549190611f2990849086906142c316565b90506000611f5682611600601654611f4a8a8a613ea890919063ffffffff16565b9063ffffffff613da516565b90506103e8600084611f7757611f72848363ffffffff613da516565b611fa2565b601654611fa290611f8e908563ffffffff613ea816565b61160084611f4a898863ffffffff613da516565b9050611fae8183614328565b9050611fba8b82613e8f565b611fca858263ffffffff6140de16565b600755611fd960008c83613eea565b5050505050505050505050565b6040805163d505accf60e01b8152336004820152306024820152604481018790526064810186905260ff8516608482015260a4810184905260c4810183905290516001600160a01b0388169163d505accf9160e480830192600092919082900301818387803b15801561205857600080fd5b505af115801561206c573d6000803e3d6000fd5b5050505061207b878787611cb0565b50505050505050565b606060005b60115481101561234b57600960009054906101000a90046001600160a01b03166001600160a01b031663bbe4fd506040518163ffffffff1660e01b815260040160206040518083038186803b1580156120e157600080fd5b505afa1580156120f5573d6000803e3d6000fd5b505050506040513d602081101561210b57600080fd5b505160118054600c91908490811061211f57fe5b9060005260206000200160405180828054600181600116156101000203166002900480156121845780601f10612162576101008083540402835291820191612184565b820191906000526020600020905b815481529060010190602001808311612170575b505092835250506040519081900360200190206001015463ffffffff600160781b90910416111561234357815161225c57601181815481106121c257fe5b600091825260209182902001805460408051601f60026000196101006001871615020190941693909304928301859004850281018501909152818152928301828280156122505780601f1061222557610100808354040283529160200191612250565b820191906000526020600020905b81548152906001019060200180831161223357829003601f168201915b50505050509150612343565b816011828154811061226a57fe5b906000526020600020016040516020018083805190602001908083835b602083106122a65780518252601f199092019160209182019101612287565b6001836020036101000a03801982511681845116808217855250505050505090500180600560f91b8152506001018280546001816001161561010002031660029004801561232b5780601f1061230957610100808354040283529182019161232b565b820191906000526020600020905b815481529060010190602001808311612317575b50509250505060405160208183030381529060405291505b600101612089565b5090565b600254600160a01b900460ff1615612397576040805162461bcd60e51b81526020600482015260066024820152651b1bd8dad95960d21b604482015290519081900360640190fd5b6123a08161436b565b506002805460ff60a01b1916600160a01b179055565b6001600160a01b0381166000908152600360205260409020545b919050565b601654601254156123d05760095460408051630bbe4fd560e41b815290516000926001600160a01b03169163bbe4fd50916004808301926020929190829003018186803b15801561242557600080fd5b505afa158015612439573d6000803e3d6000fd5b505050506040513d602081101561244f57600080fd5b505190506000612465828563ffffffff613ea816565b905060005b6012548110156124ac57816012828154811061248257fe5b600091825260209091206003909102015463ffffffff1611156124a4576124ac565b60010161246a565b60125481116124e65780156124de576124db6016546116006124ce848661473a565b879063ffffffff613da516565b93505b6001016124ac565b505050919050565b60056020526000908152604090205481565b600061250a61313b565b61255b576040805162461bcd60e51b815260206004820152601360248201527f72656465656d64206e6f7420616c6c6f77656400000000000000000000000000604482015290519081900360640190fd5b600854604080516370a0823160e01b815230600482015290516000926001600160a01b0316916370a08231916024808301926020929190829003018186803b1580156125a657600080fd5b505afa1580156125ba573d6000803e3d6000fd5b505050506040513d60208110156125d057600080fd5b505160075490915081908060005b865181101561267b5760006001600160a01b03168782815181106125fe57fe5b60200260200101516001600160a01b0316146126735760008061263587868b868151811061262857fe5b6020026020010151614a0f565b909250905061264a888263ffffffff6140de16565b975061265c868263ffffffff613ea816565b955061266e848363ffffffff613ea816565b935050505b6001016125de565b5060075550919392505050565b600854604080516370a0823160e01b8152306004820152905160009283926001600160a01b03909116916370a0823191602480820192602092909190829003018186803b1580156126d857600080fd5b505afa1580156126ec573d6000803e3d6000fd5b505050506040513d602081101561270257600080fd5b5051601654600f549192506127229161160090849063ffffffff613da516565b600854604080516352fee2ef60e11b815230600482015290519294506000926127ad926001600160a01b03169163a5fdc5de916024808301926020929190829003018186803b15801561277457600080fd5b505afa158015612788573d6000803e3d6000fd5b505050506040513d602081101561279e57600080fd5b5051839063ffffffff613ea816565b90508281116127bd5760006127cd565b6127cd818463ffffffff613ea816565b9250505090565b6000806127e0836137a1565b6127e8615650565b600c846040518082805190602001908083835b6020831061281a5780518252601f1990920191602091820191016127fb565b51815160209384036101000a6000190180199092169116179052920194855250604080519485900382018520610140860190915280546001600160a01b03811686529093509084019150600160a01b900460ff16600181111561287957fe5b600181111561288457fe5b815260018201546001600160781b03808216602080850191909152600160781b80840463ffffffff908116604080880191909152600160981b860482166060880152600160b81b909504166080860152600286015480841660a08701520490911660c084015260038401805483518184028101840190945280845260e090940193909183018282801561296857602002820191906000526020600020906000905b82829054906101000a90046001600160781b03166001600160781b0316815260200190600f0190602082600e010492830192600103820291508084116129255790505b50505050508152602001600482018054806020026020016040519081016040528092919081815260200182805480156129f257602002820191906000526020600020906000905b82829054906101000a90046001600160781b03166001600160781b0316815260200190600f0190602082600e010492830192600103820291508084116129af5790505b5050505050815250509050612a08816001614ae1565b600854604051638c922b6360e01b81526020600482018181528851602484015288519497506000946001600160a01b0390941693638c922b63938a938392604490920191908501908083838b5b83811015612a6d578181015183820152602001612a55565b50505050905090810190601f168015612a9a5780820380516001836020036101000a031916815260200191505b509250505060206040518083038186803b158015612ab757600080fd5b505afa158015612acb573d6000803e3d6000fd5b505050506040513d6020811015612ae157600080fd5b50519050612b8a612af483866001614cec565b604080516370a0823160e01b81523060048201529051612b85916001600160a01b038616916370a0823191602480820192602092909190829003018186803b158015612b3f57600080fd5b505afa158015612b53573d6000803e3d6000fd5b505050506040513d6020811015612b6957600080fd5b505160e08601516001600160781b03169063ffffffff613ea816565b613e40565b92505050915091565b60408051600180825281830190925260009160609190602080830190803883390190505090508281600081518110612bc757fe5b60200260200101906001600160a01b031690816001600160a01b0316815250506119bb81612500565b6040805180820190915260058152644c4c50544b60d81b602082015290565b60006001600160a01b038316612c2457600080fd5b3360009081526004602090815260408083206001600160a01b0387168452909152902054611c76908363ffffffff613ea816565b6000612c63336123b6565b821115612c6f57600080fd5b6001600160a01b038316612c8257600080fd5b612c8c3383613e56565b612c968383613e8f565b611ca7338484613eea565b600080612cea87878080601f01602080910402602001604051908101604052809392919081815260200183838082843760009201829052508a9350899250889150808780610c38565b979650505050505050565b612cfd613f3a565b6010548a10612d53576040805162461bcd60e51b815260206004820152601060248201527f696e76616c6964206d6174757269747900000000000000000000000000000000604482015290519081900360640190fd5b8415801590612d71575082612d6f86600263ffffffff613da516565b145b612dc2576040805162461bcd60e51b815260206004820152601760248201527f696e76616c69642070726963696e672073757266616365000000000000000000604482015290519081900360640190fd5b600c8e8e60405180838380828437919091019485525050604051928390036020019092206003015415159150612e3390505760118054600181018255600091909152612e31907f31ecc21a745e3968a04e9570e4425bc18fa8019c68028196b546d1669c200c68018f8f61575b565b505b6040518061014001604052808d6001600160a01b031681526020018a6001811115612e5a57fe5b8152602001612e688d614fc7565b6001600160781b03168152602001612e7f8c61427f565b63ffffffff168152602001612e938a61427f565b63ffffffff168152602001612ea78961427f565b63ffffffff168152602001612ebb84614fc7565b6001600160781b03168152602001612ed283614fc7565b6001600160781b031681526020018787808060200260200160405190810160405280939291908181526020018383602002808284376000920191909152505050908252506040805160208781028281018201909352878252928301929091889188918291850190849080828437600081840152601f19601f82011690508083019250505050505050815250600c8f8f6040518083838082843791909101948552505060405160209381900384019020845181546001600160a01b0319166001600160a01b039091161780825593850151909390925083915060ff60a01b1916600160a01b836001811115612fc257fe5b021790555060408201516001820180546060850151608086015160a08701516effffffffffffffffffffffffffffff199384166001600160781b039687161763ffffffff60781b1916600160781b63ffffffff94851681029190911763ffffffff60981b1916600160981b938516939093029290921763ffffffff60b81b1916600160b81b93909116929092029190911790925560c085015160028501805460e08801519316918516919091176effffffffffffffffffffffffffffff60781b19169190931690910217905561010082015180516130aa9160038401916020909101906156a7565b5061012082015180516130c79160048401916020909101906156a7565b509050507f27136bc3b80a2a48083d0f3dd8acaf97309ab58abf6408d4ab39af25b6b4168e8e8e60405180806020018281038252848482818152602001925080828437600083820152604051601f909101601f19169092018290039550909350505050a15050505050505050505050505050565b60105460095460408051630bbe4fd560e41b81529051600093926001600160a01b03169163bbe4fd50916004808301926020929190829003018186803b15801561318457600080fd5b505afa158015613198573d6000803e3d6000fd5b505050506040513d60208110156131ae57600080fd5b50511015905090565b6000806131c3836137a1565b6131cb615650565b600c846040518082805190602001908083835b602083106131fd5780518252601f1990920191602091820191016131de565b51815160209384036101000a6000190180199092169116179052920194855250604080519485900382018520610140860190915280546001600160a01b03811686529093509084019150600160a01b900460ff16600181111561325c57fe5b600181111561326757fe5b815260018201546001600160781b03808216602080850191909152600160781b80840463ffffffff908116604080880191909152600160981b860482166060880152600160b81b909504166080860152600286015480841660a08701520490911660c084015260038401805483518184028101840190945280845260e090940193909183018282801561334b57602002820191906000526020600020906000905b82829054906101000a90046001600160781b03166001600160781b0316815260200190600f0190602082600e010492830192600103820291508084116133085790505b50505050508152602001600482018054806020026020016040519081016040528092919081815260200182805480156133d557602002820191906000526020600020906000905b82829054906101000a90046001600160781b03166001600160781b0316815260200190600f0190602082600e010492830192600103820291508084116133925790505b50505050508152505090506133eb816000614ae1565b600854604051638c922b6360e01b81526020600482018181528851602484015288519497506000946001600160a01b0390941693638c922b63938a938392604490920191908501908083838b5b83811015613450578181015183820152602001613438565b50505050905090810190601f16801561347d5780820380516001836020036101000a031916815260200191505b509250505060206040518083038186803b15801561349a57600080fd5b505afa1580156134ae573d6000803e3d6000fd5b505050506040513d60208110156134c457600080fd5b50519050612b8a6134d783866000614cec565b6040805163d0acc58f60e01b81523060048201529051612b85916001600160a01b0386169163d0acc58f91602480820192602092909190829003018186803b15801561352257600080fd5b505afa158015613536573d6000803e3d6000fd5b505050506040513d602081101561354c57600080fd5b505160c08601516001600160781b03169063ffffffff613ea816565b428410156135bd576040805162461bcd60e51b815260206004820152600e60248201527f7065726d69742065787069726564000000000000000000000000000000000000604482015290519081900360640190fd5b6006546001600160a01b0380891660008181526005602090815260408083208054600180820190925582517f6e71edae12b1b97f4d1f60370fef10105fa2faae0126114a169c64845d6126c98186015280840196909652958d166060860152608085018c905260a085019590955260c08085018b90528151808603909101815260e08501825280519083012061190160f01b6101008601526101028501969096526101228085019690965280518085039096018652610142840180825286519683019690962095839052610162840180825286905260ff89166101828501526101a284018890526101c28401879052519193926101e280820193601f1981019281900390910190855afa1580156136d8573d6000803e3d6000fd5b5050604051601f1901519150506001600160a01b0381161580159061370e5750886001600160a01b0316816001600160a01b0316145b61375f576040805162461bcd60e51b815260206004820152601160248201527f696e76616c6964207369676e6174757265000000000000000000000000000000604482015290519081900360640190fd5b61376a898989613cdd565b50505050505050505050565b6001600160a01b03918216600090815260046020908152604080832093909416825291909152205490565b60006001600160a01b0316600c826040518082805190602001908083835b602083106137de5780518252601f1990920191602091820191016137bf565b51815160209384036101000a60001901801990921691161790529201948552506040519384900301909220546001600160a01b03169290921415915061386d9050576040805162461bcd60e51b815260206004820152601160248201527f696e76616c6964206f707453796d626f6c000000000000000000000000000000604482015290519081900360640190fd5b50565b60008061388c6015546116008a8c613da590919063ffffffff16565b905061389a898b6000613d25565b985060006138b76015546116008b8d613da590919063ffffffff16565b6008549091506001600160a01b03898116911614613a2457600a5460408051632a6f500560e11b81526001600160a01b038b81166004830152825160009485949216926354dea00a926024808301939192829003018186803b15801561391c57600080fd5b505afa158015613930573d6000803e3d6000fd5b505050506040513d604081101561394657600080fd5b508051602090910151909250905088156139fd5761396e81611600868563ffffffff613da516565b6040805163d505accf60e01b815233600482015230602482015260448101839052606481018c905260ff8b16608482015260a481018a905260c4810189905290519195506001600160a01b038c169163d505accf9160e48082019260009290919082900301818387803b1580156139e457600080fd5b505af11580156139f8573d6000803e3d6000fd5b505050505b613a1181611600858563ffffffff613da516565b9250613a1d8a84614188565b5050613abc565b60085460408051630549990760e11b81523360048201523060248201526044810184905260648101859052608481018a905260ff891660a482015260c4810188905260e4810187905290516001600160a01b0390921691630a93320e916101048082019260009290919082900301818387803b158015613aa357600080fd5b505af1158015613ab7573d6000803e3d6000fd5b505050505b50979998505050505050505050565b6040805163d0acc58f60e01b815230600482015290516000916001600160a01b0387169163d0acc58f91602480820192602092909190829003018186803b158015613b1557600080fd5b505afa158015613b29573d6000803e3d6000fd5b505050506040513d6020811015613b3f57600080fd5b505160c08501519091506001600160781b0316613b62828563ffffffff6140de16565b1115613ba8576040805162461bcd60e51b815260206004820152601060248201526f65786365737369766520766f6c756d6560801b604482015290519081900360640190fd5b600854845160208601516040808801516060890151915163169a737360e31b81526001600160a01b0385811660048301908152602483018b905296169563b4d39b9895948a9490939290918a91604401856001811115613c0457fe5b60ff168152602001846001600160781b031681526020018363ffffffff168152602001826001600160a01b03166001600160a01b031681526020019650505050505050602060405180830381600087803b158015613c6157600080fd5b505af1158015613c75573d6000803e3d6000fd5b505050506040513d6020811015613c8b57600080fd5b5060009050613c98612688565b11611140576040805162461bcd60e51b815260206004820152601060248201526f65786365737369766520766f6c756d6560801b604482015290519081900360640190fd5b60006001600160a01b038316613cf257600080fd5b6001600160a01b0380851660009081526004602090815260408083209387168352929052208290556119b7848484614138565b6000613d318383614ae1565b90506000826001811115613d4157fe5b14613d4f5780841115613d54565b808410155b6119bb576040805162461bcd60e51b815260206004820152601260248201527f696e73756666696369656e742070726963650000000000000000000000000000604482015290519081900360640190fd5b600082613db457506000611178565b82820282848281613dc157fe5b04146111755760405162461bcd60e51b81526004018080602001828103825260218152602001806159646021913960400191505060405180910390fd5b600061117583836040518060400160405280601a81526020017f536166654d6174683a206469766973696f6e206279207a65726f00000000000081525061500b565b6000818310613e4f5781611175565b5090919050565b613e6f81613e63846123b6565b9063ffffffff613ea816565b6001600160a01b0390921660009081526003602052604090209190915550565b613e6f81613e9c846123b6565b9063ffffffff6140de16565b600061117583836040518060400160405280601e81526020017f536166654d6174683a207375627472616374696f6e206f766572666c6f7700008152506150ad565b816001600160a01b0316836001600160a01b03167fddf252ad1be2c89b69c2b068fc378daa952ba7f163c4a11628f55a4df523b3ef836040518082815260200191505060405180910390a3505050565b600d546001600160a01b03161580613f5c5750600d546001600160a01b031633145b613fad576040805162461bcd60e51b815260206004820152601360248201527f756e617574686f72697a65642063616c6c657200000000000000000000000000604482015290519081900360640190fd5b565b6000805b83548110156140d4578280519060200120848281548110613fd057fe5b9060005260206000200160405180828054600181600116156101000203166002900480156140355780601f10614013576101008083540402835291820191614035565b820191906000526020600020905b815481529060010190602001808311614021575b5050915050604051809103902014156140cc5783548490600019810190811061405a57fe5b9060005260206000200184828154811061407057fe5b9060005260206000200190805460018160011615610100020316600290046140999291906157d5565b50838054806140a457fe5b6001900381819060005260206000200160006140c0919061584a565b90556001915050611178565b600101613fb3565b5060009392505050565b600082820183811015611175576040805162461bcd60e51b815260206004820152601b60248201527f536166654d6174683a206164646974696f6e206f766572666c6f770000000000604482015290519081900360640190fd5b816001600160a01b0316836001600160a01b03167f8c5be1e5ebec7d5bd14f71427d1e84f3dd0314c0f7b2291e5b200ac8c7c3b925836040518082815260200191505060405180910390a3505050565b600b54604080516323b872dd60e01b81523360048201526001600160a01b03928316602482015260448101849052905184928316916323b872dd9160648083019260209291908290030181600087803b1580156141e457600080fd5b505af11580156141f8573d6000803e3d6000fd5b505050506040513d602081101561420e57600080fd5b5050600b54604080516334ef2a2160e21b81523060048201526001600160a01b038681166024830152604482018690529151919092169163d3bca88491606480830192600092919082900301818387803b15801561426b57600080fd5b505af115801561207b573d6000803e3d6000fd5b6000600160201b821061234b5760405162461bcd60e51b81526004018080602001828103825260268152602001806159ac6026913960400191505060405180910390fd5b60008282018183128015906142d85750838112155b806142ed57506000831280156142ed57508381125b6111755760405162461bcd60e51b81526004018080602001828103825260218152602001806158fc6021913960400191505060405180910390fd5b600061117561433e83600263ffffffff613dfe16565b83858161434757fe5b061015614355576000614358565b60015b60ff16613e9c858563ffffffff613dfe16565b806001600160a01b031663893d20e86040518163ffffffff1660e01b815260040160206040518083038186803b1580156143a457600080fd5b505afa1580156143b8573d6000803e3d6000fd5b505050506040513d60208110156143ce57600080fd5b5051600d80546001600160a01b0319166001600160a01b0392831617905560408051630110ceef60e21b8152602060048201819052600c60248301526b2a34b6b2a83937bb34b232b960a11b60448301529151928416926304433bbc92606480840193919291829003018186803b15801561444857600080fd5b505afa15801561445c573d6000803e3d6000fd5b505050506040513d602081101561447257600080fd5b5051600980546001600160a01b0319166001600160a01b0392831617905560408051630110ceef60e21b8152602060048201819052600f60248301527f4f7074696f6e7345786368616e6765000000000000000000000000000000000060448301529151928416926304433bbc92606480840193919291829003018186803b1580156144fd57600080fd5b505afa158015614511573d6000803e3d6000fd5b505050506040513d602081101561452757600080fd5b5051600880546001600160a01b0319166001600160a01b0392831617905560408051630110ceef60e21b8152602060048201819052601060248301527f50726f746f636f6c53657474696e67730000000000000000000000000000000060448301529151928416926304433bbc92606480840193919291829003018186803b1580156145b257600080fd5b505afa1580156145c6573d6000803e3d6000fd5b505050506040513d60208110156145dc57600080fd5b5051600a80546001600160a01b0319166001600160a01b0392831617905560408051630110ceef60e21b8152602060048201819052600e60248301527f43726564697450726f766964657200000000000000000000000000000000000060448301529151928416926304433bbc92606480840193919291829003018186803b15801561466757600080fd5b505afa15801561467b573d6000803e3d6000fd5b505050506040513d602081101561469157600080fd5b5051600b80546001600160a01b0319166001600160a01b03928316179055670de0b6b3a7640000601355633b9aca006014556008546040805163a53b004160e01b81529051919092169163a53b0041916004808301926020929190829003018186803b15801561470057600080fd5b505afa158015614714573d6000803e3d6000fd5b505050506040513d602081101561472a57600080fd5b505160155550633b9aca00601655565b6000806012600185038154811061474d57fe5b6000918252602082206003909102015460125463ffffffff909116925085106147ef57600960009054906101000a90046001600160a01b03166001600160a01b031663bbe4fd506040518163ffffffff1660e01b815260040160206040518083038186803b1580156147be57600080fd5b505afa1580156147d2573d6000803e3d6000fd5b505050506040513d60208110156147e857600080fd5b5051614814565b601285815481106147fc57fe5b600091825260209091206003909102015463ffffffff165b9050600061486d6012600188038154811061482b57fe5b9060005260206000209060030201600101546012600189038154811061484d57fe5b9060005260206000209060030201600201546140de90919063ffffffff16565b601254909150600090871061497b57600854604080516370a0823160e01b81523060048201529051614976926001600160a01b0316916370a08231916024808301926020929190829003018186803b1580156148c857600080fd5b505afa1580156148dc573d6000803e3d6000fd5b505050506040513d60208110156148f257600080fd5b50516008546040805162b08c1d60e21b815230600482015290516001600160a01b03909216916302c2307491602480820192602092909190829003018186803b15801561493e57600080fd5b505afa158015614952573d6000803e3d6000fd5b505050506040513d602081101561496857600080fd5b50519063ffffffff6142c316565b61499b565b6012878154811061498857fe5b9060005260206000209060030201600101545b90506149c2826149b66016548461510790919063ffffffff16565b9063ffffffff6151b016565b945083861115614a0557614a02856149fa6149e3868863ffffffff613ea816565b60165461160090611f4a898d63ffffffff613ea816565b601654615268565b94505b5050505092915050565b600080614a1b836123b6565b91508115614ace576103e8614a53614a4d86611600614a40878663ffffffff613da516565b8a9063ffffffff613da516565b82614328565b600854604080516356a6d9ef60e01b81526001600160a01b0388811660048301526024820185905291519395509116916356a6d9ef9160448082019260009290919082900301818387803b158015614aaa57600080fd5b505af1158015614abe573d6000803e3d6000fd5b50505050614acc8484613e56565b505b614ad9838383615334565b935093915050565b60008080836001811115614af157fe5b14614b1057600e54601654614b0b9163ffffffff613ea816565b614b25565b601654600e54614b259163ffffffff6140de16565b9050600080614b3386615339565b915091506000600960009054906101000a90046001600160a01b03166001600160a01b031663bbe4fd506040518163ffffffff1660e01b815260040160206040518083038186803b158015614b8757600080fd5b505afa158015614b9b573d6000803e3d6000fd5b505050506040513d6020811015614bb157600080fd5b5051608088015160a0890151919250600091614bda9163ffffffff9182169190811690613ea816565b9050876080015163ffffffff168210158015614c0057508760a0015163ffffffff168211155b614c51576040805162461bcd60e51b815260206004820152601a60248201527f696e76616c69642070726963696e6720706172616d6574657273000000000000604482015290519081900360640190fd5b6000614c70896080015163ffffffff1684613ea890919063ffffffff16565b90506000614c818a6000888861546a565b90506000614c978b8c610100015151898961546a565b9050614cdd846116006016546116008c611f4a614ccd614cc0898b613ea890919063ffffffff16565b8b9063ffffffff613da516565b613e638a8d63ffffffff613da516565b9b9a5050505050505050505050565b600080614cf7612688565b90506000836001811115614d0757fe5b1415614e37576000600860009054906101000a90046001600160a01b03166001600160a01b031663b434e9d6876000015160155489602001518a604001518b606001516040518663ffffffff1660e01b815260040180866001600160a01b03166001600160a01b03168152602001858152602001846001811115614d8757fe5b60ff168152602001836001600160781b031681526020018263ffffffff1681526020019550505050505060206040518083038186803b158015614dc957600080fd5b505afa158015614ddd573d6000803e3d6000fd5b505050506040513d6020811015614df357600080fd5b5051905084811115614e2b57614e26614e12828763ffffffff613ea816565b60155461160090859063ffffffff613da516565b614e2f565b6000195b925050614fbf565b6008548551602087015160408089015160608a015191516383a7e7e160e01b81526001600160a01b038581166004830190815260009791909116956383a7e7e1959094909392909190602401846001811115614e8f57fe5b60ff168152602001836001600160781b031681526020018263ffffffff16815260200194505050505060206040518083038186803b158015614ed057600080fd5b505afa158015614ee4573d6000803e3d6000fd5b505050506040513d6020811015614efa57600080fd5b5051905080851115614f1e57614f19614e12868363ffffffff613ea816565b614f22565b6000195b601554600854604080516370a0823160e01b81523060048201529051939650614fbb938793612b85938b93611600936001600160a01b03909216916370a0823191602480820192602092909190829003018186803b158015614f8357600080fd5b505afa158015614f97573d6000803e3d6000fd5b505050506040513d6020811015614fad57600080fd5b50519063ffffffff613da516565b9250505b509392505050565b6000600160781b821061234b5760405162461bcd60e51b81526004018080602001828103825260278152602001806158d56027913960400191505060405180910390fd5b600081836150975760405162461bcd60e51b81526004018080602001828103825283818151815260200191508051906020019080838360005b8381101561505c578181015183820152602001615044565b50505050905090810190601f1680156150895780820380516001836020036101000a031916815260200191505b509250505060405180910390fd5b5060008385816150a357fe5b0495945050505050565b600081848411156150ff5760405162461bcd60e51b815260206004820181815283516024840152835190928392604490910191908501908083836000831561505c578181015183820152602001615044565b505050900390565b60008261511657506000611178565b8260001914801561512a5750600160ff1b82145b156151665760405162461bcd60e51b81526004018080602001828103825260278152602001806159856027913960400191505060405180910390fd5b8282028284828161517357fe5b05146111755760405162461bcd60e51b81526004018080602001828103825260278152602001806159856027913960400191505060405180910390fd5b600081615204576040805162461bcd60e51b815260206004820181905260248201527f5369676e6564536166654d6174683a206469766973696f6e206279207a65726f604482015290519081900360640190fd5b816000191480156152185750600160ff1b83145b156152545760405162461bcd60e51b81526004018080602001828103825260218152602001806159436021913960400191505060405180910390fd5b600082848161525f57fe5b05949350505050565b6000826152765750806119bb565b818311156152a65761529f826116006124ce87615299888563ffffffff613ea816565b87615268565b90506119bb565b508080600085816152b68461559b565b90505b6001841115615329576152d384600263ffffffff613dfe16565b93506152e281611f4a8461559b565b9150866152f5848663ffffffff6140de16565b10156153245761530b838563ffffffff6140de16565b925061532186611600878563ffffffff613da516565b94505b6152b9565b505050509392505050565b505050565b6000806000836000015190506000816001600160a01b0316638e15f4736040518163ffffffff1660e01b8152600401604080518083038186803b15801561537f57600080fd5b505afa158015615393573d6000803e3d6000fd5b505050506040513d60408110156153a957600080fd5b50602001516000945092508290505b8285610100015185815181106153ca57fe5b60200260200101516001600160781b03161080156153ed57508461010001515184105b156153fd576001909301926153b8565b60008411801561541257508461010001515184105b615463576040805162461bcd60e51b815260206004820152601a60248201527f696e76616c69642070726963696e6720706172616d6574657273000000000000604482015290519081900360640190fd5b5050915091565b60008061547d858563ffffffff6140de16565b90506000866101200151828151811061549257fe5b60200260200101516001600160781b03169050600087610120015160018403815181106154bb57fe5b60200260200101516001600160781b0316905061558f8161558361552d8b610100015160018b03815181106154ec57fe5b60200260200101516001600160781b03168c61010001518b8151811061550e57fe5b60200260200101516001600160781b03166155eb90919063ffffffff16565b6149b66155678d610100015160018d038151811061554757fe5b60200260200101516001600160781b03168b613ea890919063ffffffff16565b615577888863ffffffff6155eb16565b9063ffffffff61510716565b9063ffffffff6142c316565b98975050505050505050565b6000806155b4600261160085600163ffffffff6140de16565b90508291505b818110156155e5579050806155de600261160083613e9c878263ffffffff613dfe16565b90506155ba565b50919050565b60008183038183128015906156005750838113155b80615615575060008312801561561557508381135b6111755760405162461bcd60e51b81526004018080602001828103825260248152602001806159d26024913960400191505060405180910390fd5b6040805161014081019091526000808252602082019081526000602082018190526040820181905260608083018290526080830182905260a0830182905260c083019190915260e082018190526101009091015290565b8280548282559060005260206000209060010160029004810192821561574f5791602002820160005b8382111561571a57835183826101000a8154816001600160781b0302191690836001600160781b031602179055509260200192600f01602081600e010492830192600103026156d0565b801561574d5782816101000a8154906001600160781b030219169055600f01602081600e0104928301926001030261571a565b505b5061234b92915061588e565b828054600181600116156101000203166002900490600052602060002090601f016020900481019282601f1061579c5782800160ff198235161785556157c9565b828001600101855582156157c9579182015b828111156157c95782358255916020019190600101906157ae565b5061234b9291506158ba565b828054600181600116156101000203166002900490600052602060002090601f016020900481019282601f1061580e57805485556157c9565b828001600101855582156157c957600052602060002091601f016020900482015b828111156157c957825482559160010191906001019061582f565b50805460018160011615610100020316600290046000825580601f10615870575061386d565b601f01602090049060005260206000209081019061386d91906158ba565b61116591905b8082111561234b5780546effffffffffffffffffffffffffffff19168155600101615894565b61116591905b8082111561234b57600081556001016158c056fe53616665436173743a2076616c756520646f65736e27742066697420696e2031323020626974735369676e6564536166654d6174683a206164646974696f6e206f766572666c6f774c696e656172204c697175696469747920506f6f6c2052656465656d61626c6520546f6b656e5369676e6564536166654d6174683a206469766973696f6e206f766572666c6f77536166654d6174683a206d756c7469706c69636174696f6e206f766572666c6f775369676e6564536166654d6174683a206d756c7469706c69636174696f6e206f766572666c6f7753616665436173743a2076616c756520646f65736e27742066697420696e20333220626974735369676e6564536166654d6174683a207375627472616374696f6e206f766572666c6f77a26469706673582212200e8e02022a2ce6e8d98826ba88af3abd463da2992c49fac519034224efd0fd7364736f6c634300060000334c696e656172204c697175696469747920506f6f6c2052656465656d61626c6520546f6b656e454950373132446f6d61696e28737472696e67206e616d652c737472696e672076657273696f6e2c75696e7432353620636861696e49642c6164647265737320766572696679696e67436f6e747261637429",
  "source": "pragma solidity >=0.6.0;\n\nimport \"../deployment/ManagedContract.sol\";\nimport \"../finance/RedeemableToken.sol\";\nimport \"../governance/ProtocolSettings.sol\";\nimport \"../interfaces/TimeProvider.sol\";\nimport \"../interfaces/LiquidityPool.sol\";\nimport \"../interfaces/UnderlyingFeed.sol\";\nimport \"../utils/ERC20.sol\";\nimport \"../utils/MoreMath.sol\";\nimport \"../utils/SafeCast.sol\";\nimport \"../utils/SafeMath.sol\";\nimport \"../utils/SignedSafeMath.sol\";\n\ncontract LinearLiquidityPool is LiquidityPool, ManagedContract, RedeemableToken {\n\n    using SafeCast for uint;\n    using SafeMath for uint;\n    using SignedSafeMath for int;\n\n    enum Operation { BUY, SELL }\n\n    struct PricingParameters {\n        address udlFeed;\n        OptionsExchange.OptionType optType;\n        uint120 strike;\n        uint32 maturity;\n        uint32 t0;\n        uint32 t1;\n        uint120 buyStock;\n        uint120 sellStock;\n        uint120[] x;\n        uint120[] y;\n    }\n\n    struct Deposit {\n        uint32 date;\n        uint balance;\n        uint value;\n    }\n\n    TimeProvider private time;\n    ProtocolSettings private settings;\n    CreditProvider private creditProvider;\n\n    mapping(string => PricingParameters) private parameters;\n\n    string private constant _name = \"Linear Liquidity Pool Redeemable Token\";\n    string private constant _symbol = \"LLPTK\";\n\n    address private owner;\n    uint private spread;\n    uint private reserveRatio;\n    uint private _maturity;\n    string[] private optSymbols;\n    Deposit[] private deposits;\n\n    uint private timeBase;\n    uint private sqrtTimeBase;\n    uint private volumeBase;\n    uint private fractionBase;\n\n    constructor(address deployer) ERC20(_name) public {\n\n        Deployer(deployer).setContractAddress(\"LinearLiquidityPool\");\n    }\n\n    function initialize(Deployer deployer) override internal {\n\n        owner = deployer.getOwner();\n        time = TimeProvider(deployer.getContractAddress(\"TimeProvider\"));\n        exchange = OptionsExchange(deployer.getContractAddress(\"OptionsExchange\"));\n        settings = ProtocolSettings(deployer.getContractAddress(\"ProtocolSettings\"));\n        creditProvider = CreditProvider(deployer.getContractAddress(\"CreditProvider\"));\n\n        timeBase = 1e18;\n        sqrtTimeBase = 1e9;\n        volumeBase = exchange.volumeBase();\n        fractionBase = 1e9;\n    }\n\n    function name() override external view returns (string memory) {\n        return _name;\n    }\n\n    function symbol() override external view returns (string memory) {\n        return _symbol;\n    }\n\n    function setParameters(\n        uint _spread,\n        uint _reserveRatio,\n        uint _mt\n    )\n        external\n    {\n        ensureCaller();\n        spread = _spread;\n        reserveRatio = _reserveRatio;\n        _maturity = _mt;\n    }\n\n    function redeemAllowed() override public returns (bool) {\n        \n        return time.getNow() >= _maturity;\n    }\n\n    function maturity() override external view returns (uint) {\n        \n        return _maturity;\n    }\n\n    function yield(uint dt) override external view returns (uint y) {\n        \n        y = fractionBase;\n\n        if (deposits.length > 0) {\n            \n            uint _now = time.getNow();\n            uint start = _now.sub(dt);\n            \n            uint i = 0;\n            for (i = 0; i < deposits.length; i++) {\n                if (deposits[i].date > start) {\n                    break;\n                }\n            }\n\n            for (; i <= deposits.length; i++) {\n                if (i > 0) {\n                    y = y.mul(calcYield(i, start)).div(fractionBase);\n                }\n            }\n        }\n    }\n\n    function addSymbol(\n        string calldata optSymbol,\n        address udlFeed,\n        uint strike,\n        uint _mt,\n        OptionsExchange.OptionType optType,\n        uint t0,\n        uint t1,\n        uint120[] calldata x,\n        uint120[] calldata y,\n        uint buyStock,\n        uint sellStock\n    )\n        external\n    {\n        ensureCaller();\n        require(_mt < _maturity, \"invalid maturity\");\n        require(x.length > 0 && x.length.mul(2) == y.length, \"invalid pricing surface\");\n\n        if (parameters[optSymbol].x.length == 0) {\n            optSymbols.push(optSymbol);\n        }\n\n        parameters[optSymbol] = PricingParameters(\n            udlFeed,\n            optType,\n            strike.toUint120(),\n            _mt.toUint32(),\n            t0.toUint32(),\n            t1.toUint32(),\n            buyStock.toUint120(),\n            sellStock.toUint120(),\n            x,\n            y\n        );\n\n        emit AddSymbol(optSymbol);\n    }\n    \n    function removeSymbol(string calldata optSymbol) external {\n\n        ensureCaller();\n        PricingParameters memory empty;\n        parameters[optSymbol] = empty;\n        Arrays.removeItem(optSymbols, optSymbol);\n        emit RemoveSymbol(optSymbol);\n    }\n\n    function depositTokens(\n        address to,\n        address token,\n        uint value,\n        uint deadline,\n        uint8 v,\n        bytes32 r,\n        bytes32 s\n    )\n        override\n        external\n    {\n        ERC20(token).permit(msg.sender, address(this), value, deadline, v, r, s);\n        depositTokens(to, token, value);\n    }\n\n    function depositTokens(address to, address token, uint value) override public {\n\n        uint b0 = exchange.balanceOf(address(this));\n        depositTokensInExchange(token, value);\n        uint b1 = exchange.balanceOf(address(this));\n        int po = exchange.calcExpectedPayout(address(this));\n        \n        deposits.push(Deposit(time.getNow().toUint32(), uint(int(b0).add(po)), value));\n\n        uint ts = _totalSupply;\n        int expBal = po.add(int(b1));\n        uint p = b1.sub(b0).mul(fractionBase).div(uint(expBal));\n\n        uint b = 1e3;\n        uint v = ts > 0 ?\n            ts.mul(p).mul(b).div(fractionBase.sub(p)) : \n            uint(expBal).mul(b);\n        v = MoreMath.round(v, b);\n\n        addBalance(to, v);\n        _totalSupply = ts.add(v);\n        emitTransfer(address(0), to, v);\n    }\n\n    function calcFreeBalance() public view returns (uint balance) {\n\n        uint exBal = exchange.balanceOf(address(this));\n        balance = exBal.mul(reserveRatio).div(fractionBase);\n        uint sp = exBal.sub(exchange.collateral(address(this)));\n        balance = sp > balance ? sp.sub(balance) : 0;\n    }\n    \n    function listSymbols() override external view returns (string memory available) {\n\n        for (uint i = 0; i < optSymbols.length; i++) {\n            if (parameters[optSymbols[i]].maturity > time.getNow()) {\n                if (bytes(available).length == 0) {\n                    available = optSymbols[i];\n                } else {\n                    available = string(abi.encodePacked(available, \"\\n\", optSymbols[i]));\n                }\n            }\n        }\n    }\n\n    function queryBuy(string memory optSymbol)\n        override\n        public\n        view\n        returns (uint price, uint volume)\n    {\n        ensureValidSymbol(optSymbol);\n        PricingParameters memory param = parameters[optSymbol];\n        price = calcOptPrice(param, Operation.BUY);\n        address _tk = exchange.resolveToken(optSymbol);\n        volume = MoreMath.min(\n            calcVolume(param, price, Operation.BUY),\n            uint(param.buyStock).sub(OptionToken(_tk).writtenVolume(address(this)))\n        );\n    }\n\n    function querySell(string memory optSymbol)\n        override\n        public\n        view\n        returns (uint price, uint volume)\n    {    \n        ensureValidSymbol(optSymbol);\n        PricingParameters memory param = parameters[optSymbol];\n        price = calcOptPrice(param, Operation.SELL);\n        address _tk = exchange.resolveToken(optSymbol);\n        volume = MoreMath.min(\n            calcVolume(param, price, Operation.SELL),\n            uint(param.sellStock).sub(OptionToken(_tk).balanceOf(address(this)))\n        );\n    }\n    \n    function buy(\n        string memory optSymbol,\n        uint price,\n        uint volume,\n        address token,\n        uint deadline,\n        uint8 v,\n        bytes32 r,\n        bytes32 s\n    )\n        override\n        public\n        returns (address _tk)\n    {\n        require(volume > 0, \"invalid volume\");\n        ensureValidSymbol(optSymbol);\n\n        PricingParameters memory param = parameters[optSymbol];\n        price = receivePayment(param, price, volume, token, deadline, v, r, s);\n\n        _tk = exchange.resolveToken(optSymbol);\n        OptionToken tk = OptionToken(_tk);\n        uint _holding = tk.balanceOf(address(this));\n\n        if (volume > _holding) {\n            writeOptions(tk, param, volume, msg.sender);\n        } else {\n            tk.transfer(msg.sender, volume);\n        }\n\n        emit Buy(_tk, msg.sender, price, volume);\n    }\n\n    function buy(string calldata optSymbol, uint price, uint volume, address token)\n        override\n        external\n        returns (address _tk)\n    {\n        bytes32 x;\n        _tk = buy(optSymbol, price, volume, token, 0, 0, x, x);\n    }\n\n    function sell(\n        string memory optSymbol,\n        uint price,\n        uint volume,\n        uint deadline,\n        uint8 v,\n        bytes32 r,\n        bytes32 s\n    )\n        override\n        public\n    {\n        require(volume > 0, \"invalid volume\");\n        ensureValidSymbol(optSymbol);\n\n        PricingParameters memory param = parameters[optSymbol];\n        price = validatePrice(price, param, Operation.SELL);\n\n        address _tk = exchange.resolveToken(optSymbol);\n        OptionToken tk = OptionToken(_tk);\n        if (deadline > 0) {\n            tk.permit(msg.sender, address(this), volume, deadline, v, r, s);\n        }\n        tk.transferFrom(msg.sender, address(this), volume);\n\n        uint value = price.mul(volume).div(volumeBase);\n        exchange.transferBalance(msg.sender, value);\n        \n        require(calcFreeBalance() > 0, \"excessive volume\");\n        \n        uint _written = tk.writtenVolume(address(this));\n\n        if (_written > 0) {\n            uint toBurn = MoreMath.min(_written, volume);\n            tk.burn(toBurn);\n        }\n\n        uint _holding = tk.balanceOf(address(this));\n        require(_holding <= param.sellStock, \"excessive volume\");\n\n        emit Sell(_tk, msg.sender, price, volume);\n    }\n\n    function sell(string calldata optSymbol, uint price, uint volume) override external {\n        \n        bytes32 x;\n        sell(optSymbol, price, volume, 0, 0, x, x);\n    }\n\n    function receivePayment(\n        PricingParameters memory param,\n        uint price,\n        uint volume,\n        address token,\n        uint deadline,\n        uint8 v,\n        bytes32 r,\n        bytes32 s\n    )\n        private\n        returns (uint)\n    {\n        uint maxValue = price.mul(volume).div(volumeBase);\n        price = validatePrice(price, param, Operation.BUY);\n        uint value = price.mul(volume).div(volumeBase);\n\n        if (token != address(exchange)) {\n            (uint tv, uint tb) = settings.getTokenRate(token);\n            if (deadline > 0) {\n                maxValue = maxValue.mul(tv).div(tb);\n                ERC20(token).permit(msg.sender, address(this), maxValue, deadline, v, r, s);\n            }\n            value = value.mul(tv).div(tb);\n            depositTokensInExchange(token, value);\n        } else {\n            exchange.transferBalance(msg.sender, address(this), value, maxValue, deadline, v, r, s);\n        }\n\n        return price;\n    }\n\n    function validatePrice(\n        uint price, \n        PricingParameters memory param, \n        Operation op\n    ) \n        private\n        view\n        returns (uint p) \n    {\n        p = calcOptPrice(param, op);\n        require(\n            op == Operation.BUY ? price >= p : price <= p,\n            \"insufficient price\"\n        );\n    }\n\n    function writeOptions(\n        OptionToken tk,\n        PricingParameters memory param,\n        uint volume,\n        address to\n    )\n        private\n    {\n        uint _written = tk.writtenVolume(address(this));\n        require(_written.add(volume) <= param.buyStock, \"excessive volume\");\n\n        exchange.writeOptions(\n            param.udlFeed,\n            volume,\n            param.optType,\n            param.strike,\n            param.maturity,\n            to\n        );\n        \n        require(calcFreeBalance() > 0, \"excessive volume\");\n    }\n\n    function calcOptPrice(PricingParameters memory p, Operation op)\n        private\n        view\n        returns (uint price)\n    {\n        uint f = op == Operation.BUY ? spread.add(fractionBase) : fractionBase.sub(spread);\n        \n        (uint j, uint xp) = findUdlPrice(p);\n\n        uint _now = time.getNow();\n        uint dt = uint(p.t1).sub(uint(p.t0));\n        require(_now >= p.t0 && _now <= p.t1, \"invalid pricing parameters\");\n        uint t = _now.sub(p.t0);\n        uint p0 = calcOptPriceAt(p, 0, j, xp);\n        uint p1 = calcOptPriceAt(p, p.x.length, j, xp);\n\n        price = p0.mul(dt).sub(\n            t.mul(p0.sub(p1))\n        ).mul(f).div(fractionBase).div(dt);\n    }\n\n    function findUdlPrice(PricingParameters memory p) private view returns (uint j, uint xp) {\n\n        UnderlyingFeed feed = UnderlyingFeed(p.udlFeed);\n        (,int udlPrice) = feed.getLatestPrice();\n        \n        j = 0;\n        xp = uint(udlPrice);\n        while (p.x[j] < xp && j < p.x.length) {\n            j++;\n        }\n        require(j > 0 && j < p.x.length, \"invalid pricing parameters\");\n    }\n\n    function calcOptPriceAt(\n        PricingParameters memory p,\n        uint offset,\n        uint j,\n        uint xp\n    )\n        private\n        pure\n        returns (uint price)\n    {\n        uint k = offset.add(j);\n        int yA = int(p.y[k]);\n        int yB = int(p.y[k - 1]);\n        price = uint(\n            yA.sub(yB).mul(\n                int(xp.sub(p.x[j - 1]))\n            ).div(\n                int(p.x[j]).sub(int(p.x[j - 1]))\n            ).add(yB)\n        );\n    }\n\n    function calcVolume(\n        PricingParameters memory p,\n        uint price,\n        Operation op\n    )\n        private\n        view\n        returns (uint volume)\n    {\n        uint fb = calcFreeBalance();\n\n        if (op == Operation.BUY) {\n\n            uint coll = exchange.calcCollateral(\n                p.udlFeed,\n                volumeBase,\n                p.optType,\n                p.strike,\n                p.maturity\n            );\n\n            volume = coll <= price ? uint(-1) :\n                fb.mul(volumeBase).div(coll.sub(price));\n\n        } else {\n            \n            uint iv = uint(exchange.calcIntrinsicValue(\n                p.udlFeed,\n                p.optType,\n                p.strike,\n                p.maturity\n            ));\n\n            volume = price <= iv ? uint(-1) :\n                fb.mul(volumeBase).div(price.sub(iv));\n\n            volume = MoreMath.min(\n                volume, \n                exchange.balanceOf(address(this)).mul(volumeBase).div(price)\n            );\n        }\n    }\n\n    function calcYield(uint index, uint start) private view returns (uint y) {\n\n        uint t0 = deposits[index - 1].date;\n        uint t1 = index < deposits.length ?\n            deposits[index].date : time.getNow();\n\n        int v0 = int(deposits[index - 1].value.add(deposits[index - 1].balance));\n        int v1 = index < deposits.length ? \n            int(deposits[index].balance) :\n            exchange.calcExpectedPayout(address(this)).add(int(exchange.balanceOf(address(this))));\n\n        y = uint(v1.mul(int(fractionBase)).div(v0));\n        if (start > t0) {\n            y = MoreMath.powDecimal(\n                y, \n                (t1.sub(start)).mul(fractionBase).div(t1.sub(t0)), \n                fractionBase\n            );\n        }\n    }\n\n    function depositTokensInExchange(address token, uint value) private {\n        \n        ERC20 t = ERC20(token);\n        t.transferFrom(msg.sender, address(creditProvider), value);\n        creditProvider.addBalance(address(this), token, value);\n    }\n\n    function ensureValidSymbol(string memory optSymbol) private view {\n\n        require(parameters[optSymbol].udlFeed !=  address(0), \"invalid optSymbol\");\n    }\n\n    function ensureCaller() private view {\n\n        require(owner == address(0) || msg.sender == owner, \"unauthorized caller\");\n    }\n}",
  "sourcePath": "/Users/dev/Documents/coding/defioptions/DeFiOptions-contracts/contracts/pools/LinearLiquidityPool.sol",
  "compiler": {
    "name": "solc",
    "version": "0.6.0+commit.26b70077.Emscripten.clang"
  },
  "schemaVersion": "3.3.3",
  "updatedAt": "2021-04-10T11:44:47.069Z",
  "devdoc": {
    "methods": {}
  },
  "userdoc": {
    "methods": {}
  }
}