{
  "contractName": "LinearLiquidityPool",
  "abi": [
    {
      "inputs": [],
      "stateMutability": "nonpayable",
      "type": "constructor"
    },
    {
      "anonymous": false,
      "inputs": [
        {
          "indexed": false,
          "internalType": "string",
          "name": "optSymbol",
          "type": "string"
        }
      ],
      "name": "AddSymbol",
      "type": "event"
    },
    {
      "anonymous": false,
      "inputs": [
        {
          "indexed": true,
          "internalType": "address",
          "name": "owner",
          "type": "address"
        },
        {
          "indexed": true,
          "internalType": "address",
          "name": "spender",
          "type": "address"
        },
        {
          "indexed": false,
          "internalType": "uint256",
          "name": "value",
          "type": "uint256"
        }
      ],
      "name": "Approval",
      "type": "event"
    },
    {
      "anonymous": false,
      "inputs": [
        {
          "indexed": true,
          "internalType": "address",
          "name": "token",
          "type": "address"
        },
        {
          "indexed": true,
          "internalType": "address",
          "name": "buyer",
          "type": "address"
        },
        {
          "indexed": false,
          "internalType": "uint256",
          "name": "price",
          "type": "uint256"
        },
        {
          "indexed": false,
          "internalType": "uint256",
          "name": "volume",
          "type": "uint256"
        }
      ],
      "name": "Buy",
      "type": "event"
    },
    {
      "anonymous": false,
      "inputs": [
        {
          "indexed": false,
          "internalType": "string",
          "name": "optSymbol",
          "type": "string"
        }
      ],
      "name": "RemoveSymbol",
      "type": "event"
    },
    {
      "anonymous": false,
      "inputs": [
        {
          "indexed": true,
          "internalType": "address",
          "name": "token",
          "type": "address"
        },
        {
          "indexed": true,
          "internalType": "address",
          "name": "seller",
          "type": "address"
        },
        {
          "indexed": false,
          "internalType": "uint256",
          "name": "price",
          "type": "uint256"
        },
        {
          "indexed": false,
          "internalType": "uint256",
          "name": "volume",
          "type": "uint256"
        }
      ],
      "name": "Sell",
      "type": "event"
    },
    {
      "anonymous": false,
      "inputs": [
        {
          "indexed": true,
          "internalType": "address",
          "name": "from",
          "type": "address"
        },
        {
          "indexed": true,
          "internalType": "address",
          "name": "to",
          "type": "address"
        },
        {
          "indexed": false,
          "internalType": "uint256",
          "name": "value",
          "type": "uint256"
        }
      ],
      "name": "Transfer",
      "type": "event"
    },
    {
      "inputs": [],
      "name": "DOMAIN_SEPARATOR",
      "outputs": [
        {
          "internalType": "bytes32",
          "name": "",
          "type": "bytes32"
        }
      ],
      "stateMutability": "view",
      "type": "function"
    },
    {
      "inputs": [],
      "name": "PERMIT_TYPEHASH",
      "outputs": [
        {
          "internalType": "bytes32",
          "name": "",
          "type": "bytes32"
        }
      ],
      "stateMutability": "view",
      "type": "function"
    },
    {
      "inputs": [
        {
          "internalType": "address",
          "name": "udlFeed",
          "type": "address"
        },
        {
          "internalType": "uint256",
          "name": "strike",
          "type": "uint256"
        },
        {
          "internalType": "uint256",
          "name": "_mt",
          "type": "uint256"
        },
        {
          "internalType": "enum OptionsExchange.OptionType",
          "name": "optType",
          "type": "uint8"
        },
        {
          "internalType": "uint256",
          "name": "t0",
          "type": "uint256"
        },
        {
          "internalType": "uint256",
          "name": "t1",
          "type": "uint256"
        },
        {
          "internalType": "uint120[]",
          "name": "x",
          "type": "uint120[]"
        },
        {
          "internalType": "uint120[]",
          "name": "y",
          "type": "uint120[]"
        },
        {
          "internalType": "uint256",
          "name": "buyStock",
          "type": "uint256"
        },
        {
          "internalType": "uint256",
          "name": "sellStock",
          "type": "uint256"
        }
      ],
      "name": "addSymbol",
      "outputs": [],
      "stateMutability": "nonpayable",
      "type": "function"
    },
    {
      "inputs": [
        {
          "internalType": "address",
          "name": "owner",
          "type": "address"
        },
        {
          "internalType": "address",
          "name": "spender",
          "type": "address"
        }
      ],
      "name": "allowance",
      "outputs": [
        {
          "internalType": "uint256",
          "name": "",
          "type": "uint256"
        }
      ],
      "stateMutability": "view",
      "type": "function"
    },
    {
      "inputs": [
        {
          "internalType": "address",
          "name": "spender",
          "type": "address"
        },
        {
          "internalType": "uint256",
          "name": "value",
          "type": "uint256"
        }
      ],
      "name": "approve",
      "outputs": [
        {
          "internalType": "bool",
          "name": "",
          "type": "bool"
        }
      ],
      "stateMutability": "nonpayable",
      "type": "function"
    },
    {
      "inputs": [
        {
          "internalType": "address",
          "name": "owner",
          "type": "address"
        }
      ],
      "name": "balanceOf",
      "outputs": [
        {
          "internalType": "uint256",
          "name": "",
          "type": "uint256"
        }
      ],
      "stateMutability": "view",
      "type": "function"
    },
    {
      "inputs": [
        {
          "internalType": "string",
          "name": "optSymbol",
          "type": "string"
        },
        {
          "internalType": "uint256",
          "name": "price",
          "type": "uint256"
        },
        {
          "internalType": "uint256",
          "name": "volume",
          "type": "uint256"
        },
        {
          "internalType": "address",
          "name": "token",
          "type": "address"
        },
        {
          "internalType": "uint256",
          "name": "maxValue",
          "type": "uint256"
        },
        {
          "internalType": "uint256",
          "name": "deadline",
          "type": "uint256"
        },
        {
          "internalType": "uint8",
          "name": "v",
          "type": "uint8"
        },
        {
          "internalType": "bytes32",
          "name": "r",
          "type": "bytes32"
        },
        {
          "internalType": "bytes32",
          "name": "s",
          "type": "bytes32"
        }
      ],
      "name": "buy",
      "outputs": [
        {
          "internalType": "address",
          "name": "_tk",
          "type": "address"
        }
      ],
      "stateMutability": "nonpayable",
      "type": "function"
    },
    {
      "inputs": [
        {
          "internalType": "string",
          "name": "optSymbol",
          "type": "string"
        },
        {
          "internalType": "uint256",
          "name": "price",
          "type": "uint256"
        },
        {
          "internalType": "uint256",
          "name": "volume",
          "type": "uint256"
        },
        {
          "internalType": "address",
          "name": "token",
          "type": "address"
        }
      ],
      "name": "buy",
      "outputs": [
        {
          "internalType": "address",
          "name": "_tk",
          "type": "address"
        }
      ],
      "stateMutability": "nonpayable",
      "type": "function"
    },
    {
      "inputs": [],
      "name": "calcFreeBalance",
      "outputs": [
        {
          "internalType": "uint256",
          "name": "balance",
          "type": "uint256"
        }
      ],
      "stateMutability": "view",
      "type": "function"
    },
    {
      "inputs": [],
      "name": "capacity",
      "outputs": [
        {
          "internalType": "uint256",
          "name": "",
          "type": "uint256"
        }
      ],
      "stateMutability": "view",
      "type": "function"
    },
    {
      "inputs": [],
      "name": "decimals",
      "outputs": [
        {
          "internalType": "uint8",
          "name": "",
          "type": "uint8"
        }
      ],
      "stateMutability": "view",
      "type": "function"
    },
    {
      "inputs": [
        {
          "internalType": "address",
          "name": "to",
          "type": "address"
        },
        {
          "internalType": "address",
          "name": "token",
          "type": "address"
        },
        {
          "internalType": "uint256",
          "name": "value",
          "type": "uint256"
        }
      ],
      "name": "depositTokens",
      "outputs": [],
      "stateMutability": "nonpayable",
      "type": "function"
    },
    {
      "inputs": [
        {
          "internalType": "address",
          "name": "to",
          "type": "address"
        },
        {
          "internalType": "address",
          "name": "token",
          "type": "address"
        },
        {
          "internalType": "uint256",
          "name": "value",
          "type": "uint256"
        },
        {
          "internalType": "uint256",
          "name": "deadline",
          "type": "uint256"
        },
        {
          "internalType": "uint8",
          "name": "v",
          "type": "uint8"
        },
        {
          "internalType": "bytes32",
          "name": "r",
          "type": "bytes32"
        },
        {
          "internalType": "bytes32",
          "name": "s",
          "type": "bytes32"
        }
      ],
      "name": "depositTokens",
      "outputs": [],
      "stateMutability": "nonpayable",
      "type": "function"
    },
    {
      "inputs": [],
      "name": "getImplementation",
      "outputs": [
        {
          "internalType": "address",
          "name": "",
          "type": "address"
        }
      ],
      "stateMutability": "view",
      "type": "function"
    },
    {
      "inputs": [],
      "name": "getOwner",
      "outputs": [
        {
          "internalType": "address",
          "name": "",
          "type": "address"
        }
      ],
      "stateMutability": "view",
      "type": "function"
    },
    {
      "inputs": [
        {
          "internalType": "contract Deployer",
          "name": "deployer",
          "type": "address"
        }
      ],
      "name": "initializeAndLock",
      "outputs": [],
      "stateMutability": "nonpayable",
      "type": "function"
    },
    {
      "inputs": [
        {
          "internalType": "string",
          "name": "optSymbol",
          "type": "string"
        },
        {
          "internalType": "enum LiquidityPool.Operation",
          "name": "op",
          "type": "uint8"
        }
      ],
      "name": "isAvailable",
      "outputs": [
        {
          "internalType": "bool",
          "name": "b",
          "type": "bool"
        }
      ],
      "stateMutability": "view",
      "type": "function"
    },
    {
      "inputs": [],
      "name": "listSymbols",
      "outputs": [
        {
          "internalType": "string",
          "name": "available",
          "type": "string"
        }
      ],
      "stateMutability": "view",
      "type": "function"
    },
    {
      "inputs": [
        {
          "internalType": "enum LiquidityPool.Operation",
          "name": "op",
          "type": "uint8"
        }
      ],
      "name": "listSymbols",
      "outputs": [
        {
          "internalType": "string",
          "name": "available",
          "type": "string"
        }
      ],
      "stateMutability": "view",
      "type": "function"
    },
    {
      "inputs": [],
      "name": "maturity",
      "outputs": [
        {
          "internalType": "uint256",
          "name": "",
          "type": "uint256"
        }
      ],
      "stateMutability": "view",
      "type": "function"
    },
    {
      "inputs": [
        {
          "internalType": "address",
          "name": "",
          "type": "address"
        }
      ],
      "name": "nonces",
      "outputs": [
        {
          "internalType": "uint256",
          "name": "",
          "type": "uint256"
        }
      ],
      "stateMutability": "view",
      "type": "function"
    },
    {
      "inputs": [
        {
          "internalType": "address",
          "name": "owner",
          "type": "address"
        },
        {
          "internalType": "address",
          "name": "spender",
          "type": "address"
        },
        {
          "internalType": "uint256",
          "name": "value",
          "type": "uint256"
        },
        {
          "internalType": "uint256",
          "name": "deadline",
          "type": "uint256"
        },
        {
          "internalType": "uint8",
          "name": "v",
          "type": "uint8"
        },
        {
          "internalType": "bytes32",
          "name": "r",
          "type": "bytes32"
        },
        {
          "internalType": "bytes32",
          "name": "s",
          "type": "bytes32"
        }
      ],
      "name": "permit",
      "outputs": [],
      "stateMutability": "nonpayable",
      "type": "function"
    },
    {
      "inputs": [
        {
          "internalType": "string",
          "name": "optSymbol",
          "type": "string"
        }
      ],
      "name": "queryBuy",
      "outputs": [
        {
          "internalType": "uint256",
          "name": "price",
          "type": "uint256"
        },
        {
          "internalType": "uint256",
          "name": "volume",
          "type": "uint256"
        }
      ],
      "stateMutability": "view",
      "type": "function"
    },
    {
      "inputs": [
        {
          "internalType": "string",
          "name": "optSymbol",
          "type": "string"
        }
      ],
      "name": "querySell",
      "outputs": [
        {
          "internalType": "uint256",
          "name": "price",
          "type": "uint256"
        },
        {
          "internalType": "uint256",
          "name": "volume",
          "type": "uint256"
        }
      ],
      "stateMutability": "view",
      "type": "function"
    },
    {
      "inputs": [
        {
          "internalType": "address[]",
          "name": "owners",
          "type": "address[]"
        }
      ],
      "name": "redeem",
      "outputs": [
        {
          "internalType": "uint256",
          "name": "value",
          "type": "uint256"
        }
      ],
      "stateMutability": "nonpayable",
      "type": "function"
    },
    {
      "inputs": [
        {
          "internalType": "address",
          "name": "owner",
          "type": "address"
        }
      ],
      "name": "redeem",
      "outputs": [
        {
          "internalType": "uint256",
          "name": "value",
          "type": "uint256"
        }
      ],
      "stateMutability": "nonpayable",
      "type": "function"
    },
    {
      "inputs": [],
      "name": "redeemAllowed",
      "outputs": [
        {
          "internalType": "bool",
          "name": "",
          "type": "bool"
        }
      ],
      "stateMutability": "view",
      "type": "function"
    },
    {
      "inputs": [
        {
          "internalType": "string",
          "name": "optSymbol",
          "type": "string"
        }
      ],
      "name": "removeSymbol",
      "outputs": [],
      "stateMutability": "nonpayable",
      "type": "function"
    },
    {
      "inputs": [
        {
          "internalType": "string",
          "name": "optSymbol",
          "type": "string"
        },
        {
          "internalType": "uint256",
          "name": "price",
          "type": "uint256"
        },
        {
          "internalType": "uint256",
          "name": "volume",
          "type": "uint256"
        }
      ],
      "name": "sell",
      "outputs": [],
      "stateMutability": "nonpayable",
      "type": "function"
    },
    {
      "inputs": [
        {
          "internalType": "string",
          "name": "optSymbol",
          "type": "string"
        },
        {
          "internalType": "uint256",
          "name": "price",
          "type": "uint256"
        },
        {
          "internalType": "uint256",
          "name": "volume",
          "type": "uint256"
        },
        {
          "internalType": "uint256",
          "name": "deadline",
          "type": "uint256"
        },
        {
          "internalType": "uint8",
          "name": "v",
          "type": "uint8"
        },
        {
          "internalType": "bytes32",
          "name": "r",
          "type": "bytes32"
        },
        {
          "internalType": "bytes32",
          "name": "s",
          "type": "bytes32"
        }
      ],
      "name": "sell",
      "outputs": [],
      "stateMutability": "nonpayable",
      "type": "function"
    },
    {
      "inputs": [
        {
          "internalType": "uint256",
          "name": "_spread",
          "type": "uint256"
        },
        {
          "internalType": "uint256",
          "name": "_reserveRatio",
          "type": "uint256"
        },
        {
          "internalType": "uint256",
          "name": "_withdrawFee",
          "type": "uint256"
        },
        {
          "internalType": "uint256",
          "name": "_capacity",
          "type": "uint256"
        },
        {
          "internalType": "uint256",
          "name": "_mt",
          "type": "uint256"
        }
      ],
      "name": "setParameters",
      "outputs": [],
      "stateMutability": "nonpayable",
      "type": "function"
    },
    {
      "inputs": [
        {
          "internalType": "string",
          "name": "optSymbol",
          "type": "string"
        },
        {
          "internalType": "enum LiquidityPool.Operation",
          "name": "op",
          "type": "uint8"
        },
        {
          "internalType": "uint256",
          "name": "start",
          "type": "uint256"
        },
        {
          "internalType": "uint256",
          "name": "end",
          "type": "uint256"
        }
      ],
      "name": "setRange",
      "outputs": [],
      "stateMutability": "nonpayable",
      "type": "function"
    },
    {
      "inputs": [],
      "name": "totalSupply",
      "outputs": [
        {
          "internalType": "uint256",
          "name": "",
          "type": "uint256"
        }
      ],
      "stateMutability": "view",
      "type": "function"
    },
    {
      "inputs": [
        {
          "internalType": "address",
          "name": "to",
          "type": "address"
        },
        {
          "internalType": "uint256",
          "name": "value",
          "type": "uint256"
        }
      ],
      "name": "transfer",
      "outputs": [
        {
          "internalType": "bool",
          "name": "",
          "type": "bool"
        }
      ],
      "stateMutability": "nonpayable",
      "type": "function"
    },
    {
      "inputs": [
        {
          "internalType": "address",
          "name": "from",
          "type": "address"
        },
        {
          "internalType": "address",
          "name": "to",
          "type": "address"
        },
        {
          "internalType": "uint256",
          "name": "value",
          "type": "uint256"
        }
      ],
      "name": "transferFrom",
      "outputs": [
        {
          "internalType": "bool",
          "name": "",
          "type": "bool"
        }
      ],
      "stateMutability": "nonpayable",
      "type": "function"
    },
    {
      "inputs": [
        {
          "internalType": "uint256",
          "name": "amount",
          "type": "uint256"
        }
      ],
      "name": "withdraw",
      "outputs": [],
      "stateMutability": "nonpayable",
      "type": "function"
    },
    {
      "inputs": [],
      "name": "withdrawFee",
      "outputs": [
        {
          "internalType": "uint256",
          "name": "",
          "type": "uint256"
        }
      ],
      "stateMutability": "view",
      "type": "function"
    },
    {
      "inputs": [
        {
          "internalType": "uint256",
          "name": "dt",
          "type": "uint256"
        }
      ],
      "name": "yield",
      "outputs": [
        {
          "internalType": "uint256",
          "name": "y",
          "type": "uint256"
        }
      ],
      "stateMutability": "view",
      "type": "function"
    },
    {
      "inputs": [],
      "name": "name",
      "outputs": [
        {
          "internalType": "string",
          "name": "",
          "type": "string"
        }
      ],
      "stateMutability": "view",
      "type": "function"
    },
    {
      "inputs": [],
      "name": "symbol",
      "outputs": [
        {
          "internalType": "string",
          "name": "",
          "type": "string"
        }
      ],
      "stateMutability": "view",
      "type": "function"
    },
    {
      "inputs": [
        {
          "internalType": "address",
          "name": "ownr",
          "type": "address"
        }
      ],
      "name": "valueOf",
      "outputs": [
        {
          "internalType": "uint256",
          "name": "",
          "type": "uint256"
        }
      ],
      "stateMutability": "view",
      "type": "function"
    }
  ],
  "bytecode": "0x60806040523480156200001157600080fd5b506040518060600160405280602681526020016200607760269139604051819046908060526200609d8239604080519182900360520182208551602096870120838301835260018452603160f81b93870193909352815180870191909152808201929092527fc89efdaa54c0f20c7adf612882df0950f5a951637e0307cdcb4c672f298b8bc6606083015260808201939093523060a0808301919091528351808303909101815260c090910190925250805191012060075550615f9d80620000da6000396000f3fe608060405234801561001057600080fd5b50600436106102535760003560e01c806370a0823111610146578063a48028aa116100c3578063bd67301e11610087578063bd67301e14610c30578063c7f1978e14610c65578063d259945d14610c6d578063d505accf14610d11578063dd62ed3e14610d62578063e941fa7814610d9057610253565b8063a48028aa14610a79578063a57a8aad14610a9f578063a9059cbb14610b44578063aaf10f4214610b70578063ad56d52e14610b7857610253565b80638bd9513e1161010a5780638bd9513e146109095780638e424b6b1461091157806395a2251f146109ce57806395d89b41146109f45780639cfbb00b146109fc57610253565b806370a08231146107db578063765287ef146108015780637ecebe001461081e5780638730b20514610844578063893d20e8146108e557610253565b80633644e515116101d457806345e776331161019857806345e77633146106905780635838d127146106985780635c1bfb32146106b85780635cfc1a51146106de57806365288dde146106e657610253565b80633644e515146104ea57806336977d32146104f257806339dc5ef214610560578063428f15d614610596578063439fa0881461063f57610253565b8063204f83f91161021b578063204f83f91461046957806323b872dd146104715780632e1a7d4d146104a757806330adf81f146104c4578063313ce567146104cc57610253565b806304804ee81461025857806306fdde03146102ce578063095ea7b31461034b578063096457571461038b57806318160ddd1461044f575b600080fd5b6102cc6004803603606081101561026e57600080fd5b810190602081018135600160201b81111561028857600080fd5b82018360208201111561029a57600080fd5b803590602001918460018302840111600160201b831117156102bb57600080fd5b919350915080359060200135610d98565b005b6102d6610de6565b6040805160208082528351818301528351919283929083019185019080838360005b838110156103105781810151838201526020016102f8565b50505050905090810190601f16801561033d5780820380516001836020036101000a031916815260200191505b509250505060405180910390f35b6103776004803603604081101561036157600080fd5b506001600160a01b038135169060200135610e07565b604080519115158252519081900360200190f35b6102cc600480360360e08110156103a157600080fd5b810190602081018135600160201b8111156103bb57600080fd5b8201836020820111156103cd57600080fd5b803590602001918460018302840111600160201b831117156103ee57600080fd5b91908080601f0160208091040260200160405190810160405280939291908181526020018383808284376000920191909152509295505082359350505060208101359060408101359060ff6060820135169060808101359060a00135610e1d565b6104576115cd565b60408051918252519081900360200190f35b6104576115d3565b6103776004803603606081101561048757600080fd5b506001600160a01b038135811691602081013590911690604001356115d9565b6102cc600480360360208110156104bd57600080fd5b50356116b5565b6104576118f3565b6104d4611917565b6040805160ff9092168252519081900360200190f35b61045761191c565b6102cc6004803603602081101561050857600080fd5b810190602081018135600160201b81111561052257600080fd5b82018360208201111561053457600080fd5b803590602001918460018302840111600160201b8311171561055557600080fd5b509092509050611922565b6102cc6004803603606081101561057657600080fd5b506001600160a01b03813581169160208101359091169060400135611a49565b610377600480360360408110156105ac57600080fd5b810190602081018135600160201b8111156105c657600080fd5b8201836020820111156105d857600080fd5b803590602001918460018302840111600160201b831117156105f957600080fd5b91908080601f0160208091040260200160405190810160405280939291908181526020018383808284376000920191909152509295505050903560ff169150611c7d9050565b6102cc600480360360e081101561065557600080fd5b506001600160a01b03813581169160208101359091169060408101359060608101359060ff6080820135169060a08101359060c00135611f32565b6102d6611fd0565b6102d6600480360360208110156106ae57600080fd5b503560ff16611fe1565b6102cc600480360360208110156106ce57600080fd5b50356001600160a01b0316612240565b61045761229e565b6102cc60048036036101408110156106fd57600080fd5b6001600160a01b038235169160208101359160408201359160ff6060820135169160808201359160a08101359181019060e0810160c0820135600160201b81111561074757600080fd5b82018360208201111561075957600080fd5b803590602001918460208302840111600160201b8311171561077a57600080fd5b919390929091602081019035600160201b81111561079757600080fd5b8201836020820111156107a957600080fd5b803590602001918460208302840111600160201b831117156107ca57600080fd5b9193509150803590602001356122a4565b610457600480360360208110156107f157600080fd5b50356001600160a01b03166128e7565b6104576004803603602081101561081757600080fd5b5035612902565b6104576004803603602081101561083457600080fd5b50356001600160a01b0316612986565b6104576004803603602081101561085a57600080fd5b810190602081018135600160201b81111561087457600080fd5b82018360208201111561088657600080fd5b803590602001918460208302840111600160201b831117156108a757600080fd5b919080806020026020016040519081016040528093929190818152602001838360200280828437600092019190915250929550612998945050505050565b6108ed612b00565b604080516001600160a01b039092168252519081900360200190f35b610457612b0f565b6109b56004803603602081101561092757600080fd5b810190602081018135600160201b81111561094157600080fd5b82018360208201111561095357600080fd5b803590602001918460018302840111600160201b8311171561097457600080fd5b91908080601f016020809104026020016040519081016040528093929190818152602001838380828437600092019190915250929550612c60945050505050565b6040805192835260208301919091528051918290030190f35b610457600480360360208110156109e457600080fd5b50356001600160a01b0316612ecc565b6102d6612f29565b6102cc60048036036080811015610a1257600080fd5b810190602081018135600160201b811115610a2c57600080fd5b820183602082011115610a3e57600080fd5b803590602001918460018302840111600160201b83111715610a5f57600080fd5b919350915060ff8135169060208101359060400135612f48565b61045760048036036020811015610a8f57600080fd5b50356001600160a01b0316613015565b6108ed6004803603610120811015610ab657600080fd5b810190602081018135600160201b811115610ad057600080fd5b820183602082011115610ae257600080fd5b803590602001918460018302840111600160201b83111715610b0357600080fd5b91935091508035906020810135906001600160a01b036040820135169060608101359060808101359060ff60a0820135169060c08101359060e00135613055565b61037760048036036040811015610b5a57600080fd5b506001600160a01b038135169060200135613135565b6108ed613187565b6108ed60048036036080811015610b8e57600080fd5b810190602081018135600160201b811115610ba857600080fd5b820183602082011115610bba57600080fd5b803590602001918460018302840111600160201b83111715610bdb57600080fd5b91908080601f01602080910402602001604051908101604052809392919081815260200183838082843760009201919091525092955050823593505050602081013590604001356001600160a01b0316613196565b6102cc600480360360a0811015610c4657600080fd5b508035906020810135906040810135906060810135906080013561369f565b6103776136be565b6109b560048036036020811015610c8357600080fd5b810190602081018135600160201b811115610c9d57600080fd5b820183602082011115610caf57600080fd5b803590602001918460018302840111600160201b83111715610cd057600080fd5b91908080601f01602080910402602001604051908101604052809392919081815260200183838082843760009201919091525092955061373a945050505050565b6102cc600480360360e0811015610d2757600080fd5b506001600160a01b03813581169160208101359091169060408101359060608101359060ff6080820135169060a08101359060c00135613999565b61045760048036036040811015610d7857600080fd5b506001600160a01b0381358116916020013516613b8c565b610457613bb7565b6000610ddf85858080601f01602080910402602001604051908101604052809392919081815260200183838082843760009201829052508893508792509050808680610e1d565b5050505050565b6060604051806060016040528060268152602001615e736026913990505b90565b6000610e14338484613bbd565b90505b92915050565b60008511610e63576040805162461bcd60e51b815260206004820152600e60248201526d696e76616c696420766f6c756d6560901b604482015290519081900360640190fd5b610e6c87613c05565b610e74615b76565b600d886040518082805190602001908083835b60208310610ea65780518252601f199092019160209182019101610e87565b51815160209384036101000a6000190180199092169116179052920194855250604080519485900382018520610140860190915280546001600160a01b03811686529093509084019150600160a01b900460ff166001811115610f0557fe5b6001811115610f1057fe5b815260018201546001600160781b03808216602080850191909152600160781b80840463ffffffff908116604080880191909152600160981b860482166060880152600160b81b909504166080860152600286015480841660a08701520490911660c084015260038401805483518184028101840190945280845260e0909401939091830182828015610ff457602002820191906000526020600020906000905b82829054906101000a90046001600160781b03166001600160781b0316815260200190600f0190602082600e01049283019260010382029150808411610fb15790505b505050505081526020016004820180548060200260200160405190810160405280929190818152602001828054801561107e57602002820191906000526020600020906000905b82829054906101000a90046001600160781b03166001600160781b0316815260200190600f0190602082600e0104928301926001038202915080841161103b5790505b50505050508152505090506110998860028360000151613cc5565b6110d9576040805162461bcd60e51b815260206004820152600c60248201526b6f7574206f662072616e676560a01b604482015290519081900360640190fd5b6110e587826002613de0565b600954604051638c922b6360e01b81526020600482018181528c5160248401528c51949b506000946001600160a01b0390941693638c922b63938e938392604490920191908501908083838b5b8381101561114a578181015183820152602001611132565b50505050905090810190601f1680156111775780820380516001836020036101000a031916815260200191505b509250505060206040518083038186803b15801561119457600080fd5b505afa1580156111a8573d6000803e3d6000fd5b505050506040513d60208110156111be57600080fd5b50519050808615611254576040805163d505accf60e01b8152336004820152306024820152604481018a90526064810189905260ff8816608482015260a4810187905260c4810186905290516001600160a01b0383169163d505accf9160e480830192600092919082900301818387803b15801561123b57600080fd5b505af115801561124f573d6000803e3d6000fd5b505050505b604080516323b872dd60e01b8152336004820152306024820152604481018a905290516001600160a01b038316916323b872dd9160648083019260209291908290030181600087803b1580156112a957600080fd5b505af11580156112bd573d6000803e3d6000fd5b505050506040513d60208110156112d357600080fd5b50506040805163d0acc58f60e01b815230600482015290516000916001600160a01b0384169163d0acc58f91602480820192602092909190829003018186803b15801561131f57600080fd5b505afa158015611333573d6000803e3d6000fd5b505050506040513d602081101561134957600080fd5b5051905080156113c157600061135f828b613e55565b9050826001600160a01b03166342966c68826040518263ffffffff1660e01b815260040180828152602001915050600060405180830381600087803b1580156113a757600080fd5b505af11580156113bb573d6000803e3d6000fd5b50505050505b6017546000906113e7906113db8d8d63ffffffff613e6b16565b9063ffffffff613ec416565b600954604080516356a6d9ef60e01b81523360048201526024810184905290519293506001600160a01b03909116916356a6d9ef9160448082019260009290919082900301818387803b15801561143d57600080fd5b505af1158015611451573d6000803e3d6000fd5b50505050600061145f612b0f565b116114a8576040805162461bcd60e51b8152602060048201526014602482015273706f6f6c2062616c616e636520746f6f206c6f7760601b604482015290519081900360640190fd5b604080516370a0823160e01b815230600482015290516000916001600160a01b038616916370a0823191602480820192602092909190829003018186803b1580156114f257600080fd5b505afa158015611506573d6000803e3d6000fd5b505050506040513d602081101561151c57600080fd5b505160e08701519091506001600160781b0316811115611576576040805162461bcd60e51b815260206004820152601060248201526f65786365737369766520766f6c756d6560801b604482015290519081900360640190fd5b604080518d8152602081018d9052815133926001600160a01b038916927fa082022e93cfcd9f1da5f9236718053910f7e840da080c789c7845698dc032ff929081900390910190a350505050505050505050505050565b60085490565b60135490565b60006115e4846128e7565b8211156115f057600080fd5b6001600160a01b038416600090815260056020908152604080832033845290915290205482111561162057600080fd5b6001600160a01b03831661163357600080fd5b61163d8483613f06565b6116478383613f3f565b6001600160a01b038416600090815260056020908152604080832033845290915290205461167b908363ffffffff613f5816565b6001600160a01b03851660009081526005602090815260408083203384529091529020556116aa848484613f9a565b5060015b9392505050565b60006116c0336128e7565b905081811015611717576040805162461bcd60e51b815260206004820152601b60248201527f696e73756666696369656e742063616c6c65722062616c616e63650000000000604482015290519081900360640190fd5b6000611736826113db8561172a33613015565b9063ffffffff613e6b16565b905060006117676018546113db61175a601154601854613f5890919063ffffffff16565b859063ffffffff613e6b16565b9050611771612b0f565b8111156117c1576040805162461bcd60e51b8152602060048201526019602482015278696e73756666696369656e7420706f6f6c2062616c616e636560381b604482015290519081900360640190fd5b6000806117cc613fea565b600954604080516356a6d9ef60e01b81523360048201526024810188905290519395509193506001600160a01b0316916356a6d9ef9160448082019260009290919082900301818387803b15801561182357600080fd5b505af1158015611837573d6000803e3d6000fd5b5050600c546001600160a01b0316915063e2854727905061185e848463ffffffff6140e516565b6118678761414a565b6000036040518363ffffffff1660e01b81526004018083815260200182815260200192505050600060405180830381600087803b1580156118a757600080fd5b505af11580156118bb573d6000803e3d6000fd5b505050506118c93387613f06565b6008546118dc908763ffffffff613f5816565b6008556118eb33600088613f9a565b505050505050565b7f6e71edae12b1b97f4d1f60370fef10105fa2faae0126114a169c64845d6126c981565b601290565b60075481565b61192a614192565b600d8282604051808383808284379190910194855250506040519283900360200190922080546001600160a81b03191681556001810180546001600160d81b03191690556002810180546001600160f01b03191690559150600090506119936003830182615bcd565b6119a1600483016000615bcd565b50506119e4601483838080601f0160208091040260200160405190810160405280939291908181526020018383808284376000920191909152506141f792505050565b507f4b62493f4f8ba00316d1e11c870ddc857bd37e50aafe15a7ad4d3f6ac1c6d34d828260405180806020018281038252848482818152602001925080828437600083820152604051601f909101601f19169092018290039550909350505050a15050565b600080611a54613fea565b91509150611a628484614326565b600954604080516370a0823160e01b815230600482015290516000926001600160a01b0316916370a08231916024808301926020929190829003018186803b158015611aad57600080fd5b505afa158015611ac1573d6000803e3d6000fd5b505050506040513d6020811015611ad757600080fd5b5051601254909150811115611b27576040805162461bcd60e51b815260206004820152601160248201527018d85c1858da5d1e48195e18d959591959607a1b604482015290519081900360640190fd5b600c546001600160a01b031663e2854727611b48858563ffffffff6140e516565b611b60611b5b858863ffffffff613f5816565b61414a565b6040518363ffffffff1660e01b81526004018083815260200182815260200192505050600060405180830381600087803b158015611b9d57600080fd5b505af1158015611bb1573d6000803e3d6000fd5b5050600854915060009050611bcc848463ffffffff6140e516565b90506000611bed826113db60185461172a8a89613f5890919063ffffffff16565b90506103e8600084611c0e57611c09848363ffffffff613e6b16565b611c39565b601854611c3990611c25908563ffffffff613f5816565b6113db8461172a898863ffffffff613e6b16565b9050611c4581836143d1565b9050611c518b82613f3f565b611c61858263ffffffff61441416565b600855611c7060008c83613f9a565b5050505050505050505050565b600a5460408051630bbe4fd560e41b815290516001926001600160a01b03169163bbe4fd50916004808301926020929190829003018186803b158015611cc257600080fd5b505afa158015611cd6573d6000803e3d6000fd5b505050506040513d6020811015611cec57600080fd5b50516040518451600d918691819060208401908083835b60208310611d225780518252601f199092019160209182019101611d03565b51815160209384036101000a6000190180199092169116179052920194855250604051938490030190922060010154600160781b900463ffffffff16929092119150611d72905057506000610e17565b6001826002811115611d8057fe5b1480611d9757506002826002811115611d9557fe5b145b15610e1757611e118383600d866040518082805190602001908083835b60208310611dd35780518252601f199092019160209182019101611db4565b51815160209384036101000a60001901801990921691161790529201948552506040519384900301909220546001600160a01b03169150613cc59050565b611e1d57506000610e17565b60006001836002811115611e2d57fe5b14611eac57600d846040518082805190602001908083835b60208310611e645780518252601f199092019160209182019101611e45565b51815160209384036101000a6000190180199092169116179052920194855250604051938490030190922060020154600160781b90046001600160781b03169150611f1a9050565b600d846040518082805190602001908083835b60208310611ede5780518252601f199092019160209182019101611ebf565b51815160209384036101000a60001901801990921691161790529201948552506040519384900301909220600201546001600160781b03169150505b90506000611f2985838661446e565b11949350505050565b6040805163d505accf60e01b8152336004820152306024820152604481018790526064810186905260ff8516608482015260a4810184905260c4810183905290516001600160a01b0388169163d505accf9160e480830192600092919082900301818387803b158015611fa457600080fd5b505af1158015611fb8573d6000803e3d6000fd5b50505050611fc7878787611a49565b50505050505050565b6060611fdc6001611fe1565b905090565b606060005b60145481101561223a576120996014828154811061200057fe5b600091825260209182902001805460408051601f600260001961010060018716150201909416939093049283018590048502810185019091528181529283018282801561208e5780601f106120635761010080835404028352916020019161208e565b820191906000526020600020905b81548152906001019060200180831161207157829003601f168201915b505050505084611c7d565b1561223257815161214b57601481815481106120b157fe5b600091825260209182902001805460408051601f600260001961010060018716150201909416939093049283018590048502810185019091528181529283018282801561213f5780601f106121145761010080835404028352916020019161213f565b820191906000526020600020905b81548152906001019060200180831161212257829003601f168201915b50505050509150612232565b816014828154811061215957fe5b906000526020600020016040516020018083805190602001908083835b602083106121955780518252601f199092019160209182019101612176565b6001836020036101000a03801982511681845116808217855250505050505090500180600560f91b8152506001018280546001816001161561010002031660029004801561221a5780601f106121f857610100808354040283529182019161221a565b820191906000526020600020905b815481529060010190602001808311612206575b50509250505060405160208183030381529060405291505b600101611fe6565b50919050565b6003541561228d576040805162461bcd60e51b81526020600482015260156024820152741a5b9a5d1a585b1a5e985d1a5bdb881b1bd8dad959605a1b604482015290519081900360640190fd5b600160035561229b81614669565b50565b60125481565b6122ac614192565b6013548a106122f5576040805162461bcd60e51b815260206004820152601060248201526f696e76616c6964206d6174757269747960801b604482015290519081900360640190fd5b841580159061231357508261231186600263ffffffff613e6b16565b145b61235e576040805162461bcd60e51b8152602060048201526017602482015276696e76616c69642070726963696e67207375726661636560481b604482015290519081900360640190fd5b6060600960009054906101000a90046001600160a01b03166001600160a01b031663edb5fd4f8e8c8f8f6040518563ffffffff1660e01b815260040180856001600160a01b03166001600160a01b031681526020018460018111156123bf57fe5b60ff16815260200183815260200182815260200194505050505060006040518083038186803b1580156123f157600080fd5b505afa158015612405573d6000803e3d6000fd5b505050506040513d6000823e601f3d908101601f19168201604052602081101561242e57600080fd5b8101908080516040519392919084600160201b82111561244d57600080fd5b90830190602082018581111561246257600080fd5b8251600160201b81118282018810171561247b57600080fd5b82525081516020918201929091019080838360005b838110156124a8578181015183820152602001612490565b50505050905090810190601f1680156124d55780820380516001836020036101000a031916815260200191505b506040525050509050600d816040518082805190602001908083835b602083106125105780518252601f1990920191602091820191016124f1565b51815160209384036101000a60001901801990921691161790529201948552506040519384900301909220600301541515915061258e90505760148054600181018255600091909152815161258c917fce6d7b5282bd9a3661ae061feed1dbda4e52ab073b1f9285be6e155d9c38d4ec01906020840190615bf2565b505b6040518061014001604052808e6001600160a01b031681526020018b60018111156125b557fe5b81526020016125c38e614727565b6001600160781b031681526020016125da8d61476b565b63ffffffff1681526020016125ee8b61476b565b63ffffffff1681526020016126028a61476b565b63ffffffff16815260200161261685614727565b6001600160781b0316815260200161262d84614727565b6001600160781b03168152602001888880806020026020016040519081016040528093929190818152602001838360200280828437600092019190915250505090825250604080516020888102828101820190935288825292830192909189918991829185019084908082843760009201919091525050509152506040518251600d918491819060208401908083835b602083106126dc5780518252601f1990920191602091820191016126bd565b51815160209384036101000a6000190180199092169116179052920194855250604051938490038101909320845181546001600160a01b0319166001600160a01b039091161780825593850151909390925083915060ff60a01b1916600160a01b83600181111561274957fe5b021790555060408201516001820180546060850151608086015160a08701516001600160781b03199384166001600160781b039687161763ffffffff60781b1916600160781b63ffffffff94851681029190911763ffffffff60981b1916600160981b938516939093029290921763ffffffff60b81b1916600160b81b93909116929092029190911790925560c085015160028501805460e0880151931691851691909117600160781b600160f01b031916919093169091021790556101008201518051612821916003840191602090910190615c6c565b50610120820151805161283e916004840191602090910190615c6c565b505060408051602080825284518183015284517f27136bc3b80a2a48083d0f3dd8acaf97309ab58abf6408d4ab39af25b6b4168e945085938392908301919085019080838360005b8381101561289e578181015183820152602001612886565b50505050905090810190601f1680156128cb5780820380516001836020036101000a031916815260200191505b509250505060405180910390a150505050505050505050505050565b6001600160a01b031660009081526004602052604090205490565b600c5460408051631dc4ba9f60e01b81523060048201526024810184905290516000926001600160a01b031691631dc4ba9f916044808301926020929190829003018186803b15801561295457600080fd5b505afa158015612968573d6000803e3d6000fd5b505050506040513d602081101561297e57600080fd5b505192915050565b60066020526000908152604090205481565b60006129a26136be565b6129e8576040805162461bcd60e51b81526020600482015260126024820152711c995919595b481b9bdd08185b1b1bddd95960721b604482015290519081900360640190fd5b600954604080516370a0823160e01b815230600482015290516000926001600160a01b0316916370a08231916024808301926020929190829003018186803b158015612a3357600080fd5b505afa158015612a47573d6000803e3d6000fd5b505050506040513d6020811015612a5d57600080fd5b50516008549091508060005b8551811015612af45760006001600160a01b0316868281518110612a8957fe5b60200260200101516001600160a01b031614612aec57600080612ac086868a8681518110612ab357fe5b60200260200101516147af565b9092509050612ad5878263ffffffff61441416565b9650612ae7848363ffffffff613f5816565b935050505b600101612a69565b50600855509092915050565b6000546001600160a01b031690565b600954604080516370a0823160e01b8152306004820152905160009283926001600160a01b03909116916370a0823191602480820192602092909190829003018186803b158015612b5f57600080fd5b505afa158015612b73573d6000803e3d6000fd5b505050506040513d6020811015612b8957600080fd5b5051601854601054919250600091612bad91906113db90859063ffffffff613e6b16565b600954604080516352fee2ef60e11b81523060048201529051929350600092612c38926001600160a01b03169163a5fdc5de916024808301926020929190829003018186803b158015612bff57600080fd5b505afa158015612c13573d6000803e3d6000fd5b505050506040513d6020811015612c2957600080fd5b5051849063ffffffff613f5816565b9050818111612c48576000612c58565b612c58818363ffffffff613f5816565b935050505090565b600080612c6c83613c05565b612c74615b76565b600d846040518082805190602001908083835b60208310612ca65780518252601f199092019160209182019101612c87565b51815160209384036101000a6000190180199092169116179052920194855250604080519485900382018520610140860190915280546001600160a01b03811686529093509084019150600160a01b900460ff166001811115612d0557fe5b6001811115612d1057fe5b815260018201546001600160781b03808216602080850191909152600160781b80840463ffffffff908116604080880191909152600160981b860482166060880152600160b81b909504166080860152600286015480841660a08701520490911660c084015260038401805483518184028101840190945280845260e0909401939091830182828015612df457602002820191906000526020600020906000905b82829054906101000a90046001600160781b03166001600160781b0316815260200190600f0190602082600e01049283019260010382029150808411612db15790505b5050505050815260200160048201805480602002602001604051908101604052809291908181526020018280548015612e7e57602002820191906000526020600020906000905b82829054906101000a90046001600160781b03166001600160781b0316815260200190600f0190602082600e01049283019260010382029150808411612e3b5790505b5050505050815250509050612e94816002614881565b9250612ec4612ea68583866002614a0f565b612ebf868460e001516001600160781b0316600261446e565b613e55565b915050915091565b60408051600180825281830190925260009160609190602080830190803883390190505090508281600081518110612f0057fe5b60200260200101906001600160a01b031690816001600160a01b0316815250506116ae81612998565b6040805180820190915260058152644c4c50544b60d81b602082015290565b612f50614192565b6040518060400160405280612f6484614727565b6001600160781b03168152602001612f7b83614727565b6001600160781b0316815250600e868660405180838380828437808301925050509250505090815260200160405180910390206000856002811115612fbc57fe5b81526020808201929092526040016000208251815493909201516001600160781b03908116600160781b02600160781b600160f01b0319919093166001600160781b031990941693909317929092161790555050505050565b6000806000613022613fea565b9150915061304d6130316115cd565b6113db61303d876128e7565b61172a868663ffffffff6140e516565b949350505050565b6040805163d505accf60e01b8152336004820152306024820152604481018790526064810186905260ff8516608482015260a4810184905260c4810183905290516000916001600160a01b0389169163d505accf9160e480820192869290919082900301818387803b1580156130ca57600080fd5b505af11580156130de573d6000803e3d6000fd5b505050506131268b8b8080601f0160208091040260200160405190810160405280939291908181526020018383808284376000920191909152508d92508c91508b9050613196565b9b9a5050505050505050505050565b6000613140336128e7565b82111561314c57600080fd5b6001600160a01b03831661315f57600080fd5b6131693383613f06565b6131738383613f3f565b61317e338484613f9a565b50600192915050565b6002546001600160a01b031690565b60008083116131dd576040805162461bcd60e51b815260206004820152600e60248201526d696e76616c696420766f6c756d6560901b604482015290519081900360640190fd5b6131e685613c05565b6131ee615b76565b600d866040518082805190602001908083835b602083106132205780518252601f199092019160209182019101613201565b51815160209384036101000a6000190180199092169116179052920194855250604080519485900382018520610140860190915280546001600160a01b03811686529093509084019150600160a01b900460ff16600181111561327f57fe5b600181111561328a57fe5b815260018201546001600160781b03808216602080850191909152600160781b80840463ffffffff908116604080880191909152600160981b860482166060880152600160b81b909504166080860152600286015480841660a08701520490911660c084015260038401805483518184028101840190945280845260e090940193909183018282801561336e57602002820191906000526020600020906000905b82829054906101000a90046001600160781b03166001600160781b0316815260200190600f0190602082600e0104928301926001038202915080841161332b5790505b50505050508152602001600482018054806020026020016040519081016040528092919081815260200182805480156133f857602002820191906000526020600020906000905b82829054906101000a90046001600160781b03166001600160781b0316815260200190600f0190602082600e010492830192600103820291508084116133b55790505b50505050508152505090506134138660018360000151613cc5565b613453576040805162461bcd60e51b815260206004820152600c60248201526b6f7574206f662072616e676560a01b604482015290519081900360640190fd5b61345f81868686614f5a565b600954604051638c922b6360e01b81526020600482018181528a5160248401528a519499506001600160a01b0390931693638c922b63938b93909283926044909201919085019080838360005b838110156134c45781810151838201526020016134ac565b50505050905090810190601f1680156134f15780820380516001836020036101000a031916815260200191505b509250505060206040518083038186803b15801561350e57600080fd5b505afa158015613522573d6000803e3d6000fd5b505050506040513d602081101561353857600080fd5b5051604080516370a0823160e01b8152306004820152905191935083916000916001600160a01b038416916370a0823191602480820192602092909190829003018186803b15801561358957600080fd5b505afa15801561359d573d6000803e3d6000fd5b505050506040513d60208110156135b357600080fd5b50519050808611156135d0576135cb828488336150c5565b61364c565b6040805163a9059cbb60e01b81523360048201526024810188905290516001600160a01b0384169163a9059cbb9160448083019260209291908290030181600087803b15801561361f57600080fd5b505af1158015613633573d6000803e3d6000fd5b505050506040513d602081101561364957600080fd5b50505b6040805188815260208101889052815133926001600160a01b038816927f89f5adc174562e07c9c9b1cae7109bbecb21cf9d1b2847e550042b8653c54a0e929081900390910190a3505050949350505050565b6136a7614192565b600f94909455601092909255601155601255601355565b601354600a5460408051630bbe4fd560e41b81529051600093926001600160a01b03169163bbe4fd50916004808301926020929190829003018186803b15801561370757600080fd5b505afa15801561371b573d6000803e3d6000fd5b505050506040513d602081101561373157600080fd5b50511015905090565b60008061374683613c05565b61374e615b76565b600d846040518082805190602001908083835b602083106137805780518252601f199092019160209182019101613761565b51815160209384036101000a6000190180199092169116179052920194855250604080519485900382018520610140860190915280546001600160a01b03811686529093509084019150600160a01b900460ff1660018111156137df57fe5b60018111156137ea57fe5b815260018201546001600160781b03808216602080850191909152600160781b80840463ffffffff908116604080880191909152600160981b860482166060880152600160b81b909504166080860152600286015480841660a08701520490911660c084015260038401805483518184028101840190945280845260e09094019390918301828280156138ce57602002820191906000526020600020906000905b82829054906101000a90046001600160781b03166001600160781b0316815260200190600f0190602082600e0104928301926001038202915080841161388b5790505b505050505081526020016004820180548060200260200160405190810160405280929190818152602001828054801561395857602002820191906000526020600020906000905b82829054906101000a90046001600160781b03166001600160781b0316815260200190600f0190602082600e010492830192600103820291508084116139155790505b505050505081525050905061396e816001614881565b9250612ec46139808583866001614a0f565b612ebf868460c001516001600160781b0316600161446e565b428410156139df576040805162461bcd60e51b815260206004820152600e60248201526d1c195c9b5a5d08195e1c1a5c995960921b604482015290519081900360640190fd5b6007546001600160a01b0380891660008181526006602090815260408083208054600180820190925582517f6e71edae12b1b97f4d1f60370fef10105fa2faae0126114a169c64845d6126c98186015280840196909652958d166060860152608085018c905260a085019590955260c08085018b90528151808603909101815260e08501825280519083012061190160f01b6101008601526101028501969096526101228085019690965280518085039096018652610142840180825286519683019690962095839052610162840180825286905260ff89166101828501526101a284018890526101c28401879052519193926101e280820193601f1981019281900390910190855afa158015613afa573d6000803e3d6000fd5b5050604051601f1901519150506001600160a01b03811615801590613b305750886001600160a01b0316816001600160a01b0316145b613b75576040805162461bcd60e51b8152602060048201526011602482015270696e76616c6964207369676e617475726560781b604482015290519081900360640190fd5b613b80898989613bbd565b50505050505050505050565b6001600160a01b03918216600090815260056020908152604080832093909416825291909152205490565b60115481565b60006001600160a01b038316613bd257600080fd5b6001600160a01b0380851660009081526005602090815260408083209387168352929052208290556116aa8484846152db565b60006001600160a01b0316600d826040518082805190602001908083835b60208310613c425780518252601f199092019160209182019101613c23565b51815160209384036101000a60001901801990921691161790529201948552506040519384900301909220546001600160a01b03169290921415915061229b9050576040805162461bcd60e51b81526020600482015260116024820152701a5b9d985b1a59081bdc1d14de5b589bdb607a1b604482015290519081900360640190fd5b6000613ccf615d20565b600e856040518082805190602001908083835b60208310613d015780518252601f199092019160209182019101613ce2565b51815160209384036101000a60001901801990921691161790529201948552506040519384900301909220915060009050856002811115613d3e57fe5b815260208082019290925260409081016000208151808301909252546001600160781b03808216808452600160781b90920416928201929092529150158015613d92575060208101516001600160781b0316155b15613da15760019150506116ae565b6000613dac8461532b565b82519091506001600160781b03168110801590613dd6575081602001516001600160781b03168111155b9695505050505050565b6000613dec8383614881565b90506001826002811115613dfc57fe5b14613e0a5780841115613e0f565b808410155b6116ae576040805162461bcd60e51b8152602060048201526012602482015271696e73756666696369656e7420707269636560701b604482015290519081900360640190fd5b6000818310613e645781610e14565b5090919050565b600082613e7a57506000610e17565b82820282848281613e8757fe5b0414610e145760405162461bcd60e51b8152600401808060200182810382526021815260200180615e996021913960400191505060405180910390fd5b6000610e1483836040518060400160405280601a81526020017f536166654d6174683a206469766973696f6e206279207a65726f00000000000081525061539f565b613f1f81613f13846128e7565b9063ffffffff613f5816565b6001600160a01b0390921660009081526004602052604090209190915550565b613f1f81613f4c846128e7565b9063ffffffff61441416565b6000610e1483836040518060400160405280601e81526020017f536166654d6174683a207375627472616374696f6e206f766572666c6f770000815250615441565b816001600160a01b0316836001600160a01b03167fddf252ad1be2c89b69c2b068fc378daa952ba7f163c4a11628f55a4df523b3ef836040518082815260200191505060405180910390a3505050565b600954604080516370a0823160e01b8152306004820152905160009283926001600160a01b03909116916370a0823191602480820192602092909190829003018186803b15801561403a57600080fd5b505afa15801561404e573d6000803e3d6000fd5b505050506040513d602081101561406457600080fd5b50516009546040805162b08c1d60e21b815230600482015290519294506001600160a01b03909116916302c2307491602480820192602092909190829003018186803b1580156140b357600080fd5b505afa1580156140c7573d6000803e3d6000fd5b505050506040513d60208110156140dd57600080fd5b505191929050565b60008282018183128015906140fa5750838112155b8061410f575060008312801561410f57508381125b610e145760405162461bcd60e51b8152600401808060200182810382526021815260200180615e526021913960400191505060405180910390fd5b6000600160ff1b821061418e5760405162461bcd60e51b8152600401808060200182810382526028815260200180615ee06028913960400191505060405180910390fd5b5090565b61419a612b00565b6001600160a01b0316336001600160a01b0316146141f5576040805162461bcd60e51b81526020600482015260136024820152723ab730baba3437b934bd32b21031b0b63632b960691b604482015290519081900360640190fd5b565b6000805b835481101561431c57828051906020012084828154811061421857fe5b90600052602060002001604051808280546001816001161561010002031660029004801561427d5780601f1061425b57610100808354040283529182019161427d565b820191906000526020600020905b815481529060010190602001808311614269575b505091505060405180910390201415614314578354849060001981019081106142a257fe5b906000526020600020018482815481106142b857fe5b9060005260206000200190805460018160011615610100020316600290046142e1929190615d37565b50838054806142ec57fe5b6001900381819060005260206000200160006143089190615dac565b90556001915050610e17565b6001016141fb565b5060009392505050565b816143426001600160a01b03821633308563ffffffff61549b16565b600954614362906001600160a01b0383811691168463ffffffff6154fb16565b60095460408051631cee2f7960e11b81523060048201526001600160a01b03868116602483015260448201869052915191909216916339dc5ef291606480830192600092919082900301818387803b1580156143bd57600080fd5b505af1158015611fc7573d6000803e3d6000fd5b6000610e146143e783600263ffffffff613ec416565b8385816143f057fe5b0610156143fe576000614401565b60015b60ff16613f4c858563ffffffff613ec416565b600082820183811015610e14576040805162461bcd60e51b815260206004820152601b60248201527f536166654d6174683a206164646974696f6e206f766572666c6f770000000000604482015290519081900360640190fd5b600954604051638c922b6360e01b8152602060048201818152865160248401528651600094859485946001600160a01b0390921693638c922b63938b9391928392604490910191908501908083838b5b838110156144d65781810151838201526020016144be565b50505050905090810190601f1680156145035780820380516001836020036101000a031916815260200191505b509250505060206040518083038186803b15801561452057600080fd5b505afa158015614534573d6000803e3d6000fd5b505050506040513d602081101561454a57600080fd5b50519050600184600281111561455c57fe5b14156145db576040805163d0acc58f60e01b815230600482015290516001600160a01b0383169163d0acc58f916024808301926020929190829003018186803b1580156145a857600080fd5b505afa1580156145bc573d6000803e3d6000fd5b505050506040513d60208110156145d257600080fd5b50519150614650565b604080516370a0823160e01b815230600482015290516001600160a01b038316916370a08231916024808301926020929190829003018186803b15801561462157600080fd5b505afa158015614635573d6000803e3d6000fd5b505050506040513d602081101561464b57600080fd5b505191505b81851161465e576000613dd6565b509092039392505050565b61467281615613565b60408051630110ceef60e21b815260206004820181905260126024830152712634b732b0b924b73a32b93837b630ba37b960711b604483015291516001600160a01b038416926304433bbc9260648082019391829003018186803b1580156146d957600080fd5b505afa1580156146ed573d6000803e3d6000fd5b505050506040513d602081101561470357600080fd5b5051601980546001600160a01b0319166001600160a01b0390921691909117905550565b6000600160781b821061418e5760405162461bcd60e51b8152600401808060200182810382526027815260200180615e2b6027913960400191505060405180910390fd5b6000600160201b821061418e5760405162461bcd60e51b8152600401808060200182810382526026815260200180615eba6026913960400191505060405180910390fd5b6000806147bb836128e7565b9150811561486e576103e86147f36147ed866113db6147e0878663ffffffff613e6b16565b8a9063ffffffff613e6b16565b826143d1565b91506147ff8484613f06565b600954604080516356a6d9ef60e01b81526001600160a01b03878116600483015260248201869052915191909216916356a6d9ef91604480830192600092919082900301818387803b15801561485457600080fd5b505af1158015614868573d6000803e3d6000fd5b50505050505b61487983838361560e565b935093915050565b60195482516000916001600160a01b03169063add386e2906148a29061532b565b608086015160a087015161010088015161012089015160018960028111156148c657fe5b146148e557600f546018546148e09163ffffffff613f5816565b6148fa565b601854600f546148fa9163ffffffff61441416565b6040516001600160e01b031960e089901b1681526004810187815263ffffffff87811660248401528616604483015260a4820183905260c060648301908152855160c4840152855191929091608482019160e401906020888101910280838360005b8381101561497457818101518382015260200161495c565b50505050905001838103825285818151815260200191508051906020019060200280838360005b838110156149b357818101518382015260200161499b565b505050509050019850505050505050505060206040518083038186803b1580156149dc57600080fd5b505afa1580156149f0573d6000803e3d6000fd5b505050506040513d6020811015614a0657600080fd5b50519392505050565b600080614a29601054601854613f5890919063ffffffff16565b600954865160175460208901516040808b015160608c01519151635a1a74eb60e11b81526001600160a01b03868116600483019081526024830187905298995060009897169663b434e9d69695949391604401846001811115614a8857fe5b60ff168152602001836001600160781b031681526020018263ffffffff1681526020019550505050505060206040518083038186803b158015614aca57600080fd5b505afa158015614ade573d6000803e3d6000fd5b505050506040513d6020811015614af457600080fd5b505190506001846002811115614b0657fe5b1415614b5e5784811115614b5357614b4e614b40614b336018546113db868a613e6b90919063ffffffff16565b839063ffffffff613f5816565b6113db60175461172a612b0f565b614b57565b6000195b9250614f50565b600954604080516370a0823160e01b815230600482015290516000926001600160a01b0316916370a08231916024808301926020929190829003018186803b158015614ba957600080fd5b505afa158015614bbd573d6000803e3d6000fd5b505050506040513d6020811015614bd357600080fd5b5051600954604080516352fee2ef60e11b815230600482015290519293506000926001600160a01b039092169163a5fdc5de91602480820192602092909190829003018186803b158015614c2657600080fd5b505afa158015614c3a573d6000803e3d6000fd5b505050506040513d6020811015614c5057600080fd5b810190808051906020019092919050505090506000614dd084600960009054906101000a90046001600160a01b03166001600160a01b0316638c922b638d6040518263ffffffff1660e01b81526004018080602001828103825283818151815260200191508051906020019080838360005b83811015614cda578181015183820152602001614cc2565b50505050905090810190601f168015614d075780820380516001836020036101000a031916815260200191505b509250505060206040518083038186803b158015614d2457600080fd5b505afa158015614d38573d6000803e3d6000fd5b505050506040513d6020811015614d4e57600080fd5b50516040805163d0acc58f60e01b815230600482015290516001600160a01b039092169163d0acc58f91602480820192602092909190829003018186803b158015614d9857600080fd5b505afa158015614dac573d6000803e3d6000fd5b505050506040513d6020811015614dc257600080fd5b50519063ffffffff613e6b16565b9050808211614de0576000614df0565b614df0828263ffffffff613f5816565b6009548a5160208c01516040808e015160608f015191516383a7e7e160e01b81526001600160a01b03858116600483019081529799506000979616956383a7e7e195949391602401846001811115614e4457fe5b60ff168152602001836001600160781b031681526020018263ffffffff16815260200194505050505060206040518083038186803b158015614e8557600080fd5b505afa158015614e99573d6000803e3d6000fd5b505050506040513d6020811015614eaf57600080fd5b5051905080891115614f0257614efd614ece8a8363ffffffff613f5816565b6113db60175461172a614ef08b6113db6018548b613e6b90919063ffffffff16565b899063ffffffff613f5816565b614f06565b6000195b9650614f2a87614f258b6113db60175489613e6b90919063ffffffff16565b6159a9565b9650614f4987612ebf8b6113db60175489613e6b90919063ffffffff16565b9650505050505b5050949350505050565b6000614f6884866001613de0565b93506000614f856017546113db8688613e6b90919063ffffffff16565b6009549091506001600160a01b0384811691161461504957600b5460408051632a6f500560e11b81526001600160a01b038681166004830152825160009485949216926354dea00a926024808301939192829003018186803b158015614fea57600080fd5b505afa158015614ffe573d6000803e3d6000fd5b505050506040513d604081101561501457600080fd5b5080516020909101519092509050615036816113db858563ffffffff613e6b16565b92506150428584614326565b50506150bb565b600954604080516353035ca560e11b81523360048201523060248201526044810184905290516001600160a01b039092169163a606b94a9160648082019260009290919082900301818387803b1580156150a257600080fd5b505af11580156150b6573d6000803e3d6000fd5b505050505b5092949350505050565b6040805163d0acc58f60e01b815230600482015290516000916001600160a01b0387169163d0acc58f91602480820192602092909190829003018186803b15801561510f57600080fd5b505afa158015615123573d6000803e3d6000fd5b505050506040513d602081101561513957600080fd5b505160c08501519091506001600160781b031661515c828563ffffffff61441416565b11156151a2576040805162461bcd60e51b815260206004820152601060248201526f65786365737369766520766f6c756d6560801b604482015290519081900360640190fd5b600954845160208601516040808801516060890151915163169a737360e31b81526001600160a01b0385811660048301908152602483018b905296169563b4d39b9895948a9490939290918a916044018560018111156151fe57fe5b60ff168152602001846001600160781b031681526020018363ffffffff168152602001826001600160a01b03166001600160a01b031681526020019650505050505050602060405180830381600087803b15801561525b57600080fd5b505af115801561526f573d6000803e3d6000fd5b505050506040513d602081101561528557600080fd5b5060009050615292612b0f565b11610ddf576040805162461bcd60e51b8152602060048201526014602482015273706f6f6c2062616c616e636520746f6f206c6f7760601b604482015290519081900360640190fd5b816001600160a01b0316836001600160a01b03167f8c5be1e5ebec7d5bd14f71427d1e84f3dd0314c0f7b2291e5b200ac8c7c3b925836040518082815260200191505060405180910390a3505050565b600080829050806001600160a01b0316638e15f4736040518163ffffffff1660e01b8152600401604080518083038186803b15801561536957600080fd5b505afa15801561537d573d6000803e3d6000fd5b505050506040513d604081101561539357600080fd5b50602001519392505050565b6000818361542b5760405162461bcd60e51b81526004018080602001828103825283818151815260200191508051906020019080838360005b838110156153f05781810151838201526020016153d8565b50505050905090810190601f16801561541d5780820380516001836020036101000a031916815260200191505b509250505060405180910390fd5b50600083858161543757fe5b0495945050505050565b600081848411156154935760405162461bcd60e51b81526020600482018181528351602484015283519092839260449091019190850190808383600083156153f05781810151838201526020016153d8565b505050900390565b604080516001600160a01b0385811660248301528416604482015260648082018490528251808303909101815260849091019091526020810180516001600160e01b03166323b872dd60e01b1790526154f59085906159b8565b50505050565b801580615581575060408051636eb1769f60e11b81523060048201526001600160a01b03848116602483015291519185169163dd62ed3e91604480820192602092909190829003018186803b15801561555357600080fd5b505afa158015615567573d6000803e3d6000fd5b505050506040513d602081101561557d57600080fd5b5051155b6155bc5760405162461bcd60e51b8152600401808060200182810382526036815260200180615f326036913960400191505060405180910390fd5b604080516001600160a01b038416602482015260448082018490528251808303909101815260649091019091526020810180516001600160e01b031663095ea7b360e01b17905261560e9084906159b8565b505050565b61561b613187565b6001600160a01b0316633644e5156040518163ffffffff1660e01b815260040160206040518083038186803b15801561565357600080fd5b505afa158015615667573d6000803e3d6000fd5b505050506040513d602081101561567d57600080fd5b505160075560408051630110ceef60e21b8152602060048201819052600c60248301526b2a34b6b2a83937bb34b232b960a11b604483015291516001600160a01b038416926304433bbc9260648082019391829003018186803b1580156156e357600080fd5b505afa1580156156f7573d6000803e3d6000fd5b505050506040513d602081101561570d57600080fd5b5051600a80546001600160a01b0319166001600160a01b0392831617905560408051630110ceef60e21b8152602060048201819052600f60248301526e4f7074696f6e7345786368616e676560881b60448301529151928416926304433bbc92606480840193919291829003018186803b15801561578a57600080fd5b505afa15801561579e573d6000803e3d6000fd5b505050506040513d60208110156157b457600080fd5b5051600980546001600160a01b0319166001600160a01b0392831617905560408051630110ceef60e21b8152602060048201819052601060248301526f50726f746f636f6c53657474696e677360801b60448301529151928416926304433bbc92606480840193919291829003018186803b15801561583257600080fd5b505afa158015615846573d6000803e3d6000fd5b505050506040513d602081101561585c57600080fd5b5051600b80546001600160a01b0319166001600160a01b0392831617905560408051630110ceef60e21b8152602060048201819052600c60248301526b2cb4b2b6322a3930b1b5b2b960a11b60448301529151928416926304433bbc92606480840193919291829003018186803b1580156158d657600080fd5b505afa1580156158ea573d6000803e3d6000fd5b505050506040513d602081101561590057600080fd5b5051600c80546001600160a01b0319166001600160a01b03928316179055670de0b6b3a7640000601555633b9aca006016556009546040805163a53b004160e01b81529051919092169163a53b0041916004808301926020929190829003018186803b15801561596f57600080fd5b505afa158015615983573d6000803e3d6000fd5b505050506040513d602081101561599957600080fd5b505160175550633b9aca00601855565b6000818311613e645781610e14565b6159ca826001600160a01b0316615b70565b615a1b576040805162461bcd60e51b815260206004820152601f60248201527f5361666545524332303a2063616c6c20746f206e6f6e2d636f6e747261637400604482015290519081900360640190fd5b60006060836001600160a01b0316836040518082805190602001908083835b60208310615a595780518252601f199092019160209182019101615a3a565b6001836020036101000a0380198251168184511680821785525050505050509050019150506000604051808303816000865af19150503d8060008114615abb576040519150601f19603f3d011682016040523d82523d6000602084013e615ac0565b606091505b509150915081615b17576040805162461bcd60e51b815260206004820181905260248201527f5361666545524332303a206c6f772d6c6576656c2063616c6c206661696c6564604482015290519081900360640190fd5b8051156154f557808060200190516020811015615b3357600080fd5b50516154f55760405162461bcd60e51b815260040180806020018281038252602a815260200180615f08602a913960400191505060405180910390fd5b3b151590565b6040805161014081019091526000808252602082019081526000602082018190526040820181905260608083018290526080830182905260a0830182905260c083019190915260e082018190526101009091015290565b50805460008255600101600290049060005260206000209081019061229b9190615dec565b828054600181600116156101000203166002900490600052602060002090601f016020900481019282601f10615c3357805160ff1916838001178555615c60565b82800160010185558215615c60579182015b82811115615c60578251825591602001919060010190615c45565b5061418e929150615dec565b82805482825590600052602060002090600101600290048101928215615d145791602002820160005b83821115615cdf57835183826101000a8154816001600160781b0302191690836001600160781b031602179055509260200192600f01602081600e01049283019260010302615c95565b8015615d125782816101000a8154906001600160781b030219169055600f01602081600e01049283019260010302615cdf565b505b5061418e929150615e06565b604080518082019091526000808252602082015290565b828054600181600116156101000203166002900490600052602060002090601f016020900481019282601f10615d705780548555615c60565b82800160010185558215615c6057600052602060002091601f016020900482015b82811115615c60578254825591600101919060010190615d91565b50805460018160011615610100020316600290046000825580601f10615dd2575061229b565b601f01602090049060005260206000209081019061229b91905b610e0491905b8082111561418e5760008155600101615df2565b610e0491905b8082111561418e5780546001600160781b0319168155600101615e0c56fe53616665436173743a2076616c756520646f65736e27742066697420696e2031323020626974735369676e6564536166654d6174683a206164646974696f6e206f766572666c6f774c696e656172204c697175696469747920506f6f6c2052656465656d61626c6520546f6b656e536166654d6174683a206d756c7469706c69636174696f6e206f766572666c6f7753616665436173743a2076616c756520646f65736e27742066697420696e203332206269747353616665436173743a2076616c756520646f65736e27742066697420696e20616e20696e743235365361666545524332303a204552433230206f7065726174696f6e20646964206e6f7420737563636565645361666545524332303a20617070726f76652066726f6d206e6f6e2d7a65726f20746f206e6f6e2d7a65726f20616c6c6f77616e6365a2646970667358221220bf8b1e81958067c94bbbaff895761c7f66ccf6347a9ecc873ed715e9b1420d3964736f6c634300060000334c696e656172204c697175696469747920506f6f6c2052656465656d61626c6520546f6b656e454950373132446f6d61696e28737472696e67206e616d652c737472696e672076657273696f6e2c75696e7432353620636861696e49642c6164647265737320766572696679696e67436f6e747261637429",
  "source": "pragma solidity >=0.6.0;\n\nimport \"./LinearInterpolator.sol\";\nimport \"./LiquidityPool.sol\";\n\ncontract LinearLiquidityPool is LiquidityPool {\n    \n    LinearInterpolator private interpolator;\n\n    string private constant _name = \"Linear Liquidity Pool Redeemable Token\";\n    string private constant _symbol = \"LLPTK\";\n\n    constructor() LiquidityPool(_name) public {\n        \n    }\n\n    function initialize(Deployer deployer) override internal {\n\n        super.initialize(deployer);\n        interpolator = LinearInterpolator(deployer.getContractAddress(\"LinearInterpolator\"));\n    }\n\n    function name() override external view returns (string memory) {\n        return _name;\n    }\n\n    function symbol() override external view returns (string memory) {\n        return _symbol;\n    }\n\n    function writeOptions(\n        OptionToken tk,\n        PricingParameters memory param,\n        uint volume,\n        address to\n    )\n        internal\n        override\n    {\n        uint _written = tk.writtenVolume(address(this));\n        require(_written.add(volume) <= param.buyStock, \"excessive volume\");\n\n        exchange.writeOptions(\n            param.udlFeed,\n            volume,\n            param.optType,\n            param.strike,\n            param.maturity,\n            to\n        );\n        \n        require(calcFreeBalance() > 0, \"pool balance too low\");\n    }\n\n    function calcOptPrice(PricingParameters memory p, Operation op)\n        internal\n        override\n        view\n        returns (uint)\n    {\n        return interpolator.interpolate(\n            getUdlPrice(p.udlFeed),\n            p.t0,\n            p.t1,\n            p.x,\n            p.y,\n            op == Operation.BUY ? spread.add(fractionBase) : fractionBase.sub(spread)\n        );\n    }\n\n    function calcVolume(\n        string memory optSymbol,\n        PricingParameters memory p,\n        uint price,\n        Operation op\n    )\n        internal\n        override\n        view\n        returns (uint volume)\n    {\n        uint r = fractionBase.sub(reserveRatio);\n\n        uint coll = exchange.calcCollateral(\n            p.udlFeed,\n            volumeBase,\n            p.optType,\n            p.strike,\n            p.maturity\n        );\n\n        if (op == Operation.BUY) {\n\n            volume = coll <= price ? uint(-1) :\n                calcFreeBalance().mul(volumeBase).div(\n                    coll.sub(price.mul(r).div(fractionBase))\n                );\n\n        } else {\n\n            uint bal = exchange.balanceOf(address(this));\n\n            uint poolColl = exchange.collateral(address(this));\n\n            uint writtenColl = OptionToken(\n                exchange.resolveToken(optSymbol)\n            ).writtenVolume(address(this)).mul(coll);\n\n            poolColl = poolColl > writtenColl ? poolColl.sub(writtenColl) : 0;\n            \n            uint iv = uint(exchange.calcIntrinsicValue(\n                p.udlFeed,\n                p.optType,\n                p.strike,\n                p.maturity\n            ));\n\n            volume = price <= iv ? uint(-1) :\n                bal.sub(poolColl.mul(fractionBase).div(r)).mul(volumeBase).div(\n                    price.sub(iv)\n                );\n\n            volume = MoreMath.max(\n                volume, \n                bal.mul(volumeBase).div(price)\n            );\n\n            volume = MoreMath.min(\n                volume, \n                bal.mul(volumeBase).div(price)\n            );\n        }\n    }\n}",
  "sourcePath": "/Users/dev/Documents/coding/defioptions/DeFiOptions-contracts/contracts/pools/LinearLiquidityPool.sol",
  "compiler": {
    "name": "solc",
    "version": "0.6.0+commit.26b70077.Emscripten.clang"
  },
  "schemaVersion": "3.3.3",
  "updatedAt": "2021-10-20T12:34:57.543Z",
  "devdoc": {
    "methods": {}
  },
  "userdoc": {
    "methods": {}
  }
}