{
  "contractName": "OptionsExchange",
  "abi": [
    {
      "inputs": [
        {
          "internalType": "address",
          "name": "deployer",
          "type": "address"
        }
      ],
      "stateMutability": "nonpayable",
      "type": "constructor"
    },
    {
      "anonymous": false,
      "inputs": [
        {
          "indexed": true,
          "internalType": "string",
          "name": "symbol",
          "type": "string"
        }
      ],
      "name": "CreateSymbol",
      "type": "event"
    },
    {
      "anonymous": false,
      "inputs": [
        {
          "indexed": true,
          "internalType": "string",
          "name": "symbol",
          "type": "string"
        },
        {
          "indexed": false,
          "internalType": "int256",
          "name": "udlPrice",
          "type": "int256"
        },
        {
          "indexed": false,
          "internalType": "uint256",
          "name": "value",
          "type": "uint256"
        }
      ],
      "name": "LiquidateSymbol",
      "type": "event"
    },
    {
      "anonymous": false,
      "inputs": [
        {
          "indexed": true,
          "internalType": "string",
          "name": "symbol",
          "type": "string"
        },
        {
          "indexed": true,
          "internalType": "address",
          "name": "issuer",
          "type": "address"
        },
        {
          "indexed": false,
          "internalType": "uint256",
          "name": "volume",
          "type": "uint256"
        },
        {
          "indexed": false,
          "internalType": "uint256",
          "name": "id",
          "type": "uint256"
        }
      ],
      "name": "WriteOptions",
      "type": "event"
    },
    {
      "inputs": [
        {
          "internalType": "contract Deployer",
          "name": "deployer",
          "type": "address"
        }
      ],
      "name": "initializeAndLock",
      "outputs": [],
      "stateMutability": "nonpayable",
      "type": "function"
    },
    {
      "inputs": [
        {
          "internalType": "address",
          "name": "to",
          "type": "address"
        },
        {
          "internalType": "address",
          "name": "token",
          "type": "address"
        },
        {
          "internalType": "uint256",
          "name": "value",
          "type": "uint256"
        }
      ],
      "name": "depositTokens",
      "outputs": [],
      "stateMutability": "nonpayable",
      "type": "function"
    },
    {
      "inputs": [
        {
          "internalType": "address",
          "name": "owner",
          "type": "address"
        }
      ],
      "name": "balanceOf",
      "outputs": [
        {
          "internalType": "uint256",
          "name": "",
          "type": "uint256"
        }
      ],
      "stateMutability": "view",
      "type": "function"
    },
    {
      "inputs": [
        {
          "internalType": "address",
          "name": "to",
          "type": "address"
        },
        {
          "internalType": "uint256",
          "name": "value",
          "type": "uint256"
        }
      ],
      "name": "transferBalance",
      "outputs": [],
      "stateMutability": "nonpayable",
      "type": "function"
    },
    {
      "inputs": [
        {
          "internalType": "uint256",
          "name": "value",
          "type": "uint256"
        }
      ],
      "name": "withdrawTokens",
      "outputs": [],
      "stateMutability": "nonpayable",
      "type": "function"
    },
    {
      "inputs": [
        {
          "internalType": "address",
          "name": "udlFeed",
          "type": "address"
        },
        {
          "internalType": "uint256",
          "name": "volume",
          "type": "uint256"
        },
        {
          "internalType": "enum OptionsExchange.OptionType",
          "name": "optType",
          "type": "uint8"
        },
        {
          "internalType": "uint256",
          "name": "strike",
          "type": "uint256"
        },
        {
          "internalType": "uint256",
          "name": "maturity",
          "type": "uint256"
        }
      ],
      "name": "writeOptions",
      "outputs": [
        {
          "internalType": "uint256",
          "name": "id",
          "type": "uint256"
        }
      ],
      "stateMutability": "nonpayable",
      "type": "function"
    },
    {
      "inputs": [
        {
          "internalType": "string",
          "name": "symbol",
          "type": "string"
        },
        {
          "internalType": "address",
          "name": "owner",
          "type": "address"
        }
      ],
      "name": "writtenVolume",
      "outputs": [
        {
          "internalType": "uint256",
          "name": "",
          "type": "uint256"
        }
      ],
      "stateMutability": "view",
      "type": "function"
    },
    {
      "inputs": [
        {
          "internalType": "string",
          "name": "symbol",
          "type": "string"
        },
        {
          "internalType": "address",
          "name": "from",
          "type": "address"
        },
        {
          "internalType": "address",
          "name": "to",
          "type": "address"
        },
        {
          "internalType": "uint256",
          "name": "volume",
          "type": "uint256"
        }
      ],
      "name": "transferOwnership",
      "outputs": [],
      "stateMutability": "nonpayable",
      "type": "function"
    },
    {
      "inputs": [
        {
          "internalType": "string",
          "name": "symbol",
          "type": "string"
        },
        {
          "internalType": "address",
          "name": "owner",
          "type": "address"
        },
        {
          "internalType": "uint256",
          "name": "volume",
          "type": "uint256"
        }
      ],
      "name": "burnOptions",
      "outputs": [],
      "stateMutability": "nonpayable",
      "type": "function"
    },
    {
      "inputs": [
        {
          "internalType": "string",
          "name": "symbol",
          "type": "string"
        },
        {
          "internalType": "uint256",
          "name": "limit",
          "type": "uint256"
        }
      ],
      "name": "liquidateSymbol",
      "outputs": [],
      "stateMutability": "nonpayable",
      "type": "function"
    },
    {
      "inputs": [
        {
          "internalType": "uint256",
          "name": "id",
          "type": "uint256"
        }
      ],
      "name": "liquidateOptions",
      "outputs": [
        {
          "internalType": "uint256",
          "name": "value",
          "type": "uint256"
        }
      ],
      "stateMutability": "nonpayable",
      "type": "function"
    },
    {
      "inputs": [
        {
          "internalType": "address",
          "name": "owner",
          "type": "address"
        }
      ],
      "name": "calcDebt",
      "outputs": [
        {
          "internalType": "uint256",
          "name": "debt",
          "type": "uint256"
        }
      ],
      "stateMutability": "view",
      "type": "function"
    },
    {
      "inputs": [
        {
          "internalType": "address",
          "name": "owner",
          "type": "address"
        }
      ],
      "name": "calcSurplus",
      "outputs": [
        {
          "internalType": "uint256",
          "name": "",
          "type": "uint256"
        }
      ],
      "stateMutability": "view",
      "type": "function"
    },
    {
      "inputs": [
        {
          "internalType": "address",
          "name": "owner",
          "type": "address"
        }
      ],
      "name": "calcExpectedPayout",
      "outputs": [
        {
          "internalType": "int256",
          "name": "payout",
          "type": "int256"
        }
      ],
      "stateMutability": "view",
      "type": "function"
    },
    {
      "inputs": [
        {
          "internalType": "uint256",
          "name": "id",
          "type": "uint256"
        }
      ],
      "name": "resolveSymbol",
      "outputs": [
        {
          "internalType": "string",
          "name": "",
          "type": "string"
        }
      ],
      "stateMutability": "view",
      "type": "function"
    },
    {
      "inputs": [
        {
          "internalType": "string",
          "name": "symbol",
          "type": "string"
        }
      ],
      "name": "resolveToken",
      "outputs": [
        {
          "internalType": "address",
          "name": "",
          "type": "address"
        }
      ],
      "stateMutability": "view",
      "type": "function"
    },
    {
      "inputs": [
        {
          "internalType": "uint256",
          "name": "id",
          "type": "uint256"
        }
      ],
      "name": "resolveToken",
      "outputs": [
        {
          "internalType": "address",
          "name": "",
          "type": "address"
        }
      ],
      "stateMutability": "view",
      "type": "function"
    },
    {
      "inputs": [
        {
          "internalType": "address",
          "name": "owner",
          "type": "address"
        }
      ],
      "name": "getBook",
      "outputs": [
        {
          "internalType": "string",
          "name": "symbols",
          "type": "string"
        },
        {
          "internalType": "uint256[]",
          "name": "holding",
          "type": "uint256[]"
        },
        {
          "internalType": "uint256[]",
          "name": "written",
          "type": "uint256[]"
        },
        {
          "internalType": "int256[]",
          "name": "iv",
          "type": "int256[]"
        }
      ],
      "stateMutability": "view",
      "type": "function"
    },
    {
      "inputs": [],
      "name": "getBookLength",
      "outputs": [
        {
          "internalType": "uint256",
          "name": "len",
          "type": "uint256"
        }
      ],
      "stateMutability": "view",
      "type": "function"
    },
    {
      "inputs": [],
      "name": "getVolumeBase",
      "outputs": [
        {
          "internalType": "uint256",
          "name": "",
          "type": "uint256"
        }
      ],
      "stateMutability": "view",
      "type": "function"
    },
    {
      "inputs": [
        {
          "internalType": "uint256",
          "name": "id",
          "type": "uint256"
        }
      ],
      "name": "calcLowerCollateral",
      "outputs": [
        {
          "internalType": "uint256",
          "name": "",
          "type": "uint256"
        }
      ],
      "stateMutability": "view",
      "type": "function"
    },
    {
      "inputs": [
        {
          "internalType": "uint256",
          "name": "id",
          "type": "uint256"
        }
      ],
      "name": "calcUpperCollateral",
      "outputs": [
        {
          "internalType": "uint256",
          "name": "",
          "type": "uint256"
        }
      ],
      "stateMutability": "view",
      "type": "function"
    },
    {
      "inputs": [
        {
          "internalType": "address",
          "name": "owner",
          "type": "address"
        }
      ],
      "name": "calcCollateral",
      "outputs": [
        {
          "internalType": "uint256",
          "name": "",
          "type": "uint256"
        }
      ],
      "stateMutability": "view",
      "type": "function"
    },
    {
      "inputs": [
        {
          "internalType": "address",
          "name": "udlFeed",
          "type": "address"
        },
        {
          "internalType": "uint256",
          "name": "volume",
          "type": "uint256"
        },
        {
          "internalType": "enum OptionsExchange.OptionType",
          "name": "optType",
          "type": "uint8"
        },
        {
          "internalType": "uint256",
          "name": "strike",
          "type": "uint256"
        },
        {
          "internalType": "uint256",
          "name": "maturity",
          "type": "uint256"
        }
      ],
      "name": "calcCollateral",
      "outputs": [
        {
          "internalType": "uint256",
          "name": "",
          "type": "uint256"
        }
      ],
      "stateMutability": "view",
      "type": "function"
    },
    {
      "inputs": [
        {
          "internalType": "uint256",
          "name": "id",
          "type": "uint256"
        }
      ],
      "name": "calcIntrinsicValue",
      "outputs": [
        {
          "internalType": "int256",
          "name": "",
          "type": "int256"
        }
      ],
      "stateMutability": "view",
      "type": "function"
    },
    {
      "inputs": [
        {
          "internalType": "address",
          "name": "udlFeed",
          "type": "address"
        },
        {
          "internalType": "enum OptionsExchange.OptionType",
          "name": "optType",
          "type": "uint8"
        },
        {
          "internalType": "uint256",
          "name": "strike",
          "type": "uint256"
        },
        {
          "internalType": "uint256",
          "name": "maturity",
          "type": "uint256"
        }
      ],
      "name": "calcIntrinsicValue",
      "outputs": [
        {
          "internalType": "int256",
          "name": "",
          "type": "int256"
        }
      ],
      "stateMutability": "view",
      "type": "function"
    }
  ],
  "bytecode": "0x60806040523480156200001157600080fd5b5060405162004dba38038062004dba833981810160405260208110156200003757600080fd5b50516040805163ac119e7b60e01b815260206004820152600f60248201526e4f7074696f6e7345786368616e676560881b604482015290516001600160a01b0383169163ac119e7b91606480830192600092919082900301818387803b158015620000a157600080fd5b505af1158015620000b6573d6000803e3d6000fd5b5050505050614cef80620000cb6000396000f3fe608060405234801561001057600080fd5b506004361061018e5760003560e01c806373133c7e116100de578063bb949ec811610097578063e3425d1611610071578063e3425d161461069b578063ef38eaf114610709578063f3559d2714610872578063ffee7c97146109045761018e565b8063bb949ec81461063b578063c8f8a39914610658578063d9537cdf146106755761018e565b806373133c7e1461042a57806383a7e7e1146104a15780638c922b63146104dc57806392d858101461059c578063b20bd89f146105dd578063b434e9d6146105fa5761018e565b8063547919531161014b5780635efb90fc116101255780635efb90fc1461033b578063607be1a41461036157806365a45061146103de57806370a08231146104045761018e565b806354791953146102e157806356a6d9ef146102e95780635c1bfb32146103155761018e565b806302c230741461019357806316be637a146101cb578063315a095d14610254578063385413441461027157806339dc5ef21461028e5780634682a14a146102c4575b600080fd5b6101b9600480360360208110156101a957600080fd5b50356001600160a01b031661090c565b60408051918252519081900360200190f35b610252600480360360808110156101e157600080fd5b810190602081018135600160201b8111156101fb57600080fd5b82018360208201111561020d57600080fd5b803590602001918460018302840111600160201b8311171561022e57600080fd5b91935091506001600160a01b03813581169160208101359091169060400135610adc565b005b6102526004803603602081101561026a57600080fd5b5035610fd2565b6101b96004803603602081101561028757600080fd5b5035611094565b610252600480360360608110156102a457600080fd5b506001600160a01b0381358116916020810135909116906040013561134b565b6101b9600480360360208110156102da57600080fd5b50356114cc565b6101b961159a565b610252600480360360408110156102ff57600080fd5b506001600160a01b0381351690602001356115a1565b6102526004803603602081101561032b57600080fd5b50356001600160a01b0316611621565b6101b96004803603602081101561035157600080fd5b50356001600160a01b0316611688565b6102526004803603606081101561037757600080fd5b810190602081018135600160201b81111561039157600080fd5b8201836020820111156103a357600080fd5b803590602001918460018302840111600160201b831117156103c457600080fd5b91935091506001600160a01b03813516906020013561170b565b6101b9600480360360208110156103f457600080fd5b50356001600160a01b0316611948565b6101b96004803603602081101561041a57600080fd5b50356001600160a01b0316611b44565b6101b96004803603604081101561044057600080fd5b810190602081018135600160201b81111561045a57600080fd5b82018360208201111561046c57600080fd5b803590602001918460018302840111600160201b8311171561048d57600080fd5b9193509150356001600160a01b0316611b95565b6101b9600480360360808110156104b757600080fd5b506001600160a01b038135169060ff6020820135169060408101359060600135611bf8565b610580600480360360208110156104f257600080fd5b810190602081018135600160201b81111561050c57600080fd5b82018360208201111561051e57600080fd5b803590602001918460018302840111600160201b8311171561053f57600080fd5b91908080601f016020809104026020016040519081016040528093929190818152602001838380828437600092019190915250929550611c28945050505050565b604080516001600160a01b039092168252519081900360200190f35b6101b9600480360360a08110156105b257600080fd5b506001600160a01b038135169060208101359060ff6040820135169060608101359060800135611cdc565b6101b9600480360360208110156105f357600080fd5b5035611cff565b6101b9600480360360a081101561061057600080fd5b506001600160a01b038135169060208101359060ff6040820135169060608101359060800135611ddf565b6101b96004803603602081101561065157600080fd5b5035611e49565b6105806004803603602081101561066e57600080fd5b5035611eef565b6101b96004803603602081101561068b57600080fd5b50356001600160a01b0316611fe5565b610252600480360360408110156106b157600080fd5b810190602081018135600160201b8111156106cb57600080fd5b8201836020820111156106dd57600080fd5b803590602001918460018302840111600160201b831117156106fe57600080fd5b91935091503561209c565b61072f6004803603602081101561071f57600080fd5b50356001600160a01b0316612449565b6040518080602001806020018060200180602001858103855289818151815260200191508051906020019080838360005b83811015610778578181015183820152602001610760565b50505050905090810190601f1680156107a55780820380516001836020036101000a031916815260200191505b508581038452885181528851602091820191808b01910280838360005b838110156107da5781810151838201526020016107c2565b50505050905001858103835287818151815260200191508051906020019060200280838360005b83811015610819578181015183820152602001610801565b50505050905001858103825286818151815260200191508051906020019060200280838360005b83811015610858578181015183820152602001610840565b505050509050019850505050505050505060405180910390f35b61088f6004803603602081101561088857600080fd5b503561278f565b6040805160208082528351818301528351919283929083019185019080838360005b838110156108c95781810151838201526020016108b1565b50505050905090810190601f1680156108f65780820380516001836020036101000a031916815260200191505b509250505060405180910390f35b6101b961282c565b6001600160a01b0381166000908152600860209081526040808320805482518185028101850190935280835260609383018282801561096a57602002820191906000526020600020905b815481526020019060010190808311610956575b50939450600093505050505b8151811015610ac057610987614b55565b6007600084848151811061099757fe5b6020908102919091018101518252818101929092526040908101600020815161010081018352815481526001808301546001600160a01b0390811695830195909552600283015490941681840152600382015460608083019190915260048301546080830152600583015460a0830152600683015460c083015283519081019093526007820180549194929360e08601939092839160ff90911690811115610a3b57fe5b6001811115610a4657fe5b8152600182015460208201526002909101546040909101529052509050610a6c81612917565b15610ab757610ab4610aa7610a928360a001518460c0015161291d90919063ffffffff16565b610a9b8461298b565b9063ffffffff612a1916565b859063ffffffff612ac216565b93505b50600101610976565b50600d54610ad590839063ffffffff612b2716565b9392505050565b336001600160a01b0316600986866040518083838082843791909101948552505060405192839003602001909220546001600160a01b0316929092149150610b6d9050576040805162461bcd60e51b815260206004820152601f60248201527f756e617574686f72697a6564206f776e657273686970207472616e7366657200604482015290519081900360640190fd5b610b75614b55565b610bd960086000866001600160a01b03166001600160a01b0316815260200190815260200160002087878080601f016020809104026020016040519081016040528093929190818152602001838380828437600092019190915250612bdf92505050565b9050610be481612917565b610c27576040805162461bcd60e51b815260206004820152600f60248201526e1bdc99195c881b9bdd08199bdd5b99608a1b604482015290519081900360640190fd5b8060c00151821115610c71576040805162461bcd60e51b815260206004820152600e60248201526d696e76616c696420766f6c756d6560901b604482015290519081900360640190fd5b610c79614b55565b610cdd60086000866001600160a01b03166001600160a01b0316815260200190815260200160002088888080601f016020809104026020016040519081016040528093929190818152602001838380828437600092019190915250612bdf92505050565b9050610ce881612917565b610efb578151600090815260076020818152604092839020835161010081018552815481526001808301546001600160a01b0390811694830194909452600283015490931681860152600382015460608083019190915260048301546080830152600583015460a0830152600683015460c0830152855190810190955292810180549394919360e0860193839160ff1690811115610d8257fe5b6001811115610d8d57fe5b815260018281015460208084019190915260029384015460409384015293909452600b80548086019091558087526001600160a01b03808c16888601908152600060a08a0181815260c08b01828152948252600797889052908590208a518155915182890180549185166001600160a01b0319928316179055948a01519582018054969093169590941694909417905560608701516003840155608087015160048401559051600583015551600682015560e08501518051928201805496975087969295509093909291839160ff19909116908381811115610e6b57fe5b02179055506020828101516001808401919091556040938401516002909301929092556001600160a01b0389166000908152600882528381208751815494850182559082529190209091015551600a925089915088908083838082843791909101948552505060405160209381900384019020845181546001810183556000928352949091209093019290925550505b8151600090815260076020526040902060060154610f1f908463ffffffff612d0116565b82516000908152600760205260408082206006908101939093558351825290200154610f51908463ffffffff612d4316565b8151600090815260076020908152604090912060060191909155820151610f7790612d9d565b8151610f8290612e75565b15610fc957610fc987878080601f0160208091040260200160405190810160405280939291908181526020018383808284376000920191909152505085519150612ea69050565b50505050505050565b610fdb33611fe5565b811115611026576040805162461bcd60e51b8152602060048201526014602482015273696e73756666696369656e7420737572706c757360601b604482015290519081900360640190fd5b600554604080516306b091f960e01b81523360048201526024810184905290516001600160a01b03909216916306b091f99160448082019260009290919082900301818387803b15801561107957600080fd5b505af115801561108d573d6000803e3d6000fd5b5050505050565b600061109e614b55565b600083815260076020818152604092839020835161010081018552815481526001808301546001600160a01b0390811694830194909452600283015490931681860152600382015460608083019190915260048301546080830152600583015460a0830152600683015460c0830152855190810190955292810180549394919360e0860193839160ff169081111561113257fe5b600181111561113d57fe5b81526001820154602082015260029091015460409091015290525080519091508314801561116f575060008160a00151115b6111b3576040805162461bcd60e51b815260206004820152601060248201526f1a5b9d985b1a59081bdc99195c881a5960821b604482015290519081900360640190fd5b60006111be84611eef565b90506060816001600160a01b03166395d89b416040518163ffffffff1660e01b815260040160006040518083038186803b1580156111fb57600080fd5b505afa15801561120f573d6000803e3d6000fd5b505050506040513d6000823e601f3d908101601f19168201604052602081101561123857600080fd5b8101908080516040519392919084600160201b82111561125757600080fd5b90830190602082018581111561126c57600080fd5b8251600160201b81118282018810171561128557600080fd5b82525081516020918201929091019080838360005b838110156112b257818101518382015260200161129a565b50505050905090810190601f1680156112df5780820380516001836020036101000a031916815260200191505b50604052505050905060006113078460a001516112fb8661298b565b9063ffffffff612fab16565b90508360e001516040015161131b85613004565b106113335761132c8483858461306c565b9450611342565b61133f84838584613113565b94505b50505050919050565b604080516323b872dd60e01b815233600482015230602482015260448101839052905183916001600160a01b038316916323b872dd916064808201926020929091908290030181600087803b1580156113a357600080fd5b505af11580156113b7573d6000803e3d6000fd5b505050506040513d60208110156113cd57600080fd5b50506005546040805163095ea7b360e01b81526001600160a01b0392831660048201526024810185905290519183169163095ea7b3916044808201926020929091908290030181600087803b15801561142557600080fd5b505af1158015611439573d6000803e3d6000fd5b505050506040513d602081101561144f57600080fd5b505060055460408051631cee2f7960e11b81526001600160a01b038781166004830152868116602483015260448201869052915191909216916339dc5ef291606480830192600092919082900301818387803b1580156114ae57600080fd5b505af11580156114c2573d6000803e3d6000fd5b5050505050505050565b6000818152600760208181526040808420815161010081018352815481526001808301546001600160a01b0390811695830195909552600283015490941681840152600382015460608083019190915260048301546080830152600583015460a0830152600683015460c0830152835190810190935293810180546115929594929360e0860193909291839160ff9091169081111561156757fe5b600181111561157257fe5b81526001820154602082015260029091015460409091015290525061298b565b90505b919050565b600d545b90565b600554604080516353035ca560e11b81523360048201526001600160a01b038581166024830152604482018590529151919092169163a606b94a91606480830192600092919082900301818387803b1580156115fc57600080fd5b505af1158015611610573d6000803e3d6000fd5b5050505061161d33612d9d565b5050565b600254600160a01b900460ff1615611669576040805162461bcd60e51b81526020600482015260066024820152651b1bd8dad95960d21b604482015290519081900360640190fd5b6116728161322d565b506002805460ff60a01b1916600160a01b179055565b600554604080516317bee43f60e21b81526001600160a01b03848116600483015291516000939290921691635efb90fc91602480820192602092909190829003018186803b1580156116d957600080fd5b505afa1580156116ed573d6000803e3d6000fd5b505050506040513d602081101561170357600080fd5b505192915050565b336001600160a01b0316600985856040518083838082843791909101948552505060405192839003602001909220546001600160a01b03169290921491506117909050576040805162461bcd60e51b81526020600482015260116024820152703ab730baba3437b934bd32b210313ab93760791b604482015290519081900360640190fd5b611798614b55565b6117fc60086000856001600160a01b03166001600160a01b0316815260200190815260200160002086868080601f016020809104026020016040519081016040528093929190818152602001838380828437600092019190915250612bdf92505050565b905061180781612917565b61184a576040805162461bcd60e51b815260206004820152600f60248201526e1bdc99195c881b9bdd08199bdd5b99608a1b604482015290519081900360640190fd5b818160a00151101580156118625750818160c0015110155b6118a4576040805162461bcd60e51b815260206004820152600e60248201526d696e76616c696420766f6c756d6560901b604482015290519081900360640190fd5b60a08101516118b9908363ffffffff612d0116565b815160009081526007602052604090206005015560c08101516118e2908363ffffffff612d0116565b8151600090815260076020526040902060060155805161190190612e75565b1561108d5761108d85858080601f0160208091040260200160405190810160405280939291908181526020018383808284376000920191909152505084519150612ea69050565b6001600160a01b0381166000908152600860209081526040808320805482518185028101850190935280835284936060939291908301828280156119ab57602002820191906000526020600020905b815481526020019060010190808311611997575b50939450600093505050505b8151811015611b12576119c8614b55565b600760008484815181106119d857fe5b6020908102919091018101518252818101929092526040908101600020815161010081018352815481526001808301546001600160a01b0390811695830195909552600283015490941681840152600382015460608083019190915260048301546080830152600583015460a0830152600683015460c083015283519081019093526007820180549194929360e08601939092839160ff90911690811115611a7c57fe5b6001811115611a8757fe5b8152600182015460208201526002909101546040909101529052509050611aad81612917565b15611b0957611b06611ac38260800151836134f1565b611afa611aed611ae48560c001518660a0015161291d90919063ffffffff16565b610a9b8661298b565b879063ffffffff612ac216565b9063ffffffff612ac216565b93505b506001016119b7565b50600d54611b2790839063ffffffff612b2716565b91506000821215611b3d57600092505050611595565b5092915050565b600554604080516370a0823160e01b81526001600160a01b038481166004830152915160009392909216916370a0823191602480820192602092909190829003018186803b1580156116d957600080fd5b6001600160a01b03811660009081526008602090815260408083208151601f8701849004840281018401909252858252611bec929091908790879081908401838280828437600092019190915250612bdf92505050565b60a00151949350505050565b6000611c02614b55565b611c1186600d54878787613523565b9050611c1c8161298b565b9150505b949350505050565b6000806009836040518082805190602001908083835b60208310611c5d5780518252601f199092019160209182019101611c3e565b51815160001960209485036101000a019081169019919091161790529201948552506040519384900301909220546001600160a01b03169250505080611592576040805162461bcd60e51b815260206004820152600f60248201526e1d1bdad95b881b9bdd08199bdd5b99608a1b604482015290519081900360640190fd5b6000611ceb8686868686613809565b9050611cf633612d9d565b95945050505050565b600d5460008281526007602081815260408084206004810154825161010081018452825481526001808401546001600160a01b0390811696830196909652600284015490951681850152600383015460608083019190915260808201839052600584015460a0830152600684015460c0830152845190810190945294820180549697611592979096611dd396939590949360e08601939192839160ff90911690811115611da857fe5b6001811115611db357fe5b8152600182015460208201526002909101546040909101529052506134f1565b9063ffffffff613f7916565b6000611de9614b55565b611df68787878787613523565b90506000611e2a600d54611e1e611e118560800151866134f1565b611afa8b610a9b8861298b565b9063ffffffff612b2716565b905060008113611e3b576000611e3d565b805b98975050505050505050565b600d5460008281526007602081815260408084206003810154825161010081018452825481526001808401546001600160a01b0390811696830196909652600284015490951681850152606080820183905260048401546080830152600584015460a0830152600684015460c0830152845190810190945294820180549697611592979096611dd396939590949360e08601939192839160ff90911690811115611da857fe5b6000818152600760208181526040808420815161010081018352815481526001808301546001600160a01b0390811695830195909552600283015490941681840152600382015460608083019190915260048301546080830152600583015460a0830152600683015460c0830152835190810190935293810180548695600995611fb79591949360e08601939091839160ff1690811115611f8c57fe5b6001811115611f9757fe5b815260018201546020820152600290910154604090910152905250613fbb565b60405180828051906020019080838360208310611c5d5780518252601f199092019160209182019101611c3e565b600080611ff183611948565b600554604080516370a0823160e01b81526001600160a01b038781166004830152915193945060009391909216916370a08231916024808301926020929190829003018186803b15801561204457600080fd5b505afa158015612058573d6000803e3d6000fd5b505050506040513d602081101561206e57600080fd5b5051905081811061209257612089818363ffffffff612d0116565b92505050611595565b5060009392505050565b600080600080600a878760405180838380828437919091019485525050604051928390036020019092205492506120d59150614b559050565b811561237d5760005b82811080156120ec57508681105b1561237b576000600a8a8a604051808383808284378083019250505092505050908152602001604051809103902060008154811061212657fe5b60009182526020808320909101548083526007808352604093849020845161010081018652815481526001808301546001600160a01b0390811696830196909652600283015490951681870152600382015460608083019190915260048301546080830152600583015460a0830152600683015460c0830152865190810190965291810180549396509194909360e0860193919291839160ff909116908111156121cc57fe5b60018111156121d757fe5b81526001820154602082015260029091015460409091015290525092508161227257612202836142e1565b9550600061220f84613004565b905061221a8461298b565b9550808460e00151604001511115612270576040805162461bcd60e51b81526020600482015260146024820152731b585d1d5c9a5d1e481b9bdd081c995858da195960621b604482015290519081900360640190fd5b505b825181146122ba576040805162461bcd60e51b815260206004820152601060248201526f1a5b9d985b1a59081bdc99195c881a5960821b604482015290519081900360640190fd5b60a0830151156123315761232b61231e848c8c8080601f016020809104026020016040519081016040528093929190818152602001838380828437600092019190915250505060a0880151339150612319908b9063ffffffff612fab16565b61306c565b889063ffffffff612d4316565b50612372565b6123728a8a8080601f016020809104026020016040519081016040528093929190818152602001838380828437600092019190915250859250612ea6915050565b506001016120de565b505b8582116123eb57600a888860405180838380828437919091019485525050604051928390036020019092206123b6925090506000614bb1565b60098888604051808383808284379190910194855250506040519283900360200190922080546001600160a01b031916905550505b878760405180838380828437604080519390910183900383208a8452602084018c905281519096507fe24b343f5440e60a8036accbbcc91361b7876c05f323825c7ffd46e369e0a85795509283900301925050a25050505050505050565b606080606080606060086000876001600160a01b03166001600160a01b031681526020019081526020016000208054806020026020016040519081016040528092919081815260200182805480156124c057602002820191906000526020600020905b8154815260200190600101908083116124ac575b5050505050905080516040519080825280602002602001820160405280156124f2578160200160208202803883390190505b5093508051604051908082528060200260200182016040528015612520578160200160208202803883390190505b509250805160405190808252806020026020018201604052801561254e578160200160208202803883390190505b50915060005b815181101561278657612565614b55565b6007600084848151811061257557fe5b6020908102919091018101518252818101929092526040908101600020815161010081018352815481526001808301546001600160a01b0390811695830195909552600283015490941681840152600382015460608083019190915260048301546080830152600583015460a0830152600683015460c083015283519081019093526007820180549194929360e08601939092839160ff9091169081111561261957fe5b600181111561262457fe5b8152600182015460208201526002909101546040909101529052509050816126565761264f81613fbb565b9650612723565b8661266082613fbb565b6040516020018083805190602001908083835b602083106126925780518252601f199092019160209182019101612673565b6001836020036101000a03801982511681845116808217855250505050505090500180600560f91b81525060010182805190602001908083835b602083106126eb5780518252601f1990920191602091820191016126cc565b6001836020036101000a0380198251168184511680821785525050505050509050019250505060405160208183030381529060405296505b8060c0015186838151811061273457fe5b6020026020010181815250508060a0015185838151811061275157fe5b6020026020010181815250506127668161298b565b84838151811061277257fe5b602090810291909101015250600101612554565b50509193509193565b600081815260076020818152604092839020835161010081018552815481526001808301546001600160a01b0390811694830194909452600283015490931681860152600382015460608281019190915260048301546080830152600583015460a0830152600683015460c083015285518082019096529382018054949561159295929460e0860193919291839160ff90911690811115611f8c57fe5b6000805b600b5481101561291357600081815260076020818152604092839020835161010081018552815481526001808301546001600160a01b0390811694830194909452600283015490931681860152600382015460608083019190915260048301546080830152600583015460a0830152600683015460c0830152855190810190955292810180546128ff95929360e08601939291839160ff909116908111156128d457fe5b60018111156128df57fe5b815260018201546020820152600290910154604090910152905250612917565b1561290b576001909101905b600101612830565b5090565b51151590565b60008183038183128015906129325750838113155b80612947575060008312801561294757508381135b6129825760405162461bcd60e51b8152600401808060200182810382526024815260200180614c966024913960400191505060405180910390fd5b90505b92915050565b6000612995614bcf565b5060e082015160006129a6846142e1565b60208301519091506000835160018111156129bd57fe5b14156129e4576129dd60006129d8848463ffffffff61291d16565b614457565b9350612a11565b6001835160018111156129f357fe5b1415612a1157612a0e60006129d8838563ffffffff61291d16565b93505b505050919050565b600082612a2857506000612985565b82600019148015612a3c5750600160ff1b82145b15612a785760405162461bcd60e51b8152600401808060200182810382526027815260200180614c6f6027913960400191505060405180910390fd5b82820282848281612a8557fe5b05146129825760405162461bcd60e51b8152600401808060200182810382526027815260200180614c6f6027913960400191505060405180910390fd5b6000828201818312801590612ad75750838112155b80612aec5750600083128015612aec57508381125b6129825760405162461bcd60e51b8152600401808060200182810382526021815260200180614c0c6021913960400191505060405180910390fd5b600081612b7b576040805162461bcd60e51b815260206004820181905260248201527f5369676e6564536166654d6174683a206469766973696f6e206279207a65726f604482015290519081900360640190fd5b81600019148015612b8f5750600160ff1b83145b15612bcb5760405162461bcd60e51b8152600401808060200182810382526021815260200180614c2d6021913960400191505060405180910390fd5b6000828481612bd657fe5b05949350505050565b612be7614b55565b60005b8354811015611b3d57612bfb614b55565b60076000868481548110612c0b57fe5b600091825260208083209091015483528281019390935260409182019020815161010081018352815481526001808301546001600160a01b0390811695830195909552600283015490941681840152600382015460608083019190915260048301546080830152600583015460a0830152600683015460c083015283519081019093526007820180549194929360e08601939092839160ff90911690811115612cb057fe5b6001811115612cbb57fe5b8152600182015460208201526002909101546040909101529052509050612cea612ce482613fbb565b8561446d565b15612cf85791506129859050565b50600101612bea565b600061298283836040518060400160405280601e81526020017f536166654d6174683a207375627472616374696f6e206f766572666c6f770000815250614554565b600082820183811015612982576040805162461bcd60e51b815260206004820152601b60248201527f536166654d6174683a206164646974696f6e206f766572666c6f770000000000604482015290519081900360640190fd5b612da681611948565b600554604080516370a0823160e01b81526001600160a01b038581166004830152915191909216916370a08231916024808301926020929190829003018186803b158015612df357600080fd5b505afa158015612e07573d6000803e3d6000fd5b505050506040513d6020811015612e1d57600080fd5b50511015612e72576040805162461bcd60e51b815260206004820152601760248201527f696e73756666696369656e7420636f6c6c61746572616c000000000000000000604482015290519081900360640190fd5b50565b6000818152600760205260408120600501541580156115925750506000908152600760205260409020600601541590565b612f10600a836040518082805190602001908083835b60208310612edb5780518252601f199092019160209182019101612ebc565b51815160209384036101000a6000190180199092169116179052920194855250604051938490030190922091508390506145eb565b506000818152600760209081526040808320600101546001600160a01b0316835260089091529020612f4290826145eb565b50600090815260076020819052604082208281556001810180546001600160a01b0319908116909155600282018054909116905560038101839055600481018390556005810183905560068101839055908101805460ff19169055600881018290556009015550565b600082612fba57506000612985565b82820282848281612fc757fe5b04146129825760405162461bcd60e51b8152600401808060200182810382526021815260200180614c4e6021913960400191505060405180910390fd5b600081604001516001600160a01b0316638e15f4736040518163ffffffff1660e01b8152600401604080518083038186803b15801561304257600080fd5b505afa158015613056573d6000803e3d6000fd5b505050506040513d604081101561170357600080fd5b6000811561310557600d5461308890839063ffffffff613f7916565b600554602087015160408051633468331760e21b81526001600160a01b039283166004820152878316602482015260448101859052905193945091169163d1a0cc5c9160648082019260009290919082900301818387803b1580156130ec57600080fd5b505af1158015613100573d6000803e3d6000fd5b505050505b611c20848660000151612ea6565b60008061311f8661467f565b9050613151600d54611dd38860a00151611dd3856112fb896131458e606001518f6134f1565b9063ffffffff612d4316565b8651600090815260076020526040902060050154909250613178908263ffffffff612d0116565b8651600090815260076020526040902060050155855161319790612e75565b156131aa576131aa858760000151612ea6565b600554602087015160408051633468331760e21b81526001600160a01b0392831660048201528783166024820152604481018690529051919092169163d1a0cc5c91606480830192600092919082900301818387803b15801561320c57600080fd5b505af1158015613220573d6000803e3d6000fd5b5050505050949350505050565b60408051630110ceef60e21b8152602060048201819052600c60248301526b2a34b6b2a83937bb34b232b960a11b604483015291516001600160a01b038416926304433bbc9260648082019391829003018186803b15801561328e57600080fd5b505afa1580156132a2573d6000803e3d6000fd5b505050506040513d60208110156132b857600080fd5b5051600380546001600160a01b0319166001600160a01b0392831617905560408051630110ceef60e21b8152602060048201819052600e60248301526d21b932b234ba283937bb34b232b960911b60448301529151928416926304433bbc92606480840193919291829003018186803b15801561333457600080fd5b505afa158015613348573d6000803e3d6000fd5b505050506040513d602081101561335e57600080fd5b5051600580546001600160a01b0319166001600160a01b0392831617905560408051630110ceef60e21b8152602060048201819052601060248301526f50726f746f636f6c53657474696e677360801b60448301529151928416926304433bbc92606480840193919291829003018186803b1580156133dc57600080fd5b505afa1580156133f0573d6000803e3d6000fd5b505050506040513d602081101561340657600080fd5b5051600480546001600160a01b0319166001600160a01b0392831617815560408051630110ceef60e21b8152602092810183905260126024820152714f7074696f6e546f6b656e466163746f727960701b60448201529051928416926304433bbc92606480840193919291829003018186803b15801561348557600080fd5b505afa158015613499573d6000803e3d6000fd5b505050506040513d60208110156134af57600080fd5b5051600680546001600160a01b0319166001600160a01b03909216919091179055506001600b55633b9aca00600d819055670de0b6b3a7640000600e55600f55565b6000612982600f54611dd361350d613508866147b7565b61481b565b60a08601516112fb90889063ffffffff612fab16565b61352b614b55565b613533614bcf565b604051806060016040528086600181111561354a57fe5b815260208101869052604001849052905060006001600160a01b0388166135de576004805460408051630561593360e01b815290516001600160a01b03909216926305615933928282019260209290829003018186803b1580156135ad57600080fd5b505afa1580156135c1573d6000803e3d6000fd5b505050506040513d60208110156135d757600080fd5b50516135e0565b875b90506000816001600160a01b031663990c11d8600460009054906101000a90046001600160a01b03166001600160a01b031663b8c3af7b6040518163ffffffff1660e01b815260040160206040518083038186803b15801561364157600080fd5b505afa158015613655573d6000803e3d6000fd5b505050506040513d602081101561366b57600080fd5b5051604080516001600160e01b031960e085901b1681526004810192909252516024808301926020929190829003018186803b1580156136aa57600080fd5b505afa1580156136be573d6000803e3d6000fd5b505050506040513d60208110156136d457600080fd5b5051604080516101008101825260008152336020828101919091526001600160a01b038616828401819052835163d2cc49a160e01b81526004810186905293519495509193606085019363d2cc49a1926024808301939192829003018186803b15801561374057600080fd5b505afa158015613754573d6000803e3d6000fd5b505050506040513d602081101561376a57600080fd5b505181526040805163c26802c960e01b81526004810185905290516020928301926001600160a01b0387169263c26802c99260248083019392829003018186803b1580156137b757600080fd5b505afa1580156137cb573d6000803e3d6000fd5b505050506040513d60208110156137e157600080fd5b50518152602081018a9052604081019990995260609098019290925250949695505050505050565b60006001600160a01b038616158061389d575060048054604080516310fda6df60e31b81526001600160a01b038a8116948201949094529051600093909216916387ed36f891602480820192602092909190829003018186803b15801561386f57600080fd5b505afa158015613883573d6000803e3d6000fd5b505050506040513d602081101561389957600080fd5b5051135b6138e1576040805162461bcd60e51b815260206004820152601060248201526f19995959081b9bdd08185b1b1bddd95960821b604482015290519081900360640190fd5b60008511613927576040805162461bcd60e51b815260206004820152600e60248201526d696e76616c696420766f6c756d6560901b604482015290519081900360640190fd5b600360009054906101000a90046001600160a01b03166001600160a01b031663bbe4fd506040518163ffffffff1660e01b815260040160206040518083038186803b15801561397557600080fd5b505afa158015613989573d6000803e3d6000fd5b505050506040513d602081101561399f57600080fd5b505182116139e7576040805162461bcd60e51b815260206004820152601060248201526f696e76616c6964206d6174757269747960801b604482015290519081900360640190fd5b6139ef614b55565b6139fc8787878787613523565b600b805460018101909155808252925090506060613a1982613fbb565b9050613a23614b55565b336000908152600860205260409020613a3c9083612bdf565b9050613a4781612917565b15613aa75760a0810151613a61908963ffffffff612d4316565b815160009081526007602052604090206005015560c0810151613a8a908963ffffffff612d4316565b815160009081526007602052604090206006015580519350613c0e565b6000848152600760208181526040928390208651815590860151600180830180546001600160a01b039384166001600160a01b03199182161790915594880151600284018054919093169516949094179055606086015160038201556080860151600482015560a0860151600582015560c0860151600682015560e086015180519282018054889593949293919291839160ff1916908381811115613b4857fe5b021790555060208281015160018084019190915560409384015160029093019290925533600090815260088252838120895181549485018255908252908290209092019190915590518551600a945086935090918291908401908083835b60208310613bc55780518252601f199092019160209182019101613ba6565b51815160209384036101000a6000190180199092169116179052920194855250604051938490038101909320865181546001810183556000928352949091209093019290925550505b60006009836040518082805190602001908083835b60208310613c425780518252601f199092019160209182019101613c23565b51815160001960209485036101000a019081169019919091161790529201948552506040519384900301909220546001600160a01b03169250505080613e605760065460405163b6a46b3b60e01b81526020600482018181528651602484015286516001600160a01b039094169363b6a46b3b93889383926044909201919085019080838360005b83811015613ce2578181015183820152602001613cca565b50505050905090810190601f168015613d0f5780820380516001836020036101000a031916815260200191505b5092505050602060405180830381600087803b158015613d2e57600080fd5b505af1158015613d42573d6000803e3d6000fd5b505050506040513d6020811015613d5857600080fd5b5051604051845191925082916009918691819060208401908083835b60208310613d935780518252601f199092019160209182019101613d74565b51815160209384036101000a6000190180199092169116179052920194855250604051938490038101842080546001600160a01b0319166001600160a01b0396909616959095179094555050845185928291908401908083835b60208310613e0c5780518252601f199092019160209182019101613ded565b5181516020939093036101000a60001901801990911692169190911790526040519201829003822093507fa3cb81debc250420c3ffe650b8e281ed34e21f5f8c72e85778f59faca24e8e6892506000919050a25b6040805163219e412d60e21b8152336004820152602481018b905290516001600160a01b0383169163867904b491604480830192600092919082900301818387803b158015613eae57600080fd5b505af1158015613ec2573d6000803e3d6000fd5b50505050336001600160a01b0316836040518082805190602001908083835b60208310613f005780518252601f199092019160209182019101613ee1565b6001836020036101000a03801982511681845116808217855250505050505090500191505060405180910390207f2423ac310ce761f2bd022d5802d173198d224089a82b1913bf289637776c4f4b8b88604051808381526020018281526020019250505060405180910390a35050505095945050505050565b600061298283836040518060400160405280601a81526020017f536166654d6174683a206469766973696f6e206279207a65726f000000000000815250614865565b606081604001516001600160a01b03166395d89b416040518163ffffffff1660e01b815260040160006040518083038186803b158015613ffa57600080fd5b505afa15801561400e573d6000803e3d6000fd5b505050506040513d6000823e601f3d908101601f19168201604052602081101561403757600080fd5b8101908080516040519392919084600160201b82111561405657600080fd5b90830190602082018581111561406b57600080fd5b8251600160201b81118282018810171561408457600080fd5b82525081516020918201929091019080838360005b838110156140b1578181015183820152602001614099565b50505050905090810190601f1680156140de5780820380516001836020036101000a031916815260200191505b5060405250600091506140ee9050565b60e08401515160018111156140ff57fe5b1461412357604051806040016040528060018152602001600560fc1b81525061413e565b604051806040016040528060018152602001604360f81b8152505b61414f8460e00151602001516148ca565b6141608560e00151604001516148ca565b6040516020018085805190602001908083835b602083106141925780518252601f199092019160209182019101614173565b51815160209384036101000a6000190180199092169116179052602d60f81b91909301908152604560f81b60018201528651600290910192870191508083835b602083106141f15780518252601f1990920191602091820191016141d2565b6001836020036101000a03801982511681845116808217855250505050505090500180602d60f81b81525060010183805190602001908083835b6020831061424a5780518252601f19909201916020918201910161422b565b6001836020036101000a03801982511681845116808217855250505050505090500180602d60f81b81525060010182805190602001908083835b602083106142a35780518252601f199092019160209182019101614284565b6001836020036101000a0380198251168184511680821785525050505050509050019450505050506040516020818303038152906040529050919050565b60035460408051630bbe4fd560e41b815290516000926001600160a01b03169163bbe4fd50916004808301926020929190829003018186803b15801561432657600080fd5b505afa15801561433a573d6000803e3d6000fd5b505050506040513d602081101561435057600080fd5b505160e08301516040015111156143d35781604001516001600160a01b0316638e15f4736040518163ffffffff1660e01b8152600401604080518083038186803b15801561439d57600080fd5b505afa1580156143b1573d6000803e3d6000fd5b505050506040513d60408110156143c757600080fd5b50602001519050611595565b81604001516001600160a01b031663e75722308360e00151604001516040518263ffffffff1660e01b815260040180828152602001915050604080518083038186803b15801561442257600080fd5b505afa158015614436573d6000803e3d6000fd5b505050506040513d604081101561444c57600080fd5b506020015192915050565b60008183136144665781612982565b5090919050565b6000816040516020018082805190602001908083835b602083106144a25780518252601f199092019160209182019101614483565b6001836020036101000a03801982511681845116808217855250505050505090500191505060405160208183030381529060405280519060200120836040516020018082805190602001908083835b602083106145105780518252601f1990920191602091820191016144f1565b6001836020036101000a0380198251168184511680821785525050505050509050019150506040516020818303038152906040528051906020012014905092915050565b600081848411156145e35760405162461bcd60e51b81526004018080602001828103825283818151815260200191508051906020019080838360005b838110156145a8578181015183820152602001614590565b50505050905090810190601f1680156145d55780820380516001836020036101000a031916815260200191505b509250505060405180910390fd5b505050900390565b6000805b8354811015612092578284828154811061460557fe5b906000526020600020015414156146775783548490600019810190811061462857fe5b906000526020600020015484828154811061463f57fe5b90600052602060002001819055508380548061465757fe5b600190038181906000526020600020016000905590556001915050612985565b6001016145ef565b600554602080830151604080516370a0823160e01b81526001600160a01b039283166004820152905160009485949316926370a082319260248082019391829003018186803b1580156146d157600080fd5b505afa1580156146e5573d6000803e3d6000fd5b505050506040513d60208110156146fb57600080fd5b5051602084015190915060009061471190611948565b905081811161475f576040805162461bcd60e51b81526020600482015260156024820152743ab73334ba103337b9103634b8bab4b230ba34b7b760591b604482015290519081900360640190fd5b6147a761478661478086606001518760800151612d0190919063ffffffff16565b866134f1565b611dd38660a001516112fb600d546112fb8888612d0190919063ffffffff16565b9250611c20838560a001516148d7565b6000806147c383613004565b9050808360e001516040015111156148105761480962015180611dd36147fa848760e0015160400151612d0190919063ffffffff16565b600e549063ffffffff612fab16565b9150614815565b600091505b50919050565b6000806148346002611dd385600163ffffffff612d4316565b90508291505b818110156148155790508061485e6002611dd383613145878263ffffffff613f7916565b905061483a565b600081836148b45760405162461bcd60e51b81526020600482018181528351602484015283519092839260449091019190850190808383600083156145a8578181015183820152602001614590565b5060008385816148c057fe5b0495945050505050565b60606115928260016148e6565b60008183106144665781612982565b60608261490b57506040805180820190915260018152600360fc1b6020820152612985565b60408051606480825260a082019092526060908260208201818038833901905050905060005b8515614977578151600a808804976001840193919006916030830160f81b918591811061495a57fe5b60200101906001600160f81b031916908160001a90535050614931565b600085156149cb5760005b828110156149c95783818151811061499657fe5b6020910101516001600160f81b031916600360fc1b14156149bc576001909101906149c1565b6149c9565b600101614982565b505b6000600282116149dc5760006149de565b815b830390506060816040519080825280601f01601f191660200182016040528015614a0f576020820181803883390190505b50905060005b82811015614a64578560018287030381518110614a2e57fe5b602001015160f81c60f81b828281518110614a4557fe5b60200101906001600160f81b031916908160001a905350600101614a15565b50809650878015614a755750600283115b15614b495780614a868460006148e6565b6040516020018083805190602001908083835b60208310614ab85780518252601f199092019160209182019101614a99565b6001836020036101000a03801982511681845116808217855250505050505090500180606560f81b81525060010182805190602001908083835b60208310614b115780518252601f199092019160209182019101614af2565b6001836020036101000a0380198251168184511680821785525050505050509050019250505060405160208183030381529060405296505b50505050505092915050565b6040518061010001604052806000815260200160006001600160a01b0316815260200160006001600160a01b0316815260200160008152602001600081526020016000815260200160008152602001614bac614bcf565b905290565b5080546000825590600052602060002090810190612e729190614bf1565b6040805160608101909152806000815260200160008152602001600081525090565b61159e91905b808211156129135760008155600101614bf756fe5369676e6564536166654d6174683a206164646974696f6e206f766572666c6f775369676e6564536166654d6174683a206469766973696f6e206f766572666c6f77536166654d6174683a206d756c7469706c69636174696f6e206f766572666c6f775369676e6564536166654d6174683a206d756c7469706c69636174696f6e206f766572666c6f775369676e6564536166654d6174683a207375627472616374696f6e206f766572666c6f77a2646970667358221220288fb9ad9f300a02fab2c30986ee468052649ae3366046ce976c1d4ffb91e30164736f6c63430006000033",
  "source": "pragma solidity >=0.6.0;\n\nimport \"../deployment/Deployer.sol\";\nimport \"../deployment/ManagedContract.sol\";\nimport \"../governance/ProtocolSettings.sol\";\nimport \"../utils/ERC20.sol\";\nimport \"../interfaces/TimeProvider.sol\";\nimport \"../interfaces/UnderlyingFeed.sol\";\nimport \"../utils/Arrays.sol\";\nimport \"../utils/MoreMath.sol\";\nimport \"../utils/SafeMath.sol\";\nimport \"../utils/SignedSafeMath.sol\";\nimport \"./CreditProvider.sol\";\nimport \"./OptionToken.sol\";\nimport \"./OptionTokenFactory.sol\";\n\ncontract OptionsExchange is ManagedContract {\n\n    using SafeMath for uint;\n    using SignedSafeMath for int;\n    \n    enum OptionType { CALL, PUT }\n    \n    struct OrderData {\n        uint id;\n        address owner;\n        address udlFeed;\n        uint lowerVol;\n        uint upperVol;\n        uint written;\n        uint holding;\n        OptionData option;\n    }\n    \n    struct OptionData {\n        OptionType _type;\n        uint strike;\n        uint maturity;\n    }\n    \n    TimeProvider private time;\n    ProtocolSettings private settings;\n    CreditProvider private creditProvider;\n    OptionTokenFactory private factory;\n\n    mapping(uint => OrderData) private orders;\n    mapping(address => uint[]) private book;\n    mapping(string => address) private optionTokens;\n    mapping(string => uint[]) private tokensIds;\n    \n    uint private serial;\n    uint private bookLength; // TODO: remove unused variable\n    uint private volumeBase;\n    uint private timeBase;\n    uint private sqrtTimeBase;\n\n    event CreateSymbol(string indexed symbol);\n\n    event WriteOptions(string indexed symbol, address indexed issuer, uint volume, uint id);\n\n    event LiquidateSymbol(string indexed symbol, int udlPrice, uint value);\n\n    constructor(address deployer) public {\n\n        Deployer(deployer).setContractAddress(\"OptionsExchange\");\n    }\n\n    function initialize(Deployer deployer) override internal {\n\n        time = TimeProvider(deployer.getContractAddress(\"TimeProvider\"));\n        creditProvider = CreditProvider(deployer.getContractAddress(\"CreditProvider\"));\n        settings = ProtocolSettings(deployer.getContractAddress(\"ProtocolSettings\"));\n        factory = OptionTokenFactory(deployer.getContractAddress(\"OptionTokenFactory\"));\n\n        serial = 1;\n        volumeBase = 1e9;\n        timeBase = 1e18;\n        sqrtTimeBase = 1e9;\n    }\n\n    function depositTokens(address to, address token, uint value) external {\n\n        ERC20 t = ERC20(token);\n        t.transferFrom(msg.sender, address(this), value);\n        t.approve(address(creditProvider), value);\n        creditProvider.depositTokens(to, token, value);\n    }\n\n    function balanceOf(address owner) external view returns (uint) {\n\n        return creditProvider.balanceOf(owner);\n    }\n\n    function transferBalance(address to, uint value) external {\n\n        creditProvider.transferBalance(msg.sender, to, value);\n        ensureFunds(msg.sender);\n    }\n    \n    function withdrawTokens(uint value) external {\n        \n        require(value <= calcSurplus(msg.sender), \"insufficient surplus\");\n        creditProvider.withdrawTokens(msg.sender, value);\n    }\n\n    function writeOptions(\n        address udlFeed,\n        uint volume,\n        OptionType optType,\n        uint strike, \n        uint maturity\n    )\n        external \n        returns (uint id)\n    {\n        id = createOrder(udlFeed, volume, optType, strike, maturity);\n        ensureFunds(msg.sender);\n    }\n\n    function writtenVolume(string calldata symbol, address owner) external view returns (uint) {\n\n        return findOrder(book[owner], symbol).written;\n    }\n\n    function transferOwnership(\n        string calldata symbol,\n        address from,\n        address to,\n        uint volume\n    )\n        external\n    {\n        require(optionTokens[symbol] == msg.sender, \"unauthorized ownership transfer\");\n\n        OrderData memory ord = findOrder(book[from], symbol);\n\n        require(isValid(ord), \"order not found\");\n        require(volume <= ord.holding, \"invalid volume\");\n                \n        OrderData memory toOrd = findOrder(book[to], symbol);\n\n        if (!isValid(toOrd)) {\n            toOrd = orders[ord.id];\n            toOrd.id = serial++;\n            toOrd.owner = address(to);\n            toOrd.written = 0;\n            toOrd.holding = 0;\n            orders[toOrd.id] = toOrd;\n            book[to].push(toOrd.id);\n            tokensIds[symbol].push(toOrd.id);\n        }\n        \n        orders[ord.id].holding = orders[ord.id].holding.sub(volume);\n        orders[toOrd.id].holding = orders[toOrd.id].holding.add(volume);\n        ensureFunds(ord.owner);\n\n        if (shouldRemove(ord.id)) {\n            removeOrder(symbol, ord.id);\n        }\n    }\n\n    function burnOptions(\n        string calldata symbol,\n        address owner,\n        uint volume\n    )\n        external\n    {\n        require(optionTokens[symbol] == msg.sender, \"unauthorized burn\");\n        \n        OrderData memory ord = findOrder(book[owner], symbol);\n        \n        require(isValid(ord), \"order not found\");\n        require(ord.written >= volume && ord.holding >= volume, \"invalid volume\");\n        \n        orders[ord.id].written = ord.written.sub(volume);\n        orders[ord.id].holding = ord.holding.sub(volume);\n\n        if (shouldRemove(ord.id)) {\n            removeOrder(symbol, ord.id);\n        }\n    }\n\n    function liquidateSymbol(string calldata symbol, uint limit) external {\n\n        uint value;\n        int udlPrice;\n        uint iv;\n        uint len = tokensIds[symbol].length;\n        OrderData memory ord;\n\n        if (len > 0) {\n\n            for (uint i = 0; i < len && i < limit; i++) {\n                \n                uint id = tokensIds[symbol][0];\n                ord = orders[id];\n\n                if (i == 0) {\n                    udlPrice = getUdlPrice(ord);\n                    uint _now = getUdlNow(ord);\n                    iv = uint(calcIntrinsicValue(ord));\n                    require(ord.option.maturity <= _now, \"maturity not reached\");\n                }\n\n                require(ord.id == id, \"invalid order id\");\n\n                if (ord.written > 0) {\n                    value.add(\n                        liquidateAfterMaturity(ord, symbol, msg.sender, iv.mul(ord.written))\n                    );\n                } else {\n                    removeOrder(symbol, id);\n                }\n            }\n        }\n\n        if (len <= limit) {\n            delete tokensIds[symbol];\n            delete optionTokens[symbol];\n        }\n\n        emit LiquidateSymbol(symbol, udlPrice, value);\n    }\n\n    function liquidateOptions(uint id) external returns (uint value) {\n        \n        OrderData memory ord = orders[id];\n        require(ord.id == id && ord.written > 0, \"invalid order id\");\n\n        address token = resolveToken(id);\n        string memory symbol = OptionToken(token).symbol();\n        uint iv = uint(calcIntrinsicValue(ord)).mul(ord.written);\n        \n        if (getUdlNow(ord) >= ord.option.maturity) {\n            value = liquidateAfterMaturity(ord, symbol, token, iv);\n        } else {\n            value = liquidateBeforeMaturity(ord, symbol, token, iv);\n        }\n    }\n\n    function calcDebt(address owner) external view returns (uint debt) {\n\n        debt = creditProvider.calcDebt(owner);\n    }\n    \n    function calcSurplus(address owner) public view returns (uint) {\n        \n        uint collateral = calcCollateral(owner);\n        uint bal = creditProvider.balanceOf(owner);\n        if (bal >= collateral) {\n            return bal.sub(collateral);\n        }\n        return 0;\n    }\n\n    function calcCollateral(\n        address udlFeed,\n        uint volume,\n        OptionType optType,\n        uint strike, \n        uint maturity\n    )\n        external\n        view\n        returns (uint)\n    {\n        OrderData memory ord = createOrderInMemory(udlFeed, volume, optType, strike, maturity);\n\n        int collateral = calcIntrinsicValue(ord).mul(int(volume)).add(\n            int(calcCollateral(ord.upperVol, ord))\n        ).div(int(volumeBase));\n\n        return collateral > 0 ? uint(collateral) : 0;\n    }\n    \n    function calcCollateral(address owner) public view returns (uint) {\n        \n        int collateral;\n        uint[] memory ids = book[owner];\n\n        for (uint i = 0; i < ids.length; i++) {\n\n            OrderData memory ord = orders[ids[i]];\n\n            if (isValid(ord)) {\n                collateral = collateral.add(\n                    calcIntrinsicValue(ord).mul(\n                        int(ord.written).sub(int(ord.holding))\n                    )\n                ).add(int(calcCollateral(ord.upperVol, ord)));\n            }\n        }\n\n        collateral = collateral.div(int(volumeBase));\n\n        if (collateral < 0)\n            return 0;\n        return uint(collateral);\n    }\n\n    function calcExpectedPayout(address owner) external view returns (int payout) {\n\n        uint[] memory ids = book[owner];\n\n        for (uint i = 0; i < ids.length; i++) {\n\n            OrderData memory ord = orders[ids[i]];\n\n            if (isValid(ord)) {\n                payout = payout.add(\n                    calcIntrinsicValue(ord).mul(\n                        int(ord.holding).sub(int(ord.written))\n                    )\n                );\n            }\n        }\n\n        payout = payout.div(int(volumeBase));\n    }\n\n    function resolveSymbol(uint id) external view returns (string memory) {\n        \n        return getOptionSymbol(orders[id]);\n    }\n\n    function resolveToken(uint id) public view returns (address) {\n        \n        address addr = optionTokens[getOptionSymbol(orders[id])];\n        require(addr != address(0), \"token not found\");\n        return addr;\n    }\n\n    function resolveToken(string memory symbol) public view returns (address) {\n        \n        address addr = optionTokens[symbol];\n        require(addr != address(0), \"token not found\");\n        return addr;\n    }\n\n    function getBook(address owner)\n        external view\n        returns (\n            string memory symbols,\n            uint[] memory holding,\n            uint[] memory written,\n            int[] memory iv\n        )\n    {\n        uint[] memory ids = book[owner];\n        holding = new uint[](ids.length);\n        written = new uint[](ids.length);\n        iv = new int[](ids.length);\n\n        for (uint i = 0; i < ids.length; i++) {\n            OrderData memory ord = orders[ids[i]];\n            if (i == 0) {\n                symbols = getOptionSymbol(ord);\n            } else {\n                symbols = string(abi.encodePacked(symbols, \"\\n\", getOptionSymbol(ord)));\n            }\n            holding[i] = ord.holding;\n            written[i] = ord.written;\n            iv[i] = calcIntrinsicValue(ord);\n        }\n    }\n\n    function getBookLength() external view returns (uint len) {\n        \n        for (uint i = 0; i < serial; i++) {\n            if (isValid(orders[i])) {\n                len++;\n            }\n        }\n    }\n\n    function getVolumeBase() external view returns (uint) {\n        \n        return volumeBase;\n    }\n    \n    function calcLowerCollateral(uint id) external view returns (uint) {\n        \n        return calcCollateral(orders[id].lowerVol, orders[id]).div(volumeBase);\n    }\n    \n    function calcUpperCollateral(uint id) external view returns (uint) {\n        \n        return calcCollateral(orders[id].upperVol, orders[id]).div(volumeBase);\n    }\n    \n    function calcIntrinsicValue(uint id) external view returns (int) {\n        \n        return calcIntrinsicValue(orders[id]);\n    }\n\n    function calcIntrinsicValue(\n        address udlFeed,\n        OptionType optType,\n        uint strike, \n        uint maturity\n    )\n        external\n        view\n        returns (int)\n    {\n        OrderData memory ord = createOrderInMemory(udlFeed, volumeBase, optType, strike, maturity);\n\n        return calcIntrinsicValue(ord);\n    }\n\n    function createOrder(\n        address udlFeed,\n        uint volume,\n        OptionType optType,\n        uint strike, \n        uint maturity\n    )\n        private \n        returns (uint id)\n    {\n        require(udlFeed == address(0) || settings.getUdlFeed(udlFeed) > 0, \"feed not allowed\");\n        require(volume > 0, \"invalid volume\");\n        require(maturity > time.getNow(), \"invalid maturity\");\n\n        OrderData memory ord = createOrderInMemory(udlFeed, volume, optType, strike, maturity);\n        id = serial++;\n        ord.id = id;\n\n        string memory symbol = getOptionSymbol(ord);\n\n        OrderData memory result = findOrder(book[msg.sender], symbol);\n        if (isValid(result)) {\n            orders[result.id].written = result.written.add(volume);\n            orders[result.id].holding = result.holding.add(volume);\n            id = result.id;\n        } else {\n            orders[id] = ord;\n            book[msg.sender].push(ord.id);\n            tokensIds[symbol].push(ord.id);\n        }\n\n        address tk = optionTokens[symbol];\n        if (tk == address(0)) {\n            tk = factory.create(symbol);\n            optionTokens[symbol] = tk;\n            emit CreateSymbol(symbol);\n        }\n        \n        OptionToken(tk).issue(msg.sender, volume);\n        emit WriteOptions(symbol, msg.sender, volume, id);\n    }\n\n    function createOrderInMemory(\n        address udlFeed,\n        uint volume,\n        OptionType optType,\n        uint strike, \n        uint maturity\n    )\n        private\n        view\n        returns (OrderData memory ord)\n    {\n        OptionData memory opt = OptionData(optType, strike, maturity);\n\n        UnderlyingFeed feed = udlFeed != address(0) ?\n            UnderlyingFeed(udlFeed) :\n            UnderlyingFeed(settings.getDefaultUdlFeed());\n\n        uint vol = feed.getDailyVolatility(settings.getVolatilityPeriod());\n\n        ord = OrderData(\n            0, \n            msg.sender, \n            address(feed),\n            feed.calcLowerVolatility(vol),\n            feed.calcUpperVolatility(vol),\n            volume,\n            volume,\n            opt\n        );\n    }\n\n    function findOrder(\n        uint[] storage ids,\n        string memory symbol\n    )\n        private\n        view\n        returns (OrderData memory)\n    {\n        for (uint i = 0; i < ids.length; i++) {\n            OrderData memory ord = orders[ids[i]];\n            if (compareStrings(getOptionSymbol(ord), symbol)) {\n                return ord;\n            }\n        }\n    }\n\n    function liquidateAfterMaturity(\n        OrderData memory ord,\n        string memory symbol,\n        address token,\n        uint iv\n    )\n        private\n        returns (uint value)\n    {\n        if (iv > 0) {\n            value = iv.div(volumeBase);\n            creditProvider.processPayment(ord.owner, token, value);\n        }\n    \n        removeOrder(symbol, ord.id);\n    }\n\n    function liquidateBeforeMaturity(\n        OrderData memory ord,\n        string memory symbol,\n        address token,\n        uint iv\n    )\n        private\n        returns (uint value)\n    {\n        uint volume = calcLiquidationVolume(ord);\n        value = calcCollateral(ord.lowerVol, ord).add(iv)\n            .mul(volume).div(ord.written).div(volumeBase);\n        \n        orders[ord.id].written = orders[ord.id].written.sub(volume);\n        if (shouldRemove(ord.id)) {\n            removeOrder(symbol, ord.id);\n        }\n\n        creditProvider.processPayment(ord.owner, token, value);\n    }\n\n    function calcLiquidationVolume(OrderData memory ord) private view returns (uint volume) {\n        \n        uint bal = creditProvider.balanceOf(ord.owner);\n        uint collateral = calcCollateral(ord.owner);\n        require(collateral > bal, \"unfit for liquidation\");\n\n        volume = collateral.sub(bal).mul(volumeBase).mul(ord.written).div(\n            calcCollateral(ord.upperVol.sub(ord.lowerVol), ord)\n        );\n\n        volume = MoreMath.min(volume, ord.written);\n    }\n\n    function shouldRemove(uint id) private view returns (bool) {\n\n        return orders[id].written == 0 && orders[id].holding == 0;\n    }\n    \n    function removeOrder(string memory symbol, uint id) private {\n        \n        Arrays.removeItem(tokensIds[symbol], id);\n        Arrays.removeItem(book[orders[id].owner], id);\n        delete orders[id];\n    }\n\n    function getOptionSymbol(OrderData memory ord) private view returns (string memory symbol) {\n        \n        symbol = string(abi.encodePacked(\n            UnderlyingFeed(ord.udlFeed).symbol(),\n            \"-\",\n            \"E\",\n            ord.option._type == OptionType.CALL ? \"C\" : \"P\",\n            \"-\",\n            MoreMath.toString(ord.option.strike),\n            \"-\",\n            MoreMath.toString(ord.option.maturity)\n        ));\n    }\n    \n    function ensureFunds(address owner) private view {\n        \n        require(\n            creditProvider.balanceOf(owner) >= calcCollateral(owner),\n            \"insufficient collateral\"\n        );\n    }\n    \n    function calcCollateral(uint vol, OrderData memory ord) private view returns (uint) {\n        \n        return (vol.mul(ord.written).mul(MoreMath.sqrt(daysToMaturity(ord)))).div(sqrtTimeBase);\n    }\n    \n    function calcIntrinsicValue(OrderData memory ord) private view returns (int value) {\n        \n        OptionData memory opt = ord.option;\n        int udlPrice = getUdlPrice(ord);\n        int strike = int(opt.strike);\n\n        if (opt._type == OptionType.CALL) {\n            value = MoreMath.max(0, udlPrice.sub(strike));\n        } else if (opt._type == OptionType.PUT) {\n            value = MoreMath.max(0, strike.sub(udlPrice));\n        }\n    }\n    \n    function isValid(OrderData memory ord) private pure returns (bool) {\n        \n        return ord.id > 0;\n    }\n    \n    function daysToMaturity(OrderData memory ord) private view returns (uint d) {\n        \n        uint _now = getUdlNow(ord);\n        if (ord.option.maturity > _now) {\n            d = (timeBase.mul(ord.option.maturity.sub(uint(_now)))).div(1 days);\n        } else {\n            d = 0;\n        }\n    }\n\n    function getUdlPrice(OrderData memory ord) private view returns (int answer) {\n\n        if (ord.option.maturity > time.getNow()) {\n            (,answer) = UnderlyingFeed(ord.udlFeed).getLatestPrice();\n        } else {\n            (,answer) = UnderlyingFeed(ord.udlFeed).getPrice(ord.option.maturity);\n        }\n    }\n\n    function getUdlNow(OrderData memory ord) private view returns (uint timestamp) {\n\n        (timestamp,) = UnderlyingFeed(ord.udlFeed).getLatestPrice();\n    }\n\n    function compareStrings(string memory a, string memory b) private pure returns (bool) {\n        return (keccak256(abi.encodePacked((a))) == keccak256(abi.encodePacked((b))));\n    }\n}",
  "sourcePath": "/Users/dev/Documents/coding/defioptions/DeFiOptions-contracts/contracts/finance/OptionsExchange.sol",
  "compiler": {
    "name": "solc",
    "version": "0.6.0+commit.26b70077.Emscripten.clang"
  },
  "schemaVersion": "3.3.3",
  "updatedAt": "2021-03-12T18:16:09.786Z",
  "devdoc": {
    "methods": {}
  },
  "userdoc": {
    "methods": {}
  }
}