{
  "contractName": "OptionsExchange",
  "abi": [
    {
      "anonymous": false,
      "inputs": [
        {
          "indexed": true,
          "internalType": "address",
          "name": "owner",
          "type": "address"
        },
        {
          "indexed": true,
          "internalType": "address",
          "name": "spender",
          "type": "address"
        },
        {
          "indexed": false,
          "internalType": "uint256",
          "name": "value",
          "type": "uint256"
        }
      ],
      "name": "Approval",
      "type": "event"
    },
    {
      "anonymous": false,
      "inputs": [
        {
          "indexed": true,
          "internalType": "address",
          "name": "token",
          "type": "address"
        },
        {
          "indexed": true,
          "internalType": "address",
          "name": "sender",
          "type": "address"
        }
      ],
      "name": "CreateSymbol",
      "type": "event"
    },
    {
      "anonymous": false,
      "inputs": [
        {
          "indexed": true,
          "internalType": "address",
          "name": "token",
          "type": "address"
        },
        {
          "indexed": true,
          "internalType": "address",
          "name": "sender",
          "type": "address"
        },
        {
          "indexed": true,
          "internalType": "address",
          "name": "onwer",
          "type": "address"
        },
        {
          "indexed": false,
          "internalType": "uint256",
          "name": "volume",
          "type": "uint256"
        }
      ],
      "name": "LiquidateEarly",
      "type": "event"
    },
    {
      "anonymous": false,
      "inputs": [
        {
          "indexed": true,
          "internalType": "address",
          "name": "token",
          "type": "address"
        },
        {
          "indexed": true,
          "internalType": "address",
          "name": "sender",
          "type": "address"
        },
        {
          "indexed": true,
          "internalType": "address",
          "name": "onwer",
          "type": "address"
        },
        {
          "indexed": false,
          "internalType": "uint256",
          "name": "volume",
          "type": "uint256"
        }
      ],
      "name": "LiquidateExpired",
      "type": "event"
    },
    {
      "anonymous": false,
      "inputs": [
        {
          "indexed": true,
          "internalType": "address",
          "name": "from",
          "type": "address"
        },
        {
          "indexed": false,
          "internalType": "uint256",
          "name": "value",
          "type": "uint256"
        }
      ],
      "name": "WithdrawTokens",
      "type": "event"
    },
    {
      "anonymous": false,
      "inputs": [
        {
          "indexed": true,
          "internalType": "address",
          "name": "token",
          "type": "address"
        },
        {
          "indexed": true,
          "internalType": "address",
          "name": "issuer",
          "type": "address"
        },
        {
          "indexed": true,
          "internalType": "address",
          "name": "onwer",
          "type": "address"
        },
        {
          "indexed": false,
          "internalType": "uint256",
          "name": "volume",
          "type": "uint256"
        }
      ],
      "name": "WriteOptions",
      "type": "event"
    },
    {
      "inputs": [
        {
          "internalType": "address",
          "name": "",
          "type": "address"
        }
      ],
      "name": "collateral",
      "outputs": [
        {
          "internalType": "uint256",
          "name": "",
          "type": "uint256"
        }
      ],
      "stateMutability": "view",
      "type": "function"
    },
    {
      "inputs": [],
      "name": "getImplementation",
      "outputs": [
        {
          "internalType": "address",
          "name": "",
          "type": "address"
        }
      ],
      "stateMutability": "view",
      "type": "function"
    },
    {
      "inputs": [],
      "name": "getOwner",
      "outputs": [
        {
          "internalType": "address",
          "name": "",
          "type": "address"
        }
      ],
      "stateMutability": "view",
      "type": "function"
    },
    {
      "inputs": [
        {
          "internalType": "contract Deployer",
          "name": "deployer",
          "type": "address"
        }
      ],
      "name": "initializeAndLock",
      "outputs": [],
      "stateMutability": "nonpayable",
      "type": "function"
    },
    {
      "inputs": [],
      "name": "volumeBase",
      "outputs": [
        {
          "internalType": "uint256",
          "name": "",
          "type": "uint256"
        }
      ],
      "stateMutability": "view",
      "type": "function"
    },
    {
      "inputs": [
        {
          "internalType": "address",
          "name": "to",
          "type": "address"
        },
        {
          "internalType": "address",
          "name": "token",
          "type": "address"
        },
        {
          "internalType": "uint256",
          "name": "value",
          "type": "uint256"
        }
      ],
      "name": "depositTokens",
      "outputs": [],
      "stateMutability": "nonpayable",
      "type": "function"
    },
    {
      "inputs": [
        {
          "internalType": "address",
          "name": "to",
          "type": "address"
        },
        {
          "internalType": "address",
          "name": "token",
          "type": "address"
        },
        {
          "internalType": "uint256",
          "name": "value",
          "type": "uint256"
        },
        {
          "internalType": "uint256",
          "name": "deadline",
          "type": "uint256"
        },
        {
          "internalType": "uint8",
          "name": "v",
          "type": "uint8"
        },
        {
          "internalType": "bytes32",
          "name": "r",
          "type": "bytes32"
        },
        {
          "internalType": "bytes32",
          "name": "s",
          "type": "bytes32"
        }
      ],
      "name": "depositTokens",
      "outputs": [],
      "stateMutability": "nonpayable",
      "type": "function"
    },
    {
      "inputs": [
        {
          "internalType": "address",
          "name": "owner",
          "type": "address"
        }
      ],
      "name": "balanceOf",
      "outputs": [
        {
          "internalType": "uint256",
          "name": "",
          "type": "uint256"
        }
      ],
      "stateMutability": "view",
      "type": "function"
    },
    {
      "inputs": [
        {
          "internalType": "address",
          "name": "owner",
          "type": "address"
        },
        {
          "internalType": "address",
          "name": "spender",
          "type": "address"
        }
      ],
      "name": "allowance",
      "outputs": [
        {
          "internalType": "uint256",
          "name": "",
          "type": "uint256"
        }
      ],
      "stateMutability": "view",
      "type": "function"
    },
    {
      "inputs": [
        {
          "internalType": "address",
          "name": "spender",
          "type": "address"
        },
        {
          "internalType": "uint256",
          "name": "value",
          "type": "uint256"
        }
      ],
      "name": "approve",
      "outputs": [
        {
          "internalType": "bool",
          "name": "",
          "type": "bool"
        }
      ],
      "stateMutability": "nonpayable",
      "type": "function"
    },
    {
      "inputs": [
        {
          "internalType": "address",
          "name": "to",
          "type": "address"
        },
        {
          "internalType": "uint256",
          "name": "value",
          "type": "uint256"
        }
      ],
      "name": "transferBalance",
      "outputs": [],
      "stateMutability": "nonpayable",
      "type": "function"
    },
    {
      "inputs": [
        {
          "internalType": "address",
          "name": "from",
          "type": "address"
        },
        {
          "internalType": "address",
          "name": "to",
          "type": "address"
        },
        {
          "internalType": "uint256",
          "name": "value",
          "type": "uint256"
        }
      ],
      "name": "transferBalance",
      "outputs": [],
      "stateMutability": "nonpayable",
      "type": "function"
    },
    {
      "inputs": [
        {
          "internalType": "address",
          "name": "owner",
          "type": "address"
        },
        {
          "internalType": "address",
          "name": "_tk",
          "type": "address"
        }
      ],
      "name": "underlyingBalance",
      "outputs": [
        {
          "internalType": "uint256",
          "name": "",
          "type": "uint256"
        }
      ],
      "stateMutability": "view",
      "type": "function"
    },
    {
      "inputs": [
        {
          "internalType": "uint256",
          "name": "value",
          "type": "uint256"
        }
      ],
      "name": "withdrawTokens",
      "outputs": [],
      "stateMutability": "nonpayable",
      "type": "function"
    },
    {
      "inputs": [
        {
          "internalType": "address",
          "name": "udlFeed",
          "type": "address"
        },
        {
          "internalType": "enum OptionsExchange.OptionType",
          "name": "optType",
          "type": "uint8"
        },
        {
          "internalType": "uint256",
          "name": "strike",
          "type": "uint256"
        },
        {
          "internalType": "uint256",
          "name": "maturity",
          "type": "uint256"
        }
      ],
      "name": "createSymbol",
      "outputs": [
        {
          "internalType": "address",
          "name": "tk",
          "type": "address"
        }
      ],
      "stateMutability": "nonpayable",
      "type": "function"
    },
    {
      "inputs": [
        {
          "internalType": "address",
          "name": "udlFeed",
          "type": "address"
        },
        {
          "internalType": "uint256",
          "name": "volume",
          "type": "uint256"
        },
        {
          "internalType": "enum OptionsExchange.OptionType",
          "name": "optType",
          "type": "uint8"
        },
        {
          "internalType": "uint256",
          "name": "strike",
          "type": "uint256"
        },
        {
          "internalType": "uint256",
          "name": "maturity",
          "type": "uint256"
        },
        {
          "internalType": "address",
          "name": "to",
          "type": "address"
        }
      ],
      "name": "writeOptions",
      "outputs": [
        {
          "internalType": "address",
          "name": "_tk",
          "type": "address"
        }
      ],
      "stateMutability": "nonpayable",
      "type": "function"
    },
    {
      "inputs": [
        {
          "internalType": "address",
          "name": "udlFeed",
          "type": "address"
        },
        {
          "internalType": "uint256",
          "name": "volume",
          "type": "uint256"
        },
        {
          "internalType": "uint256",
          "name": "strike",
          "type": "uint256"
        },
        {
          "internalType": "uint256",
          "name": "maturity",
          "type": "uint256"
        },
        {
          "internalType": "address",
          "name": "to",
          "type": "address"
        }
      ],
      "name": "writeCovered",
      "outputs": [
        {
          "internalType": "address",
          "name": "_tk",
          "type": "address"
        }
      ],
      "stateMutability": "nonpayable",
      "type": "function"
    },
    {
      "inputs": [
        {
          "internalType": "string",
          "name": "symbol",
          "type": "string"
        },
        {
          "internalType": "address",
          "name": "from",
          "type": "address"
        },
        {
          "internalType": "address",
          "name": "to",
          "type": "address"
        },
        {
          "internalType": "uint256",
          "name": "value",
          "type": "uint256"
        }
      ],
      "name": "transferOwnership",
      "outputs": [],
      "stateMutability": "nonpayable",
      "type": "function"
    },
    {
      "inputs": [
        {
          "internalType": "address",
          "name": "owner",
          "type": "address"
        },
        {
          "internalType": "uint256",
          "name": "udl",
          "type": "uint256"
        },
        {
          "internalType": "uint256",
          "name": "coll",
          "type": "uint256"
        }
      ],
      "name": "release",
      "outputs": [],
      "stateMutability": "nonpayable",
      "type": "function"
    },
    {
      "inputs": [
        {
          "internalType": "address",
          "name": "owner",
          "type": "address"
        },
        {
          "internalType": "address",
          "name": "_tk",
          "type": "address"
        }
      ],
      "name": "cleanUp",
      "outputs": [],
      "stateMutability": "nonpayable",
      "type": "function"
    },
    {
      "inputs": [
        {
          "internalType": "address",
          "name": "_tk",
          "type": "address"
        },
        {
          "internalType": "address[]",
          "name": "owners",
          "type": "address[]"
        }
      ],
      "name": "liquidateExpired",
      "outputs": [],
      "stateMutability": "nonpayable",
      "type": "function"
    },
    {
      "inputs": [
        {
          "internalType": "address",
          "name": "owner",
          "type": "address"
        }
      ],
      "name": "calcDebt",
      "outputs": [
        {
          "internalType": "uint256",
          "name": "debt",
          "type": "uint256"
        }
      ],
      "stateMutability": "view",
      "type": "function"
    },
    {
      "inputs": [
        {
          "internalType": "address",
          "name": "owner",
          "type": "address"
        }
      ],
      "name": "calcSurplus",
      "outputs": [
        {
          "internalType": "uint256",
          "name": "",
          "type": "uint256"
        }
      ],
      "stateMutability": "view",
      "type": "function"
    },
    {
      "inputs": [
        {
          "internalType": "address",
          "name": "owner",
          "type": "address"
        }
      ],
      "name": "setCollateral",
      "outputs": [],
      "stateMutability": "nonpayable",
      "type": "function"
    },
    {
      "inputs": [
        {
          "internalType": "address",
          "name": "owner",
          "type": "address"
        }
      ],
      "name": "calcExpectedPayout",
      "outputs": [
        {
          "internalType": "int256",
          "name": "payout",
          "type": "int256"
        }
      ],
      "stateMutability": "view",
      "type": "function"
    },
    {
      "inputs": [
        {
          "internalType": "string",
          "name": "symbol",
          "type": "string"
        }
      ],
      "name": "getUnderlyingPrice",
      "outputs": [
        {
          "internalType": "int256",
          "name": "",
          "type": "int256"
        }
      ],
      "stateMutability": "view",
      "type": "function"
    },
    {
      "inputs": [
        {
          "internalType": "string",
          "name": "symbol",
          "type": "string"
        }
      ],
      "name": "resolveToken",
      "outputs": [
        {
          "internalType": "address",
          "name": "",
          "type": "address"
        }
      ],
      "stateMutability": "view",
      "type": "function"
    },
    {
      "inputs": [
        {
          "internalType": "address",
          "name": "udlFeed",
          "type": "address"
        }
      ],
      "name": "prefetchFeedData",
      "outputs": [],
      "stateMutability": "nonpayable",
      "type": "function"
    },
    {
      "inputs": [
        {
          "internalType": "address",
          "name": "owner",
          "type": "address"
        }
      ],
      "name": "getBook",
      "outputs": [
        {
          "internalType": "string",
          "name": "symbols",
          "type": "string"
        },
        {
          "internalType": "address[]",
          "name": "tokens",
          "type": "address[]"
        },
        {
          "internalType": "uint256[]",
          "name": "holding",
          "type": "uint256[]"
        },
        {
          "internalType": "uint256[]",
          "name": "written",
          "type": "uint256[]"
        },
        {
          "internalType": "int256[]",
          "name": "iv",
          "type": "int256[]"
        }
      ],
      "stateMutability": "view",
      "type": "function"
    },
    {
      "inputs": [
        {
          "internalType": "address",
          "name": "_tk",
          "type": "address"
        },
        {
          "internalType": "address",
          "name": "owner",
          "type": "address"
        }
      ],
      "name": "liquidateOptions",
      "outputs": [
        {
          "internalType": "uint256",
          "name": "value",
          "type": "uint256"
        }
      ],
      "stateMutability": "nonpayable",
      "type": "function"
    },
    {
      "inputs": [
        {
          "internalType": "address",
          "name": "udlFeed",
          "type": "address"
        },
        {
          "internalType": "enum OptionsExchange.OptionType",
          "name": "optType",
          "type": "uint8"
        },
        {
          "internalType": "uint256",
          "name": "strike",
          "type": "uint256"
        },
        {
          "internalType": "uint256",
          "name": "maturity",
          "type": "uint256"
        }
      ],
      "name": "getOptionSymbol",
      "outputs": [
        {
          "internalType": "string",
          "name": "symbol",
          "type": "string"
        }
      ],
      "stateMutability": "view",
      "type": "function"
    },
    {
      "inputs": [
        {
          "internalType": "address",
          "name": "owner",
          "type": "address"
        }
      ],
      "name": "calcCollateral",
      "outputs": [
        {
          "internalType": "uint256",
          "name": "",
          "type": "uint256"
        }
      ],
      "stateMutability": "view",
      "type": "function"
    },
    {
      "inputs": [
        {
          "internalType": "address",
          "name": "udlFeed",
          "type": "address"
        },
        {
          "internalType": "uint256",
          "name": "volume",
          "type": "uint256"
        },
        {
          "internalType": "enum OptionsExchange.OptionType",
          "name": "optType",
          "type": "uint8"
        },
        {
          "internalType": "uint256",
          "name": "strike",
          "type": "uint256"
        },
        {
          "internalType": "uint256",
          "name": "maturity",
          "type": "uint256"
        }
      ],
      "name": "calcCollateral",
      "outputs": [
        {
          "internalType": "uint256",
          "name": "",
          "type": "uint256"
        }
      ],
      "stateMutability": "view",
      "type": "function"
    },
    {
      "inputs": [
        {
          "internalType": "address",
          "name": "_tk",
          "type": "address"
        }
      ],
      "name": "calcIntrinsicValue",
      "outputs": [
        {
          "internalType": "int256",
          "name": "",
          "type": "int256"
        }
      ],
      "stateMutability": "view",
      "type": "function"
    },
    {
      "inputs": [
        {
          "internalType": "address",
          "name": "udlFeed",
          "type": "address"
        },
        {
          "internalType": "enum OptionsExchange.OptionType",
          "name": "optType",
          "type": "uint8"
        },
        {
          "internalType": "uint256",
          "name": "strike",
          "type": "uint256"
        },
        {
          "internalType": "uint256",
          "name": "maturity",
          "type": "uint256"
        }
      ],
      "name": "calcIntrinsicValue",
      "outputs": [
        {
          "internalType": "int256",
          "name": "",
          "type": "int256"
        }
      ],
      "stateMutability": "view",
      "type": "function"
    }
  ],
  "bytecode": "0x608060405234801561001057600080fd5b506158da80620000216000396000f3fe608060405234801561001057600080fd5b50600436106101d15760003560e01c8063886abef511610105578063b4d39b981161009d578063b4d39b98146107b6578063b7332633146107ff578063d9537cdf1461082d578063dd62ed3e14610853578063edb5fd4f14610881578063ef38eaf114610931578063f297be6614610adf578063fc3a916714610b11578063fc5eb0df14610b53576101d1565b8063886abef514610611578063893d20e8146106375780638c922b631461063f5780638e3cb188146106e3578063a53b004114610709578063a5fdc5de14610711578063a606b94a14610737578063aaf10f421461076d578063b434e9d614610775576101d1565b80635c1bfb32116101785780635c1bfb32146103fe5780635efb90fc1461042457806365a450611461044a5780636871d8731461047057806368d4f79d1461049e5780636d7f2895146104c457806370a082311461053257806373738fca1461055857806383a7e7e1146105d6576101d1565b806302c23074146101d6578063095ea7b31461020e57806316be637a1461024e578063315a095d146102d757806339dc5ef2146102f4578063439fa0881461032a578063504f53221461037b57806356a6d9ef146103d2575b600080fd5b6101fc600480360360208110156101ec57600080fd5b50356001600160a01b0316610b81565b60408051918252519081900360200190f35b61023a6004803603604081101561022457600080fd5b506001600160a01b038135169060200135610e17565b604080519115158252519081900360200190f35b6102d56004803603608081101561026457600080fd5b810190602081018135600160201b81111561027e57600080fd5b82018360208201111561029057600080fd5b803590602001918460018302840111600160201b831117156102b157600080fd5b91935091506001600160a01b03813581169160208101359091169060400135610e94565b005b6102d5600480360360208110156102ed57600080fd5b50356111ad565b6102d56004803603606081101561030a57600080fd5b506001600160a01b038135811691602081013590911690604001356112a5565b6102d5600480360360e081101561034057600080fd5b506001600160a01b03813581169160208101359091169060408101359060608101359060ff6080820135169060a08101359060c00135611344565b6103b66004803603608081101561039157600080fd5b506001600160a01b038135169060ff60208201351690604081013590606001356113e2565b604080516001600160a01b039092168252519081900360200190f35b6102d5600480360360408110156103e857600080fd5b506001600160a01b038135169060200135611708565b6102d56004803603602081101561041457600080fd5b50356001600160a01b0316611788565b6101fc6004803603602081101561043a57600080fd5b50356001600160a01b03166117e6565b6101fc6004803603602081101561046057600080fd5b50356001600160a01b0316611869565b6101fc6004803603604081101561048657600080fd5b506001600160a01b0381358116916020013516611b41565b6101fc600480360360208110156104b457600080fd5b50356001600160a01b0316611d24565b6101fc600480360360208110156104da57600080fd5b810190602081018135600160201b8111156104f457600080fd5b82018360208201111561050657600080fd5b803590602001918460018302840111600160201b8311171561052757600080fd5b509092509050611dab565b6101fc6004803603602081101561054857600080fd5b50356001600160a01b0316611eb2565b6102d56004803603604081101561056e57600080fd5b6001600160a01b038235169190810190604081016020820135600160201b81111561059857600080fd5b8201836020820111156105aa57600080fd5b803590602001918460208302840111600160201b831117156105cb57600080fd5b509092509050611f03565b6101fc600480360360808110156105ec57600080fd5b506001600160a01b038135169060ff6020820135169060408101359060600135612034565b6102d56004803603602081101561062757600080fd5b50356001600160a01b0316612060565b6103b6612085565b6103b66004803603602081101561065557600080fd5b810190602081018135600160201b81111561066f57600080fd5b82018360208201111561068157600080fd5b803590602001918460018302840111600160201b831117156106a257600080fd5b91908080601f016020809104026020016040519081016040528093929190818152602001838380828437600092019190915250929550612094945050505050565b6102d5600480360360208110156106f957600080fd5b50356001600160a01b0316612148565b6101fc6121ae565b6101fc6004803603602081101561072757600080fd5b50356001600160a01b03166121b4565b6102d56004803603606081101561074d57600080fd5b506001600160a01b038135811691602081013590911690604001356121c6565b6103b6612312565b6101fc600480360360a081101561078b57600080fd5b506001600160a01b038135169060208101359060ff6040820135169060608101359060800135612321565b6103b6600480360360c08110156107cc57600080fd5b506001600160a01b03813581169160208101359160ff6040830135169160608101359160808201359160a0013516612351565b6102d56004803603604081101561081557600080fd5b506001600160a01b0381358116916020013516612390565b6101fc6004803603602081101561084357600080fd5b50356001600160a01b03166124be565b6101fc6004803603604081101561086957600080fd5b506001600160a01b0381358116916020013516612575565b6108bc6004803603608081101561089757600080fd5b506001600160a01b038135169060ff60208201351690604081013590606001356125a0565b6040805160208082528351818301528351919283929083019185019080838360005b838110156108f65781810151838201526020016108de565b50505050905090810190601f1680156109235780820380516001836020036101000a031916815260200191505b509250505060405180910390f35b6109576004803603602081101561094757600080fd5b50356001600160a01b03166128b0565b60405180806020018060200180602001806020018060200186810386528b818151815260200191508051906020019080838360005b838110156109a457818101518382015260200161098c565b50505050905090810190601f1680156109d15780820380516001836020036101000a031916815260200191505b5086810385528a5181528a51602091820191808d01910280838360005b83811015610a065781810151838201526020016109ee565b50505050905001868103845289818151815260200191508051906020019060200280838360005b83811015610a45578181015183820152602001610a2d565b50505050905001868103835288818151815260200191508051906020019060200280838360005b83811015610a84578181015183820152602001610a6c565b50505050905001868103825287818151815260200191508051906020019060200280838360005b83811015610ac3578181015183820152602001610aab565b505050509050019a505050505050505050505060405180910390f35b6102d560048036036060811015610af557600080fd5b506001600160a01b038135169060208101359060400135612cd7565b6103b6600480360360a0811015610b2757600080fd5b506001600160a01b0381358116916020810135916040820135916060810135916080909101351661302c565b6101fc60048036036040811015610b6957600080fd5b506001600160a01b03813581169160200135166131e7565b6001600160a01b0381166000908152600c602090815260408083208054825181850281018501909352808352606093830182828015610be957602002820191906000526020600020905b81546001600160a01b03168152600190910190602001808311610bcb575b50939450600093505050505b8151811015610dfb576000828281518110610c0c57fe5b60200260200101519050610c1e61573f565b600a6000858581518110610c2e57fe5b6020908102919091018101516001600160a01b03908116835282820193909352604091820160002082516080810190935280549384168352919290830190600160a01b900460ff166001811115610c8157fe5b6001811115610c8c57fe5b8152600191909101546001600160781b038116602080840191909152600160781b90910463ffffffff16604092830152815163d0acc58f60e01b81526001600160a01b038a8116600483015292519394506000939286169263d0acc58f92602480840193919291829003018186803b158015610d0757600080fd5b505afa158015610d1b573d6000803e3d6000fd5b505050506040513d6020811015610d3157600080fd5b5051604080516370a0823160e01b81526001600160a01b038a811660048301529151929350600092918616916370a0823191602480820192602092909190829003018186803b158015610d8357600080fd5b505afa158015610d97573d6000803e3d6000fd5b505050506040513d6020811015610dad57600080fd5b50519050610de9610ddc610dc7838563ffffffff61327316565b610dd0866132d8565b9063ffffffff61336516565b889063ffffffff61340e16565b96505060019093019250610bf5915050565b50600f54610e1090839063ffffffff61347316565b9392505050565b60006001600160a01b038316610e2c57600080fd5b336000818152600e602090815260408083206001600160a01b03881680855290835292819020869055805186815290519293927f8c5be1e5ebec7d5bd14f71427d1e84f3dd0314c0f7b2291e5b200ac8c7c3b925929181900390910190a35060015b92915050565b336001600160a01b0316600d86866040518083838082843791909101948552505060405192839003602001909220546001600160a01b0316929092149150610f259050576040805162461bcd60e51b815260206004820152601f60248201527f756e617574686f72697a6564206f776e657273686970207472616e7366657200604482015290519081900360640190fd5b6040805163d0acc58f60e01b81526001600160a01b038516600482015290513391829163d0acc58f91602480820192602092909190829003018186803b158015610f6e57600080fd5b505afa158015610f82573d6000803e3d6000fd5b505050506040513d6020811015610f9857600080fd5b50511580156110265750806001600160a01b03166370a08231856040518263ffffffff1660e01b815260040180826001600160a01b03166001600160a01b0316815260200191505060206040518083038186803b158015610ff857600080fd5b505afa15801561100c573d6000803e3d6000fd5b505050506040513d602081101561102257600080fd5b5051155b1561104f576001600160a01b0384166000908152600c6020526040902061104d903361352b565b505b806001600160a01b031663d0acc58f846040518263ffffffff1660e01b815260040180826001600160a01b03166001600160a01b0316815260200191505060206040518083038186803b1580156110a557600080fd5b505afa1580156110b9573d6000803e3d6000fd5b505050506040513d60208110156110cf57600080fd5b505115801561115e575081816001600160a01b03166370a08231856040518263ffffffff1660e01b815260040180826001600160a01b03166001600160a01b0316815260200191505060206040518083038186803b15801561113057600080fd5b505afa158015611144573d6000803e3d6000fd5b505050506040513d602081101561115a57600080fd5b5051145b1561119c576001600160a01b0383166000908152600c602090815260408220805460018101825590835291200180546001600160a01b031916331790555b6111a584613611565b505050505050565b6111b6336124be565b811115611201576040805162461bcd60e51b8152602060048201526014602482015273696e73756666696369656e7420737572706c757360601b604482015290519081900360640190fd5b600654604080516306b091f960e01b81523360048201526024810184905290516001600160a01b03909216916306b091f99160448082019260009290919082900301818387803b15801561125457600080fd5b505af1158015611268573d6000803e3d6000fd5b50506040805184815290513393507f680f2e4f4032ebf1774e8cdbaddcb1b617a5a606411c8ca96257ada338d3833c92509081900360200190a250565b60065482906112c9906001600160a01b03808416913391168563ffffffff6136e916565b600654604080516334ef2a2160e21b81526001600160a01b0387811660048301528681166024830152604482018690529151919092169163d3bca88491606480830192600092919082900301818387803b15801561132657600080fd5b505af115801561133a573d6000803e3d6000fd5b5050505050505050565b6040805163d505accf60e01b8152336004820152306024820152604481018790526064810186905260ff8516608482015260a4810184905260c4810183905290516001600160a01b0388169163d505accf9160e480830192600092919082900301818387803b1580156113b657600080fd5b505af11580156113ca573d6000803e3d6000fd5b505050506113d98787876112a5565b50505050505050565b60006113ed85613743565b6113f561573f565b606061140387878787613805565b9150915060006001600160a01b0316600d826040518082805190602001908083835b602083106114445780518252601f199092019160209182019101611425565b51815160209384036101000a60001901801990921691161790529201948552506040519384900301909220546001600160a01b03169290921491506114c49050576040805162461bcd60e51b815260206004820152600f60248201526e185b1c9958591e4818dc99585d1959608a1b604482015290519081900360640190fd5b600754604080516384b47b0f60e01b81526001600160a01b038a81166024830152600482019283528451604483015284519316926384b47b0f9285928c92829160640190602086019080838360005b8381101561152b578181015183820152602001611513565b50505050905090810190601f1680156115585780820380516001836020036101000a031916815260200191505b509350505050602060405180830381600087803b15801561157857600080fd5b505af115801561158c573d6000803e3d6000fd5b505050506040513d60208110156115a257600080fd5b505160405182519194508491600d918491819060208401908083835b602083106115dd5780518252601f1990920191602091820191016115be565b51815160001960209485036101000a019081169019919091161790529201948552506040805194859003820190942080546001600160a01b039687166001600160a01b0319918216179091558886166000908152600a835294909420875181549616959094169490941780845593860151869490925083915060ff60a01b1916600160a01b83600181111561166e57fe5b021790555060408201516001909101805460609093015163ffffffff16600160781b0263ffffffff60781b196001600160781b039093166001600160781b031990941693909317919091169190911790556116c887612148565b60405133906001600160a01b038516907f1e778eb413620d03df0615026f51cf388a81c6fabda25b38998bf20fbd0d764690600090a35050949350505050565b600654604080516353035ca560e11b81523360048201526001600160a01b038581166024830152604482018590529151919092169163a606b94a91606480830192600092919082900301818387803b15801561176357600080fd5b505af1158015611777573d6000803e3d6000fd5b5050505061178433613611565b5050565b600354156117d5576040805162461bcd60e51b81526020600482015260156024820152741a5b9a5d1a585b1a5e985d1a5bdb881b1bd8dad959605a1b604482015290519081900360640190fd5b60016003556117e381613878565b50565b600654604080516317bee43f60e21b81526001600160a01b03848116600483015291516000939290921691635efb90fc91602480820192602092909190829003018186803b15801561183757600080fd5b505afa15801561184b573d6000803e3d6000fd5b505050506040513d602081101561186157600080fd5b505192915050565b6001600160a01b0381166000908152600c60209081526040808320805482518185028101850190935280835284936060939291908301828280156118d657602002820191906000526020600020905b81546001600160a01b031681526001909101906020018083116118b8575b50939450600093505050505b8151811015611b0d5760008282815181106118f957fe5b60200260200101519050600081905061191061573f565b6001600160a01b038381166000908152600a602090815260409182902082516080810190935280549384168352919290830190600160a01b900460ff16600181111561195857fe5b600181111561196357fe5b8152600191909101546001600160781b038116602080840191909152600160781b90910463ffffffff16604092830152815163a4bd56c760e01b81526001600160a01b038c8116600483015292519394506000939286169263a4bd56c792602480840193919291829003018186803b1580156119de57600080fd5b505afa1580156119f2573d6000803e3d6000fd5b505050506040513d6020811015611a0857600080fd5b5051604080516370a0823160e01b81526001600160a01b038c811660048301529151929350600092918616916370a0823191602480820192602092909190829003018186803b158015611a5a57600080fd5b505afa158015611a6e573d6000803e3d6000fd5b505050506040513d6020811015611a8457600080fd5b505183516001600160a01b03166000908152600b6020526040902054909150611afa90611ac290600160781b90046001600160781b03168486613bde565b611aee611ae1611ad8868663ffffffff61327316565b610dd0886132d8565b8b9063ffffffff61340e16565b9063ffffffff61340e16565b975050600190940193506118e292505050565b50600f54611b2290839063ffffffff61347316565b91506000821215611b3857600092505050611b3c565b5090505b919050565b6000611b4b61573f565b6001600160a01b038481166000908152600a602090815260409182902082516080810190935280549384168352919290830190600160a01b900460ff166001811115611b9357fe5b6001811115611b9e57fe5b8152600191909101546001600160781b0381166020830152600160781b900463ffffffff1660409091015280519091506001600160a01b0316611c1a576040805162461bcd60e51b815260206004820152600f60248201526e1d1bdad95b881b9bdd08199bdd5b99608a1b604482015290519081900360640190fd5b60008490506000816001600160a01b031663d0acc58f866040518263ffffffff1660e01b815260040180826001600160a01b03166001600160a01b0316815260200191505060206040518083038186803b158015611c7757600080fd5b505afa158015611c8b573d6000803e3d6000fd5b505050506040513d6020811015611ca157600080fd5b505111611ce5576040805162461bcd60e51b815260206004820152600d60248201526c34b73b30b634b2103a37b5b2b760991b604482015290519081900360640190fd5b6000826060015163ffffffff16611cfb84613c22565b101590506000611d0a846132d8565b9050611d198685858585613c8a565b979650505050505050565b6001600160a01b038181166000908152600a60209081526040808320815160808101909252805494851682529293610e8e939192830190600160a01b900460ff166001811115611d7057fe5b6001811115611d7b57fe5b8152600191909101546001600160781b0381166020830152600160781b900463ffffffff166040909101526132d8565b600080600d84846040518083838082843791909101948552505060405192839003602001909220546001600160a01b03169250505080611e24576040805162461bcd60e51b815260206004820152600f60248201526e1d1bdad95b881b9bdd08199bdd5b99608a1b604482015290519081900360640190fd5b6001600160a01b038181166000908152600a602090815260409182902082516080810190935280549384168352611eaa939091830190600160a01b900460ff166001811115611e6f57fe5b6001811115611e7a57fe5b8152600191909101546001600160781b0381166020830152600160781b900463ffffffff16604090910152613e80565b949350505050565b600654604080516370a0823160e01b81526001600160a01b038481166004830152915160009392909216916370a0823191602480820192602092909190829003018186803b15801561183757600080fd5b611f0b61573f565b6001600160a01b038481166000908152600a602090815260409182902082516080810190935280549384168352919290830190600160a01b900460ff166001811115611f5357fe5b6001811115611f5e57fe5b8152600191909101546001600160781b038116602083015263ffffffff600160781b90910481166040909201919091526060820151919250859116611fa283613c22565b1015611fea576040805162461bcd60e51b81526020600482015260126024820152711bdc1d1a5bdb881b9bdd08195e1c1a5c995960721b604482015290519081900360640190fd5b6000611ff5836132d8565b905060005b848110156113d95761202b86868381811061201157fe5b905060200201356001600160a01b03168585600186613c8a565b50600101611ffa565b600061203e61573f565b61204a86868686613805565b509050612056816132d8565b9695505050505050565b61206981611869565b6001600160a01b03909116600090815260096020526040902055565b6000546001600160a01b031690565b600080600d836040518082805190602001908083835b602083106120c95780518252601f1990920191602091820191016120aa565b51815160001960209485036101000a019081169019919091161790529201948552506040519384900301909220546001600160a01b03169250505080610e8e576040805162461bcd60e51b815260206004820152600f60248201526e1d1bdad95b881b9bdd08199bdd5b99608a1b604482015290519081900360640190fd5b61215181614005565b6001600160a01b03919091166000908152600b602090815260409091208251815492909301516001600160781b03199092166001600160781b0393841617600160781b600160f01b031916600160781b9390921692909202179055565b600f5481565b60096020526000908152604090205481565b6001600160a01b0383166000908152600e6020908152604080832033845290915290205481811061222a57612201818363ffffffff6141f416565b6001600160a01b0385166000908152600e6020908152604080832033845290915290205561228e565b600654604080516311f3bc9760e11b815233600482015290516001600160a01b03909216916323e7792e91602480820192600092909190829003018186803b15801561227557600080fd5b505afa158015612289573d6000803e3d6000fd5b505050505b600654604080516353035ca560e11b81526001600160a01b0387811660048301528681166024830152604482018690529151919092169163a606b94a91606480830192600092919082900301818387803b1580156122eb57600080fd5b505af11580156122ff573d6000803e3d6000fd5b5050505061230c84613611565b50505050565b6002546001600160a01b031690565b600061232b61573f565b61233787868686613805565b5090506123448187614236565b9150505b95945050505050565b600061235b61573f565b606061236989888888613805565b9150915061237982828a8761434c565b925061238433613611565b50509695505050505050565b604080516370a0823160e01b81526001600160a01b038481166004830152915183928316916370a08231916024808301926020929190829003018186803b1580156123da57600080fd5b505afa1580156123ee573d6000803e3d6000fd5b505050506040513d602081101561240457600080fd5b50511580156124925750806001600160a01b031663d0acc58f846040518263ffffffff1660e01b815260040180826001600160a01b03166001600160a01b0316815260200191505060206040518083038186803b15801561246457600080fd5b505afa158015612478573d6000803e3d6000fd5b505050506040513d602081101561248e57600080fd5b5051155b156124b9576001600160a01b0383166000908152600c6020526040902061230c908361352b565b505050565b6000806124ca83611869565b600654604080516370a0823160e01b81526001600160a01b038781166004830152915193945060009391909216916370a08231916024808301926020929190829003018186803b15801561251d57600080fd5b505afa158015612531573d6000803e3d6000fd5b505050506040513d602081101561254757600080fd5b5051905081811061256b57612562818363ffffffff6141f416565b92505050611b3c565b5060009392505050565b6001600160a01b039182166000908152600e6020908152604080832093909416825291909152205490565b6060846001600160a01b03166395d89b416040518163ffffffff1660e01b815260040160006040518083038186803b1580156125db57600080fd5b505afa1580156125ef573d6000803e3d6000fd5b505050506040513d6000823e601f3d908101601f19168201604052602081101561261857600080fd5b8101908080516040519392919084600160201b82111561263757600080fd5b90830190602082018581111561264c57600080fd5b8251600160201b81118282018810171561266557600080fd5b82525081516020918201929091019080838360005b8381101561269257818101518382015260200161267a565b50505050905090810190601f1680156126bf5780820380516001836020036101000a031916815260200191505b5060405250600091506126cf9050565b8560018111156126db57fe5b146126ff57604051806040016040528060018152602001600560fc1b81525061271a565b604051806040016040528060018152602001604360f81b8152505b612723856149e8565b61272c856149e8565b6040516020018085805190602001908083835b6020831061275e5780518252601f19909201916020918201910161273f565b51815160209384036101000a6000190180199092169116179052602d60f81b91909301908152604560f81b60018201528651600290910192870191508083835b602083106127bd5780518252601f19909201916020918201910161279e565b6001836020036101000a03801982511681845116808217855250505050505090500180602d60f81b81525060010183805190602001908083835b602083106128165780518252601f1990920191602091820191016127f7565b6001836020036101000a03801982511681845116808217855250505050505090500180602d60f81b81525060010182805190602001908083835b6020831061286f5780518252601f199092019160209182019101612850565b6001836020036101000a0380198251168184511680821785525050505050509050019450505050506040516020818303038152906040529050949350505050565b6060806060806060600c6000876001600160a01b03166001600160a01b0316815260200190815260200160002080548060200260200160405190810160405280929190818152602001828054801561293157602002820191906000526020600020905b81546001600160a01b03168152600190910190602001808311612913575b505050505093508351604051908082528060200260200182016040528015612963578160200160208202803883390190505b5092508351604051908082528060200260200182016040528015612991578160200160208202803883390190505b50915083516040519080825280602002602001820160405280156129bf578160200160208202803883390190505b50905060005b8451811015612ccd5760008582815181106129dc57fe5b602002602001015190506129ee61573f565b600a60008885815181106129fe57fe5b6020908102919091018101516001600160a01b03908116835282820193909352604091820160002082516080810190935280549384168352919290830190600160a01b900460ff166001811115612a5157fe5b6001811115612a5c57fe5b8152600191909101546001600160781b0381166020830152600160781b900463ffffffff16604090910152905082612a9e57612a97816149f5565b9750612b6b565b87612aa8826149f5565b6040516020018083805190602001908083835b60208310612ada5780518252601f199092019160209182019101612abb565b6001836020036101000a03801982511681845116808217855250505050505090500180600560f91b81525060010182805190602001908083835b60208310612b335780518252601f199092019160209182019101612b14565b6001836020036101000a0380198251168184511680821785525050505050509050019250505060405160208183030381529060405297505b816001600160a01b03166370a082318a6040518263ffffffff1660e01b815260040180826001600160a01b03166001600160a01b0316815260200191505060206040518083038186803b158015612bc157600080fd5b505afa158015612bd5573d6000803e3d6000fd5b505050506040513d6020811015612beb57600080fd5b50518651879085908110612bfb57fe5b602002602001018181525050816001600160a01b031663d0acc58f8a6040518263ffffffff1660e01b815260040180826001600160a01b03166001600160a01b0316815260200191505060206040518083038186803b158015612c5d57600080fd5b505afa158015612c71573d6000803e3d6000fd5b505050506040513d6020811015612c8757600080fd5b50518551869085908110612c9757fe5b602002602001018181525050612cac816132d8565b848481518110612cb857fe5b602090810291909101015250506001016129c5565b5091939590929450565b6000339050336001600160a01b0316600d826001600160a01b03166395d89b416040518163ffffffff1660e01b815260040160006040518083038186803b158015612d2157600080fd5b505afa158015612d35573d6000803e3d6000fd5b505050506040513d6000823e601f3d908101601f191682016040526020811015612d5e57600080fd5b8101908080516040519392919084600160201b821115612d7d57600080fd5b908301906020820185811115612d9257600080fd5b8251600160201b811182820188101715612dab57600080fd5b82525081516020918201929091019080838360005b83811015612dd8578181015183820152602001612dc0565b50505050905090810190601f168015612e055780820380516001836020036101000a031916815260200191505b506040525050506040518082805190602001908083835b60208310612e3b5780518252601f199092019160209182019101612e1c565b51815160209384036101000a60001901801990921691161790529201948552506040519384900301909220546001600160a01b0316929092149150612ec09050576040805162461bcd60e51b8152602060048201526014602482015273756e617574686f72697a65642072656c6561736560601b604482015290519081900360640190fd5b612ec861573f565b336000908152600a602090815260409182902082516080810190935280546001600160a01b03811684529091830190600160a01b900460ff166001811115612f0c57fe5b6001811115612f1757fe5b8152600191909101546001600160781b0381166020830152600160781b900463ffffffff1660409091015290508315612fc857600854815160408051637b7cdc5160e01b81526001600160a01b03898116600483015233602483015292831660448201526064810188905290519190921691637b7cdc5191608480830192600092919082900301818387803b158015612faf57600080fd5b505af1158015612fc3573d6000803e3d6000fd5b505050505b8215613025576001600160a01b03851660009081526009602052604090205461300a612ffd82612ff88588614236565b614a22565b829063ffffffff6141f416565b6001600160a01b038716600090815260096020526040902055505b5050505050565b600061303661573f565b60606130458860008888613805565b91509150600d816040518082805190602001908083835b6020831061307b5780518252601f19909201916020918201910161305c565b51815160001960209485036101000a019081169019919091161790529201948552506040519384900301909220546001600160a01b031694505050826130cd5781516130ca90600088886113e2565b92505b60006130d883614a38565b90506001600160a01b038116613130576040805162461bcd60e51b81526020600482015260186024820152771d5b99195c9b1e5a5b99c81d1bdad95b881b9bdd081cd95d60421b604482015290519081900360640190fd5b600854613152906001600160a01b03838116913391168b63ffffffff6136e916565b600854604080516307750c9f60e41b81523360048201526001600160a01b038781166024830152604482018c905291519190921691637750c9f091606480830192600092919082900301818387803b1580156131ad57600080fd5b505af11580156131c1573d6000803e3d6000fd5b505050506131d183838a8861434c565b506131db33613611565b50505095945050505050565b60085460408051633de222bb60e21b81526001600160a01b03858116600483015284811660248301529151600093929092169163f7888aec91604480820192602092909190829003018186803b15801561324057600080fd5b505afa158015613254573d6000803e3d6000fd5b505050506040513d602081101561326a57600080fd5b50519392505050565b60008183038183128015906132885750838113155b8061329d575060008312801561329d57508381135b610e105760405162461bcd60e51b81526004018080602001828103825260248152602001806158576024913960400191505060405180910390fd5b6000806132e483613e80565b60408401519091506001600160781b031660008460200151600181111561330757fe5b141561332e576133276000613322848463ffffffff61327316565b614a77565b925061335e565b60018460200151600181111561334057fe5b141561335e5761335b6000613322838563ffffffff61327316565b92505b5050919050565b60008261337457506000610e8e565b826000191480156133885750600160ff1b82145b156133c45760405162461bcd60e51b815260040180806020018281038252602781526020018061580a6027913960400191505060405180910390fd5b828202828482816133d157fe5b0514610e105760405162461bcd60e51b815260040180806020018281038252602781526020018061580a6027913960400191505060405180910390fd5b60008282018183128015906134235750838112155b80613438575060008312801561343857508381125b610e105760405162461bcd60e51b81526004018080602001828103825260218152602001806157a76021913960400191505060405180910390fd5b6000816134c7576040805162461bcd60e51b815260206004820181905260248201527f5369676e6564536166654d6174683a206469766973696f6e206279207a65726f604482015290519081900360640190fd5b816000191480156134db5750600160ff1b83145b156135175760405162461bcd60e51b81526004018080602001828103825260218152602001806157c86021913960400191505060405180910390fd5b600082848161352257fe5b05949350505050565b6000805b835481101561256b57826001600160a01b031684828154811061354e57fe5b6000918252602090912001546001600160a01b031614156136095783548490600019810190811061357b57fe5b9060005260206000200160009054906101000a90046001600160a01b03168482815481106135a557fe5b9060005260206000200160006101000a8154816001600160a01b0302191690836001600160a01b03160217905550838054806135dd57fe5b600082815260209020810160001990810180546001600160a01b03191690550190555060019050610e8e565b60010161352f565b6001600160a01b038082166000818152600960209081526040918290205460065483516370a0823160e01b815260048101959095529251909492909216926370a082319260248083019392829003018186803b15801561367057600080fd5b505afa158015613684573d6000803e3d6000fd5b505050506040513d602081101561369a57600080fd5b505110156117e3576040805162461bcd60e51b81526020600482015260176024820152761a5b9cdd59999a58da595b9d0818dbdb1b185d195c985b604a1b604482015290519081900360640190fd5b604080516001600160a01b0385811660248301528416604482015260648082018490528251808303909101815260849091019091526020810180516001600160e01b03166323b872dd60e01b17905261230c908590614a86565b600554604080516310fda6df60e31b81526001600160a01b038481166004830152915160009392909216916387ed36f891602480820192602092909190829003018186803b15801561379457600080fd5b505afa1580156137a8573d6000803e3d6000fd5b505050506040513d60208110156137be57600080fd5b5051136117e3576040805162461bcd60e51b815260206004820152601060248201526f19995959081b9bdd08185b1b1bddd95960821b604482015290519081900360640190fd5b61380d61573f565b60606040518060800160405280876001600160a01b0316815260200186600181111561383557fe5b815260200161384386614c3e565b6001600160781b0316815260200161385a85614c86565b63ffffffff169052915061386d826149f5565b905094509492505050565b60408051630110ceef60e21b8152602060048201819052600c60248301526b2a34b6b2a83937bb34b232b960a11b604483015291516001600160a01b038416926304433bbc9260648082019391829003018186803b1580156138d957600080fd5b505afa1580156138ed573d6000803e3d6000fd5b505050506040513d602081101561390357600080fd5b5051600480546001600160a01b0319166001600160a01b0392831617815560408051630110ceef60e21b81526020928101839052600e60248201526d21b932b234ba283937bb34b232b960911b60448201529051928416926304433bbc92606480840193919291829003018186803b15801561397e57600080fd5b505afa158015613992573d6000803e3d6000fd5b505050506040513d60208110156139a857600080fd5b5051600680546001600160a01b0319166001600160a01b0392831617905560408051630110ceef60e21b8152602060048201819052601060248301526f50726f746f636f6c53657474696e677360801b60448301529151928416926304433bbc92606480840193919291829003018186803b158015613a2657600080fd5b505afa158015613a3a573d6000803e3d6000fd5b505050506040513d6020811015613a5057600080fd5b5051600580546001600160a01b0319166001600160a01b0392831617905560408051630110ceef60e21b815260206004820181905260126024830152714f7074696f6e546f6b656e466163746f727960701b60448301529151928416926304433bbc92606480840193919291829003018186803b158015613ad057600080fd5b505afa158015613ae4573d6000803e3d6000fd5b505050506040513d6020811015613afa57600080fd5b5051600780546001600160a01b0319166001600160a01b0392831617905560408051630110ceef60e21b8152602060048201819052600f60248301526e155b99195c9b1e5a5b99d5985d5b1d608a1b60448301529151928416926304433bbc92606480840193919291829003018186803b158015613b7757600080fd5b505afa158015613b8b573d6000803e3d6000fd5b505050506040513d6020811015613ba157600080fd5b5051600880546001600160a01b0319166001600160a01b0390921691909117905550670de0b6b3a7640000600f819055601055633b9aca00601155565b6000611eaa601154613c16613bfa613bf586614cca565b614d32565b613c0a888863ffffffff614d8816565b9063ffffffff614d8816565b9063ffffffff614de116565b600081600001516001600160a01b0316638e15f4736040518163ffffffff1660e01b8152600401604080518083038186803b158015613c6057600080fd5b505afa158015613c74573d6000803e3d6000fd5b505050506040513d604081101561186157600080fd5b60008083613d1957846001600160a01b031663a4bd56c7886040518263ffffffff1660e01b815260040180826001600160a01b03166001600160a01b0316815260200191505060206040518083038186803b158015613ce857600080fd5b505afa158015613cfc573d6000803e3d6000fd5b505050506040513d6020811015613d1257600080fd5b5051613d9c565b846001600160a01b031663d0acc58f886040518263ffffffff1660e01b815260040180826001600160a01b03166001600160a01b0316815260200191505060206040518083038186803b158015613d6f57600080fd5b505afa158015613d83573d6000803e3d6000fd5b505050506040513d6020811015613d9957600080fd5b50515b9050613dae838263ffffffff614d8816565b92508315613e2357613dc7878688600001518487614e23565b9150866001600160a01b0316336001600160a01b0316866001600160a01b03167f4a3cb05a76ff28d45e2b73730a44e1d836d2c5adb86a3cc9d2b6473b59c35849846040518082815260200191505060405180910390a4613e76565b60008111613e69576040805162461bcd60e51b815260206004820152600e60248201526d696e76616c696420766f6c756d6560901b604482015290519081900360640190fd5b612344878787848761504e565b5095945050505050565b6000600460009054906101000a90046001600160a01b03166001600160a01b031663bbe4fd506040518163ffffffff1660e01b815260040160206040518083038186803b158015613ed057600080fd5b505afa158015613ee4573d6000803e3d6000fd5b505050506040513d6020811015613efa57600080fd5b5051606083015163ffffffff161115613f7f5781600001516001600160a01b0316638e15f4736040518163ffffffff1660e01b8152600401604080518083038186803b158015613f4957600080fd5b505afa158015613f5d573d6000803e3d6000fd5b505050506040513d6040811015613f7357600080fd5b50602001519050611b3c565b81600001516001600160a01b031663e757223083606001516040518263ffffffff1660e01b8152600401808263ffffffff168152602001915050604080518083038186803b158015613fd057600080fd5b505afa158015613fe4573d6000803e3d6000fd5b505050506040513d6040811015613ffa57600080fd5b506020015192915050565b61400d615768565b60008290506000816001600160a01b031663990c11d8600560009054906101000a90046001600160a01b03166001600160a01b031663b8c3af7b6040518163ffffffff1660e01b815260040160206040518083038186803b15801561407157600080fd5b505afa158015614085573d6000803e3d6000fd5b505050506040513d602081101561409b57600080fd5b5051604080516001600160e01b031960e085901b1681526004810192909252516024808301926020929190829003018186803b1580156140da57600080fd5b505afa1580156140ee573d6000803e3d6000fd5b505050506040513d602081101561410457600080fd5b50516040805180820180835263d2cc49a160e01b905260448101839052905191925090819061418c906001600160a01b0386169063d2cc49a190606480860191602091818803018186803b15801561415b57600080fd5b505afa15801561416f573d6000803e3d6000fd5b505050506040513d602081101561418557600080fd5b5051614c3e565b6001600160781b031681526020016141e1846001600160a01b031663c26802c9856040518263ffffffff1660e01b81526004018082815260200191505060206040518083038186803b15801561415b57600080fd5b6001600160781b03169052949350505050565b6000610e1083836040518060400160405280601e81526020017f536166654d6174683a207375627472616374696f6e206f766572666c6f770000815250615213565b6000614240615768565b5082516001600160a01b03166000908152600b60209081526040918290208251808401909352546001600160781b03808216808552600160781b9092041691830191909152158061429c575060208101516001600160781b0316155b156142af5783516142ac90614005565b90505b60006142eb600f546142df6142d285602001516001600160781b0316888a613bde565b611aee88610dd08b6132d8565b9063ffffffff61347316565b90506001856020015160018111156142ff57fe5b141561433d57600061432d600f54613c168789604001516001600160781b0316614d8890919063ffffffff16565b905061433982826152aa565b9150505b60008113611eaa576000612348565b600061435b8560000151613743565b600083116143a1576040805162461bcd60e51b815260206004820152600e60248201526d696e76616c696420766f6c756d6560901b604482015290519081900360640190fd5b6004805460408051630bbe4fd560e41b815290516001600160a01b039092169263bbe4fd50928282019260209290829003018186803b1580156143e357600080fd5b505afa1580156143f7573d6000803e3d6000fd5b505050506040513d602081101561440d57600080fd5b5051606086015163ffffffff161161445f576040805162461bcd60e51b815260206004820152601060248201526f696e76616c6964206d6174757269747960801b604482015290519081900360640190fd5b600d846040518082805190602001908083835b602083106144915780518252601f199092019160209182019101614472565b51815160001960209485036101000a019081169019919091161790529201948552506040519384900301909220546001600160a01b031692505050806144ff576144fc8560000151866020015187604001516001600160781b0316886060015163ffffffff166113e2565b90505b6040805163d0acc58f60e01b8152336004820152905182916001600160a01b0383169163d0acc58f91602480820192602092909190829003018186803b15801561454857600080fd5b505afa15801561455c573d6000803e3d6000fd5b505050506040513d602081101561457257600080fd5b50511580156145f05750604080516370a0823160e01b815233600482015290516001600160a01b038316916370a08231916024808301926020929190829003018186803b1580156145c257600080fd5b505afa1580156145d6573d6000803e3d6000fd5b505050506040513d60208110156145ec57600080fd5b5051155b1561462e57336000908152600c602090815260408220805460018101825590835291200180546001600160a01b0319166001600160a01b0384161790555b336001600160a01b038416148015906146c65750806001600160a01b031663d0acc58f846040518263ffffffff1660e01b815260040180826001600160a01b03166001600160a01b0316815260200191505060206040518083038186803b15801561469857600080fd5b505afa1580156146ac573d6000803e3d6000fd5b505050506040513d60208110156146c257600080fd5b5051155b80156147515750806001600160a01b03166370a08231846040518263ffffffff1660e01b815260040180826001600160a01b03166001600160a01b0316815260200191505060206040518083038186803b15801561472357600080fd5b505afa158015614737573d6000803e3d6000fd5b505050506040513d602081101561474d57600080fd5b5051155b15614795576001600160a01b038381166000908152600c602090815260408220805460018101825590835291200180546001600160a01b0319169184169190911790555b60408051635b09ccc960e11b81523360048201526001600160a01b0385811660248301526044820187905291519183169163b61399929160648082019260009290919082900301818387803b1580156147ed57600080fd5b505af1158015614801573d6000803e3d6000fd5b505050506001600160a01b038281166000908152600a6020526040902054166148ca576001600160a01b038281166000908152600a60209081526040909120885181546001600160a01b03191693169290921780835590880151889291829060ff60a01b1916600160a01b83600181111561487857fe5b021790555060408201516001909101805460609093015163ffffffff16600160781b0263ffffffff60781b196001600160781b039093166001600160781b031990941693909317919091169190911790555b600061495785836001600160a01b031663a4bd56c7336040518263ffffffff1660e01b815260040180826001600160a01b03166001600160a01b0316815260200191505060206040518083038186803b15801561492657600080fd5b505afa15801561493a573d6000803e3d6000fd5b505050506040513d602081101561495057600080fd5b5051614a22565b905080156149995761498861496c8883614236565b336000908152600960205260409020549063ffffffff6152b916565b336000908152600960205260409020555b6040805186815290516001600160a01b03808716923392918716917f84aa5b93ad2c470d4e48853ea55b71721d342628a481c8c40e3ebc6e728d4be59181900360200190a45050949350505050565b6060610e8e826001615313565b6060610e8e8260000151836020015184604001516001600160781b0316856060015163ffffffff166125a0565b6000818310614a315781610e10565b5090919050565b600081600001516001600160a01b031663acaec6026040518163ffffffff1660e01b815260040160206040518083038186803b15801561183757600080fd5b6000818313614a315781610e10565b614a98826001600160a01b0316615582565b614ae9576040805162461bcd60e51b815260206004820152601f60248201527f5361666545524332303a2063616c6c20746f206e6f6e2d636f6e747261637400604482015290519081900360640190fd5b60006060836001600160a01b0316836040518082805190602001908083835b60208310614b275780518252601f199092019160209182019101614b08565b6001836020036101000a0380198251168184511680821785525050505050509050019150506000604051808303816000865af19150503d8060008114614b89576040519150601f19603f3d011682016040523d82523d6000602084013e614b8e565b606091505b509150915081614be5576040805162461bcd60e51b815260206004820181905260248201527f5361666545524332303a206c6f772d6c6576656c2063616c6c206661696c6564604482015290519081900360640190fd5b80511561230c57808060200190516020811015614c0157600080fd5b505161230c5760405162461bcd60e51b815260040180806020018281038252602a81526020018061587b602a913960400191505060405180910390fd5b6000600160781b8210614c825760405162461bcd60e51b81526004018080602001828103825260278152602001806157806027913960400191505060405180910390fd5b5090565b6000600160201b8210614c825760405162461bcd60e51b81526004018080602001828103825260268152602001806158316026913960400191505060405180910390fd5b600080614cd683613c22565b905080836060015163ffffffff161115614d2757614d2062015180613c16614d1184876060015163ffffffff166141f490919063ffffffff16565b6010549063ffffffff614d8816565b9150614d2c565b600091505b50919050565b600080614d576001614d4b85600263ffffffff614de116565b9063ffffffff6152b916565b90508291505b81811015614d2c57905080614d816002613c1683614d4b878263ffffffff614de116565b9050614d5d565b600082614d9757506000610e8e565b82820282848281614da457fe5b0414610e105760405162461bcd60e51b81526004018080602001828103825260218152602001806157e96021913960400191505060405180910390fd5b6000610e1083836040518060400160405280601a81526020017f536166654d6174683a206469766973696f6e206279207a65726f000000000000815250615588565b60008115614f4657600f54614e3f90839063ffffffff614de116565b600854604080516315567f0d60e31b81526001600160a01b038a81166004830152898116602483015288811660448301526064820185905282519495509092169263aab3f8689260848082019392918290030181600087803b158015614ea457600080fd5b505af1158015614eb8573d6000803e3d6000fd5b505050506040513d6040811015614ece57600080fd5b505060065460408051633468331760e21b81526001600160a01b0389811660048301528881166024830152604482018590529151919092169163d1a0cc5c91606480830192600092919082900301818387803b158015614f2d57600080fd5b505af1158015614f41573d6000803e3d6000fd5b505050505b60085460408051637b7cdc5160e01b81526001600160a01b03898116600483015288811660248301528781166044830152600019606483015291519190921691637b7cdc5191608480830192600092919082900301818387803b158015614fac57600080fd5b505af1158015614fc0573d6000803e3d6000fd5b50505050600083111561234857846001600160a01b0316639dc29fac87856040518363ffffffff1660e01b815260040180836001600160a01b03166001600160a01b0316815260200182815260200192505050600060405180830381600087803b15801561502d57600080fd5b505af1158015615041573d6000803e3d6000fd5b5050505095945050505050565b6000615058615768565b5084516001600160a01b03166000908152600b602090815260408083208151808301909252546001600160781b038082168352600160781b9091041691810191909152906150a8888884886155ed565b90506150ca600f54613c168985600001516001600160781b031689868a615726565b60065460408051633468331760e21b81526001600160a01b038c811660048301528a8116602483015260448201859052915193965091169163d1a0cc5c9160648082019260009290919082900301818387803b15801561512957600080fd5b505af115801561513d573d6000803e3d6000fd5b5050505060008111156151c357856001600160a01b0316639dc29fac89836040518363ffffffff1660e01b815260040180836001600160a01b03166001600160a01b0316815260200182815260200192505050600060405180830381600087803b1580156151aa57600080fd5b505af11580156151be573d6000803e3d6000fd5b505050505b6040805182815290516001600160a01b03808b16923392918a16917f9426e81f32e21c1b2a7f64d6c9eb9e0434fa97ec784cdb07005deb22335590729181900360200190a4505095945050505050565b600081848411156152a25760405162461bcd60e51b81526004018080602001828103825283818151815260200191508051906020019080838360005b8381101561526757818101518382015260200161524f565b50505050905090810190601f1680156152945780820380516001836020036101000a031916815260200191505b509250505060405180910390fd5b505050900390565b6000818312614a315781610e10565b600082820183811015610e10576040805162461bcd60e51b815260206004820152601b60248201527f536166654d6174683a206164646974696f6e206f766572666c6f770000000000604482015290519081900360640190fd5b60608261533857506040805180820190915260018152600360fc1b6020820152610e8e565b60408051606480825260a082019092526060908260208201818038833901905050905060005b85156153a4578151600a808804976001840193919006916030830160f81b918591811061538757fe5b60200101906001600160f81b031916908160001a9053505061535e565b600085156153f85760005b828110156153f6578381815181106153c357fe5b6020910101516001600160f81b031916600360fc1b14156153e9576001909101906153ee565b6153f6565b6001016153af565b505b60006002821161540957600061540b565b815b830390506060816040519080825280601f01601f19166020018201604052801561543c576020820181803883390190505b50905060005b8281101561549157856001828703038151811061545b57fe5b602001015160f81c60f81b82828151811061547257fe5b60200101906001600160f81b031916908160001a905350600101615442565b508096508780156154a25750600283115b1561557657806154b3846000615313565b6040516020018083805190602001908083835b602083106154e55780518252601f1990920191602091820191016154c6565b6001836020036101000a03801982511681845116808217855250505050505090500180606560f81b81525060010182805190602001908083835b6020831061553e5780518252601f19909201916020918201910161551f565b6001836020036101000a0380198251168184511680821785525050505050509050019250505060405160208183030381529060405296505b50505050505092915050565b3b151590565b600081836155d75760405162461bcd60e51b815260206004820181815283516024840152835190928392604490910191908501908083836000831561526757818101518382015260200161524f565b5060008385816155e357fe5b0495945050505050565b600654604080516370a0823160e01b81526001600160a01b0387811660048301529151600093849316916370a08231916024808301926020929190829003018186803b15801561563c57600080fd5b505afa158015615650573d6000803e3d6000fd5b505050506040513d602081101561566657600080fd5b50519050600061567587611869565b90508181116156c3576040805162461bcd60e51b81526020600482015260156024820152743ab73334ba103337b9103634b8bab4b230ba34b7b760591b604482015290519081900360640190fd5b61571a6156fd6156f687600001516001600160781b031688602001516001600160781b03166141f490919063ffffffff16565b8689613bde565b613c1686613c0a600f54613c0a88886141f490919063ffffffff16565b9250611d198385614a22565b600061205684613c1685613c0a86614d4b8b8b8e613bde565b604080516080810190915260008082526020820190815260006020820181905260409091015290565b60408051808201909152600080825260208201529056fe53616665436173743a2076616c756520646f65736e27742066697420696e2031323020626974735369676e6564536166654d6174683a206164646974696f6e206f766572666c6f775369676e6564536166654d6174683a206469766973696f6e206f766572666c6f77536166654d6174683a206d756c7469706c69636174696f6e206f766572666c6f775369676e6564536166654d6174683a206d756c7469706c69636174696f6e206f766572666c6f7753616665436173743a2076616c756520646f65736e27742066697420696e20333220626974735369676e6564536166654d6174683a207375627472616374696f6e206f766572666c6f775361666545524332303a204552433230206f7065726174696f6e20646964206e6f742073756363656564a2646970667358221220fafc495f5e5bed8f04f0ee7cc4a777a35a66d16cdf4999f60d9ea3b89095cce864736f6c63430006000033",
  "source": "pragma solidity >=0.6.0;\n\nimport \"../deployment/Deployer.sol\";\nimport \"../deployment/ManagedContract.sol\";\nimport \"../governance/ProtocolSettings.sol\";\nimport \"../utils/ERC20.sol\";\nimport \"../interfaces/TimeProvider.sol\";\nimport \"../interfaces/UnderlyingFeed.sol\";\nimport \"../utils/Arrays.sol\";\nimport \"../utils/MoreMath.sol\";\nimport \"../utils/SafeCast.sol\";\nimport \"../utils/SafeERC20.sol\";\nimport \"../utils/SafeMath.sol\";\nimport \"../utils/SignedSafeMath.sol\";\nimport \"./CreditProvider.sol\";\nimport \"./OptionToken.sol\";\nimport \"./OptionTokenFactory.sol\";\nimport \"./UnderlyingVault.sol\";\n\ncontract OptionsExchange is ManagedContract {\n\n    using SafeCast for uint;\n    using SafeERC20 for IERC20;\n    using SafeMath for uint;\n    using SignedSafeMath for int;\n    \n    enum OptionType { CALL, PUT }\n    \n    struct OptionData {\n        address udlFeed;\n        OptionType _type;\n        uint120 strike;\n        uint32 maturity;\n    }\n\n    struct FeedData {\n        uint120 lowerVol;\n        uint120 upperVol;\n    }\n    \n    TimeProvider private time;\n    ProtocolSettings private settings;\n    CreditProvider private creditProvider;\n    OptionTokenFactory private factory;\n    UnderlyingVault private vault;\n\n    mapping(address => uint) public collateral;\n    mapping(address => OptionData) private options;\n    mapping(address => FeedData) private feeds;\n    mapping(address => address[]) private book;\n    mapping(string => address) private tokenAddress;\n    mapping(address => mapping(address => uint)) private allowed;\n    \n    uint public volumeBase;\n    uint private timeBase;\n    uint private sqrtTimeBase;\n\n    event WithdrawTokens(address indexed from, uint value);\n\n    event CreateSymbol(address indexed token, address indexed sender);\n\n    event Approval(address indexed owner, address indexed spender, uint value);\n\n    event WriteOptions(\n        address indexed token,\n        address indexed issuer,\n        address indexed onwer,\n        uint volume\n    );\n\n    event LiquidateEarly(\n        address indexed token,\n        address indexed sender,\n        address indexed onwer,\n        uint volume\n    );\n\n    event LiquidateExpired(\n        address indexed token,\n        address indexed sender,\n        address indexed onwer,\n        uint volume\n    );\n\n    function initialize(Deployer deployer) override internal {\n\n        time = TimeProvider(deployer.getContractAddress(\"TimeProvider\"));\n        creditProvider = CreditProvider(deployer.getContractAddress(\"CreditProvider\"));\n        settings = ProtocolSettings(deployer.getContractAddress(\"ProtocolSettings\"));\n        factory = OptionTokenFactory(deployer.getContractAddress(\"OptionTokenFactory\"));\n        vault = UnderlyingVault(deployer.getContractAddress(\"UnderlyingVault\"));\n\n        volumeBase = 1e18;\n        timeBase = 1e18;\n        sqrtTimeBase = 1e9;\n    }\n\n    function depositTokens(\n        address to,\n        address token,\n        uint value,\n        uint deadline,\n        uint8 v,\n        bytes32 r,\n        bytes32 s\n    )\n        external\n    {\n        IERC20Permit(token).permit(msg.sender, address(this), value, deadline, v, r, s);\n        depositTokens(to, token, value);\n    }\n\n    function depositTokens(address to, address token, uint value) public {\n\n        IERC20 t = IERC20(token);\n        t.safeTransferFrom(msg.sender, address(creditProvider), value);\n        creditProvider.addBalance(to, token, value);\n    }\n\n    function balanceOf(address owner) external view returns (uint) {\n\n        return creditProvider.balanceOf(owner);\n    }\n\n    function allowance(address owner, address spender) external view returns (uint) {\n\n        return allowed[owner][spender];\n    }\n\n    function approve(address spender, uint value) external returns (bool) {\n\n        require(spender != address(0));\n        allowed[msg.sender][spender] = value;\n        emit Approval(msg.sender, spender, value);\n        return true;\n    }\n\n    function transferBalance(\n        address from, \n        address to, \n        uint value\n    )\n        external\n    {\n        uint allw = allowed[from][msg.sender];\n        if (allw >= value) {\n            allowed[from][msg.sender] = allw.sub(value);\n        } else {\n            creditProvider.ensureCaller(msg.sender);\n        }\n        creditProvider.transferBalance(from, to, value);\n        ensureFunds(from);\n    }\n\n    function transferBalance(address to, uint value) public {\n\n        creditProvider.transferBalance(msg.sender, to, value);\n        ensureFunds(msg.sender);\n    }\n\n    function underlyingBalance(address owner, address _tk) external view returns (uint) {\n\n        return vault.balanceOf(owner, _tk);\n    }\n    \n    function withdrawTokens(uint value) external {\n        \n        require(value <= calcSurplus(msg.sender), \"insufficient surplus\");\n        creditProvider.withdrawTokens(msg.sender, value);\n        emit WithdrawTokens(msg.sender, value);\n    }\n\n    function createSymbol(\n        address udlFeed,\n        OptionType optType,\n        uint strike, \n        uint maturity\n    )\n        public\n        returns (address tk)\n    {\n        ensureFeedIsAlowed(udlFeed);\n\n        (OptionData memory opt, string memory symbol) =\n            createOptionInMemory(udlFeed, optType, strike, maturity);\n\n        require(tokenAddress[symbol] == address(0), \"already created\");\n\n        tk = factory.create(symbol, udlFeed);\n        tokenAddress[symbol] = tk;\n        options[tk] = opt;\n        prefetchFeedData(udlFeed);\n\n        emit CreateSymbol(tk, msg.sender);\n    }\n\n    function getOptionSymbol(\n        address udlFeed,\n        OptionType optType,\n        uint strike, \n        uint maturity\n    )\n        public\n        view\n        returns (string memory symbol)\n    {    \n        symbol = string(abi.encodePacked(\n            UnderlyingFeed(udlFeed).symbol(),\n            \"-\",\n            \"E\",\n            optType == OptionType.CALL ? \"C\" : \"P\",\n            \"-\",\n            MoreMath.toString(strike),\n            \"-\",\n            MoreMath.toString(maturity)\n        ));\n    }\n\n    function writeOptions(\n        address udlFeed,\n        uint volume,\n        OptionType optType,\n        uint strike, \n        uint maturity,\n        address to\n    )\n        external \n        returns (address _tk)\n    {\n        (OptionData memory opt, string memory symbol) =\n            createOptionInMemory(udlFeed, optType, strike, maturity);\n        (_tk) = writeOptionsInternal(opt, symbol, volume, to);\n        ensureFunds(msg.sender);\n    }\n\n    function writeCovered(\n        address udlFeed,\n        uint volume,\n        uint strike, \n        uint maturity,\n        address to\n    )\n        external \n        returns (address _tk)\n    {\n        (OptionData memory opt, string memory symbol) =\n            createOptionInMemory(udlFeed, OptionType.CALL, strike, maturity);\n        _tk = tokenAddress[symbol];\n\n        if (_tk == address(0)) {\n            _tk = createSymbol(opt.udlFeed, OptionType.CALL, strike, maturity);\n        }\n        \n        address underlying = getUnderlyingAddr(opt);\n        require(underlying != address(0), \"underlying token not set\");\n        IERC20(underlying).safeTransferFrom(msg.sender, address(vault), volume);\n        vault.lock(msg.sender, _tk, volume);\n\n        writeOptionsInternal(opt, symbol, volume, to);\n        ensureFunds(msg.sender);\n    }\n    \n    function transferOwnership(\n        string calldata symbol,\n        address from,\n        address to,\n        uint value\n    )\n        external\n    {\n        require(tokenAddress[symbol] == msg.sender, \"unauthorized ownership transfer\");\n        \n        OptionToken tk = OptionToken(msg.sender);\n        \n        if (tk.writtenVolume(from) == 0 && tk.balanceOf(from) == 0) {\n            Arrays.removeItem(book[from], msg.sender);\n        }\n\n        if (tk.writtenVolume(to) == 0 && tk.balanceOf(to) == value) {\n            book[to].push(msg.sender);\n        }\n\n        ensureFunds(from);\n    }\n\n    function release(address owner, uint udl, uint coll) public {\n\n        OptionToken tk = OptionToken(msg.sender);\n        require(tokenAddress[tk.symbol()] == msg.sender, \"unauthorized release\");\n\n        OptionData memory opt = options[msg.sender];\n\n        if (udl > 0) {\n            vault.release(owner,  msg.sender, opt.udlFeed, udl);\n        }\n        \n        if (coll > 0) {\n            uint c = collateral[owner];\n            collateral[owner] = c.sub(\n                MoreMath.min(c, calcCollateral(opt, coll))\n            );\n        }\n    }\n\n    function cleanUp(address owner, address _tk) public {\n\n        OptionToken tk = OptionToken(_tk);\n\n        if (tk.balanceOf(owner) == 0 && tk.writtenVolume(owner) == 0) {\n            Arrays.removeItem(book[owner], _tk);\n        }\n    }\n\n    function liquidateExpired(address _tk, address[] calldata owners) external {\n\n        OptionData memory opt = options[_tk];\n        OptionToken tk = OptionToken(_tk);\n        require(getUdlNow(opt) >= opt.maturity, \"option not expired\");\n        uint iv = uint(calcIntrinsicValue(opt));\n\n        for (uint i = 0; i < owners.length; i++) {\n            liquidateOptions(owners[i], opt, tk, true, iv);\n        }\n    }\n\n    function liquidateOptions(address _tk, address owner) public returns (uint value) {\n        \n        OptionData memory opt = options[_tk];\n        require(opt.udlFeed != address(0), \"token not found\");\n\n        OptionToken tk = OptionToken(_tk);\n        require(tk.writtenVolume(owner) > 0, \"invalid token\");\n\n        bool isExpired = getUdlNow(opt) >= opt.maturity;\n        uint iv = uint(calcIntrinsicValue(opt));\n        \n        value = liquidateOptions(owner, opt, tk, isExpired, iv);\n    }\n\n    function calcDebt(address owner) external view returns (uint debt) {\n\n        debt = creditProvider.calcDebt(owner);\n    }\n    \n    function calcSurplus(address owner) public view returns (uint) {\n        \n        uint coll = calcCollateral(owner);\n        uint bal = creditProvider.balanceOf(owner);\n        if (bal >= coll) {\n            return bal.sub(coll);\n        }\n        return 0;\n    }\n\n    function setCollateral(address owner) external {\n\n        collateral[owner] = calcCollateral(owner);\n    }\n    \n    function calcCollateral(address owner) public view returns (uint) {\n        \n        int coll;\n        address[] memory _book = book[owner];\n\n        for (uint i = 0; i < _book.length; i++) {\n\n            address _tk = _book[i];\n            OptionToken tk = OptionToken(_tk);\n            OptionData memory opt = options[_tk];\n\n            uint written = tk.uncoveredVolume(owner);\n            uint holding = tk.balanceOf(owner);\n\n            coll = coll.add(\n                calcIntrinsicValue(opt).mul(\n                    int(written).sub(int(holding))\n                )\n            ).add(int(calcCollateral(feeds[opt.udlFeed].upperVol, written, opt)));\n        }\n\n        coll = coll.div(int(volumeBase));\n\n        if (coll < 0)\n            return 0;\n        return uint(coll);\n    }\n\n    function calcCollateral(\n        address udlFeed,\n        uint volume,\n        OptionType optType,\n        uint strike, \n        uint maturity\n    )\n        public\n        view\n        returns (uint)\n    {\n        (OptionData memory opt,) = createOptionInMemory(udlFeed, optType, strike, maturity);\n        return calcCollateral(opt, volume);\n    }\n\n    function calcExpectedPayout(address owner) external view returns (int payout) {\n\n        address[] memory _book = book[owner];\n\n        for (uint i = 0; i < _book.length; i++) {\n\n            OptionToken tk = OptionToken(_book[i]);\n            OptionData memory opt = options[_book[i]];\n\n            uint written = tk.writtenVolume(owner);\n            uint holding = tk.balanceOf(owner);\n\n            payout = payout.add(\n                calcIntrinsicValue(opt).mul(\n                    int(holding).sub(int(written))\n                )\n            );\n        }\n\n        payout = payout.div(int(volumeBase));\n    }\n    \n    function calcIntrinsicValue(address _tk) external view returns (int) {\n        \n        return calcIntrinsicValue(options[_tk]);\n    }\n\n    function calcIntrinsicValue(\n        address udlFeed,\n        OptionType optType,\n        uint strike, \n        uint maturity\n    )\n        external\n        view\n        returns (int)\n    {\n        (OptionData memory opt,) = createOptionInMemory(udlFeed, optType, strike, maturity);\n        return calcIntrinsicValue(opt);\n    }\n\n    function getUnderlyingPrice(string calldata symbol) external view returns (int) {\n        \n        address _ts = tokenAddress[symbol];\n        require(_ts != address(0), \"token not found\");\n        return getUdlPrice(options[_ts]);\n    }\n\n    function resolveToken(string memory symbol) public view returns (address) {\n        \n        address addr = tokenAddress[symbol];\n        require(addr != address(0), \"token not found\");\n        return addr;\n    }\n\n    function prefetchFeedData(address udlFeed) public {\n        \n        feeds[udlFeed] = getFeedData(udlFeed);\n    }\n\n    function getBook(address owner)\n        external view\n        returns (\n            string memory symbols,\n            address[] memory tokens,\n            uint[] memory holding,\n            uint[] memory written,\n            int[] memory iv\n        )\n    {\n        tokens = book[owner];\n        holding = new uint[](tokens.length);\n        written = new uint[](tokens.length);\n        iv = new int[](tokens.length);\n\n        for (uint i = 0; i < tokens.length; i++) {\n            OptionToken tk = OptionToken(tokens[i]);\n            OptionData memory opt = options[tokens[i]];\n            if (i == 0) {\n                symbols = getOptionSymbol(opt);\n            } else {\n                symbols = string(abi.encodePacked(symbols, \"\\n\", getOptionSymbol(opt)));\n            }\n            holding[i] = tk.balanceOf(owner);\n            written[i] = tk.writtenVolume(owner);\n            iv[i] = calcIntrinsicValue(opt);\n        }\n    }\n\n    function ensureFunds(address owner) private view {\n        \n        require(\n            creditProvider.balanceOf(owner) >= collateral[owner],\n            \"insufficient collateral\"\n        );\n    }\n\n    function createOptionInMemory(\n        address udlFeed,\n        OptionType optType,\n        uint strike, \n        uint maturity\n    )\n        private\n        view\n        returns (OptionData memory opt, string memory symbol)\n    {\n        opt = OptionData(udlFeed, optType, strike.toUint120(), maturity.toUint32());\n        symbol = getOptionSymbol(opt);\n    }\n\n    function writeOptionsInternal(\n        OptionData memory opt,\n        string memory symbol,\n        uint volume,\n        address to\n    )\n        private \n        returns (address _tk)\n    {\n        ensureFeedIsAlowed(opt.udlFeed);\n        require(volume > 0, \"invalid volume\");\n        require(opt.maturity > time.getNow(), \"invalid maturity\");\n\n        _tk = tokenAddress[symbol];\n        if (_tk == address(0)) {\n            _tk = createSymbol(opt.udlFeed, opt._type, opt.strike, opt.maturity);\n        }\n\n        OptionToken tk = OptionToken(_tk);\n        if (tk.writtenVolume(msg.sender) == 0 && tk.balanceOf(msg.sender) == 0) {\n            book[msg.sender].push(_tk);\n        }\n        if (msg.sender != to && tk.writtenVolume(to) == 0 && tk.balanceOf(to) == 0) {\n            book[to].push(_tk);\n        }\n        tk.issue(msg.sender, to, volume);\n\n        if (options[_tk].udlFeed == address(0)) {\n            options[_tk] = opt;\n        }\n        \n        uint v = MoreMath.min(volume, tk.uncoveredVolume(msg.sender));\n        if (v > 0) {\n            collateral[msg.sender] = collateral[msg.sender].add(\n                calcCollateral(opt, v)\n            );\n        }\n\n        emit WriteOptions(_tk, msg.sender, to, volume);\n    }\n\n    function liquidateOptions(\n        address owner,\n        OptionData memory opt,\n        OptionToken tk,\n        bool isExpired,\n        uint iv\n    )\n        private\n        returns (uint value)\n    {\n        uint written = isExpired ?\n            tk.writtenVolume(owner) :\n            tk.uncoveredVolume(owner);\n        iv = iv.mul(written);\n\n        if (isExpired) {\n            value = liquidateAfterMaturity(owner, tk, opt.udlFeed, written, iv);\n            emit LiquidateExpired(address(tk), msg.sender, owner, written);\n        } else {\n            require(written > 0, \"invalid volume\");\n            value = liquidateBeforeMaturity(owner, opt, tk, written, iv);\n        }\n    }\n\n    function liquidateAfterMaturity(\n        address owner,\n        OptionToken tk,\n        address feed,\n        uint written,\n        uint iv\n    )\n        private\n        returns (uint value)\n    {\n        if (iv > 0) {\n            value = iv.div(volumeBase);\n            vault.liquidate(owner, address(tk), feed, value);\n            creditProvider.processPayment(owner, address(tk), value);\n        }\n\n        vault.release(owner, address(tk), feed, uint(-1));\n\n        if (written > 0) {\n            tk.burn(owner, written);\n        }\n    }\n\n    function liquidateBeforeMaturity(\n        address owner,\n        OptionData memory opt,\n        OptionToken tk,\n        uint written,\n        uint iv\n    )\n        private\n        returns (uint value)\n    {\n        FeedData memory fd = feeds[opt.udlFeed];\n\n        uint volume = calcLiquidationVolume(owner, opt, fd, written);\n        value = calcLiquidationValue(opt, fd.lowerVol, written, volume, iv)\n            .div(volumeBase);\n        creditProvider.processPayment(owner, address(tk), value);\n\n        if (volume > 0) {\n            tk.burn(owner, volume);\n        }\n\n        emit LiquidateEarly(address(tk), msg.sender, owner, volume);\n    }\n\n    function calcLiquidationVolume(\n        address owner,\n        OptionData memory opt,\n        FeedData memory fd,\n        uint written\n    )\n        private\n        view\n        returns (uint volume)\n    {    \n        uint bal = creditProvider.balanceOf(owner);\n        uint coll = calcCollateral(owner);\n        require(coll > bal, \"unfit for liquidation\");\n\n        volume = coll.sub(bal).mul(volumeBase).mul(written).div(\n            calcCollateral(\n                uint(fd.upperVol).sub(uint(fd.lowerVol)),\n                written,\n                opt\n            )\n        );\n\n        volume = MoreMath.min(volume, written);\n    }\n\n    function calcLiquidationValue(\n        OptionData memory opt,\n        uint vol,\n        uint written,\n        uint volume,\n        uint iv\n    )\n        private\n        view\n        returns (uint value)\n    {    \n        value = calcCollateral(vol, written, opt).add(iv).mul(volume).div(written);\n    }\n\n    function getFeedData(address udlFeed) private view returns (FeedData memory fd) {\n        \n        UnderlyingFeed feed = UnderlyingFeed(udlFeed);\n\n        uint vol = feed.getDailyVolatility(settings.getVolatilityPeriod());\n\n        fd = FeedData(\n            feed.calcLowerVolatility(uint(vol)).toUint120(),\n            feed.calcUpperVolatility(uint(vol)).toUint120()\n        );\n    }\n\n    function getOptionSymbol(OptionData memory opt) private view returns (string memory symbol) {    \n\n        symbol = getOptionSymbol(\n            opt.udlFeed,\n            opt._type,\n            opt.strike,\n            opt.maturity\n        );\n    }\n\n    function calcCollateral(\n        OptionData memory opt,\n        uint volume\n    )\n        private\n        view\n        returns (uint)\n    {\n        FeedData memory fd = feeds[opt.udlFeed];\n        if (fd.lowerVol == 0 || fd.upperVol == 0) {\n            fd = getFeedData(opt.udlFeed);\n        }\n\n        int coll = calcIntrinsicValue(opt).mul(int(volume)).add(\n            int(calcCollateral(fd.upperVol, volume, opt))\n        ).div(int(volumeBase));\n\n        if (opt._type == OptionType.PUT) {\n            int max = int(uint(opt.strike).mul(volume).div(volumeBase));\n            coll = MoreMath.min(coll, max);\n        }\n\n        return coll > 0 ? uint(coll) : 0;\n    }\n    \n    function calcCollateral(uint vol, uint volume, OptionData memory opt) private view returns (uint) {\n        \n        return (vol.mul(volume).mul(\n            MoreMath.sqrt(daysToMaturity(opt)))\n        ).div(sqrtTimeBase);\n    }\n    \n    function calcIntrinsicValue(OptionData memory opt) private view returns (int value) {\n        \n        int udlPrice = getUdlPrice(opt);\n        int strike = int(opt.strike);\n\n        if (opt._type == OptionType.CALL) {\n            value = MoreMath.max(0, udlPrice.sub(strike));\n        } else if (opt._type == OptionType.PUT) {\n            value = MoreMath.max(0, strike.sub(udlPrice));\n        }\n    }\n    \n    function daysToMaturity(OptionData memory opt) private view returns (uint d) {\n        \n        uint _now = getUdlNow(opt);\n        if (opt.maturity > _now) {\n            d = (timeBase.mul(uint(opt.maturity).sub(uint(_now)))).div(1 days);\n        } else {\n            d = 0;\n        }\n    }\n\n    function getUdlPrice(OptionData memory opt) private view returns (int answer) {\n\n        if (opt.maturity > time.getNow()) {\n            (,answer) = UnderlyingFeed(opt.udlFeed).getLatestPrice();\n        } else {\n            (,answer) = UnderlyingFeed(opt.udlFeed).getPrice(opt.maturity);\n        }\n    }\n\n    function getUnderlyingAddr(OptionData memory opt) private view returns (address) {\n        \n        return UnderlyingFeed(opt.udlFeed).getUnderlyingAddr();\n    }\n\n    function getUdlNow(OptionData memory opt) private view returns (uint timestamp) {\n\n        (timestamp,) = UnderlyingFeed(opt.udlFeed).getLatestPrice();\n    }\n\n    function ensureFeedIsAlowed(address udlFeed) private view {\n        \n        require(settings.getUdlFeed(udlFeed) > 0, \"feed not allowed\");\n    }\n}\n",
  "sourcePath": "/Users/dev/Documents/coding/defioptions/DeFiOptions-contracts/contracts/finance/OptionsExchange.sol",
  "compiler": {
    "name": "solc",
    "version": "0.6.0+commit.26b70077.Emscripten.clang"
  },
  "schemaVersion": "3.3.3",
  "updatedAt": "2021-10-20T12:34:57.429Z",
  "devdoc": {
    "methods": {}
  },
  "userdoc": {
    "methods": {}
  }
}