{
  "contractName": "OptionsExchange",
  "abi": [
    {
      "inputs": [
        {
          "internalType": "address",
          "name": "deployer",
          "type": "address"
        }
      ],
      "stateMutability": "nonpayable",
      "type": "constructor"
    },
    {
      "anonymous": false,
      "inputs": [
        {
          "indexed": true,
          "internalType": "string",
          "name": "symbol",
          "type": "string"
        }
      ],
      "name": "CreateSymbol",
      "type": "event"
    },
    {
      "anonymous": false,
      "inputs": [
        {
          "indexed": true,
          "internalType": "string",
          "name": "symbol",
          "type": "string"
        },
        {
          "indexed": false,
          "internalType": "int256",
          "name": "udlPrice",
          "type": "int256"
        },
        {
          "indexed": false,
          "internalType": "uint256",
          "name": "value",
          "type": "uint256"
        }
      ],
      "name": "LiquidateSymbol",
      "type": "event"
    },
    {
      "anonymous": false,
      "inputs": [
        {
          "indexed": true,
          "internalType": "string",
          "name": "symbol",
          "type": "string"
        },
        {
          "indexed": true,
          "internalType": "address",
          "name": "issuer",
          "type": "address"
        },
        {
          "indexed": false,
          "internalType": "uint256",
          "name": "volume",
          "type": "uint256"
        },
        {
          "indexed": false,
          "internalType": "uint256",
          "name": "id",
          "type": "uint256"
        }
      ],
      "name": "WriteOptions",
      "type": "event"
    },
    {
      "inputs": [],
      "name": "DOMAIN_SEPARATOR",
      "outputs": [
        {
          "internalType": "bytes32",
          "name": "",
          "type": "bytes32"
        }
      ],
      "stateMutability": "view",
      "type": "function"
    },
    {
      "inputs": [],
      "name": "PERMIT_TYPEHASH",
      "outputs": [
        {
          "internalType": "bytes32",
          "name": "",
          "type": "bytes32"
        }
      ],
      "stateMutability": "view",
      "type": "function"
    },
    {
      "inputs": [
        {
          "internalType": "contract Deployer",
          "name": "deployer",
          "type": "address"
        }
      ],
      "name": "initializeAndLock",
      "outputs": [],
      "stateMutability": "nonpayable",
      "type": "function"
    },
    {
      "inputs": [
        {
          "internalType": "address",
          "name": "",
          "type": "address"
        }
      ],
      "name": "nonces",
      "outputs": [
        {
          "internalType": "uint256",
          "name": "",
          "type": "uint256"
        }
      ],
      "stateMutability": "view",
      "type": "function"
    },
    {
      "inputs": [
        {
          "internalType": "address",
          "name": "to",
          "type": "address"
        },
        {
          "internalType": "address",
          "name": "token",
          "type": "address"
        },
        {
          "internalType": "uint256",
          "name": "value",
          "type": "uint256"
        }
      ],
      "name": "depositTokens",
      "outputs": [],
      "stateMutability": "nonpayable",
      "type": "function"
    },
    {
      "inputs": [
        {
          "internalType": "address",
          "name": "to",
          "type": "address"
        },
        {
          "internalType": "address",
          "name": "token",
          "type": "address"
        },
        {
          "internalType": "uint256",
          "name": "value",
          "type": "uint256"
        },
        {
          "internalType": "uint256",
          "name": "deadline",
          "type": "uint256"
        },
        {
          "internalType": "uint8",
          "name": "v",
          "type": "uint8"
        },
        {
          "internalType": "bytes32",
          "name": "r",
          "type": "bytes32"
        },
        {
          "internalType": "bytes32",
          "name": "s",
          "type": "bytes32"
        }
      ],
      "name": "depositTokens",
      "outputs": [],
      "stateMutability": "nonpayable",
      "type": "function"
    },
    {
      "inputs": [
        {
          "internalType": "address",
          "name": "owner",
          "type": "address"
        }
      ],
      "name": "balanceOf",
      "outputs": [
        {
          "internalType": "uint256",
          "name": "",
          "type": "uint256"
        }
      ],
      "stateMutability": "view",
      "type": "function"
    },
    {
      "inputs": [
        {
          "internalType": "address",
          "name": "from",
          "type": "address"
        },
        {
          "internalType": "address",
          "name": "to",
          "type": "address"
        },
        {
          "internalType": "uint256",
          "name": "value",
          "type": "uint256"
        },
        {
          "internalType": "uint256",
          "name": "maxValue",
          "type": "uint256"
        },
        {
          "internalType": "uint256",
          "name": "deadline",
          "type": "uint256"
        },
        {
          "internalType": "uint8",
          "name": "v",
          "type": "uint8"
        },
        {
          "internalType": "bytes32",
          "name": "r",
          "type": "bytes32"
        },
        {
          "internalType": "bytes32",
          "name": "s",
          "type": "bytes32"
        }
      ],
      "name": "transferBalance",
      "outputs": [],
      "stateMutability": "nonpayable",
      "type": "function"
    },
    {
      "inputs": [
        {
          "internalType": "address",
          "name": "to",
          "type": "address"
        },
        {
          "internalType": "uint256",
          "name": "value",
          "type": "uint256"
        }
      ],
      "name": "transferBalance",
      "outputs": [],
      "stateMutability": "nonpayable",
      "type": "function"
    },
    {
      "inputs": [
        {
          "internalType": "uint256",
          "name": "value",
          "type": "uint256"
        }
      ],
      "name": "withdrawTokens",
      "outputs": [],
      "stateMutability": "nonpayable",
      "type": "function"
    },
    {
      "inputs": [
        {
          "internalType": "address",
          "name": "udlFeed",
          "type": "address"
        },
        {
          "internalType": "uint256",
          "name": "volume",
          "type": "uint256"
        },
        {
          "internalType": "enum OptionsExchange.OptionType",
          "name": "optType",
          "type": "uint8"
        },
        {
          "internalType": "uint256",
          "name": "strike",
          "type": "uint256"
        },
        {
          "internalType": "uint256",
          "name": "maturity",
          "type": "uint256"
        }
      ],
      "name": "writeOptions",
      "outputs": [
        {
          "internalType": "uint256",
          "name": "id",
          "type": "uint256"
        }
      ],
      "stateMutability": "nonpayable",
      "type": "function"
    },
    {
      "inputs": [
        {
          "internalType": "string",
          "name": "symbol",
          "type": "string"
        },
        {
          "internalType": "address",
          "name": "owner",
          "type": "address"
        }
      ],
      "name": "writtenVolume",
      "outputs": [
        {
          "internalType": "uint256",
          "name": "",
          "type": "uint256"
        }
      ],
      "stateMutability": "view",
      "type": "function"
    },
    {
      "inputs": [
        {
          "internalType": "string",
          "name": "symbol",
          "type": "string"
        },
        {
          "internalType": "address",
          "name": "from",
          "type": "address"
        },
        {
          "internalType": "address",
          "name": "to",
          "type": "address"
        },
        {
          "internalType": "uint256",
          "name": "volume",
          "type": "uint256"
        }
      ],
      "name": "transferOwnership",
      "outputs": [],
      "stateMutability": "nonpayable",
      "type": "function"
    },
    {
      "inputs": [
        {
          "internalType": "string",
          "name": "symbol",
          "type": "string"
        },
        {
          "internalType": "address",
          "name": "owner",
          "type": "address"
        },
        {
          "internalType": "uint256",
          "name": "volume",
          "type": "uint256"
        }
      ],
      "name": "burnOptions",
      "outputs": [],
      "stateMutability": "nonpayable",
      "type": "function"
    },
    {
      "inputs": [
        {
          "internalType": "string",
          "name": "symbol",
          "type": "string"
        },
        {
          "internalType": "uint256",
          "name": "limit",
          "type": "uint256"
        }
      ],
      "name": "liquidateSymbol",
      "outputs": [],
      "stateMutability": "nonpayable",
      "type": "function"
    },
    {
      "inputs": [
        {
          "internalType": "uint256",
          "name": "id",
          "type": "uint256"
        }
      ],
      "name": "liquidateOptions",
      "outputs": [
        {
          "internalType": "uint256",
          "name": "value",
          "type": "uint256"
        }
      ],
      "stateMutability": "nonpayable",
      "type": "function"
    },
    {
      "inputs": [
        {
          "internalType": "address",
          "name": "owner",
          "type": "address"
        }
      ],
      "name": "calcDebt",
      "outputs": [
        {
          "internalType": "uint256",
          "name": "debt",
          "type": "uint256"
        }
      ],
      "stateMutability": "view",
      "type": "function"
    },
    {
      "inputs": [
        {
          "internalType": "address",
          "name": "owner",
          "type": "address"
        }
      ],
      "name": "calcSurplus",
      "outputs": [
        {
          "internalType": "uint256",
          "name": "",
          "type": "uint256"
        }
      ],
      "stateMutability": "view",
      "type": "function"
    },
    {
      "inputs": [
        {
          "internalType": "address",
          "name": "owner",
          "type": "address"
        }
      ],
      "name": "calcExpectedPayout",
      "outputs": [
        {
          "internalType": "int256",
          "name": "payout",
          "type": "int256"
        }
      ],
      "stateMutability": "view",
      "type": "function"
    },
    {
      "inputs": [
        {
          "internalType": "uint256",
          "name": "id",
          "type": "uint256"
        }
      ],
      "name": "resolveSymbol",
      "outputs": [
        {
          "internalType": "string",
          "name": "",
          "type": "string"
        }
      ],
      "stateMutability": "view",
      "type": "function"
    },
    {
      "inputs": [
        {
          "internalType": "string",
          "name": "symbol",
          "type": "string"
        }
      ],
      "name": "resolveToken",
      "outputs": [
        {
          "internalType": "address",
          "name": "",
          "type": "address"
        }
      ],
      "stateMutability": "view",
      "type": "function"
    },
    {
      "inputs": [
        {
          "internalType": "uint256",
          "name": "id",
          "type": "uint256"
        }
      ],
      "name": "resolveToken",
      "outputs": [
        {
          "internalType": "address",
          "name": "",
          "type": "address"
        }
      ],
      "stateMutability": "view",
      "type": "function"
    },
    {
      "inputs": [
        {
          "internalType": "address",
          "name": "owner",
          "type": "address"
        }
      ],
      "name": "getBook",
      "outputs": [
        {
          "internalType": "string",
          "name": "symbols",
          "type": "string"
        },
        {
          "internalType": "uint256[]",
          "name": "holding",
          "type": "uint256[]"
        },
        {
          "internalType": "uint256[]",
          "name": "written",
          "type": "uint256[]"
        },
        {
          "internalType": "int256[]",
          "name": "iv",
          "type": "int256[]"
        }
      ],
      "stateMutability": "view",
      "type": "function"
    },
    {
      "inputs": [],
      "name": "getBookLength",
      "outputs": [
        {
          "internalType": "uint256",
          "name": "len",
          "type": "uint256"
        }
      ],
      "stateMutability": "view",
      "type": "function"
    },
    {
      "inputs": [],
      "name": "getVolumeBase",
      "outputs": [
        {
          "internalType": "uint256",
          "name": "",
          "type": "uint256"
        }
      ],
      "stateMutability": "view",
      "type": "function"
    },
    {
      "inputs": [
        {
          "internalType": "uint256",
          "name": "id",
          "type": "uint256"
        }
      ],
      "name": "calcLowerCollateral",
      "outputs": [
        {
          "internalType": "uint256",
          "name": "",
          "type": "uint256"
        }
      ],
      "stateMutability": "view",
      "type": "function"
    },
    {
      "inputs": [
        {
          "internalType": "uint256",
          "name": "id",
          "type": "uint256"
        }
      ],
      "name": "calcUpperCollateral",
      "outputs": [
        {
          "internalType": "uint256",
          "name": "",
          "type": "uint256"
        }
      ],
      "stateMutability": "view",
      "type": "function"
    },
    {
      "inputs": [
        {
          "internalType": "address",
          "name": "owner",
          "type": "address"
        }
      ],
      "name": "calcCollateral",
      "outputs": [
        {
          "internalType": "uint256",
          "name": "",
          "type": "uint256"
        }
      ],
      "stateMutability": "view",
      "type": "function"
    },
    {
      "inputs": [
        {
          "internalType": "address",
          "name": "udlFeed",
          "type": "address"
        },
        {
          "internalType": "uint256",
          "name": "volume",
          "type": "uint256"
        },
        {
          "internalType": "enum OptionsExchange.OptionType",
          "name": "optType",
          "type": "uint8"
        },
        {
          "internalType": "uint256",
          "name": "strike",
          "type": "uint256"
        },
        {
          "internalType": "uint256",
          "name": "maturity",
          "type": "uint256"
        }
      ],
      "name": "calcCollateral",
      "outputs": [
        {
          "internalType": "uint256",
          "name": "",
          "type": "uint256"
        }
      ],
      "stateMutability": "view",
      "type": "function"
    },
    {
      "inputs": [
        {
          "internalType": "uint256",
          "name": "id",
          "type": "uint256"
        }
      ],
      "name": "calcIntrinsicValue",
      "outputs": [
        {
          "internalType": "int256",
          "name": "",
          "type": "int256"
        }
      ],
      "stateMutability": "view",
      "type": "function"
    },
    {
      "inputs": [
        {
          "internalType": "address",
          "name": "udlFeed",
          "type": "address"
        },
        {
          "internalType": "enum OptionsExchange.OptionType",
          "name": "optType",
          "type": "uint8"
        },
        {
          "internalType": "uint256",
          "name": "strike",
          "type": "uint256"
        },
        {
          "internalType": "uint256",
          "name": "maturity",
          "type": "uint256"
        }
      ],
      "name": "calcIntrinsicValue",
      "outputs": [
        {
          "internalType": "int256",
          "name": "",
          "type": "int256"
        }
      ],
      "stateMutability": "view",
      "type": "function"
    }
  ],
  "bytecode": "0x60806040523480156200001157600080fd5b5060405162005df538038062005df5833981810160405260208110156200003757600080fd5b5051604080518082018252600f81526e4f7074696f6e7345786368616e676560881b6020828101918252925163ac119e7b60e01b81526004810193845282516024820152825192936001600160a01b0386169363ac119e7b93869383926044909101919080838360005b83811015620000bb578181015183820152602001620000a1565b50505050905090810190601f168015620000e95780820380516001836020036101000a031916815260200191505b5092505050600060405180830381600087803b1580156200010957600080fd5b505af11580156200011e573d6000803e3d6000fd5b5050604051469250905080605262005da38239604080519182900360520182208551602096870120838301835260018452603160f81b93870193909352815180870191909152808201929092527fc89efdaa54c0f20c7adf612882df0950f5a951637e0307cdcb4c672f298b8bc6606083015260808201939093523060a0808301919091528351808303909101815260c090910190925250805191012060115550615bd480620001cf6000396000f3fe608060405234801561001057600080fd5b50600436106101e55760003560e01c806365a450611161010f578063b434e9d6116100a2578063e3425d1611610071578063e3425d16146107d9578063ef38eaf114610849578063f3559d27146109b2578063ffee7c9714610a44576101e5565b8063b434e9d614610738578063bb949ec814610779578063c8f8a39914610796578063d9537cdf146107b3576101e5565b806383a7e7e1116100de57806383a7e7e1146105dd5780638c922b631461061857806392d85810146106da578063b20bd89f1461071b576101e5565b806365a45061146104f257806370a082311461051857806373133c7e1461053e5780637ecebe00146105b7576101e5565b806339dc5ef21161018757806356a6d9ef1161015657806356a6d9ef146103fb5780635c1bfb32146104275780635efb90fc1461044d578063607be1a414610473576101e5565b806339dc5ef21461034f578063439fa088146103855780634682a14a146103d657806354791953146103f3576101e5565b806330adf81f116101c357806330adf81f14610305578063315a095d1461030d5780633644e5151461032a5780633854134414610332576101e5565b806302c23074146101ea5780630a93320e1461022257806316be637a1461027c575b600080fd5b6102106004803603602081101561020057600080fd5b50356001600160a01b0316610a4c565b60408051918252519081900360200190f35b61027a600480360361010081101561023957600080fd5b506001600160a01b03813581169160208101359091169060408101359060608101359060808101359060ff60a0820135169060c08101359060e00135610c8e565b005b61027a6004803603608081101561029257600080fd5b8101906020810181356401000000008111156102ad57600080fd5b8201836020820111156102bf57600080fd5b803590602001918460018302840111640100000000831117156102e157600080fd5b91935091506001600160a01b03813581169160208101359091169060400135610d79565b61021061146d565b61027a6004803603602081101561032357600080fd5b5035611491565b61021061155c565b6102106004803603602081101561034857600080fd5b5035611562565b61027a6004803603606081101561036557600080fd5b506001600160a01b0381358116916020810135909116906040013561186b565b61027a600480360360e081101561039b57600080fd5b506001600160a01b03813581169160208101359091169060408101359060608101359060ff6080820135169060a08101359060c001356119e2565b610210600480360360208110156103ec57600080fd5b5035611a77565b610210611b6d565b61027a6004803603604081101561041157600080fd5b506001600160a01b038135169060200135611b74565b61027a6004803603602081101561043d57600080fd5b50356001600160a01b0316611bf4565b6102106004803603602081101561046357600080fd5b50356001600160a01b0316611c5b565b61027a6004803603606081101561048957600080fd5b8101906020810181356401000000008111156104a457600080fd5b8201836020820111156104b657600080fd5b803590602001918460018302840111640100000000831117156104d857600080fd5b91935091506001600160a01b038135169060200135611cde565b6102106004803603602081101561050857600080fd5b50356001600160a01b0316611f78565b6102106004803603602081101561052e57600080fd5b50356001600160a01b03166121ef565b6102106004803603604081101561055457600080fd5b81019060208101813564010000000081111561056f57600080fd5b82018360208201111561058157600080fd5b803590602001918460018302840111640100000000831117156105a357600080fd5b9193509150356001600160a01b0316612240565b610210600480360360208110156105cd57600080fd5b50356001600160a01b0316612297565b610210600480360360808110156105f357600080fd5b506001600160a01b038135169060ff60208201351690604081013590606001356122a9565b6106be6004803603602081101561062e57600080fd5b81019060208101813564010000000081111561064957600080fd5b82018360208201111561065b57600080fd5b8035906020019184600183028401116401000000008311171561067d57600080fd5b91908080601f0160208091040260200160405190810160405280939291908181526020018383808284376000920191909152509295506122d9945050505050565b604080516001600160a01b039092168252519081900360200190f35b610210600480360360a08110156106f057600080fd5b506001600160a01b038135169060208101359060ff604082013516906060810135906080013561239b565b6102106004803603602081101561073157600080fd5b50356123be565b610210600480360360a081101561074e57600080fd5b506001600160a01b038135169060208101359060ff60408201351690606081013590608001356124de565b6102106004803603602081101561078f57600080fd5b5035612551565b6106be600480360360208110156107ac57600080fd5b50356125c2565b610210600480360360208110156107c957600080fd5b50356001600160a01b03166126e5565b61027a600480360360408110156107ef57600080fd5b81019060208101813564010000000081111561080a57600080fd5b82018360208201111561081c57600080fd5b8035906020019184600183028401116401000000008311171561083e57600080fd5b91935091503561279c565b61086f6004803603602081101561085f57600080fd5b50356001600160a01b0316612bbf565b6040518080602001806020018060200180602001858103855289818151815260200191508051906020019080838360005b838110156108b85781810151838201526020016108a0565b50505050905090810190601f1680156108e55780820380516001836020036101000a031916815260200191505b508581038452885181528851602091820191808b01910280838360005b8381101561091a578181015183820152602001610902565b50505050905001858103835287818151815260200191508051906020019060200280838360005b83811015610959578181015183820152602001610941565b50505050905001858103825286818151815260200191508051906020019060200280838360005b83811015610998578181015183820152602001610980565b505050509050019850505050505050505060405180910390f35b6109cf600480360360208110156109c857600080fd5b5035612f77565b6040805160208082528351818301528351919283929083019185019080838360005b83811015610a095781810151838201526020016109f1565b50505050905090810190601f168015610a365780820380516001836020036101000a031916815260200191505b509250505060405180910390f35b610210612fca565b6001600160a01b03811660009081526008602090815260408083208054825181850281018501909352808352606093830182828015610adc57602002820191906000526020600020906000905b82829054906101000a90046001600160401b03166001600160401b031681526020019060080190602082600701049283019260010382029150808411610a995790505b50939450600093505050505b8151811015610c7257610af96159ee565b60076000848481518110610b0957fe5b6020908102919091018101516001600160401b0390811683528282019390935260409182016000208251610100810184528154909416845282516060810190935260018082018054929493860193929091839160ff1690811115610b6957fe5b6001811115610b7457fe5b8152905461010081046001600160781b03908116602080850191909152600160801b90920463ffffffff1660409384015292845260028501546001600160a01b03908116918501919091526003850154169083015260048301548082166060840152600160781b908190048216608084015260059093015480821660a08401529290920490911660c0909101529050610c0c816130e7565b15610c6957610c66610c59610c448360c001516001600160781b03168460e001516001600160781b03166130f690919063ffffffff16565b610c4d84613164565b9063ffffffff6131fb16565b859063ffffffff6132a416565b93505b50600101610ae8565b50600d54610c8790839063ffffffff61330916565b9392505050565b858511610ce2576040805162461bcd60e51b815260206004820152601960248201527f696e73756666696369656e74207065726d69742076616c756500000000000000604482015290519081900360640190fd5b610cf1888887878787876133c1565b600554604080516353035ca560e11b81526001600160a01b038b811660048301528a81166024830152604482018a90529151919092169163a606b94a91606480830192600092919082900301818387803b158015610d4e57600080fd5b505af1158015610d62573d6000803e3d6000fd5b50505050610d6f886135c3565b5050505050505050565b336001600160a01b0316600a86866040518083838082843791909101948552505060405192839003602001909220546001600160a01b0316929092149150610e0a9050576040805162461bcd60e51b815260206004820152601f60248201527f756e617574686f72697a6564206f776e657273686970207472616e7366657200604482015290519081900360640190fd5b610e126159ee565b610e528487878080601f01602080910402602001604051908101604052809392919081815260200183838082843760009201919091525061369b92505050565b9050610e5d816130e7565b610ea0576040805162461bcd60e51b815260206004820152600f60248201526e1bdc99195c881b9bdd08199bdd5b99608a1b604482015290519081900360640190fd5b8060e001516001600160781b0316821115610ef3576040805162461bcd60e51b815260206004820152600e60248201526d696e76616c696420766f6c756d6560901b604482015290519081900360640190fd5b610efb6159ee565b610f3b8488888080601f01602080910402602001604051908101604052809392919081815260200183838082843760009201919091525061369b92505050565b9050610f46816130e7565b6112f45781516001600160401b039081166000908152600760209081526040918290208251610100810184528154909416845282516060810190935260018082018054929493860193929091839160ff1690811115610fa157fe5b6001811115610fac57fe5b8152905461010081046001600160781b03908116602080850191909152600160801b90920463ffffffff1660409384015292845260028501546001600160a01b0390811691850191909152600385015481168483015260048501548084166060860152600160781b908190048416608086015260059095015480841660a08601529490940490911660c092830152600c805467ffffffffffffffff19811660016001600160401b0392831690810190921617909155845291871691830191909152600090820152905061107e83613824565b6001600160781b031660e082015280516001600160401b0390811660009081526007602090815260409091208351815467ffffffffffffffff19169316929092178255820151805160018084018054869594939192839160ff19169083818111156110e557fe5b0217905550602082810151825460409485015163ffffffff16600160801b0263ffffffff60801b196001600160781b039384166101009081026fffffffffffffffffffffffffffffff0019909416939093171617909355858401516002860180546001600160a01b039283166001600160a01b031991821617909155606088015160038089018054928516929093169190911790915560808801516004808901805460a08c01518716600160781b908102600160781b600160f01b03199589166001600160781b03199384161786161790925560c08c01516005909b01805460e0909d015188169092029a9096169a9095169990991716969096179091558916600081815260088084528582208951815460018101835591845285842099820490990180546001600160401b039a8b169290991690920290950a948502979094021990951695909517909155845193835260099052908190209051899089908083838082843791909101948552505060405192839003602001832080546001600160401b039590951667ffffffffffffffff199095169490941790935550600b9150889088908083838082843791909101948552505060405160209381900384019020845181546001810183556000928352949091206004850401805460039095166008026101000a6001600160401b03818102199096169590921691909102939093179092555061137a9050565b80516001600160401b03166000908152600760205260409020600501546113349061132f90600160781b90046001600160781b031685613868565b613824565b81516001600160401b0316600090815260076020526040902060050180546001600160781b0392909216600160781b02600160781b600160f01b03199092169190911790555b81516001600160401b03166000908152600760205260409020600501546113b59061132f90600160781b90046001600160781b0316856138c2565b82516001600160401b03166000908152600760205260409081902060050180546001600160781b0393909316600160781b02600160781b600160f01b031990931692909217909155820151611409906135c3565b815161141d906001600160401b0316613904565b156114645761146487878080601f016020809104026020016040519081016040528093929190818152602001838380828437600092019190915250508551915061394e9050565b50505050505050565b7f6e71edae12b1b97f4d1f60370fef10105fa2faae0126114a169c64845d6126c981565b61149a336126e5565b8111156114ee576040805162461bcd60e51b815260206004820152601460248201527f696e73756666696369656e7420737572706c7573000000000000000000000000604482015290519081900360640190fd5b600554604080516306b091f960e01b81523360048201526024810184905290516001600160a01b03909216916306b091f99160448082019260009290919082900301818387803b15801561154157600080fd5b505af1158015611555573d6000803e3d6000fd5b5050505050565b60115481565b600061156c6159ee565b60008381526007602090815260409182902082516101008101845281546001600160401b031681528351606081019094526001808301805492959394860193929091839160ff16908111156115bd57fe5b60018111156115c857fe5b8152905461010081046001600160781b03908116602080850191909152600160801b90920463ffffffff1660409384015292845260028501546001600160a01b03908116918501919091526003850154169083015260048301548082166060840152600160781b908190048216608084015260059093015480821660a08401529290920490911660c09091015280519091506001600160401b03168314801561167e575060008160c001516001600160781b0316115b6116c2576040805162461bcd60e51b815260206004820152601060248201526f1a5b9d985b1a59081bdc99195c881a5960821b604482015290519081900360640190fd5b60006116cd846125c2565b90506060816001600160a01b03166395d89b416040518163ffffffff1660e01b815260040160006040518083038186803b15801561170a57600080fd5b505afa15801561171e573d6000803e3d6000fd5b505050506040513d6000823e601f3d908101601f19168201604052602081101561174757600080fd5b810190808051604051939291908464010000000082111561176757600080fd5b90830190602082018581111561177c57600080fd5b825164010000000081118282018810171561179657600080fd5b82525081516020918201929091019080838360005b838110156117c35781810151838201526020016117ab565b50505050905090810190601f1680156117f05780820380516001836020036101000a031916815260200191505b50604052505050905060006118218460c001516001600160781b031661181586613164565b9063ffffffff613b2916565b905083602001516040015163ffffffff1661183b85613b82565b106118535761184c84838584613bea565b9450611862565b61185f84838584613c91565b94505b50505050919050565b604080516323b872dd60e01b815233600482015230602482015260448101839052905183916001600160a01b038316916323b872dd916064808201926020929091908290030181600087803b1580156118c357600080fd5b505af11580156118d7573d6000803e3d6000fd5b505050506040513d60208110156118ed57600080fd5b50506005546040805163095ea7b360e01b81526001600160a01b0392831660048201526024810185905290519183169163095ea7b3916044808201926020929091908290030181600087803b15801561194557600080fd5b505af1158015611959573d6000803e3d6000fd5b505050506040513d602081101561196f57600080fd5b505060055460408051631cee2f7960e11b81526001600160a01b038781166004830152868116602483015260448201869052915191909216916339dc5ef291606480830192600092919082900301818387803b1580156119ce57600080fd5b505af1158015610d6f573d6000803e3d6000fd5b6040805163d505accf60e01b8152336004820152306024820152604481018790526064810186905260ff8516608482015260a4810184905260c4810183905290516001600160a01b0388169163d505accf9160e480830192600092919082900301818387803b158015611a5457600080fd5b505af1158015611a68573d6000803e3d6000fd5b5050505061146487878761186b565b600081815260076020908152604080832081516101008101835281546001600160401b0316815282516060810190935260018083018054611b659693959386019392839160ff1690811115611ac857fe5b6001811115611ad357fe5b8152905461010081046001600160781b03908116602080850191909152600160801b90920463ffffffff1660409384015292845260028501546001600160a01b03908116918501919091526003850154169083015260048301548082166060840152600160781b908190048216608084015260059093015480821660a08401529290920490911660c090910152613164565b90505b919050565b600d545b90565b600554604080516353035ca560e11b81523360048201526001600160a01b038581166024830152604482018590529151919092169163a606b94a91606480830192600092919082900301818387803b158015611bcf57600080fd5b505af1158015611be3573d6000803e3d6000fd5b50505050611bf0336135c3565b5050565b600254600160a01b900460ff1615611c3c576040805162461bcd60e51b81526020600482015260066024820152651b1bd8dad95960d21b604482015290519081900360640190fd5b611c4581613e0c565b506002805460ff60a01b1916600160a01b179055565b600554604080516317bee43f60e21b81526001600160a01b03848116600483015291516000939290921691635efb90fc91602480820192602092909190829003018186803b158015611cac57600080fd5b505afa158015611cc0573d6000803e3d6000fd5b505050506040513d6020811015611cd657600080fd5b505192915050565b336001600160a01b0316600a85856040518083838082843791909101948552505060405192839003602001909220546001600160a01b0316929092149150611d6f9050576040805162461bcd60e51b815260206004820152601160248201527f756e617574686f72697a6564206275726e000000000000000000000000000000604482015290519081900360640190fd5b611d776159ee565b611db78386868080601f01602080910402602001604051908101604052809392919081815260200183838082843760009201919091525061369b92505050565b9050611dc2816130e7565b611e05576040805162461bcd60e51b815260206004820152600f60248201526e1bdc99195c881b9bdd08199bdd5b99608a1b604482015290519081900360640190fd5b818160c001516001600160781b031610158015611e2f5750818160e001516001600160781b031610155b611e71576040805162461bcd60e51b815260206004820152600e60248201526d696e76616c696420766f6c756d6560901b604482015290519081900360640190fd5b60c0810151611e939061132f906001600160781b03168463ffffffff6138c216565b81516001600160401b0316600090815260076020526040902060050180546001600160781b0319166001600160781b0392831617905560e0820151611edd9161132f9116846138c2565b81516001600160401b03908116600090815260076020526040902060050180546001600160781b0393909316600160781b02600160781b600160f01b0319909316929092179091558151611f319116613904565b156115555761155585858080601f016020809104026020016040519081016040528093929190818152602001838380828437600092019190915250508451915061394e9050565b6001600160a01b03811660009081526008602090815260408083208054825181850281018501909352808352849360609392919083018282801561200d57602002820191906000526020600020906000905b82829054906101000a90046001600160401b03166001600160401b031681526020019060080190602082600701049283019260010382029150808411611fca5790505b50939450600093505050505b81518110156121bd5761202a6159ee565b6007600084848151811061203a57fe5b6020908102919091018101516001600160401b0390811683528282019390935260409182016000208251610100810184528154909416845282516060810190935260018082018054929493860193929091839160ff169081111561209a57fe5b60018111156120a557fe5b8152905461010081046001600160781b03908116602080850191909152600160801b90920463ffffffff1660409384015292845260028501546001600160a01b03908116918501919091526003850154169083015260048301548082166060840152600160781b908190048216608084015260059093015480821660a08401529290920490911660c090910152905061213d816130e7565b156121b4576121b161215c8260a001516001600160781b031683614106565b6121a561219861218f8560e001516001600160781b03168660c001516001600160781b03166130f690919063ffffffff16565b610c4d86613164565b879063ffffffff6132a416565b9063ffffffff6132a416565b93505b50600101612019565b50600d546121d290839063ffffffff61330916565b915060008212156121e857600092505050611b68565b5092915050565b600554604080516370a0823160e01b81526001600160a01b038481166004830152915160009392909216916370a0823191602480820192602092909190829003018186803b158015611cac57600080fd5b60006122828285858080601f01602080910402602001604051908101604052809392919081815260200183838082843760009201919091525061369b92505050565b60c001516001600160781b0316949350505050565b60106020526000908152604090205481565b60006122b36159ee565b6122c286600d54878787614141565b90506122cd81613164565b9150505b949350505050565b600080600a836040518082805190602001908083835b6020831061230e5780518252601f1990920191602091820191016122ef565b51815160001960209485036101000a019081169019919091161790529201948552506040519384900301909220546001600160a01b03169250505080611b65576040805162461bcd60e51b815260206004820152600f60248201527f746f6b656e206e6f7420666f756e640000000000000000000000000000000000604482015290519081900360640190fd5b60006123aa8686868686614467565b90506123b5336135c3565b95945050505050565b600d546000828152600760209081526040808320600481015482516101008101845282546001600160401b03168152835160608101909452600180840180549798611b659890976124d297600160781b9096046001600160781b031696949590860193909291839160ff9091169081111561243557fe5b600181111561244057fe5b8152905461010081046001600160781b03908116602080850191909152600160801b90920463ffffffff1660409384015292845260028501546001600160a01b03908116918501919091526003850154169083015260048301548082166060840152600160781b908190048216608084015260059093015480821660a08401529290920490911660c090910152614106565b9063ffffffff614dbc16565b60006124e86159ee565b6124f58787878787614141565b90506000612532600d546125266125198560a001516001600160781b031686614106565b6121a58b610c4d88613164565b9063ffffffff61330916565b905060008113612543576000612545565b805b98975050505050505050565b600d546000828152600760209081526040808320600481015482516101008101845282546001600160401b03168152835160608101909452600180840180549798611b659890976124d2976001600160781b0390961696949590860193909291839160ff9091169081111561243557fe5b600081815260076020908152604080832081516101008101835281546001600160401b03168152825160608101909352600180830180548796600a966126b796949186019390929091839160ff169081111561261a57fe5b600181111561262557fe5b8152905461010081046001600160781b03908116602080850191909152600160801b90920463ffffffff1660409384015292845260028501546001600160a01b03908116918501919091526003850154169083015260048301548082166060840152600160781b908190048216608084015260059093015480821660a08401529290920490911660c090910152614dfe565b6040518082805190602001908083836020831061230e5780518252601f1990920191602091820191016122ef565b6000806126f183611f78565b600554604080516370a0823160e01b81526001600160a01b038781166004830152915193945060009391909216916370a08231916024808301926020929190829003018186803b15801561274457600080fd5b505afa158015612758573d6000803e3d6000fd5b505050506040513d602081101561276e57600080fd5b5051905081811061279257612789818363ffffffff6138c216565b92505050611b68565b5060009392505050565b600080600080600b878760405180838380828437919091019485525050604051928390036020019092205492506127d591506159ee9050565b8115612af35760005b82811080156127ec57508681105b15612af1576000600b8a8a604051808383808284378083019250505092505050908152602001604051809103902060008154811061282657fe5b60009182526020808320600483040154600390921660080261010090810a9092046001600160401b0390811680855260078352604094859020855194850186528054909216845284516060810190955260018083018054929750949592949386019391839160ff9091169081111561289a57fe5b60018111156128a557fe5b8152905461010081046001600160781b03908116602080850191909152600160801b90920463ffffffff1660409384015292845260028501546001600160a01b03908116918501919091526003850154169083015260048301548082166060840152600160781b908190048216608084015260059093015480821660a08401529290920490911660c0909101529250816129c15761294283615135565b9550600061294f84613b82565b905061295a84613164565b95508084602001516040015163ffffffff1611156129bf576040805162461bcd60e51b815260206004820152601460248201527f6d61747572697479206e6f742072656163686564000000000000000000000000604482015290519081900360640190fd5b505b806001600160401b031683600001516001600160401b031614612a1e576040805162461bcd60e51b815260206004820152601060248201526f1a5b9d985b1a59081bdc99195c881a5960821b604482015290519081900360640190fd5b60c08301516001600160781b031615612aa757612aa1612a94848c8c8080601f016020809104026020016040519081016040528093929190818152602001838380828437600092019190915250505060c0880151339150612a8f908b906001600160781b031663ffffffff613b2916565b613bea565b889063ffffffff61386816565b50612ae8565b612ae88a8a8080601f01602080910402602001604051908101604052809392919081815260200183838082843760009201919091525085925061394e915050565b506001016127de565b505b858211612b6157600b88886040518083838082843791909101948552505060405192839003602001909220612b2c925090506000615a42565b600a8888604051808383808284379190910194855250506040519283900360200190922080546001600160a01b031916905550505b878760405180838380828437604080519390910183900383208a8452602084018c905281519096507fe24b343f5440e60a8036accbbcc91361b7876c05f323825c7ffd46e369e0a85795509283900301925050a25050505050505050565b606080606080606060086000876001600160a01b03166001600160a01b03168152602001908152602001600020805480602002602001604051908101604052809291908181526020018280548015612c6857602002820191906000526020600020906000905b82829054906101000a90046001600160401b03166001600160401b031681526020019060080190602082600701049283019260010382029150808411612c255790505b505050505090508051604051908082528060200260200182016040528015612c9a578160200160208202803883390190505b5093508051604051908082528060200260200182016040528015612cc8578160200160208202803883390190505b5092508051604051908082528060200260200182016040528015612cf6578160200160208202803883390190505b50915060005b8151811015612f6e57612d0d6159ee565b60076000848481518110612d1d57fe5b6020908102919091018101516001600160401b0390811683528282019390935260409182016000208251610100810184528154909416845282516060810190935260018082018054929493860193929091839160ff1690811115612d7d57fe5b6001811115612d8857fe5b8152905461010081046001600160781b03908116602080850191909152600160801b90920463ffffffff1660409384015292845260028501546001600160a01b03908116918501919091526003850154169083015260048301548082166060840152600160781b908190048216608084015260059093015480821660a08401529290920490911660c090910152905081612e2c57612e2581614dfe565b9650612ef9565b86612e3682614dfe565b6040516020018083805190602001908083835b60208310612e685780518252601f199092019160209182019101612e49565b6001836020036101000a03801982511681845116808217855250505050505090500180600560f91b81525060010182805190602001908083835b60208310612ec15780518252601f199092019160209182019101612ea2565b6001836020036101000a0380198251168184511680821785525050505050509050019250505060405160208183030381529060405296505b8060e001516001600160781b0316868381518110612f1357fe5b6020026020010181815250508060c001516001600160781b0316858381518110612f3957fe5b602002602001018181525050612f4e81613164565b848381518110612f5a57fe5b602090810291909101015250600101612cfc565b50509193509193565b60008181526007602090815260409182902082516101008101845281546001600160401b031681528351606081810190955260018084018054611b659694959486019392839160ff169081111561261a57fe5b6000805b600c546001600160401b03168110156130e35760008181526007602090815260409182902082516101008101845281546001600160401b03168152835160608101909452600180830180546130cf96939586019392839160ff169081111561303257fe5b600181111561303d57fe5b8152905461010081046001600160781b03908116602080850191909152600160801b90920463ffffffff1660409384015292845260028501546001600160a01b03908116918501919091526003850154169083015260048301548082166060840152600160781b908190048216608084015260059093015480821660a08401529290920490911660c0909101526130e7565b156130db576001909101905b600101612fce565b5090565b516001600160401b0316151590565b600081830381831280159061310b5750838113155b80613120575060008312801561312057508381135b61315b5760405162461bcd60e51b8152600401808060200182810382526024815260200180615b7b6024913960400191505060405180910390fd5b90505b92915050565b600061316e615a67565b506020820151600061317f84615135565b60208301519091506001600160781b031660008351600181111561319f57fe5b14156131c6576131bf60006131ba848463ffffffff6130f616565b6152b7565b93506131f3565b6001835160018111156131d557fe5b14156131f3576131f060006131ba838563ffffffff6130f616565b93505b505050919050565b60008261320a5750600061315e565b8260001914801561321e5750600160ff1b82145b1561325a5760405162461bcd60e51b8152600401808060200182810382526027815260200180615b2e6027913960400191505060405180910390fd5b8282028284828161326757fe5b051461315b5760405162461bcd60e51b8152600401808060200182810382526027815260200180615b2e6027913960400191505060405180910390fd5b60008282018183128015906132b95750838112155b806132ce57506000831280156132ce57508381125b61315b5760405162461bcd60e51b8152600401808060200182810382526021815260200180615acb6021913960400191505060405180910390fd5b60008161335d576040805162461bcd60e51b815260206004820181905260248201527f5369676e6564536166654d6174683a206469766973696f6e206279207a65726f604482015290519081900360640190fd5b816000191480156133715750600160ff1b83145b156133ad5760405162461bcd60e51b8152600401808060200182810382526021815260200180615aec6021913960400191505060405180910390fd5b60008284816133b857fe5b05949350505050565b42841015613416576040805162461bcd60e51b815260206004820152600e60248201527f7065726d69742065787069726564000000000000000000000000000000000000604482015290519081900360640190fd5b6011546001600160a01b0380891660008181526010602090815260408083208054600180820190925582517f6e71edae12b1b97f4d1f60370fef10105fa2faae0126114a169c64845d6126c98186015280840196909652958d166060860152608085018c905260a085019590955260c08085018b90528151808603909101815260e08501825280519083012061190160f01b6101008601526101028501969096526101228085019690965280518085039096018652610142840180825286519683019690962095839052610162840180825286905260ff89166101828501526101a284018890526101c28401879052519193926101e280820193601f1981019281900390910190855afa158015613531573d6000803e3d6000fd5b5050604051601f1901519150506001600160a01b038116158015906135675750886001600160a01b0316816001600160a01b0316145b6135b8576040805162461bcd60e51b815260206004820152601160248201527f696e76616c6964207369676e6174757265000000000000000000000000000000604482015290519081900360640190fd5b505050505050505050565b6135cc81611f78565b600554604080516370a0823160e01b81526001600160a01b038581166004830152915191909216916370a08231916024808301926020929190829003018186803b15801561361957600080fd5b505afa15801561362d573d6000803e3d6000fd5b505050506040513d602081101561364357600080fd5b50511015613698576040805162461bcd60e51b815260206004820152601760248201527f696e73756666696369656e7420636f6c6c61746572616c000000000000000000604482015290519081900360640190fd5b50565b6136a36159ee565b6001600160a01b0383166000908152600960209081526040808320905185519192869282918401908083835b602083106136ee5780518252601f1990920191602091820191016136cf565b51815160209384036101000a60001901801990921691161790529201948552506040519384900301909220546001600160401b0316925050811590506121e8576001600160401b038082166000908152600760209081526040918290208251610100810184528154909416845282516060810190935260018082018054929493860193929091839160ff169081111561378357fe5b600181111561378e57fe5b8152905461010081046001600160781b03908116602080850191909152600160801b90920463ffffffff1660409384015292845260028501546001600160a01b03908116918501919091526003850154169083015260048301548082166060840152600160781b908190048216608084015260059093015480821660a08401529290920490911660c090910152915061315e9050565b6000600160781b82106130e35760405162461bcd60e51b8152600401808060200182810382526027815260200180615aa46027913960400191505060405180910390fd5b60008282018381101561315b576040805162461bcd60e51b815260206004820152601b60248201527f536166654d6174683a206164646974696f6e206f766572666c6f770000000000604482015290519081900360640190fd5b600061315b83836040518060400160405280601e81526020017f536166654d6174683a207375627472616374696f6e206f766572666c6f7700008152506152cd565b6000818152600760205260408120600501546001600160781b0316158015611b65575050600090815260076020526040902060050154600160781b90046001600160781b03161590565b6001600160401b03811660009081526007602090815260409182902060020154915184516001600160a01b03909316926139e792600b92879290918291908401908083835b602083106139b25780518252601f199092019160209182019101613993565b51815160209384036101000a600019018019909216911617905292019485525060405193849003019092209150849050615364565b506001600160a01b0381166000908152600860205260409020613a0a9083615364565b5060096000826001600160a01b03166001600160a01b03168152602001908152602001600020836040518082805190602001908083835b60208310613a605780518252601f199092019160209182019101613a41565b51815160209384036101000a600019018019909216911617905292019485525060408051948590038201909420805467ffffffffffffffff199081169091556001600160401b03969096166000908152600790915292909220805490941684555050506001810180546001600160a01b03199081169091556002820180548216905560038201805490911690556004810180547fffff00000000000000000000000000000000000000000000000000000000000090811690915560059091018054909116905550565b600082613b385750600061315e565b82820282848281613b4557fe5b041461315b5760405162461bcd60e51b8152600401808060200182810382526021815260200180615b0d6021913960400191505060405180910390fd5b600081606001516001600160a01b0316638e15f4736040518163ffffffff1660e01b8152600401604080518083038186803b158015613bc057600080fd5b505afa158015613bd4573d6000803e3d6000fd5b505050506040513d6040811015611cd657600080fd5b60008115613c8357600d54613c0690839063ffffffff614dbc16565b6005546040808801518151633468331760e21b81526001600160a01b03918216600482015287821660248201526044810185905291519394509091169163d1a0cc5c9160648082019260009290919082900301818387803b158015613c6a57600080fd5b505af1158015613c7e573d6000803e3d6000fd5b505050505b6122d184866000015161394e565b600080613c9d86615481565b9050613cf2600d546124d28860c001516001600160781b03166124d2613cc286613824565b6001600160781b031661181589613ce68e608001516001600160781b03168f614106565b9063ffffffff61386816565b86516001600160401b0316600090815260076020526040902060050154909250613d2f9061132f906001600160781b03168363ffffffff6138c216565b86516001600160401b03908116600090815260076020526040902060050180546001600160781b0319166001600160781b0393909316929092179091558651613d789116613904565b15613d8b57613d8b85876000015161394e565b6005546040808801518151633468331760e21b81526001600160a01b039182166004820152878216602482015260448101869052915192169163d1a0cc5c9160648082019260009290919082900301818387803b158015613deb57600080fd5b505af1158015613dff573d6000803e3d6000fd5b5050505050949350505050565b60408051630110ceef60e21b8152602060048201819052600c60248301526b2a34b6b2a83937bb34b232b960a11b604483015291516001600160a01b038416926304433bbc9260648082019391829003018186803b158015613e6d57600080fd5b505afa158015613e81573d6000803e3d6000fd5b505050506040513d6020811015613e9757600080fd5b5051600380546001600160a01b0319166001600160a01b0392831617905560408051630110ceef60e21b8152602060048201819052600e60248301527f43726564697450726f766964657200000000000000000000000000000000000060448301529151928416926304433bbc92606480840193919291829003018186803b158015613f2257600080fd5b505afa158015613f36573d6000803e3d6000fd5b505050506040513d6020811015613f4c57600080fd5b5051600580546001600160a01b0319166001600160a01b0392831617905560408051630110ceef60e21b8152602060048201819052601060248301527f50726f746f636f6c53657474696e67730000000000000000000000000000000060448301529151928416926304433bbc92606480840193919291829003018186803b158015613fd757600080fd5b505afa158015613feb573d6000803e3d6000fd5b505050506040513d602081101561400157600080fd5b5051600480546001600160a01b0319166001600160a01b0392831617815560408051630110ceef60e21b81526020928101839052601260248201527f4f7074696f6e546f6b656e466163746f7279000000000000000000000000000060448201529051928416926304433bbc92606480840193919291829003018186803b15801561408b57600080fd5b505afa15801561409f573d6000803e3d6000fd5b505050506040513d60208110156140b557600080fd5b5051600680546001600160a01b0319166001600160a01b0390921691909117905550600c805467ffffffffffffffff19166001179055670de0b6b3a7640000600d819055600e55633b9aca00600f55565b600061315b600f546124d261412261411d866155e7565b615657565b60c08601516118159088906001600160781b031663ffffffff613b2916565b6141496159ee565b614151615a67565b604051806060016040528086600181111561416857fe5b815260200161417686613824565b6001600160781b0316815260200161418d856156a1565b63ffffffff169052905060006001600160a01b03881661421a576004805460408051630561593360e01b815290516001600160a01b03909216926305615933928282019260209290829003018186803b1580156141e957600080fd5b505afa1580156141fd573d6000803e3d6000fd5b505050506040513d602081101561421357600080fd5b505161421c565b875b90506000816001600160a01b031663990c11d8600460009054906101000a90046001600160a01b03166001600160a01b031663b8c3af7b6040518163ffffffff1660e01b815260040160206040518083038186803b15801561427d57600080fd5b505afa158015614291573d6000803e3d6000fd5b505050506040513d60208110156142a757600080fd5b5051604080517fffffffff0000000000000000000000000000000000000000000000000000000060e085901b1681526004810192909252516024808301926020929190829003018186803b1580156142fe57600080fd5b505afa158015614312573d6000803e3d6000fd5b505050506040513d602081101561432857600080fd5b5051604080516101008101825260008152602081810187905233828401526001600160a01b03861660608301819052835163d2cc49a160e01b8152600481018690529351949550919360808501936143cc939263d2cc49a192602480840193829003018186803b15801561439b57600080fd5b505afa1580156143af573d6000803e3d6000fd5b505050506040513d60208110156143c557600080fd5b5051613824565b6001600160781b03168152602001614421846001600160a01b031663c26802c9856040518263ffffffff1660e01b81526004018082815260200191505060206040518083038186803b15801561439b57600080fd5b6001600160781b031681526020016144388a613824565b6001600160781b0316815260200161444f8a613824565b6001600160781b031690529998505050505050505050565b60006001600160a01b03861615806144fb575060048054604080516310fda6df60e31b81526001600160a01b038a8116948201949094529051600093909216916387ed36f891602480820192602092909190829003018186803b1580156144cd57600080fd5b505afa1580156144e1573d6000803e3d6000fd5b505050506040513d60208110156144f757600080fd5b5051135b61454c576040805162461bcd60e51b815260206004820152601060248201527f66656564206e6f7420616c6c6f77656400000000000000000000000000000000604482015290519081900360640190fd5b60008511614592576040805162461bcd60e51b815260206004820152600e60248201526d696e76616c696420766f6c756d6560901b604482015290519081900360640190fd5b600360009054906101000a90046001600160a01b03166001600160a01b031663bbe4fd506040518163ffffffff1660e01b815260040160206040518083038186803b1580156145e057600080fd5b505afa1580156145f4573d6000803e3d6000fd5b505050506040513d602081101561460a57600080fd5b5051821161465f576040805162461bcd60e51b815260206004820152601060248201527f696e76616c6964206d6174757269747900000000000000000000000000000000604482015290519081900360640190fd5b6146676159ee565b6146748787878787614141565b9050606061468182614dfe565b905061468b6159ee565b614695338361369b565b90506146a0816130e7565b1561475457805160c08201516001600160401b0390911694506146d69061132f906001600160781b03168a63ffffffff61386816565b600085815260076020526040902060050180546001600160781b0319166001600160781b0392831617905560e08201516147159161132f91168a613868565b600085815260076020526040902060050180546001600160781b0392909216600160781b02600160781b600160f01b0319909216919091179055614a51565b600c80546001600160401b038082166001818101831667ffffffffffffffff19948516179094558087526000818152600760209081526040909120885181549416939094169290921783559086015180518385018054939950889592939092839160ff19169083818111156147c557fe5b0217905550602082810151825460409485015163ffffffff16600160801b0263ffffffff60801b196001600160781b039384166101009081026fffffffffffffffffffffffffffffff0019909416939093171617909355858401516002860180546001600160a01b039283166001600160a01b03199182161790915560608801516003808901805492909416919092161790915560808701516004808801805460a08b01518616600160781b908102600160781b600160f01b03199588166001600160781b03199384161786161790925560c08b01516005909a01805460e0909c015187169092029990951699909416989098171695909517905533600081815260088084528582208b51815460018101835591845285842099820490990180546001600160401b039a8b169290991690920290950a94850297909402199095169590951790915586519383526009815291819020905185519192869282918401908083835b6020831061494a5780518252601f19909201916020918201910161492b565b51815160209384036101000a60001901801990921691161790529201948552506040519384900381018420805467ffffffffffffffff19166001600160401b03969096169590951790945550508351600b9285929182918401908083835b602083106149c75780518252601f1990920191602091820191016149a8565b6001836020036101000a0380198251168184511680821785525050505050509050019150509081526020016040518091039020836000015190806001815401808255809150506001900390600052602060002090600491828204019190066008029091909190916101000a8154816001600160401b0302191690836001600160401b031602179055505b6000600a836040518082805190602001908083835b60208310614a855780518252601f199092019160209182019101614a66565b51815160001960209485036101000a019081169019919091161790529201948552506040519384900301909220546001600160a01b03169250505080614ca35760065460405163b6a46b3b60e01b81526020600482018181528651602484015286516001600160a01b039094169363b6a46b3b93889383926044909201919085019080838360005b83811015614b25578181015183820152602001614b0d565b50505050905090810190601f168015614b525780820380516001836020036101000a031916815260200191505b5092505050602060405180830381600087803b158015614b7157600080fd5b505af1158015614b85573d6000803e3d6000fd5b505050506040513d6020811015614b9b57600080fd5b505160405184519192508291600a918691819060208401908083835b60208310614bd65780518252601f199092019160209182019101614bb7565b51815160209384036101000a6000190180199092169116179052920194855250604051938490038101842080546001600160a01b0319166001600160a01b0396909616959095179094555050845185928291908401908083835b60208310614c4f5780518252601f199092019160209182019101614c30565b5181516020939093036101000a60001901801990911692169190911790526040519201829003822093507fa3cb81debc250420c3ffe650b8e281ed34e21f5f8c72e85778f59faca24e8e6892506000919050a25b6040805163219e412d60e21b8152336004820152602481018b905290516001600160a01b0383169163867904b491604480830192600092919082900301818387803b158015614cf157600080fd5b505af1158015614d05573d6000803e3d6000fd5b50505050336001600160a01b0316836040518082805190602001908083835b60208310614d435780518252601f199092019160209182019101614d24565b6001836020036101000a03801982511681845116808217855250505050505090500191505060405180910390207f2423ac310ce761f2bd022d5802d173198d224089a82b1913bf289637776c4f4b8b88604051808381526020018281526020019250505060405180910390a35050505095945050505050565b600061315b83836040518060400160405280601a81526020017f536166654d6174683a206469766973696f6e206279207a65726f0000000000008152506156e6565b606081606001516001600160a01b03166395d89b416040518163ffffffff1660e01b815260040160006040518083038186803b158015614e3d57600080fd5b505afa158015614e51573d6000803e3d6000fd5b505050506040513d6000823e601f3d908101601f191682016040526020811015614e7a57600080fd5b8101908080516040519392919084640100000000821115614e9a57600080fd5b908301906020820185811115614eaf57600080fd5b8251640100000000811182820188101715614ec957600080fd5b82525081516020918201929091019080838360005b83811015614ef6578181015183820152602001614ede565b50505050905090810190601f168015614f235780820380516001836020036101000a031916815260200191505b506040525060009150614f339050565b6020840151516001811115614f4457fe5b14614f6857604051806040016040528060018152602001600560fc1b815250614f83565b604051806040016040528060018152602001604360f81b8152505b614f9d8460200151602001516001600160781b031661574b565b614fb485602001516040015163ffffffff1661574b565b6040516020018085805190602001908083835b60208310614fe65780518252601f199092019160209182019101614fc7565b51815160209384036101000a6000190180199092169116179052602d60f81b91909301908152604560f81b60018201528651600290910192870191508083835b602083106150455780518252601f199092019160209182019101615026565b6001836020036101000a03801982511681845116808217855250505050505090500180602d60f81b81525060010183805190602001908083835b6020831061509e5780518252601f19909201916020918201910161507f565b6001836020036101000a03801982511681845116808217855250505050505090500180602d60f81b81525060010182805190602001908083835b602083106150f75780518252601f1990920191602091820191016150d8565b6001836020036101000a0380198251168184511680821785525050505050509050019450505050506040516020818303038152906040529050919050565b60035460408051630bbe4fd560e41b815290516000926001600160a01b03169163bbe4fd50916004808301926020929190829003018186803b15801561517a57600080fd5b505afa15801561518e573d6000803e3d6000fd5b505050506040513d60208110156151a457600080fd5b505160208301516040015163ffffffff16111561522d5781606001516001600160a01b0316638e15f4736040518163ffffffff1660e01b8152600401604080518083038186803b1580156151f757600080fd5b505afa15801561520b573d6000803e3d6000fd5b505050506040513d604081101561522157600080fd5b50602001519050611b68565b81606001516001600160a01b031663e75722308360200151604001516040518263ffffffff1660e01b8152600401808263ffffffff168152602001915050604080518083038186803b15801561528257600080fd5b505afa158015615296573d6000803e3d6000fd5b505050506040513d60408110156152ac57600080fd5b506020015192915050565b60008183136152c6578161315b565b5090919050565b6000818484111561535c5760405162461bcd60e51b81526004018080602001828103825283818151815260200191508051906020019080838360005b83811015615321578181015183820152602001615309565b50505050905090810190601f16801561534e5780820380516001836020036101000a031916815260200191505b509250505060405180910390fd5b505050900390565b6000805b835481101561279257826001600160401b031684828154811061538757fe5b6000918252602090912060048204015460039091166008026101000a90046001600160401b03161415615479578354849060001981019081106153c657fe5b90600052602060002090600491828204019190066008029054906101000a90046001600160401b03168482815481106153fb57fe5b90600052602060002090600491828204019190066008026101000a8154816001600160401b0302191690836001600160401b031602179055508380548061543e57fe5b60008281526020902060046000199092019182040180546001600160401b03600860038516026101000a02191690559055506001905061315e565b600101615368565b60055460408083015181516370a0823160e01b81526001600160a01b039182166004820152915160009384939216916370a08231916024808301926020929190829003018186803b1580156154d557600080fd5b505afa1580156154e9573d6000803e3d6000fd5b505050506040513d60208110156154ff57600080fd5b5051604084015190915060009061551590611f78565b905081811161556b576040805162461bcd60e51b815260206004820152601560248201527f756e66697420666f72206c69717569646174696f6e0000000000000000000000604482015290519081900360640190fd5b6155ce6155a461559e86608001516001600160781b03168760a001516001600160781b03166138c290919063ffffffff16565b86614106565b6124d28660c001516001600160781b0316611815600d5461181588886138c290919063ffffffff16565b92506122d1838560c001516001600160781b0316615758565b6000806155f383613b82565b90508083602001516040015163ffffffff16111561564c57615645620151806124d26156368487602001516040015163ffffffff166138c290919063ffffffff16565b600e549063ffffffff613b2916565b9150615651565b600091505b50919050565b60008061567060026124d285600163ffffffff61386816565b90508291505b818110156156515790508061569a60026124d283613ce6878263ffffffff614dbc16565b9050615676565b600064010000000082106130e35760405162461bcd60e51b8152600401808060200182810382526026815260200180615b556026913960400191505060405180910390fd5b600081836157355760405162461bcd60e51b8152602060048201818152835160248401528351909283926044909101919085019080838360008315615321578181015183820152602001615309565b50600083858161574157fe5b0495945050505050565b6060611b65826001615767565b60008183106152c6578161315b565b60608261578c57506040805180820190915260018152600360fc1b602082015261315e565b60408051606480825260a082019092526060908260208201818038833901905050905060005b85156157f8578151600a808804976001840193919006916030830160f81b91859181106157db57fe5b60200101906001600160f81b031916908160001a905350506157b2565b600085156158645760005b828110156158625783818151811061581757fe5b6020910101517fff0000000000000000000000000000000000000000000000000000000000000016600360fc1b14156158555760019091019061585a565b615862565b600101615803565b505b600060028211615875576000615877565b815b830390506060816040519080825280601f01601f1916602001820160405280156158a8576020820181803883390190505b50905060005b828110156158fd5785600182870303815181106158c757fe5b602001015160f81c60f81b8282815181106158de57fe5b60200101906001600160f81b031916908160001a9053506001016158ae565b5080965087801561590e5750600283115b156159e2578061591f846000615767565b6040516020018083805190602001908083835b602083106159515780518252601f199092019160209182019101615932565b6001836020036101000a03801982511681845116808217855250505050505090500180606560f81b81525060010182805190602001908083835b602083106159aa5780518252601f19909201916020918201910161598b565b6001836020036101000a0380198251168184511680821785525050505050509050019250505060405160208183030381529060405296505b50505050505092915050565b60405180610100016040528060006001600160401b03168152602001615a12615a67565b815260006020820181905260408201819052606082018190526080820181905260a0820181905260c09091015290565b5080546000825560030160049004906000526020600020908101906136989190615a89565b6040805160608101909152806000815260006020820181905260409091015290565b611b7191905b808211156130e35760008155600101615a8f56fe53616665436173743a2076616c756520646f65736e27742066697420696e2031323020626974735369676e6564536166654d6174683a206164646974696f6e206f766572666c6f775369676e6564536166654d6174683a206469766973696f6e206f766572666c6f77536166654d6174683a206d756c7469706c69636174696f6e206f766572666c6f775369676e6564536166654d6174683a206d756c7469706c69636174696f6e206f766572666c6f7753616665436173743a2076616c756520646f65736e27742066697420696e20333220626974735369676e6564536166654d6174683a207375627472616374696f6e206f766572666c6f77a26469706673582212201999e250de4b693232bd8c5cc4cfbbb1f185c03f7cdc8b148a396bb7da4efb9764736f6c63430006000033454950373132446f6d61696e28737472696e67206e616d652c737472696e672076657273696f6e2c75696e7432353620636861696e49642c6164647265737320766572696679696e67436f6e747261637429",
  "source": "pragma solidity >=0.6.0;\n\nimport \"../deployment/Deployer.sol\";\nimport \"../deployment/ManagedContract.sol\";\nimport \"../governance/ProtocolSettings.sol\";\nimport \"../utils/ERC20.sol\";\nimport \"../interfaces/TimeProvider.sol\";\nimport \"../interfaces/UnderlyingFeed.sol\";\nimport \"../utils/Arrays.sol\";\nimport \"../utils/MoreMath.sol\";\nimport \"../utils/SafeCast.sol\";\nimport \"../utils/SafeMath.sol\";\nimport \"../utils/SignedSafeMath.sol\";\nimport \"./CreditProvider.sol\";\nimport \"./OptionToken.sol\";\nimport \"./OptionTokenFactory.sol\";\n\ncontract OptionsExchange is ManagedContract {\n\n    using SafeCast for uint;\n    using SafeMath for uint;\n    using SignedSafeMath for int;\n    \n    enum OptionType { CALL, PUT }\n    \n    struct OrderData {\n        uint64 id;\n        OptionData option;\n        address owner;\n        address udlFeed;\n        uint120 lowerVol;\n        uint120 upperVol;\n        uint120 written;\n        uint120 holding;\n    }\n    \n    struct OptionData {\n        OptionType _type;\n        uint120 strike;\n        uint32 maturity;\n    }\n    \n    TimeProvider private time;\n    ProtocolSettings private settings;\n    CreditProvider private creditProvider;\n    OptionTokenFactory private factory;\n\n    mapping(uint => OrderData) private orders;\n    mapping(address => uint64[]) private book;\n    mapping(address => mapping(string => uint64)) private index;\n\n    mapping(string => address) private tokenAddress;\n    mapping(string => uint64[]) private tokenIds;\n    \n    uint64 private serial;\n    uint private volumeBase;\n    uint private timeBase;\n    uint private sqrtTimeBase;\n\n    mapping(address => uint) public nonces;\n    bytes32 public DOMAIN_SEPARATOR;\n    // keccak256(\"Permit(address owner,address spender,uint256 value,uint256 nonce,uint256 deadline)\");\n    bytes32 public constant PERMIT_TYPEHASH = 0x6e71edae12b1b97f4d1f60370fef10105fa2faae0126114a169c64845d6126c9;\n\n    event CreateSymbol(string indexed symbol);\n\n    event WriteOptions(string indexed symbol, address indexed issuer, uint volume, uint id);\n\n    event LiquidateSymbol(string indexed symbol, int udlPrice, uint value);\n\n    constructor(address deployer) public {\n\n        string memory _name = \"OptionsExchange\";\n        Deployer(deployer).setContractAddress(_name);\n\n        uint chainId;\n        assembly {\n            chainId := chainid()\n        }\n        DOMAIN_SEPARATOR = keccak256(\n            abi.encode(\n                keccak256('EIP712Domain(string name,string version,uint256 chainId,address verifyingContract)'),\n                keccak256(bytes(_name)),\n                keccak256(bytes('1')),\n                chainId,\n                address(this)\n            )\n        );\n    }\n\n    function initialize(Deployer deployer) override internal {\n\n        time = TimeProvider(deployer.getContractAddress(\"TimeProvider\"));\n        creditProvider = CreditProvider(deployer.getContractAddress(\"CreditProvider\"));\n        settings = ProtocolSettings(deployer.getContractAddress(\"ProtocolSettings\"));\n        factory = OptionTokenFactory(deployer.getContractAddress(\"OptionTokenFactory\"));\n\n        serial = 1;\n        volumeBase = 1e18;\n        timeBase = 1e18;\n        sqrtTimeBase = 1e9;\n    }\n\n    function depositTokens(\n        address to,\n        address token,\n        uint value,\n        uint deadline,\n        uint8 v,\n        bytes32 r,\n        bytes32 s\n    )\n        external\n    {\n        ERC20(token).permit(msg.sender, address(this), value, deadline, v, r, s);\n        depositTokens(to, token, value);\n    }\n\n    function depositTokens(address to, address token, uint value) public {\n\n        ERC20 t = ERC20(token);\n        t.transferFrom(msg.sender, address(this), value);\n        t.approve(address(creditProvider), value);\n        creditProvider.depositTokens(to, token, value);\n    }\n\n    function balanceOf(address owner) external view returns (uint) {\n\n        return creditProvider.balanceOf(owner);\n    }\n\n    function transferBalance(\n        address from, \n        address to, \n        uint value,\n        uint maxValue,\n        uint deadline,\n        uint8 v,\n        bytes32 r,\n        bytes32 s\n    )\n        external\n    {\n        require(maxValue > value, \"insufficient permit value\");\n        permit(from, to, maxValue, deadline, v, r, s);\n        creditProvider.transferBalance(from, to, value);\n        ensureFunds(from);\n    }\n\n    function transferBalance(address to, uint value) public {\n\n        creditProvider.transferBalance(msg.sender, to, value);\n        ensureFunds(msg.sender);\n    }\n    \n    function withdrawTokens(uint value) external {\n        \n        require(value <= calcSurplus(msg.sender), \"insufficient surplus\");\n        creditProvider.withdrawTokens(msg.sender, value);\n    }\n\n    function writeOptions(\n        address udlFeed,\n        uint volume,\n        OptionType optType,\n        uint strike, \n        uint maturity\n    )\n        external \n        returns (uint id)\n    {\n        id = createOrder(udlFeed, volume, optType, strike, maturity);\n        ensureFunds(msg.sender);\n    }\n\n    function writtenVolume(string calldata symbol, address owner) external view returns (uint) {\n\n        return uint(findOrder(owner, symbol).written);\n    }\n\n    function transferOwnership(\n        string calldata symbol,\n        address from,\n        address to,\n        uint volume\n    )\n        external\n    {\n        require(tokenAddress[symbol] == msg.sender, \"unauthorized ownership transfer\");\n\n        OrderData memory ord = findOrder(from, symbol);\n\n        require(isValid(ord), \"order not found\");\n        require(volume <= ord.holding, \"invalid volume\");\n                \n        OrderData memory toOrd = findOrder(to, symbol);\n\n        if (!isValid(toOrd)) {\n            toOrd = orders[ord.id];\n            toOrd.id = serial++;\n            toOrd.owner = address(to);\n            toOrd.written = 0;\n            toOrd.holding = volume.toUint120();\n            orders[toOrd.id] = toOrd;\n            book[to].push(toOrd.id);\n            index[to][symbol] = toOrd.id;\n            tokenIds[symbol].push(toOrd.id);\n        } else {\n            orders[toOrd.id].holding = uint(orders[toOrd.id].holding).add(volume).toUint120();\n        }\n        \n        orders[ord.id].holding = uint(orders[ord.id].holding).sub(volume).toUint120();\n\n        ensureFunds(ord.owner);\n\n        if (shouldRemove(ord.id)) {\n            removeOrder(symbol, ord.id);\n        }\n    }\n\n    function burnOptions(\n        string calldata symbol,\n        address owner,\n        uint volume\n    )\n        external\n    {\n        require(tokenAddress[symbol] == msg.sender, \"unauthorized burn\");\n        \n        OrderData memory ord = findOrder(owner, symbol);\n        \n        require(isValid(ord), \"order not found\");\n        require(ord.written >= volume && ord.holding >= volume, \"invalid volume\");\n        \n        orders[ord.id].written = uint(ord.written).sub(volume).toUint120();\n        orders[ord.id].holding = uint(ord.holding).sub(volume).toUint120();\n\n        if (shouldRemove(ord.id)) {\n            removeOrder(symbol, ord.id);\n        }\n    }\n\n    function liquidateSymbol(string calldata symbol, uint limit) external {\n\n        uint value;\n        int udlPrice;\n        uint iv;\n        uint len = tokenIds[symbol].length;\n        OrderData memory ord;\n\n        if (len > 0) {\n\n            for (uint i = 0; i < len && i < limit; i++) {\n                \n                uint64 id = tokenIds[symbol][0];\n                ord = orders[id];\n\n                if (i == 0) {\n                    udlPrice = getUdlPrice(ord);\n                    uint _now = getUdlNow(ord);\n                    iv = uint(calcIntrinsicValue(ord));\n                    require(ord.option.maturity <= _now, \"maturity not reached\");\n                }\n\n                require(ord.id == id, \"invalid order id\");\n\n                if (ord.written > 0) {\n                    value.add(\n                        liquidateAfterMaturity(ord, symbol, msg.sender, iv.mul(ord.written))\n                    );\n                } else {\n                    removeOrder(symbol, id);\n                }\n            }\n        }\n\n        if (len <= limit) {\n            delete tokenIds[symbol];\n            delete tokenAddress[symbol];\n        }\n\n        emit LiquidateSymbol(symbol, udlPrice, value);\n    }\n\n    function liquidateOptions(uint id) external returns (uint value) {\n        \n        OrderData memory ord = orders[id];\n        require(ord.id == id && ord.written > 0, \"invalid order id\");\n\n        address token = resolveToken(id);\n        string memory symbol = OptionToken(token).symbol();\n        uint iv = uint(calcIntrinsicValue(ord)).mul(ord.written);\n        \n        if (getUdlNow(ord) >= ord.option.maturity) {\n            value = liquidateAfterMaturity(ord, symbol, token, iv);\n        } else {\n            value = liquidateBeforeMaturity(ord, symbol, token, iv);\n        }\n    }\n\n    function calcDebt(address owner) external view returns (uint debt) {\n\n        debt = creditProvider.calcDebt(owner);\n    }\n    \n    function calcSurplus(address owner) public view returns (uint) {\n        \n        uint collateral = calcCollateral(owner);\n        uint bal = creditProvider.balanceOf(owner);\n        if (bal >= collateral) {\n            return bal.sub(collateral);\n        }\n        return 0;\n    }\n\n    function calcCollateral(\n        address udlFeed,\n        uint volume,\n        OptionType optType,\n        uint strike, \n        uint maturity\n    )\n        external\n        view\n        returns (uint)\n    {\n        OrderData memory ord = createOrderInMemory(udlFeed, volume, optType, strike, maturity);\n\n        int collateral = calcIntrinsicValue(ord).mul(int(volume)).add(\n            int(calcCollateral(ord.upperVol, ord))\n        ).div(int(volumeBase));\n\n        return collateral > 0 ? uint(collateral) : 0;\n    }\n    \n    function calcCollateral(address owner) public view returns (uint) {\n        \n        int collateral;\n        uint64[] memory ids = book[owner];\n\n        for (uint i = 0; i < ids.length; i++) {\n\n            OrderData memory ord = orders[ids[i]];\n\n            if (isValid(ord)) {\n                collateral = collateral.add(\n                    calcIntrinsicValue(ord).mul(\n                        int(ord.written).sub(int(ord.holding))\n                    )\n                ).add(int(calcCollateral(ord.upperVol, ord)));\n            }\n        }\n\n        collateral = collateral.div(int(volumeBase));\n\n        if (collateral < 0)\n            return 0;\n        return uint(collateral);\n    }\n\n    function calcExpectedPayout(address owner) external view returns (int payout) {\n\n        uint64[] memory ids = book[owner];\n\n        for (uint i = 0; i < ids.length; i++) {\n\n            OrderData memory ord = orders[ids[i]];\n\n            if (isValid(ord)) {\n                payout = payout.add(\n                    calcIntrinsicValue(ord).mul(\n                        int(ord.holding).sub(int(ord.written))\n                    )\n                );\n            }\n        }\n\n        payout = payout.div(int(volumeBase));\n    }\n\n    function resolveSymbol(uint id) external view returns (string memory) {\n        \n        return getOptionSymbol(orders[id]);\n    }\n\n    function resolveToken(uint id) public view returns (address) {\n        \n        address addr = tokenAddress[getOptionSymbol(orders[id])];\n        require(addr != address(0), \"token not found\");\n        return addr;\n    }\n\n    function resolveToken(string memory symbol) public view returns (address) {\n        \n        address addr = tokenAddress[symbol];\n        require(addr != address(0), \"token not found\");\n        return addr;\n    }\n\n    function getBook(address owner)\n        external view\n        returns (\n            string memory symbols,\n            uint[] memory holding,\n            uint[] memory written,\n            int[] memory iv\n        )\n    {\n        uint64[] memory ids = book[owner];\n        holding = new uint[](ids.length);\n        written = new uint[](ids.length);\n        iv = new int[](ids.length);\n\n        for (uint i = 0; i < ids.length; i++) {\n            OrderData memory ord = orders[ids[i]];\n            if (i == 0) {\n                symbols = getOptionSymbol(ord);\n            } else {\n                symbols = string(abi.encodePacked(symbols, \"\\n\", getOptionSymbol(ord)));\n            }\n            holding[i] = ord.holding;\n            written[i] = ord.written;\n            iv[i] = calcIntrinsicValue(ord);\n        }\n    }\n\n    function getBookLength() external view returns (uint len) {\n        \n        for (uint i = 0; i < serial; i++) {\n            if (isValid(orders[i])) {\n                len++;\n            }\n        }\n    }\n\n    function getVolumeBase() external view returns (uint) {\n        \n        return volumeBase;\n    }\n    \n    function calcLowerCollateral(uint id) external view returns (uint) {\n        \n        return calcCollateral(orders[id].lowerVol, orders[id]).div(volumeBase);\n    }\n    \n    function calcUpperCollateral(uint id) external view returns (uint) {\n        \n        return calcCollateral(orders[id].upperVol, orders[id]).div(volumeBase);\n    }\n    \n    function calcIntrinsicValue(uint id) external view returns (int) {\n        \n        return calcIntrinsicValue(orders[id]);\n    }\n\n    function calcIntrinsicValue(\n        address udlFeed,\n        OptionType optType,\n        uint strike, \n        uint maturity\n    )\n        external\n        view\n        returns (int)\n    {\n        OrderData memory ord = createOrderInMemory(udlFeed, volumeBase, optType, strike, maturity);\n\n        return calcIntrinsicValue(ord);\n    }\n\n    function permit(\n        address from,\n        address to,\n        uint value,\n        uint deadline,\n        uint8 v,\n        bytes32 r,\n        bytes32 s\n    )\n        private\n    {\n        require(deadline >= block.timestamp, \"permit expired\");\n        bytes32 digest = keccak256(\n            abi.encodePacked(\n                \"\\x19\\x01\",\n                DOMAIN_SEPARATOR,\n                keccak256(\n                    abi.encode(PERMIT_TYPEHASH, from, to, value, nonces[from]++, deadline)\n                )\n            )\n        );\n        address recoveredAddress = ecrecover(digest, v, r, s);\n        require(recoveredAddress != address(0) && recoveredAddress == from, \"invalid signature\");\n    }\n\n    function createOrder(\n        address udlFeed,\n        uint volume,\n        OptionType optType,\n        uint strike, \n        uint maturity\n    )\n        private \n        returns (uint id)\n    {\n        require(udlFeed == address(0) || settings.getUdlFeed(udlFeed) > 0, \"feed not allowed\");\n        require(volume > 0, \"invalid volume\");\n        require(maturity > time.getNow(), \"invalid maturity\");\n\n        OrderData memory ord = createOrderInMemory(udlFeed, volume, optType, strike, maturity);\n        string memory symbol = getOptionSymbol(ord);\n\n        OrderData memory result = findOrder(msg.sender, symbol);\n        if (isValid(result)) {\n            id = result.id;\n            orders[id].written = uint(result.written).add(volume).toUint120();\n            orders[id].holding = uint(result.holding).add(volume).toUint120();\n        } else {\n            id = serial++;\n            ord.id = uint64(id);\n            orders[id] = ord;\n            book[msg.sender].push(ord.id);\n            index[msg.sender][symbol] = ord.id;\n            tokenIds[symbol].push(ord.id);\n        }\n\n        address tk = tokenAddress[symbol];\n        if (tk == address(0)) {\n            tk = factory.create(symbol);\n            tokenAddress[symbol] = tk;\n            emit CreateSymbol(symbol);\n        }\n        \n        OptionToken(tk).issue(msg.sender, volume);\n        emit WriteOptions(symbol, msg.sender, volume, id);\n    }\n\n    function createOrderInMemory(\n        address udlFeed,\n        uint volume,\n        OptionType optType,\n        uint strike, \n        uint maturity\n    )\n        private\n        view\n        returns (OrderData memory ord)\n    {\n        OptionData memory opt = OptionData(optType, strike.toUint120(), maturity.toUint32());\n\n        UnderlyingFeed feed = udlFeed != address(0) ?\n            UnderlyingFeed(udlFeed) :\n            UnderlyingFeed(settings.getDefaultUdlFeed());\n\n        uint vol = feed.getDailyVolatility(settings.getVolatilityPeriod());\n\n        ord = OrderData(\n            0,\n            opt,\n            msg.sender, \n            address(feed),\n            feed.calcLowerVolatility(uint(vol)).toUint120(),\n            feed.calcUpperVolatility(uint(vol)).toUint120(),\n            volume.toUint120(),\n            volume.toUint120()\n        );\n    }\n\n    function findOrder(\n        address owner,\n        string memory symbol\n    )\n        private\n        view\n        returns (OrderData memory)\n    {\n        uint64 id = index[owner][symbol];\n        if (id > 0) {\n            return orders[id];\n        }\n    }\n\n    function liquidateAfterMaturity(\n        OrderData memory ord,\n        string memory symbol,\n        address token,\n        uint iv\n    )\n        private\n        returns (uint value)\n    {\n        if (iv > 0) {\n            value = iv.div(volumeBase);\n            creditProvider.processPayment(ord.owner, token, value);\n        }\n    \n        removeOrder(symbol, ord.id);\n    }\n\n    function liquidateBeforeMaturity(\n        OrderData memory ord,\n        string memory symbol,\n        address token,\n        uint iv\n    )\n        private\n        returns (uint value)\n    {\n        uint volume = calcLiquidationVolume(ord);\n        value = calcCollateral(ord.lowerVol, ord).add(iv)\n            .mul(volume.toUint120()).div(ord.written).div(volumeBase);\n        \n        orders[ord.id].written = uint(orders[ord.id].written).sub(volume).toUint120();\n        if (shouldRemove(ord.id)) {\n            removeOrder(symbol, ord.id);\n        }\n\n        creditProvider.processPayment(ord.owner, token, value);\n    }\n\n    function calcLiquidationVolume(OrderData memory ord) private view returns (uint volume) {\n        \n        uint bal = creditProvider.balanceOf(ord.owner);\n        uint collateral = calcCollateral(ord.owner);\n        require(collateral > bal, \"unfit for liquidation\");\n\n        volume = collateral.sub(bal).mul(volumeBase).mul(ord.written).div(\n            calcCollateral(uint(ord.upperVol).sub(uint(ord.lowerVol)), ord)\n        );\n\n        volume = MoreMath.min(volume, ord.written);\n    }\n\n    function shouldRemove(uint id) private view returns (bool) {\n\n        return orders[id].written == 0 && orders[id].holding == 0;\n    }\n    \n    function removeOrder(string memory symbol, uint64 id) private {\n        \n        address owner = orders[id].owner;\n        Arrays.removeItem(tokenIds[symbol], id);\n        Arrays.removeItem(book[owner], id);\n        delete index[owner][symbol];\n        delete orders[id];\n    }\n\n    function getOptionSymbol(OrderData memory ord) private view returns (string memory symbol) {\n        \n        symbol = string(abi.encodePacked(\n            UnderlyingFeed(ord.udlFeed).symbol(),\n            \"-\",\n            \"E\",\n            ord.option._type == OptionType.CALL ? \"C\" : \"P\",\n            \"-\",\n            MoreMath.toString(ord.option.strike),\n            \"-\",\n            MoreMath.toString(ord.option.maturity)\n        ));\n    }\n    \n    function ensureFunds(address owner) private view {\n        \n        require(\n            creditProvider.balanceOf(owner) >= calcCollateral(owner),\n            \"insufficient collateral\"\n        );\n    }\n    \n    function calcCollateral(uint vol, OrderData memory ord) private view returns (uint) {\n        \n        return (vol.mul(ord.written).mul(MoreMath.sqrt(daysToMaturity(ord)))).div(sqrtTimeBase);\n    }\n    \n    function calcIntrinsicValue(OrderData memory ord) private view returns (int value) {\n        \n        OptionData memory opt = ord.option;\n        int udlPrice = getUdlPrice(ord);\n        int strike = int(opt.strike);\n\n        if (opt._type == OptionType.CALL) {\n            value = MoreMath.max(0, udlPrice.sub(strike));\n        } else if (opt._type == OptionType.PUT) {\n            value = MoreMath.max(0, strike.sub(udlPrice));\n        }\n    }\n    \n    function isValid(OrderData memory ord) private pure returns (bool) {\n        \n        return ord.id > 0;\n    }\n    \n    function daysToMaturity(OrderData memory ord) private view returns (uint d) {\n        \n        uint _now = getUdlNow(ord);\n        if (ord.option.maturity > _now) {\n            d = (timeBase.mul(uint(ord.option.maturity).sub(uint(_now)))).div(1 days);\n        } else {\n            d = 0;\n        }\n    }\n\n    function getUdlPrice(OrderData memory ord) private view returns (int answer) {\n\n        if (ord.option.maturity > time.getNow()) {\n            (,answer) = UnderlyingFeed(ord.udlFeed).getLatestPrice();\n        } else {\n            (,answer) = UnderlyingFeed(ord.udlFeed).getPrice(ord.option.maturity);\n        }\n    }\n\n    function getUdlNow(OrderData memory ord) private view returns (uint timestamp) {\n\n        (timestamp,) = UnderlyingFeed(ord.udlFeed).getLatestPrice();\n    }\n}",
  "sourcePath": "/Users/dev/Documents/coding/defioptions/DeFiOptions-contracts/contracts/finance/OptionsExchange.sol",
  "compiler": {
    "name": "solc",
    "version": "0.6.0+commit.26b70077.Emscripten.clang"
  },
  "schemaVersion": "3.3.3",
  "updatedAt": "2021-03-26T21:47:17.307Z",
  "devdoc": {
    "methods": {}
  },
  "userdoc": {
    "methods": {}
  }
}