{
  "contractName": "OptionsExchange",
  "abi": [
    {
      "inputs": [
        {
          "internalType": "address",
          "name": "deployer",
          "type": "address"
        }
      ],
      "stateMutability": "nonpayable",
      "type": "constructor"
    },
    {
      "anonymous": false,
      "inputs": [
        {
          "indexed": true,
          "internalType": "address",
          "name": "token",
          "type": "address"
        },
        {
          "indexed": true,
          "internalType": "address",
          "name": "sender",
          "type": "address"
        }
      ],
      "name": "CreateSymbol",
      "type": "event"
    },
    {
      "anonymous": false,
      "inputs": [
        {
          "indexed": true,
          "internalType": "address",
          "name": "token",
          "type": "address"
        },
        {
          "indexed": true,
          "internalType": "address",
          "name": "sender",
          "type": "address"
        },
        {
          "indexed": true,
          "internalType": "address",
          "name": "onwer",
          "type": "address"
        },
        {
          "indexed": false,
          "internalType": "uint256",
          "name": "volume",
          "type": "uint256"
        }
      ],
      "name": "LiquidateEarly",
      "type": "event"
    },
    {
      "anonymous": false,
      "inputs": [
        {
          "indexed": true,
          "internalType": "address",
          "name": "token",
          "type": "address"
        },
        {
          "indexed": true,
          "internalType": "address",
          "name": "sender",
          "type": "address"
        },
        {
          "indexed": true,
          "internalType": "address",
          "name": "onwer",
          "type": "address"
        },
        {
          "indexed": false,
          "internalType": "uint256",
          "name": "volume",
          "type": "uint256"
        }
      ],
      "name": "LiquidateExpired",
      "type": "event"
    },
    {
      "anonymous": false,
      "inputs": [
        {
          "indexed": true,
          "internalType": "address",
          "name": "token",
          "type": "address"
        },
        {
          "indexed": true,
          "internalType": "address",
          "name": "issuer",
          "type": "address"
        },
        {
          "indexed": true,
          "internalType": "address",
          "name": "onwer",
          "type": "address"
        },
        {
          "indexed": false,
          "internalType": "uint256",
          "name": "volume",
          "type": "uint256"
        }
      ],
      "name": "WriteOptions",
      "type": "event"
    },
    {
      "inputs": [],
      "name": "DOMAIN_SEPARATOR",
      "outputs": [
        {
          "internalType": "bytes32",
          "name": "",
          "type": "bytes32"
        }
      ],
      "stateMutability": "view",
      "type": "function"
    },
    {
      "inputs": [],
      "name": "PERMIT_TYPEHASH",
      "outputs": [
        {
          "internalType": "bytes32",
          "name": "",
          "type": "bytes32"
        }
      ],
      "stateMutability": "view",
      "type": "function"
    },
    {
      "inputs": [
        {
          "internalType": "address",
          "name": "owner",
          "type": "address"
        }
      ],
      "name": "balanceOf",
      "outputs": [
        {
          "internalType": "uint256",
          "name": "",
          "type": "uint256"
        }
      ],
      "stateMutability": "view",
      "type": "function"
    },
    {
      "inputs": [
        {
          "internalType": "address",
          "name": "owner",
          "type": "address"
        }
      ],
      "name": "calcCollateral",
      "outputs": [
        {
          "internalType": "uint256",
          "name": "",
          "type": "uint256"
        }
      ],
      "stateMutability": "view",
      "type": "function"
    },
    {
      "inputs": [
        {
          "internalType": "address",
          "name": "udlFeed",
          "type": "address"
        },
        {
          "internalType": "uint256",
          "name": "volume",
          "type": "uint256"
        },
        {
          "internalType": "enum OptionsExchange.OptionType",
          "name": "optType",
          "type": "uint8"
        },
        {
          "internalType": "uint256",
          "name": "strike",
          "type": "uint256"
        },
        {
          "internalType": "uint256",
          "name": "maturity",
          "type": "uint256"
        }
      ],
      "name": "calcCollateral",
      "outputs": [
        {
          "internalType": "uint256",
          "name": "",
          "type": "uint256"
        }
      ],
      "stateMutability": "view",
      "type": "function"
    },
    {
      "inputs": [
        {
          "internalType": "address",
          "name": "owner",
          "type": "address"
        }
      ],
      "name": "calcDebt",
      "outputs": [
        {
          "internalType": "uint256",
          "name": "debt",
          "type": "uint256"
        }
      ],
      "stateMutability": "view",
      "type": "function"
    },
    {
      "inputs": [
        {
          "internalType": "address",
          "name": "owner",
          "type": "address"
        }
      ],
      "name": "calcExpectedPayout",
      "outputs": [
        {
          "internalType": "int256",
          "name": "payout",
          "type": "int256"
        }
      ],
      "stateMutability": "view",
      "type": "function"
    },
    {
      "inputs": [
        {
          "internalType": "address",
          "name": "_tk",
          "type": "address"
        }
      ],
      "name": "calcIntrinsicValue",
      "outputs": [
        {
          "internalType": "int256",
          "name": "",
          "type": "int256"
        }
      ],
      "stateMutability": "view",
      "type": "function"
    },
    {
      "inputs": [
        {
          "internalType": "address",
          "name": "udlFeed",
          "type": "address"
        },
        {
          "internalType": "enum OptionsExchange.OptionType",
          "name": "optType",
          "type": "uint8"
        },
        {
          "internalType": "uint256",
          "name": "strike",
          "type": "uint256"
        },
        {
          "internalType": "uint256",
          "name": "maturity",
          "type": "uint256"
        }
      ],
      "name": "calcIntrinsicValue",
      "outputs": [
        {
          "internalType": "int256",
          "name": "",
          "type": "int256"
        }
      ],
      "stateMutability": "view",
      "type": "function"
    },
    {
      "inputs": [
        {
          "internalType": "address",
          "name": "owner",
          "type": "address"
        }
      ],
      "name": "calcSurplus",
      "outputs": [
        {
          "internalType": "uint256",
          "name": "",
          "type": "uint256"
        }
      ],
      "stateMutability": "view",
      "type": "function"
    },
    {
      "inputs": [
        {
          "internalType": "address",
          "name": "_tk",
          "type": "address"
        },
        {
          "internalType": "address",
          "name": "owner",
          "type": "address"
        }
      ],
      "name": "cleanUp",
      "outputs": [],
      "stateMutability": "nonpayable",
      "type": "function"
    },
    {
      "inputs": [
        {
          "internalType": "address",
          "name": "",
          "type": "address"
        }
      ],
      "name": "collateral",
      "outputs": [
        {
          "internalType": "uint256",
          "name": "",
          "type": "uint256"
        }
      ],
      "stateMutability": "view",
      "type": "function"
    },
    {
      "inputs": [
        {
          "internalType": "string",
          "name": "symbol",
          "type": "string"
        },
        {
          "internalType": "address",
          "name": "udlFeed",
          "type": "address"
        }
      ],
      "name": "createSymbol",
      "outputs": [
        {
          "internalType": "address",
          "name": "tk",
          "type": "address"
        }
      ],
      "stateMutability": "nonpayable",
      "type": "function"
    },
    {
      "inputs": [
        {
          "internalType": "address",
          "name": "_tk",
          "type": "address"
        },
        {
          "internalType": "uint256",
          "name": "volume",
          "type": "uint256"
        }
      ],
      "name": "decrementCollateral",
      "outputs": [],
      "stateMutability": "nonpayable",
      "type": "function"
    },
    {
      "inputs": [
        {
          "internalType": "address",
          "name": "to",
          "type": "address"
        },
        {
          "internalType": "address",
          "name": "token",
          "type": "address"
        },
        {
          "internalType": "uint256",
          "name": "value",
          "type": "uint256"
        }
      ],
      "name": "depositTokens",
      "outputs": [],
      "stateMutability": "nonpayable",
      "type": "function"
    },
    {
      "inputs": [
        {
          "internalType": "address",
          "name": "to",
          "type": "address"
        },
        {
          "internalType": "address",
          "name": "token",
          "type": "address"
        },
        {
          "internalType": "uint256",
          "name": "value",
          "type": "uint256"
        },
        {
          "internalType": "uint256",
          "name": "deadline",
          "type": "uint256"
        },
        {
          "internalType": "uint8",
          "name": "v",
          "type": "uint8"
        },
        {
          "internalType": "bytes32",
          "name": "r",
          "type": "bytes32"
        },
        {
          "internalType": "bytes32",
          "name": "s",
          "type": "bytes32"
        }
      ],
      "name": "depositTokens",
      "outputs": [],
      "stateMutability": "nonpayable",
      "type": "function"
    },
    {
      "inputs": [
        {
          "internalType": "address",
          "name": "owner",
          "type": "address"
        }
      ],
      "name": "getBook",
      "outputs": [
        {
          "internalType": "string",
          "name": "symbols",
          "type": "string"
        },
        {
          "internalType": "address[]",
          "name": "tokens",
          "type": "address[]"
        },
        {
          "internalType": "uint256[]",
          "name": "holding",
          "type": "uint256[]"
        },
        {
          "internalType": "uint256[]",
          "name": "written",
          "type": "uint256[]"
        },
        {
          "internalType": "int256[]",
          "name": "iv",
          "type": "int256[]"
        }
      ],
      "stateMutability": "view",
      "type": "function"
    },
    {
      "inputs": [
        {
          "internalType": "contract Deployer",
          "name": "deployer",
          "type": "address"
        }
      ],
      "name": "initializeAndLock",
      "outputs": [],
      "stateMutability": "nonpayable",
      "type": "function"
    },
    {
      "inputs": [
        {
          "internalType": "address",
          "name": "_tk",
          "type": "address"
        },
        {
          "internalType": "address[]",
          "name": "owners",
          "type": "address[]"
        }
      ],
      "name": "liquidateExpired",
      "outputs": [],
      "stateMutability": "nonpayable",
      "type": "function"
    },
    {
      "inputs": [
        {
          "internalType": "address",
          "name": "_tk",
          "type": "address"
        },
        {
          "internalType": "address",
          "name": "owner",
          "type": "address"
        }
      ],
      "name": "liquidateOptions",
      "outputs": [
        {
          "internalType": "uint256",
          "name": "value",
          "type": "uint256"
        }
      ],
      "stateMutability": "nonpayable",
      "type": "function"
    },
    {
      "inputs": [],
      "name": "name",
      "outputs": [
        {
          "internalType": "string",
          "name": "",
          "type": "string"
        }
      ],
      "stateMutability": "view",
      "type": "function"
    },
    {
      "inputs": [
        {
          "internalType": "address",
          "name": "",
          "type": "address"
        }
      ],
      "name": "nonces",
      "outputs": [
        {
          "internalType": "uint256",
          "name": "",
          "type": "uint256"
        }
      ],
      "stateMutability": "view",
      "type": "function"
    },
    {
      "inputs": [
        {
          "internalType": "address",
          "name": "udlFeed",
          "type": "address"
        }
      ],
      "name": "prefetchFeedData",
      "outputs": [],
      "stateMutability": "nonpayable",
      "type": "function"
    },
    {
      "inputs": [
        {
          "internalType": "string",
          "name": "symbol",
          "type": "string"
        }
      ],
      "name": "resolveToken",
      "outputs": [
        {
          "internalType": "address",
          "name": "",
          "type": "address"
        }
      ],
      "stateMutability": "view",
      "type": "function"
    },
    {
      "inputs": [
        {
          "internalType": "address",
          "name": "owner",
          "type": "address"
        }
      ],
      "name": "setCollateral",
      "outputs": [],
      "stateMutability": "nonpayable",
      "type": "function"
    },
    {
      "inputs": [
        {
          "internalType": "address",
          "name": "from",
          "type": "address"
        },
        {
          "internalType": "address",
          "name": "to",
          "type": "address"
        },
        {
          "internalType": "uint256",
          "name": "value",
          "type": "uint256"
        },
        {
          "internalType": "uint256",
          "name": "maxValue",
          "type": "uint256"
        },
        {
          "internalType": "uint256",
          "name": "deadline",
          "type": "uint256"
        },
        {
          "internalType": "uint8",
          "name": "v",
          "type": "uint8"
        },
        {
          "internalType": "bytes32",
          "name": "r",
          "type": "bytes32"
        },
        {
          "internalType": "bytes32",
          "name": "s",
          "type": "bytes32"
        }
      ],
      "name": "transferBalance",
      "outputs": [],
      "stateMutability": "nonpayable",
      "type": "function"
    },
    {
      "inputs": [
        {
          "internalType": "address",
          "name": "to",
          "type": "address"
        },
        {
          "internalType": "uint256",
          "name": "value",
          "type": "uint256"
        }
      ],
      "name": "transferBalance",
      "outputs": [],
      "stateMutability": "nonpayable",
      "type": "function"
    },
    {
      "inputs": [
        {
          "internalType": "string",
          "name": "symbol",
          "type": "string"
        },
        {
          "internalType": "address",
          "name": "from",
          "type": "address"
        },
        {
          "internalType": "address",
          "name": "to",
          "type": "address"
        },
        {
          "internalType": "uint256",
          "name": "value",
          "type": "uint256"
        }
      ],
      "name": "transferOwnership",
      "outputs": [],
      "stateMutability": "nonpayable",
      "type": "function"
    },
    {
      "inputs": [],
      "name": "volumeBase",
      "outputs": [
        {
          "internalType": "uint256",
          "name": "",
          "type": "uint256"
        }
      ],
      "stateMutability": "view",
      "type": "function"
    },
    {
      "inputs": [
        {
          "internalType": "uint256",
          "name": "value",
          "type": "uint256"
        }
      ],
      "name": "withdrawTokens",
      "outputs": [],
      "stateMutability": "nonpayable",
      "type": "function"
    },
    {
      "inputs": [
        {
          "internalType": "address",
          "name": "udlFeed",
          "type": "address"
        },
        {
          "internalType": "uint256",
          "name": "volume",
          "type": "uint256"
        },
        {
          "internalType": "enum OptionsExchange.OptionType",
          "name": "optType",
          "type": "uint8"
        },
        {
          "internalType": "uint256",
          "name": "strike",
          "type": "uint256"
        },
        {
          "internalType": "uint256",
          "name": "maturity",
          "type": "uint256"
        },
        {
          "internalType": "address",
          "name": "to",
          "type": "address"
        }
      ],
      "name": "writeOptions",
      "outputs": [
        {
          "internalType": "address",
          "name": "_tk",
          "type": "address"
        }
      ],
      "stateMutability": "nonpayable",
      "type": "function"
    }
  ],
  "bytecode": "0x60806040523480156200001157600080fd5b5060405162004e5e38038062004e5e833981810160405260208110156200003757600080fd5b5051604080518082018252600f81526e4f7074696f6e7345786368616e676560881b6020828101918252925163ac119e7b60e01b81526004810193845282516024820152825192936001600160a01b0386169363ac119e7b93869383926044909101919080838360005b83811015620000bb578181015183820152602001620000a1565b50505050905090810190601f168015620000e95780820380516001836020036101000a031916815260200191505b5092505050600060405180830381600087803b1580156200010957600080fd5b505af11580156200011e573d6000803e3d6000fd5b5050604051469250905080605262004e0c8239604080519182900360520182208551602096870120838301835260018452603160f81b93870193909352815180870191909152808201929092527fc89efdaa54c0f20c7adf612882df0950f5a951637e0307cdcb4c672f298b8bc6606083015260808201939093523060a0808301919091528351808303909101815260c090910190925250805191012060105550614c3d80620001cf6000396000f3fe608060405234801561001057600080fd5b50600436106101cf5760003560e01c806370a08231116101045780638e3cb188116100a2578063b4d39b9811610071578063b4d39b98146107ca578063b733263314610813578063d9537cdf14610841578063ef38eaf114610867576101cf565b80638e3cb18814610735578063a53b00411461075b578063a5fdc5de14610763578063b434e9d614610789576101cf565b8063827cbb06116100de578063827cbb061461056157806383a7e7e11461062e578063886abef5146106695780638c922b631461068f576101cf565b806370a082311461049557806373738fca146104bb5780637ecebe001461053b576101cf565b8063439fa088116101715780635efb90fc1161014b5780635efb90fc146103f557806365a450611461041b5780636871d8731461044157806368d4f79d1461046f576101cf565b8063439fa0881461035257806356a6d9ef146103a35780635c1bfb32146103cf576101cf565b806330adf81f116101ad57806330adf81f146102ef578063315a095d146102f75780633644e5151461031457806339dc5ef21461031c576101cf565b806302c23074146101d45780630a93320e1461020c57806316be637a14610266575b600080fd5b6101fa600480360360208110156101ea57600080fd5b50356001600160a01b0316610a15565b60408051918252519081900360200190f35b610264600480360361010081101561022357600080fd5b506001600160a01b03813581169160208101359091169060408101359060608101359060808101359060ff60a0820135169060c08101359060e00135610cab565b005b6102646004803603608081101561027c57600080fd5b81019060208101813564010000000081111561029757600080fd5b8201836020820111156102a957600080fd5b803590602001918460018302840111640100000000831117156102cb57600080fd5b91935091506001600160a01b03813581169160208101359091169060400135610d97565b6101fa6110b0565b6102646004803603602081101561030d57600080fd5b50356110d4565b6101fa61119f565b6102646004803603606081101561033257600080fd5b506001600160a01b038135811691602081013590911690604001356111a5565b610264600480360360e081101561036857600080fd5b506001600160a01b03813581169160208101359091169060408101359060608101359060ff6080820135169060a08101359060c0013561129e565b610264600480360360408110156103b957600080fd5b506001600160a01b03813516906020013561133c565b610264600480360360208110156103e557600080fd5b50356001600160a01b03166113bc565b6101fa6004803603602081101561040b57600080fd5b50356001600160a01b0316611423565b6101fa6004803603602081101561043157600080fd5b50356001600160a01b03166114a6565b6101fa6004803603604081101561045757600080fd5b506001600160a01b038135811691602001351661177e565b6101fa6004803603602081101561048557600080fd5b50356001600160a01b031661195f565b6101fa600480360360208110156104ab57600080fd5b50356001600160a01b03166119ec565b610264600480360360408110156104d157600080fd5b6001600160a01b0382351691908101906040810160208201356401000000008111156104fc57600080fd5b82018360208201111561050e57600080fd5b8035906020019184602083028401116401000000008311171561053057600080fd5b509092509050611a3d565b6101fa6004803603602081101561055157600080fd5b50356001600160a01b0316611b79565b6106126004803603604081101561057757600080fd5b81019060208101813564010000000081111561059257600080fd5b8201836020820111156105a457600080fd5b803590602001918460018302840111640100000000831117156105c657600080fd5b91908080601f016020809104026020016040519081016040528093929190818152602001838380828437600092019190915250929550505090356001600160a01b03169150611b8b9050565b604080516001600160a01b039092168252519081900360200190f35b6101fa6004803603608081101561064457600080fd5b506001600160a01b038135169060ff6020820135169060408101359060600135611e02565b6102646004803603602081101561067f57600080fd5b50356001600160a01b0316611e30565b610612600480360360208110156106a557600080fd5b8101906020810181356401000000008111156106c057600080fd5b8201836020820111156106d257600080fd5b803590602001918460018302840111640100000000831117156106f457600080fd5b91908080601f016020809104026020016040519081016040528093929190818152602001838380828437600092019190915250929550611e55945050505050565b6102646004803603602081101561074b57600080fd5b50356001600160a01b0316611f17565b6101fa611f9a565b6101fa6004803603602081101561077957600080fd5b50356001600160a01b0316611fa0565b6101fa600480360360a081101561079f57600080fd5b506001600160a01b038135169060208101359060ff6040820135169060608101359060800135611fb2565b610612600480360360c08110156107e057600080fd5b506001600160a01b03813581169160208101359160ff6040830135169160608101359160808201359160a0013516611fd5565b6102646004803603604081101561082957600080fd5b506001600160a01b0381358116916020013516611ffa565b6101fa6004803603602081101561085757600080fd5b50356001600160a01b031661212a565b61088d6004803603602081101561087d57600080fd5b50356001600160a01b03166121e1565b60405180806020018060200180602001806020018060200186810386528b818151815260200191508051906020019080838360005b838110156108da5781810151838201526020016108c2565b50505050905090810190601f1680156109075780820380516001836020036101000a031916815260200191505b5086810385528a5181528a51602091820191808d01910280838360005b8381101561093c578181015183820152602001610924565b50505050905001868103845289818151815260200191508051906020019060200280838360005b8381101561097b578181015183820152602001610963565b50505050905001868103835288818151815260200191508051906020019060200280838360005b838110156109ba5781810151838201526020016109a2565b50505050905001868103825287818151815260200191508051906020019060200280838360005b838110156109f95781810151838201526020016109e1565b505050509050019a505050505050505050505060405180910390f35b6001600160a01b0381166000908152600a602090815260408083208054825181850281018501909352808352606093830182828015610a7d57602002820191906000526020600020905b81546001600160a01b03168152600190910190602001808311610a5f575b50939450600093505050505b8151811015610c8f576000828281518110610aa057fe5b60200260200101519050610ab2614acc565b60086000858581518110610ac257fe5b6020908102919091018101516001600160a01b03908116835282820193909352604091820160002082516080810190935280549384168352919290830190600160a01b900460ff166001811115610b1557fe5b6001811115610b2057fe5b8152600191909101546001600160781b038116602080840191909152600160781b90910463ffffffff16604092830152815163d0acc58f60e01b81526001600160a01b038a8116600483015292519394506000939286169263d0acc58f92602480840193919291829003018186803b158015610b9b57600080fd5b505afa158015610baf573d6000803e3d6000fd5b505050506040513d6020811015610bc557600080fd5b5051604080516370a0823160e01b81526001600160a01b038a811660048301529151929350600092918616916370a0823191602480820192602092909190829003018186803b158015610c1757600080fd5b505afa158015610c2b573d6000803e3d6000fd5b505050506040513d6020811015610c4157600080fd5b50519050610c7d610c70610c5b838563ffffffff61260816565b610c648661266d565b9063ffffffff6126fa16565b889063ffffffff6127a316565b96505060019093019250610a89915050565b50600d54610ca490839063ffffffff61280816565b9392505050565b85851015610d00576040805162461bcd60e51b815260206004820152601960248201527f696e73756666696369656e74207065726d69742076616c756500000000000000604482015290519081900360640190fd5b610d0f888887878787876128c0565b600554604080516353035ca560e11b81526001600160a01b038b811660048301528a81166024830152604482018a90529151919092169163a606b94a91606480830192600092919082900301818387803b158015610d6c57600080fd5b505af1158015610d80573d6000803e3d6000fd5b50505050610d8d88612ac2565b5050505050505050565b336001600160a01b0316600b86866040518083838082843791909101948552505060405192839003602001909220546001600160a01b0316929092149150610e289050576040805162461bcd60e51b815260206004820152601f60248201527f756e617574686f72697a6564206f776e657273686970207472616e7366657200604482015290519081900360640190fd5b6040805163d0acc58f60e01b81526001600160a01b038516600482015290513391829163d0acc58f91602480820192602092909190829003018186803b158015610e7157600080fd5b505afa158015610e85573d6000803e3d6000fd5b505050506040513d6020811015610e9b57600080fd5b5051158015610f295750806001600160a01b03166370a08231856040518263ffffffff1660e01b815260040180826001600160a01b03166001600160a01b0316815260200191505060206040518083038186803b158015610efb57600080fd5b505afa158015610f0f573d6000803e3d6000fd5b505050506040513d6020811015610f2557600080fd5b5051155b15610f52576001600160a01b0384166000908152600a60205260409020610f509033612ba3565b505b806001600160a01b031663d0acc58f846040518263ffffffff1660e01b815260040180826001600160a01b03166001600160a01b0316815260200191505060206040518083038186803b158015610fa857600080fd5b505afa158015610fbc573d6000803e3d6000fd5b505050506040513d6020811015610fd257600080fd5b5051158015611061575081816001600160a01b03166370a08231856040518263ffffffff1660e01b815260040180826001600160a01b03166001600160a01b0316815260200191505060206040518083038186803b15801561103357600080fd5b505afa158015611047573d6000803e3d6000fd5b505050506040513d602081101561105d57600080fd5b5051145b1561109f576001600160a01b0383166000908152600a602090815260408220805460018101825590835291200180546001600160a01b031916331790555b6110a884612ac2565b505050505050565b7f6e71edae12b1b97f4d1f60370fef10105fa2faae0126114a169c64845d6126c981565b6110dd3361212a565b811115611131576040805162461bcd60e51b815260206004820152601460248201527f696e73756666696369656e7420737572706c7573000000000000000000000000604482015290519081900360640190fd5b600554604080516306b091f960e01b81523360048201526024810184905290516001600160a01b03909216916306b091f99160448082019260009290919082900301818387803b15801561118457600080fd5b505af1158015611198573d6000803e3d6000fd5b5050505050565b60105481565b600554604080516323b872dd60e01b81523360048201526001600160a01b03928316602482015260448101849052905184928316916323b872dd9160648083019260209291908290030181600087803b15801561120157600080fd5b505af1158015611215573d6000803e3d6000fd5b505050506040513d602081101561122b57600080fd5b5050600554604080516334ef2a2160e21b81526001600160a01b0387811660048301528681166024830152604482018690529151919092169163d3bca88491606480830192600092919082900301818387803b15801561128a57600080fd5b505af1158015610d8d573d6000803e3d6000fd5b6040805163d505accf60e01b8152336004820152306024820152604481018790526064810186905260ff8516608482015260a4810184905260c4810183905290516001600160a01b0388169163d505accf9160e480830192600092919082900301818387803b15801561131057600080fd5b505af1158015611324573d6000803e3d6000fd5b505050506113338787876111a5565b50505050505050565b600554604080516353035ca560e11b81523360048201526001600160a01b038581166024830152604482018590529151919092169163a606b94a91606480830192600092919082900301818387803b15801561139757600080fd5b505af11580156113ab573d6000803e3d6000fd5b505050506113b833612ac2565b5050565b600254600160a01b900460ff1615611404576040805162461bcd60e51b81526020600482015260066024820152651b1bd8dad95960d21b604482015290519081900360640190fd5b61140d81612c89565b506002805460ff60a01b1916600160a01b179055565b600554604080516317bee43f60e21b81526001600160a01b03848116600483015291516000939290921691635efb90fc91602480820192602092909190829003018186803b15801561147457600080fd5b505afa158015611488573d6000803e3d6000fd5b505050506040513d602081101561149e57600080fd5b505192915050565b6001600160a01b0381166000908152600a602090815260408083208054825181850281018501909352808352849360609392919083018282801561151357602002820191906000526020600020905b81546001600160a01b031681526001909101906020018083116114f5575b50939450600093505050505b815181101561174a57600082828151811061153657fe5b60200260200101519050600081905061154d614acc565b6001600160a01b0383811660009081526008602090815260409182902082516080810190935280549384168352919290830190600160a01b900460ff16600181111561159557fe5b60018111156115a057fe5b8152600191909101546001600160781b038116602080840191909152600160781b90910463ffffffff16604092830152815163d0acc58f60e01b81526001600160a01b038c8116600483015292519394506000939286169263d0acc58f92602480840193919291829003018186803b15801561161b57600080fd5b505afa15801561162f573d6000803e3d6000fd5b505050506040513d602081101561164557600080fd5b5051604080516370a0823160e01b81526001600160a01b038c811660048301529151929350600092918616916370a0823191602480820192602092909190829003018186803b15801561169757600080fd5b505afa1580156116ab573d6000803e3d6000fd5b505050506040513d60208110156116c157600080fd5b505183516001600160a01b0316600090815260096020526040902054909150611737906116ff90600160781b90046001600160781b03168486612f6f565b61172b61171e611715868663ffffffff61260816565b610c648861266d565b8b9063ffffffff6127a316565b9063ffffffff6127a316565b9750506001909401935061151f92505050565b50600d5461175f90839063ffffffff61280816565b9150600082121561177557600092505050611779565b5090505b919050565b6000611788614acc565b6001600160a01b0384811660009081526008602090815260409182902082516080810190935280549384168352919290830190600160a01b900460ff1660018111156117d057fe5b60018111156117db57fe5b8152600191909101546001600160781b0381166020830152600160781b900463ffffffff1660409091015280519091506001600160a01b0316611855576040805162461bcd60e51b815260206004820152600d60248201526c34b73b30b634b2103a37b5b2b760991b604482015290519081900360640190fd5b60008490506000816001600160a01b031663d0acc58f866040518263ffffffff1660e01b815260040180826001600160a01b03166001600160a01b0316815260200191505060206040518083038186803b1580156118b257600080fd5b505afa1580156118c6573d6000803e3d6000fd5b505050506040513d60208110156118dc57600080fd5b505111611920576040805162461bcd60e51b815260206004820152600d60248201526c34b73b30b634b21037bbb732b960991b604482015290519081900360640190fd5b6000826060015163ffffffff1661193684612fb3565b1015905060006119458461266d565b9050611954868585858561301b565b979650505050505050565b6001600160a01b0381811660009081526008602090815260408083208151608081019092528054948516825292936119e6939192830190600160a01b900460ff1660018111156119ab57fe5b60018111156119b657fe5b8152600191909101546001600160781b0381166020830152600160781b900463ffffffff1660409091015261266d565b92915050565b600554604080516370a0823160e01b81526001600160a01b038481166004830152915160009392909216916370a0823191602480820192602092909190829003018186803b15801561147457600080fd5b611a45614acc565b6001600160a01b0384811660009081526008602090815260409182902082516080810190935280549384168352919290830190600160a01b900460ff166001811115611a8d57fe5b6001811115611a9857fe5b8152600191909101546001600160781b038116602083015263ffffffff600160781b90910481166040909201919091526060820151919250859116611adc83612fb3565b1015611b2f576040805162461bcd60e51b815260206004820152601260248201527f6f7074696f6e206e6f7420657870697265640000000000000000000000000000604482015290519081900360640190fd5b6000611b3a8361266d565b905060005b8481101561133357611b70868683818110611b5657fe5b905060200201356001600160a01b0316858560018661301b565b50600101611b3f565b600c6020526000908152604090205481565b6000806001600160a01b0316600b846040518082805190602001908083835b60208310611bc95780518252601f199092019160209182019101611baa565b51815160209384036101000a60001901801990921691161790529201948552506040519384900301909220546001600160a01b0316929092149150611c579050576040805162461bcd60e51b815260206004820152600f60248201527f616c726561647920637265617465640000000000000000000000000000000000604482015290519081900360640190fd5b600654604080516384b47b0f60e01b81526001600160a01b038581166024830152600482019283528651604483015286519316926384b47b0f9287928792829160640190602086019080838360005b83811015611cbe578181015183820152602001611ca6565b50505050905090810190601f168015611ceb5780820380516001836020036101000a031916815260200191505b509350505050602060405180830381600087803b158015611d0b57600080fd5b505af1158015611d1f573d6000803e3d6000fd5b505050506040513d6020811015611d3557600080fd5b505160405184519192508291600b918691819060208401908083835b60208310611d705780518252601f199092019160209182019101611d51565b51815160209384036101000a6000190180199092169116179052920194855250604051938490030190922080546001600160a01b0319166001600160a01b03949094169390931790925550611dc6905082611f17565b60405133906001600160a01b038316907f1e778eb413620d03df0615026f51cf388a81c6fabda25b38998bf20fbd0d764690600090a392915050565b6000611e0c614acc565b611e188686868661317f565b509050611e248161266d565b9150505b949350505050565b611e39816114a6565b6001600160a01b03909116600090815260076020526040902055565b600080600b836040518082805190602001908083835b60208310611e8a5780518252601f199092019160209182019101611e6b565b51815160001960209485036101000a019081169019919091161790529201948552506040519384900301909220546001600160a01b031692505050806119e6576040805162461bcd60e51b815260206004820152600f60248201527f746f6b656e206e6f7420666f756e640000000000000000000000000000000000604482015290519081900360640190fd5b611f20816131f2565b6001600160a01b039190911660009081526009602090815260409091208251815492909301516effffffffffffffffffffffffffffff199092166001600160781b03938416177fffff000000000000000000000000000000ffffffffffffffffffffffffffffff16600160781b9390921692909202179055565b600d5481565b60076020526000908152604090205481565b6000611fbc614acc565b611fc88786868661317f565b50905061195481876133f9565b6000611fe58787878787876134ca565b9050611ff033612ac2565b9695505050505050565b604080516370a0823160e01b81526001600160a01b038381166004830152915184928316916370a08231916024808301926020929190829003018186803b15801561204457600080fd5b505afa158015612058573d6000803e3d6000fd5b505050506040513d602081101561206e57600080fd5b50511580156120fc5750806001600160a01b031663d0acc58f836040518263ffffffff1660e01b815260040180826001600160a01b03166001600160a01b0316815260200191505060206040518083038186803b1580156120ce57600080fd5b505afa1580156120e2573d6000803e3d6000fd5b505050506040513d60208110156120f857600080fd5b5051155b15612125576001600160a01b0382166000908152600a602052604090206121239084612ba3565b505b505050565b600080612136836114a6565b600554604080516370a0823160e01b81526001600160a01b038781166004830152915193945060009391909216916370a08231916024808301926020929190829003018186803b15801561218957600080fd5b505afa15801561219d573d6000803e3d6000fd5b505050506040513d60208110156121b357600080fd5b505190508181106121d7576121ce818363ffffffff613bb416565b92505050611779565b5060009392505050565b6060806060806060600a6000876001600160a01b03166001600160a01b0316815260200190815260200160002080548060200260200160405190810160405280929190818152602001828054801561226257602002820191906000526020600020905b81546001600160a01b03168152600190910190602001808311612244575b505050505093508351604051908082528060200260200182016040528015612294578160200160208202803883390190505b50925083516040519080825280602002602001820160405280156122c2578160200160208202803883390190505b50915083516040519080825280602002602001820160405280156122f0578160200160208202803883390190505b50905060005b84518110156125fe57600085828151811061230d57fe5b6020026020010151905061231f614acc565b6008600088858151811061232f57fe5b6020908102919091018101516001600160a01b03908116835282820193909352604091820160002082516080810190935280549384168352919290830190600160a01b900460ff16600181111561238257fe5b600181111561238d57fe5b8152600191909101546001600160781b0381166020830152600160781b900463ffffffff166040909101529050826123cf576123c881613bf6565b975061249c565b876123d982613bf6565b6040516020018083805190602001908083835b6020831061240b5780518252601f1990920191602091820191016123ec565b6001836020036101000a03801982511681845116808217855250505050505090500180600560f91b81525060010182805190602001908083835b602083106124645780518252601f199092019160209182019101612445565b6001836020036101000a0380198251168184511680821785525050505050509050019250505060405160208183030381529060405297505b816001600160a01b03166370a082318a6040518263ffffffff1660e01b815260040180826001600160a01b03166001600160a01b0316815260200191505060206040518083038186803b1580156124f257600080fd5b505afa158015612506573d6000803e3d6000fd5b505050506040513d602081101561251c57600080fd5b5051865187908590811061252c57fe5b602002602001018181525050816001600160a01b031663d0acc58f8a6040518263ffffffff1660e01b815260040180826001600160a01b03166001600160a01b0316815260200191505060206040518083038186803b15801561258e57600080fd5b505afa1580156125a2573d6000803e3d6000fd5b505050506040513d60208110156125b857600080fd5b505185518690859081106125c857fe5b6020026020010181815250506125dd8161266d565b8484815181106125e957fe5b602090810291909101015250506001016122f6565b5091939590929450565b600081830381831280159061261d5750838113155b80612632575060008312801561263257508381135b610ca45760405162461bcd60e51b8152600401808060200182810382526024815260200180614be46024913960400191505060405180910390fd5b60008061267983613f24565b60408401519091506001600160781b031660008460200151600181111561269c57fe5b14156126c3576126bc60006126b7848463ffffffff61260816565b61409e565b92506126f3565b6001846020015160018111156126d557fe5b14156126f3576126f060006126b7838563ffffffff61260816565b92505b5050919050565b600082612709575060006119e6565b8260001914801561271d5750600160ff1b82145b156127595760405162461bcd60e51b8152600401808060200182810382526027815260200180614b976027913960400191505060405180910390fd5b8282028284828161276657fe5b0514610ca45760405162461bcd60e51b8152600401808060200182810382526027815260200180614b976027913960400191505060405180910390fd5b60008282018183128015906127b85750838112155b806127cd57506000831280156127cd57508381125b610ca45760405162461bcd60e51b8152600401808060200182810382526021815260200180614b346021913960400191505060405180910390fd5b60008161285c576040805162461bcd60e51b815260206004820181905260248201527f5369676e6564536166654d6174683a206469766973696f6e206279207a65726f604482015290519081900360640190fd5b816000191480156128705750600160ff1b83145b156128ac5760405162461bcd60e51b8152600401808060200182810382526021815260200180614b556021913960400191505060405180910390fd5b60008284816128b757fe5b05949350505050565b42841015612915576040805162461bcd60e51b815260206004820152600e60248201527f7065726d69742065787069726564000000000000000000000000000000000000604482015290519081900360640190fd5b6010546001600160a01b038089166000818152600c602090815260408083208054600180820190925582517f6e71edae12b1b97f4d1f60370fef10105fa2faae0126114a169c64845d6126c98186015280840196909652958d166060860152608085018c905260a085019590955260c08085018b90528151808603909101815260e08501825280519083012061190160f01b6101008601526101028501969096526101228085019690965280518085039096018652610142840180825286519683019690962095839052610162840180825286905260ff89166101828501526101a284018890526101c28401879052519193926101e280820193601f1981019281900390910190855afa158015612a30573d6000803e3d6000fd5b5050604051601f1901519150506001600160a01b03811615801590612a665750886001600160a01b0316816001600160a01b0316145b612ab7576040805162461bcd60e51b815260206004820152601160248201527f696e76616c6964207369676e6174757265000000000000000000000000000000604482015290519081900360640190fd5b505050505050505050565b6001600160a01b038082166000818152600760209081526040918290205460055483516370a0823160e01b815260048101959095529251909492909216926370a082319260248083019392829003018186803b158015612b2157600080fd5b505afa158015612b35573d6000803e3d6000fd5b505050506040513d6020811015612b4b57600080fd5b50511015612ba0576040805162461bcd60e51b815260206004820152601760248201527f696e73756666696369656e7420636f6c6c61746572616c000000000000000000604482015290519081900360640190fd5b50565b6000805b83548110156121d757826001600160a01b0316848281548110612bc657fe5b6000918252602090912001546001600160a01b03161415612c8157835484906000198101908110612bf357fe5b9060005260206000200160009054906101000a90046001600160a01b0316848281548110612c1d57fe5b9060005260206000200160006101000a8154816001600160a01b0302191690836001600160a01b0316021790555083805480612c5557fe5b600082815260209020810160001990810180546001600160a01b031916905501905550600190506119e6565b600101612ba7565b60408051630110ceef60e21b8152602060048201819052600c60248301526b2a34b6b2a83937bb34b232b960a11b604483015291516001600160a01b038416926304433bbc9260648082019391829003018186803b158015612cea57600080fd5b505afa158015612cfe573d6000803e3d6000fd5b505050506040513d6020811015612d1457600080fd5b5051600380546001600160a01b0319166001600160a01b0392831617905560408051630110ceef60e21b8152602060048201819052600e60248301527f43726564697450726f766964657200000000000000000000000000000000000060448301529151928416926304433bbc92606480840193919291829003018186803b158015612d9f57600080fd5b505afa158015612db3573d6000803e3d6000fd5b505050506040513d6020811015612dc957600080fd5b5051600580546001600160a01b0319166001600160a01b0392831617905560408051630110ceef60e21b8152602060048201819052601060248301527f50726f746f636f6c53657474696e67730000000000000000000000000000000060448301529151928416926304433bbc92606480840193919291829003018186803b158015612e5457600080fd5b505afa158015612e68573d6000803e3d6000fd5b505050506040513d6020811015612e7e57600080fd5b5051600480546001600160a01b0319166001600160a01b0392831617815560408051630110ceef60e21b81526020928101839052601260248201527f4f7074696f6e546f6b656e466163746f7279000000000000000000000000000060448201529051928416926304433bbc92606480840193919291829003018186803b158015612f0857600080fd5b505afa158015612f1c573d6000803e3d6000fd5b505050506040513d6020811015612f3257600080fd5b5051600680546001600160a01b0319166001600160a01b0390921691909117905550670de0b6b3a7640000600d819055600e55633b9aca00600f55565b6000611e28600f54612fa7612f8b612f86866140b4565b61411c565b612f9b888863ffffffff61417216565b9063ffffffff61417216565b9063ffffffff6141cb16565b600081600001516001600160a01b0316638e15f4736040518163ffffffff1660e01b8152600401604080518083038186803b158015612ff157600080fd5b505afa158015613005573d6000803e3d6000fd5b505050506040513d604081101561149e57600080fd5b600080846001600160a01b031663d0acc58f886040518263ffffffff1660e01b815260040180826001600160a01b03166001600160a01b0316815260200191505060206040518083038186803b15801561307457600080fd5b505afa158015613088573d6000803e3d6000fd5b505050506040513d602081101561309e57600080fd5b505190506130b2838263ffffffff61417216565b92508315613122576130c68786838661420d565b9150866001600160a01b0316336001600160a01b0316866001600160a01b03167f4a3cb05a76ff28d45e2b73730a44e1d836d2c5adb86a3cc9d2b6473b59c35849846040518082815260200191505060405180910390a4613175565b60008111613168576040805162461bcd60e51b815260206004820152600e60248201526d696e76616c696420766f6c756d6560901b604482015290519081900360640190fd5b6119548787878487614327565b5095945050505050565b613187614acc565b60606040518060800160405280876001600160a01b031681526020018660018111156131af57fe5b81526020016131bd866144ec565b6001600160781b031681526020016131d485614534565b63ffffffff16905291506131e782613bf6565b905094509492505050565b6131fa614af5565b60008290506000816001600160a01b031663990c11d8600460009054906101000a90046001600160a01b03166001600160a01b031663b8c3af7b6040518163ffffffff1660e01b815260040160206040518083038186803b15801561325e57600080fd5b505afa158015613272573d6000803e3d6000fd5b505050506040513d602081101561328857600080fd5b5051604080517fffffffff0000000000000000000000000000000000000000000000000000000060e085901b1681526004810192909252516024808301926020929190829003018186803b1580156132df57600080fd5b505afa1580156132f3573d6000803e3d6000fd5b505050506040513d602081101561330957600080fd5b50516040805180820180835263d2cc49a160e01b9052604481018390529051919250908190613391906001600160a01b0386169063d2cc49a190606480860191602091818803018186803b15801561336057600080fd5b505afa158015613374573d6000803e3d6000fd5b505050506040513d602081101561338a57600080fd5b50516144ec565b6001600160781b031681526020016133e6846001600160a01b031663c26802c9856040518263ffffffff1660e01b81526004018082815260200191505060206040518083038186803b15801561336057600080fd5b6001600160781b03169052949350505050565b6000613403614af5565b5082516001600160a01b03166000908152600960209081526040918290208251808401909352546001600160781b03808216808552600160781b9092041691830191909152158061345f575060208101516001600160781b0316155b1561347257835161346f906131f2565b90505b60006134ae600d546134a261349585602001516001600160781b0316888a612f6f565b61172b88610c648b61266d565b9063ffffffff61280816565b9050600081136134bf5760006134c1565b805b95945050505050565b60048054604080516310fda6df60e31b81526001600160a01b038a8116948201949094529051600093849316916387ed36f8916024808301926020929190829003018186803b15801561351c57600080fd5b505afa158015613530573d6000803e3d6000fd5b505050506040513d602081101561354657600080fd5b50511361359a576040805162461bcd60e51b815260206004820152601060248201527f66656564206e6f7420616c6c6f77656400000000000000000000000000000000604482015290519081900360640190fd5b600086116135e0576040805162461bcd60e51b815260206004820152600e60248201526d696e76616c696420766f6c756d6560901b604482015290519081900360640190fd5b600360009054906101000a90046001600160a01b03166001600160a01b031663bbe4fd506040518163ffffffff1660e01b815260040160206040518083038186803b15801561362e57600080fd5b505afa158015613642573d6000803e3d6000fd5b505050506040513d602081101561365857600080fd5b505183116136ad576040805162461bcd60e51b815260206004820152601060248201527f696e76616c6964206d6174757269747900000000000000000000000000000000604482015290519081900360640190fd5b6136b5614acc565b60606136c38988888861317f565b91509150600b816040518082805190602001908083835b602083106136f95780518252601f1990920191602091820191016136da565b51815160001960209485036101000a019081169019919091161790529201948552506040519384900301909220546001600160a01b0316945050508261374657613743818a611b8b565b92505b6040805163d0acc58f60e01b8152336004820152905184916001600160a01b0383169163d0acc58f91602480820192602092909190829003018186803b15801561378f57600080fd5b505afa1580156137a3573d6000803e3d6000fd5b505050506040513d60208110156137b957600080fd5b50511580156138375750604080516370a0823160e01b815233600482015290516001600160a01b038316916370a08231916024808301926020929190829003018186803b15801561380957600080fd5b505afa15801561381d573d6000803e3d6000fd5b505050506040513d602081101561383357600080fd5b5051155b1561387557336000908152600a602090815260408220805460018101825590835291200180546001600160a01b0319166001600160a01b0386161790555b336001600160a01b0386161480159061390d5750806001600160a01b031663d0acc58f866040518263ffffffff1660e01b815260040180826001600160a01b03166001600160a01b0316815260200191505060206040518083038186803b1580156138df57600080fd5b505afa1580156138f3573d6000803e3d6000fd5b505050506040513d602081101561390957600080fd5b5051155b80156139985750806001600160a01b03166370a08231866040518263ffffffff1660e01b815260040180826001600160a01b03166001600160a01b0316815260200191505060206040518083038186803b15801561396a57600080fd5b505afa15801561397e573d6000803e3d6000fd5b505050506040513d602081101561399457600080fd5b5051155b156139dc576001600160a01b038581166000908152600a602090815260408220805460018101825590835291200180546001600160a01b0319169186169190911790555b60408051635b09ccc960e11b81523360048201526001600160a01b038781166024830152604482018c905291519183169163b61399929160648082019260009290919082900301818387803b158015613a3457600080fd5b505af1158015613a48573d6000803e3d6000fd5b505050506001600160a01b0384811660009081526008602052604090205416613b25576001600160a01b038481166000908152600860209081526040909120855181546001600160a01b03191693169290921780835590850151859291829060ff60a01b1916600160a01b836001811115613abf57fe5b021790555060408201516001909101805460609093015163ffffffff16600160781b0272ffffffff000000000000000000000000000000196001600160781b039093166effffffffffffffffffffffffffffff1990941693909317919091169190911790555b613b4e613b32848b6133f9565b336000908152600760205260409020549063ffffffff61457916565b336000818152600760209081526040918290209390935580518c815290516001600160a01b0389811694908916927f84aa5b93ad2c470d4e48853ea55b71721d342628a481c8c40e3ebc6e728d4be5929081900390910190a45050509695505050505050565b6000610ca483836040518060400160405280601e81526020017f536166654d6174683a207375627472616374696f6e206f766572666c6f7700008152506145d3565b606081600001516001600160a01b03166395d89b416040518163ffffffff1660e01b815260040160006040518083038186803b158015613c3557600080fd5b505afa158015613c49573d6000803e3d6000fd5b505050506040513d6000823e601f3d908101601f191682016040526020811015613c7257600080fd5b8101908080516040519392919084640100000000821115613c9257600080fd5b908301906020820185811115613ca757600080fd5b8251640100000000811182820188101715613cc157600080fd5b82525081516020918201929091019080838360005b83811015613cee578181015183820152602001613cd6565b50505050905090810190601f168015613d1b5780820380516001836020036101000a031916815260200191505b506040525060009150613d2b9050565b83602001516001811115613d3b57fe5b14613d5f57604051806040016040528060018152602001600560fc1b815250613d7a565b604051806040016040528060018152602001604360f81b8152505b613d9084604001516001600160781b031661466a565b613da3856060015163ffffffff1661466a565b6040516020018085805190602001908083835b60208310613dd55780518252601f199092019160209182019101613db6565b51815160209384036101000a6000190180199092169116179052602d60f81b91909301908152604560f81b60018201528651600290910192870191508083835b60208310613e345780518252601f199092019160209182019101613e15565b6001836020036101000a03801982511681845116808217855250505050505090500180602d60f81b81525060010183805190602001908083835b60208310613e8d5780518252601f199092019160209182019101613e6e565b6001836020036101000a03801982511681845116808217855250505050505090500180602d60f81b81525060010182805190602001908083835b60208310613ee65780518252601f199092019160209182019101613ec7565b6001836020036101000a0380198251168184511680821785525050505050509050019450505050506040516020818303038152906040529050919050565b60035460408051630bbe4fd560e41b815290516000926001600160a01b03169163bbe4fd50916004808301926020929190829003018186803b158015613f6957600080fd5b505afa158015613f7d573d6000803e3d6000fd5b505050506040513d6020811015613f9357600080fd5b5051606083015163ffffffff1611156140185781600001516001600160a01b0316638e15f4736040518163ffffffff1660e01b8152600401604080518083038186803b158015613fe257600080fd5b505afa158015613ff6573d6000803e3d6000fd5b505050506040513d604081101561400c57600080fd5b50602001519050611779565b81600001516001600160a01b031663e757223083606001516040518263ffffffff1660e01b8152600401808263ffffffff168152602001915050604080518083038186803b15801561406957600080fd5b505afa15801561407d573d6000803e3d6000fd5b505050506040513d604081101561409357600080fd5b506020015192915050565b60008183136140ad5781610ca4565b5090919050565b6000806140c083612fb3565b905080836060015163ffffffff1611156141115761410a62015180612fa76140fb84876060015163ffffffff16613bb490919063ffffffff16565b600e549063ffffffff61417216565b9150614116565b600091505b50919050565b6000806141356002612fa785600163ffffffff61457916565b90508291505b818110156141165790508061416b6002612fa78361415f878263ffffffff6141cb16565b9063ffffffff61457916565b905061413b565b600082614181575060006119e6565b8282028284828161418e57fe5b0414610ca45760405162461bcd60e51b8152600401808060200182810382526021815260200180614b766021913960400191505060405180910390fd5b6000610ca483836040518060400160405280601a81526020017f536166654d6174683a206469766973696f6e206279207a65726f000000000000815250614677565b600081156142a157600d5461422990839063ffffffff6141cb16565b60055460408051633468331760e21b81526001600160a01b038981166004830152888116602483015260448201859052915193945091169163d1a0cc5c9160648082019260009290919082900301818387803b15801561428857600080fd5b505af115801561429c573d6000803e3d6000fd5b505050505b8215611e2857836001600160a01b0316639dc29fac86856040518363ffffffff1660e01b815260040180836001600160a01b03166001600160a01b0316815260200182815260200192505050600060405180830381600087803b15801561430757600080fd5b505af115801561431b573d6000803e3d6000fd5b50505050949350505050565b6000614331614af5565b5084516001600160a01b031660009081526009602090815260408083208151808301909252546001600160781b038082168352600160781b909104169181019190915290614381888884886146dc565b90506143a3600d54612fa78985600001516001600160781b031689868a61481d565b60055460408051633468331760e21b81526001600160a01b038c811660048301528a8116602483015260448201859052915193965091169163d1a0cc5c9160648082019260009290919082900301818387803b15801561440257600080fd5b505af1158015614416573d6000803e3d6000fd5b50505050600081111561449c57856001600160a01b0316639dc29fac89836040518363ffffffff1660e01b815260040180836001600160a01b03166001600160a01b0316815260200182815260200192505050600060405180830381600087803b15801561448357600080fd5b505af1158015614497573d6000803e3d6000fd5b505050505b6040805182815290516001600160a01b03808b16923392918a16917f9426e81f32e21c1b2a7f64d6c9eb9e0434fa97ec784cdb07005deb22335590729181900360200190a4505095945050505050565b6000600160781b82106145305760405162461bcd60e51b8152600401808060200182810382526027815260200180614b0d6027913960400191505060405180910390fd5b5090565b600064010000000082106145305760405162461bcd60e51b8152600401808060200182810382526026815260200180614bbe6026913960400191505060405180910390fd5b600082820183811015610ca4576040805162461bcd60e51b815260206004820152601b60248201527f536166654d6174683a206164646974696f6e206f766572666c6f770000000000604482015290519081900360640190fd5b600081848411156146625760405162461bcd60e51b81526004018080602001828103825283818151815260200191508051906020019080838360005b8381101561462757818101518382015260200161460f565b50505050905090810190601f1680156146545780820380516001836020036101000a031916815260200191505b509250505060405180910390fd5b505050900390565b60606119e6826001614836565b600081836146c65760405162461bcd60e51b815260206004820181815283516024840152835190928392604490910191908501908083836000831561462757818101518382015260200161460f565b5060008385816146d257fe5b0495945050505050565b600554604080516370a0823160e01b81526001600160a01b0387811660048301529151600093849316916370a08231916024808301926020929190829003018186803b15801561472b57600080fd5b505afa15801561473f573d6000803e3d6000fd5b505050506040513d602081101561475557600080fd5b505190506000614764876114a6565b90508181116147ba576040805162461bcd60e51b815260206004820152601560248201527f756e66697420666f72206c69717569646174696f6e0000000000000000000000604482015290519081900360640190fd5b6148116147f46147ed87600001516001600160781b031688602001516001600160781b0316613bb490919063ffffffff16565b8689612f6f565b612fa786612f9b600d54612f9b8888613bb490919063ffffffff16565b92506119548385614abd565b6000611ff084612fa785612f9b8661415f8b8b8e612f6f565b60608261485b57506040805180820190915260018152600360fc1b60208201526119e6565b60408051606480825260a082019092526060908260208201818038833901905050905060005b85156148c7578151600a808804976001840193919006916030830160f81b91859181106148aa57fe5b60200101906001600160f81b031916908160001a90535050614881565b600085156149335760005b82811015614931578381815181106148e657fe5b6020910101517fff0000000000000000000000000000000000000000000000000000000000000016600360fc1b141561492457600190910190614929565b614931565b6001016148d2565b505b600060028211614944576000614946565b815b830390506060816040519080825280601f01601f191660200182016040528015614977576020820181803883390190505b50905060005b828110156149cc57856001828703038151811061499657fe5b602001015160f81c60f81b8282815181106149ad57fe5b60200101906001600160f81b031916908160001a90535060010161497d565b508096508780156149dd5750600283115b15614ab157806149ee846000614836565b6040516020018083805190602001908083835b60208310614a205780518252601f199092019160209182019101614a01565b6001836020036101000a03801982511681845116808217855250505050505090500180606560f81b81525060010182805190602001908083835b60208310614a795780518252601f199092019160209182019101614a5a565b6001836020036101000a0380198251168184511680821785525050505050509050019250505060405160208183030381529060405296505b50505050505092915050565b60008183106140ad5781610ca4565b604080516080810190915260008082526020820190815260006020820181905260409091015290565b60408051808201909152600080825260208201529056fe53616665436173743a2076616c756520646f65736e27742066697420696e2031323020626974735369676e6564536166654d6174683a206164646974696f6e206f766572666c6f775369676e6564536166654d6174683a206469766973696f6e206f766572666c6f77536166654d6174683a206d756c7469706c69636174696f6e206f766572666c6f775369676e6564536166654d6174683a206d756c7469706c69636174696f6e206f766572666c6f7753616665436173743a2076616c756520646f65736e27742066697420696e20333220626974735369676e6564536166654d6174683a207375627472616374696f6e206f766572666c6f77a2646970667358221220d0f550a1973c90f260af8600587cb8b5e37fb6b972a67d4716d5497d2a01cc2c64736f6c63430006000033454950373132446f6d61696e28737472696e67206e616d652c737472696e672076657273696f6e2c75696e7432353620636861696e49642c6164647265737320766572696679696e67436f6e747261637429",
  "source": "pragma solidity >=0.6.0;\n\nimport \"../deployment/Deployer.sol\";\nimport \"../deployment/ManagedContract.sol\";\nimport \"../governance/ProtocolSettings.sol\";\nimport \"../utils/ERC20.sol\";\nimport \"../interfaces/TimeProvider.sol\";\nimport \"../interfaces/UnderlyingFeed.sol\";\nimport \"../utils/Arrays.sol\";\nimport \"../utils/MoreMath.sol\";\nimport \"../utils/SafeCast.sol\";\nimport \"../utils/SafeMath.sol\";\nimport \"../utils/SignedSafeMath.sol\";\nimport \"./CreditProvider.sol\";\nimport \"./OptionToken.sol\";\nimport \"./OptionTokenFactory.sol\";\n\ncontract OptionsExchange is ManagedContract {\n\n    using SafeCast for uint;\n    using SafeMath for uint;\n    using SignedSafeMath for int;\n    \n    enum OptionType { CALL, PUT }\n    \n    struct OptionData {\n        address udlFeed;\n        OptionType _type;\n        uint120 strike;\n        uint32 maturity;\n    }\n\n    struct FeedData {\n        uint120 lowerVol;\n        uint120 upperVol;\n    }\n    \n    TimeProvider private time;\n    ProtocolSettings private settings;\n    CreditProvider private creditProvider;\n    OptionTokenFactory private factory;\n\n    mapping(address => uint) public collateral;\n    mapping(address => OptionData) private options;\n    mapping(address => FeedData) private feeds;\n    mapping(address => address[]) private book;\n    mapping(string => address) private tokenAddress;\n    mapping(address => uint) public nonces;\n    \n    uint public volumeBase;\n    uint private timeBase;\n    uint private sqrtTimeBase;\n\n    bytes32 public DOMAIN_SEPARATOR;\n    // keccak256(\"Permit(address owner,address spender,uint256 value,uint256 nonce,uint256 deadline)\");\n    bytes32 public constant PERMIT_TYPEHASH = 0x6e71edae12b1b97f4d1f60370fef10105fa2faae0126114a169c64845d6126c9;\n\n    event CreateSymbol(address indexed token, address indexed sender);\n\n    event WriteOptions(\n        address indexed token,\n        address indexed issuer,\n        address indexed onwer,\n        uint volume\n    );\n\n    event LiquidateEarly(\n        address indexed token,\n        address indexed sender,\n        address indexed onwer,\n        uint volume\n    );\n\n    event LiquidateExpired(\n        address indexed token,\n        address indexed sender,\n        address indexed onwer,\n        uint volume\n    );\n\n    constructor(address deployer) public {\n\n        string memory _name = \"OptionsExchange\";\n        Deployer(deployer).setContractAddress(_name);\n\n        uint chainId;\n        assembly {\n            chainId := chainid()\n        }\n        DOMAIN_SEPARATOR = keccak256(\n            abi.encode(\n                keccak256('EIP712Domain(string name,string version,uint256 chainId,address verifyingContract)'),\n                keccak256(bytes(_name)),\n                keccak256(bytes('1')),\n                chainId,\n                address(this)\n            )\n        );\n    }\n\n    function initialize(Deployer deployer) override internal {\n\n        time = TimeProvider(deployer.getContractAddress(\"TimeProvider\"));\n        creditProvider = CreditProvider(deployer.getContractAddress(\"CreditProvider\"));\n        settings = ProtocolSettings(deployer.getContractAddress(\"ProtocolSettings\"));\n        factory = OptionTokenFactory(deployer.getContractAddress(\"OptionTokenFactory\"));\n\n        volumeBase = 1e18;\n        timeBase = 1e18;\n        sqrtTimeBase = 1e9;\n    }\n\n    function depositTokens(\n        address to,\n        address token,\n        uint value,\n        uint deadline,\n        uint8 v,\n        bytes32 r,\n        bytes32 s\n    )\n        external\n    {\n        ERC20(token).permit(msg.sender, address(this), value, deadline, v, r, s);\n        depositTokens(to, token, value);\n    }\n\n    function depositTokens(address to, address token, uint value) public {\n\n        ERC20 t = ERC20(token);\n        t.transferFrom(msg.sender, address(creditProvider), value);\n        creditProvider.addBalance(to, token, value);\n    }\n\n    function balanceOf(address owner) external view returns (uint) {\n\n        return creditProvider.balanceOf(owner);\n    }\n\n    function transferBalance(\n        address from, \n        address to, \n        uint value,\n        uint maxValue,\n        uint deadline,\n        uint8 v,\n        bytes32 r,\n        bytes32 s\n    )\n        external\n    {\n        require(maxValue >= value, \"insufficient permit value\");\n        permit(from, to, maxValue, deadline, v, r, s);\n        creditProvider.transferBalance(from, to, value);\n        ensureFunds(from);\n    }\n\n    function transferBalance(address to, uint value) public {\n\n        creditProvider.transferBalance(msg.sender, to, value);\n        ensureFunds(msg.sender);\n    }\n    \n    function withdrawTokens(uint value) external {\n        \n        require(value <= calcSurplus(msg.sender), \"insufficient surplus\");\n        creditProvider.withdrawTokens(msg.sender, value);\n    }\n\n    function createSymbol(string memory symbol, address udlFeed) public returns (address tk) {\n\n        require(tokenAddress[symbol] == address(0), \"already created\");\n        tk = factory.create(symbol, udlFeed);\n        tokenAddress[symbol] = tk;\n        prefetchFeedData(udlFeed);\n        emit CreateSymbol(tk, msg.sender);\n    }\n\n    function writeOptions(\n        address udlFeed,\n        uint volume,\n        OptionType optType,\n        uint strike, \n        uint maturity,\n        address to\n    )\n        external \n        returns (address _tk)\n    {\n        (_tk) = writeOptionsInternal(udlFeed, volume, optType, strike, maturity, to);\n        ensureFunds(msg.sender);\n    }\n    \n    function transferOwnership(\n        string calldata symbol,\n        address from,\n        address to,\n        uint value\n    )\n        external\n    {\n        require(tokenAddress[symbol] == msg.sender, \"unauthorized ownership transfer\");\n        \n        OptionToken tk = OptionToken(msg.sender);\n        \n        if (tk.writtenVolume(from) == 0 && tk.balanceOf(from) == 0) {\n            Arrays.removeItem(book[from], msg.sender);\n        }\n\n        if (tk.writtenVolume(to) == 0 && tk.balanceOf(to) == value) {\n            book[to].push(msg.sender);\n        }\n\n        ensureFunds(from);\n    }\n\n    function cleanUp(address _tk, address owner) public {\n\n        OptionToken tk = OptionToken(_tk);\n        if (tk.balanceOf(owner) == 0 && tk.writtenVolume(owner) == 0) {\n            Arrays.removeItem(book[owner], _tk);\n        }\n    }\n\n    function liquidateExpired(address _tk, address[] calldata owners) external {\n\n        OptionData memory opt = options[_tk];\n        OptionToken tk = OptionToken(_tk);\n        require(getUdlNow(opt) >= opt.maturity, \"option not expired\");\n        uint iv = uint(calcIntrinsicValue(opt));\n\n        for (uint i = 0; i < owners.length; i++) {\n            liquidateOptions(owners[i], opt, tk, true, iv);\n        }\n    }\n\n    function liquidateOptions(address _tk, address owner) public returns (uint value) {\n        \n        OptionData memory opt = options[_tk];\n        require(opt.udlFeed != address(0), \"invalid token\");\n\n        OptionToken tk = OptionToken(_tk);\n        require(tk.writtenVolume(owner) > 0, \"invalid owner\");\n\n        bool isExpired = getUdlNow(opt) >= opt.maturity;\n        uint iv = uint(calcIntrinsicValue(opt));\n        \n        value = liquidateOptions(owner, opt, tk, isExpired, iv);\n    }\n\n    function calcDebt(address owner) external view returns (uint debt) {\n\n        debt = creditProvider.calcDebt(owner);\n    }\n    \n    function calcSurplus(address owner) public view returns (uint) {\n        \n        uint coll = calcCollateral(owner);\n        uint bal = creditProvider.balanceOf(owner);\n        if (bal >= coll) {\n            return bal.sub(coll);\n        }\n        return 0;\n    }\n\n    function setCollateral(address owner) external {\n\n        collateral[owner] = calcCollateral(owner);\n    }\n    \n    function calcCollateral(address owner) public view returns (uint) {\n        \n        int coll;\n        address[] memory _book = book[owner];\n\n        for (uint i = 0; i < _book.length; i++) {\n\n            address _tk = _book[i];\n            OptionToken tk = OptionToken(_tk);\n            OptionData memory opt = options[_tk];\n\n            uint written = tk.writtenVolume(owner);\n            uint holding = tk.balanceOf(owner);\n\n            coll = coll.add(\n                calcIntrinsicValue(opt).mul(\n                    int(written).sub(int(holding))\n                )\n            ).add(int(calcCollateral(feeds[opt.udlFeed].upperVol, written, opt)));\n        }\n\n        coll = coll.div(int(volumeBase));\n\n        if (coll < 0)\n            return 0;\n        return uint(coll);\n    }\n\n    function calcCollateral(\n        address udlFeed,\n        uint volume,\n        OptionType optType,\n        uint strike, \n        uint maturity\n    )\n        public\n        view\n        returns (uint)\n    {\n        (OptionData memory opt,) = createOptionInMemory(udlFeed, optType, strike, maturity);\n        return calcCollateral(opt, volume);\n    }\n\n    function calcExpectedPayout(address owner) external view returns (int payout) {\n\n        address[] memory _book = book[owner];\n\n        for (uint i = 0; i < _book.length; i++) {\n\n            OptionToken tk = OptionToken(_book[i]);\n            OptionData memory opt = options[_book[i]];\n\n            uint written = tk.writtenVolume(owner);\n            uint holding = tk.balanceOf(owner);\n\n            payout = payout.add(\n                calcIntrinsicValue(opt).mul(\n                    int(holding).sub(int(written))\n                )\n            );\n        }\n\n        payout = payout.div(int(volumeBase));\n    }\n    \n    function calcIntrinsicValue(address _tk) external view returns (int) {\n        \n        return calcIntrinsicValue(options[_tk]);\n    }\n\n    function calcIntrinsicValue(\n        address udlFeed,\n        OptionType optType,\n        uint strike, \n        uint maturity\n    )\n        external\n        view\n        returns (int)\n    {\n        (OptionData memory opt,) = createOptionInMemory(udlFeed, optType, strike, maturity);\n        return calcIntrinsicValue(opt);\n    }\n\n    function resolveToken(string memory symbol) public view returns (address) {\n        \n        address addr = tokenAddress[symbol];\n        require(addr != address(0), \"token not found\");\n        return addr;\n    }\n\n    function prefetchFeedData(address udlFeed) public {\n        \n        feeds[udlFeed] = getFeedData(udlFeed);\n    }\n\n    function getBook(address owner)\n        external view\n        returns (\n            string memory symbols,\n            address[] memory tokens,\n            uint[] memory holding,\n            uint[] memory written,\n            int[] memory iv\n        )\n    {\n        tokens = book[owner];\n        holding = new uint[](tokens.length);\n        written = new uint[](tokens.length);\n        iv = new int[](tokens.length);\n\n        for (uint i = 0; i < tokens.length; i++) {\n            OptionToken tk = OptionToken(tokens[i]);\n            OptionData memory opt = options[tokens[i]];\n            if (i == 0) {\n                symbols = getOptionSymbol(opt);\n            } else {\n                symbols = string(abi.encodePacked(symbols, \"\\n\", getOptionSymbol(opt)));\n            }\n            holding[i] = tk.balanceOf(owner);\n            written[i] = tk.writtenVolume(owner);\n            iv[i] = calcIntrinsicValue(opt);\n        }\n    }\n\n    function ensureFunds(address owner) private view {\n        \n        require(\n            creditProvider.balanceOf(owner) >= collateral[owner],\n            \"insufficient collateral\"\n        );\n    }\n\n    function permit(\n        address from,\n        address to,\n        uint value,\n        uint deadline,\n        uint8 v,\n        bytes32 r,\n        bytes32 s\n    )\n        private\n    {\n        require(deadline >= block.timestamp, \"permit expired\");\n        bytes32 digest = keccak256(\n            abi.encodePacked(\n                \"\\x19\\x01\",\n                DOMAIN_SEPARATOR,\n                keccak256(\n                    abi.encode(PERMIT_TYPEHASH, from, to, value, nonces[from]++, deadline)\n                )\n            )\n        );\n        address recoveredAddress = ecrecover(digest, v, r, s);\n        require(recoveredAddress != address(0) && recoveredAddress == from, \"invalid signature\");\n    }\n\n    function writeOptionsInternal(\n        address udlFeed,\n        uint volume,\n        OptionType optType,\n        uint strike, \n        uint maturity,\n        address to\n    )\n        private \n        returns (address _tk)\n    {\n        require(settings.getUdlFeed(udlFeed) > 0, \"feed not allowed\");\n        require(volume > 0, \"invalid volume\");\n        require(maturity > time.getNow(), \"invalid maturity\");\n\n        (OptionData memory opt, string memory symbol) =\n            createOptionInMemory(udlFeed, optType, strike, maturity);\n\n        _tk = tokenAddress[symbol];\n        if (_tk == address(0)) {\n            _tk = createSymbol(symbol, udlFeed);\n        }\n\n        OptionToken tk = OptionToken(_tk);\n        if (tk.writtenVolume(msg.sender) == 0 && tk.balanceOf(msg.sender) == 0) {\n            book[msg.sender].push(_tk);\n        }\n        if (msg.sender != to && tk.writtenVolume(to) == 0 && tk.balanceOf(to) == 0) {\n            book[to].push(_tk);\n        }\n        tk.issue(msg.sender, to, volume);\n\n        if (options[_tk].udlFeed == address(0)) {\n            options[_tk] = opt;\n        }\n        \n        collateral[msg.sender] = collateral[msg.sender].add(\n            calcCollateral(opt, volume)\n        );\n\n        emit WriteOptions(_tk, msg.sender, to, volume);\n    }\n\n    function createOptionInMemory(\n        address udlFeed,\n        OptionType optType,\n        uint strike, \n        uint maturity\n    )\n        private\n        view\n        returns (OptionData memory opt, string memory symbol)\n    {\n        opt = OptionData(udlFeed, optType, strike.toUint120(), maturity.toUint32());\n        symbol = getOptionSymbol(opt);\n    }\n\n    function liquidateOptions(\n        address owner,\n        OptionData memory opt,\n        OptionToken tk,\n        bool isExpired,\n        uint iv\n    )\n        private\n        returns (uint value)\n    {\n        uint written = tk.writtenVolume(owner);\n        iv = iv.mul(written);\n\n        if (isExpired) {\n            value = liquidateAfterMaturity(owner, tk, written, iv);\n            emit LiquidateExpired(address(tk), msg.sender, owner, written);\n        } else {\n            require(written > 0, \"invalid volume\");\n            value = liquidateBeforeMaturity(owner, opt, tk, written, iv);\n        }\n    }\n\n    function liquidateAfterMaturity(\n        address owner,\n        OptionToken tk,\n        uint written,\n        uint iv\n    )\n        private\n        returns (uint value)\n    {\n        if (iv > 0) {\n            value = iv.div(volumeBase);\n            creditProvider.processPayment(owner, address(tk), value);\n        }\n\n        if (written > 0) {\n            tk.burn(owner, written);\n        }\n    }\n\n    function liquidateBeforeMaturity(\n        address owner,\n        OptionData memory opt,\n        OptionToken tk,\n        uint written,\n        uint iv\n    )\n        private\n        returns (uint value)\n    {\n        FeedData memory fd = feeds[opt.udlFeed];\n\n        uint volume = calcLiquidationVolume(owner, opt, fd, written);\n        value = calcLiquidationValue(opt, fd.lowerVol, written, volume, iv)\n            .div(volumeBase);\n        creditProvider.processPayment(owner, address(tk), value);\n\n        if (volume > 0) {\n            tk.burn(owner, volume);\n        }\n\n        emit LiquidateEarly(address(tk), msg.sender, owner, volume);\n    }\n\n    function calcLiquidationVolume(\n        address owner,\n        OptionData memory opt,\n        FeedData memory fd,\n        uint written\n    )\n        private\n        view\n        returns (uint volume)\n    {    \n        uint bal = creditProvider.balanceOf(owner);\n        uint coll = calcCollateral(owner);\n        require(coll > bal, \"unfit for liquidation\");\n\n        volume = coll.sub(bal).mul(volumeBase).mul(written).div(\n            calcCollateral(\n                uint(fd.upperVol).sub(uint(fd.lowerVol)),\n                written,\n                opt\n            )\n        );\n\n        volume = MoreMath.min(volume, written);\n    }\n\n    function calcLiquidationValue(\n        OptionData memory opt,\n        uint vol,\n        uint written,\n        uint volume,\n        uint iv\n    )\n        private\n        view\n        returns (uint value)\n    {    \n        value = calcCollateral(vol, written, opt).add(iv).mul(volume).div(written);\n    }\n\n    function getFeedData(address udlFeed) private view returns (FeedData memory fd) {\n        \n        UnderlyingFeed feed = UnderlyingFeed(udlFeed);\n\n        uint vol = feed.getDailyVolatility(settings.getVolatilityPeriod());\n\n        fd = FeedData(\n            feed.calcLowerVolatility(uint(vol)).toUint120(),\n            feed.calcUpperVolatility(uint(vol)).toUint120()\n        );\n    }\n\n    function getOptionSymbol(OptionData memory opt) private view returns (string memory symbol) {    \n\n        symbol = string(abi.encodePacked(\n            UnderlyingFeed(opt.udlFeed).symbol(),\n            \"-\",\n            \"E\",\n            opt._type == OptionType.CALL ? \"C\" : \"P\",\n            \"-\",\n            MoreMath.toString(opt.strike),\n            \"-\",\n            MoreMath.toString(opt.maturity)\n        ));\n    }\n\n    function calcCollateral(\n        OptionData memory opt,\n        uint volume\n    )\n        private\n        view\n        returns (uint)\n    {\n        FeedData memory fd = feeds[opt.udlFeed];\n        if (fd.lowerVol == 0 || fd.upperVol == 0) {\n            fd = getFeedData(opt.udlFeed);\n        }\n\n        int coll = calcIntrinsicValue(opt).mul(int(volume)).add(\n            int(calcCollateral(fd.upperVol, volume, opt))\n        ).div(int(volumeBase));\n\n        return coll > 0 ? uint(coll) : 0;\n    }\n    \n    function calcCollateral(uint vol, uint volume, OptionData memory opt) private view returns (uint) {\n        \n        return (vol.mul(volume).mul(\n            MoreMath.sqrt(daysToMaturity(opt)))\n        ).div(sqrtTimeBase);\n    }\n    \n    function calcIntrinsicValue(OptionData memory opt) private view returns (int value) {\n        \n        int udlPrice = getUdlPrice(opt);\n        int strike = int(opt.strike);\n\n        if (opt._type == OptionType.CALL) {\n            value = MoreMath.max(0, udlPrice.sub(strike));\n        } else if (opt._type == OptionType.PUT) {\n            value = MoreMath.max(0, strike.sub(udlPrice));\n        }\n    }\n    \n    function daysToMaturity(OptionData memory opt) private view returns (uint d) {\n        \n        uint _now = getUdlNow(opt);\n        if (opt.maturity > _now) {\n            d = (timeBase.mul(uint(opt.maturity).sub(uint(_now)))).div(1 days);\n        } else {\n            d = 0;\n        }\n    }\n\n    function getUdlPrice(OptionData memory opt) private view returns (int answer) {\n\n        if (opt.maturity > time.getNow()) {\n            (,answer) = UnderlyingFeed(opt.udlFeed).getLatestPrice();\n        } else {\n            (,answer) = UnderlyingFeed(opt.udlFeed).getPrice(opt.maturity);\n        }\n    }\n\n    function getUdlNow(OptionData memory opt) private view returns (uint timestamp) {\n\n        (timestamp,) = UnderlyingFeed(opt.udlFeed).getLatestPrice();\n    }\n}",
  "sourcePath": "/Users/dev/Documents/coding/defioptions/DeFiOptions-contracts/contracts/finance/OptionsExchange.sol",
  "compiler": {
    "name": "solc",
    "version": "0.6.0+commit.26b70077.Emscripten.clang"
  },
  "schemaVersion": "3.3.3",
  "updatedAt": "2021-04-14T13:15:34.628Z",
  "devdoc": {
    "methods": {}
  },
  "userdoc": {
    "methods": {}
  }
}