{
  "contractName": "OptionsExchange",
  "abi": [
    {
      "inputs": [],
      "stateMutability": "nonpayable",
      "type": "constructor"
    },
    {
      "anonymous": false,
      "inputs": [
        {
          "indexed": true,
          "internalType": "address",
          "name": "token",
          "type": "address"
        },
        {
          "indexed": true,
          "internalType": "address",
          "name": "sender",
          "type": "address"
        }
      ],
      "name": "CreateSymbol",
      "type": "event"
    },
    {
      "anonymous": false,
      "inputs": [
        {
          "indexed": true,
          "internalType": "address",
          "name": "token",
          "type": "address"
        },
        {
          "indexed": true,
          "internalType": "address",
          "name": "sender",
          "type": "address"
        },
        {
          "indexed": true,
          "internalType": "address",
          "name": "onwer",
          "type": "address"
        },
        {
          "indexed": false,
          "internalType": "uint256",
          "name": "volume",
          "type": "uint256"
        }
      ],
      "name": "LiquidateEarly",
      "type": "event"
    },
    {
      "anonymous": false,
      "inputs": [
        {
          "indexed": true,
          "internalType": "address",
          "name": "token",
          "type": "address"
        },
        {
          "indexed": true,
          "internalType": "address",
          "name": "sender",
          "type": "address"
        },
        {
          "indexed": true,
          "internalType": "address",
          "name": "onwer",
          "type": "address"
        },
        {
          "indexed": false,
          "internalType": "uint256",
          "name": "volume",
          "type": "uint256"
        }
      ],
      "name": "LiquidateExpired",
      "type": "event"
    },
    {
      "anonymous": false,
      "inputs": [
        {
          "indexed": true,
          "internalType": "address",
          "name": "token",
          "type": "address"
        },
        {
          "indexed": true,
          "internalType": "address",
          "name": "issuer",
          "type": "address"
        },
        {
          "indexed": true,
          "internalType": "address",
          "name": "onwer",
          "type": "address"
        },
        {
          "indexed": false,
          "internalType": "uint256",
          "name": "volume",
          "type": "uint256"
        }
      ],
      "name": "WriteOptions",
      "type": "event"
    },
    {
      "inputs": [],
      "name": "DOMAIN_SEPARATOR",
      "outputs": [
        {
          "internalType": "bytes32",
          "name": "",
          "type": "bytes32"
        }
      ],
      "stateMutability": "view",
      "type": "function"
    },
    {
      "inputs": [],
      "name": "PERMIT_TYPEHASH",
      "outputs": [
        {
          "internalType": "bytes32",
          "name": "",
          "type": "bytes32"
        }
      ],
      "stateMutability": "view",
      "type": "function"
    },
    {
      "inputs": [
        {
          "internalType": "address",
          "name": "",
          "type": "address"
        }
      ],
      "name": "collateral",
      "outputs": [
        {
          "internalType": "uint256",
          "name": "",
          "type": "uint256"
        }
      ],
      "stateMutability": "view",
      "type": "function"
    },
    {
      "inputs": [
        {
          "internalType": "contract Deployer",
          "name": "deployer",
          "type": "address"
        }
      ],
      "name": "initializeAndLock",
      "outputs": [],
      "stateMutability": "nonpayable",
      "type": "function"
    },
    {
      "inputs": [
        {
          "internalType": "address",
          "name": "",
          "type": "address"
        }
      ],
      "name": "nonces",
      "outputs": [
        {
          "internalType": "uint256",
          "name": "",
          "type": "uint256"
        }
      ],
      "stateMutability": "view",
      "type": "function"
    },
    {
      "inputs": [],
      "name": "volumeBase",
      "outputs": [
        {
          "internalType": "uint256",
          "name": "",
          "type": "uint256"
        }
      ],
      "stateMutability": "view",
      "type": "function"
    },
    {
      "inputs": [],
      "name": "name",
      "outputs": [
        {
          "internalType": "string",
          "name": "",
          "type": "string"
        }
      ],
      "stateMutability": "pure",
      "type": "function"
    },
    {
      "inputs": [
        {
          "internalType": "address",
          "name": "to",
          "type": "address"
        },
        {
          "internalType": "address",
          "name": "token",
          "type": "address"
        },
        {
          "internalType": "uint256",
          "name": "value",
          "type": "uint256"
        }
      ],
      "name": "depositTokens",
      "outputs": [],
      "stateMutability": "nonpayable",
      "type": "function"
    },
    {
      "inputs": [
        {
          "internalType": "address",
          "name": "to",
          "type": "address"
        },
        {
          "internalType": "address",
          "name": "token",
          "type": "address"
        },
        {
          "internalType": "uint256",
          "name": "value",
          "type": "uint256"
        },
        {
          "internalType": "uint256",
          "name": "deadline",
          "type": "uint256"
        },
        {
          "internalType": "uint8",
          "name": "v",
          "type": "uint8"
        },
        {
          "internalType": "bytes32",
          "name": "r",
          "type": "bytes32"
        },
        {
          "internalType": "bytes32",
          "name": "s",
          "type": "bytes32"
        }
      ],
      "name": "depositTokens",
      "outputs": [],
      "stateMutability": "nonpayable",
      "type": "function"
    },
    {
      "inputs": [
        {
          "internalType": "address",
          "name": "owner",
          "type": "address"
        }
      ],
      "name": "balanceOf",
      "outputs": [
        {
          "internalType": "uint256",
          "name": "",
          "type": "uint256"
        }
      ],
      "stateMutability": "view",
      "type": "function"
    },
    {
      "inputs": [
        {
          "internalType": "address",
          "name": "from",
          "type": "address"
        },
        {
          "internalType": "address",
          "name": "to",
          "type": "address"
        },
        {
          "internalType": "uint256",
          "name": "value",
          "type": "uint256"
        },
        {
          "internalType": "uint256",
          "name": "maxValue",
          "type": "uint256"
        },
        {
          "internalType": "uint256",
          "name": "deadline",
          "type": "uint256"
        },
        {
          "internalType": "uint8",
          "name": "v",
          "type": "uint8"
        },
        {
          "internalType": "bytes32",
          "name": "r",
          "type": "bytes32"
        },
        {
          "internalType": "bytes32",
          "name": "s",
          "type": "bytes32"
        }
      ],
      "name": "transferBalance",
      "outputs": [],
      "stateMutability": "nonpayable",
      "type": "function"
    },
    {
      "inputs": [
        {
          "internalType": "address",
          "name": "to",
          "type": "address"
        },
        {
          "internalType": "uint256",
          "name": "value",
          "type": "uint256"
        }
      ],
      "name": "transferBalance",
      "outputs": [],
      "stateMutability": "nonpayable",
      "type": "function"
    },
    {
      "inputs": [
        {
          "internalType": "address",
          "name": "from",
          "type": "address"
        },
        {
          "internalType": "address",
          "name": "to",
          "type": "address"
        },
        {
          "internalType": "uint256",
          "name": "value",
          "type": "uint256"
        }
      ],
      "name": "transferBalance",
      "outputs": [],
      "stateMutability": "nonpayable",
      "type": "function"
    },
    {
      "inputs": [
        {
          "internalType": "uint256",
          "name": "value",
          "type": "uint256"
        }
      ],
      "name": "withdrawTokens",
      "outputs": [],
      "stateMutability": "nonpayable",
      "type": "function"
    },
    {
      "inputs": [
        {
          "internalType": "string",
          "name": "symbol",
          "type": "string"
        },
        {
          "internalType": "address",
          "name": "udlFeed",
          "type": "address"
        }
      ],
      "name": "createSymbol",
      "outputs": [
        {
          "internalType": "address",
          "name": "tk",
          "type": "address"
        }
      ],
      "stateMutability": "nonpayable",
      "type": "function"
    },
    {
      "inputs": [
        {
          "internalType": "address",
          "name": "udlFeed",
          "type": "address"
        },
        {
          "internalType": "uint256",
          "name": "volume",
          "type": "uint256"
        },
        {
          "internalType": "enum OptionsExchange.OptionType",
          "name": "optType",
          "type": "uint8"
        },
        {
          "internalType": "uint256",
          "name": "strike",
          "type": "uint256"
        },
        {
          "internalType": "uint256",
          "name": "maturity",
          "type": "uint256"
        },
        {
          "internalType": "address",
          "name": "to",
          "type": "address"
        }
      ],
      "name": "writeOptions",
      "outputs": [
        {
          "internalType": "address",
          "name": "_tk",
          "type": "address"
        }
      ],
      "stateMutability": "nonpayable",
      "type": "function"
    },
    {
      "inputs": [
        {
          "internalType": "string",
          "name": "symbol",
          "type": "string"
        },
        {
          "internalType": "address",
          "name": "from",
          "type": "address"
        },
        {
          "internalType": "address",
          "name": "to",
          "type": "address"
        },
        {
          "internalType": "uint256",
          "name": "value",
          "type": "uint256"
        }
      ],
      "name": "transferOwnership",
      "outputs": [],
      "stateMutability": "nonpayable",
      "type": "function"
    },
    {
      "inputs": [
        {
          "internalType": "address",
          "name": "_tk",
          "type": "address"
        },
        {
          "internalType": "address",
          "name": "owner",
          "type": "address"
        },
        {
          "internalType": "uint256",
          "name": "volume",
          "type": "uint256"
        }
      ],
      "name": "cleanUp",
      "outputs": [],
      "stateMutability": "nonpayable",
      "type": "function"
    },
    {
      "inputs": [
        {
          "internalType": "address",
          "name": "_tk",
          "type": "address"
        },
        {
          "internalType": "address[]",
          "name": "owners",
          "type": "address[]"
        }
      ],
      "name": "liquidateExpired",
      "outputs": [],
      "stateMutability": "nonpayable",
      "type": "function"
    },
    {
      "inputs": [
        {
          "internalType": "address",
          "name": "owner",
          "type": "address"
        }
      ],
      "name": "calcDebt",
      "outputs": [
        {
          "internalType": "uint256",
          "name": "debt",
          "type": "uint256"
        }
      ],
      "stateMutability": "view",
      "type": "function"
    },
    {
      "inputs": [
        {
          "internalType": "address",
          "name": "owner",
          "type": "address"
        }
      ],
      "name": "calcSurplus",
      "outputs": [
        {
          "internalType": "uint256",
          "name": "",
          "type": "uint256"
        }
      ],
      "stateMutability": "view",
      "type": "function"
    },
    {
      "inputs": [
        {
          "internalType": "address",
          "name": "owner",
          "type": "address"
        }
      ],
      "name": "setCollateral",
      "outputs": [],
      "stateMutability": "nonpayable",
      "type": "function"
    },
    {
      "inputs": [
        {
          "internalType": "address",
          "name": "owner",
          "type": "address"
        }
      ],
      "name": "calcExpectedPayout",
      "outputs": [
        {
          "internalType": "int256",
          "name": "payout",
          "type": "int256"
        }
      ],
      "stateMutability": "view",
      "type": "function"
    },
    {
      "inputs": [
        {
          "internalType": "string",
          "name": "symbol",
          "type": "string"
        }
      ],
      "name": "getUnderlyingPrice",
      "outputs": [
        {
          "internalType": "int256",
          "name": "",
          "type": "int256"
        }
      ],
      "stateMutability": "view",
      "type": "function"
    },
    {
      "inputs": [
        {
          "internalType": "string",
          "name": "symbol",
          "type": "string"
        }
      ],
      "name": "resolveToken",
      "outputs": [
        {
          "internalType": "address",
          "name": "",
          "type": "address"
        }
      ],
      "stateMutability": "view",
      "type": "function"
    },
    {
      "inputs": [
        {
          "internalType": "address",
          "name": "udlFeed",
          "type": "address"
        }
      ],
      "name": "prefetchFeedData",
      "outputs": [],
      "stateMutability": "nonpayable",
      "type": "function"
    },
    {
      "inputs": [
        {
          "internalType": "address",
          "name": "owner",
          "type": "address"
        }
      ],
      "name": "getBook",
      "outputs": [
        {
          "internalType": "string",
          "name": "symbols",
          "type": "string"
        },
        {
          "internalType": "address[]",
          "name": "tokens",
          "type": "address[]"
        },
        {
          "internalType": "uint256[]",
          "name": "holding",
          "type": "uint256[]"
        },
        {
          "internalType": "uint256[]",
          "name": "written",
          "type": "uint256[]"
        },
        {
          "internalType": "int256[]",
          "name": "iv",
          "type": "int256[]"
        }
      ],
      "stateMutability": "view",
      "type": "function"
    },
    {
      "inputs": [
        {
          "internalType": "address",
          "name": "_tk",
          "type": "address"
        },
        {
          "internalType": "address",
          "name": "owner",
          "type": "address"
        }
      ],
      "name": "liquidateOptions",
      "outputs": [
        {
          "internalType": "uint256",
          "name": "value",
          "type": "uint256"
        }
      ],
      "stateMutability": "nonpayable",
      "type": "function"
    },
    {
      "inputs": [
        {
          "internalType": "address",
          "name": "udlFeed",
          "type": "address"
        },
        {
          "internalType": "enum OptionsExchange.OptionType",
          "name": "optType",
          "type": "uint8"
        },
        {
          "internalType": "uint256",
          "name": "strike",
          "type": "uint256"
        },
        {
          "internalType": "uint256",
          "name": "maturity",
          "type": "uint256"
        }
      ],
      "name": "getOptionSymbol",
      "outputs": [
        {
          "internalType": "string",
          "name": "symbol",
          "type": "string"
        }
      ],
      "stateMutability": "view",
      "type": "function"
    },
    {
      "inputs": [
        {
          "internalType": "address",
          "name": "owner",
          "type": "address"
        }
      ],
      "name": "calcCollateral",
      "outputs": [
        {
          "internalType": "uint256",
          "name": "",
          "type": "uint256"
        }
      ],
      "stateMutability": "view",
      "type": "function"
    },
    {
      "inputs": [
        {
          "internalType": "address",
          "name": "udlFeed",
          "type": "address"
        },
        {
          "internalType": "uint256",
          "name": "volume",
          "type": "uint256"
        },
        {
          "internalType": "enum OptionsExchange.OptionType",
          "name": "optType",
          "type": "uint8"
        },
        {
          "internalType": "uint256",
          "name": "strike",
          "type": "uint256"
        },
        {
          "internalType": "uint256",
          "name": "maturity",
          "type": "uint256"
        }
      ],
      "name": "calcCollateral",
      "outputs": [
        {
          "internalType": "uint256",
          "name": "",
          "type": "uint256"
        }
      ],
      "stateMutability": "view",
      "type": "function"
    },
    {
      "inputs": [
        {
          "internalType": "address",
          "name": "_tk",
          "type": "address"
        }
      ],
      "name": "calcIntrinsicValue",
      "outputs": [
        {
          "internalType": "int256",
          "name": "",
          "type": "int256"
        }
      ],
      "stateMutability": "view",
      "type": "function"
    },
    {
      "inputs": [
        {
          "internalType": "address",
          "name": "udlFeed",
          "type": "address"
        },
        {
          "internalType": "enum OptionsExchange.OptionType",
          "name": "optType",
          "type": "uint8"
        },
        {
          "internalType": "uint256",
          "name": "strike",
          "type": "uint256"
        },
        {
          "internalType": "uint256",
          "name": "maturity",
          "type": "uint256"
        }
      ],
      "name": "calcIntrinsicValue",
      "outputs": [
        {
          "internalType": "int256",
          "name": "",
          "type": "int256"
        }
      ],
      "stateMutability": "view",
      "type": "function"
    }
  ],
  "bytecode": "0x608060405234801561001057600080fd5b506040514690806052620052428239604080519182900360520182208282018252600f83526e4f7074696f6e7345786368616e676560881b6020938401528151808301835260018152603160f81b908401528151808401919091527f8f71f7ccb7bcab18e60d0fe32a86908e3f0bc20cea8a88a142fd673a9bb882fa818301527fc89efdaa54c0f20c7adf612882df0950f5a951637e0307cdcb4c672f298b8bc6606082015260808101949094523060a0808601919091528151808603909101815260c0909401905282519201919091206010555061514d80620000f56000396000f3fe608060405234801561001057600080fd5b50600436106101fb5760003560e01c806370a082311161011a5780638e3cb188116100ad578063b434e9d61161007c578063b434e9d61461090e578063b4d39b981461094f578063d9537cdf14610998578063edb5fd4f146109be578063ef38eaf1146109f9576101fb565b80638e3cb18814610884578063a53b0041146108aa578063a5fdc5de146108b2578063a606b94a146108d8576101fb565b8063827cbb06116100e9578063827cbb06146106b057806383a7e7e11461077d578063886abef5146107b85780638c922b63146107de576101fb565b806370a08231146105ae57806373738fca146105d457806378a03895146106545780637ecebe001461068a576101fb565b8063439fa0881161019257806365a450611161016157806365a45061146104c45780636871d873146104ea57806368d4f79d146105185780636d7f28951461053e576101fb565b8063439fa088146103fb57806356a6d9ef1461044c5780635c1bfb32146104785780635efb90fc1461049e576101fb565b806330adf81f116101ce57806330adf81f14610398578063315a095d146103a05780633644e515146103bd57806339dc5ef2146103c5576101fb565b806302c230741461020057806306fdde03146102385780630a93320e146102b557806316be637a1461030f575b600080fd5b6102266004803603602081101561021657600080fd5b50356001600160a01b0316610ba7565b60408051918252519081900360200190f35b610240610e3d565b6040805160208082528351818301528351919283929083019185019080838360005b8381101561027a578181015183820152602001610262565b50505050905090810190601f1680156102a75780820380516001836020036101000a031916815260200191505b509250505060405180910390f35b61030d60048036036101008110156102cc57600080fd5b506001600160a01b03813581169160208101359091169060408101359060608101359060808101359060ff60a0820135169060c08101359060e00135610e74565b005b61030d6004803603608081101561032557600080fd5b81019060208101813564010000000081111561034057600080fd5b82018360208201111561035257600080fd5b8035906020019184600183028401116401000000008311171561037457600080fd5b91935091506001600160a01b03813581169160208101359091169060400135610f60565b610226611279565b61030d600480360360208110156103b657600080fd5b503561129d565b610226611368565b61030d600480360360608110156103db57600080fd5b506001600160a01b0381358116916020810135909116906040013561136e565b61030d600480360360e081101561041157600080fd5b506001600160a01b03813581169160208101359091169060408101359060608101359060ff6080820135169060a08101359060c00135611467565b61030d6004803603604081101561046257600080fd5b506001600160a01b038135169060200135611505565b61030d6004803603602081101561048e57600080fd5b50356001600160a01b0316611585565b610226600480360360208110156104b457600080fd5b50356001600160a01b0316611603565b610226600480360360208110156104da57600080fd5b50356001600160a01b0316611686565b6102266004803603604081101561050057600080fd5b506001600160a01b038135811691602001351661195e565b6102266004803603602081101561052e57600080fd5b50356001600160a01b0316611b3f565b6102266004803603602081101561055457600080fd5b81019060208101813564010000000081111561056f57600080fd5b82018360208201111561058157600080fd5b803590602001918460018302840111640100000000831117156105a357600080fd5b509092509050611bcc565b610226600480360360208110156105c457600080fd5b50356001600160a01b0316611cd3565b61030d600480360360408110156105ea57600080fd5b6001600160a01b03823516919081019060408101602082013564010000000081111561061557600080fd5b82018360208201111561062757600080fd5b8035906020019184602083028401116401000000008311171561064957600080fd5b509092509050611d24565b61030d6004803603606081101561066a57600080fd5b506001600160a01b03813581169160208101359091169060400135611e60565b610226600480360360208110156106a057600080fd5b50356001600160a01b0316612061565b610761600480360360408110156106c657600080fd5b8101906020810181356401000000008111156106e157600080fd5b8201836020820111156106f357600080fd5b8035906020019184600183028401116401000000008311171561071557600080fd5b91908080601f016020809104026020016040519081016040528093929190818152602001838380828437600092019190915250929550505090356001600160a01b031691506120739050565b604080516001600160a01b039092168252519081900360200190f35b6102266004803603608081101561079357600080fd5b506001600160a01b038135169060ff60208201351690604081013590606001356122ea565b61030d600480360360208110156107ce57600080fd5b50356001600160a01b0316612316565b610761600480360360208110156107f457600080fd5b81019060208101813564010000000081111561080f57600080fd5b82018360208201111561082157600080fd5b8035906020019184600183028401116401000000008311171561084357600080fd5b91908080601f01602080910402602001604051908101604052809392919081815260200183838082843760009201919091525092955061233b945050505050565b61030d6004803603602081101561089a57600080fd5b50356001600160a01b03166123ef565b610226612472565b610226600480360360208110156108c857600080fd5b50356001600160a01b0316612478565b61030d600480360360608110156108ee57600080fd5b506001600160a01b0381358116916020810135909116906040013561248a565b610226600480360360a081101561092457600080fd5b506001600160a01b038135169060208101359060ff6040820135169060608101359060800135612570565b610761600480360360c081101561096557600080fd5b506001600160a01b03813581169160208101359160ff6040830135169160608101359160808201359160a0013516612593565b610226600480360360208110156109ae57600080fd5b50356001600160a01b03166125ae565b610240600480360360808110156109d457600080fd5b506001600160a01b038135169060ff6020820135169060408101359060600135612665565b610a1f60048036036020811015610a0f57600080fd5b50356001600160a01b0316612977565b60405180806020018060200180602001806020018060200186810386528b818151815260200191508051906020019080838360005b83811015610a6c578181015183820152602001610a54565b50505050905090810190601f168015610a995780820380516001836020036101000a031916815260200191505b5086810385528a5181528a51602091820191808d01910280838360005b83811015610ace578181015183820152602001610ab6565b50505050905001868103845289818151815260200191508051906020019060200280838360005b83811015610b0d578181015183820152602001610af5565b50505050905001868103835288818151815260200191508051906020019060200280838360005b83811015610b4c578181015183820152602001610b34565b50505050905001868103825287818151815260200191508051906020019060200280838360005b83811015610b8b578181015183820152602001610b73565b505050509050019a505050505050505050505060405180910390f35b6001600160a01b0381166000908152600a602090815260408083208054825181850281018501909352808352606093830182828015610c0f57602002820191906000526020600020905b81546001600160a01b03168152600190910190602001808311610bf1575b50939450600093505050505b8151811015610e21576000828281518110610c3257fe5b60200260200101519050610c44614fdc565b60086000858581518110610c5457fe5b6020908102919091018101516001600160a01b03908116835282820193909352604091820160002082516080810190935280549384168352919290830190600160a01b900460ff166001811115610ca757fe5b6001811115610cb257fe5b8152600191909101546001600160781b038116602080840191909152600160781b90910463ffffffff16604092830152815163d0acc58f60e01b81526001600160a01b038a8116600483015292519394506000939286169263d0acc58f92602480840193919291829003018186803b158015610d2d57600080fd5b505afa158015610d41573d6000803e3d6000fd5b505050506040513d6020811015610d5757600080fd5b5051604080516370a0823160e01b81526001600160a01b038a811660048301529151929350600092918616916370a0823191602480820192602092909190829003018186803b158015610da957600080fd5b505afa158015610dbd573d6000803e3d6000fd5b505050506040513d6020811015610dd357600080fd5b50519050610e0f610e02610ded838563ffffffff612d9e16565b610df686612e03565b9063ffffffff612e9016565b889063ffffffff612f3916565b96505060019093019250610c1b915050565b50600d54610e3690839063ffffffff612f9e16565b9392505050565b60408051808201909152600f81527f4f7074696f6e7345786368616e67650000000000000000000000000000000000602082015290565b85851015610ec9576040805162461bcd60e51b815260206004820152601960248201527f696e73756666696369656e74207065726d69742076616c756500000000000000604482015290519081900360640190fd5b610ed888888787878787613056565b600554604080516353035ca560e11b81526001600160a01b038b811660048301528a81166024830152604482018a90529151919092169163a606b94a91606480830192600092919082900301818387803b158015610f3557600080fd5b505af1158015610f49573d6000803e3d6000fd5b50505050610f5688613258565b5050505050505050565b336001600160a01b0316600b86866040518083838082843791909101948552505060405192839003602001909220546001600160a01b0316929092149150610ff19050576040805162461bcd60e51b815260206004820152601f60248201527f756e617574686f72697a6564206f776e657273686970207472616e7366657200604482015290519081900360640190fd5b6040805163d0acc58f60e01b81526001600160a01b038516600482015290513391829163d0acc58f91602480820192602092909190829003018186803b15801561103a57600080fd5b505afa15801561104e573d6000803e3d6000fd5b505050506040513d602081101561106457600080fd5b50511580156110f25750806001600160a01b03166370a08231856040518263ffffffff1660e01b815260040180826001600160a01b03166001600160a01b0316815260200191505060206040518083038186803b1580156110c457600080fd5b505afa1580156110d8573d6000803e3d6000fd5b505050506040513d60208110156110ee57600080fd5b5051155b1561111b576001600160a01b0384166000908152600a602052604090206111199033613336565b505b806001600160a01b031663d0acc58f846040518263ffffffff1660e01b815260040180826001600160a01b03166001600160a01b0316815260200191505060206040518083038186803b15801561117157600080fd5b505afa158015611185573d6000803e3d6000fd5b505050506040513d602081101561119b57600080fd5b505115801561122a575081816001600160a01b03166370a08231856040518263ffffffff1660e01b815260040180826001600160a01b03166001600160a01b0316815260200191505060206040518083038186803b1580156111fc57600080fd5b505afa158015611210573d6000803e3d6000fd5b505050506040513d602081101561122657600080fd5b5051145b15611268576001600160a01b0383166000908152600a602090815260408220805460018101825590835291200180546001600160a01b031916331790555b61127184613258565b505050505050565b7f6e71edae12b1b97f4d1f60370fef10105fa2faae0126114a169c64845d6126c981565b6112a6336125ae565b8111156112fa576040805162461bcd60e51b815260206004820152601460248201527f696e73756666696369656e7420737572706c7573000000000000000000000000604482015290519081900360640190fd5b600554604080516306b091f960e01b81523360048201526024810184905290516001600160a01b03909216916306b091f99160448082019260009290919082900301818387803b15801561134d57600080fd5b505af1158015611361573d6000803e3d6000fd5b5050505050565b60105481565b600554604080516323b872dd60e01b81523360048201526001600160a01b03928316602482015260448101849052905184928316916323b872dd9160648083019260209291908290030181600087803b1580156113ca57600080fd5b505af11580156113de573d6000803e3d6000fd5b505050506040513d60208110156113f457600080fd5b5050600554604080516334ef2a2160e21b81526001600160a01b0387811660048301528681166024830152604482018690529151919092169163d3bca88491606480830192600092919082900301818387803b15801561145357600080fd5b505af1158015610f56573d6000803e3d6000fd5b6040805163d505accf60e01b8152336004820152306024820152604481018790526064810186905260ff8516608482015260a4810184905260c4810183905290516001600160a01b0388169163d505accf9160e480830192600092919082900301818387803b1580156114d957600080fd5b505af11580156114ed573d6000803e3d6000fd5b505050506114fc87878761136e565b50505050505050565b600554604080516353035ca560e11b81523360048201526001600160a01b038581166024830152604482018590529151919092169163a606b94a91606480830192600092919082900301818387803b15801561156057600080fd5b505af1158015611574573d6000803e3d6000fd5b5050505061158133613258565b5050565b600254600160a01b900460ff16156115e4576040805162461bcd60e51b815260206004820152601560248201527f696e697469616c697a6174696f6e206c6f636b65640000000000000000000000604482015290519081900360640190fd5b6002805460ff60a01b1916600160a01b1790556116008161341c565b50565b600554604080516317bee43f60e21b81526001600160a01b03848116600483015291516000939290921691635efb90fc91602480820192602092909190829003018186803b15801561165457600080fd5b505afa158015611668573d6000803e3d6000fd5b505050506040513d602081101561167e57600080fd5b505192915050565b6001600160a01b0381166000908152600a60209081526040808320805482518185028101850190935280835284936060939291908301828280156116f357602002820191906000526020600020905b81546001600160a01b031681526001909101906020018083116116d5575b50939450600093505050505b815181101561192a57600082828151811061171657fe5b60200260200101519050600081905061172d614fdc565b6001600160a01b0383811660009081526008602090815260409182902082516080810190935280549384168352919290830190600160a01b900460ff16600181111561177557fe5b600181111561178057fe5b8152600191909101546001600160781b038116602080840191909152600160781b90910463ffffffff16604092830152815163d0acc58f60e01b81526001600160a01b038c8116600483015292519394506000939286169263d0acc58f92602480840193919291829003018186803b1580156117fb57600080fd5b505afa15801561180f573d6000803e3d6000fd5b505050506040513d602081101561182557600080fd5b5051604080516370a0823160e01b81526001600160a01b038c811660048301529151929350600092918616916370a0823191602480820192602092909190829003018186803b15801561187757600080fd5b505afa15801561188b573d6000803e3d6000fd5b505050506040513d60208110156118a157600080fd5b505183516001600160a01b0316600090815260096020526040902054909150611917906118df90600160781b90046001600160781b03168486613771565b61190b6118fe6118f5868663ffffffff612d9e16565b610df688612e03565b8b9063ffffffff612f3916565b9063ffffffff612f3916565b975050600190940193506116ff92505050565b50600d5461193f90839063ffffffff612f9e16565b9150600082121561195557600092505050611959565b5090505b919050565b6000611968614fdc565b6001600160a01b0384811660009081526008602090815260409182902082516080810190935280549384168352919290830190600160a01b900460ff1660018111156119b057fe5b60018111156119bb57fe5b8152600191909101546001600160781b0381166020830152600160781b900463ffffffff1660409091015280519091506001600160a01b0316611a35576040805162461bcd60e51b815260206004820152600d60248201526c34b73b30b634b2103a37b5b2b760991b604482015290519081900360640190fd5b60008490506000816001600160a01b031663d0acc58f866040518263ffffffff1660e01b815260040180826001600160a01b03166001600160a01b0316815260200191505060206040518083038186803b158015611a9257600080fd5b505afa158015611aa6573d6000803e3d6000fd5b505050506040513d6020811015611abc57600080fd5b505111611b00576040805162461bcd60e51b815260206004820152600d60248201526c34b73b30b634b21037bbb732b960991b604482015290519081900360640190fd5b6000826060015163ffffffff16611b16846137b5565b101590506000611b2584612e03565b9050611b34868585858561381d565b979650505050505050565b6001600160a01b038181166000908152600860209081526040808320815160808101909252805494851682529293611bc6939192830190600160a01b900460ff166001811115611b8b57fe5b6001811115611b9657fe5b8152600191909101546001600160781b0381166020830152600160781b900463ffffffff16604090910152612e03565b92915050565b600080600b84846040518083838082843791909101948552505060405192839003602001909220546001600160a01b03169250505080611c45576040805162461bcd60e51b815260206004820152600f60248201526e1d1bdad95b881b9bdd08199bdd5b99608a1b604482015290519081900360640190fd5b6001600160a01b0381811660009081526008602090815260409182902082516080810190935280549384168352611ccb939091830190600160a01b900460ff166001811115611c9057fe5b6001811115611c9b57fe5b8152600191909101546001600160781b0381166020830152600160781b900463ffffffff16604090910152613981565b949350505050565b600554604080516370a0823160e01b81526001600160a01b038481166004830152915160009392909216916370a0823191602480820192602092909190829003018186803b15801561165457600080fd5b611d2c614fdc565b6001600160a01b0384811660009081526008602090815260409182902082516080810190935280549384168352919290830190600160a01b900460ff166001811115611d7457fe5b6001811115611d7f57fe5b8152600191909101546001600160781b038116602083015263ffffffff600160781b90910481166040909201919091526060820151919250859116611dc3836137b5565b1015611e16576040805162461bcd60e51b815260206004820152601260248201527f6f7074696f6e206e6f7420657870697265640000000000000000000000000000604482015290519081900360640190fd5b6000611e2183612e03565b905060005b848110156114fc57611e57868683818110611e3d57fe5b905060200201356001600160a01b0316858560018661381d565b50600101611e26565b604080516370a0823160e01b81526001600160a01b038481166004830152915185928316916370a08231916024808301926020929190829003018186803b158015611eaa57600080fd5b505afa158015611ebe573d6000803e3d6000fd5b505050506040513d6020811015611ed457600080fd5b5051158015611f625750806001600160a01b031663d0acc58f846040518263ffffffff1660e01b815260040180826001600160a01b03166001600160a01b0316815260200191505060206040518083038186803b158015611f3457600080fd5b505afa158015611f48573d6000803e3d6000fd5b505050506040513d6020811015611f5e57600080fd5b5051155b15611f8b576001600160a01b0383166000908152600a60205260409020611f899085613336565b505b6001600160a01b038381166000908152600760209081526040808320548885168452600883529281902081516080810190925280549485168252929361203e9361203193869361202c93909291830190600160a01b900460ff166001811115611ff057fe5b6001811115611ffb57fe5b8152600191909101546001600160781b0381166020830152600160781b900463ffffffff1660409091015287613afb565b613bcc565b829063ffffffff613be216565b6001600160a01b0390941660009081526007602052604090209390935550505050565b600c6020526000908152604090205481565b6000806001600160a01b0316600b846040518082805190602001908083835b602083106120b15780518252601f199092019160209182019101612092565b51815160209384036101000a60001901801990921691161790529201948552506040519384900301909220546001600160a01b031692909214915061213f9050576040805162461bcd60e51b815260206004820152600f60248201527f616c726561647920637265617465640000000000000000000000000000000000604482015290519081900360640190fd5b600654604080516384b47b0f60e01b81526001600160a01b038581166024830152600482019283528651604483015286519316926384b47b0f9287928792829160640190602086019080838360005b838110156121a657818101518382015260200161218e565b50505050905090810190601f1680156121d35780820380516001836020036101000a031916815260200191505b509350505050602060405180830381600087803b1580156121f357600080fd5b505af1158015612207573d6000803e3d6000fd5b505050506040513d602081101561221d57600080fd5b505160405184519192508291600b918691819060208401908083835b602083106122585780518252601f199092019160209182019101612239565b51815160209384036101000a6000190180199092169116179052920194855250604051938490030190922080546001600160a01b0319166001600160a01b039490941693909317909255506122ae9050826123ef565b60405133906001600160a01b038316907f1e778eb413620d03df0615026f51cf388a81c6fabda25b38998bf20fbd0d764690600090a392915050565b60006122f4614fdc565b61230086868686613c24565b50905061230c81612e03565b9695505050505050565b61231f81611686565b6001600160a01b03909116600090815260076020526040902055565b600080600b836040518082805190602001908083835b602083106123705780518252601f199092019160209182019101612351565b51815160001960209485036101000a019081169019919091161790529201948552506040519384900301909220546001600160a01b03169250505080611bc6576040805162461bcd60e51b815260206004820152600f60248201526e1d1bdad95b881b9bdd08199bdd5b99608a1b604482015290519081900360640190fd5b6123f881613c97565b6001600160a01b039190911660009081526009602090815260409091208251815492909301516effffffffffffffffffffffffffffff199092166001600160781b03938416177fffff000000000000000000000000000000ffffffffffffffffffffffffffffff16600160781b9390921692909202179055565b600d5481565b60076020526000908152604090205481565b600554604080516311f3bc9760e11b815233600482015290516001600160a01b03909216916323e7792e91602480820192600092909190829003018186803b1580156124d557600080fd5b505afa1580156124e9573d6000803e3d6000fd5b5050600554604080516353035ca560e11b81526001600160a01b038881166004830152878116602483015260448201879052915191909216935063a606b94a9250606480830192600092919082900301818387803b15801561254a57600080fd5b505af115801561255e573d6000803e3d6000fd5b5050505061256b83613258565b505050565b600061257a614fdc565b61258687868686613c24565b509050611b348187613afb565b60006125a3878787878787613e9e565b905061230c33613258565b6000806125ba83611686565b600554604080516370a0823160e01b81526001600160a01b038781166004830152915193945060009391909216916370a08231916024808301926020929190829003018186803b15801561260d57600080fd5b505afa158015612621573d6000803e3d6000fd5b505050506040513d602081101561263757600080fd5b5051905081811061265b57612652818363ffffffff613be216565b92505050611959565b5060009392505050565b6060846001600160a01b03166395d89b416040518163ffffffff1660e01b815260040160006040518083038186803b1580156126a057600080fd5b505afa1580156126b4573d6000803e3d6000fd5b505050506040513d6000823e601f3d908101601f1916820160405260208110156126dd57600080fd5b81019080805160405193929190846401000000008211156126fd57600080fd5b90830190602082018581111561271257600080fd5b825164010000000081118282018810171561272c57600080fd5b82525081516020918201929091019080838360005b83811015612759578181015183820152602001612741565b50505050905090810190601f1680156127865780820380516001836020036101000a031916815260200191505b5060405250600091506127969050565b8560018111156127a257fe5b146127c657604051806040016040528060018152602001600560fc1b8152506127e1565b604051806040016040528060018152602001604360f81b8152505b6127ea85614588565b6127f385614588565b6040516020018085805190602001908083835b602083106128255780518252601f199092019160209182019101612806565b51815160209384036101000a6000190180199092169116179052602d60f81b91909301908152604560f81b60018201528651600290910192870191508083835b602083106128845780518252601f199092019160209182019101612865565b6001836020036101000a03801982511681845116808217855250505050505090500180602d60f81b81525060010183805190602001908083835b602083106128dd5780518252601f1990920191602091820191016128be565b6001836020036101000a03801982511681845116808217855250505050505090500180602d60f81b81525060010182805190602001908083835b602083106129365780518252601f199092019160209182019101612917565b6001836020036101000a0380198251168184511680821785525050505050509050019450505050506040516020818303038152906040529050949350505050565b6060806060806060600a6000876001600160a01b03166001600160a01b031681526020019081526020016000208054806020026020016040519081016040528092919081815260200182805480156129f857602002820191906000526020600020905b81546001600160a01b031681526001909101906020018083116129da575b505050505093508351604051908082528060200260200182016040528015612a2a578160200160208202803883390190505b5092508351604051908082528060200260200182016040528015612a58578160200160208202803883390190505b5091508351604051908082528060200260200182016040528015612a86578160200160208202803883390190505b50905060005b8451811015612d94576000858281518110612aa357fe5b60200260200101519050612ab5614fdc565b60086000888581518110612ac557fe5b6020908102919091018101516001600160a01b03908116835282820193909352604091820160002082516080810190935280549384168352919290830190600160a01b900460ff166001811115612b1857fe5b6001811115612b2357fe5b8152600191909101546001600160781b0381166020830152600160781b900463ffffffff16604090910152905082612b6557612b5e81614595565b9750612c32565b87612b6f82614595565b6040516020018083805190602001908083835b60208310612ba15780518252601f199092019160209182019101612b82565b6001836020036101000a03801982511681845116808217855250505050505090500180600560f91b81525060010182805190602001908083835b60208310612bfa5780518252601f199092019160209182019101612bdb565b6001836020036101000a0380198251168184511680821785525050505050509050019250505060405160208183030381529060405297505b816001600160a01b03166370a082318a6040518263ffffffff1660e01b815260040180826001600160a01b03166001600160a01b0316815260200191505060206040518083038186803b158015612c8857600080fd5b505afa158015612c9c573d6000803e3d6000fd5b505050506040513d6020811015612cb257600080fd5b50518651879085908110612cc257fe5b602002602001018181525050816001600160a01b031663d0acc58f8a6040518263ffffffff1660e01b815260040180826001600160a01b03166001600160a01b0316815260200191505060206040518083038186803b158015612d2457600080fd5b505afa158015612d38573d6000803e3d6000fd5b505050506040513d6020811015612d4e57600080fd5b50518551869085908110612d5e57fe5b602002602001018181525050612d7381612e03565b848481518110612d7f57fe5b60209081029190910101525050600101612a8c565b5091939590929450565b6000818303818312801590612db35750838113155b80612dc85750600083128015612dc857508381135b610e365760405162461bcd60e51b81526004018080602001828103825260248152602001806150f46024913960400191505060405180910390fd5b600080612e0f83613981565b60408401519091506001600160781b0316600084602001516001811115612e3257fe5b1415612e5957612e526000612e4d848463ffffffff612d9e16565b6145c2565b9250612e89565b600184602001516001811115612e6b57fe5b1415612e8957612e866000612e4d838563ffffffff612d9e16565b92505b5050919050565b600082612e9f57506000611bc6565b82600019148015612eb35750600160ff1b82145b15612eef5760405162461bcd60e51b81526004018080602001828103825260278152602001806150a76027913960400191505060405180910390fd5b82820282848281612efc57fe5b0514610e365760405162461bcd60e51b81526004018080602001828103825260278152602001806150a76027913960400191505060405180910390fd5b6000828201818312801590612f4e5750838112155b80612f635750600083128015612f6357508381125b610e365760405162461bcd60e51b81526004018080602001828103825260218152602001806150446021913960400191505060405180910390fd5b600081612ff2576040805162461bcd60e51b815260206004820181905260248201527f5369676e6564536166654d6174683a206469766973696f6e206279207a65726f604482015290519081900360640190fd5b816000191480156130065750600160ff1b83145b156130425760405162461bcd60e51b81526004018080602001828103825260218152602001806150656021913960400191505060405180910390fd5b600082848161304d57fe5b05949350505050565b428410156130ab576040805162461bcd60e51b815260206004820152600e60248201527f7065726d69742065787069726564000000000000000000000000000000000000604482015290519081900360640190fd5b6010546001600160a01b038089166000818152600c602090815260408083208054600180820190925582517f6e71edae12b1b97f4d1f60370fef10105fa2faae0126114a169c64845d6126c98186015280840196909652958d166060860152608085018c905260a085019590955260c08085018b90528151808603909101815260e08501825280519083012061190160f01b6101008601526101028501969096526101228085019690965280518085039096018652610142840180825286519683019690962095839052610162840180825286905260ff89166101828501526101a284018890526101c28401879052519193926101e280820193601f1981019281900390910190855afa1580156131c6573d6000803e3d6000fd5b5050604051601f1901519150506001600160a01b038116158015906131fc5750886001600160a01b0316816001600160a01b0316145b61324d576040805162461bcd60e51b815260206004820152601160248201527f696e76616c6964207369676e6174757265000000000000000000000000000000604482015290519081900360640190fd5b505050505050505050565b6001600160a01b038082166000818152600760209081526040918290205460055483516370a0823160e01b815260048101959095529251909492909216926370a082319260248083019392829003018186803b1580156132b757600080fd5b505afa1580156132cb573d6000803e3d6000fd5b505050506040513d60208110156132e157600080fd5b50511015611600576040805162461bcd60e51b815260206004820152601760248201527f696e73756666696369656e7420636f6c6c61746572616c000000000000000000604482015290519081900360640190fd5b6000805b835481101561265b57826001600160a01b031684828154811061335957fe5b6000918252602090912001546001600160a01b031614156134145783548490600019810190811061338657fe5b9060005260206000200160009054906101000a90046001600160a01b03168482815481106133b057fe5b9060005260206000200160006101000a8154816001600160a01b0302191690836001600160a01b03160217905550838054806133e857fe5b600082815260209020810160001990810180546001600160a01b03191690550190555060019050611bc6565b60010161333a565b6134246145d1565b6001600160a01b0316633644e5156040518163ffffffff1660e01b815260040160206040518083038186803b15801561345c57600080fd5b505afa158015613470573d6000803e3d6000fd5b505050506040513d602081101561348657600080fd5b505160105560408051630110ceef60e21b8152602060048201819052600c60248301526b2a34b6b2a83937bb34b232b960a11b604483015291516001600160a01b038416926304433bbc9260648082019391829003018186803b1580156134ec57600080fd5b505afa158015613500573d6000803e3d6000fd5b505050506040513d602081101561351657600080fd5b5051600380546001600160a01b0319166001600160a01b0392831617905560408051630110ceef60e21b8152602060048201819052600e60248301527f43726564697450726f766964657200000000000000000000000000000000000060448301529151928416926304433bbc92606480840193919291829003018186803b1580156135a157600080fd5b505afa1580156135b5573d6000803e3d6000fd5b505050506040513d60208110156135cb57600080fd5b5051600580546001600160a01b0319166001600160a01b0392831617905560408051630110ceef60e21b8152602060048201819052601060248301527f50726f746f636f6c53657474696e67730000000000000000000000000000000060448301529151928416926304433bbc92606480840193919291829003018186803b15801561365657600080fd5b505afa15801561366a573d6000803e3d6000fd5b505050506040513d602081101561368057600080fd5b5051600480546001600160a01b0319166001600160a01b0392831617815560408051630110ceef60e21b81526020928101839052601260248201527f4f7074696f6e546f6b656e466163746f7279000000000000000000000000000060448201529051928416926304433bbc92606480840193919291829003018186803b15801561370a57600080fd5b505afa15801561371e573d6000803e3d6000fd5b505050506040513d602081101561373457600080fd5b5051600680546001600160a01b0319166001600160a01b0390921691909117905550670de0b6b3a7640000600d819055600e55633b9aca00600f55565b6000611ccb600f546137a961378d613788866145e0565b614648565b61379d888863ffffffff61469e16565b9063ffffffff61469e16565b9063ffffffff6146f716565b600081600001516001600160a01b0316638e15f4736040518163ffffffff1660e01b8152600401604080518083038186803b1580156137f357600080fd5b505afa158015613807573d6000803e3d6000fd5b505050506040513d604081101561167e57600080fd5b600080846001600160a01b031663d0acc58f886040518263ffffffff1660e01b815260040180826001600160a01b03166001600160a01b0316815260200191505060206040518083038186803b15801561387657600080fd5b505afa15801561388a573d6000803e3d6000fd5b505050506040513d60208110156138a057600080fd5b505190506138b4838263ffffffff61469e16565b92508315613924576138c887868386614739565b9150866001600160a01b0316336001600160a01b0316866001600160a01b03167f4a3cb05a76ff28d45e2b73730a44e1d836d2c5adb86a3cc9d2b6473b59c35849846040518082815260200191505060405180910390a4613977565b6000811161396a576040805162461bcd60e51b815260206004820152600e60248201526d696e76616c696420766f6c756d6560901b604482015290519081900360640190fd5b611b348787878487614853565b5095945050505050565b60035460408051630bbe4fd560e41b815290516000926001600160a01b03169163bbe4fd50916004808301926020929190829003018186803b1580156139c657600080fd5b505afa1580156139da573d6000803e3d6000fd5b505050506040513d60208110156139f057600080fd5b5051606083015163ffffffff161115613a755781600001516001600160a01b0316638e15f4736040518163ffffffff1660e01b8152600401604080518083038186803b158015613a3f57600080fd5b505afa158015613a53573d6000803e3d6000fd5b505050506040513d6040811015613a6957600080fd5b50602001519050611959565b81600001516001600160a01b031663e757223083606001516040518263ffffffff1660e01b8152600401808263ffffffff168152602001915050604080518083038186803b158015613ac657600080fd5b505afa158015613ada573d6000803e3d6000fd5b505050506040513d6040811015613af057600080fd5b506020015192915050565b6000613b05615005565b5082516001600160a01b03166000908152600960209081526040918290208251808401909352546001600160781b03808216808552600160781b90920416918301919091521580613b61575060208101516001600160781b0316155b15613b74578351613b7190613c97565b90505b6000613bb0600d54613ba4613b9785602001516001600160781b0316888a613771565b61190b88610df68b612e03565b9063ffffffff612f9e16565b905060008113613bc1576000613bc3565b805b95945050505050565b6000818310613bdb5781610e36565b5090919050565b6000610e3683836040518060400160405280601e81526020017f536166654d6174683a207375627472616374696f6e206f766572666c6f770000815250614a18565b613c2c614fdc565b60606040518060800160405280876001600160a01b03168152602001866001811115613c5457fe5b8152602001613c6286614aaf565b6001600160781b03168152602001613c7985614af7565b63ffffffff1690529150613c8c82614595565b905094509492505050565b613c9f615005565b60008290506000816001600160a01b031663990c11d8600460009054906101000a90046001600160a01b03166001600160a01b031663b8c3af7b6040518163ffffffff1660e01b815260040160206040518083038186803b158015613d0357600080fd5b505afa158015613d17573d6000803e3d6000fd5b505050506040513d6020811015613d2d57600080fd5b5051604080517fffffffff0000000000000000000000000000000000000000000000000000000060e085901b1681526004810192909252516024808301926020929190829003018186803b158015613d8457600080fd5b505afa158015613d98573d6000803e3d6000fd5b505050506040513d6020811015613dae57600080fd5b50516040805180820180835263d2cc49a160e01b9052604481018390529051919250908190613e36906001600160a01b0386169063d2cc49a190606480860191602091818803018186803b158015613e0557600080fd5b505afa158015613e19573d6000803e3d6000fd5b505050506040513d6020811015613e2f57600080fd5b5051614aaf565b6001600160781b03168152602001613e8b846001600160a01b031663c26802c9856040518263ffffffff1660e01b81526004018082815260200191505060206040518083038186803b158015613e0557600080fd5b6001600160781b03169052949350505050565b60048054604080516310fda6df60e31b81526001600160a01b038a8116948201949094529051600093849316916387ed36f8916024808301926020929190829003018186803b158015613ef057600080fd5b505afa158015613f04573d6000803e3d6000fd5b505050506040513d6020811015613f1a57600080fd5b505113613f6e576040805162461bcd60e51b815260206004820152601060248201527f66656564206e6f7420616c6c6f77656400000000000000000000000000000000604482015290519081900360640190fd5b60008611613fb4576040805162461bcd60e51b815260206004820152600e60248201526d696e76616c696420766f6c756d6560901b604482015290519081900360640190fd5b600360009054906101000a90046001600160a01b03166001600160a01b031663bbe4fd506040518163ffffffff1660e01b815260040160206040518083038186803b15801561400257600080fd5b505afa158015614016573d6000803e3d6000fd5b505050506040513d602081101561402c57600080fd5b50518311614081576040805162461bcd60e51b815260206004820152601060248201527f696e76616c6964206d6174757269747900000000000000000000000000000000604482015290519081900360640190fd5b614089614fdc565b606061409789888888613c24565b91509150600b816040518082805190602001908083835b602083106140cd5780518252601f1990920191602091820191016140ae565b51815160001960209485036101000a019081169019919091161790529201948552506040519384900301909220546001600160a01b0316945050508261411a57614117818a612073565b92505b6040805163d0acc58f60e01b8152336004820152905184916001600160a01b0383169163d0acc58f91602480820192602092909190829003018186803b15801561416357600080fd5b505afa158015614177573d6000803e3d6000fd5b505050506040513d602081101561418d57600080fd5b505115801561420b5750604080516370a0823160e01b815233600482015290516001600160a01b038316916370a08231916024808301926020929190829003018186803b1580156141dd57600080fd5b505afa1580156141f1573d6000803e3d6000fd5b505050506040513d602081101561420757600080fd5b5051155b1561424957336000908152600a602090815260408220805460018101825590835291200180546001600160a01b0319166001600160a01b0386161790555b336001600160a01b038616148015906142e15750806001600160a01b031663d0acc58f866040518263ffffffff1660e01b815260040180826001600160a01b03166001600160a01b0316815260200191505060206040518083038186803b1580156142b357600080fd5b505afa1580156142c7573d6000803e3d6000fd5b505050506040513d60208110156142dd57600080fd5b5051155b801561436c5750806001600160a01b03166370a08231866040518263ffffffff1660e01b815260040180826001600160a01b03166001600160a01b0316815260200191505060206040518083038186803b15801561433e57600080fd5b505afa158015614352573d6000803e3d6000fd5b505050506040513d602081101561436857600080fd5b5051155b156143b0576001600160a01b038581166000908152600a602090815260408220805460018101825590835291200180546001600160a01b0319169186169190911790555b60408051635b09ccc960e11b81523360048201526001600160a01b038781166024830152604482018c905291519183169163b61399929160648082019260009290919082900301818387803b15801561440857600080fd5b505af115801561441c573d6000803e3d6000fd5b505050506001600160a01b03848116600090815260086020526040902054166144f9576001600160a01b038481166000908152600860209081526040909120855181546001600160a01b03191693169290921780835590850151859291829060ff60a01b1916600160a01b83600181111561449357fe5b021790555060408201516001909101805460609093015163ffffffff16600160781b0272ffffffff000000000000000000000000000000196001600160781b039093166effffffffffffffffffffffffffffff1990941693909317919091169190911790555b614522614506848b613afb565b336000908152600760205260409020549063ffffffff614b3c16565b336000818152600760209081526040918290209390935580518c815290516001600160a01b0389811694908916927f84aa5b93ad2c470d4e48853ea55b71721d342628a481c8c40e3ebc6e728d4be5929081900390910190a45050509695505050505050565b6060611bc6826001614b96565b6060611bc68260000151836020015184604001516001600160781b0316856060015163ffffffff16612665565b6000818313613bdb5781610e36565b6002546001600160a01b031690565b6000806145ec836137b5565b905080836060015163ffffffff16111561463d57614636620151806137a961462784876060015163ffffffff16613be290919063ffffffff16565b600e549063ffffffff61469e16565b9150614642565b600091505b50919050565b60008061466160026137a985600163ffffffff614b3c16565b90508291505b818110156146425790508061469760026137a98361468b878263ffffffff6146f716565b9063ffffffff614b3c16565b9050614667565b6000826146ad57506000611bc6565b828202828482816146ba57fe5b0414610e365760405162461bcd60e51b81526004018080602001828103825260218152602001806150866021913960400191505060405180910390fd5b6000610e3683836040518060400160405280601a81526020017f536166654d6174683a206469766973696f6e206279207a65726f000000000000815250614e1d565b600081156147cd57600d5461475590839063ffffffff6146f716565b60055460408051633468331760e21b81526001600160a01b038981166004830152888116602483015260448201859052915193945091169163d1a0cc5c9160648082019260009290919082900301818387803b1580156147b457600080fd5b505af11580156147c8573d6000803e3d6000fd5b505050505b8215611ccb57836001600160a01b0316639dc29fac86856040518363ffffffff1660e01b815260040180836001600160a01b03166001600160a01b0316815260200182815260200192505050600060405180830381600087803b15801561483357600080fd5b505af1158015614847573d6000803e3d6000fd5b50505050949350505050565b600061485d615005565b5084516001600160a01b031660009081526009602090815260408083208151808301909252546001600160781b038082168352600160781b9091041691810191909152906148ad88888488614e82565b90506148cf600d546137a98985600001516001600160781b031689868a614fc3565b60055460408051633468331760e21b81526001600160a01b038c811660048301528a8116602483015260448201859052915193965091169163d1a0cc5c9160648082019260009290919082900301818387803b15801561492e57600080fd5b505af1158015614942573d6000803e3d6000fd5b5050505060008111156149c857856001600160a01b0316639dc29fac89836040518363ffffffff1660e01b815260040180836001600160a01b03166001600160a01b0316815260200182815260200192505050600060405180830381600087803b1580156149af57600080fd5b505af11580156149c3573d6000803e3d6000fd5b505050505b6040805182815290516001600160a01b03808b16923392918a16917f9426e81f32e21c1b2a7f64d6c9eb9e0434fa97ec784cdb07005deb22335590729181900360200190a4505095945050505050565b60008184841115614aa75760405162461bcd60e51b81526004018080602001828103825283818151815260200191508051906020019080838360005b83811015614a6c578181015183820152602001614a54565b50505050905090810190601f168015614a995780820380516001836020036101000a031916815260200191505b509250505060405180910390fd5b505050900390565b6000600160781b8210614af35760405162461bcd60e51b815260040180806020018281038252602781526020018061501d6027913960400191505060405180910390fd5b5090565b60006401000000008210614af35760405162461bcd60e51b81526004018080602001828103825260268152602001806150ce6026913960400191505060405180910390fd5b600082820183811015610e36576040805162461bcd60e51b815260206004820152601b60248201527f536166654d6174683a206164646974696f6e206f766572666c6f770000000000604482015290519081900360640190fd5b606082614bbb57506040805180820190915260018152600360fc1b6020820152611bc6565b60408051606480825260a082019092526060908260208201818038833901905050905060005b8515614c27578151600a808804976001840193919006916030830160f81b9185918110614c0a57fe5b60200101906001600160f81b031916908160001a90535050614be1565b60008515614c935760005b82811015614c9157838181518110614c4657fe5b6020910101517fff0000000000000000000000000000000000000000000000000000000000000016600360fc1b1415614c8457600190910190614c89565b614c91565b600101614c32565b505b600060028211614ca4576000614ca6565b815b830390506060816040519080825280601f01601f191660200182016040528015614cd7576020820181803883390190505b50905060005b82811015614d2c578560018287030381518110614cf657fe5b602001015160f81c60f81b828281518110614d0d57fe5b60200101906001600160f81b031916908160001a905350600101614cdd565b50809650878015614d3d5750600283115b15614e115780614d4e846000614b96565b6040516020018083805190602001908083835b60208310614d805780518252601f199092019160209182019101614d61565b6001836020036101000a03801982511681845116808217855250505050505090500180606560f81b81525060010182805190602001908083835b60208310614dd95780518252601f199092019160209182019101614dba565b6001836020036101000a0380198251168184511680821785525050505050509050019250505060405160208183030381529060405296505b50505050505092915050565b60008183614e6c5760405162461bcd60e51b8152602060048201818152835160248401528351909283926044909101919085019080838360008315614a6c578181015183820152602001614a54565b506000838581614e7857fe5b0495945050505050565b600554604080516370a0823160e01b81526001600160a01b0387811660048301529151600093849316916370a08231916024808301926020929190829003018186803b158015614ed157600080fd5b505afa158015614ee5573d6000803e3d6000fd5b505050506040513d6020811015614efb57600080fd5b505190506000614f0a87611686565b9050818111614f60576040805162461bcd60e51b815260206004820152601560248201527f756e66697420666f72206c69717569646174696f6e0000000000000000000000604482015290519081900360640190fd5b614fb7614f9a614f9387600001516001600160781b031688602001516001600160781b0316613be290919063ffffffff16565b8689613771565b6137a98661379d600d5461379d8888613be290919063ffffffff16565b9250611b348385613bcc565b600061230c846137a98561379d8661468b8b8b8e613771565b604080516080810190915260008082526020820190815260006020820181905260409091015290565b60408051808201909152600080825260208201529056fe53616665436173743a2076616c756520646f65736e27742066697420696e2031323020626974735369676e6564536166654d6174683a206164646974696f6e206f766572666c6f775369676e6564536166654d6174683a206469766973696f6e206f766572666c6f77536166654d6174683a206d756c7469706c69636174696f6e206f766572666c6f775369676e6564536166654d6174683a206d756c7469706c69636174696f6e206f766572666c6f7753616665436173743a2076616c756520646f65736e27742066697420696e20333220626974735369676e6564536166654d6174683a207375627472616374696f6e206f766572666c6f77a2646970667358221220fef780ea20324419eaceeb2c8702794cfba4d545a1890cb82e4a1b37bf17a08e64736f6c63430006000033454950373132446f6d61696e28737472696e67206e616d652c737472696e672076657273696f6e2c75696e7432353620636861696e49642c6164647265737320766572696679696e67436f6e747261637429",
  "source": "pragma solidity >=0.6.0;\n\nimport \"../deployment/Deployer.sol\";\nimport \"../deployment/ManagedContract.sol\";\nimport \"../governance/ProtocolSettings.sol\";\nimport \"../utils/ERC20.sol\";\nimport \"../interfaces/TimeProvider.sol\";\nimport \"../interfaces/UnderlyingFeed.sol\";\nimport \"../utils/Arrays.sol\";\nimport \"../utils/MoreMath.sol\";\nimport \"../utils/SafeCast.sol\";\nimport \"../utils/SafeMath.sol\";\nimport \"../utils/SignedSafeMath.sol\";\nimport \"./CreditProvider.sol\";\nimport \"./OptionToken.sol\";\nimport \"./OptionTokenFactory.sol\";\n\ncontract OptionsExchange is ManagedContract {\n\n    using SafeCast for uint;\n    using SafeMath for uint;\n    using SignedSafeMath for int;\n    \n    enum OptionType { CALL, PUT }\n    \n    struct OptionData {\n        address udlFeed;\n        OptionType _type;\n        uint120 strike;\n        uint32 maturity;\n    }\n\n    struct FeedData {\n        uint120 lowerVol;\n        uint120 upperVol;\n    }\n    \n    TimeProvider private time;\n    ProtocolSettings private settings;\n    CreditProvider private creditProvider;\n    OptionTokenFactory private factory;\n\n    mapping(address => uint) public collateral;\n    mapping(address => OptionData) private options;\n    mapping(address => FeedData) private feeds;\n    mapping(address => address[]) private book;\n    mapping(string => address) private tokenAddress;\n    mapping(address => uint) public nonces;\n    \n    uint public volumeBase;\n    uint private timeBase;\n    uint private sqrtTimeBase;\n\n    bytes32 public DOMAIN_SEPARATOR;\n    // keccak256(\"Permit(address owner,address spender,uint256 value,uint256 nonce,uint256 deadline)\");\n    bytes32 public constant PERMIT_TYPEHASH = 0x6e71edae12b1b97f4d1f60370fef10105fa2faae0126114a169c64845d6126c9;\n    string private constant _name = \"OptionsExchange\";\n\n    event CreateSymbol(address indexed token, address indexed sender);\n\n    event WriteOptions(\n        address indexed token,\n        address indexed issuer,\n        address indexed onwer,\n        uint volume\n    );\n\n    event LiquidateEarly(\n        address indexed token,\n        address indexed sender,\n        address indexed onwer,\n        uint volume\n    );\n\n    event LiquidateExpired(\n        address indexed token,\n        address indexed sender,\n        address indexed onwer,\n        uint volume\n    );\n\n    constructor() public {\n\n        uint chainId;\n        assembly {\n            chainId := chainid()\n        }\n        DOMAIN_SEPARATOR = keccak256(\n            abi.encode(\n                keccak256('EIP712Domain(string name,string version,uint256 chainId,address verifyingContract)'),\n                keccak256(bytes(_name)),\n                keccak256(bytes('1')),\n                chainId,\n                address(this)\n            )\n        );\n    }\n\n    function initialize(Deployer deployer) override internal {\n\n        DOMAIN_SEPARATOR = OptionsExchange(getImplementation()).DOMAIN_SEPARATOR();\n\n        time = TimeProvider(deployer.getContractAddress(\"TimeProvider\"));\n        creditProvider = CreditProvider(deployer.getContractAddress(\"CreditProvider\"));\n        settings = ProtocolSettings(deployer.getContractAddress(\"ProtocolSettings\"));\n        factory = OptionTokenFactory(deployer.getContractAddress(\"OptionTokenFactory\"));\n\n        volumeBase = 1e18;\n        timeBase = 1e18;\n        sqrtTimeBase = 1e9;\n    }\n    \n    function name() external pure returns (string memory) {\n\n        return _name;\n    }\n\n    function depositTokens(\n        address to,\n        address token,\n        uint value,\n        uint deadline,\n        uint8 v,\n        bytes32 r,\n        bytes32 s\n    )\n        external\n    {\n        ERC20(token).permit(msg.sender, address(this), value, deadline, v, r, s);\n        depositTokens(to, token, value);\n    }\n\n    function depositTokens(address to, address token, uint value) public {\n\n        ERC20 t = ERC20(token);\n        t.transferFrom(msg.sender, address(creditProvider), value);\n        creditProvider.addBalance(to, token, value);\n    }\n\n    function balanceOf(address owner) external view returns (uint) {\n\n        return creditProvider.balanceOf(owner);\n    }\n\n    function transferBalance(\n        address from, \n        address to, \n        uint value\n    )\n        external\n    {\n        creditProvider.ensureCaller(msg.sender);\n        creditProvider.transferBalance(from, to, value);\n        ensureFunds(from);\n    }\n\n    function transferBalance(\n        address from, \n        address to, \n        uint value,\n        uint maxValue,\n        uint deadline,\n        uint8 v,\n        bytes32 r,\n        bytes32 s\n    )\n        external\n    {\n        require(maxValue >= value, \"insufficient permit value\");\n        permit(from, to, maxValue, deadline, v, r, s);\n        creditProvider.transferBalance(from, to, value);\n        ensureFunds(from);\n    }\n\n    function transferBalance(address to, uint value) public {\n\n        creditProvider.transferBalance(msg.sender, to, value);\n        ensureFunds(msg.sender);\n    }\n    \n    function withdrawTokens(uint value) external {\n        \n        require(value <= calcSurplus(msg.sender), \"insufficient surplus\");\n        creditProvider.withdrawTokens(msg.sender, value);\n    }\n\n    function createSymbol(string memory symbol, address udlFeed) public returns (address tk) {\n\n        require(tokenAddress[symbol] == address(0), \"already created\");\n        tk = factory.create(symbol, udlFeed);\n        tokenAddress[symbol] = tk;\n        prefetchFeedData(udlFeed);\n        emit CreateSymbol(tk, msg.sender);\n    }\n\n    function getOptionSymbol(\n        address udlFeed,\n        OptionType optType,\n        uint strike, \n        uint maturity\n    )\n        public\n        view\n        returns (string memory symbol)\n    {    \n        symbol = string(abi.encodePacked(\n            UnderlyingFeed(udlFeed).symbol(),\n            \"-\",\n            \"E\",\n            optType == OptionType.CALL ? \"C\" : \"P\",\n            \"-\",\n            MoreMath.toString(strike),\n            \"-\",\n            MoreMath.toString(maturity)\n        ));\n    }\n\n    function writeOptions(\n        address udlFeed,\n        uint volume,\n        OptionType optType,\n        uint strike, \n        uint maturity,\n        address to\n    )\n        external \n        returns (address _tk)\n    {\n        (_tk) = writeOptionsInternal(udlFeed, volume, optType, strike, maturity, to);\n        ensureFunds(msg.sender);\n    }\n    \n    function transferOwnership(\n        string calldata symbol,\n        address from,\n        address to,\n        uint value\n    )\n        external\n    {\n        require(tokenAddress[symbol] == msg.sender, \"unauthorized ownership transfer\");\n        \n        OptionToken tk = OptionToken(msg.sender);\n        \n        if (tk.writtenVolume(from) == 0 && tk.balanceOf(from) == 0) {\n            Arrays.removeItem(book[from], msg.sender);\n        }\n\n        if (tk.writtenVolume(to) == 0 && tk.balanceOf(to) == value) {\n            book[to].push(msg.sender);\n        }\n\n        ensureFunds(from);\n    }\n\n    function cleanUp(address _tk, address owner, uint volume) public {\n\n        OptionToken tk = OptionToken(_tk);\n        if (tk.balanceOf(owner) == 0 && tk.writtenVolume(owner) == 0) {\n            Arrays.removeItem(book[owner], _tk);\n        }\n        uint coll = collateral[owner];\n        collateral[owner] = coll.sub(\n            MoreMath.min(coll, calcCollateral(options[_tk], volume))\n        );\n    }\n\n    function liquidateExpired(address _tk, address[] calldata owners) external {\n\n        OptionData memory opt = options[_tk];\n        OptionToken tk = OptionToken(_tk);\n        require(getUdlNow(opt) >= opt.maturity, \"option not expired\");\n        uint iv = uint(calcIntrinsicValue(opt));\n\n        for (uint i = 0; i < owners.length; i++) {\n            liquidateOptions(owners[i], opt, tk, true, iv);\n        }\n    }\n\n    function liquidateOptions(address _tk, address owner) public returns (uint value) {\n        \n        OptionData memory opt = options[_tk];\n        require(opt.udlFeed != address(0), \"invalid token\");\n\n        OptionToken tk = OptionToken(_tk);\n        require(tk.writtenVolume(owner) > 0, \"invalid owner\");\n\n        bool isExpired = getUdlNow(opt) >= opt.maturity;\n        uint iv = uint(calcIntrinsicValue(opt));\n        \n        value = liquidateOptions(owner, opt, tk, isExpired, iv);\n    }\n\n    function calcDebt(address owner) external view returns (uint debt) {\n\n        debt = creditProvider.calcDebt(owner);\n    }\n    \n    function calcSurplus(address owner) public view returns (uint) {\n        \n        uint coll = calcCollateral(owner);\n        uint bal = creditProvider.balanceOf(owner);\n        if (bal >= coll) {\n            return bal.sub(coll);\n        }\n        return 0;\n    }\n\n    function setCollateral(address owner) external {\n\n        collateral[owner] = calcCollateral(owner);\n    }\n    \n    function calcCollateral(address owner) public view returns (uint) {\n        \n        int coll;\n        address[] memory _book = book[owner];\n\n        for (uint i = 0; i < _book.length; i++) {\n\n            address _tk = _book[i];\n            OptionToken tk = OptionToken(_tk);\n            OptionData memory opt = options[_tk];\n\n            uint written = tk.writtenVolume(owner);\n            uint holding = tk.balanceOf(owner);\n\n            coll = coll.add(\n                calcIntrinsicValue(opt).mul(\n                    int(written).sub(int(holding))\n                )\n            ).add(int(calcCollateral(feeds[opt.udlFeed].upperVol, written, opt)));\n        }\n\n        coll = coll.div(int(volumeBase));\n\n        if (coll < 0)\n            return 0;\n        return uint(coll);\n    }\n\n    function calcCollateral(\n        address udlFeed,\n        uint volume,\n        OptionType optType,\n        uint strike, \n        uint maturity\n    )\n        public\n        view\n        returns (uint)\n    {\n        (OptionData memory opt,) = createOptionInMemory(udlFeed, optType, strike, maturity);\n        return calcCollateral(opt, volume);\n    }\n\n    function calcExpectedPayout(address owner) external view returns (int payout) {\n\n        address[] memory _book = book[owner];\n\n        for (uint i = 0; i < _book.length; i++) {\n\n            OptionToken tk = OptionToken(_book[i]);\n            OptionData memory opt = options[_book[i]];\n\n            uint written = tk.writtenVolume(owner);\n            uint holding = tk.balanceOf(owner);\n\n            payout = payout.add(\n                calcIntrinsicValue(opt).mul(\n                    int(holding).sub(int(written))\n                )\n            );\n        }\n\n        payout = payout.div(int(volumeBase));\n    }\n    \n    function calcIntrinsicValue(address _tk) external view returns (int) {\n        \n        return calcIntrinsicValue(options[_tk]);\n    }\n\n    function calcIntrinsicValue(\n        address udlFeed,\n        OptionType optType,\n        uint strike, \n        uint maturity\n    )\n        external\n        view\n        returns (int)\n    {\n        (OptionData memory opt,) = createOptionInMemory(udlFeed, optType, strike, maturity);\n        return calcIntrinsicValue(opt);\n    }\n\n    function getUnderlyingPrice(string calldata symbol) external view returns (int) {\n        \n        address _ts = tokenAddress[symbol];\n        require(_ts != address(0), \"token not found\");\n        return getUdlPrice(options[_ts]);\n    }\n\n    function resolveToken(string memory symbol) public view returns (address) {\n        \n        address addr = tokenAddress[symbol];\n        require(addr != address(0), \"token not found\");\n        return addr;\n    }\n\n    function prefetchFeedData(address udlFeed) public {\n        \n        feeds[udlFeed] = getFeedData(udlFeed);\n    }\n\n    function getBook(address owner)\n        external view\n        returns (\n            string memory symbols,\n            address[] memory tokens,\n            uint[] memory holding,\n            uint[] memory written,\n            int[] memory iv\n        )\n    {\n        tokens = book[owner];\n        holding = new uint[](tokens.length);\n        written = new uint[](tokens.length);\n        iv = new int[](tokens.length);\n\n        for (uint i = 0; i < tokens.length; i++) {\n            OptionToken tk = OptionToken(tokens[i]);\n            OptionData memory opt = options[tokens[i]];\n            if (i == 0) {\n                symbols = getOptionSymbol(opt);\n            } else {\n                symbols = string(abi.encodePacked(symbols, \"\\n\", getOptionSymbol(opt)));\n            }\n            holding[i] = tk.balanceOf(owner);\n            written[i] = tk.writtenVolume(owner);\n            iv[i] = calcIntrinsicValue(opt);\n        }\n    }\n\n    function ensureFunds(address owner) private view {\n        \n        require(\n            creditProvider.balanceOf(owner) >= collateral[owner],\n            \"insufficient collateral\"\n        );\n    }\n\n    function permit(\n        address from,\n        address to,\n        uint value,\n        uint deadline,\n        uint8 v,\n        bytes32 r,\n        bytes32 s\n    )\n        private\n    {\n        require(deadline >= block.timestamp, \"permit expired\");\n        bytes32 digest = keccak256(\n            abi.encodePacked(\n                \"\\x19\\x01\",\n                DOMAIN_SEPARATOR,\n                keccak256(\n                    abi.encode(PERMIT_TYPEHASH, from, to, value, nonces[from]++, deadline)\n                )\n            )\n        );\n        address recoveredAddress = ecrecover(digest, v, r, s);\n        require(recoveredAddress != address(0) && recoveredAddress == from, \"invalid signature\");\n    }\n\n    function writeOptionsInternal(\n        address udlFeed,\n        uint volume,\n        OptionType optType,\n        uint strike, \n        uint maturity,\n        address to\n    )\n        private \n        returns (address _tk)\n    {\n        require(settings.getUdlFeed(udlFeed) > 0, \"feed not allowed\");\n        require(volume > 0, \"invalid volume\");\n        require(maturity > time.getNow(), \"invalid maturity\");\n\n        (OptionData memory opt, string memory symbol) =\n            createOptionInMemory(udlFeed, optType, strike, maturity);\n\n        _tk = tokenAddress[symbol];\n        if (_tk == address(0)) {\n            _tk = createSymbol(symbol, udlFeed);\n        }\n\n        OptionToken tk = OptionToken(_tk);\n        if (tk.writtenVolume(msg.sender) == 0 && tk.balanceOf(msg.sender) == 0) {\n            book[msg.sender].push(_tk);\n        }\n        if (msg.sender != to && tk.writtenVolume(to) == 0 && tk.balanceOf(to) == 0) {\n            book[to].push(_tk);\n        }\n        tk.issue(msg.sender, to, volume);\n\n        if (options[_tk].udlFeed == address(0)) {\n            options[_tk] = opt;\n        }\n        \n        collateral[msg.sender] = collateral[msg.sender].add(\n            calcCollateral(opt, volume)\n        );\n\n        emit WriteOptions(_tk, msg.sender, to, volume);\n    }\n\n    function createOptionInMemory(\n        address udlFeed,\n        OptionType optType,\n        uint strike, \n        uint maturity\n    )\n        private\n        view\n        returns (OptionData memory opt, string memory symbol)\n    {\n        opt = OptionData(udlFeed, optType, strike.toUint120(), maturity.toUint32());\n        symbol = getOptionSymbol(opt);\n    }\n\n    function liquidateOptions(\n        address owner,\n        OptionData memory opt,\n        OptionToken tk,\n        bool isExpired,\n        uint iv\n    )\n        private\n        returns (uint value)\n    {\n        uint written = tk.writtenVolume(owner);\n        iv = iv.mul(written);\n\n        if (isExpired) {\n            value = liquidateAfterMaturity(owner, tk, written, iv);\n            emit LiquidateExpired(address(tk), msg.sender, owner, written);\n        } else {\n            require(written > 0, \"invalid volume\");\n            value = liquidateBeforeMaturity(owner, opt, tk, written, iv);\n        }\n    }\n\n    function liquidateAfterMaturity(\n        address owner,\n        OptionToken tk,\n        uint written,\n        uint iv\n    )\n        private\n        returns (uint value)\n    {\n        if (iv > 0) {\n            value = iv.div(volumeBase);\n            creditProvider.processPayment(owner, address(tk), value);\n        }\n\n        if (written > 0) {\n            tk.burn(owner, written);\n        }\n    }\n\n    function liquidateBeforeMaturity(\n        address owner,\n        OptionData memory opt,\n        OptionToken tk,\n        uint written,\n        uint iv\n    )\n        private\n        returns (uint value)\n    {\n        FeedData memory fd = feeds[opt.udlFeed];\n\n        uint volume = calcLiquidationVolume(owner, opt, fd, written);\n        value = calcLiquidationValue(opt, fd.lowerVol, written, volume, iv)\n            .div(volumeBase);\n        creditProvider.processPayment(owner, address(tk), value);\n\n        if (volume > 0) {\n            tk.burn(owner, volume);\n        }\n\n        emit LiquidateEarly(address(tk), msg.sender, owner, volume);\n    }\n\n    function calcLiquidationVolume(\n        address owner,\n        OptionData memory opt,\n        FeedData memory fd,\n        uint written\n    )\n        private\n        view\n        returns (uint volume)\n    {    \n        uint bal = creditProvider.balanceOf(owner);\n        uint coll = calcCollateral(owner);\n        require(coll > bal, \"unfit for liquidation\");\n\n        volume = coll.sub(bal).mul(volumeBase).mul(written).div(\n            calcCollateral(\n                uint(fd.upperVol).sub(uint(fd.lowerVol)),\n                written,\n                opt\n            )\n        );\n\n        volume = MoreMath.min(volume, written);\n    }\n\n    function calcLiquidationValue(\n        OptionData memory opt,\n        uint vol,\n        uint written,\n        uint volume,\n        uint iv\n    )\n        private\n        view\n        returns (uint value)\n    {    \n        value = calcCollateral(vol, written, opt).add(iv).mul(volume).div(written);\n    }\n\n    function getFeedData(address udlFeed) private view returns (FeedData memory fd) {\n        \n        UnderlyingFeed feed = UnderlyingFeed(udlFeed);\n\n        uint vol = feed.getDailyVolatility(settings.getVolatilityPeriod());\n\n        fd = FeedData(\n            feed.calcLowerVolatility(uint(vol)).toUint120(),\n            feed.calcUpperVolatility(uint(vol)).toUint120()\n        );\n    }\n\n    function getOptionSymbol(OptionData memory opt) private view returns (string memory symbol) {    \n\n        symbol = getOptionSymbol(\n            opt.udlFeed,\n            opt._type,\n            opt.strike,\n            opt.maturity\n        );\n    }\n\n    function calcCollateral(\n        OptionData memory opt,\n        uint volume\n    )\n        private\n        view\n        returns (uint)\n    {\n        FeedData memory fd = feeds[opt.udlFeed];\n        if (fd.lowerVol == 0 || fd.upperVol == 0) {\n            fd = getFeedData(opt.udlFeed);\n        }\n\n        int coll = calcIntrinsicValue(opt).mul(int(volume)).add(\n            int(calcCollateral(fd.upperVol, volume, opt))\n        ).div(int(volumeBase));\n\n        return coll > 0 ? uint(coll) : 0;\n    }\n    \n    function calcCollateral(uint vol, uint volume, OptionData memory opt) private view returns (uint) {\n        \n        return (vol.mul(volume).mul(\n            MoreMath.sqrt(daysToMaturity(opt)))\n        ).div(sqrtTimeBase);\n    }\n    \n    function calcIntrinsicValue(OptionData memory opt) private view returns (int value) {\n        \n        int udlPrice = getUdlPrice(opt);\n        int strike = int(opt.strike);\n\n        if (opt._type == OptionType.CALL) {\n            value = MoreMath.max(0, udlPrice.sub(strike));\n        } else if (opt._type == OptionType.PUT) {\n            value = MoreMath.max(0, strike.sub(udlPrice));\n        }\n    }\n    \n    function daysToMaturity(OptionData memory opt) private view returns (uint d) {\n        \n        uint _now = getUdlNow(opt);\n        if (opt.maturity > _now) {\n            d = (timeBase.mul(uint(opt.maturity).sub(uint(_now)))).div(1 days);\n        } else {\n            d = 0;\n        }\n    }\n\n    function getUdlPrice(OptionData memory opt) private view returns (int answer) {\n\n        if (opt.maturity > time.getNow()) {\n            (,answer) = UnderlyingFeed(opt.udlFeed).getLatestPrice();\n        } else {\n            (,answer) = UnderlyingFeed(opt.udlFeed).getPrice(opt.maturity);\n        }\n    }\n\n    function getUdlNow(OptionData memory opt) private view returns (uint timestamp) {\n\n        (timestamp,) = UnderlyingFeed(opt.udlFeed).getLatestPrice();\n    }\n}\n",
  "sourcePath": "/Users/dev/Documents/coding/defioptions/DeFiOptions-contracts/contracts/finance/OptionsExchange.sol",
  "compiler": {
    "name": "solc",
    "version": "0.6.0+commit.26b70077.Emscripten.clang"
  },
  "schemaVersion": "3.3.3",
  "updatedAt": "2021-05-10T21:18:51.409Z",
  "devdoc": {
    "methods": {}
  },
  "userdoc": {
    "methods": {}
  }
}